{
  "_format": "hh-sol-artifact-1",
  "contractName": "FaceGuard",
  "sourceName": "contracts/FaceGuard.sol",
  "abi": [
    {
      "inputs": [],
      "stateMutability": "nonpayable",
      "type": "constructor"
    },
    {
      "anonymous": false,
      "inputs": [
        {
          "indexed": false,
          "internalType": "string",
          "name": "username",
          "type": "string"
        }
      ],
      "name": "FaceHashUpdated",
      "type": "event"
    },
    {
      "anonymous": false,
      "inputs": [
        {
          "indexed": false,
          "internalType": "string",
          "name": "groupName",
          "type": "string"
        }
      ],
      "name": "GroupCreated",
      "type": "event"
    },
    {
      "anonymous": false,
      "inputs": [
        {
          "indexed": false,
          "internalType": "string",
          "name": "username",
          "type": "string"
        }
      ],
      "name": "PasswordUpdated",
      "type": "event"
    },
    {
      "anonymous": false,
      "inputs": [
        {
          "indexed": false,
          "internalType": "string",
          "name": "username",
          "type": "string"
        }
      ],
      "name": "PermissionsUpdated",
      "type": "event"
    },
    {
      "anonymous": false,
      "inputs": [
        {
          "indexed": false,
          "internalType": "string",
          "name": "username",
          "type": "string"
        },
        {
          "indexed": false,
          "internalType": "string",
          "name": "groupName",
          "type": "string"
        }
      ],
      "name": "UserAddedToGroup",
      "type": "event"
    },
    {
      "anonymous": false,
      "inputs": [
        {
          "indexed": false,
          "internalType": "string",
          "name": "username",
          "type": "string"
        },
        {
          "indexed": false,
          "internalType": "string",
          "name": "applicationKey",
          "type": "string"
        }
      ],
      "name": "UserRegistered",
      "type": "event"
    },
    {
      "anonymous": false,
      "inputs": [
        {
          "indexed": false,
          "internalType": "string",
          "name": "username",
          "type": "string"
        },
        {
          "indexed": false,
          "internalType": "string",
          "name": "groupName",
          "type": "string"
        }
      ],
      "name": "UserRemovedFromGroup",
      "type": "event"
    },
    {
      "anonymous": false,
      "inputs": [
        {
          "indexed": false,
          "internalType": "string",
          "name": "username",
          "type": "string"
        },
        {
          "indexed": false,
          "internalType": "bool",
          "name": "enabled",
          "type": "bool"
        }
      ],
      "name": "UserToggled",
      "type": "event"
    },
    {
      "inputs": [
        {
          "internalType": "string",
          "name": "username",
          "type": "string"
        },
        {
          "internalType": "string",
          "name": "groupName",
          "type": "string"
        }
      ],
      "name": "addUserToGroup",
      "outputs": [],
      "stateMutability": "nonpayable",
      "type": "function"
    },
    {
      "inputs": [
        {
          "internalType": "string",
          "name": "username",
          "type": "string"
        }
      ],
      "name": "checkIfUserExists",
      "outputs": [
        {
          "internalType": "bool",
          "name": "",
          "type": "bool"
        }
      ],
      "stateMutability": "view",
      "type": "function"
    },
    {
      "inputs": [
        {
          "internalType": "string",
          "name": "groupName",
          "type": "string"
        },
        {
          "internalType": "string",
          "name": "groupCreator",
          "type": "string"
        }
      ],
      "name": "createGroup",
      "outputs": [],
      "stateMutability": "nonpayable",
      "type": "function"
    },
    {
      "inputs": [
        {
          "internalType": "string",
          "name": "username",
          "type": "string"
        },
        {
          "internalType": "string[]",
          "name": "newPermissions",
          "type": "string[]"
        }
      ],
      "name": "editUserPermissions",
      "outputs": [],
      "stateMutability": "nonpayable",
      "type": "function"
    },
    {
      "inputs": [
        {
          "internalType": "string",
          "name": "groupName",
          "type": "string"
        }
      ],
      "name": "getGroup",
      "outputs": [
        {
          "internalType": "string",
          "name": "",
          "type": "string"
        },
        {
          "internalType": "string[]",
          "name": "",
          "type": "string[]"
        },
        {
          "internalType": "string[]",
          "name": "",
          "type": "string[]"
        }
      ],
      "stateMutability": "view",
      "type": "function"
    },
    {
      "inputs": [
        {
          "internalType": "string",
          "name": "username",
          "type": "string"
        }
      ],
      "name": "getUser",
      "outputs": [
        {
          "internalType": "string",
          "name": "",
          "type": "string"
        },
        {
          "internalType": "string",
          "name": "",
          "type": "string"
        },
        {
          "internalType": "bytes32[]",
          "name": "",
          "type": "bytes32[]"
        },
        {
          "internalType": "string[]",
          "name": "",
          "type": "string[]"
        },
        {
          "internalType": "string",
          "name": "",
          "type": "string"
        },
        {
          "internalType": "bool",
          "name": "",
          "type": "bool"
        }
      ],
      "stateMutability": "view",
      "type": "function"
    },
    {
      "inputs": [
        {
          "internalType": "string",
          "name": "username",
          "type": "string"
        }
      ],
      "name": "getUserFaceHashes",
      "outputs": [
        {
          "internalType": "bytes32[]",
          "name": "",
          "type": "bytes32[]"
        }
      ],
      "stateMutability": "view",
      "type": "function"
    },
    {
      "inputs": [
        {
          "internalType": "string",
          "name": "username",
          "type": "string"
        },
        {
          "internalType": "string",
          "name": "passwordHash",
          "type": "string"
        },
        {
          "internalType": "bytes32[]",
          "name": "initialFaceHashes",
          "type": "bytes32[]"
        },
        {
          "internalType": "string",
          "name": "applicationKey",
          "type": "string"
        }
      ],
      "name": "registerUser",
      "outputs": [],
      "stateMutability": "nonpayable",
      "type": "function"
    },
    {
      "inputs": [
        {
          "internalType": "string",
          "name": "username",
          "type": "string"
        }
      ],
      "name": "toggleUser",
      "outputs": [],
      "stateMutability": "nonpayable",
      "type": "function"
    },
    {
      "inputs": [
        {
          "internalType": "string",
          "name": "username",
          "type": "string"
        },
        {
          "internalType": "bytes32[]",
          "name": "newFaceHashes",
          "type": "bytes32[]"
        }
      ],
      "name": "updateUserFaceHash",
      "outputs": [],
      "stateMutability": "nonpayable",
      "type": "function"
    },
    {
      "inputs": [
        {
          "internalType": "string",
          "name": "username",
          "type": "string"
        },
        {
          "internalType": "string",
          "name": "newPasswordHash",
          "type": "string"
        }
      ],
      "name": "updateUserPassword",
      "outputs": [],
      "stateMutability": "nonpayable",
      "type": "function"
    }
  ],
  "bytecode": "0x608060405234801561001057600080fd5b5033600260006101000a81548173ffffffffffffffffffffffffffffffffffffffff021916908373ffffffffffffffffffffffffffffffffffffffff160217905550612160806100616000396000f3fe608060405234801561001057600080fd5b50600436106100a95760003560e01c80635e5b23ff116100715780635e5b23ff146101675780636cad193414610183578063abef281e146101b3578063c91bc46c146101e5578063ca62b1f214610201578063ecb5a4d51461021d576100a9565b80631e4a97dd146100ae5780632d09d9e9146100ca57806331feb671146100fa5780635108c3ab1461012f57806353a1233f1461014b575b600080fd5b6100c860048036038101906100c391906118d5565b610239565b005b6100e460048036038101906100df91906117bc565b61047f565b6040516100f19190611cc1565b60405180910390f35b610114600480360381019061010f91906117bc565b6104f8565b60405161012696959493929190611dd3565b60405180910390f35b610149600480360381019061014491906117bc565b610864565b005b61016560048036038101906101609190611941565b6109c6565b005b610181600480360381019061017c91906117fd565b610c0b565b005b61019d600480360381019061019891906117bc565b610d0c565b6040516101aa9190611ce3565b60405180910390f35b6101cd60048036038101906101c891906117bc565b610d45565b6040516101dc93929190611d20565b60405180910390f35b6101ff60048036038101906101fa91906118d5565b611048565b005b61021b60048036038101906102169190611869565b611149565b005b610237600480360381019061023291906118d5565b61124a565b005b600260009054906101000a900473ffffffffffffffffffffffffffffffffffffffff1673ffffffffffffffffffffffffffffffffffffffff163373ffffffffffffffffffffffffffffffffffffffff16146102c9576040517f08c379a00000000000000000000000000000000000000000000000000000000081526004016102c090611e57565b60405180910390fd5b6040518060600160405280838152602001600067ffffffffffffffff81111561031b577f4e487b7100000000000000000000000000000000000000000000000000000000600052604160045260246000fd5b60405190808252806020026020018201604052801561034e57816020015b60608152602001906001900390816103395790505b508152602001600067ffffffffffffffff811115610395577f4e487b7100000000000000000000000000000000000000000000000000000000600052604160045260246000fd5b6040519080825280602002602001820160405280156103c857816020015b60608152602001906001900390816103b35790505b508152506001836040516103dc9190611caa565b90815260200160405180910390206000820151816000019080519060200190610406929190611451565b5060208201518160010190805190602001906104239291906114d7565b5060408201518160020190805190602001906104409291906114d7565b509050507fb4082bf161f07af2ff5aed9b78e2cb1baf973ed4f2cc2e6e8e81a46752cc3345826040516104739190611cfe565b60405180910390a15050565b60606000826040516104919190611caa565b90815260200160405180910390206002018054806020026020016040519081016040528092919081815260200182805480156104ec57602002820191906000526020600020905b8154815260200190600101908083116104d8575b50505050509050919050565b60608060608060606000806000886040516105139190611caa565b90815260200160405180910390206040518060c001604052908160008201805461053c90612072565b80601f016020809104026020016040519081016040528092919081815260200182805461056890612072565b80156105b55780601f1061058a576101008083540402835291602001916105b5565b820191906000526020600020905b81548152906001019060200180831161059857829003601f168201915b505050505081526020016001820180546105ce90612072565b80601f01602080910402602001604051908101604052809291908181526020018280546105fa90612072565b80156106475780601f1061061c57610100808354040283529160200191610647565b820191906000526020600020905b81548152906001019060200180831161062a57829003601f168201915b505050505081526020016002820180548060200260200160405190810160405280929190818152602001828054801561069f57602002820191906000526020600020905b81548152602001906001019080831161068b575b5050505050815260200160038201805480602002602001604051908101604052809291908181526020016000905b828210156107795783829060005260206000200180546106ec90612072565b80601f016020809104026020016040519081016040528092919081815260200182805461071890612072565b80156107655780601f1061073a57610100808354040283529160200191610765565b820191906000526020600020905b81548152906001019060200180831161074857829003601f168201915b5050505050815260200190600101906106cd565b50505050815260200160048201805461079190612072565b80601f01602080910402602001604051908101604052809291908181526020018280546107bd90612072565b801561080a5780601f106107df5761010080835404028352916020019161080a565b820191906000526020600020905b8154815290600101906020018083116107ed57829003601f168201915b505050505081526020016005820160009054906101000a900460ff1615151515815250509050806000015181602001518260400151836060015184608001518560a001519650965096509650965096505091939550919395565b600260009054906101000a900473ffffffffffffffffffffffffffffffffffffffff1673ffffffffffffffffffffffffffffffffffffffff163373ffffffffffffffffffffffffffffffffffffffff16146108f4576040517f08c379a00000000000000000000000000000000000000000000000000000000081526004016108eb90611e57565b60405180910390fd5b6000816040516109049190611caa565b908152602001604051809103902060050160009054906101000a900460ff16156000826040516109349190611caa565b908152602001604051809103902060050160006101000a81548160ff0219169083151502179055507f9b1a1e5131c18ee5fd8454b3b435b1b36127bd0c05686d9fc6190d638bcb14998160008360405161098e9190611caa565b908152602001604051809103902060050160009054906101000a900460ff166040516109bb929190611d6c565b60405180910390a150565b600260009054906101000a900473ffffffffffffffffffffffffffffffffffffffff1673ffffffffffffffffffffffffffffffffffffffff163373ffffffffffffffffffffffffffffffffffffffff1614610a56576040517f08c379a0000000000000000000000000000000000000000000000000000000008152600401610a4d90611e57565b60405180910390fd5b6040518060c00160405280858152602001848152602001838152602001600067ffffffffffffffff811115610ab4577f4e487b7100000000000000000000000000000000000000000000000000000000600052604160045260246000fd5b604051908082528060200260200182016040528015610ae757816020015b6060815260200190600190039081610ad25790505b50815260200182815260200160011515815250600085604051610b0a9190611caa565b90815260200160405180910390206000820151816000019080519060200190610b34929190611451565b506020820151816001019080519060200190610b51929190611451565b506040820151816002019080519060200190610b6e929190611537565b506060820151816003019080519060200190610b8b9291906114d7565b506080820151816004019080519060200190610ba8929190611451565b5060a08201518160050160006101000a81548160ff0219169083151502179055509050507f996d7324173609959370942b1ee1b743dc623b3d50459e66c1d55df55e5a9f378482604051610bfd929190611d9c565b60405180910390a150505050565b600260009054906101000a900473ffffffffffffffffffffffffffffffffffffffff1673ffffffffffffffffffffffffffffffffffffffff163373ffffffffffffffffffffffffffffffffffffffff1614610c9b576040517f08c379a0000000000000000000000000000000000000000000000000000000008152600401610c9290611e57565b60405180910390fd5b80600083604051610cac9190611caa565b90815260200160405180910390206002019080519060200190610cd0929190611537565b507feb1060ec96e942d51b0f7b8b00c334c5c6da57c48f5ef56937468d28d0ee347a82604051610d009190611cfe565b60405180910390a15050565b600080600083604051610d1f9190611caa565b90815260200160405180910390206000018054610d3b90612072565b9050119050919050565b60608060606000600185604051610d5c9190611caa565b90815260200160405180910390206000018054610d7890612072565b905011610dba576040517f08c379a0000000000000000000000000000000000000000000000000000000008152600401610db190611e77565b60405180910390fd5b6000600185604051610dcc9190611caa565b9081526020016040518091039020604051806060016040529081600082018054610df590612072565b80601f0160208091040260200160405190810160405280929190818152602001828054610e2190612072565b8015610e6e5780601f10610e4357610100808354040283529160200191610e6e565b820191906000526020600020905b815481529060010190602001808311610e5157829003601f168201915b5050505050815260200160018201805480602002602001604051908101604052809291908181526020016000905b82821015610f48578382906000526020600020018054610ebb90612072565b80601f0160208091040260200160405190810160405280929190818152602001828054610ee790612072565b8015610f345780601f10610f0957610100808354040283529160200191610f34565b820191906000526020600020905b815481529060010190602001808311610f1757829003601f168201915b505050505081526020019060010190610e9c565b50505050815260200160028201805480602002602001604051908101604052809291908181526020016000905b82821015611021578382906000526020600020018054610f9490612072565b80601f0160208091040260200160405190810160405280929190818152602001828054610fc090612072565b801561100d5780601f10610fe25761010080835404028352916020019161100d565b820191906000526020600020905b815481529060010190602001808311610ff057829003601f168201915b505050505081526020019060010190610f75565b50505050815250509050806000015181602001518260400151935093509350509193909250565b600260009054906101000a900473ffffffffffffffffffffffffffffffffffffffff1673ffffffffffffffffffffffffffffffffffffffff163373ffffffffffffffffffffffffffffffffffffffff16146110d8576040517f08c379a00000000000000000000000000000000000000000000000000000000081526004016110cf90611e57565b60405180910390fd5b806000836040516110e99190611caa565b9081526020016040518091039020600101908051906020019061110d929190611451565b507fd0b43b0b96083c98cc0f0370575812de87ee48ff1bde30bcd74f3518443bc4f58260405161113d9190611cfe565b60405180910390a15050565b600260009054906101000a900473ffffffffffffffffffffffffffffffffffffffff1673ffffffffffffffffffffffffffffffffffffffff163373ffffffffffffffffffffffffffffffffffffffff16146111d9576040517f08c379a00000000000000000000000000000000000000000000000000000000081526004016111d090611e57565b60405180910390fd5b806000836040516111ea9190611caa565b9081526020016040518091039020600301908051906020019061120e9291906114d7565b507f41c6e110b0fd95e082e424c7d45e89ce057d9d5c2704c744e5ba0cd0122c774f8260405161123e9190611cfe565b60405180910390a15050565b600260009054906101000a900473ffffffffffffffffffffffffffffffffffffffff1673ffffffffffffffffffffffffffffffffffffffff163373ffffffffffffffffffffffffffffffffffffffff16146112da576040517f08c379a00000000000000000000000000000000000000000000000000000000081526004016112d190611e57565b60405180910390fd5b60006001826040516112ec9190611caa565b9081526020016040518091039020600001805461130890612072565b90501161134a576040517f08c379a000000000000000000000000000000000000000000000000000000000815260040161134190611e77565b60405180910390fd5b6000808360405161135b9190611caa565b9081526020016040518091039020600001805461137790612072565b9050116113b9576040517f08c379a00000000000000000000000000000000000000000000000000000000081526004016113b090611e97565b60405180910390fd5b6001816040516113c99190611caa565b908152602001604051809103902060010182908060018154018082558091505060019003906000526020600020016000909190919091509080519060200190611413929190611451565b507f32475c6c091737c212dc5c54e3565db8aae94283f8b388d2c1dfe772b3f356e18282604051611445929190611d9c565b60405180910390a15050565b82805461145d90612072565b90600052602060002090601f01602090048101928261147f57600085556114c6565b82601f1061149857805160ff19168380011785556114c6565b828001600101855582156114c6579182015b828111156114c55782518255916020019190600101906114aa565b5b5090506114d39190611584565b5090565b828054828255906000526020600020908101928215611526579160200282015b82811115611525578251829080519060200190611515929190611451565b50916020019190600101906114f7565b5b50905061153391906115a1565b5090565b828054828255906000526020600020908101928215611573579160200282015b82811115611572578251825591602001919060010190611557565b5b50905061158091906115c5565b5090565b5b8082111561159d576000816000905550600101611585565b5090565b5b808211156115c157600081816115b891906115e2565b506001016115a2565b5090565b5b808211156115de5760008160009055506001016115c6565b5090565b5080546115ee90612072565b6000825580601f10611600575061161f565b601f01602090049060005260206000209081019061161e9190611584565b5b50565b600061163561163084611ee8565b611eb7565b9050808382526020820190508285602086028201111561165457600080fd5b60005b85811015611684578161166a888261177d565b845260208401935060208301925050600181019050611657565b5050509392505050565b60006116a161169c84611f14565b611eb7565b9050808382526020820190508260005b858110156116e157813585016116c78882611792565b8452602084019350602083019250506001810190506116b1565b5050509392505050565b60006116fe6116f984611f40565b611eb7565b90508281526020810184848401111561171657600080fd5b611721848285612030565b509392505050565b600082601f83011261173a57600080fd5b813561174a848260208601611622565b91505092915050565b600082601f83011261176457600080fd5b813561177484826020860161168e565b91505092915050565b60008135905061178c81612113565b92915050565b600082601f8301126117a357600080fd5b81356117b38482602086016116eb565b91505092915050565b6000602082840312156117ce57600080fd5b600082013567ffffffffffffffff8111156117e857600080fd5b6117f484828501611792565b91505092915050565b6000806040838503121561181057600080fd5b600083013567ffffffffffffffff81111561182a57600080fd5b61183685828601611792565b925050602083013567ffffffffffffffff81111561185357600080fd5b61185f85828601611729565b9150509250929050565b6000806040838503121561187c57600080fd5b600083013567ffffffffffffffff81111561189657600080fd5b6118a285828601611792565b925050602083013567ffffffffffffffff8111156118bf57600080fd5b6118cb85828601611753565b9150509250929050565b600080604083850312156118e857600080fd5b600083013567ffffffffffffffff81111561190257600080fd5b61190e85828601611792565b925050602083013567ffffffffffffffff81111561192b57600080fd5b61193785828601611792565b9150509250929050565b6000806000806080858703121561195757600080fd5b600085013567ffffffffffffffff81111561197157600080fd5b61197d87828801611792565b945050602085013567ffffffffffffffff81111561199a57600080fd5b6119a687828801611792565b935050604085013567ffffffffffffffff8111156119c357600080fd5b6119cf87828801611729565b925050606085013567ffffffffffffffff8111156119ec57600080fd5b6119f887828801611792565b91505092959194509250565b6000611a108383611b12565b60208301905092915050565b6000611a288383611b21565b905092915050565b6000611a3b82611f90565b611a458185611fcb565b9350611a5083611f70565b8060005b83811015611a81578151611a688882611a04565b9750611a7383611fb1565b925050600181019050611a54565b5085935050505092915050565b6000611a9982611f9b565b611aa38185611fdc565b935083602082028501611ab585611f80565b8060005b85811015611af15784840389528151611ad28582611a1c565b9450611add83611fbe565b925060208a01995050600181019050611ab9565b50829750879550505050505092915050565b611b0c8161201a565b82525050565b611b1b81612026565b82525050565b6000611b2c82611fa6565b611b368185611fed565b9350611b4681856020860161203f565b611b4f81612102565b840191505092915050565b6000611b6582611fa6565b611b6f8185611ffe565b9350611b7f81856020860161203f565b611b8881612102565b840191505092915050565b6000611b9e82611fa6565b611ba8818561200f565b9350611bb881856020860161203f565b80840191505092915050565b6000611bd1602f83611ffe565b91507f4f6e6c792074686520636f6e7472616374206f776e65722063616e207065726660008301527f6f726d207468697320616374696f6e00000000000000000000000000000000006020830152604082019050919050565b6000611c37601483611ffe565b91507f47726f757020646f6573206e6f742065786973740000000000000000000000006000830152602082019050919050565b6000611c77601383611ffe565b91507f5573657220646f6573206e6f74206578697374000000000000000000000000006000830152602082019050919050565b6000611cb68284611b93565b915081905092915050565b60006020820190508181036000830152611cdb8184611a30565b905092915050565b6000602082019050611cf86000830184611b03565b92915050565b60006020820190508181036000830152611d188184611b5a565b905092915050565b60006060820190508181036000830152611d3a8186611b5a565b90508181036020830152611d4e8185611a8e565b90508181036040830152611d628184611a8e565b9050949350505050565b60006040820190508181036000830152611d868185611b5a565b9050611d956020830184611b03565b9392505050565b60006040820190508181036000830152611db68185611b5a565b90508181036020830152611dca8184611b5a565b90509392505050565b600060c0820190508181036000830152611ded8189611b5a565b90508181036020830152611e018188611b5a565b90508181036040830152611e158187611a30565b90508181036060830152611e298186611a8e565b90508181036080830152611e3d8185611b5a565b9050611e4c60a0830184611b03565b979650505050505050565b60006020820190508181036000830152611e7081611bc4565b9050919050565b60006020820190508181036000830152611e9081611c2a565b9050919050565b60006020820190508181036000830152611eb081611c6a565b9050919050565b6000604051905081810181811067ffffffffffffffff82111715611ede57611edd6120d3565b5b8060405250919050565b600067ffffffffffffffff821115611f0357611f026120d3565b5b602082029050602081019050919050565b600067ffffffffffffffff821115611f2f57611f2e6120d3565b5b602082029050602081019050919050565b600067ffffffffffffffff821115611f5b57611f5a6120d3565b5b601f19601f8301169050602081019050919050565b6000819050602082019050919050565b6000819050602082019050919050565b600081519050919050565b600081519050919050565b600081519050919050565b6000602082019050919050565b6000602082019050919050565b600082825260208201905092915050565b600082825260208201905092915050565b600082825260208201905092915050565b600082825260208201905092915050565b600081905092915050565b60008115159050919050565b6000819050919050565b82818337600083830152505050565b60005b8381101561205d578082015181840152602081019050612042565b8381111561206c576000848401525b50505050565b6000600282049050600182168061208a57607f821691505b6020821081141561209e5761209d6120a4565b5b50919050565b7f4e487b7100000000000000000000000000000000000000000000000000000000600052602260045260246000fd5b7f4e487b7100000000000000000000000000000000000000000000000000000000600052604160045260246000fd5b6000601f19601f8301169050919050565b61211c81612026565b811461212757600080fd5b5056fea26469706673582212201cd68116efbbb2d866895cffa9236a735a84a876fb7f29cb1247af77d6e93e7964736f6c63430008000033",
  "linkReferences": {},
  "deployedLinkReferences": {}
}