{
  "_format": "hh-sol-artifact-1",
  "contractName": "FaceGuard",
  "sourceName": "contracts/FaceGuard.sol",
  "abi": [
    {
      "inputs": [],
      "stateMutability": "nonpayable",
      "type": "constructor"
    },
    {
      "anonymous": false,
      "inputs": [
        {
          "indexed": false,
          "internalType": "string",
          "name": "username",
          "type": "string"
        }
      ],
      "name": "FaceHashUpdated",
      "type": "event"
    },
    {
      "anonymous": false,
      "inputs": [
        {
          "indexed": false,
          "internalType": "string",
          "name": "groupName",
          "type": "string"
        }
      ],
      "name": "GroupCreated",
      "type": "event"
    },
    {
      "anonymous": false,
      "inputs": [
        {
          "indexed": false,
          "internalType": "string",
          "name": "username",
          "type": "string"
        }
      ],
      "name": "PasswordUpdated",
      "type": "event"
    },
    {
      "anonymous": false,
      "inputs": [
        {
          "indexed": false,
          "internalType": "string",
          "name": "username",
          "type": "string"
        }
      ],
      "name": "PermissionsUpdated",
      "type": "event"
    },
    {
      "anonymous": false,
      "inputs": [
        {
          "indexed": false,
          "internalType": "string",
          "name": "username",
          "type": "string"
        },
        {
          "indexed": false,
          "internalType": "string",
          "name": "groupName",
          "type": "string"
        }
      ],
      "name": "UserAddedToGroup",
      "type": "event"
    },
    {
      "anonymous": false,
      "inputs": [
        {
          "indexed": false,
          "internalType": "string",
          "name": "username",
          "type": "string"
        },
        {
          "indexed": false,
          "internalType": "string",
          "name": "applicationKey",
          "type": "string"
        }
      ],
      "name": "UserRegistered",
      "type": "event"
    },
    {
      "anonymous": false,
      "inputs": [
        {
          "indexed": false,
          "internalType": "string",
          "name": "username",
          "type": "string"
        },
        {
          "indexed": false,
          "internalType": "string",
          "name": "groupName",
          "type": "string"
        }
      ],
      "name": "UserRemovedFromGroup",
      "type": "event"
    },
    {
      "anonymous": false,
      "inputs": [
        {
          "indexed": false,
          "internalType": "string",
          "name": "username",
          "type": "string"
        },
        {
          "indexed": false,
          "internalType": "bool",
          "name": "enabled",
          "type": "bool"
        }
      ],
      "name": "UserToggled",
      "type": "event"
    },
    {
      "inputs": [
        {
          "internalType": "string",
          "name": "username",
          "type": "string"
        },
        {
          "internalType": "string",
          "name": "groupName",
          "type": "string"
        }
      ],
      "name": "addUserToGroup",
      "outputs": [],
      "stateMutability": "nonpayable",
      "type": "function"
    },
    {
      "inputs": [
        {
          "internalType": "string",
          "name": "username",
          "type": "string"
        }
      ],
      "name": "checkIfUserExists",
      "outputs": [
        {
          "internalType": "bool",
          "name": "",
          "type": "bool"
        }
      ],
      "stateMutability": "view",
      "type": "function"
    },
    {
      "inputs": [
        {
          "internalType": "string",
          "name": "groupName",
          "type": "string"
        },
        {
          "internalType": "string",
          "name": "groupCreator",
          "type": "string"
        }
      ],
      "name": "createGroup",
      "outputs": [],
      "stateMutability": "nonpayable",
      "type": "function"
    },
    {
      "inputs": [
        {
          "internalType": "string",
          "name": "username",
          "type": "string"
        },
        {
          "internalType": "string[]",
          "name": "newPermissions",
          "type": "string[]"
        }
      ],
      "name": "editUserPermissions",
      "outputs": [],
      "stateMutability": "nonpayable",
      "type": "function"
    },
    {
      "inputs": [
        {
          "internalType": "string",
          "name": "groupName",
          "type": "string"
        }
      ],
      "name": "getGroup",
      "outputs": [
        {
          "internalType": "string",
          "name": "",
          "type": "string"
        },
        {
          "internalType": "string[]",
          "name": "",
          "type": "string[]"
        },
        {
          "internalType": "string[]",
          "name": "",
          "type": "string[]"
        }
      ],
      "stateMutability": "view",
      "type": "function"
    },
    {
      "inputs": [
        {
          "internalType": "string",
          "name": "username",
          "type": "string"
        }
      ],
      "name": "getUser",
      "outputs": [
        {
          "internalType": "string",
          "name": "",
          "type": "string"
        },
        {
          "internalType": "string",
          "name": "",
          "type": "string"
        },
        {
          "internalType": "string[]",
          "name": "",
          "type": "string[]"
        },
        {
          "internalType": "string[]",
          "name": "",
          "type": "string[]"
        },
        {
          "internalType": "string",
          "name": "",
          "type": "string"
        },
        {
          "internalType": "bool",
          "name": "",
          "type": "bool"
        }
      ],
      "stateMutability": "view",
      "type": "function"
    },
    {
      "inputs": [
        {
          "internalType": "string",
          "name": "username",
          "type": "string"
        }
      ],
      "name": "getUserFaceHashes",
      "outputs": [
        {
          "internalType": "string[]",
          "name": "",
          "type": "string[]"
        }
      ],
      "stateMutability": "view",
      "type": "function"
    },
    {
      "inputs": [
        {
          "internalType": "string",
          "name": "username",
          "type": "string"
        },
        {
          "internalType": "string",
          "name": "passwordHash",
          "type": "string"
        },
        {
          "internalType": "string[]",
          "name": "initialFaceHashes",
          "type": "string[]"
        },
        {
          "internalType": "string",
          "name": "applicationKey",
          "type": "string"
        }
      ],
      "name": "registerUser",
      "outputs": [],
      "stateMutability": "nonpayable",
      "type": "function"
    },
    {
      "inputs": [
        {
          "internalType": "string",
          "name": "username",
          "type": "string"
        }
      ],
      "name": "toggleUser",
      "outputs": [],
      "stateMutability": "nonpayable",
      "type": "function"
    },
    {
      "inputs": [
        {
          "internalType": "string",
          "name": "username",
          "type": "string"
        },
        {
          "internalType": "string[]",
          "name": "newFaceHashes",
          "type": "string[]"
        }
      ],
      "name": "updateUserFaceHash",
      "outputs": [],
      "stateMutability": "nonpayable",
      "type": "function"
    },
    {
      "inputs": [
        {
          "internalType": "string",
          "name": "username",
          "type": "string"
        },
        {
          "internalType": "string",
          "name": "newPasswordHash",
          "type": "string"
        }
      ],
      "name": "updateUserPassword",
      "outputs": [],
      "stateMutability": "nonpayable",
      "type": "function"
    }
  ],
  "bytecode": "0x608060405234801561001057600080fd5b5033600260006101000a81548173ffffffffffffffffffffffffffffffffffffffff021916908373ffffffffffffffffffffffffffffffffffffffff160217905550611fd6806100616000396000f3fe608060405234801561001057600080fd5b50600436106100a95760003560e01c80636cad1934116100715780636cad193414610167578063abef281e14610197578063b9e6facb146101c9578063c91bc46c146101e5578063ca62b1f214610201578063ecb5a4d51461021d576100a9565b806303df9e92146100ae5780631e4a97dd146100ca5780632d09d9e9146100e657806331feb671146101165780635108c3ab1461014b575b600080fd5b6100c860048036038101906100c391906117ea565b610239565b005b6100e460048036038101906100df9190611856565b61033a565b005b61010060048036038101906100fb91906117a9565b610580565b60405161010d9190611bbd565b60405180910390f35b610130600480360381019061012b91906117a9565b61067a565b60405161014296959493929190611ccf565b60405180910390f35b610165600480360381019061016091906117a9565b610a67565b005b610181600480360381019061017c91906117a9565b610bc9565b60405161018e9190611bdf565b60405180910390f35b6101b160048036038101906101ac91906117a9565b610c02565b6040516101c093929190611c1c565b60405180910390f35b6101e360048036038101906101de91906118c2565b610f05565b005b6101ff60048036038101906101fa9190611856565b61114a565b005b61021b600480360381019061021691906117ea565b61124b565b005b61023760048036038101906102329190611856565b61134c565b005b600260009054906101000a900473ffffffffffffffffffffffffffffffffffffffff1673ffffffffffffffffffffffffffffffffffffffff163373ffffffffffffffffffffffffffffffffffffffff16146102c9576040517f08c379a00000000000000000000000000000000000000000000000000000000081526004016102c090611d53565b60405180910390fd5b806000836040516102da9190611ba6565b908152602001604051809103902060020190805190602001906102fe929190611553565b507feb1060ec96e942d51b0f7b8b00c334c5c6da57c48f5ef56937468d28d0ee347a8260405161032e9190611bfa565b60405180910390a15050565b600260009054906101000a900473ffffffffffffffffffffffffffffffffffffffff1673ffffffffffffffffffffffffffffffffffffffff163373ffffffffffffffffffffffffffffffffffffffff16146103ca576040517f08c379a00000000000000000000000000000000000000000000000000000000081526004016103c190611d53565b60405180910390fd5b6040518060600160405280838152602001600067ffffffffffffffff81111561041c577f4e487b7100000000000000000000000000000000000000000000000000000000600052604160045260246000fd5b60405190808252806020026020018201604052801561044f57816020015b606081526020019060019003908161043a5790505b508152602001600067ffffffffffffffff811115610496577f4e487b7100000000000000000000000000000000000000000000000000000000600052604160045260246000fd5b6040519080825280602002602001820160405280156104c957816020015b60608152602001906001900390816104b45790505b508152506001836040516104dd9190611ba6565b908152602001604051809103902060008201518160000190805190602001906105079291906115b3565b506020820151816001019080519060200190610524929190611553565b506040820151816002019080519060200190610541929190611553565b509050507fb4082bf161f07af2ff5aed9b78e2cb1baf973ed4f2cc2e6e8e81a46752cc3345826040516105749190611bfa565b60405180910390a15050565b60606000826040516105929190611ba6565b9081526020016040518091039020600201805480602002602001604051908101604052809291908181526020016000905b8282101561066f5783829060005260206000200180546105e290611eff565b80601f016020809104026020016040519081016040528092919081815260200182805461060e90611eff565b801561065b5780601f106106305761010080835404028352916020019161065b565b820191906000526020600020905b81548152906001019060200180831161063e57829003601f168201915b5050505050815260200190600101906105c3565b505050509050919050565b60608060608060606000806000886040516106959190611ba6565b90815260200160405180910390206040518060c00160405290816000820180546106be90611eff565b80601f01602080910402602001604051908101604052809291908181526020018280546106ea90611eff565b80156107375780601f1061070c57610100808354040283529160200191610737565b820191906000526020600020905b81548152906001019060200180831161071a57829003601f168201915b5050505050815260200160018201805461075090611eff565b80601f016020809104026020016040519081016040528092919081815260200182805461077c90611eff565b80156107c95780601f1061079e576101008083540402835291602001916107c9565b820191906000526020600020905b8154815290600101906020018083116107ac57829003601f168201915b5050505050815260200160028201805480602002602001604051908101604052809291908181526020016000905b828210156108a357838290600052602060002001805461081690611eff565b80601f016020809104026020016040519081016040528092919081815260200182805461084290611eff565b801561088f5780601f106108645761010080835404028352916020019161088f565b820191906000526020600020905b81548152906001019060200180831161087257829003601f168201915b5050505050815260200190600101906107f7565b50505050815260200160038201805480602002602001604051908101604052809291908181526020016000905b8282101561097c5783829060005260206000200180546108ef90611eff565b80601f016020809104026020016040519081016040528092919081815260200182805461091b90611eff565b80156109685780601f1061093d57610100808354040283529160200191610968565b820191906000526020600020905b81548152906001019060200180831161094b57829003601f168201915b5050505050815260200190600101906108d0565b50505050815260200160048201805461099490611eff565b80601f01602080910402602001604051908101604052809291908181526020018280546109c090611eff565b8015610a0d5780601f106109e257610100808354040283529160200191610a0d565b820191906000526020600020905b8154815290600101906020018083116109f057829003601f168201915b505050505081526020016005820160009054906101000a900460ff1615151515815250509050806000015181602001518260400151836060015184608001518560a001519650965096509650965096505091939550919395565b600260009054906101000a900473ffffffffffffffffffffffffffffffffffffffff1673ffffffffffffffffffffffffffffffffffffffff163373ffffffffffffffffffffffffffffffffffffffff1614610af7576040517f08c379a0000000000000000000000000000000000000000000000000000000008152600401610aee90611d53565b60405180910390fd5b600081604051610b079190611ba6565b908152602001604051809103902060050160009054906101000a900460ff1615600082604051610b379190611ba6565b908152602001604051809103902060050160006101000a81548160ff0219169083151502179055507f9b1a1e5131c18ee5fd8454b3b435b1b36127bd0c05686d9fc6190d638bcb149981600083604051610b919190611ba6565b908152602001604051809103902060050160009054906101000a900460ff16604051610bbe929190611c68565b60405180910390a150565b600080600083604051610bdc9190611ba6565b90815260200160405180910390206000018054610bf890611eff565b9050119050919050565b60608060606000600185604051610c199190611ba6565b90815260200160405180910390206000018054610c3590611eff565b905011610c77576040517f08c379a0000000000000000000000000000000000000000000000000000000008152600401610c6e90611d73565b60405180910390fd5b6000600185604051610c899190611ba6565b9081526020016040518091039020604051806060016040529081600082018054610cb290611eff565b80601f0160208091040260200160405190810160405280929190818152602001828054610cde90611eff565b8015610d2b5780601f10610d0057610100808354040283529160200191610d2b565b820191906000526020600020905b815481529060010190602001808311610d0e57829003601f168201915b5050505050815260200160018201805480602002602001604051908101604052809291908181526020016000905b82821015610e05578382906000526020600020018054610d7890611eff565b80601f0160208091040260200160405190810160405280929190818152602001828054610da490611eff565b8015610df15780601f10610dc657610100808354040283529160200191610df1565b820191906000526020600020905b815481529060010190602001808311610dd457829003601f168201915b505050505081526020019060010190610d59565b50505050815260200160028201805480602002602001604051908101604052809291908181526020016000905b82821015610ede578382906000526020600020018054610e5190611eff565b80601f0160208091040260200160405190810160405280929190818152602001828054610e7d90611eff565b8015610eca5780601f10610e9f57610100808354040283529160200191610eca565b820191906000526020600020905b815481529060010190602001808311610ead57829003601f168201915b505050505081526020019060010190610e32565b50505050815250509050806000015181602001518260400151935093509350509193909250565b600260009054906101000a900473ffffffffffffffffffffffffffffffffffffffff1673ffffffffffffffffffffffffffffffffffffffff163373ffffffffffffffffffffffffffffffffffffffff1614610f95576040517f08c379a0000000000000000000000000000000000000000000000000000000008152600401610f8c90611d53565b60405180910390fd5b6040518060c00160405280858152602001848152602001838152602001600067ffffffffffffffff811115610ff3577f4e487b7100000000000000000000000000000000000000000000000000000000600052604160045260246000fd5b60405190808252806020026020018201604052801561102657816020015b60608152602001906001900390816110115790505b508152602001828152602001600115158152506000856040516110499190611ba6565b908152602001604051809103902060008201518160000190805190602001906110739291906115b3565b5060208201518160010190805190602001906110909291906115b3565b5060408201518160020190805190602001906110ad929190611553565b5060608201518160030190805190602001906110ca929190611553565b5060808201518160040190805190602001906110e79291906115b3565b5060a08201518160050160006101000a81548160ff0219169083151502179055509050507f996d7324173609959370942b1ee1b743dc623b3d50459e66c1d55df55e5a9f37848260405161113c929190611c98565b60405180910390a150505050565b600260009054906101000a900473ffffffffffffffffffffffffffffffffffffffff1673ffffffffffffffffffffffffffffffffffffffff163373ffffffffffffffffffffffffffffffffffffffff16146111da576040517f08c379a00000000000000000000000000000000000000000000000000000000081526004016111d190611d53565b60405180910390fd5b806000836040516111eb9190611ba6565b9081526020016040518091039020600101908051906020019061120f9291906115b3565b507fd0b43b0b96083c98cc0f0370575812de87ee48ff1bde30bcd74f3518443bc4f58260405161123f9190611bfa565b60405180910390a15050565b600260009054906101000a900473ffffffffffffffffffffffffffffffffffffffff1673ffffffffffffffffffffffffffffffffffffffff163373ffffffffffffffffffffffffffffffffffffffff16146112db576040517f08c379a00000000000000000000000000000000000000000000000000000000081526004016112d290611d53565b60405180910390fd5b806000836040516112ec9190611ba6565b90815260200160405180910390206003019080519060200190611310929190611553565b507f41c6e110b0fd95e082e424c7d45e89ce057d9d5c2704c744e5ba0cd0122c774f826040516113409190611bfa565b60405180910390a15050565b600260009054906101000a900473ffffffffffffffffffffffffffffffffffffffff1673ffffffffffffffffffffffffffffffffffffffff163373ffffffffffffffffffffffffffffffffffffffff16146113dc576040517f08c379a00000000000000000000000000000000000000000000000000000000081526004016113d390611d53565b60405180910390fd5b60006001826040516113ee9190611ba6565b9081526020016040518091039020600001805461140a90611eff565b90501161144c576040517f08c379a000000000000000000000000000000000000000000000000000000000815260040161144390611d73565b60405180910390fd5b6000808360405161145d9190611ba6565b9081526020016040518091039020600001805461147990611eff565b9050116114bb576040517f08c379a00000000000000000000000000000000000000000000000000000000081526004016114b290611d93565b60405180910390fd5b6001816040516114cb9190611ba6565b9081526020016040518091039020600101829080600181540180825580915050600190039060005260206000200160009091909190915090805190602001906115159291906115b3565b507f32475c6c091737c212dc5c54e3565db8aae94283f8b388d2c1dfe772b3f356e18282604051611547929190611c98565b60405180910390a15050565b8280548282559060005260206000209081019282156115a2579160200282015b828111156115a15782518290805190602001906115919291906115b3565b5091602001919060010190611573565b5b5090506115af9190611639565b5090565b8280546115bf90611eff565b90600052602060002090601f0160209004810192826115e15760008555611628565b82601f106115fa57805160ff1916838001178555611628565b82800160010185558215611628579182015b8281111561162757825182559160200191906001019061160c565b5b509050611635919061165d565b5090565b5b808211156116595760008181611650919061167a565b5060010161163a565b5090565b5b8082111561167657600081600090555060010161165e565b5090565b50805461168690611eff565b6000825580601f1061169857506116b7565b601f0160209004906000526020600020908101906116b6919061165d565b5b50565b60006116cd6116c884611de4565b611db3565b9050808382526020820190508260005b8581101561170d57813585016116f3888261177f565b8452602084019350602083019250506001810190506116dd565b5050509392505050565b600061172a61172584611e10565b611db3565b90508281526020810184848401111561174257600080fd5b61174d848285611ebd565b509392505050565b600082601f83011261176657600080fd5b81356117768482602086016116ba565b91505092915050565b600082601f83011261179057600080fd5b81356117a0848260208601611717565b91505092915050565b6000602082840312156117bb57600080fd5b600082013567ffffffffffffffff8111156117d557600080fd5b6117e18482850161177f565b91505092915050565b600080604083850312156117fd57600080fd5b600083013567ffffffffffffffff81111561181757600080fd5b6118238582860161177f565b925050602083013567ffffffffffffffff81111561184057600080fd5b61184c85828601611755565b9150509250929050565b6000806040838503121561186957600080fd5b600083013567ffffffffffffffff81111561188357600080fd5b61188f8582860161177f565b925050602083013567ffffffffffffffff8111156118ac57600080fd5b6118b88582860161177f565b9150509250929050565b600080600080608085870312156118d857600080fd5b600085013567ffffffffffffffff8111156118f257600080fd5b6118fe8782880161177f565b945050602085013567ffffffffffffffff81111561191b57600080fd5b6119278782880161177f565b935050604085013567ffffffffffffffff81111561194457600080fd5b61195087828801611755565b925050606085013567ffffffffffffffff81111561196d57600080fd5b6119798782880161177f565b91505092959194509250565b60006119918383611a1d565b905092915050565b60006119a482611e50565b6119ae8185611e73565b9350836020820285016119c085611e40565b8060005b858110156119fc57848403895281516119dd8582611985565b94506119e883611e66565b925060208a019950506001810190506119c4565b50829750879550505050505092915050565b611a1781611eb1565b82525050565b6000611a2882611e5b565b611a328185611e84565b9350611a42818560208601611ecc565b611a4b81611f8f565b840191505092915050565b6000611a6182611e5b565b611a6b8185611e95565b9350611a7b818560208601611ecc565b611a8481611f8f565b840191505092915050565b6000611a9a82611e5b565b611aa48185611ea6565b9350611ab4818560208601611ecc565b80840191505092915050565b6000611acd602f83611e95565b91507f4f6e6c792074686520636f6e7472616374206f776e65722063616e207065726660008301527f6f726d207468697320616374696f6e00000000000000000000000000000000006020830152604082019050919050565b6000611b33601483611e95565b91507f47726f757020646f6573206e6f742065786973740000000000000000000000006000830152602082019050919050565b6000611b73601383611e95565b91507f5573657220646f6573206e6f74206578697374000000000000000000000000006000830152602082019050919050565b6000611bb28284611a8f565b915081905092915050565b60006020820190508181036000830152611bd78184611999565b905092915050565b6000602082019050611bf46000830184611a0e565b92915050565b60006020820190508181036000830152611c148184611a56565b905092915050565b60006060820190508181036000830152611c368186611a56565b90508181036020830152611c4a8185611999565b90508181036040830152611c5e8184611999565b9050949350505050565b60006040820190508181036000830152611c828185611a56565b9050611c916020830184611a0e565b9392505050565b60006040820190508181036000830152611cb28185611a56565b90508181036020830152611cc68184611a56565b90509392505050565b600060c0820190508181036000830152611ce98189611a56565b90508181036020830152611cfd8188611a56565b90508181036040830152611d118187611999565b90508181036060830152611d258186611999565b90508181036080830152611d398185611a56565b9050611d4860a0830184611a0e565b979650505050505050565b60006020820190508181036000830152611d6c81611ac0565b9050919050565b60006020820190508181036000830152611d8c81611b26565b9050919050565b60006020820190508181036000830152611dac81611b66565b9050919050565b6000604051905081810181811067ffffffffffffffff82111715611dda57611dd9611f60565b5b8060405250919050565b600067ffffffffffffffff821115611dff57611dfe611f60565b5b602082029050602081019050919050565b600067ffffffffffffffff821115611e2b57611e2a611f60565b5b601f19601f8301169050602081019050919050565b6000819050602082019050919050565b600081519050919050565b600081519050919050565b6000602082019050919050565b600082825260208201905092915050565b600082825260208201905092915050565b600082825260208201905092915050565b600081905092915050565b60008115159050919050565b82818337600083830152505050565b60005b83811015611eea578082015181840152602081019050611ecf565b83811115611ef9576000848401525b50505050565b60006002820490506001821680611f1757607f821691505b60208210811415611f2b57611f2a611f31565b5b50919050565b7f4e487b7100000000000000000000000000000000000000000000000000000000600052602260045260246000fd5b7f4e487b7100000000000000000000000000000000000000000000000000000000600052604160045260246000fd5b6000601f19601f830116905091905056fea26469706673582212209415435f6a67fe72d12a876bd9827f2dd93175ac95a2feb7bf60fc4120ee1fb864736f6c63430008000033",
  "linkReferences": {},
  "deployedLinkReferences": {}
}