{
  "_format": "hh-sol-artifact-1",
  "contractName": "FaceGuard",
  "sourceName": "contracts/FaceGuard.sol",
  "abi": [
    {
      "inputs": [
        {
          "internalType": "string",
          "name": "_fullName",
          "type": "string"
        },
        {
          "internalType": "string",
          "name": "_username",
          "type": "string"
        },
        {
          "internalType": "string",
          "name": "_facialHash",
          "type": "string"
        }
      ],
      "stateMutability": "nonpayable",
      "type": "constructor"
    },
    {
      "anonymous": false,
      "inputs": [
        {
          "indexed": false,
          "internalType": "string",
          "name": "username",
          "type": "string"
        },
        {
          "indexed": false,
          "internalType": "string",
          "name": "fullName",
          "type": "string"
        }
      ],
      "name": "UserRegistered",
      "type": "event"
    },
    {
      "inputs": [
        {
          "internalType": "string",
          "name": "_username",
          "type": "string"
        }
      ],
      "name": "getUserByUsername",
      "outputs": [
        {
          "internalType": "string",
          "name": "",
          "type": "string"
        },
        {
          "internalType": "string",
          "name": "",
          "type": "string"
        },
        {
          "internalType": "string",
          "name": "",
          "type": "string"
        }
      ],
      "stateMutability": "view",
      "type": "function"
    },
    {
      "inputs": [],
      "name": "owner",
      "outputs": [
        {
          "internalType": "address",
          "name": "",
          "type": "address"
        }
      ],
      "stateMutability": "view",
      "type": "function"
    },
    {
      "inputs": [
        {
          "internalType": "string",
          "name": "_fullName",
          "type": "string"
        },
        {
          "internalType": "string",
          "name": "_username",
          "type": "string"
        },
        {
          "internalType": "string",
          "name": "_facialHash",
          "type": "string"
        }
      ],
      "name": "registerUser",
      "outputs": [],
      "stateMutability": "nonpayable",
      "type": "function"
    }
  ],
  "bytecode": "0x60806040523480156200001157600080fd5b50604051620013e2380380620013e2833981810160405281019062000037919062000386565b60008351116200007e576040517f08c379a00000000000000000000000000000000000000000000000000000000081526004016200007590620005db565b60405180910390fd5b6000825111620000c5576040517f08c379a0000000000000000000000000000000000000000000000000000000008152600401620000bc90620005fd565b60405180910390fd5b60008151116200010c576040517f08c379a00000000000000000000000000000000000000000000000000000000081526004016200010390620005b9565b60405180910390fd5b33600260006101000a81548173ffffffffffffffffffffffffffffffffffffffff021916908373ffffffffffffffffffffffffffffffffffffffff1602179055506040518060600160405280848152602001838152602001828152506000836040516200017a919062000565565b90815260200160405180910390206000820151816000019080519060200190620001a692919062000264565b506020820151816001019080519060200190620001c592919062000264565b506040820151816002019080519060200190620001e492919062000264565b5090505060018083604051620001fb919062000565565b908152602001604051809103902060006101000a81548160ff0219169083151502179055507f996d7324173609959370942b1ee1b743dc623b3d50459e66c1d55df55e5a9f378284604051620002539291906200057e565b60405180910390a150505062000788565b8280546200027290620006e3565b90600052602060002090601f016020900481019282620002965760008555620002e2565b82601f10620002b157805160ff1916838001178555620002e2565b82800160010185558215620002e2579182015b82811115620002e1578251825591602001919060010190620002c4565b5b509050620002f19190620002f5565b5090565b5b8082111562000310576000816000905550600101620002f6565b5090565b60006200032b620003258462000653565b6200061f565b9050828152602081018484840111156200034457600080fd5b62000351848285620006ad565b509392505050565b600082601f8301126200036b57600080fd5b81516200037d84826020860162000314565b91505092915050565b6000806000606084860312156200039c57600080fd5b600084015167ffffffffffffffff811115620003b757600080fd5b620003c58682870162000359565b935050602084015167ffffffffffffffff811115620003e357600080fd5b620003f18682870162000359565b925050604084015167ffffffffffffffff8111156200040f57600080fd5b6200041d8682870162000359565b9150509250925092565b6000620004348262000686565b62000440818562000691565b935062000452818560208601620006ad565b6200045d8162000777565b840191505092915050565b6000620004758262000686565b620004818185620006a2565b935062000493818560208601620006ad565b80840191505092915050565b6000620004ae60178362000691565b91507f46616369616c20686173682069732072657175697265640000000000000000006000830152602082019050919050565b6000620004f060158362000691565b91507f46756c6c206e616d6520697320726571756972656400000000000000000000006000830152602082019050919050565b60006200053260148362000691565b91507f557365726e616d652069732072657175697265640000000000000000000000006000830152602082019050919050565b600062000573828462000468565b915081905092915050565b600060408201905081810360008301526200059a818562000427565b90508181036020830152620005b0818462000427565b90509392505050565b60006020820190508181036000830152620005d4816200049f565b9050919050565b60006020820190508181036000830152620005f681620004e1565b9050919050565b60006020820190508181036000830152620006188162000523565b9050919050565b6000604051905081810181811067ffffffffffffffff8211171562000649576200064862000748565b5b8060405250919050565b600067ffffffffffffffff82111562000671576200067062000748565b5b601f19601f8301169050602081019050919050565b600081519050919050565b600082825260208201905092915050565b600081905092915050565b60005b83811015620006cd578082015181840152602081019050620006b0565b83811115620006dd576000848401525b50505050565b60006002820490506001821680620006fc57607f821691505b6020821081141562000713576200071262000719565b5b50919050565b7f4e487b7100000000000000000000000000000000000000000000000000000000600052602260045260246000fd5b7f4e487b7100000000000000000000000000000000000000000000000000000000600052604160045260246000fd5b6000601f19601f8301169050919050565b610c4a80620007986000396000f3fe608060405234801561001057600080fd5b50600436106100415760003560e01c80638da5cb5b146100465780639f42af6314610064578063d637dcfa14610096575b600080fd5b61004e6100b2565b60405161005b9190610939565b60405180910390f35b61007e60048036038101906100799190610691565b6100d8565b60405161008d9392919061098b565b60405180910390f35b6100b060048036038101906100ab91906106d2565b610347565b005b600260009054906101000a900473ffffffffffffffffffffffffffffffffffffffff1681565b60608060606001846040516100ed9190610922565b908152602001604051809103902060009054906101000a900460ff16610148576040517f08c379a000000000000000000000000000000000000000000000000000000000815260040161013f906109f7565b60405180910390fd5b600080856040516101599190610922565b908152602001604051809103902060405180606001604052908160008201805461018290610b73565b80601f01602080910402602001604051908101604052809291908181526020018280546101ae90610b73565b80156101fb5780601f106101d0576101008083540402835291602001916101fb565b820191906000526020600020905b8154815290600101906020018083116101de57829003601f168201915b5050505050815260200160018201805461021490610b73565b80601f016020809104026020016040519081016040528092919081815260200182805461024090610b73565b801561028d5780601f106102625761010080835404028352916020019161028d565b820191906000526020600020905b81548152906001019060200180831161027057829003601f168201915b505050505081526020016002820180546102a690610b73565b80601f01602080910402602001604051908101604052809291908181526020018280546102d290610b73565b801561031f5780601f106102f45761010080835404028352916020019161031f565b820191906000526020600020905b81548152906001019060200180831161030257829003601f168201915b5050505050815250509050806000015181602001518260400151935093509350509193909250565b600083511161038b576040517f08c379a000000000000000000000000000000000000000000000000000000000815260040161038290610a37565b60405180910390fd5b60008251116103cf576040517f08c379a00000000000000000000000000000000000000000000000000000000081526004016103c690610a57565b60405180910390fd5b6000815111610413576040517f08c379a000000000000000000000000000000000000000000000000000000000815260040161040a906109d7565b60405180910390fd5b6001826040516104239190610922565b908152602001604051809103902060009054906101000a900460ff161561047f576040517f08c379a000000000000000000000000000000000000000000000000000000000815260040161047690610a17565b60405180910390fd5b6040518060600160405280848152602001838152602001828152506000836040516104aa9190610922565b908152602001604051809103902060008201518160000190805190602001906104d4929190610586565b5060208201518160010190805190602001906104f1929190610586565b50604082015181600201908051906020019061050e929190610586565b50905050600180836040516105239190610922565b908152602001604051809103902060006101000a81548160ff0219169083151502179055507f996d7324173609959370942b1ee1b743dc623b3d50459e66c1d55df55e5a9f378284604051610579929190610954565b60405180910390a1505050565b82805461059290610b73565b90600052602060002090601f0160209004810192826105b457600085556105fb565b82601f106105cd57805160ff19168380011785556105fb565b828001600101855582156105fb579182015b828111156105fa5782518255916020019190600101906105df565b5b509050610608919061060c565b5090565b5b8082111561062557600081600090555060010161060d565b5090565b600061063c61063784610aa8565b610a77565b90508281526020810184848401111561065457600080fd5b61065f848285610b31565b509392505050565b600082601f83011261067857600080fd5b8135610688848260208601610629565b91505092915050565b6000602082840312156106a357600080fd5b600082013567ffffffffffffffff8111156106bd57600080fd5b6106c984828501610667565b91505092915050565b6000806000606084860312156106e757600080fd5b600084013567ffffffffffffffff81111561070157600080fd5b61070d86828701610667565b935050602084013567ffffffffffffffff81111561072a57600080fd5b61073686828701610667565b925050604084013567ffffffffffffffff81111561075357600080fd5b61075f86828701610667565b9150509250925092565b61077281610aff565b82525050565b600061078382610ad8565b61078d8185610ae3565b935061079d818560208601610b40565b6107a681610c03565b840191505092915050565b60006107bc82610ad8565b6107c68185610af4565b93506107d6818560208601610b40565b80840191505092915050565b60006107ef601783610ae3565b91507f46616369616c20686173682069732072657175697265640000000000000000006000830152602082019050919050565b600061082f600e83610ae3565b91507f55736572206e6f7420666f756e640000000000000000000000000000000000006000830152602082019050919050565b600061086f601783610ae3565b91507f557365726e616d6520616c7265616479206578697374730000000000000000006000830152602082019050919050565b60006108af601583610ae3565b91507f46756c6c206e616d6520697320726571756972656400000000000000000000006000830152602082019050919050565b60006108ef601483610ae3565b91507f557365726e616d652069732072657175697265640000000000000000000000006000830152602082019050919050565b600061092e82846107b1565b915081905092915050565b600060208201905061094e6000830184610769565b92915050565b6000604082019050818103600083015261096e8185610778565b905081810360208301526109828184610778565b90509392505050565b600060608201905081810360008301526109a58186610778565b905081810360208301526109b98185610778565b905081810360408301526109cd8184610778565b9050949350505050565b600060208201905081810360008301526109f0816107e2565b9050919050565b60006020820190508181036000830152610a1081610822565b9050919050565b60006020820190508181036000830152610a3081610862565b9050919050565b60006020820190508181036000830152610a50816108a2565b9050919050565b60006020820190508181036000830152610a70816108e2565b9050919050565b6000604051905081810181811067ffffffffffffffff82111715610a9e57610a9d610bd4565b5b8060405250919050565b600067ffffffffffffffff821115610ac357610ac2610bd4565b5b601f19601f8301169050602081019050919050565b600081519050919050565b600082825260208201905092915050565b600081905092915050565b6000610b0a82610b11565b9050919050565b600073ffffffffffffffffffffffffffffffffffffffff82169050919050565b82818337600083830152505050565b60005b83811015610b5e578082015181840152602081019050610b43565b83811115610b6d576000848401525b50505050565b60006002820490506001821680610b8b57607f821691505b60208210811415610b9f57610b9e610ba5565b5b50919050565b7f4e487b7100000000000000000000000000000000000000000000000000000000600052602260045260246000fd5b7f4e487b7100000000000000000000000000000000000000000000000000000000600052604160045260246000fd5b6000601f19601f830116905091905056fea2646970667358221220b465d91c0cbd61419cc992f4f0c6fab99f3e7b3b1893989b209484ea4d1441b464736f6c63430008000033",
  "linkReferences": {},
  "deployedLinkReferences": {}
}