{
  "_format": "hh-sol-artifact-1",
  "contractName": "FaceGuard",
  "sourceName": "contracts/FaceGuard.sol",
  "abi": [
    {
      "inputs": [],
      "stateMutability": "nonpayable",
      "type": "constructor"
    },
    {
      "anonymous": false,
      "inputs": [
        {
          "indexed": true,
          "internalType": "string",
          "name": "username",
          "type": "string"
        },
        {
          "indexed": false,
          "internalType": "string[]",
          "name": "oldFaceHashes",
          "type": "string[]"
        },
        {
          "indexed": false,
          "internalType": "string[]",
          "name": "newFaceHashes",
          "type": "string[]"
        }
      ],
      "name": "FaceHashUpdated",
      "type": "event"
    },
    {
      "anonymous": false,
      "inputs": [
        {
          "indexed": true,
          "internalType": "string",
          "name": "groupName",
          "type": "string"
        },
        {
          "indexed": false,
          "internalType": "string[]",
          "name": "permissions",
          "type": "string[]"
        }
      ],
      "name": "GroupCreated",
      "type": "event"
    },
    {
      "anonymous": false,
      "inputs": [
        {
          "indexed": true,
          "internalType": "string",
          "name": "originalGroupName",
          "type": "string"
        },
        {
          "indexed": false,
          "internalType": "string",
          "name": "newGroupName",
          "type": "string"
        }
      ],
      "name": "GroupNameUpdated",
      "type": "event"
    },
    {
      "anonymous": false,
      "inputs": [
        {
          "indexed": true,
          "internalType": "string",
          "name": "groupName",
          "type": "string"
        },
        {
          "indexed": false,
          "internalType": "string[]",
          "name": "permissions",
          "type": "string[]"
        }
      ],
      "name": "GroupPermissionsUpdated",
      "type": "event"
    },
    {
      "anonymous": false,
      "inputs": [
        {
          "indexed": true,
          "internalType": "string",
          "name": "groupName",
          "type": "string"
        }
      ],
      "name": "GroupRemoved",
      "type": "event"
    },
    {
      "anonymous": false,
      "inputs": [
        {
          "indexed": true,
          "internalType": "string",
          "name": "username",
          "type": "string"
        }
      ],
      "name": "PasswordChangeRequired",
      "type": "event"
    },
    {
      "anonymous": false,
      "inputs": [
        {
          "indexed": true,
          "internalType": "string",
          "name": "username",
          "type": "string"
        }
      ],
      "name": "PasswordUpdated",
      "type": "event"
    },
    {
      "anonymous": false,
      "inputs": [
        {
          "indexed": true,
          "internalType": "string",
          "name": "username",
          "type": "string"
        },
        {
          "indexed": false,
          "internalType": "string",
          "name": "groupName",
          "type": "string"
        }
      ],
      "name": "UserAddedToGroup",
      "type": "event"
    },
    {
      "anonymous": false,
      "inputs": [
        {
          "indexed": true,
          "internalType": "string",
          "name": "username",
          "type": "string"
        },
        {
          "indexed": false,
          "internalType": "string",
          "name": "oldEmail",
          "type": "string"
        },
        {
          "indexed": false,
          "internalType": "string",
          "name": "newEmail",
          "type": "string"
        }
      ],
      "name": "UserEmailUpdated",
      "type": "event"
    },
    {
      "anonymous": false,
      "inputs": [
        {
          "indexed": true,
          "internalType": "string",
          "name": "username",
          "type": "string"
        },
        {
          "indexed": false,
          "internalType": "string",
          "name": "oldFullName",
          "type": "string"
        },
        {
          "indexed": false,
          "internalType": "string",
          "name": "newFullName",
          "type": "string"
        }
      ],
      "name": "UserFullNameUpdated",
      "type": "event"
    },
    {
      "anonymous": false,
      "inputs": [
        {
          "indexed": true,
          "internalType": "string",
          "name": "username",
          "type": "string"
        }
      ],
      "name": "UserLoggedIn",
      "type": "event"
    },
    {
      "anonymous": false,
      "inputs": [
        {
          "indexed": true,
          "internalType": "string",
          "name": "username",
          "type": "string"
        }
      ],
      "name": "UserRegistered",
      "type": "event"
    },
    {
      "anonymous": false,
      "inputs": [
        {
          "indexed": false,
          "internalType": "string",
          "name": "username",
          "type": "string"
        }
      ],
      "name": "UserRemoved",
      "type": "event"
    },
    {
      "anonymous": false,
      "inputs": [
        {
          "indexed": true,
          "internalType": "string",
          "name": "username",
          "type": "string"
        },
        {
          "indexed": false,
          "internalType": "string",
          "name": "groupName",
          "type": "string"
        }
      ],
      "name": "UserRemovedFromGroup",
      "type": "event"
    },
    {
      "anonymous": false,
      "inputs": [
        {
          "indexed": true,
          "internalType": "string",
          "name": "username",
          "type": "string"
        },
        {
          "indexed": false,
          "internalType": "bool",
          "name": "enabled",
          "type": "bool"
        }
      ],
      "name": "UserToggled",
      "type": "event"
    },
    {
      "inputs": [
        {
          "internalType": "string",
          "name": "groupName",
          "type": "string"
        },
        {
          "internalType": "string",
          "name": "username",
          "type": "string"
        }
      ],
      "name": "addUserToGroup",
      "outputs": [],
      "stateMutability": "nonpayable",
      "type": "function"
    },
    {
      "inputs": [
        {
          "internalType": "string",
          "name": "username",
          "type": "string"
        }
      ],
      "name": "checkIfUserExists",
      "outputs": [
        {
          "internalType": "bool",
          "name": "",
          "type": "bool"
        }
      ],
      "stateMutability": "view",
      "type": "function"
    },
    {
      "inputs": [
        {
          "internalType": "string",
          "name": "groupName",
          "type": "string"
        },
        {
          "internalType": "string[]",
          "name": "permissions",
          "type": "string[]"
        }
      ],
      "name": "createGroup",
      "outputs": [],
      "stateMutability": "nonpayable",
      "type": "function"
    },
    {
      "inputs": [
        {
          "internalType": "string",
          "name": "username",
          "type": "string"
        }
      ],
      "name": "emitLoginSuccessLog",
      "outputs": [],
      "stateMutability": "nonpayable",
      "type": "function"
    },
    {
      "inputs": [],
      "name": "getAllGroups",
      "outputs": [
        {
          "internalType": "string[]",
          "name": "",
          "type": "string[]"
        }
      ],
      "stateMutability": "view",
      "type": "function"
    },
    {
      "inputs": [],
      "name": "getAllUsernames",
      "outputs": [
        {
          "internalType": "string[]",
          "name": "",
          "type": "string[]"
        }
      ],
      "stateMutability": "view",
      "type": "function"
    },
    {
      "inputs": [
        {
          "internalType": "string",
          "name": "groupName",
          "type": "string"
        }
      ],
      "name": "getGroup",
      "outputs": [
        {
          "internalType": "string",
          "name": "",
          "type": "string"
        },
        {
          "internalType": "string[]",
          "name": "",
          "type": "string[]"
        },
        {
          "internalType": "string[]",
          "name": "",
          "type": "string[]"
        }
      ],
      "stateMutability": "view",
      "type": "function"
    },
    {
      "inputs": [
        {
          "internalType": "string",
          "name": "username",
          "type": "string"
        }
      ],
      "name": "getUser",
      "outputs": [
        {
          "internalType": "string",
          "name": "",
          "type": "string"
        },
        {
          "internalType": "string",
          "name": "",
          "type": "string"
        },
        {
          "internalType": "string[]",
          "name": "",
          "type": "string[]"
        },
        {
          "internalType": "string",
          "name": "",
          "type": "string"
        },
        {
          "internalType": "string",
          "name": "",
          "type": "string"
        },
        {
          "internalType": "bool",
          "name": "",
          "type": "bool"
        },
        {
          "internalType": "bool",
          "name": "",
          "type": "bool"
        },
        {
          "internalType": "string",
          "name": "",
          "type": "string"
        },
        {
          "internalType": "string",
          "name": "",
          "type": "string"
        }
      ],
      "stateMutability": "view",
      "type": "function"
    },
    {
      "inputs": [
        {
          "internalType": "string",
          "name": "username",
          "type": "string"
        }
      ],
      "name": "getUserFaceHashes",
      "outputs": [
        {
          "internalType": "string[]",
          "name": "",
          "type": "string[]"
        }
      ],
      "stateMutability": "view",
      "type": "function"
    },
    {
      "inputs": [
        {
          "internalType": "string",
          "name": "username",
          "type": "string"
        }
      ],
      "name": "getUserPermissions",
      "outputs": [
        {
          "internalType": "string[]",
          "name": "",
          "type": "string[]"
        }
      ],
      "stateMutability": "view",
      "type": "function"
    },
    {
      "inputs": [
        {
          "internalType": "string",
          "name": "username",
          "type": "string"
        },
        {
          "internalType": "string",
          "name": "passwordHash",
          "type": "string"
        },
        {
          "internalType": "string[]",
          "name": "initialFaceHashes",
          "type": "string[]"
        },
        {
          "internalType": "string",
          "name": "creationDate",
          "type": "string"
        }
      ],
      "name": "registerUser",
      "outputs": [],
      "stateMutability": "nonpayable",
      "type": "function"
    },
    {
      "inputs": [
        {
          "internalType": "string",
          "name": "groupName",
          "type": "string"
        }
      ],
      "name": "removeGroup",
      "outputs": [],
      "stateMutability": "nonpayable",
      "type": "function"
    },
    {
      "inputs": [
        {
          "internalType": "string",
          "name": "username",
          "type": "string"
        }
      ],
      "name": "removeUser",
      "outputs": [],
      "stateMutability": "nonpayable",
      "type": "function"
    },
    {
      "inputs": [
        {
          "internalType": "string",
          "name": "groupName",
          "type": "string"
        },
        {
          "internalType": "string",
          "name": "username",
          "type": "string"
        }
      ],
      "name": "removeUserFromGroup",
      "outputs": [],
      "stateMutability": "nonpayable",
      "type": "function"
    },
    {
      "inputs": [
        {
          "internalType": "string",
          "name": "username",
          "type": "string"
        }
      ],
      "name": "requireUserPasswordChange",
      "outputs": [],
      "stateMutability": "nonpayable",
      "type": "function"
    },
    {
      "inputs": [
        {
          "internalType": "string",
          "name": "groupName",
          "type": "string"
        },
        {
          "internalType": "string[]",
          "name": "groupPermissions",
          "type": "string[]"
        }
      ],
      "name": "setGroupPermissions",
      "outputs": [
        {
          "internalType": "string",
          "name": "",
          "type": "string"
        }
      ],
      "stateMutability": "nonpayable",
      "type": "function"
    },
    {
      "inputs": [
        {
          "internalType": "string",
          "name": "username",
          "type": "string"
        }
      ],
      "name": "toggleUser",
      "outputs": [],
      "stateMutability": "nonpayable",
      "type": "function"
    },
    {
      "inputs": [
        {
          "internalType": "string",
          "name": "originalGroupName",
          "type": "string"
        },
        {
          "internalType": "string",
          "name": "newGroupName",
          "type": "string"
        },
        {
          "internalType": "string[]",
          "name": "newPermissions",
          "type": "string[]"
        }
      ],
      "name": "updateGroup",
      "outputs": [],
      "stateMutability": "nonpayable",
      "type": "function"
    },
    {
      "inputs": [
        {
          "internalType": "string",
          "name": "username",
          "type": "string"
        },
        {
          "internalType": "string",
          "name": "newEmail",
          "type": "string"
        }
      ],
      "name": "updateUserEmail",
      "outputs": [],
      "stateMutability": "nonpayable",
      "type": "function"
    },
    {
      "inputs": [
        {
          "internalType": "string",
          "name": "username",
          "type": "string"
        },
        {
          "internalType": "string[]",
          "name": "newFaceHashes",
          "type": "string[]"
        }
      ],
      "name": "updateUserFaceHash",
      "outputs": [],
      "stateMutability": "nonpayable",
      "type": "function"
    },
    {
      "inputs": [
        {
          "internalType": "string",
          "name": "username",
          "type": "string"
        },
        {
          "internalType": "string",
          "name": "newFullName",
          "type": "string"
        }
      ],
      "name": "updateUserFullName",
      "outputs": [],
      "stateMutability": "nonpayable",
      "type": "function"
    },
    {
      "inputs": [
        {
          "internalType": "string",
          "name": "username",
          "type": "string"
        },
        {
          "internalType": "string",
          "name": "newPasswordHash",
          "type": "string"
        }
      ],
      "name": "updateUserPassword",
      "outputs": [],
      "stateMutability": "nonpayable",
      "type": "function"
    }
  ],
  "bytecode": "0x60806040526000600560006101000a81548160ff0219169083151502179055503480156200002c57600080fd5b5033600560016101000a81548173ffffffffffffffffffffffffffffffffffffffff021916908373ffffffffffffffffffffffffffffffffffffffff160217905550600060405180608001604052806040518060400160405280601581526020017f466163654775617264204372656174653a20416c6c000000000000000000000081525081526020016040518060400160405280601381526020017f46616365477561726420526561643a20416c6c0000000000000000000000000081525081526020016040518060400160405280601581526020017f466163654775617264205570646174653a20416c6c000000000000000000000081525081526020016040518060400160405280601581526020017f4661636547756172642044656c6574653a20416c6c00000000000000000000008152508152509050600060405180606001604052806040518060400160405280601481526020017f46616365477561726420526561643a2053656c6600000000000000000000000081525081526020016040518060400160405280601681526020017f466163654775617264205570646174653a2053656c660000000000000000000081525081526020016040518060400160405280601681526020017f4661636547756172642044656c6574653a2053656c66000000000000000000008152508152509050600060405180608001604052806040518060400160405280601881526020017f466163654775617264204372656174653a2047726f757073000000000000000081525081526020016040518060400160405280601681526020017f46616365477561726420526561643a2047726f7570730000000000000000000081525081526020016040518060400160405280601881526020017f466163654775617264205570646174653a2047726f757073000000000000000081525081526020016040518060400160405280601881526020017f4661636547756172642044656c6574653a2047726f75707300000000000000008152508152509050600060405180608001604052806040518060400160405280601781526020017f466163654775617264204372656174653a20557365727300000000000000000081525081526020016040518060400160405280601581526020017f46616365477561726420526561643a205573657273000000000000000000000081525081526020016040518060400160405280601781526020017f466163654775617264205570646174653a20557365727300000000000000000081525081526020016040518060400160405280601781526020017f4661636547756172642044656c6574653a20557365727300000000000000000081525081525090506200046e6040518060400160405280600e81526020017f41646d696e6973747261746f727300000000000000000000000000000000000081525062000462866200057d60201b60201c565b620006ac60201b60201c565b620004c56040518060400160405280600581526020017f5573657273000000000000000000000000000000000000000000000000000000815250620004b985620008e460201b60201c565b620006ac60201b60201c565b6200051c6040518060400160405280600e81526020017f47726f7570204d616e616765727300000000000000000000000000000000000081525062000510846200057d60201b60201c565b620006ac60201b60201c565b620005736040518060400160405280600d81526020017f55736572204d616e61676572730000000000000000000000000000000000000081525062000567836200057d60201b60201c565b620006ac60201b60201c565b5050505062000f12565b60606000600467ffffffffffffffff811115620005c3577f4e487b7100000000000000000000000000000000000000000000000000000000600052604160045260246000fd5b604051908082528060200260200182016040528015620005f857816020015b6060815260200190600190039081620005e25790505b50905060005b6004811015620006a25783816004811062000642577f4e487b7100000000000000000000000000000000000000000000000000000000600052603260045260246000fd5b602002015182828151811062000681577f4e487b7100000000000000000000000000000000000000000000000000000000600052603260045260246000fd5b60200260200101819052508080620006999062000e55565b915050620005fe565b5080915050919050565b600560019054906101000a900473ffffffffffffffffffffffffffffffffffffffff1673ffffffffffffffffffffffffffffffffffffffff163373ffffffffffffffffffffffffffffffffffffffff16146200073f576040517f08c379a0000000000000000000000000000000000000000000000000000000008152600401620007369062000d4c565b60405180910390fd5b6040518060600160405280838152602001600067ffffffffffffffff81111562000792577f4e487b7100000000000000000000000000000000000000000000000000000000600052604160045260246000fd5b604051908082528060200260200182016040528015620007c757816020015b6060815260200190600190039081620007b15790505b50815260200182815250600183604051620007e3919062000d0f565b908152602001604051809103902060008201518160000190805190602001906200080f92919062000a13565b5060208201518160010190805190602001906200082e92919062000aa4565b5060408201518160020190805190602001906200084d92919062000aa4565b509050506003829080600181540180825580915050600190039060005260206000200160009091909190915090805190602001906200088e92919062000a13565b50816040516200089f919062000d0f565b60405180910390207f64e45d769b067e3e2de0a2fbfa982b75ad4472af64e84e1c421ec5bbe695de0f82604051620008d8919062000d28565b60405180910390a25050565b60606000600367ffffffffffffffff8111156200092a577f4e487b7100000000000000000000000000000000000000000000000000000000600052604160045260246000fd5b6040519080825280602002602001820160405280156200095f57816020015b6060815260200190600190039081620009495790505b50905060005b600381101562000a0957838160038110620009a9577f4e487b7100000000000000000000000000000000000000000000000000000000600052603260045260246000fd5b6020020151828281518110620009e8577f4e487b7100000000000000000000000000000000000000000000000000000000600052603260045260246000fd5b6020026020010181905250808062000a009062000e55565b91505062000965565b5080915050919050565b82805462000a219062000e1f565b90600052602060002090601f01602090048101928262000a45576000855562000a91565b82601f1062000a6057805160ff191683800117855562000a91565b8280016001018555821562000a91579182015b8281111562000a9057825182559160200191906001019062000a73565b5b50905062000aa0919062000b0b565b5090565b82805482825590600052602060002090810192821562000af8579160200282015b8281111562000af757825182908051906020019062000ae692919062000a13565b509160200191906001019062000ac5565b5b50905062000b07919062000b2a565b5090565b5b8082111562000b2657600081600090555060010162000b0c565b5090565b5b8082111562000b4e576000818162000b44919062000b52565b5060010162000b2b565b5090565b50805462000b609062000e1f565b6000825580601f1062000b74575062000b95565b601f01602090049060005260206000209081019062000b94919062000b0b565b5b50565b600062000ba6838362000c2f565b905092915050565b600062000bbb8262000d7e565b62000bc7818562000da1565b93508360208202850162000bdb8562000d6e565b8060005b8581101562000c1d578484038952815162000bfb858262000b98565b945062000c088362000d94565b925060208a0199505060018101905062000bdf565b50829750879550505050505092915050565b600062000c3c8262000d89565b62000c48818562000db2565b935062000c5a81856020860162000de9565b62000c658162000f01565b840191505092915050565b600062000c7d8262000d89565b62000c89818562000dd4565b935062000c9b81856020860162000de9565b80840191505092915050565b600062000cb6602f8362000dc3565b91507f4f6e6c792074686520636f6e7472616374206f776e65722063616e207065726660008301527f6f726d207468697320616374696f6e00000000000000000000000000000000006020830152604082019050919050565b600062000d1d828462000c70565b915081905092915050565b6000602082019050818103600083015262000d44818462000bae565b905092915050565b6000602082019050818103600083015262000d678162000ca7565b9050919050565b6000819050602082019050919050565b600081519050919050565b600081519050919050565b6000602082019050919050565b600082825260208201905092915050565b600082825260208201905092915050565b600082825260208201905092915050565b600081905092915050565b6000819050919050565b60005b8381101562000e0957808201518184015260208101905062000dec565b8381111562000e19576000848401525b50505050565b6000600282049050600182168062000e3857607f821691505b6020821081141562000e4f5762000e4e62000ed2565b5b50919050565b600062000e628262000ddf565b91507fffffffffffffffffffffffffffffffffffffffffffffffffffffffffffffffff82141562000e985762000e9762000ea3565b5b600182019050919050565b7f4e487b7100000000000000000000000000000000000000000000000000000000600052601160045260246000fd5b7f4e487b7100000000000000000000000000000000000000000000000000000000600052602260045260246000fd5b6000601f19601f8301169050919050565b6157ac8062000f226000396000f3fe608060405234801561001057600080fd5b50600436106101425760003560e01c806367753ba1116100b8578063abef281e1161007c578063abef281e14610363578063b9e6facb14610395578063c91bc46c146103b1578063e537cac7146103cd578063ecb5a4d5146103e9578063ee1c55da1461040557610142565b806367753ba1146102c35780636b228cde146102df5780636cad1934146102fb5780637c77f39f1461032b5780638a0bd86b1461034757610142565b806331feb6711161010a57806331feb671146101fd5780635108c3ab1461023557806353620375146102515780635b9a6b1d1461026f578063600cee781461028b5780636246b310146102a757610142565b806303df9e92146101475780631ae7f10a1461016357806321cd3cae14610193578063266c1bab146101b15780632d09d9e9146101cd575b600080fd5b610161600480360381019061015c91906147f7565b610435565b005b61017d600480360381019061017891906147f7565b610643565b60405161018a91906151ce565b60405180910390f35b61019b610aa0565b6040516101a89190615138565b60405180910390f35b6101cb60048036038101906101c69190614863565b610b79565b005b6101e760048036038101906101e291906147b6565b610d40565b6040516101f49190615138565b60405180910390f35b610217600480360381019061021291906147b6565b610e3a565b60405161022c99989796959493929190615273565b60405180910390f35b61024f600480360381019061024a91906147b6565b61135a565b005b6102596114d0565b6040516102669190615138565b60405180910390f35b610289600480360381019061028491906148cf565b6115a9565b005b6102a560048036038101906102a091906147b6565b611b6d565b005b6102c160048036038101906102bc91906147b6565b612045565b005b6102dd60048036038101906102d89190614863565b61270a565b005b6102f960048036038101906102f491906147b6565b612bbe565b005b610315600480360381019061031091906147b6565b612c93565b60405161032291906151b3565b60405180910390f35b610345600480360381019061034091906147f7565b612ccc565b005b610361600480360381019061035c9190614863565b612ef0565b005b61037d600480360381019061037891906147b6565b6130b7565b60405161038c939291906151f0565b60405180910390f35b6103af60048036038101906103aa9190614966565b61344a565b005b6103cb60048036038101906103c69190614863565b6137bd565b005b6103e760048036038101906103e291906147b6565b613902565b005b61040360048036038101906103fe9190614863565b613a11565b005b61041f600480360381019061041a91906147b6565b613c2c565b60405161042c9190615138565b60405180910390f35b600560019054906101000a900473ffffffffffffffffffffffffffffffffffffffff1673ffffffffffffffffffffffffffffffffffffffff163373ffffffffffffffffffffffffffffffffffffffff16146104c5576040517f08c379a00000000000000000000000000000000000000000000000000000000081526004016104bc906153b1565b60405180910390fd5b600080836040516104d691906150f5565b9081526020016040518091039020600201805480602002602001604051908101604052809291908181526020016000905b828210156105b35783829060005260206000200180546105269061565d565b80601f01602080910402602001604051908101604052809291908181526020018280546105529061565d565b801561059f5780601f106105745761010080835404028352916020019161059f565b820191906000526020600020905b81548152906001019060200180831161058257829003601f168201915b505050505081526020019060010190610507565b505050509050816000846040516105ca91906150f5565b908152602001604051809103902060020190805190602001906105ee9291906143bd565b50826040516105fd91906150f5565b60405180910390207fc3ab2bd26c429f3b9ad2951ce386b67f5ef41f9ab09d8db62e412af51d594a40828460405161063692919061515a565b60405180910390a2505050565b6060600560019054906101000a900473ffffffffffffffffffffffffffffffffffffffff1673ffffffffffffffffffffffffffffffffffffffff163373ffffffffffffffffffffffffffffffffffffffff16146106d5576040517f08c379a00000000000000000000000000000000000000000000000000000000081526004016106cc906153b1565b60405180910390fd5b60006001846040516106e791906150f5565b908152602001604051809103902060000180546107039061565d565b905011610745576040517f08c379a000000000000000000000000000000000000000000000000000000000815260040161073c906153f1565b60405180910390fd5b600060405180608001604052806040518060400160405280600e81526020017f41646d696e6973747261746f727300000000000000000000000000000000000081525081526020016040518060400160405280600581526020017f557365727300000000000000000000000000000000000000000000000000000081525081526020016040518060400160405280600e81526020017f47726f7570204d616e616765727300000000000000000000000000000000000081525081526020016040518060400160405280600d81526020017f55736572204d616e616765727300000000000000000000000000000000000000815250815250905060005b600481101561092957818160048110610883577f4e487b7100000000000000000000000000000000000000000000000000000000600052603260045260246000fd5b602002015160405160200161089891906150f5565b60405160208183030381529060405280519060200120856040516020016108bf91906150f5565b604051602081830303815290604052805190602001201415610916576040517f08c379a000000000000000000000000000000000000000000000000000000000815260040161090d90615371565b60405180910390fd5b80806109219061568f565b915050610841565b508260018560405161093b91906150f5565b9081526020016040518091039020600201908051906020019061095f9291906143bd565b5060018460405161097091906150f5565b908152602001604051809103902060000160405161098e919061510c565b60405180910390207f65d29756900166ea1a95042b775077b9e0c4b52e2ad303784b8fc75584de59ef6001866040516109c791906150f5565b90815260200160405180910390206002016040516109e59190615191565b60405180910390a26001846040516109fd91906150f5565b90815260200160405180910390206000018054610a199061565d565b80601f0160208091040260200160405190810160405280929190818152602001828054610a459061565d565b8015610a925780601f10610a6757610100808354040283529160200191610a92565b820191906000526020600020905b815481529060010190602001808311610a7557829003601f168201915b505050505091505092915050565b60606003805480602002602001604051908101604052809291908181526020016000905b82821015610b70578382906000526020600020018054610ae39061565d565b80601f0160208091040260200160405190810160405280929190818152602001828054610b0f9061565d565b8015610b5c5780601f10610b3157610100808354040283529160200191610b5c565b820191906000526020600020905b815481529060010190602001808311610b3f57829003601f168201915b505050505081526020019060010190610ac4565b50505050905090565b600560019054906101000a900473ffffffffffffffffffffffffffffffffffffffff1673ffffffffffffffffffffffffffffffffffffffff163373ffffffffffffffffffffffffffffffffffffffff1614610c09576040517f08c379a0000000000000000000000000000000000000000000000000000000008152600401610c00906153b1565b60405180910390fd5b60008083604051610c1a91906150f5565b90815260200160405180910390206006018054610c369061565d565b80601f0160208091040260200160405190810160405280929190818152602001828054610c629061565d565b8015610caf5780601f10610c8457610100808354040283529160200191610caf565b820191906000526020600020905b815481529060010190602001808311610c9257829003601f168201915b5050505050905081600084604051610cc791906150f5565b90815260200160405180910390206006019080519060200190610ceb92919061441d565b5082604051610cfa91906150f5565b60405180910390207fcc1535b390217134b99857a8888766bbd62b45e9c4ee9436c1f1471790825f138284604051610d3392919061523c565b60405180910390a2505050565b6060600082604051610d5291906150f5565b9081526020016040518091039020600201805480602002602001604051908101604052809291908181526020016000905b82821015610e2f578382906000526020600020018054610da29061565d565b80601f0160208091040260200160405190810160405280929190818152602001828054610dce9061565d565b8015610e1b5780601f10610df057610100808354040283529160200191610e1b565b820191906000526020600020905b815481529060010190602001808311610dfe57829003601f168201915b505050505081526020019060010190610d83565b505050509050919050565b60608060608060606000806060806000808b604051610e5991906150f5565b908152602001604051809103902060405180610140016040529081600082018054610e839061565d565b80601f0160208091040260200160405190810160405280929190818152602001828054610eaf9061565d565b8015610efc5780601f10610ed157610100808354040283529160200191610efc565b820191906000526020600020905b815481529060010190602001808311610edf57829003601f168201915b50505050508152602001600182018054610f159061565d565b80601f0160208091040260200160405190810160405280929190818152602001828054610f419061565d565b8015610f8e5780601f10610f6357610100808354040283529160200191610f8e565b820191906000526020600020905b815481529060010190602001808311610f7157829003601f168201915b5050505050815260200160028201805480602002602001604051908101604052809291908181526020016000905b82821015611068578382906000526020600020018054610fdb9061565d565b80601f01602080910402602001604051908101604052809291908181526020018280546110079061565d565b80156110545780601f1061102957610100808354040283529160200191611054565b820191906000526020600020905b81548152906001019060200180831161103757829003601f168201915b505050505081526020019060010190610fbc565b5050505081526020016003820180546110809061565d565b80601f01602080910402602001604051908101604052809291908181526020018280546110ac9061565d565b80156110f95780601f106110ce576101008083540402835291602001916110f9565b820191906000526020600020905b8154815290600101906020018083116110dc57829003601f168201915b505050505081526020016004820180546111129061565d565b80601f016020809104026020016040519081016040528092919081815260200182805461113e9061565d565b801561118b5780601f106111605761010080835404028352916020019161118b565b820191906000526020600020905b81548152906001019060200180831161116e57829003601f168201915b505050505081526020016005820160009054906101000a900460ff161515151581526020016005820160019054906101000a900460ff161515151581526020016005820160029054906101000a900460ff161515151581526020016006820180546111f59061565d565b80601f01602080910402602001604051908101604052809291908181526020018280546112219061565d565b801561126e5780601f106112435761010080835404028352916020019161126e565b820191906000526020600020905b81548152906001019060200180831161125157829003601f168201915b505050505081526020016007820180546112879061565d565b80601f01602080910402602001604051908101604052809291908181526020018280546112b39061565d565b80156113005780601f106112d557610100808354040283529160200191611300565b820191906000526020600020905b8154815290600101906020018083116112e357829003601f168201915b5050505050815250509050806000015181602001518260400151836060015184608001518560a001518660e00151876101000151886101200151995099509950995099509950995099509950509193959799909294969850565b600560019054906101000a900473ffffffffffffffffffffffffffffffffffffffff1673ffffffffffffffffffffffffffffffffffffffff163373ffffffffffffffffffffffffffffffffffffffff16146113ea576040517f08c379a00000000000000000000000000000000000000000000000000000000081526004016113e1906153b1565b60405180910390fd5b6000816040516113fa91906150f5565b908152602001604051809103902060050160029054906101000a900460ff161560008260405161142a91906150f5565b908152602001604051809103902060050160026101000a81548160ff0219169083151502179055508060405161146091906150f5565b60405180910390207f9b1a1e5131c18ee5fd8454b3b435b1b36127bd0c05686d9fc6190d638bcb149960008360405161149991906150f5565b908152602001604051809103902060050160029054906101000a900460ff166040516114c591906151b3565b60405180910390a250565b60606002805480602002602001604051908101604052809291908181526020016000905b828210156115a05783829060005260206000200180546115139061565d565b80601f016020809104026020016040519081016040528092919081815260200182805461153f9061565d565b801561158c5780601f106115615761010080835404028352916020019161158c565b820191906000526020600020905b81548152906001019060200180831161156f57829003601f168201915b5050505050815260200190600101906114f4565b50505050905090565b600560019054906101000a900473ffffffffffffffffffffffffffffffffffffffff1673ffffffffffffffffffffffffffffffffffffffff163373ffffffffffffffffffffffffffffffffffffffff1614611639576040517f08c379a0000000000000000000000000000000000000000000000000000000008152600401611630906153b1565b60405180910390fd5b600060018460405161164b91906150f5565b908152602001604051809103902060000180546116679061565d565b9050116116a9576040517f08c379a00000000000000000000000000000000000000000000000000000000081526004016116a0906153f1565b60405180910390fd5b600060405180608001604052806040518060400160405280600e81526020017f41646d696e6973747261746f727300000000000000000000000000000000000081525081526020016040518060400160405280600581526020017f557365727300000000000000000000000000000000000000000000000000000081525081526020016040518060400160405280600e81526020017f47726f7570204d616e616765727300000000000000000000000000000000000081525081526020016040518060400160405280600d81526020017f55736572204d616e616765727300000000000000000000000000000000000000815250815250905060005b600481101561188d578181600481106117e7577f4e487b7100000000000000000000000000000000000000000000000000000000600052603260045260246000fd5b60200201516040516020016117fc91906150f5565b604051602081830303815290604052805190602001208560405160200161182391906150f5565b60405160208183030381529060405280519060200120141561187a576040517f08c379a0000000000000000000000000000000000000000000000000000000008152600401611871906153d1565b60405180910390fd5b80806118859061568f565b9150506117a5565b506118988483610643565b50826040516020016118aa91906150f5565b60405160208183030381529060405280519060200120846040516020016118d191906150f5565b6040516020818303038152906040528051906020012014611b67576001846040516118fc91906150f5565b908152602001604051809103902060018460405161191a91906150f5565b9081526020016040518091039020600082018160000190805461193c9061565d565b6119479291906144a3565b50600182018160010190805461195e929190614530565b506002820181600201908054611975929190614530565b509050508260018460405161198a91906150f5565b908152602001604051809103902060000190805190602001906119ae92919061441d565b506001846040516119bf91906150f5565b9081526020016040518091039020600080820160006119de9190614598565b6001820160006119ee91906145d8565b6002820160006119fe91906145d8565b505060005b600380549050811015611b185784604051602001611a2191906150f5565b6040516020818303038152906040528051906020012060038281548110611a71577f4e487b7100000000000000000000000000000000000000000000000000000000600052603260045260246000fd5b90600052602060002001604051602001611a8b919061510c565b604051602081830303815290604052805190602001201415611b05578360038281548110611ae2577f4e487b7100000000000000000000000000000000000000000000000000000000600052603260045260246000fd5b906000526020600020019080519060200190611aff92919061441d565b50611b18565b8080611b109061568f565b915050611a03565b5083604051611b2791906150f5565b60405180910390207f364b226b5f086e2e247d242241146270270074b8e63461b564298285dfdb087884604051611b5e91906151ce565b60405180910390a25b50505050565b600560019054906101000a900473ffffffffffffffffffffffffffffffffffffffff1673ffffffffffffffffffffffffffffffffffffffff163373ffffffffffffffffffffffffffffffffffffffff1614611bfd576040517f08c379a0000000000000000000000000000000000000000000000000000000008152600401611bf4906153b1565b60405180910390fd5b60008082604051611c0e91906150f5565b90815260200160405180910390206000018054611c2a9061565d565b905011611c6c576040517f08c379a0000000000000000000000000000000000000000000000000000000008152600401611c6390615431565b60405180910390fd5b6004604051602001611c7e919061510c565b6040516020818303038152906040528051906020012081604051602001611ca591906150f5565b604051602081830303815290604052805190602001201415611cfc576040517f08c379a0000000000000000000000000000000000000000000000000000000008152600401611cf390615391565b60405180910390fd5b6001600560006101000a81548160ff021916908315150217905550611d566040518060400160405280600581526020017f55736572730000000000000000000000000000000000000000000000000000008152508261270a565b6000600560006101000a81548160ff0219169083151502179055506000805b600280549050811015611f3c5782604051602001611d9391906150f5565b6040516020818303038152906040528051906020012060028281548110611de3577f4e487b7100000000000000000000000000000000000000000000000000000000600052603260045260246000fd5b90600052602060002001604051602001611dfd919061510c565b604051602081830303815290604052805190602001201415611f29576001915060026001600280549050611e3191906155d1565b81548110611e68577f4e487b7100000000000000000000000000000000000000000000000000000000600052603260045260246000fd5b9060005260206000200160028281548110611eac577f4e487b7100000000000000000000000000000000000000000000000000000000600052603260045260246000fd5b90600052602060002001908054611ec29061565d565b611ecd9291906145f9565b506002805480611f06577f4e487b7100000000000000000000000000000000000000000000000000000000600052603160045260246000fd5b600190038181906000526020600020016000611f229190614598565b9055611f3c565b8080611f349061568f565b915050611d75565b50600082604051611f4d91906150f5565b908152602001604051809103902060008082016000611f6c9190614598565b600182016000611f7c9190614598565b600282016000611f8c91906145d8565b600382016000611f9c9190614598565b600482016000611fac9190614598565b6005820160006101000a81549060ff02191690556005820160016101000a81549060ff02191690556005820160026101000a81549060ff0219169055600682016000611ff89190614598565b6007820160006120089190614598565b50507f5b8514bf599ab0e7b72a3b2d47ae13677daa88ebbf833cea7bad37b6df49ede38260405161203991906151ce565b60405180910390a15050565b600560019054906101000a900473ffffffffffffffffffffffffffffffffffffffff1673ffffffffffffffffffffffffffffffffffffffff163373ffffffffffffffffffffffffffffffffffffffff16146120d5576040517f08c379a00000000000000000000000000000000000000000000000000000000081526004016120cc906153b1565b60405180910390fd5b60006001826040516120e791906150f5565b908152602001604051809103902060000180546121039061565d565b905011612145576040517f08c379a000000000000000000000000000000000000000000000000000000000815260040161213c906153f1565b60405180910390fd5b600060405180608001604052806040518060400160405280600e81526020017f41646d696e6973747261746f727300000000000000000000000000000000000081525081526020016040518060400160405280600581526020017f557365727300000000000000000000000000000000000000000000000000000081525081526020016040518060400160405280600e81526020017f47726f7570204d616e616765727300000000000000000000000000000000000081525081526020016040518060400160405280600d81526020017f55736572204d616e616765727300000000000000000000000000000000000000815250815250905060005b600481101561232957818160048110612283577f4e487b7100000000000000000000000000000000000000000000000000000000600052603260045260246000fd5b602002015160405160200161229891906150f5565b60405160208183030381529060405280519060200120836040516020016122bf91906150f5565b604051602081830303815290604052805190602001201415612316576040517f08c379a000000000000000000000000000000000000000000000000000000000815260040161230d90615411565b60405180910390fd5b80806123219061568f565b915050612241565b506000805b600380549050811015612631578360405160200161234c91906150f5565b604051602081830303815290604052805190602001206003828154811061239c577f4e487b7100000000000000000000000000000000000000000000000000000000600052603260045260246000fd5b906000526020600020016040516020016123b6919061510c565b60405160208183030381529060405280519060200120141561261e5760019150600060038281548110612412577f4e487b7100000000000000000000000000000000000000000000000000000000600052603260045260246000fd5b9060005260206000200180546124279061565d565b80601f01602080910402602001604051908101604052809291908181526020018280546124539061565d565b80156124a05780601f10612475576101008083540402835291602001916124a0565b820191906000526020600020905b81548152906001019060200180831161248357829003601f168201915b50505050509050600360016003805490506124bb91906155d1565b815481106124f2577f4e487b7100000000000000000000000000000000000000000000000000000000600052603260045260246000fd5b9060005260206000200160038381548110612536577f4e487b7100000000000000000000000000000000000000000000000000000000600052603260045260246000fd5b9060005260206000200190805461254c9061565d565b6125579291906145f9565b50806003600160038054905061256d91906155d1565b815481106125a4577f4e487b7100000000000000000000000000000000000000000000000000000000600052603260045260246000fd5b9060005260206000200190805190602001906125c192919061441d565b5060038054806125fa577f4e487b7100000000000000000000000000000000000000000000000000000000600052603160045260246000fd5b6001900381819060005260206000200160006126169190614598565b905550612631565b80806126299061568f565b91505061232e565b5080612672576040517f08c379a000000000000000000000000000000000000000000000000000000000815260040161266990615331565b60405180910390fd5b60018360405161268291906150f5565b9081526020016040518091039020600080820160006126a19190614598565b6001820160006126b191906145d8565b6002820160006126c191906145d8565b5050826040516126d191906150f5565b60405180910390207f3d23503bda008e50d93c77e132b7d2cde3189a8de034b6d382a71004b5a1b04860405160405180910390a2505050565b600560019054906101000a900473ffffffffffffffffffffffffffffffffffffffff1673ffffffffffffffffffffffffffffffffffffffff163373ffffffffffffffffffffffffffffffffffffffff161461279a576040517f08c379a0000000000000000000000000000000000000000000000000000000008152600401612791906153b1565b60405180910390fd5b60006001836040516127ac91906150f5565b908152602001604051809103902060000180546127c89061565d565b90501161280a576040517f08c379a0000000000000000000000000000000000000000000000000000000008152600401612801906153f1565b60405180910390fd5b6000808260405161281b91906150f5565b908152602001604051809103902060000180546128379061565d565b905011612879576040517f08c379a000000000000000000000000000000000000000000000000000000000815260040161287090615451565b60405180910390fd5b60001515600560009054906101000a900460ff1615151415612923576040516020016128a490615123565b60405160208183030381529060405280519060200120826040516020016128cb91906150f5565b604051602081830303815290604052805190602001201415612922576040517f08c379a000000000000000000000000000000000000000000000000000000000815260040161291990615351565b60405180910390fd5b5b600060018360405161293591906150f5565b908152602001604051809103902060010190506000805b8280549050811015612b0d578360405160200161296991906150f5565b604051602081830303815290604052805190602001208382815481106129b8577f4e487b7100000000000000000000000000000000000000000000000000000000600052603260045260246000fd5b906000526020600020016040516020016129d2919061510c565b604051602081830303815290604052805190602001201415612afa57600191508260018480549050612a0491906155d1565b81548110612a3b577f4e487b7100000000000000000000000000000000000000000000000000000000600052603260045260246000fd5b90600052602060002001838281548110612a7e577f4e487b7100000000000000000000000000000000000000000000000000000000600052603260045260246000fd5b90600052602060002001908054612a949061565d565b612a9f9291906145f9565b5082805480612ad7577f4e487b7100000000000000000000000000000000000000000000000000000000600052603160045260246000fd5b600190038181906000526020600020016000612af39190614598565b9055612b0d565b8080612b059061568f565b91505061294c565b5060001515600560009054906101000a900460ff1615151415612b6b5780612b6a576040517f08c379a0000000000000000000000000000000000000000000000000000000008152600401612b6190615471565b60405180910390fd5b5b82604051612b7991906150f5565b60405180910390207f2987fe5a9775c7dc64ce1b0c8b76d750f2ef0f9e96561a0da6ad7f31a854515a85604051612bb091906151ce565b60405180910390a250505050565b600560019054906101000a900473ffffffffffffffffffffffffffffffffffffffff1673ffffffffffffffffffffffffffffffffffffffff163373ffffffffffffffffffffffffffffffffffffffff1614612c4e576040517f08c379a0000000000000000000000000000000000000000000000000000000008152600401612c45906153b1565b60405180910390fd5b80604051612c5c91906150f5565b60405180910390207f66ece5ba82771921bdbfdb2bf2e469359fdecc21f7a2dc5b5e978e84fe9ad20960405160405180910390a250565b600080600083604051612ca691906150f5565b90815260200160405180910390206000018054612cc29061565d565b9050119050919050565b600560019054906101000a900473ffffffffffffffffffffffffffffffffffffffff1673ffffffffffffffffffffffffffffffffffffffff163373ffffffffffffffffffffffffffffffffffffffff1614612d5c576040517f08c379a0000000000000000000000000000000000000000000000000000000008152600401612d53906153b1565b60405180910390fd5b6040518060600160405280838152602001600067ffffffffffffffff811115612dae577f4e487b7100000000000000000000000000000000000000000000000000000000600052604160045260246000fd5b604051908082528060200260200182016040528015612de157816020015b6060815260200190600190039081612dcc5790505b50815260200182815250600183604051612dfb91906150f5565b90815260200160405180910390206000820151816000019080519060200190612e2592919061441d565b506020820151816001019080519060200190612e429291906143bd565b506040820151816002019080519060200190612e5f9291906143bd565b50905050600382908060018154018082558091505060019003906000526020600020016000909190919091509080519060200190612e9e92919061441d565b5081604051612ead91906150f5565b60405180910390207f64e45d769b067e3e2de0a2fbfa982b75ad4472af64e84e1c421ec5bbe695de0f82604051612ee49190615138565b60405180910390a25050565b600560019054906101000a900473ffffffffffffffffffffffffffffffffffffffff1673ffffffffffffffffffffffffffffffffffffffff163373ffffffffffffffffffffffffffffffffffffffff1614612f80576040517f08c379a0000000000000000000000000000000000000000000000000000000008152600401612f77906153b1565b60405180910390fd5b60008083604051612f9191906150f5565b90815260200160405180910390206007018054612fad9061565d565b80601f0160208091040260200160405190810160405280929190818152602001828054612fd99061565d565b80156130265780601f10612ffb57610100808354040283529160200191613026565b820191906000526020600020905b81548152906001019060200180831161300957829003601f168201915b505050505090508160008460405161303e91906150f5565b9081526020016040518091039020600701908051906020019061306292919061441d565b508260405161307191906150f5565b60405180910390207f761bd9ed45e855f17b06454b8c624a18672818f8993e77686bcce7a8f70b265582846040516130aa92919061523c565b60405180910390a2505050565b6060806060600560019054906101000a900473ffffffffffffffffffffffffffffffffffffffff1673ffffffffffffffffffffffffffffffffffffffff163373ffffffffffffffffffffffffffffffffffffffff161461314c576040517f08c379a0000000000000000000000000000000000000000000000000000000008152600401613143906153b1565b60405180910390fd5b600060018560405161315e91906150f5565b9081526020016040518091039020600001805461317a9061565d565b9050116131bc576040517f08c379a00000000000000000000000000000000000000000000000000000000081526004016131b3906153f1565b60405180910390fd5b60006001856040516131ce91906150f5565b90815260200160405180910390206040518060600160405290816000820180546131f79061565d565b80601f01602080910402602001604051908101604052809291908181526020018280546132239061565d565b80156132705780601f1061324557610100808354040283529160200191613270565b820191906000526020600020905b81548152906001019060200180831161325357829003601f168201915b5050505050815260200160018201805480602002602001604051908101604052809291908181526020016000905b8282101561334a5783829060005260206000200180546132bd9061565d565b80601f01602080910402602001604051908101604052809291908181526020018280546132e99061565d565b80156133365780601f1061330b57610100808354040283529160200191613336565b820191906000526020600020905b81548152906001019060200180831161331957829003601f168201915b50505050508152602001906001019061329e565b50505050815260200160028201805480602002602001604051908101604052809291908181526020016000905b828210156134235783829060005260206000200180546133969061565d565b80601f01602080910402602001604051908101604052809291908181526020018280546133c29061565d565b801561340f5780601f106133e45761010080835404028352916020019161340f565b820191906000526020600020905b8154815290600101906020018083116133f257829003601f168201915b505050505081526020019060010190613377565b50505050815250509050806000015181604001518260200151935093509350509193909250565b600560019054906101000a900473ffffffffffffffffffffffffffffffffffffffff1673ffffffffffffffffffffffffffffffffffffffff163373ffffffffffffffffffffffffffffffffffffffff16146134da576040517f08c379a00000000000000000000000000000000000000000000000000000000081526004016134d1906153b1565b60405180910390fd5b6040518061014001604052808581526020018481526020018381526020018281526020018281526020016000151581526020016000151581526020016001151581526020016040518060200160405280600081525081526020016040518060200160405280600081525081525060008560405161355791906150f5565b9081526020016040518091039020600082015181600001908051906020019061358192919061441d565b50602082015181600101908051906020019061359e92919061441d565b5060408201518160020190805190602001906135bb9291906143bd565b5060608201518160030190805190602001906135d892919061441d565b5060808201518160040190805190602001906135f592919061441d565b5060a08201518160050160006101000a81548160ff02191690831515021790555060c08201518160050160016101000a81548160ff02191690831515021790555060e08201518160050160026101000a81548160ff02191690831515021790555061010082015181600601908051906020019061367392919061441d565b5061012082015181600701908051906020019061369192919061441d565b509050506002849080600181540180825580915050600190039060005260206000200160009091909190915090805190602001906136d092919061441d565b506137106040518060400160405280600581526020017f557365727300000000000000000000000000000000000000000000000000000081525085613a11565b8360405161371e91906150f5565b60405180910390207f270ff4b111e5baa49283562af127cc5ea74e9d6c9efd5465578bd9223d5843f060405160405180910390a2600160028054905014156137b75761379f6040518060400160405280600e81526020017f41646d696e6973747261746f727300000000000000000000000000000000000081525085613a11565b83600490805190602001906137b592919061441d565b505b50505050565b600560019054906101000a900473ffffffffffffffffffffffffffffffffffffffff1673ffffffffffffffffffffffffffffffffffffffff163373ffffffffffffffffffffffffffffffffffffffff161461384d576040517f08c379a0000000000000000000000000000000000000000000000000000000008152600401613844906153b1565b60405180910390fd5b8060008360405161385e91906150f5565b9081526020016040518091039020600101908051906020019061388292919061441d565b506000808360405161389491906150f5565b908152602001604051809103902060050160016101000a81548160ff021916908315150217905550816040516138ca91906150f5565b60405180910390207fd0b43b0b96083c98cc0f0370575812de87ee48ff1bde30bcd74f3518443bc4f560405160405180910390a25050565b600560019054906101000a900473ffffffffffffffffffffffffffffffffffffffff1673ffffffffffffffffffffffffffffffffffffffff163373ffffffffffffffffffffffffffffffffffffffff1614613992576040517f08c379a0000000000000000000000000000000000000000000000000000000008152600401613989906153b1565b60405180910390fd5b60016000826040516139a491906150f5565b908152602001604051809103902060050160016101000a81548160ff021916908315150217905550806040516139da91906150f5565b60405180910390207f926f593dd22175375135b3fd9428c5d0298a5665da18756555b6af9f305ab9a660405160405180910390a250565b600560019054906101000a900473ffffffffffffffffffffffffffffffffffffffff1673ffffffffffffffffffffffffffffffffffffffff163373ffffffffffffffffffffffffffffffffffffffff1614613aa1576040517f08c379a0000000000000000000000000000000000000000000000000000000008152600401613a98906153b1565b60405180910390fd5b6000600183604051613ab391906150f5565b90815260200160405180910390206000018054613acf9061565d565b905011613b11576040517f08c379a0000000000000000000000000000000000000000000000000000000008152600401613b08906153f1565b60405180910390fd5b60008082604051613b2291906150f5565b90815260200160405180910390206000018054613b3e9061565d565b905011613b80576040517f08c379a0000000000000000000000000000000000000000000000000000000008152600401613b7790615451565b60405180910390fd5b600182604051613b9091906150f5565b908152602001604051809103902060010181908060018154018082558091505060019003906000526020600020016000909190919091509080519060200190613bda92919061441d565b5080604051613be991906150f5565b60405180910390207f32475c6c091737c212dc5c54e3565db8aae94283f8b388d2c1dfe772b3f356e183604051613c2091906151ce565b60405180910390a25050565b606060008083604051613c3f91906150f5565b90815260200160405180910390206000018054613c5b9061565d565b905011613c9d576040517f08c379a0000000000000000000000000000000000000000000000000000000008152600401613c9490615451565b60405180910390fd5b600060038054905067ffffffffffffffff811115613ce4577f4e487b7100000000000000000000000000000000000000000000000000000000600052604160045260246000fd5b604051908082528060200260200182016040528015613d1757816020015b6060815260200190600190039081613d025790505b5090506000805b600380549050811015613f47576000600160038381548110613d69577f4e487b7100000000000000000000000000000000000000000000000000000000600052603260045260246000fd5b90600052602060002001604051613d80919061510c565b9081526020016040518091039020905060005b8160010180549050811015613f325786604051602001613db391906150f5565b60405160208183030381529060405280519060200120826001018281548110613e05577f4e487b7100000000000000000000000000000000000000000000000000000000600052603260045260246000fd5b90600052602060002001604051602001613e1f919061510c565b604051602081830303815290604052805190602001201415613f1f57816000018054613e4a9061565d565b80601f0160208091040260200160405190810160405280929190818152602001828054613e769061565d565b8015613ec35780601f10613e9857610100808354040283529160200191613ec3565b820191906000526020600020905b815481529060010190602001808311613ea657829003601f168201915b5050505050858581518110613f01577f4e487b7100000000000000000000000000000000000000000000000000000000600052603260045260246000fd5b60200260200101819052508380613f179061568f565b945050613f32565b8080613f2a9061568f565b915050613d93565b50508080613f3f9061568f565b915050613d1e565b506000603267ffffffffffffffff811115613f8b577f4e487b7100000000000000000000000000000000000000000000000000000000600052604160045260246000fd5b604051908082528060200260200182016040528015613fbe57816020015b6060815260200190600190039081613fa95790505b5090506000805b83811015614293576000858281518110614008577f4e487b7100000000000000000000000000000000000000000000000000000000600052603260045260246000fd5b60200260200101519050600060018260405161402491906150f5565b9081526020016040518091039020600201905060005b818054905081101561427d576000805b868110156141445783838154811061408b577f4e487b7100000000000000000000000000000000000000000000000000000000600052603260045260246000fd5b906000526020600020016040516020016140a5919061510c565b604051602081830303815290604052805190602001208882815181106140f4577f4e487b7100000000000000000000000000000000000000000000000000000000600052603260045260246000fd5b602002602001015160405160200161410c91906150f5565b6040516020818303038152906040528051906020012014156141315760019150614144565b808061413c9061568f565b91505061404a565b508061426957828281548110614183577f4e487b7100000000000000000000000000000000000000000000000000000000600052603260045260246000fd5b9060005260206000200180546141989061565d565b80601f01602080910402602001604051908101604052809291908181526020018280546141c49061565d565b80156142115780601f106141e657610100808354040283529160200191614211565b820191906000526020600020905b8154815290600101906020018083116141f457829003601f168201915b505050505087878151811061424f577f4e487b7100000000000000000000000000000000000000000000000000000000600052603260045260246000fd5b602002602001018190525085806142659061568f565b9650505b5080806142759061568f565b91505061403a565b505050808061428b9061568f565b915050613fc5565b5060008167ffffffffffffffff8111156142d6577f4e487b7100000000000000000000000000000000000000000000000000000000600052604160045260246000fd5b60405190808252806020026020018201604052801561430957816020015b60608152602001906001900390816142f45790505b50905060005b828110156143af57838181518110614350577f4e487b7100000000000000000000000000000000000000000000000000000000600052603260045260246000fd5b6020026020010151828281518110614391577f4e487b7100000000000000000000000000000000000000000000000000000000600052603260045260246000fd5b602002602001018190525080806143a79061568f565b91505061430f565b508095505050505050919050565b82805482825590600052602060002090810192821561440c579160200282015b8281111561440b5782518290805190602001906143fb92919061441d565b50916020019190600101906143dd565b5b5090506144199190614686565b5090565b8280546144299061565d565b90600052602060002090601f01602090048101928261444b5760008555614492565b82601f1061446457805160ff1916838001178555614492565b82800160010185558215614492579182015b82811115614491578251825591602001919060010190614476565b5b50905061449f91906146aa565b5090565b8280546144af9061565d565b90600052602060002090601f0160209004810192826144d1576000855561451f565b82601f106144e2578054855561451f565b8280016001018555821561451f57600052602060002091601f016020900482015b8281111561451e578254825591600101919060010190614503565b5b50905061452c91906146aa565b5090565b8280548282559060005260206000209081019282156145875760005260206000209182015b8281111561458657828290805461456b9061565d565b6145769291906144a3565b5091600101919060010190614555565b5b5090506145949190614686565b5090565b5080546145a49061565d565b6000825580601f106145b657506145d5565b601f0160209004906000526020600020908101906145d491906146aa565b5b50565b50805460008255906000526020600020908101906145f69190614686565b50565b8280546146059061565d565b90600052602060002090601f0160209004810192826146275760008555614675565b82601f106146385780548555614675565b8280016001018555821561467557600052602060002091601f016020900482015b82811115614674578254825591600101919060010190614659565b5b50905061468291906146aa565b5090565b5b808211156146a6576000818161469d9190614598565b50600101614687565b5090565b5b808211156146c35760008160009055506001016146ab565b5090565b60006146da6146d5846154c2565b615491565b9050808382526020820190508260005b8581101561471a5781358501614700888261478c565b8452602084019350602083019250506001810190506146ea565b5050509392505050565b6000614737614732846154ee565b615491565b90508281526020810184848401111561474f57600080fd5b61475a84828561561b565b509392505050565b600082601f83011261477357600080fd5b81356147838482602086016146c7565b91505092915050565b600082601f83011261479d57600080fd5b81356147ad848260208601614724565b91505092915050565b6000602082840312156147c857600080fd5b600082013567ffffffffffffffff8111156147e257600080fd5b6147ee8482850161478c565b91505092915050565b6000806040838503121561480a57600080fd5b600083013567ffffffffffffffff81111561482457600080fd5b6148308582860161478c565b925050602083013567ffffffffffffffff81111561484d57600080fd5b61485985828601614762565b9150509250929050565b6000806040838503121561487657600080fd5b600083013567ffffffffffffffff81111561489057600080fd5b61489c8582860161478c565b925050602083013567ffffffffffffffff8111156148b957600080fd5b6148c58582860161478c565b9150509250929050565b6000806000606084860312156148e457600080fd5b600084013567ffffffffffffffff8111156148fe57600080fd5b61490a8682870161478c565b935050602084013567ffffffffffffffff81111561492757600080fd5b6149338682870161478c565b925050604084013567ffffffffffffffff81111561495057600080fd5b61495c86828701614762565b9150509250925092565b6000806000806080858703121561497c57600080fd5b600085013567ffffffffffffffff81111561499657600080fd5b6149a28782880161478c565b945050602085013567ffffffffffffffff8111156149bf57600080fd5b6149cb8782880161478c565b935050604085013567ffffffffffffffff8111156149e857600080fd5b6149f487828801614762565b925050606085013567ffffffffffffffff811115614a1157600080fd5b614a1d8782880161478c565b91505092959194509250565b6000614a358383614b49565b905092915050565b6000614a498383614bec565b905092915050565b6000614a5c82615558565b614a668185615593565b935083602082028501614a788561551e565b8060005b85811015614ab45784840389528151614a958582614a29565b9450614aa083615579565b925060208a01995050600181019050614a7c565b50829750879550505050505092915050565b6000614ad182615563565b614adb8185615593565b935083602082028501614aed8561552e565b8060005b85811015614b2857848403895281614b098582614a3d565b9450614b1483615586565b925060208a01995050600181019050614af1565b50829750879550505050505092915050565b614b4381615605565b82525050565b6000614b548261556e565b614b5e81856155a4565b9350614b6e81856020860161562a565b614b7781615765565b840191505092915050565b6000614b8d8261556e565b614b9781856155b5565b9350614ba781856020860161562a565b614bb081615765565b840191505092915050565b6000614bc68261556e565b614bd081856155c6565b9350614be081856020860161562a565b80840191505092915050565b60008154614bf98161565d565b614c0381866155a4565b94506001821660008114614c1e5760018114614c3057614c63565b60ff1983168652602086019350614c63565b614c3985615543565b60005b83811015614c5b57815481890152600182019150602081019050614c3c565b808801955050505b50505092915050565b60008154614c798161565d565b614c8381866155c6565b94506001821660008114614c9e5760018114614caf57614ce2565b60ff19831686528186019350614ce2565b614cb885615543565b60005b83811015614cda57815481890152600182019150602081019050614cbb565b838801955050505b50505092915050565b6000614cf86020836155b5565b91507f47726f7570206e6f7420666f756e6420696e20616c6c47726f75704e616d65736000830152602082019050919050565b6000614d386033836155b5565b91507f52656d6f76696e672075736572732066726f6d2074686520557365727320677260008301527f6f7570206973206e6f7420616c6c6f77656421000000000000000000000000006020830152604082019050919050565b6000614d9e6005836155c6565b91507f55736572730000000000000000000000000000000000000000000000000000006000830152600582019050919050565b6000614dde602f836155b5565b91507f4d6f64696679696e6720636f72652067726f7570207065726d697373696f6e7360008301527f206973206e6f7420616c6c6f77656400000000000000000000000000000000006020830152604082019050919050565b6000614e446042836155b5565b91507f44656c6574696e6720746865206f726967696e616c20736d61727420636f6e7460008301527f726163742061646d696e6973747261746f72206973206e6f7420616c6c6f776560208301527f64210000000000000000000000000000000000000000000000000000000000006040830152606082019050919050565b6000614ed0602f836155b5565b91507f4f6e6c792074686520636f6e7472616374206f776e65722063616e207065726660008301527f6f726d207468697320616374696f6e00000000000000000000000000000000006020830152604082019050919050565b6000614f36603c836155b5565b91507f4d6f64696679696e6720636f72652067726f7570206e616d657320616e642f6f60008301527f72207065726d697373696f6e73206973206e6f7420616c6c6f776564000000006020830152604082019050919050565b6000614f9c6014836155b5565b91507f47726f757020646f6573206e6f742065786973740000000000000000000000006000830152602082019050919050565b6000614fdc6024836155b5565b91507f44656c6574696e67206120636f72652067726f7570206973206e6f7420616c6c60008301527f6f776564000000000000000000000000000000000000000000000000000000006020830152604082019050919050565b60006150426014836155b5565b91507f5573657220646f6573206e6f74206578697374210000000000000000000000006000830152602082019050919050565b60006150826013836155b5565b91507f5573657220646f6573206e6f74206578697374000000000000000000000000006000830152602082019050919050565b60006150c26019836155b5565b91507f55736572206973206e6f7420696e20746869732067726f7570000000000000006000830152602082019050919050565b60006151018284614bbb565b915081905092915050565b60006151188284614c6c565b915081905092915050565b600061512e82614d91565b9150819050919050565b600060208201905081810360008301526151528184614a51565b905092915050565b600060408201905081810360008301526151748185614a51565b905081810360208301526151888184614a51565b90509392505050565b600060208201905081810360008301526151ab8184614ac6565b905092915050565b60006020820190506151c86000830184614b3a565b92915050565b600060208201905081810360008301526151e88184614b82565b905092915050565b6000606082019050818103600083015261520a8186614b82565b9050818103602083015261521e8185614a51565b905081810360408301526152328184614a51565b9050949350505050565b600060408201905081810360008301526152568185614b82565b9050818103602083015261526a8184614b82565b90509392505050565b600061012082019050818103600083015261528e818c614b82565b905081810360208301526152a2818b614b82565b905081810360408301526152b6818a614a51565b905081810360608301526152ca8189614b82565b905081810360808301526152de8188614b82565b90506152ed60a0830187614b3a565b6152fa60c0830186614b3a565b81810360e083015261530c8185614b82565b90508181036101008301526153218184614b82565b90509a9950505050505050505050565b6000602082019050818103600083015261534a81614ceb565b9050919050565b6000602082019050818103600083015261536a81614d2b565b9050919050565b6000602082019050818103600083015261538a81614dd1565b9050919050565b600060208201905081810360008301526153aa81614e37565b9050919050565b600060208201905081810360008301526153ca81614ec3565b9050919050565b600060208201905081810360008301526153ea81614f29565b9050919050565b6000602082019050818103600083015261540a81614f8f565b9050919050565b6000602082019050818103600083015261542a81614fcf565b9050919050565b6000602082019050818103600083015261544a81615035565b9050919050565b6000602082019050818103600083015261546a81615075565b9050919050565b6000602082019050818103600083015261548a816150b5565b9050919050565b6000604051905081810181811067ffffffffffffffff821117156154b8576154b7615736565b5b8060405250919050565b600067ffffffffffffffff8211156154dd576154dc615736565b5b602082029050602081019050919050565b600067ffffffffffffffff82111561550957615508615736565b5b601f19601f8301169050602081019050919050565b6000819050602082019050919050565b60008190508160005260206000209050919050565b60008190508160005260206000209050919050565b600081519050919050565b600081549050919050565b600081519050919050565b6000602082019050919050565b6000600182019050919050565b600082825260208201905092915050565b600082825260208201905092915050565b600082825260208201905092915050565b600081905092915050565b60006155dc82615611565b91506155e783615611565b9250828210156155fa576155f96156d8565b5b828203905092915050565b60008115159050919050565b6000819050919050565b82818337600083830152505050565b60005b8381101561564857808201518184015260208101905061562d565b83811115615657576000848401525b50505050565b6000600282049050600182168061567557607f821691505b6020821081141561568957615688615707565b5b50919050565b600061569a82615611565b91507fffffffffffffffffffffffffffffffffffffffffffffffffffffffffffffffff8214156156cd576156cc6156d8565b5b600182019050919050565b7f4e487b7100000000000000000000000000000000000000000000000000000000600052601160045260246000fd5b7f4e487b7100000000000000000000000000000000000000000000000000000000600052602260045260246000fd5b7f4e487b7100000000000000000000000000000000000000000000000000000000600052604160045260246000fd5b6000601f19601f830116905091905056fea264697066735822122024ed7808e911df6644205da6b50bfeac0a8bca0783f691b773121e8a2a1de8b964736f6c63430008000033",
  "linkReferences": {},
  "deployedLinkReferences": {}
}