{
  "_format": "hh-sol-artifact-1",
  "contractName": "FaceGuard",
  "sourceName": "contracts/FaceGuard.sol",
  "abi": [
    {
      "inputs": [],
      "stateMutability": "nonpayable",
      "type": "constructor"
    },
    {
      "anonymous": false,
      "inputs": [
        {
          "indexed": true,
          "internalType": "string",
          "name": "username",
          "type": "string"
        }
      ],
      "name": "FaceHashUpdated",
      "type": "event"
    },
    {
      "anonymous": false,
      "inputs": [
        {
          "indexed": true,
          "internalType": "string",
          "name": "groupName",
          "type": "string"
        },
        {
          "indexed": false,
          "internalType": "string[]",
          "name": "permissions",
          "type": "string[]"
        }
      ],
      "name": "GroupCreated",
      "type": "event"
    },
    {
      "anonymous": false,
      "inputs": [
        {
          "indexed": true,
          "internalType": "string",
          "name": "originalGroupName",
          "type": "string"
        },
        {
          "indexed": false,
          "internalType": "string",
          "name": "newGroupName",
          "type": "string"
        }
      ],
      "name": "GroupNameUpdated",
      "type": "event"
    },
    {
      "anonymous": false,
      "inputs": [
        {
          "indexed": true,
          "internalType": "string",
          "name": "groupName",
          "type": "string"
        },
        {
          "indexed": false,
          "internalType": "string[]",
          "name": "permissions",
          "type": "string[]"
        }
      ],
      "name": "GroupPermissionsUpdated",
      "type": "event"
    },
    {
      "anonymous": false,
      "inputs": [
        {
          "indexed": true,
          "internalType": "string",
          "name": "groupName",
          "type": "string"
        }
      ],
      "name": "GroupRemoved",
      "type": "event"
    },
    {
      "anonymous": false,
      "inputs": [
        {
          "indexed": true,
          "internalType": "string",
          "name": "username",
          "type": "string"
        }
      ],
      "name": "PasswordChangeRequired",
      "type": "event"
    },
    {
      "anonymous": false,
      "inputs": [
        {
          "indexed": true,
          "internalType": "string",
          "name": "username",
          "type": "string"
        }
      ],
      "name": "PasswordUpdated",
      "type": "event"
    },
    {
      "anonymous": false,
      "inputs": [
        {
          "indexed": true,
          "internalType": "string",
          "name": "username",
          "type": "string"
        },
        {
          "indexed": false,
          "internalType": "string",
          "name": "groupName",
          "type": "string"
        }
      ],
      "name": "UserAddedToGroup",
      "type": "event"
    },
    {
      "anonymous": false,
      "inputs": [
        {
          "indexed": true,
          "internalType": "string",
          "name": "username",
          "type": "string"
        },
        {
          "indexed": false,
          "internalType": "string",
          "name": "oldEmail",
          "type": "string"
        },
        {
          "indexed": false,
          "internalType": "string",
          "name": "newEmail",
          "type": "string"
        }
      ],
      "name": "UserEmailUpdated",
      "type": "event"
    },
    {
      "anonymous": false,
      "inputs": [
        {
          "indexed": true,
          "internalType": "string",
          "name": "username",
          "type": "string"
        },
        {
          "indexed": false,
          "internalType": "string",
          "name": "oldFullName",
          "type": "string"
        },
        {
          "indexed": false,
          "internalType": "string",
          "name": "newFullName",
          "type": "string"
        }
      ],
      "name": "UserFullNameUpdated",
      "type": "event"
    },
    {
      "anonymous": false,
      "inputs": [
        {
          "indexed": true,
          "internalType": "string",
          "name": "username",
          "type": "string"
        }
      ],
      "name": "UserLoggedIn",
      "type": "event"
    },
    {
      "anonymous": false,
      "inputs": [
        {
          "indexed": true,
          "internalType": "string",
          "name": "username",
          "type": "string"
        }
      ],
      "name": "UserRegistered",
      "type": "event"
    },
    {
      "anonymous": false,
      "inputs": [
        {
          "indexed": false,
          "internalType": "string",
          "name": "username",
          "type": "string"
        }
      ],
      "name": "UserRemoved",
      "type": "event"
    },
    {
      "anonymous": false,
      "inputs": [
        {
          "indexed": true,
          "internalType": "string",
          "name": "username",
          "type": "string"
        },
        {
          "indexed": false,
          "internalType": "string",
          "name": "groupName",
          "type": "string"
        }
      ],
      "name": "UserRemovedFromGroup",
      "type": "event"
    },
    {
      "anonymous": false,
      "inputs": [
        {
          "indexed": true,
          "internalType": "string",
          "name": "username",
          "type": "string"
        },
        {
          "indexed": false,
          "internalType": "bool",
          "name": "enabled",
          "type": "bool"
        }
      ],
      "name": "UserToggled",
      "type": "event"
    },
    {
      "inputs": [
        {
          "internalType": "string",
          "name": "groupName",
          "type": "string"
        },
        {
          "internalType": "string",
          "name": "username",
          "type": "string"
        }
      ],
      "name": "addUserToGroup",
      "outputs": [],
      "stateMutability": "nonpayable",
      "type": "function"
    },
    {
      "inputs": [
        {
          "internalType": "string",
          "name": "username",
          "type": "string"
        }
      ],
      "name": "checkIfUserExists",
      "outputs": [
        {
          "internalType": "bool",
          "name": "",
          "type": "bool"
        }
      ],
      "stateMutability": "view",
      "type": "function"
    },
    {
      "inputs": [
        {
          "internalType": "string",
          "name": "groupName",
          "type": "string"
        },
        {
          "internalType": "string[]",
          "name": "permissions",
          "type": "string[]"
        }
      ],
      "name": "createGroup",
      "outputs": [],
      "stateMutability": "nonpayable",
      "type": "function"
    },
    {
      "inputs": [
        {
          "internalType": "string",
          "name": "username",
          "type": "string"
        }
      ],
      "name": "emitLoginSuccessLog",
      "outputs": [],
      "stateMutability": "nonpayable",
      "type": "function"
    },
    {
      "inputs": [],
      "name": "getAllGroups",
      "outputs": [
        {
          "internalType": "string[]",
          "name": "",
          "type": "string[]"
        }
      ],
      "stateMutability": "view",
      "type": "function"
    },
    {
      "inputs": [],
      "name": "getAllUsernames",
      "outputs": [
        {
          "internalType": "string[]",
          "name": "",
          "type": "string[]"
        }
      ],
      "stateMutability": "view",
      "type": "function"
    },
    {
      "inputs": [
        {
          "internalType": "string",
          "name": "groupName",
          "type": "string"
        }
      ],
      "name": "getGroup",
      "outputs": [
        {
          "internalType": "string",
          "name": "",
          "type": "string"
        },
        {
          "internalType": "string[]",
          "name": "",
          "type": "string[]"
        },
        {
          "internalType": "string[]",
          "name": "",
          "type": "string[]"
        }
      ],
      "stateMutability": "view",
      "type": "function"
    },
    {
      "inputs": [
        {
          "internalType": "string",
          "name": "username",
          "type": "string"
        }
      ],
      "name": "getUser",
      "outputs": [
        {
          "internalType": "string",
          "name": "",
          "type": "string"
        },
        {
          "internalType": "string",
          "name": "",
          "type": "string"
        },
        {
          "internalType": "string[]",
          "name": "",
          "type": "string[]"
        },
        {
          "internalType": "string",
          "name": "",
          "type": "string"
        },
        {
          "internalType": "string",
          "name": "",
          "type": "string"
        },
        {
          "internalType": "bool",
          "name": "",
          "type": "bool"
        },
        {
          "internalType": "bool",
          "name": "",
          "type": "bool"
        },
        {
          "internalType": "string",
          "name": "",
          "type": "string"
        },
        {
          "internalType": "string",
          "name": "",
          "type": "string"
        }
      ],
      "stateMutability": "view",
      "type": "function"
    },
    {
      "inputs": [
        {
          "internalType": "string",
          "name": "username",
          "type": "string"
        }
      ],
      "name": "getUserFaceHashes",
      "outputs": [
        {
          "internalType": "string[]",
          "name": "",
          "type": "string[]"
        }
      ],
      "stateMutability": "view",
      "type": "function"
    },
    {
      "inputs": [
        {
          "internalType": "string",
          "name": "username",
          "type": "string"
        }
      ],
      "name": "getUserPermissions",
      "outputs": [
        {
          "internalType": "string[]",
          "name": "",
          "type": "string[]"
        }
      ],
      "stateMutability": "view",
      "type": "function"
    },
    {
      "inputs": [
        {
          "internalType": "string",
          "name": "username",
          "type": "string"
        },
        {
          "internalType": "string",
          "name": "passwordHash",
          "type": "string"
        },
        {
          "internalType": "string[]",
          "name": "initialFaceHashes",
          "type": "string[]"
        },
        {
          "internalType": "string",
          "name": "creationDate",
          "type": "string"
        }
      ],
      "name": "registerUser",
      "outputs": [],
      "stateMutability": "nonpayable",
      "type": "function"
    },
    {
      "inputs": [
        {
          "internalType": "string",
          "name": "groupName",
          "type": "string"
        }
      ],
      "name": "removeGroup",
      "outputs": [],
      "stateMutability": "nonpayable",
      "type": "function"
    },
    {
      "inputs": [
        {
          "internalType": "string",
          "name": "username",
          "type": "string"
        }
      ],
      "name": "removeUser",
      "outputs": [],
      "stateMutability": "nonpayable",
      "type": "function"
    },
    {
      "inputs": [
        {
          "internalType": "string",
          "name": "groupName",
          "type": "string"
        },
        {
          "internalType": "string",
          "name": "username",
          "type": "string"
        }
      ],
      "name": "removeUserFromGroup",
      "outputs": [],
      "stateMutability": "nonpayable",
      "type": "function"
    },
    {
      "inputs": [
        {
          "internalType": "string",
          "name": "username",
          "type": "string"
        }
      ],
      "name": "requireUserPasswordChange",
      "outputs": [],
      "stateMutability": "nonpayable",
      "type": "function"
    },
    {
      "inputs": [
        {
          "internalType": "string",
          "name": "groupName",
          "type": "string"
        },
        {
          "internalType": "string[]",
          "name": "groupPermissions",
          "type": "string[]"
        }
      ],
      "name": "setGroupPermissions",
      "outputs": [
        {
          "internalType": "string",
          "name": "",
          "type": "string"
        }
      ],
      "stateMutability": "nonpayable",
      "type": "function"
    },
    {
      "inputs": [
        {
          "internalType": "string",
          "name": "username",
          "type": "string"
        }
      ],
      "name": "toggleUser",
      "outputs": [],
      "stateMutability": "nonpayable",
      "type": "function"
    },
    {
      "inputs": [
        {
          "internalType": "string",
          "name": "originalGroupName",
          "type": "string"
        },
        {
          "internalType": "string",
          "name": "newGroupName",
          "type": "string"
        },
        {
          "internalType": "string[]",
          "name": "newPermissions",
          "type": "string[]"
        }
      ],
      "name": "updateGroup",
      "outputs": [],
      "stateMutability": "nonpayable",
      "type": "function"
    },
    {
      "inputs": [
        {
          "internalType": "string",
          "name": "username",
          "type": "string"
        },
        {
          "internalType": "string",
          "name": "newEmail",
          "type": "string"
        }
      ],
      "name": "updateUserEmail",
      "outputs": [],
      "stateMutability": "nonpayable",
      "type": "function"
    },
    {
      "inputs": [
        {
          "internalType": "string",
          "name": "username",
          "type": "string"
        },
        {
          "internalType": "string[]",
          "name": "newFaceHashes",
          "type": "string[]"
        }
      ],
      "name": "updateUserFaceHash",
      "outputs": [],
      "stateMutability": "nonpayable",
      "type": "function"
    },
    {
      "inputs": [
        {
          "internalType": "string",
          "name": "username",
          "type": "string"
        },
        {
          "internalType": "string",
          "name": "newFullName",
          "type": "string"
        }
      ],
      "name": "updateUserFullName",
      "outputs": [],
      "stateMutability": "nonpayable",
      "type": "function"
    },
    {
      "inputs": [
        {
          "internalType": "string",
          "name": "username",
          "type": "string"
        },
        {
          "internalType": "string",
          "name": "newPasswordHash",
          "type": "string"
        }
      ],
      "name": "updateUserPassword",
      "outputs": [],
      "stateMutability": "nonpayable",
      "type": "function"
    }
  ],
  "bytecode": "0x60806040526000600560006101000a81548160ff0219169083151502179055503480156200002c57600080fd5b5033600560016101000a81548173ffffffffffffffffffffffffffffffffffffffff021916908373ffffffffffffffffffffffffffffffffffffffff160217905550600060405180608001604052806040518060400160405280601581526020017f466163654775617264204372656174653a20416c6c000000000000000000000081525081526020016040518060400160405280601381526020017f46616365477561726420526561643a20416c6c0000000000000000000000000081525081526020016040518060400160405280601581526020017f466163654775617264205570646174653a20416c6c000000000000000000000081525081526020016040518060400160405280601581526020017f4661636547756172642044656c6574653a20416c6c00000000000000000000008152508152509050600060405180606001604052806040518060400160405280601481526020017f46616365477561726420526561643a2053656c6600000000000000000000000081525081526020016040518060400160405280601681526020017f466163654775617264205570646174653a2053656c660000000000000000000081525081526020016040518060400160405280601681526020017f4661636547756172642044656c6574653a2053656c66000000000000000000008152508152509050600060405180608001604052806040518060400160405280601881526020017f466163654775617264204372656174653a2047726f757073000000000000000081525081526020016040518060400160405280601681526020017f46616365477561726420526561643a2047726f7570730000000000000000000081525081526020016040518060400160405280601881526020017f466163654775617264205570646174653a2047726f757073000000000000000081525081526020016040518060400160405280601881526020017f4661636547756172642044656c6574653a2047726f75707300000000000000008152508152509050600060405180608001604052806040518060400160405280601781526020017f466163654775617264204372656174653a20557365727300000000000000000081525081526020016040518060400160405280601581526020017f46616365477561726420526561643a205573657273000000000000000000000081525081526020016040518060400160405280601781526020017f466163654775617264205570646174653a20557365727300000000000000000081525081526020016040518060400160405280601781526020017f4661636547756172642044656c6574653a20557365727300000000000000000081525081525090506200046e6040518060400160405280600e81526020017f41646d696e6973747261746f727300000000000000000000000000000000000081525062000462866200057d60201b60201c565b620006ac60201b60201c565b620004c56040518060400160405280600581526020017f5573657273000000000000000000000000000000000000000000000000000000815250620004b985620008e460201b60201c565b620006ac60201b60201c565b6200051c6040518060400160405280600e81526020017f47726f7570204d616e616765727300000000000000000000000000000000000081525062000510846200057d60201b60201c565b620006ac60201b60201c565b620005736040518060400160405280600d81526020017f55736572204d616e61676572730000000000000000000000000000000000000081525062000567836200057d60201b60201c565b620006ac60201b60201c565b5050505062000f12565b60606000600467ffffffffffffffff811115620005c3577f4e487b7100000000000000000000000000000000000000000000000000000000600052604160045260246000fd5b604051908082528060200260200182016040528015620005f857816020015b6060815260200190600190039081620005e25790505b50905060005b6004811015620006a25783816004811062000642577f4e487b7100000000000000000000000000000000000000000000000000000000600052603260045260246000fd5b602002015182828151811062000681577f4e487b7100000000000000000000000000000000000000000000000000000000600052603260045260246000fd5b60200260200101819052508080620006999062000e55565b915050620005fe565b5080915050919050565b600560019054906101000a900473ffffffffffffffffffffffffffffffffffffffff1673ffffffffffffffffffffffffffffffffffffffff163373ffffffffffffffffffffffffffffffffffffffff16146200073f576040517f08c379a0000000000000000000000000000000000000000000000000000000008152600401620007369062000d4c565b60405180910390fd5b6040518060600160405280838152602001600067ffffffffffffffff81111562000792577f4e487b7100000000000000000000000000000000000000000000000000000000600052604160045260246000fd5b604051908082528060200260200182016040528015620007c757816020015b6060815260200190600190039081620007b15790505b50815260200182815250600183604051620007e3919062000d0f565b908152602001604051809103902060008201518160000190805190602001906200080f92919062000a13565b5060208201518160010190805190602001906200082e92919062000aa4565b5060408201518160020190805190602001906200084d92919062000aa4565b509050506003829080600181540180825580915050600190039060005260206000200160009091909190915090805190602001906200088e92919062000a13565b50816040516200089f919062000d0f565b60405180910390207f64e45d769b067e3e2de0a2fbfa982b75ad4472af64e84e1c421ec5bbe695de0f82604051620008d8919062000d28565b60405180910390a25050565b60606000600367ffffffffffffffff8111156200092a577f4e487b7100000000000000000000000000000000000000000000000000000000600052604160045260246000fd5b6040519080825280602002602001820160405280156200095f57816020015b6060815260200190600190039081620009495790505b50905060005b600381101562000a0957838160038110620009a9577f4e487b7100000000000000000000000000000000000000000000000000000000600052603260045260246000fd5b6020020151828281518110620009e8577f4e487b7100000000000000000000000000000000000000000000000000000000600052603260045260246000fd5b6020026020010181905250808062000a009062000e55565b91505062000965565b5080915050919050565b82805462000a219062000e1f565b90600052602060002090601f01602090048101928262000a45576000855562000a91565b82601f1062000a6057805160ff191683800117855562000a91565b8280016001018555821562000a91579182015b8281111562000a9057825182559160200191906001019062000a73565b5b50905062000aa0919062000b0b565b5090565b82805482825590600052602060002090810192821562000af8579160200282015b8281111562000af757825182908051906020019062000ae692919062000a13565b509160200191906001019062000ac5565b5b50905062000b07919062000b2a565b5090565b5b8082111562000b2657600081600090555060010162000b0c565b5090565b5b8082111562000b4e576000818162000b44919062000b52565b5060010162000b2b565b5090565b50805462000b609062000e1f565b6000825580601f1062000b74575062000b95565b601f01602090049060005260206000209081019062000b94919062000b0b565b5b50565b600062000ba6838362000c2f565b905092915050565b600062000bbb8262000d7e565b62000bc7818562000da1565b93508360208202850162000bdb8562000d6e565b8060005b8581101562000c1d578484038952815162000bfb858262000b98565b945062000c088362000d94565b925060208a0199505060018101905062000bdf565b50829750879550505050505092915050565b600062000c3c8262000d89565b62000c48818562000db2565b935062000c5a81856020860162000de9565b62000c658162000f01565b840191505092915050565b600062000c7d8262000d89565b62000c89818562000dd4565b935062000c9b81856020860162000de9565b80840191505092915050565b600062000cb6602f8362000dc3565b91507f4f6e6c792074686520636f6e7472616374206f776e65722063616e207065726660008301527f6f726d207468697320616374696f6e00000000000000000000000000000000006020830152604082019050919050565b600062000d1d828462000c70565b915081905092915050565b6000602082019050818103600083015262000d44818462000bae565b905092915050565b6000602082019050818103600083015262000d678162000ca7565b9050919050565b6000819050602082019050919050565b600081519050919050565b600081519050919050565b6000602082019050919050565b600082825260208201905092915050565b600082825260208201905092915050565b600082825260208201905092915050565b600081905092915050565b6000819050919050565b60005b8381101562000e0957808201518184015260208101905062000dec565b8381111562000e19576000848401525b50505050565b6000600282049050600182168062000e3857607f821691505b6020821081141562000e4f5762000e4e62000ed2565b5b50919050565b600062000e628262000ddf565b91507fffffffffffffffffffffffffffffffffffffffffffffffffffffffffffffffff82141562000e985762000e9762000ea3565b5b600182019050919050565b7f4e487b7100000000000000000000000000000000000000000000000000000000600052601160045260246000fd5b7f4e487b7100000000000000000000000000000000000000000000000000000000600052602260045260246000fd5b6000601f19601f8301169050919050565b61542b8062000f226000396000f3fe608060405234801561001057600080fd5b50600436106101425760003560e01c806367753ba1116100b8578063abef281e1161007c578063abef281e14610363578063b9e6facb14610395578063c91bc46c146103b1578063e537cac7146103cd578063ecb5a4d5146103e9578063ee1c55da1461040557610142565b806367753ba1146102c35780636b228cde146102df5780636cad1934146102fb5780637c77f39f1461032b5780638a0bd86b1461034757610142565b806331feb6711161010a57806331feb671146101fd5780635108c3ab1461023557806353620375146102515780635b9a6b1d1461026f578063600cee781461028b5780636246b310146102a757610142565b806303df9e92146101475780631ae7f10a1461016357806321cd3cae14610193578063266c1bab146101b15780632d09d9e9146101cd575b600080fd5b610161600480360381019061015c91906145b9565b610435565b005b61017d600480360381019061017891906145b9565b610541565b60405161018a9190614e8d565b60405180910390f35b61019b61099e565b6040516101a89190614e2e565b60405180910390f35b6101cb60048036038101906101c69190614625565b610a77565b005b6101e760048036038101906101e29190614578565b610c3e565b6040516101f49190614e2e565b60405180910390f35b61021760048036038101906102129190614578565b610d38565b60405161022c99989796959493929190614f32565b60405180910390f35b61024f600480360381019061024a9190614578565b611258565b005b6102596113ce565b6040516102669190614e2e565b60405180910390f35b61028960048036038101906102849190614691565b6114a7565b005b6102a560048036038101906102a09190614578565b611a6b565b005b6102c160048036038101906102bc9190614578565b611f43565b005b6102dd60048036038101906102d89190614625565b6124cc565b005b6102f960048036038101906102f49190614578565b612980565b005b61031560048036038101906103109190614578565b612a55565b6040516103229190614e72565b60405180910390f35b610345600480360381019061034091906145b9565b612a8e565b005b610361600480360381019061035c9190614625565b612cb2565b005b61037d60048036038101906103789190614578565b612e79565b60405161038c93929190614eaf565b60405180910390f35b6103af60048036038101906103aa9190614728565b61320c565b005b6103cb60048036038101906103c69190614625565b61357f565b005b6103e760048036038101906103e29190614578565b6136c4565b005b61040360048036038101906103fe9190614625565b6137d3565b005b61041f600480360381019061041a9190614578565b6139ee565b60405161042c9190614e2e565b60405180910390f35b600560019054906101000a900473ffffffffffffffffffffffffffffffffffffffff1673ffffffffffffffffffffffffffffffffffffffff163373ffffffffffffffffffffffffffffffffffffffff16146104c5576040517f08c379a00000000000000000000000000000000000000000000000000000000081526004016104bc90615070565b60405180910390fd5b806000836040516104d69190614deb565b908152602001604051809103902060020190805190602001906104fa92919061417f565b50816040516105099190614deb565b60405180910390207feb1060ec96e942d51b0f7b8b00c334c5c6da57c48f5ef56937468d28d0ee347a60405160405180910390a25050565b6060600560019054906101000a900473ffffffffffffffffffffffffffffffffffffffff1673ffffffffffffffffffffffffffffffffffffffff163373ffffffffffffffffffffffffffffffffffffffff16146105d3576040517f08c379a00000000000000000000000000000000000000000000000000000000081526004016105ca90615070565b60405180910390fd5b60006001846040516105e59190614deb565b90815260200160405180910390206000018054610601906152dc565b905011610643576040517f08c379a000000000000000000000000000000000000000000000000000000000815260040161063a90615090565b60405180910390fd5b600060405180608001604052806040518060400160405280600e81526020017f41646d696e6973747261746f727300000000000000000000000000000000000081525081526020016040518060400160405280600581526020017f557365727300000000000000000000000000000000000000000000000000000081525081526020016040518060400160405280600e81526020017f47726f7570204d616e616765727300000000000000000000000000000000000081525081526020016040518060400160405280600d81526020017f55736572204d616e616765727300000000000000000000000000000000000000815250815250905060005b600481101561082757818160048110610781577f4e487b7100000000000000000000000000000000000000000000000000000000600052603260045260246000fd5b60200201516040516020016107969190614deb565b60405160208183030381529060405280519060200120856040516020016107bd9190614deb565b604051602081830303815290604052805190602001201415610814576040517f08c379a000000000000000000000000000000000000000000000000000000000815260040161080b90615030565b60405180910390fd5b808061081f9061530e565b91505061073f565b50826001856040516108399190614deb565b9081526020016040518091039020600201908051906020019061085d92919061417f565b5060018460405161086e9190614deb565b908152602001604051809103902060000160405161088c9190614e02565b60405180910390207f65d29756900166ea1a95042b775077b9e0c4b52e2ad303784b8fc75584de59ef6001866040516108c59190614deb565b90815260200160405180910390206002016040516108e39190614e50565b60405180910390a26001846040516108fb9190614deb565b90815260200160405180910390206000018054610917906152dc565b80601f0160208091040260200160405190810160405280929190818152602001828054610943906152dc565b80156109905780601f1061096557610100808354040283529160200191610990565b820191906000526020600020905b81548152906001019060200180831161097357829003601f168201915b505050505091505092915050565b60606003805480602002602001604051908101604052809291908181526020016000905b82821015610a6e5783829060005260206000200180546109e1906152dc565b80601f0160208091040260200160405190810160405280929190818152602001828054610a0d906152dc565b8015610a5a5780601f10610a2f57610100808354040283529160200191610a5a565b820191906000526020600020905b815481529060010190602001808311610a3d57829003601f168201915b5050505050815260200190600101906109c2565b50505050905090565b600560019054906101000a900473ffffffffffffffffffffffffffffffffffffffff1673ffffffffffffffffffffffffffffffffffffffff163373ffffffffffffffffffffffffffffffffffffffff1614610b07576040517f08c379a0000000000000000000000000000000000000000000000000000000008152600401610afe90615070565b60405180910390fd5b60008083604051610b189190614deb565b90815260200160405180910390206006018054610b34906152dc565b80601f0160208091040260200160405190810160405280929190818152602001828054610b60906152dc565b8015610bad5780601f10610b8257610100808354040283529160200191610bad565b820191906000526020600020905b815481529060010190602001808311610b9057829003601f168201915b5050505050905081600084604051610bc59190614deb565b90815260200160405180910390206006019080519060200190610be99291906141df565b5082604051610bf89190614deb565b60405180910390207fcc1535b390217134b99857a8888766bbd62b45e9c4ee9436c1f1471790825f138284604051610c31929190614efb565b60405180910390a2505050565b6060600082604051610c509190614deb565b9081526020016040518091039020600201805480602002602001604051908101604052809291908181526020016000905b82821015610d2d578382906000526020600020018054610ca0906152dc565b80601f0160208091040260200160405190810160405280929190818152602001828054610ccc906152dc565b8015610d195780601f10610cee57610100808354040283529160200191610d19565b820191906000526020600020905b815481529060010190602001808311610cfc57829003601f168201915b505050505081526020019060010190610c81565b505050509050919050565b60608060608060606000806060806000808b604051610d579190614deb565b908152602001604051809103902060405180610140016040529081600082018054610d81906152dc565b80601f0160208091040260200160405190810160405280929190818152602001828054610dad906152dc565b8015610dfa5780601f10610dcf57610100808354040283529160200191610dfa565b820191906000526020600020905b815481529060010190602001808311610ddd57829003601f168201915b50505050508152602001600182018054610e13906152dc565b80601f0160208091040260200160405190810160405280929190818152602001828054610e3f906152dc565b8015610e8c5780601f10610e6157610100808354040283529160200191610e8c565b820191906000526020600020905b815481529060010190602001808311610e6f57829003601f168201915b5050505050815260200160028201805480602002602001604051908101604052809291908181526020016000905b82821015610f66578382906000526020600020018054610ed9906152dc565b80601f0160208091040260200160405190810160405280929190818152602001828054610f05906152dc565b8015610f525780601f10610f2757610100808354040283529160200191610f52565b820191906000526020600020905b815481529060010190602001808311610f3557829003601f168201915b505050505081526020019060010190610eba565b505050508152602001600382018054610f7e906152dc565b80601f0160208091040260200160405190810160405280929190818152602001828054610faa906152dc565b8015610ff75780601f10610fcc57610100808354040283529160200191610ff7565b820191906000526020600020905b815481529060010190602001808311610fda57829003601f168201915b50505050508152602001600482018054611010906152dc565b80601f016020809104026020016040519081016040528092919081815260200182805461103c906152dc565b80156110895780601f1061105e57610100808354040283529160200191611089565b820191906000526020600020905b81548152906001019060200180831161106c57829003601f168201915b505050505081526020016005820160009054906101000a900460ff161515151581526020016005820160019054906101000a900460ff161515151581526020016005820160029054906101000a900460ff161515151581526020016006820180546110f3906152dc565b80601f016020809104026020016040519081016040528092919081815260200182805461111f906152dc565b801561116c5780601f106111415761010080835404028352916020019161116c565b820191906000526020600020905b81548152906001019060200180831161114f57829003601f168201915b50505050508152602001600782018054611185906152dc565b80601f01602080910402602001604051908101604052809291908181526020018280546111b1906152dc565b80156111fe5780601f106111d3576101008083540402835291602001916111fe565b820191906000526020600020905b8154815290600101906020018083116111e157829003601f168201915b5050505050815250509050806000015181602001518260400151836060015184608001518560a001518660e00151876101000151886101200151995099509950995099509950995099509950509193959799909294969850565b600560019054906101000a900473ffffffffffffffffffffffffffffffffffffffff1673ffffffffffffffffffffffffffffffffffffffff163373ffffffffffffffffffffffffffffffffffffffff16146112e8576040517f08c379a00000000000000000000000000000000000000000000000000000000081526004016112df90615070565b60405180910390fd5b6000816040516112f89190614deb565b908152602001604051809103902060050160029054906101000a900460ff16156000826040516113289190614deb565b908152602001604051809103902060050160026101000a81548160ff0219169083151502179055508060405161135e9190614deb565b60405180910390207f9b1a1e5131c18ee5fd8454b3b435b1b36127bd0c05686d9fc6190d638bcb14996000836040516113979190614deb565b908152602001604051809103902060050160029054906101000a900460ff166040516113c39190614e72565b60405180910390a250565b60606002805480602002602001604051908101604052809291908181526020016000905b8282101561149e578382906000526020600020018054611411906152dc565b80601f016020809104026020016040519081016040528092919081815260200182805461143d906152dc565b801561148a5780601f1061145f5761010080835404028352916020019161148a565b820191906000526020600020905b81548152906001019060200180831161146d57829003601f168201915b5050505050815260200190600101906113f2565b50505050905090565b600560019054906101000a900473ffffffffffffffffffffffffffffffffffffffff1673ffffffffffffffffffffffffffffffffffffffff163373ffffffffffffffffffffffffffffffffffffffff1614611537576040517f08c379a000000000000000000000000000000000000000000000000000000000815260040161152e90615070565b60405180910390fd5b60006001846040516115499190614deb565b90815260200160405180910390206000018054611565906152dc565b9050116115a7576040517f08c379a000000000000000000000000000000000000000000000000000000000815260040161159e90615090565b60405180910390fd5b600060405180608001604052806040518060400160405280600e81526020017f41646d696e6973747261746f727300000000000000000000000000000000000081525081526020016040518060400160405280600581526020017f557365727300000000000000000000000000000000000000000000000000000081525081526020016040518060400160405280600e81526020017f47726f7570204d616e616765727300000000000000000000000000000000000081525081526020016040518060400160405280600d81526020017f55736572204d616e616765727300000000000000000000000000000000000000815250815250905060005b600481101561178b578181600481106116e5577f4e487b7100000000000000000000000000000000000000000000000000000000600052603260045260246000fd5b60200201516040516020016116fa9190614deb565b60405160208183030381529060405280519060200120856040516020016117219190614deb565b604051602081830303815290604052805190602001201415611778576040517f08c379a000000000000000000000000000000000000000000000000000000000815260040161176f90615030565b60405180910390fd5b80806117839061530e565b9150506116a3565b506117968483610541565b50826040516020016117a89190614deb565b60405160208183030381529060405280519060200120846040516020016117cf9190614deb565b6040516020818303038152906040528051906020012014611a65576001846040516117fa9190614deb565b90815260200160405180910390206001846040516118189190614deb565b9081526020016040518091039020600082018160000190805461183a906152dc565b611845929190614265565b50600182018160010190805461185c9291906142f2565b5060028201816002019080546118739291906142f2565b50905050826001846040516118889190614deb565b908152602001604051809103902060000190805190602001906118ac9291906141df565b506001846040516118bd9190614deb565b9081526020016040518091039020600080820160006118dc919061435a565b6001820160006118ec919061439a565b6002820160006118fc919061439a565b505060005b600380549050811015611a16578460405160200161191f9190614deb565b604051602081830303815290604052805190602001206003828154811061196f577f4e487b7100000000000000000000000000000000000000000000000000000000600052603260045260246000fd5b906000526020600020016040516020016119899190614e02565b604051602081830303815290604052805190602001201415611a035783600382815481106119e0577f4e487b7100000000000000000000000000000000000000000000000000000000600052603260045260246000fd5b9060005260206000200190805190602001906119fd9291906141df565b50611a16565b8080611a0e9061530e565b915050611901565b5083604051611a259190614deb565b60405180910390207f364b226b5f086e2e247d242241146270270074b8e63461b564298285dfdb087884604051611a5c9190614e8d565b60405180910390a25b50505050565b600560019054906101000a900473ffffffffffffffffffffffffffffffffffffffff1673ffffffffffffffffffffffffffffffffffffffff163373ffffffffffffffffffffffffffffffffffffffff1614611afb576040517f08c379a0000000000000000000000000000000000000000000000000000000008152600401611af290615070565b60405180910390fd5b60008082604051611b0c9190614deb565b90815260200160405180910390206000018054611b28906152dc565b905011611b6a576040517f08c379a0000000000000000000000000000000000000000000000000000000008152600401611b61906150b0565b60405180910390fd5b6004604051602001611b7c9190614e02565b6040516020818303038152906040528051906020012081604051602001611ba39190614deb565b604051602081830303815290604052805190602001201415611bfa576040517f08c379a0000000000000000000000000000000000000000000000000000000008152600401611bf190615050565b60405180910390fd5b6001600560006101000a81548160ff021916908315150217905550611c546040518060400160405280600581526020017f5573657273000000000000000000000000000000000000000000000000000000815250826124cc565b6000600560006101000a81548160ff0219169083151502179055506000805b600280549050811015611e3a5782604051602001611c919190614deb565b6040516020818303038152906040528051906020012060028281548110611ce1577f4e487b7100000000000000000000000000000000000000000000000000000000600052603260045260246000fd5b90600052602060002001604051602001611cfb9190614e02565b604051602081830303815290604052805190602001201415611e27576001915060026001600280549050611d2f9190615250565b81548110611d66577f4e487b7100000000000000000000000000000000000000000000000000000000600052603260045260246000fd5b9060005260206000200160028281548110611daa577f4e487b7100000000000000000000000000000000000000000000000000000000600052603260045260246000fd5b90600052602060002001908054611dc0906152dc565b611dcb9291906143bb565b506002805480611e04577f4e487b7100000000000000000000000000000000000000000000000000000000600052603160045260246000fd5b600190038181906000526020600020016000611e20919061435a565b9055611e3a565b8080611e329061530e565b915050611c73565b50600082604051611e4b9190614deb565b908152602001604051809103902060008082016000611e6a919061435a565b600182016000611e7a919061435a565b600282016000611e8a919061439a565b600382016000611e9a919061435a565b600482016000611eaa919061435a565b6005820160006101000a81549060ff02191690556005820160016101000a81549060ff02191690556005820160026101000a81549060ff0219169055600682016000611ef6919061435a565b600782016000611f06919061435a565b50507f5b8514bf599ab0e7b72a3b2d47ae13677daa88ebbf833cea7bad37b6df49ede382604051611f379190614e8d565b60405180910390a15050565b600560019054906101000a900473ffffffffffffffffffffffffffffffffffffffff1673ffffffffffffffffffffffffffffffffffffffff163373ffffffffffffffffffffffffffffffffffffffff1614611fd3576040517f08c379a0000000000000000000000000000000000000000000000000000000008152600401611fca90615070565b60405180910390fd5b6000600182604051611fe59190614deb565b90815260200160405180910390206000018054612001906152dc565b905011612043576040517f08c379a000000000000000000000000000000000000000000000000000000000815260040161203a90615090565b60405180910390fd5b600060405180608001604052806040518060400160405280600e81526020017f41646d696e6973747261746f727300000000000000000000000000000000000081525081526020016040518060400160405280600581526020017f557365727300000000000000000000000000000000000000000000000000000081525081526020016040518060400160405280600e81526020017f47726f7570204d616e616765727300000000000000000000000000000000000081525081526020016040518060400160405280600d81526020017f55736572204d616e616765727300000000000000000000000000000000000000815250815250905060005b600481101561222757818160048110612181577f4e487b7100000000000000000000000000000000000000000000000000000000600052603260045260246000fd5b60200201516040516020016121969190614deb565b60405160208183030381529060405280519060200120836040516020016121bd9190614deb565b604051602081830303815290604052805190602001201415612214576040517f08c379a000000000000000000000000000000000000000000000000000000000815260040161220b90615030565b60405180910390fd5b808061221f9061530e565b91505061213f565b506001826040516122389190614deb565b908152602001604051809103902060008082016000612257919061435a565b600182016000612267919061439a565b600282016000612277919061439a565b50506000805b600380549050811015612444578360405160200161229b9190614deb565b60405160208183030381529060405280519060200120600382815481106122eb577f4e487b7100000000000000000000000000000000000000000000000000000000600052603260045260246000fd5b906000526020600020016040516020016123059190614e02565b6040516020818303038152906040528051906020012014156124315760019150600360016003805490506123399190615250565b81548110612370577f4e487b7100000000000000000000000000000000000000000000000000000000600052603260045260246000fd5b90600052602060002001600382815481106123b4577f4e487b7100000000000000000000000000000000000000000000000000000000600052603260045260246000fd5b906000526020600020019080546123ca906152dc565b6123d59291906143bb565b50600380548061240e577f4e487b7100000000000000000000000000000000000000000000000000000000600052603160045260246000fd5b60019003818190600052602060002001600061242a919061435a565b9055612444565b808061243c9061530e565b91505061227d565b5080612485576040517f08c379a000000000000000000000000000000000000000000000000000000000815260040161247c90614ff0565b60405180910390fd5b826040516124939190614deb565b60405180910390207f3d23503bda008e50d93c77e132b7d2cde3189a8de034b6d382a71004b5a1b04860405160405180910390a2505050565b600560019054906101000a900473ffffffffffffffffffffffffffffffffffffffff1673ffffffffffffffffffffffffffffffffffffffff163373ffffffffffffffffffffffffffffffffffffffff161461255c576040517f08c379a000000000000000000000000000000000000000000000000000000000815260040161255390615070565b60405180910390fd5b600060018360405161256e9190614deb565b9081526020016040518091039020600001805461258a906152dc565b9050116125cc576040517f08c379a00000000000000000000000000000000000000000000000000000000081526004016125c390615090565b60405180910390fd5b600080826040516125dd9190614deb565b908152602001604051809103902060000180546125f9906152dc565b90501161263b576040517f08c379a0000000000000000000000000000000000000000000000000000000008152600401612632906150d0565b60405180910390fd5b60001515600560009054906101000a900460ff16151514156126e55760405160200161266690614e19565b604051602081830303815290604052805190602001208260405160200161268d9190614deb565b6040516020818303038152906040528051906020012014156126e4576040517f08c379a00000000000000000000000000000000000000000000000000000000081526004016126db90615010565b60405180910390fd5b5b60006001836040516126f79190614deb565b908152602001604051809103902060010190506000805b82805490508110156128cf578360405160200161272b9190614deb565b6040516020818303038152906040528051906020012083828154811061277a577f4e487b7100000000000000000000000000000000000000000000000000000000600052603260045260246000fd5b906000526020600020016040516020016127949190614e02565b6040516020818303038152906040528051906020012014156128bc576001915082600184805490506127c69190615250565b815481106127fd577f4e487b7100000000000000000000000000000000000000000000000000000000600052603260045260246000fd5b90600052602060002001838281548110612840577f4e487b7100000000000000000000000000000000000000000000000000000000600052603260045260246000fd5b90600052602060002001908054612856906152dc565b6128619291906143bb565b5082805480612899577f4e487b7100000000000000000000000000000000000000000000000000000000600052603160045260246000fd5b6001900381819060005260206000200160006128b5919061435a565b90556128cf565b80806128c79061530e565b91505061270e565b5060001515600560009054906101000a900460ff161515141561292d578061292c576040517f08c379a0000000000000000000000000000000000000000000000000000000008152600401612923906150f0565b60405180910390fd5b5b8260405161293b9190614deb565b60405180910390207f2987fe5a9775c7dc64ce1b0c8b76d750f2ef0f9e96561a0da6ad7f31a854515a856040516129729190614e8d565b60405180910390a250505050565b600560019054906101000a900473ffffffffffffffffffffffffffffffffffffffff1673ffffffffffffffffffffffffffffffffffffffff163373ffffffffffffffffffffffffffffffffffffffff1614612a10576040517f08c379a0000000000000000000000000000000000000000000000000000000008152600401612a0790615070565b60405180910390fd5b80604051612a1e9190614deb565b60405180910390207f66ece5ba82771921bdbfdb2bf2e469359fdecc21f7a2dc5b5e978e84fe9ad20960405160405180910390a250565b600080600083604051612a689190614deb565b90815260200160405180910390206000018054612a84906152dc565b9050119050919050565b600560019054906101000a900473ffffffffffffffffffffffffffffffffffffffff1673ffffffffffffffffffffffffffffffffffffffff163373ffffffffffffffffffffffffffffffffffffffff1614612b1e576040517f08c379a0000000000000000000000000000000000000000000000000000000008152600401612b1590615070565b60405180910390fd5b6040518060600160405280838152602001600067ffffffffffffffff811115612b70577f4e487b7100000000000000000000000000000000000000000000000000000000600052604160045260246000fd5b604051908082528060200260200182016040528015612ba357816020015b6060815260200190600190039081612b8e5790505b50815260200182815250600183604051612bbd9190614deb565b90815260200160405180910390206000820151816000019080519060200190612be79291906141df565b506020820151816001019080519060200190612c0492919061417f565b506040820151816002019080519060200190612c2192919061417f565b50905050600382908060018154018082558091505060019003906000526020600020016000909190919091509080519060200190612c609291906141df565b5081604051612c6f9190614deb565b60405180910390207f64e45d769b067e3e2de0a2fbfa982b75ad4472af64e84e1c421ec5bbe695de0f82604051612ca69190614e2e565b60405180910390a25050565b600560019054906101000a900473ffffffffffffffffffffffffffffffffffffffff1673ffffffffffffffffffffffffffffffffffffffff163373ffffffffffffffffffffffffffffffffffffffff1614612d42576040517f08c379a0000000000000000000000000000000000000000000000000000000008152600401612d3990615070565b60405180910390fd5b60008083604051612d539190614deb565b90815260200160405180910390206007018054612d6f906152dc565b80601f0160208091040260200160405190810160405280929190818152602001828054612d9b906152dc565b8015612de85780601f10612dbd57610100808354040283529160200191612de8565b820191906000526020600020905b815481529060010190602001808311612dcb57829003601f168201915b5050505050905081600084604051612e009190614deb565b90815260200160405180910390206007019080519060200190612e249291906141df565b5082604051612e339190614deb565b60405180910390207f761bd9ed45e855f17b06454b8c624a18672818f8993e77686bcce7a8f70b26558284604051612e6c929190614efb565b60405180910390a2505050565b6060806060600560019054906101000a900473ffffffffffffffffffffffffffffffffffffffff1673ffffffffffffffffffffffffffffffffffffffff163373ffffffffffffffffffffffffffffffffffffffff1614612f0e576040517f08c379a0000000000000000000000000000000000000000000000000000000008152600401612f0590615070565b60405180910390fd5b6000600185604051612f209190614deb565b90815260200160405180910390206000018054612f3c906152dc565b905011612f7e576040517f08c379a0000000000000000000000000000000000000000000000000000000008152600401612f7590615090565b60405180910390fd5b6000600185604051612f909190614deb565b9081526020016040518091039020604051806060016040529081600082018054612fb9906152dc565b80601f0160208091040260200160405190810160405280929190818152602001828054612fe5906152dc565b80156130325780601f1061300757610100808354040283529160200191613032565b820191906000526020600020905b81548152906001019060200180831161301557829003601f168201915b5050505050815260200160018201805480602002602001604051908101604052809291908181526020016000905b8282101561310c57838290600052602060002001805461307f906152dc565b80601f01602080910402602001604051908101604052809291908181526020018280546130ab906152dc565b80156130f85780601f106130cd576101008083540402835291602001916130f8565b820191906000526020600020905b8154815290600101906020018083116130db57829003601f168201915b505050505081526020019060010190613060565b50505050815260200160028201805480602002602001604051908101604052809291908181526020016000905b828210156131e5578382906000526020600020018054613158906152dc565b80601f0160208091040260200160405190810160405280929190818152602001828054613184906152dc565b80156131d15780601f106131a6576101008083540402835291602001916131d1565b820191906000526020600020905b8154815290600101906020018083116131b457829003601f168201915b505050505081526020019060010190613139565b50505050815250509050806000015181604001518260200151935093509350509193909250565b600560019054906101000a900473ffffffffffffffffffffffffffffffffffffffff1673ffffffffffffffffffffffffffffffffffffffff163373ffffffffffffffffffffffffffffffffffffffff161461329c576040517f08c379a000000000000000000000000000000000000000000000000000000000815260040161329390615070565b60405180910390fd5b604051806101400160405280858152602001848152602001838152602001828152602001828152602001600015158152602001600015158152602001600115158152602001604051806020016040528060008152508152602001604051806020016040528060008152508152506000856040516133199190614deb565b908152602001604051809103902060008201518160000190805190602001906133439291906141df565b5060208201518160010190805190602001906133609291906141df565b50604082015181600201908051906020019061337d92919061417f565b50606082015181600301908051906020019061339a9291906141df565b5060808201518160040190805190602001906133b79291906141df565b5060a08201518160050160006101000a81548160ff02191690831515021790555060c08201518160050160016101000a81548160ff02191690831515021790555060e08201518160050160026101000a81548160ff0219169083151502179055506101008201518160060190805190602001906134359291906141df565b506101208201518160070190805190602001906134539291906141df565b509050506002849080600181540180825580915050600190039060005260206000200160009091909190915090805190602001906134929291906141df565b506134d26040518060400160405280600581526020017f5573657273000000000000000000000000000000000000000000000000000000815250856137d3565b836040516134e09190614deb565b60405180910390207f270ff4b111e5baa49283562af127cc5ea74e9d6c9efd5465578bd9223d5843f060405160405180910390a260016002805490501415613579576135616040518060400160405280600e81526020017f41646d696e6973747261746f7273000000000000000000000000000000000000815250856137d3565b83600490805190602001906135779291906141df565b505b50505050565b600560019054906101000a900473ffffffffffffffffffffffffffffffffffffffff1673ffffffffffffffffffffffffffffffffffffffff163373ffffffffffffffffffffffffffffffffffffffff161461360f576040517f08c379a000000000000000000000000000000000000000000000000000000000815260040161360690615070565b60405180910390fd5b806000836040516136209190614deb565b908152602001604051809103902060010190805190602001906136449291906141df565b50600080836040516136569190614deb565b908152602001604051809103902060050160016101000a81548160ff0219169083151502179055508160405161368c9190614deb565b60405180910390207fd0b43b0b96083c98cc0f0370575812de87ee48ff1bde30bcd74f3518443bc4f560405160405180910390a25050565b600560019054906101000a900473ffffffffffffffffffffffffffffffffffffffff1673ffffffffffffffffffffffffffffffffffffffff163373ffffffffffffffffffffffffffffffffffffffff1614613754576040517f08c379a000000000000000000000000000000000000000000000000000000000815260040161374b90615070565b60405180910390fd5b60016000826040516137669190614deb565b908152602001604051809103902060050160016101000a81548160ff0219169083151502179055508060405161379c9190614deb565b60405180910390207f926f593dd22175375135b3fd9428c5d0298a5665da18756555b6af9f305ab9a660405160405180910390a250565b600560019054906101000a900473ffffffffffffffffffffffffffffffffffffffff1673ffffffffffffffffffffffffffffffffffffffff163373ffffffffffffffffffffffffffffffffffffffff1614613863576040517f08c379a000000000000000000000000000000000000000000000000000000000815260040161385a90615070565b60405180910390fd5b60006001836040516138759190614deb565b90815260200160405180910390206000018054613891906152dc565b9050116138d3576040517f08c379a00000000000000000000000000000000000000000000000000000000081526004016138ca90615090565b60405180910390fd5b600080826040516138e49190614deb565b90815260200160405180910390206000018054613900906152dc565b905011613942576040517f08c379a0000000000000000000000000000000000000000000000000000000008152600401613939906150d0565b60405180910390fd5b6001826040516139529190614deb565b90815260200160405180910390206001018190806001815401808255809150506001900390600052602060002001600090919091909150908051906020019061399c9291906141df565b50806040516139ab9190614deb565b60405180910390207f32475c6c091737c212dc5c54e3565db8aae94283f8b388d2c1dfe772b3f356e1836040516139e29190614e8d565b60405180910390a25050565b606060008083604051613a019190614deb565b90815260200160405180910390206000018054613a1d906152dc565b905011613a5f576040517f08c379a0000000000000000000000000000000000000000000000000000000008152600401613a56906150d0565b60405180910390fd5b600060038054905067ffffffffffffffff811115613aa6577f4e487b7100000000000000000000000000000000000000000000000000000000600052604160045260246000fd5b604051908082528060200260200182016040528015613ad957816020015b6060815260200190600190039081613ac45790505b5090506000805b600380549050811015613d09576000600160038381548110613b2b577f4e487b7100000000000000000000000000000000000000000000000000000000600052603260045260246000fd5b90600052602060002001604051613b429190614e02565b9081526020016040518091039020905060005b8160010180549050811015613cf45786604051602001613b759190614deb565b60405160208183030381529060405280519060200120826001018281548110613bc7577f4e487b7100000000000000000000000000000000000000000000000000000000600052603260045260246000fd5b90600052602060002001604051602001613be19190614e02565b604051602081830303815290604052805190602001201415613ce157816000018054613c0c906152dc565b80601f0160208091040260200160405190810160405280929190818152602001828054613c38906152dc565b8015613c855780601f10613c5a57610100808354040283529160200191613c85565b820191906000526020600020905b815481529060010190602001808311613c6857829003601f168201915b5050505050858581518110613cc3577f4e487b7100000000000000000000000000000000000000000000000000000000600052603260045260246000fd5b60200260200101819052508380613cd99061530e565b945050613cf4565b8080613cec9061530e565b915050613b55565b50508080613d019061530e565b915050613ae0565b506000603267ffffffffffffffff811115613d4d577f4e487b7100000000000000000000000000000000000000000000000000000000600052604160045260246000fd5b604051908082528060200260200182016040528015613d8057816020015b6060815260200190600190039081613d6b5790505b5090506000805b83811015614055576000858281518110613dca577f4e487b7100000000000000000000000000000000000000000000000000000000600052603260045260246000fd5b602002602001015190506000600182604051613de69190614deb565b9081526020016040518091039020600201905060005b818054905081101561403f576000805b86811015613f0657838381548110613e4d577f4e487b7100000000000000000000000000000000000000000000000000000000600052603260045260246000fd5b90600052602060002001604051602001613e679190614e02565b60405160208183030381529060405280519060200120888281518110613eb6577f4e487b7100000000000000000000000000000000000000000000000000000000600052603260045260246000fd5b6020026020010151604051602001613ece9190614deb565b604051602081830303815290604052805190602001201415613ef35760019150613f06565b8080613efe9061530e565b915050613e0c565b508061402b57828281548110613f45577f4e487b7100000000000000000000000000000000000000000000000000000000600052603260045260246000fd5b906000526020600020018054613f5a906152dc565b80601f0160208091040260200160405190810160405280929190818152602001828054613f86906152dc565b8015613fd35780601f10613fa857610100808354040283529160200191613fd3565b820191906000526020600020905b815481529060010190602001808311613fb657829003601f168201915b5050505050878781518110614011577f4e487b7100000000000000000000000000000000000000000000000000000000600052603260045260246000fd5b602002602001018190525085806140279061530e565b9650505b5080806140379061530e565b915050613dfc565b505050808061404d9061530e565b915050613d87565b5060008167ffffffffffffffff811115614098577f4e487b7100000000000000000000000000000000000000000000000000000000600052604160045260246000fd5b6040519080825280602002602001820160405280156140cb57816020015b60608152602001906001900390816140b65790505b50905060005b8281101561417157838181518110614112577f4e487b7100000000000000000000000000000000000000000000000000000000600052603260045260246000fd5b6020026020010151828281518110614153577f4e487b7100000000000000000000000000000000000000000000000000000000600052603260045260246000fd5b602002602001018190525080806141699061530e565b9150506140d1565b508095505050505050919050565b8280548282559060005260206000209081019282156141ce579160200282015b828111156141cd5782518290805190602001906141bd9291906141df565b509160200191906001019061419f565b5b5090506141db9190614448565b5090565b8280546141eb906152dc565b90600052602060002090601f01602090048101928261420d5760008555614254565b82601f1061422657805160ff1916838001178555614254565b82800160010185558215614254579182015b82811115614253578251825591602001919060010190614238565b5b509050614261919061446c565b5090565b828054614271906152dc565b90600052602060002090601f01602090048101928261429357600085556142e1565b82601f106142a457805485556142e1565b828001600101855582156142e157600052602060002091601f016020900482015b828111156142e05782548255916001019190600101906142c5565b5b5090506142ee919061446c565b5090565b8280548282559060005260206000209081019282156143495760005260206000209182015b8281111561434857828290805461432d906152dc565b614338929190614265565b5091600101919060010190614317565b5b5090506143569190614448565b5090565b508054614366906152dc565b6000825580601f106143785750614397565b601f016020900490600052602060002090810190614396919061446c565b5b50565b50805460008255906000526020600020908101906143b89190614448565b50565b8280546143c7906152dc565b90600052602060002090601f0160209004810192826143e95760008555614437565b82601f106143fa5780548555614437565b8280016001018555821561443757600052602060002091601f016020900482015b8281111561443657825482559160010191906001019061441b565b5b509050614444919061446c565b5090565b5b80821115614468576000818161445f919061435a565b50600101614449565b5090565b5b8082111561448557600081600090555060010161446d565b5090565b600061449c61449784615141565b615110565b9050808382526020820190508260005b858110156144dc57813585016144c2888261454e565b8452602084019350602083019250506001810190506144ac565b5050509392505050565b60006144f96144f48461516d565b615110565b90508281526020810184848401111561451157600080fd5b61451c84828561529a565b509392505050565b600082601f83011261453557600080fd5b8135614545848260208601614489565b91505092915050565b600082601f83011261455f57600080fd5b813561456f8482602086016144e6565b91505092915050565b60006020828403121561458a57600080fd5b600082013567ffffffffffffffff8111156145a457600080fd5b6145b08482850161454e565b91505092915050565b600080604083850312156145cc57600080fd5b600083013567ffffffffffffffff8111156145e657600080fd5b6145f28582860161454e565b925050602083013567ffffffffffffffff81111561460f57600080fd5b61461b85828601614524565b9150509250929050565b6000806040838503121561463857600080fd5b600083013567ffffffffffffffff81111561465257600080fd5b61465e8582860161454e565b925050602083013567ffffffffffffffff81111561467b57600080fd5b6146878582860161454e565b9150509250929050565b6000806000606084860312156146a657600080fd5b600084013567ffffffffffffffff8111156146c057600080fd5b6146cc8682870161454e565b935050602084013567ffffffffffffffff8111156146e957600080fd5b6146f58682870161454e565b925050604084013567ffffffffffffffff81111561471257600080fd5b61471e86828701614524565b9150509250925092565b6000806000806080858703121561473e57600080fd5b600085013567ffffffffffffffff81111561475857600080fd5b6147648782880161454e565b945050602085013567ffffffffffffffff81111561478157600080fd5b61478d8782880161454e565b935050604085013567ffffffffffffffff8111156147aa57600080fd5b6147b687828801614524565b925050606085013567ffffffffffffffff8111156147d357600080fd5b6147df8782880161454e565b91505092959194509250565b60006147f7838361490b565b905092915050565b600061480b83836149ae565b905092915050565b600061481e826151d7565b6148288185615212565b93508360208202850161483a8561519d565b8060005b85811015614876578484038952815161485785826147eb565b9450614862836151f8565b925060208a0199505060018101905061483e565b50829750879550505050505092915050565b6000614893826151e2565b61489d8185615212565b9350836020820285016148af856151ad565b8060005b858110156148ea578484038952816148cb85826147ff565b94506148d683615205565b925060208a019950506001810190506148b3565b50829750879550505050505092915050565b61490581615284565b82525050565b6000614916826151ed565b6149208185615223565b93506149308185602086016152a9565b614939816153e4565b840191505092915050565b600061494f826151ed565b6149598185615234565b93506149698185602086016152a9565b614972816153e4565b840191505092915050565b6000614988826151ed565b6149928185615245565b93506149a28185602086016152a9565b80840191505092915050565b600081546149bb816152dc565b6149c58186615223565b945060018216600081146149e057600181146149f257614a25565b60ff1983168652602086019350614a25565b6149fb856151c2565b60005b83811015614a1d578154818901526001820191506020810190506149fe565b808801955050505b50505092915050565b60008154614a3b816152dc565b614a458186615245565b94506001821660008114614a605760018114614a7157614aa4565b60ff19831686528186019350614aa4565b614a7a856151c2565b60005b83811015614a9c57815481890152600182019150602081019050614a7d565b838801955050505b50505092915050565b6000614aba602083615234565b91507f47726f7570206e6f7420666f756e6420696e20616c6c47726f75704e616d65736000830152602082019050919050565b6000614afa603383615234565b91507f52656d6f76696e672075736572732066726f6d2074686520557365727320677260008301527f6f7570206973206e6f7420616c6c6f77656421000000000000000000000000006020830152604082019050919050565b6000614b60600583615245565b91507f55736572730000000000000000000000000000000000000000000000000000006000830152600582019050919050565b6000614ba0602f83615234565b91507f4d6f64696679696e6720636f72652067726f7570207065726d697373696f6e7360008301527f206973206e6f7420616c6c6f77656400000000000000000000000000000000006020830152604082019050919050565b6000614c06604283615234565b91507f44656c6574696e6720746865206f726967696e616c20736d61727420636f6e7460008301527f726163742061646d696e6973747261746f72206973206e6f7420616c6c6f776560208301527f64210000000000000000000000000000000000000000000000000000000000006040830152606082019050919050565b6000614c92602f83615234565b91507f4f6e6c792074686520636f6e7472616374206f776e65722063616e207065726660008301527f6f726d207468697320616374696f6e00000000000000000000000000000000006020830152604082019050919050565b6000614cf8601483615234565b91507f47726f757020646f6573206e6f742065786973740000000000000000000000006000830152602082019050919050565b6000614d38601483615234565b91507f5573657220646f6573206e6f74206578697374210000000000000000000000006000830152602082019050919050565b6000614d78601383615234565b91507f5573657220646f6573206e6f74206578697374000000000000000000000000006000830152602082019050919050565b6000614db8601983615234565b91507f55736572206973206e6f7420696e20746869732067726f7570000000000000006000830152602082019050919050565b6000614df7828461497d565b915081905092915050565b6000614e0e8284614a2e565b915081905092915050565b6000614e2482614b53565b9150819050919050565b60006020820190508181036000830152614e488184614813565b905092915050565b60006020820190508181036000830152614e6a8184614888565b905092915050565b6000602082019050614e8760008301846148fc565b92915050565b60006020820190508181036000830152614ea78184614944565b905092915050565b60006060820190508181036000830152614ec98186614944565b90508181036020830152614edd8185614813565b90508181036040830152614ef18184614813565b9050949350505050565b60006040820190508181036000830152614f158185614944565b90508181036020830152614f298184614944565b90509392505050565b6000610120820190508181036000830152614f4d818c614944565b90508181036020830152614f61818b614944565b90508181036040830152614f75818a614813565b90508181036060830152614f898189614944565b90508181036080830152614f9d8188614944565b9050614fac60a08301876148fc565b614fb960c08301866148fc565b81810360e0830152614fcb8185614944565b9050818103610100830152614fe08184614944565b90509a9950505050505050505050565b6000602082019050818103600083015261500981614aad565b9050919050565b6000602082019050818103600083015261502981614aed565b9050919050565b6000602082019050818103600083015261504981614b93565b9050919050565b6000602082019050818103600083015261506981614bf9565b9050919050565b6000602082019050818103600083015261508981614c85565b9050919050565b600060208201905081810360008301526150a981614ceb565b9050919050565b600060208201905081810360008301526150c981614d2b565b9050919050565b600060208201905081810360008301526150e981614d6b565b9050919050565b6000602082019050818103600083015261510981614dab565b9050919050565b6000604051905081810181811067ffffffffffffffff82111715615137576151366153b5565b5b8060405250919050565b600067ffffffffffffffff82111561515c5761515b6153b5565b5b602082029050602081019050919050565b600067ffffffffffffffff821115615188576151876153b5565b5b601f19601f8301169050602081019050919050565b6000819050602082019050919050565b60008190508160005260206000209050919050565b60008190508160005260206000209050919050565b600081519050919050565b600081549050919050565b600081519050919050565b6000602082019050919050565b6000600182019050919050565b600082825260208201905092915050565b600082825260208201905092915050565b600082825260208201905092915050565b600081905092915050565b600061525b82615290565b915061526683615290565b92508282101561527957615278615357565b5b828203905092915050565b60008115159050919050565b6000819050919050565b82818337600083830152505050565b60005b838110156152c75780820151818401526020810190506152ac565b838111156152d6576000848401525b50505050565b600060028204905060018216806152f457607f821691505b6020821081141561530857615307615386565b5b50919050565b600061531982615290565b91507fffffffffffffffffffffffffffffffffffffffffffffffffffffffffffffffff82141561534c5761534b615357565b5b600182019050919050565b7f4e487b7100000000000000000000000000000000000000000000000000000000600052601160045260246000fd5b7f4e487b7100000000000000000000000000000000000000000000000000000000600052602260045260246000fd5b7f4e487b7100000000000000000000000000000000000000000000000000000000600052604160045260246000fd5b6000601f19601f830116905091905056fea2646970667358221220add8d549c9f430d948e8c62bdc50afa67d2068d81d4afed65633abd4895729b364736f6c63430008000033",
  "linkReferences": {},
  "deployedLinkReferences": {}
}