{
  "_format": "hh-sol-artifact-1",
  "contractName": "FaceGuard",
  "sourceName": "contracts/FaceGuard.sol",
  "abi": [
    {
      "inputs": [],
      "stateMutability": "nonpayable",
      "type": "constructor"
    },
    {
      "anonymous": false,
      "inputs": [
        {
          "indexed": true,
          "internalType": "string",
          "name": "username",
          "type": "string"
        },
        {
          "indexed": false,
          "internalType": "string[]",
          "name": "oldFaceHashes",
          "type": "string[]"
        },
        {
          "indexed": false,
          "internalType": "string[]",
          "name": "newFaceHashes",
          "type": "string[]"
        }
      ],
      "name": "FaceHashUpdated",
      "type": "event"
    },
    {
      "anonymous": false,
      "inputs": [
        {
          "indexed": true,
          "internalType": "string",
          "name": "groupName",
          "type": "string"
        },
        {
          "indexed": false,
          "internalType": "string",
          "name": "oldAccessURL",
          "type": "string"
        },
        {
          "indexed": false,
          "internalType": "string",
          "name": "newAccessURL",
          "type": "string"
        }
      ],
      "name": "GroupAccessURLChanged",
      "type": "event"
    },
    {
      "anonymous": false,
      "inputs": [
        {
          "indexed": true,
          "internalType": "string",
          "name": "groupName",
          "type": "string"
        },
        {
          "indexed": false,
          "internalType": "string[]",
          "name": "permissions",
          "type": "string[]"
        }
      ],
      "name": "GroupCreated",
      "type": "event"
    },
    {
      "anonymous": false,
      "inputs": [
        {
          "indexed": true,
          "internalType": "string",
          "name": "originalGroupName",
          "type": "string"
        },
        {
          "indexed": false,
          "internalType": "string",
          "name": "newGroupName",
          "type": "string"
        }
      ],
      "name": "GroupNameUpdated",
      "type": "event"
    },
    {
      "anonymous": false,
      "inputs": [
        {
          "indexed": true,
          "internalType": "string",
          "name": "groupName",
          "type": "string"
        },
        {
          "indexed": false,
          "internalType": "string[]",
          "name": "permissions",
          "type": "string[]"
        }
      ],
      "name": "GroupPermissionsUpdated",
      "type": "event"
    },
    {
      "anonymous": false,
      "inputs": [
        {
          "indexed": true,
          "internalType": "string",
          "name": "groupNameIndexed",
          "type": "string"
        },
        {
          "indexed": false,
          "internalType": "string",
          "name": "groupName",
          "type": "string"
        }
      ],
      "name": "GroupRemoved",
      "type": "event"
    },
    {
      "anonymous": false,
      "inputs": [
        {
          "indexed": true,
          "internalType": "string",
          "name": "username",
          "type": "string"
        }
      ],
      "name": "PasswordChangeRequired",
      "type": "event"
    },
    {
      "anonymous": false,
      "inputs": [
        {
          "indexed": true,
          "internalType": "string",
          "name": "username",
          "type": "string"
        }
      ],
      "name": "PasswordUpdated",
      "type": "event"
    },
    {
      "anonymous": false,
      "inputs": [
        {
          "indexed": true,
          "internalType": "string",
          "name": "username",
          "type": "string"
        },
        {
          "indexed": true,
          "internalType": "string",
          "name": "groupNameIndexed",
          "type": "string"
        },
        {
          "indexed": false,
          "internalType": "string",
          "name": "groupName",
          "type": "string"
        }
      ],
      "name": "UserAddedToGroup",
      "type": "event"
    },
    {
      "anonymous": false,
      "inputs": [
        {
          "indexed": true,
          "internalType": "string",
          "name": "username",
          "type": "string"
        },
        {
          "indexed": false,
          "internalType": "string",
          "name": "oldEmail",
          "type": "string"
        },
        {
          "indexed": false,
          "internalType": "string",
          "name": "newEmail",
          "type": "string"
        }
      ],
      "name": "UserEmailUpdated",
      "type": "event"
    },
    {
      "anonymous": false,
      "inputs": [
        {
          "indexed": true,
          "internalType": "string",
          "name": "username",
          "type": "string"
        },
        {
          "indexed": false,
          "internalType": "string",
          "name": "oldFullName",
          "type": "string"
        },
        {
          "indexed": false,
          "internalType": "string",
          "name": "newFullName",
          "type": "string"
        }
      ],
      "name": "UserFullNameUpdated",
      "type": "event"
    },
    {
      "anonymous": false,
      "inputs": [
        {
          "indexed": true,
          "internalType": "string",
          "name": "username",
          "type": "string"
        }
      ],
      "name": "UserLoggedIn",
      "type": "event"
    },
    {
      "anonymous": false,
      "inputs": [
        {
          "indexed": true,
          "internalType": "string",
          "name": "username",
          "type": "string"
        }
      ],
      "name": "UserRegistered",
      "type": "event"
    },
    {
      "anonymous": false,
      "inputs": [
        {
          "indexed": false,
          "internalType": "string",
          "name": "username",
          "type": "string"
        }
      ],
      "name": "UserRemoved",
      "type": "event"
    },
    {
      "anonymous": false,
      "inputs": [
        {
          "indexed": true,
          "internalType": "string",
          "name": "username",
          "type": "string"
        },
        {
          "indexed": true,
          "internalType": "string",
          "name": "groupNameIndexed",
          "type": "string"
        },
        {
          "indexed": false,
          "internalType": "string",
          "name": "groupName",
          "type": "string"
        }
      ],
      "name": "UserRemovedFromGroup",
      "type": "event"
    },
    {
      "anonymous": false,
      "inputs": [
        {
          "indexed": true,
          "internalType": "string",
          "name": "username",
          "type": "string"
        },
        {
          "indexed": false,
          "internalType": "bool",
          "name": "enabled",
          "type": "bool"
        }
      ],
      "name": "UserToggled",
      "type": "event"
    },
    {
      "inputs": [
        {
          "internalType": "string",
          "name": "groupName",
          "type": "string"
        },
        {
          "internalType": "string",
          "name": "username",
          "type": "string"
        }
      ],
      "name": "addUserToGroup",
      "outputs": [],
      "stateMutability": "nonpayable",
      "type": "function"
    },
    {
      "inputs": [
        {
          "internalType": "string",
          "name": "username",
          "type": "string"
        }
      ],
      "name": "checkIfUserExists",
      "outputs": [
        {
          "internalType": "bool",
          "name": "",
          "type": "bool"
        }
      ],
      "stateMutability": "view",
      "type": "function"
    },
    {
      "inputs": [
        {
          "internalType": "string",
          "name": "groupName",
          "type": "string"
        },
        {
          "internalType": "string[]",
          "name": "permissions",
          "type": "string[]"
        }
      ],
      "name": "createGroup",
      "outputs": [],
      "stateMutability": "nonpayable",
      "type": "function"
    },
    {
      "inputs": [
        {
          "internalType": "string",
          "name": "username",
          "type": "string"
        }
      ],
      "name": "emitLoginSuccessLog",
      "outputs": [],
      "stateMutability": "nonpayable",
      "type": "function"
    },
    {
      "inputs": [],
      "name": "getAllGroups",
      "outputs": [
        {
          "internalType": "string[]",
          "name": "",
          "type": "string[]"
        }
      ],
      "stateMutability": "view",
      "type": "function"
    },
    {
      "inputs": [],
      "name": "getAllUsernames",
      "outputs": [
        {
          "internalType": "string[]",
          "name": "",
          "type": "string[]"
        }
      ],
      "stateMutability": "view",
      "type": "function"
    },
    {
      "inputs": [
        {
          "internalType": "string",
          "name": "groupName",
          "type": "string"
        }
      ],
      "name": "getGroup",
      "outputs": [
        {
          "internalType": "string",
          "name": "",
          "type": "string"
        },
        {
          "internalType": "string[]",
          "name": "",
          "type": "string[]"
        },
        {
          "internalType": "string[]",
          "name": "",
          "type": "string[]"
        },
        {
          "internalType": "string",
          "name": "",
          "type": "string"
        }
      ],
      "stateMutability": "view",
      "type": "function"
    },
    {
      "inputs": [
        {
          "internalType": "string",
          "name": "username",
          "type": "string"
        }
      ],
      "name": "getUser",
      "outputs": [
        {
          "internalType": "string",
          "name": "",
          "type": "string"
        },
        {
          "internalType": "string",
          "name": "",
          "type": "string"
        },
        {
          "internalType": "string[]",
          "name": "",
          "type": "string[]"
        },
        {
          "internalType": "string",
          "name": "",
          "type": "string"
        },
        {
          "internalType": "string",
          "name": "",
          "type": "string"
        },
        {
          "internalType": "bool",
          "name": "",
          "type": "bool"
        },
        {
          "internalType": "bool",
          "name": "",
          "type": "bool"
        },
        {
          "internalType": "string",
          "name": "",
          "type": "string"
        },
        {
          "internalType": "string",
          "name": "",
          "type": "string"
        }
      ],
      "stateMutability": "view",
      "type": "function"
    },
    {
      "inputs": [
        {
          "internalType": "string",
          "name": "username",
          "type": "string"
        }
      ],
      "name": "getUserFaceHashes",
      "outputs": [
        {
          "internalType": "string[]",
          "name": "",
          "type": "string[]"
        }
      ],
      "stateMutability": "view",
      "type": "function"
    },
    {
      "inputs": [
        {
          "internalType": "string",
          "name": "username",
          "type": "string"
        }
      ],
      "name": "getUserPermissions",
      "outputs": [
        {
          "internalType": "string[]",
          "name": "",
          "type": "string[]"
        }
      ],
      "stateMutability": "view",
      "type": "function"
    },
    {
      "inputs": [
        {
          "internalType": "string",
          "name": "username",
          "type": "string"
        },
        {
          "internalType": "string",
          "name": "passwordHash",
          "type": "string"
        },
        {
          "internalType": "string[]",
          "name": "initialFaceHashes",
          "type": "string[]"
        },
        {
          "internalType": "string",
          "name": "creationDate",
          "type": "string"
        }
      ],
      "name": "registerUser",
      "outputs": [],
      "stateMutability": "nonpayable",
      "type": "function"
    },
    {
      "inputs": [
        {
          "internalType": "string",
          "name": "groupName",
          "type": "string"
        }
      ],
      "name": "removeGroup",
      "outputs": [],
      "stateMutability": "nonpayable",
      "type": "function"
    },
    {
      "inputs": [
        {
          "internalType": "string",
          "name": "username",
          "type": "string"
        }
      ],
      "name": "removeUser",
      "outputs": [],
      "stateMutability": "nonpayable",
      "type": "function"
    },
    {
      "inputs": [
        {
          "internalType": "string",
          "name": "groupName",
          "type": "string"
        },
        {
          "internalType": "string",
          "name": "username",
          "type": "string"
        }
      ],
      "name": "removeUserFromGroup",
      "outputs": [],
      "stateMutability": "nonpayable",
      "type": "function"
    },
    {
      "inputs": [
        {
          "internalType": "string",
          "name": "username",
          "type": "string"
        }
      ],
      "name": "requireUserPasswordChange",
      "outputs": [],
      "stateMutability": "nonpayable",
      "type": "function"
    },
    {
      "inputs": [
        {
          "internalType": "string",
          "name": "groupName",
          "type": "string"
        },
        {
          "internalType": "string[]",
          "name": "groupPermissions",
          "type": "string[]"
        }
      ],
      "name": "setGroupPermissions",
      "outputs": [
        {
          "internalType": "string",
          "name": "",
          "type": "string"
        }
      ],
      "stateMutability": "nonpayable",
      "type": "function"
    },
    {
      "inputs": [
        {
          "internalType": "string",
          "name": "groupName",
          "type": "string"
        },
        {
          "internalType": "string",
          "name": "url",
          "type": "string"
        }
      ],
      "name": "setGroupURL",
      "outputs": [],
      "stateMutability": "nonpayable",
      "type": "function"
    },
    {
      "inputs": [
        {
          "internalType": "string",
          "name": "username",
          "type": "string"
        }
      ],
      "name": "toggleUser",
      "outputs": [],
      "stateMutability": "nonpayable",
      "type": "function"
    },
    {
      "inputs": [
        {
          "internalType": "string",
          "name": "originalGroupName",
          "type": "string"
        },
        {
          "internalType": "string",
          "name": "newGroupName",
          "type": "string"
        },
        {
          "internalType": "string[]",
          "name": "newPermissions",
          "type": "string[]"
        }
      ],
      "name": "updateGroup",
      "outputs": [],
      "stateMutability": "nonpayable",
      "type": "function"
    },
    {
      "inputs": [
        {
          "internalType": "string",
          "name": "username",
          "type": "string"
        },
        {
          "internalType": "string",
          "name": "newEmail",
          "type": "string"
        }
      ],
      "name": "updateUserEmail",
      "outputs": [],
      "stateMutability": "nonpayable",
      "type": "function"
    },
    {
      "inputs": [
        {
          "internalType": "string",
          "name": "username",
          "type": "string"
        },
        {
          "internalType": "string[]",
          "name": "newFaceHashes",
          "type": "string[]"
        }
      ],
      "name": "updateUserFaceHash",
      "outputs": [],
      "stateMutability": "nonpayable",
      "type": "function"
    },
    {
      "inputs": [
        {
          "internalType": "string",
          "name": "username",
          "type": "string"
        },
        {
          "internalType": "string",
          "name": "newFullName",
          "type": "string"
        }
      ],
      "name": "updateUserFullName",
      "outputs": [],
      "stateMutability": "nonpayable",
      "type": "function"
    },
    {
      "inputs": [
        {
          "internalType": "string",
          "name": "username",
          "type": "string"
        },
        {
          "internalType": "string",
          "name": "newPasswordHash",
          "type": "string"
        }
      ],
      "name": "updateUserPassword",
      "outputs": [],
      "stateMutability": "nonpayable",
      "type": "function"
    }
  ],
  "bytecode": "0x60806040526000600560006101000a81548160ff0219169083151502179055503480156200002c57600080fd5b5033600560016101000a81548173ffffffffffffffffffffffffffffffffffffffff021916908373ffffffffffffffffffffffffffffffffffffffff160217905550600060405180608001604052806040518060400160405280601581526020017f466163654775617264204372656174653a20416c6c000000000000000000000081525081526020016040518060400160405280601381526020017f46616365477561726420526561643a20416c6c0000000000000000000000000081525081526020016040518060400160405280601581526020017f466163654775617264205570646174653a20416c6c000000000000000000000081525081526020016040518060400160405280601581526020017f4661636547756172642044656c6574653a20416c6c00000000000000000000008152508152509050600060405180606001604052806040518060400160405280601481526020017f46616365477561726420526561643a2053656c6600000000000000000000000081525081526020016040518060400160405280601681526020017f466163654775617264205570646174653a2053656c660000000000000000000081525081526020016040518060400160405280601681526020017f4661636547756172642044656c6574653a2053656c66000000000000000000008152508152509050600060405180608001604052806040518060400160405280601881526020017f466163654775617264204372656174653a2047726f757073000000000000000081525081526020016040518060400160405280601681526020017f46616365477561726420526561643a2047726f7570730000000000000000000081525081526020016040518060400160405280601881526020017f466163654775617264205570646174653a2047726f757073000000000000000081525081526020016040518060400160405280601881526020017f4661636547756172642044656c6574653a2047726f75707300000000000000008152508152509050600060405180608001604052806040518060400160405280601781526020017f466163654775617264204372656174653a20557365727300000000000000000081525081526020016040518060400160405280601581526020017f46616365477561726420526561643a205573657273000000000000000000000081525081526020016040518060400160405280601781526020017f466163654775617264205570646174653a20557365727300000000000000000081525081526020016040518060400160405280601781526020017f4661636547756172642044656c6574653a20557365727300000000000000000081525081525090506200046e6040518060400160405280600e81526020017f41646d696e6973747261746f727300000000000000000000000000000000000081525062000462866200057d60201b60201c565b620006ac60201b60201c565b620004c56040518060400160405280600581526020017f5573657273000000000000000000000000000000000000000000000000000000815250620004b9856200091860201b60201c565b620006ac60201b60201c565b6200051c6040518060400160405280600e81526020017f47726f7570204d616e616765727300000000000000000000000000000000000081525062000510846200057d60201b60201c565b620006ac60201b60201c565b620005736040518060400160405280600d81526020017f55736572204d616e61676572730000000000000000000000000000000000000081525062000567836200057d60201b60201c565b620006ac60201b60201c565b5050505062000f46565b60606000600467ffffffffffffffff811115620005c3577f4e487b7100000000000000000000000000000000000000000000000000000000600052604160045260246000fd5b604051908082528060200260200182016040528015620005f857816020015b6060815260200190600190039081620005e25790505b50905060005b6004811015620006a25783816004811062000642577f4e487b7100000000000000000000000000000000000000000000000000000000600052603260045260246000fd5b602002015182828151811062000681577f4e487b7100000000000000000000000000000000000000000000000000000000600052603260045260246000fd5b60200260200101819052508080620006999062000e89565b915050620005fe565b5080915050919050565b600560019054906101000a900473ffffffffffffffffffffffffffffffffffffffff1673ffffffffffffffffffffffffffffffffffffffff163373ffffffffffffffffffffffffffffffffffffffff16146200073f576040517f08c379a0000000000000000000000000000000000000000000000000000000008152600401620007369062000d80565b60405180910390fd5b6040518060800160405280838152602001600067ffffffffffffffff81111562000792577f4e487b7100000000000000000000000000000000000000000000000000000000600052604160045260246000fd5b604051908082528060200260200182016040528015620007c757816020015b6060815260200190600190039081620007b15790505b50815260200182815260200160405180602001604052806000815250815250600183604051620007f8919062000d43565b908152602001604051809103902060008201518160000190805190602001906200082492919062000a47565b5060208201518160010190805190602001906200084392919062000ad8565b5060408201518160020190805190602001906200086292919062000ad8565b5060608201518160030190805190602001906200088192919062000a47565b50905050600382908060018154018082558091505060019003906000526020600020016000909190919091509080519060200190620008c292919062000a47565b5081604051620008d3919062000d43565b60405180910390207f64e45d769b067e3e2de0a2fbfa982b75ad4472af64e84e1c421ec5bbe695de0f826040516200090c919062000d5c565b60405180910390a25050565b60606000600367ffffffffffffffff8111156200095e577f4e487b7100000000000000000000000000000000000000000000000000000000600052604160045260246000fd5b6040519080825280602002602001820160405280156200099357816020015b60608152602001906001900390816200097d5790505b50905060005b600381101562000a3d57838160038110620009dd577f4e487b7100000000000000000000000000000000000000000000000000000000600052603260045260246000fd5b602002015182828151811062000a1c577f4e487b7100000000000000000000000000000000000000000000000000000000600052603260045260246000fd5b6020026020010181905250808062000a349062000e89565b91505062000999565b5080915050919050565b82805462000a559062000e53565b90600052602060002090601f01602090048101928262000a79576000855562000ac5565b82601f1062000a9457805160ff191683800117855562000ac5565b8280016001018555821562000ac5579182015b8281111562000ac457825182559160200191906001019062000aa7565b5b50905062000ad4919062000b3f565b5090565b82805482825590600052602060002090810192821562000b2c579160200282015b8281111562000b2b57825182908051906020019062000b1a92919062000a47565b509160200191906001019062000af9565b5b50905062000b3b919062000b5e565b5090565b5b8082111562000b5a57600081600090555060010162000b40565b5090565b5b8082111562000b82576000818162000b78919062000b86565b5060010162000b5f565b5090565b50805462000b949062000e53565b6000825580601f1062000ba8575062000bc9565b601f01602090049060005260206000209081019062000bc8919062000b3f565b5b50565b600062000bda838362000c63565b905092915050565b600062000bef8262000db2565b62000bfb818562000dd5565b93508360208202850162000c0f8562000da2565b8060005b8581101562000c51578484038952815162000c2f858262000bcc565b945062000c3c8362000dc8565b925060208a0199505060018101905062000c13565b50829750879550505050505092915050565b600062000c708262000dbd565b62000c7c818562000de6565b935062000c8e81856020860162000e1d565b62000c998162000f35565b840191505092915050565b600062000cb18262000dbd565b62000cbd818562000e08565b935062000ccf81856020860162000e1d565b80840191505092915050565b600062000cea602f8362000df7565b91507f4f6e6c792074686520636f6e7472616374206f776e65722063616e207065726660008301527f6f726d207468697320616374696f6e00000000000000000000000000000000006020830152604082019050919050565b600062000d51828462000ca4565b915081905092915050565b6000602082019050818103600083015262000d78818462000be2565b905092915050565b6000602082019050818103600083015262000d9b8162000cdb565b9050919050565b6000819050602082019050919050565b600081519050919050565b600081519050919050565b6000602082019050919050565b600082825260208201905092915050565b600082825260208201905092915050565b600082825260208201905092915050565b600081905092915050565b6000819050919050565b60005b8381101562000e3d57808201518184015260208101905062000e20565b8381111562000e4d576000848401525b50505050565b6000600282049050600182168062000e6c57607f821691505b6020821081141562000e835762000e8262000f06565b5b50919050565b600062000e968262000e13565b91507fffffffffffffffffffffffffffffffffffffffffffffffffffffffffffffffff82141562000ecc5762000ecb62000ed7565b5b600182019050919050565b7f4e487b7100000000000000000000000000000000000000000000000000000000600052601160045260246000fd5b7f4e487b7100000000000000000000000000000000000000000000000000000000600052602260045260246000fd5b6000601f19601f8301169050919050565b615d4a8062000f566000396000f3fe608060405234801561001057600080fd5b506004361061014d5760003560e01c80636246b310116100c3578063abef281e1161007c578063abef281e1461038a578063b9e6facb146103bd578063c91bc46c146103d9578063e537cac7146103f5578063ecb5a4d514610411578063ee1c55da1461042d5761014d565b80636246b310146102ce57806367753ba1146102ea5780636b228cde146103065780636cad1934146103225780637c77f39f146103525780638a0bd86b1461036e5761014d565b80632d09d9e9116101155780632d09d9e9146101f457806331feb671146102245780635108c3ab1461025c57806353620375146102785780635b9a6b1d14610296578063600cee78146102b25761014d565b806303df9e92146101525780630e63a8c41461016e5780631ae7f10a1461018a57806321cd3cae146101ba578063266c1bab146101d8575b600080fd5b61016c60048036038101906101679190614d80565b61045d565b005b61018860048036038101906101839190614dec565b61066b565b005b6101a4600480360381019061019f9190614d80565b610a89565b6040516101b19190615757565b60405180910390f35b6101c2610ee6565b6040516101cf91906156c1565b60405180910390f35b6101f260048036038101906101ed9190614dec565b610fbf565b005b61020e60048036038101906102099190614d3f565b611186565b60405161021b91906156c1565b60405180910390f35b61023e60048036038101906102399190614d3f565b611280565b60405161025399989796959493929190615811565b60405180910390f35b61027660048036038101906102719190614d3f565b6117a0565b005b610280611916565b60405161028d91906156c1565b60405180910390f35b6102b060048036038101906102ab9190614e58565b6119ef565b005b6102cc60048036038101906102c79190614d3f565b611fe3565b005b6102e860048036038101906102e39190614d3f565b6124bb565b005b61030460048036038101906102ff9190614dec565b612b9b565b005b610320600480360381019061031b9190614d3f565b613065565b005b61033c60048036038101906103379190614d3f565b61313a565b604051610349919061573c565b60405180910390f35b61036c60048036038101906103679190614d80565b613173565b005b61038860048036038101906103839190614dec565b6133c9565b005b6103a4600480360381019061039f9190614d3f565b613590565b6040516103b49493929190615779565b60405180910390f35b6103d760048036038101906103d29190614eef565b6139bd565b005b6103f360048036038101906103ee9190614dec565b613d30565b005b61040f600480360381019061040a9190614d3f565b613e75565b005b61042b60048036038101906104269190614dec565b613f84565b005b61044760048036038101906104429190614d3f565b6141b5565b60405161045491906156c1565b60405180910390f35b600560019054906101000a900473ffffffffffffffffffffffffffffffffffffffff1673ffffffffffffffffffffffffffffffffffffffff163373ffffffffffffffffffffffffffffffffffffffff16146104ed576040517f08c379a00000000000000000000000000000000000000000000000000000000081526004016104e49061594f565b60405180910390fd5b600080836040516104fe919061567e565b9081526020016040518091039020600201805480602002602001604051908101604052809291908181526020016000905b828210156105db57838290600052602060002001805461054e90615bfb565b80601f016020809104026020016040519081016040528092919081815260200182805461057a90615bfb565b80156105c75780601f1061059c576101008083540402835291602001916105c7565b820191906000526020600020905b8154815290600101906020018083116105aa57829003601f168201915b50505050508152602001906001019061052f565b505050509050816000846040516105f2919061567e565b90815260200160405180910390206002019080519060200190610616929190614946565b5082604051610625919061567e565b60405180910390207fc3ab2bd26c429f3b9ad2951ce386b67f5ef41f9ab09d8db62e412af51d594a40828460405161065e9291906156e3565b60405180910390a2505050565b600560019054906101000a900473ffffffffffffffffffffffffffffffffffffffff1673ffffffffffffffffffffffffffffffffffffffff163373ffffffffffffffffffffffffffffffffffffffff16146106fb576040517f08c379a00000000000000000000000000000000000000000000000000000000081526004016106f29061594f565b60405180910390fd5b600060018360405161070d919061567e565b9081526020016040518091039020600001805461072990615bfb565b90501161076b576040517f08c379a00000000000000000000000000000000000000000000000000000000081526004016107629061598f565b60405180910390fd5b600060405180608001604052806040518060400160405280600e81526020017f41646d696e6973747261746f727300000000000000000000000000000000000081525081526020016040518060400160405280600581526020017f557365727300000000000000000000000000000000000000000000000000000081525081526020016040518060400160405280600e81526020017f47726f7570204d616e616765727300000000000000000000000000000000000081525081526020016040518060400160405280600d81526020017f55736572204d616e616765727300000000000000000000000000000000000000815250815250905060005b600481101561094f578181600481106108a9577f4e487b7100000000000000000000000000000000000000000000000000000000600052603260045260246000fd5b60200201516040516020016108be919061567e565b60405160208183030381529060405280519060200120846040516020016108e5919061567e565b60405160208183030381529060405280519060200120141561093c576040517f08c379a00000000000000000000000000000000000000000000000000000000081526004016109339061590f565b60405180910390fd5b808061094790615c2d565b915050610867565b506000600184604051610962919061567e565b9081526020016040518091039020600301805461097e90615bfb565b80601f01602080910402602001604051908101604052809291908181526020018280546109aa90615bfb565b80156109f75780601f106109cc576101008083540402835291602001916109f7565b820191906000526020600020905b8154815290600101906020018083116109da57829003601f168201915b5050505050905082600185604051610a0f919061567e565b90815260200160405180910390206003019080519060200190610a339291906149a6565b5083604051610a42919061567e565b60405180910390207f275d6b91252f1dc72d77d577b868396e1119b938aca15a3e0d9f08a8436aefb08285604051610a7b9291906157da565b60405180910390a250505050565b6060600560019054906101000a900473ffffffffffffffffffffffffffffffffffffffff1673ffffffffffffffffffffffffffffffffffffffff163373ffffffffffffffffffffffffffffffffffffffff1614610b1b576040517f08c379a0000000000000000000000000000000000000000000000000000000008152600401610b129061594f565b60405180910390fd5b6000600184604051610b2d919061567e565b90815260200160405180910390206000018054610b4990615bfb565b905011610b8b576040517f08c379a0000000000000000000000000000000000000000000000000000000008152600401610b829061598f565b60405180910390fd5b600060405180608001604052806040518060400160405280600e81526020017f41646d696e6973747261746f727300000000000000000000000000000000000081525081526020016040518060400160405280600581526020017f557365727300000000000000000000000000000000000000000000000000000081525081526020016040518060400160405280600e81526020017f47726f7570204d616e616765727300000000000000000000000000000000000081525081526020016040518060400160405280600d81526020017f55736572204d616e616765727300000000000000000000000000000000000000815250815250905060005b6004811015610d6f57818160048110610cc9577f4e487b7100000000000000000000000000000000000000000000000000000000600052603260045260246000fd5b6020020151604051602001610cde919061567e565b6040516020818303038152906040528051906020012085604051602001610d05919061567e565b604051602081830303815290604052805190602001201415610d5c576040517f08c379a0000000000000000000000000000000000000000000000000000000008152600401610d539061590f565b60405180910390fd5b8080610d6790615c2d565b915050610c87565b5082600185604051610d81919061567e565b90815260200160405180910390206002019080519060200190610da5929190614946565b50600184604051610db6919061567e565b9081526020016040518091039020600001604051610dd49190615695565b60405180910390207f65d29756900166ea1a95042b775077b9e0c4b52e2ad303784b8fc75584de59ef600186604051610e0d919061567e565b9081526020016040518091039020600201604051610e2b919061571a565b60405180910390a2600184604051610e43919061567e565b90815260200160405180910390206000018054610e5f90615bfb565b80601f0160208091040260200160405190810160405280929190818152602001828054610e8b90615bfb565b8015610ed85780601f10610ead57610100808354040283529160200191610ed8565b820191906000526020600020905b815481529060010190602001808311610ebb57829003601f168201915b505050505091505092915050565b60606003805480602002602001604051908101604052809291908181526020016000905b82821015610fb6578382906000526020600020018054610f2990615bfb565b80601f0160208091040260200160405190810160405280929190818152602001828054610f5590615bfb565b8015610fa25780601f10610f7757610100808354040283529160200191610fa2565b820191906000526020600020905b815481529060010190602001808311610f8557829003601f168201915b505050505081526020019060010190610f0a565b50505050905090565b600560019054906101000a900473ffffffffffffffffffffffffffffffffffffffff1673ffffffffffffffffffffffffffffffffffffffff163373ffffffffffffffffffffffffffffffffffffffff161461104f576040517f08c379a00000000000000000000000000000000000000000000000000000000081526004016110469061594f565b60405180910390fd5b60008083604051611060919061567e565b9081526020016040518091039020600601805461107c90615bfb565b80601f01602080910402602001604051908101604052809291908181526020018280546110a890615bfb565b80156110f55780601f106110ca576101008083540402835291602001916110f5565b820191906000526020600020905b8154815290600101906020018083116110d857829003601f168201915b505050505090508160008460405161110d919061567e565b908152602001604051809103902060060190805190602001906111319291906149a6565b5082604051611140919061567e565b60405180910390207fcc1535b390217134b99857a8888766bbd62b45e9c4ee9436c1f1471790825f1382846040516111799291906157da565b60405180910390a2505050565b6060600082604051611198919061567e565b9081526020016040518091039020600201805480602002602001604051908101604052809291908181526020016000905b828210156112755783829060005260206000200180546111e890615bfb565b80601f016020809104026020016040519081016040528092919081815260200182805461121490615bfb565b80156112615780601f1061123657610100808354040283529160200191611261565b820191906000526020600020905b81548152906001019060200180831161124457829003601f168201915b5050505050815260200190600101906111c9565b505050509050919050565b60608060608060606000806060806000808b60405161129f919061567e565b9081526020016040518091039020604051806101400160405290816000820180546112c990615bfb565b80601f01602080910402602001604051908101604052809291908181526020018280546112f590615bfb565b80156113425780601f1061131757610100808354040283529160200191611342565b820191906000526020600020905b81548152906001019060200180831161132557829003601f168201915b5050505050815260200160018201805461135b90615bfb565b80601f016020809104026020016040519081016040528092919081815260200182805461138790615bfb565b80156113d45780601f106113a9576101008083540402835291602001916113d4565b820191906000526020600020905b8154815290600101906020018083116113b757829003601f168201915b5050505050815260200160028201805480602002602001604051908101604052809291908181526020016000905b828210156114ae57838290600052602060002001805461142190615bfb565b80601f016020809104026020016040519081016040528092919081815260200182805461144d90615bfb565b801561149a5780601f1061146f5761010080835404028352916020019161149a565b820191906000526020600020905b81548152906001019060200180831161147d57829003601f168201915b505050505081526020019060010190611402565b5050505081526020016003820180546114c690615bfb565b80601f01602080910402602001604051908101604052809291908181526020018280546114f290615bfb565b801561153f5780601f106115145761010080835404028352916020019161153f565b820191906000526020600020905b81548152906001019060200180831161152257829003601f168201915b5050505050815260200160048201805461155890615bfb565b80601f016020809104026020016040519081016040528092919081815260200182805461158490615bfb565b80156115d15780601f106115a6576101008083540402835291602001916115d1565b820191906000526020600020905b8154815290600101906020018083116115b457829003601f168201915b505050505081526020016005820160009054906101000a900460ff161515151581526020016005820160019054906101000a900460ff161515151581526020016005820160029054906101000a900460ff1615151515815260200160068201805461163b90615bfb565b80601f016020809104026020016040519081016040528092919081815260200182805461166790615bfb565b80156116b45780601f10611689576101008083540402835291602001916116b4565b820191906000526020600020905b81548152906001019060200180831161169757829003601f168201915b505050505081526020016007820180546116cd90615bfb565b80601f01602080910402602001604051908101604052809291908181526020018280546116f990615bfb565b80156117465780601f1061171b57610100808354040283529160200191611746565b820191906000526020600020905b81548152906001019060200180831161172957829003601f168201915b5050505050815250509050806000015181602001518260400151836060015184608001518560a001518660e00151876101000151886101200151995099509950995099509950995099509950509193959799909294969850565b600560019054906101000a900473ffffffffffffffffffffffffffffffffffffffff1673ffffffffffffffffffffffffffffffffffffffff163373ffffffffffffffffffffffffffffffffffffffff1614611830576040517f08c379a00000000000000000000000000000000000000000000000000000000081526004016118279061594f565b60405180910390fd5b600081604051611840919061567e565b908152602001604051809103902060050160029054906101000a900460ff1615600082604051611870919061567e565b908152602001604051809103902060050160026101000a81548160ff021916908315150217905550806040516118a6919061567e565b60405180910390207f9b1a1e5131c18ee5fd8454b3b435b1b36127bd0c05686d9fc6190d638bcb14996000836040516118df919061567e565b908152602001604051809103902060050160029054906101000a900460ff1660405161190b919061573c565b60405180910390a250565b60606002805480602002602001604051908101604052809291908181526020016000905b828210156119e657838290600052602060002001805461195990615bfb565b80601f016020809104026020016040519081016040528092919081815260200182805461198590615bfb565b80156119d25780601f106119a7576101008083540402835291602001916119d2565b820191906000526020600020905b8154815290600101906020018083116119b557829003601f168201915b50505050508152602001906001019061193a565b50505050905090565b600560019054906101000a900473ffffffffffffffffffffffffffffffffffffffff1673ffffffffffffffffffffffffffffffffffffffff163373ffffffffffffffffffffffffffffffffffffffff1614611a7f576040517f08c379a0000000000000000000000000000000000000000000000000000000008152600401611a769061594f565b60405180910390fd5b6000600184604051611a91919061567e565b90815260200160405180910390206000018054611aad90615bfb565b905011611aef576040517f08c379a0000000000000000000000000000000000000000000000000000000008152600401611ae69061598f565b60405180910390fd5b600060405180608001604052806040518060400160405280600e81526020017f41646d696e6973747261746f727300000000000000000000000000000000000081525081526020016040518060400160405280600581526020017f557365727300000000000000000000000000000000000000000000000000000081525081526020016040518060400160405280600e81526020017f47726f7570204d616e616765727300000000000000000000000000000000000081525081526020016040518060400160405280600d81526020017f55736572204d616e616765727300000000000000000000000000000000000000815250815250905060005b6004811015611cd357818160048110611c2d577f4e487b7100000000000000000000000000000000000000000000000000000000600052603260045260246000fd5b6020020151604051602001611c42919061567e565b6040516020818303038152906040528051906020012085604051602001611c69919061567e565b604051602081830303815290604052805190602001201415611cc0576040517f08c379a0000000000000000000000000000000000000000000000000000000008152600401611cb79061596f565b60405180910390fd5b8080611ccb90615c2d565b915050611beb565b50611cde8483610a89565b5082604051602001611cf0919061567e565b6040516020818303038152906040528051906020012084604051602001611d17919061567e565b6040516020818303038152906040528051906020012014611fdd57600184604051611d42919061567e565b9081526020016040518091039020600184604051611d60919061567e565b90815260200160405180910390206000820181600001908054611d8290615bfb565b611d8d929190614a2c565b506001820181600101908054611da4929190614ab9565b506002820181600201908054611dbb929190614ab9565b506003820181600301908054611dd090615bfb565b611ddb929190614a2c565b5090505082600184604051611df0919061567e565b90815260200160405180910390206000019080519060200190611e149291906149a6565b50600184604051611e25919061567e565b908152602001604051809103902060008082016000611e449190614b21565b600182016000611e549190614b61565b600282016000611e649190614b61565b600382016000611e749190614b21565b505060005b600380549050811015611f8e5784604051602001611e97919061567e565b6040516020818303038152906040528051906020012060038281548110611ee7577f4e487b7100000000000000000000000000000000000000000000000000000000600052603260045260246000fd5b90600052602060002001604051602001611f019190615695565b604051602081830303815290604052805190602001201415611f7b578360038281548110611f58577f4e487b7100000000000000000000000000000000000000000000000000000000600052603260045260246000fd5b906000526020600020019080519060200190611f759291906149a6565b50611f8e565b8080611f8690615c2d565b915050611e79565b5083604051611f9d919061567e565b60405180910390207f364b226b5f086e2e247d242241146270270074b8e63461b564298285dfdb087884604051611fd49190615757565b60405180910390a25b50505050565b600560019054906101000a900473ffffffffffffffffffffffffffffffffffffffff1673ffffffffffffffffffffffffffffffffffffffff163373ffffffffffffffffffffffffffffffffffffffff1614612073576040517f08c379a000000000000000000000000000000000000000000000000000000000815260040161206a9061594f565b60405180910390fd5b60008082604051612084919061567e565b908152602001604051809103902060000180546120a090615bfb565b9050116120e2576040517f08c379a00000000000000000000000000000000000000000000000000000000081526004016120d9906159cf565b60405180910390fd5b60046040516020016120f49190615695565b604051602081830303815290604052805190602001208160405160200161211b919061567e565b604051602081830303815290604052805190602001201415612172576040517f08c379a00000000000000000000000000000000000000000000000000000000081526004016121699061592f565b60405180910390fd5b6001600560006101000a81548160ff0219169083151502179055506121cc6040518060400160405280600581526020017f557365727300000000000000000000000000000000000000000000000000000081525082612b9b565b6000600560006101000a81548160ff0219169083151502179055506000805b6002805490508110156123b25782604051602001612209919061567e565b6040516020818303038152906040528051906020012060028281548110612259577f4e487b7100000000000000000000000000000000000000000000000000000000600052603260045260246000fd5b906000526020600020016040516020016122739190615695565b60405160208183030381529060405280519060200120141561239f5760019150600260016002805490506122a79190615b6f565b815481106122de577f4e487b7100000000000000000000000000000000000000000000000000000000600052603260045260246000fd5b9060005260206000200160028281548110612322577f4e487b7100000000000000000000000000000000000000000000000000000000600052603260045260246000fd5b9060005260206000200190805461233890615bfb565b612343929190614b82565b50600280548061237c577f4e487b7100000000000000000000000000000000000000000000000000000000600052603160045260246000fd5b6001900381819060005260206000200160006123989190614b21565b90556123b2565b80806123aa90615c2d565b9150506121eb565b506000826040516123c3919061567e565b9081526020016040518091039020600080820160006123e29190614b21565b6001820160006123f29190614b21565b6002820160006124029190614b61565b6003820160006124129190614b21565b6004820160006124229190614b21565b6005820160006101000a81549060ff02191690556005820160016101000a81549060ff02191690556005820160026101000a81549060ff021916905560068201600061246e9190614b21565b60078201600061247e9190614b21565b50507f5b8514bf599ab0e7b72a3b2d47ae13677daa88ebbf833cea7bad37b6df49ede3826040516124af9190615757565b60405180910390a15050565b600560019054906101000a900473ffffffffffffffffffffffffffffffffffffffff1673ffffffffffffffffffffffffffffffffffffffff163373ffffffffffffffffffffffffffffffffffffffff161461254b576040517f08c379a00000000000000000000000000000000000000000000000000000000081526004016125429061594f565b60405180910390fd5b600060018260405161255d919061567e565b9081526020016040518091039020600001805461257990615bfb565b9050116125bb576040517f08c379a00000000000000000000000000000000000000000000000000000000081526004016125b29061598f565b60405180910390fd5b600060405180608001604052806040518060400160405280600e81526020017f41646d696e6973747261746f727300000000000000000000000000000000000081525081526020016040518060400160405280600581526020017f557365727300000000000000000000000000000000000000000000000000000081525081526020016040518060400160405280600e81526020017f47726f7570204d616e616765727300000000000000000000000000000000000081525081526020016040518060400160405280600d81526020017f55736572204d616e616765727300000000000000000000000000000000000000815250815250905060005b600481101561279f578181600481106126f9577f4e487b7100000000000000000000000000000000000000000000000000000000600052603260045260246000fd5b602002015160405160200161270e919061567e565b6040516020818303038152906040528051906020012083604051602001612735919061567e565b60405160208183030381529060405280519060200120141561278c576040517f08c379a0000000000000000000000000000000000000000000000000000000008152600401612783906159af565b60405180910390fd5b808061279790615c2d565b9150506126b7565b506000805b600380549050811015612aa757836040516020016127c2919061567e565b6040516020818303038152906040528051906020012060038281548110612812577f4e487b7100000000000000000000000000000000000000000000000000000000600052603260045260246000fd5b9060005260206000200160405160200161282c9190615695565b604051602081830303815290604052805190602001201415612a945760019150600060038281548110612888577f4e487b7100000000000000000000000000000000000000000000000000000000600052603260045260246000fd5b90600052602060002001805461289d90615bfb565b80601f01602080910402602001604051908101604052809291908181526020018280546128c990615bfb565b80156129165780601f106128eb57610100808354040283529160200191612916565b820191906000526020600020905b8154815290600101906020018083116128f957829003601f168201915b50505050509050600360016003805490506129319190615b6f565b81548110612968577f4e487b7100000000000000000000000000000000000000000000000000000000600052603260045260246000fd5b90600052602060002001600383815481106129ac577f4e487b7100000000000000000000000000000000000000000000000000000000600052603260045260246000fd5b906000526020600020019080546129c290615bfb565b6129cd929190614b82565b5080600360016003805490506129e39190615b6f565b81548110612a1a577f4e487b7100000000000000000000000000000000000000000000000000000000600052603260045260246000fd5b906000526020600020019080519060200190612a379291906149a6565b506003805480612a70577f4e487b7100000000000000000000000000000000000000000000000000000000600052603160045260246000fd5b600190038181906000526020600020016000612a8c9190614b21565b905550612aa7565b8080612a9f90615c2d565b9150506127a4565b5080612ae8576040517f08c379a0000000000000000000000000000000000000000000000000000000008152600401612adf906158cf565b60405180910390fd5b600183604051612af8919061567e565b908152602001604051809103902060008082016000612b179190614b21565b600182016000612b279190614b61565b600282016000612b379190614b61565b600382016000612b479190614b21565b505082604051612b57919061567e565b60405180910390207f07386a1c2a0cc80496a77c2fdc90bc93764d5fa75567f9dd3cb6513fdfb7e3ae84604051612b8e9190615757565b60405180910390a2505050565b600560019054906101000a900473ffffffffffffffffffffffffffffffffffffffff1673ffffffffffffffffffffffffffffffffffffffff163373ffffffffffffffffffffffffffffffffffffffff1614612c2b576040517f08c379a0000000000000000000000000000000000000000000000000000000008152600401612c229061594f565b60405180910390fd5b6000600183604051612c3d919061567e565b90815260200160405180910390206000018054612c5990615bfb565b905011612c9b576040517f08c379a0000000000000000000000000000000000000000000000000000000008152600401612c929061598f565b60405180910390fd5b60008082604051612cac919061567e565b90815260200160405180910390206000018054612cc890615bfb565b905011612d0a576040517f08c379a0000000000000000000000000000000000000000000000000000000008152600401612d01906159ef565b60405180910390fd5b60001515600560009054906101000a900460ff1615151415612db457604051602001612d35906156ac565b6040516020818303038152906040528051906020012082604051602001612d5c919061567e565b604051602081830303815290604052805190602001201415612db3576040517f08c379a0000000000000000000000000000000000000000000000000000000008152600401612daa906158ef565b60405180910390fd5b5b6000600183604051612dc6919061567e565b908152602001604051809103902060010190506000805b8280549050811015612f9e5783604051602001612dfa919061567e565b60405160208183030381529060405280519060200120838281548110612e49577f4e487b7100000000000000000000000000000000000000000000000000000000600052603260045260246000fd5b90600052602060002001604051602001612e639190615695565b604051602081830303815290604052805190602001201415612f8b57600191508260018480549050612e959190615b6f565b81548110612ecc577f4e487b7100000000000000000000000000000000000000000000000000000000600052603260045260246000fd5b90600052602060002001838281548110612f0f577f4e487b7100000000000000000000000000000000000000000000000000000000600052603260045260246000fd5b90600052602060002001908054612f2590615bfb565b612f30929190614b82565b5082805480612f68577f4e487b7100000000000000000000000000000000000000000000000000000000600052603160045260246000fd5b600190038181906000526020600020016000612f849190614b21565b9055612f9e565b8080612f9690615c2d565b915050612ddd565b5060001515600560009054906101000a900460ff1615151415612ffc5780612ffb576040517f08c379a0000000000000000000000000000000000000000000000000000000008152600401612ff290615a0f565b60405180910390fd5b5b8360405161300a919061567e565b604051809103902083604051613020919061567e565b60405180910390207fb1732b736a2c3992176f914fe619cdc4cd9e4e2b2162e1a9ed48d9d38f1493e5866040516130579190615757565b60405180910390a350505050565b600560019054906101000a900473ffffffffffffffffffffffffffffffffffffffff1673ffffffffffffffffffffffffffffffffffffffff163373ffffffffffffffffffffffffffffffffffffffff16146130f5576040517f08c379a00000000000000000000000000000000000000000000000000000000081526004016130ec9061594f565b60405180910390fd5b80604051613103919061567e565b60405180910390207f66ece5ba82771921bdbfdb2bf2e469359fdecc21f7a2dc5b5e978e84fe9ad20960405160405180910390a250565b60008060008360405161314d919061567e565b9081526020016040518091039020600001805461316990615bfb565b9050119050919050565b600560019054906101000a900473ffffffffffffffffffffffffffffffffffffffff1673ffffffffffffffffffffffffffffffffffffffff163373ffffffffffffffffffffffffffffffffffffffff1614613203576040517f08c379a00000000000000000000000000000000000000000000000000000000081526004016131fa9061594f565b60405180910390fd5b6040518060800160405280838152602001600067ffffffffffffffff811115613255577f4e487b7100000000000000000000000000000000000000000000000000000000600052604160045260246000fd5b60405190808252806020026020018201604052801561328857816020015b60608152602001906001900390816132735790505b508152602001828152602001604051806020016040528060008152508152506001836040516132b7919061567e565b908152602001604051809103902060008201518160000190805190602001906132e19291906149a6565b5060208201518160010190805190602001906132fe929190614946565b50604082015181600201908051906020019061331b929190614946565b5060608201518160030190805190602001906133389291906149a6565b509050506003829080600181540180825580915050600190039060005260206000200160009091909190915090805190602001906133779291906149a6565b5081604051613386919061567e565b60405180910390207f64e45d769b067e3e2de0a2fbfa982b75ad4472af64e84e1c421ec5bbe695de0f826040516133bd91906156c1565b60405180910390a25050565b600560019054906101000a900473ffffffffffffffffffffffffffffffffffffffff1673ffffffffffffffffffffffffffffffffffffffff163373ffffffffffffffffffffffffffffffffffffffff1614613459576040517f08c379a00000000000000000000000000000000000000000000000000000000081526004016134509061594f565b60405180910390fd5b6000808360405161346a919061567e565b9081526020016040518091039020600701805461348690615bfb565b80601f01602080910402602001604051908101604052809291908181526020018280546134b290615bfb565b80156134ff5780601f106134d4576101008083540402835291602001916134ff565b820191906000526020600020905b8154815290600101906020018083116134e257829003601f168201915b5050505050905081600084604051613517919061567e565b9081526020016040518091039020600701908051906020019061353b9291906149a6565b508260405161354a919061567e565b60405180910390207f761bd9ed45e855f17b06454b8c624a18672818f8993e77686bcce7a8f70b265582846040516135839291906157da565b60405180910390a2505050565b606080606080600560019054906101000a900473ffffffffffffffffffffffffffffffffffffffff1673ffffffffffffffffffffffffffffffffffffffff163373ffffffffffffffffffffffffffffffffffffffff1614613626576040517f08c379a000000000000000000000000000000000000000000000000000000000815260040161361d9061594f565b60405180910390fd5b6000600186604051613638919061567e565b9081526020016040518091039020600001805461365490615bfb565b905011613696576040517f08c379a000000000000000000000000000000000000000000000000000000000815260040161368d9061598f565b60405180910390fd5b60006001866040516136a8919061567e565b90815260200160405180910390206040518060800160405290816000820180546136d190615bfb565b80601f01602080910402602001604051908101604052809291908181526020018280546136fd90615bfb565b801561374a5780601f1061371f5761010080835404028352916020019161374a565b820191906000526020600020905b81548152906001019060200180831161372d57829003601f168201915b5050505050815260200160018201805480602002602001604051908101604052809291908181526020016000905b8282101561382457838290600052602060002001805461379790615bfb565b80601f01602080910402602001604051908101604052809291908181526020018280546137c390615bfb565b80156138105780601f106137e557610100808354040283529160200191613810565b820191906000526020600020905b8154815290600101906020018083116137f357829003601f168201915b505050505081526020019060010190613778565b50505050815260200160028201805480602002602001604051908101604052809291908181526020016000905b828210156138fd57838290600052602060002001805461387090615bfb565b80601f016020809104026020016040519081016040528092919081815260200182805461389c90615bfb565b80156138e95780601f106138be576101008083540402835291602001916138e9565b820191906000526020600020905b8154815290600101906020018083116138cc57829003601f168201915b505050505081526020019060010190613851565b50505050815260200160038201805461391590615bfb565b80601f016020809104026020016040519081016040528092919081815260200182805461394190615bfb565b801561398e5780601f106139635761010080835404028352916020019161398e565b820191906000526020600020905b81548152906001019060200180831161397157829003601f168201915b505050505081525050905080600001518160400151826020015183606001519450945094509450509193509193565b600560019054906101000a900473ffffffffffffffffffffffffffffffffffffffff1673ffffffffffffffffffffffffffffffffffffffff163373ffffffffffffffffffffffffffffffffffffffff1614613a4d576040517f08c379a0000000000000000000000000000000000000000000000000000000008152600401613a449061594f565b60405180910390fd5b60405180610140016040528085815260200184815260200183815260200182815260200182815260200160001515815260200160001515815260200160011515815260200160405180602001604052806000815250815260200160405180602001604052806000815250815250600085604051613aca919061567e565b90815260200160405180910390206000820151816000019080519060200190613af49291906149a6565b506020820151816001019080519060200190613b119291906149a6565b506040820151816002019080519060200190613b2e929190614946565b506060820151816003019080519060200190613b4b9291906149a6565b506080820151816004019080519060200190613b689291906149a6565b5060a08201518160050160006101000a81548160ff02191690831515021790555060c08201518160050160016101000a81548160ff02191690831515021790555060e08201518160050160026101000a81548160ff021916908315150217905550610100820151816006019080519060200190613be69291906149a6565b50610120820151816007019080519060200190613c049291906149a6565b50905050600284908060018154018082558091505060019003906000526020600020016000909190919091509080519060200190613c439291906149a6565b50613c836040518060400160405280600581526020017f557365727300000000000000000000000000000000000000000000000000000081525085613f84565b83604051613c91919061567e565b60405180910390207f270ff4b111e5baa49283562af127cc5ea74e9d6c9efd5465578bd9223d5843f060405160405180910390a260016002805490501415613d2a57613d126040518060400160405280600e81526020017f41646d696e6973747261746f727300000000000000000000000000000000000081525085613f84565b8360049080519060200190613d289291906149a6565b505b50505050565b600560019054906101000a900473ffffffffffffffffffffffffffffffffffffffff1673ffffffffffffffffffffffffffffffffffffffff163373ffffffffffffffffffffffffffffffffffffffff1614613dc0576040517f08c379a0000000000000000000000000000000000000000000000000000000008152600401613db79061594f565b60405180910390fd5b80600083604051613dd1919061567e565b90815260200160405180910390206001019080519060200190613df59291906149a6565b5060008083604051613e07919061567e565b908152602001604051809103902060050160016101000a81548160ff02191690831515021790555081604051613e3d919061567e565b60405180910390207fd0b43b0b96083c98cc0f0370575812de87ee48ff1bde30bcd74f3518443bc4f560405160405180910390a25050565b600560019054906101000a900473ffffffffffffffffffffffffffffffffffffffff1673ffffffffffffffffffffffffffffffffffffffff163373ffffffffffffffffffffffffffffffffffffffff1614613f05576040517f08c379a0000000000000000000000000000000000000000000000000000000008152600401613efc9061594f565b60405180910390fd5b6001600082604051613f17919061567e565b908152602001604051809103902060050160016101000a81548160ff02191690831515021790555080604051613f4d919061567e565b60405180910390207f926f593dd22175375135b3fd9428c5d0298a5665da18756555b6af9f305ab9a660405160405180910390a250565b600560019054906101000a900473ffffffffffffffffffffffffffffffffffffffff1673ffffffffffffffffffffffffffffffffffffffff163373ffffffffffffffffffffffffffffffffffffffff1614614014576040517f08c379a000000000000000000000000000000000000000000000000000000000815260040161400b9061594f565b60405180910390fd5b6000600183604051614026919061567e565b9081526020016040518091039020600001805461404290615bfb565b905011614084576040517f08c379a000000000000000000000000000000000000000000000000000000000815260040161407b9061598f565b60405180910390fd5b60008082604051614095919061567e565b908152602001604051809103902060000180546140b190615bfb565b9050116140f3576040517f08c379a00000000000000000000000000000000000000000000000000000000081526004016140ea906159ef565b60405180910390fd5b600182604051614103919061567e565b90815260200160405180910390206001018190806001815401808255809150506001900390600052602060002001600090919091909150908051906020019061414d9291906149a6565b508160405161415c919061567e565b604051809103902081604051614172919061567e565b60405180910390207f88660d90a50050ca9a3dc40508709d6f9b1f057a360eca907d347ae286e058d8846040516141a99190615757565b60405180910390a35050565b6060600080836040516141c8919061567e565b908152602001604051809103902060000180546141e490615bfb565b905011614226576040517f08c379a000000000000000000000000000000000000000000000000000000000815260040161421d906159ef565b60405180910390fd5b600060038054905067ffffffffffffffff81111561426d577f4e487b7100000000000000000000000000000000000000000000000000000000600052604160045260246000fd5b6040519080825280602002602001820160405280156142a057816020015b606081526020019060019003908161428b5790505b5090506000805b6003805490508110156144d05760006001600383815481106142f2577f4e487b7100000000000000000000000000000000000000000000000000000000600052603260045260246000fd5b906000526020600020016040516143099190615695565b9081526020016040518091039020905060005b81600101805490508110156144bb578660405160200161433c919061567e565b6040516020818303038152906040528051906020012082600101828154811061438e577f4e487b7100000000000000000000000000000000000000000000000000000000600052603260045260246000fd5b906000526020600020016040516020016143a89190615695565b6040516020818303038152906040528051906020012014156144a8578160000180546143d390615bfb565b80601f01602080910402602001604051908101604052809291908181526020018280546143ff90615bfb565b801561444c5780601f106144215761010080835404028352916020019161444c565b820191906000526020600020905b81548152906001019060200180831161442f57829003601f168201915b505050505085858151811061448a577f4e487b7100000000000000000000000000000000000000000000000000000000600052603260045260246000fd5b602002602001018190525083806144a090615c2d565b9450506144bb565b80806144b390615c2d565b91505061431c565b505080806144c890615c2d565b9150506142a7565b506000603267ffffffffffffffff811115614514577f4e487b7100000000000000000000000000000000000000000000000000000000600052604160045260246000fd5b60405190808252806020026020018201604052801561454757816020015b60608152602001906001900390816145325790505b5090506000805b8381101561481c576000858281518110614591577f4e487b7100000000000000000000000000000000000000000000000000000000600052603260045260246000fd5b6020026020010151905060006001826040516145ad919061567e565b9081526020016040518091039020600201905060005b8180549050811015614806576000805b868110156146cd57838381548110614614577f4e487b7100000000000000000000000000000000000000000000000000000000600052603260045260246000fd5b9060005260206000200160405160200161462e9190615695565b6040516020818303038152906040528051906020012088828151811061467d577f4e487b7100000000000000000000000000000000000000000000000000000000600052603260045260246000fd5b6020026020010151604051602001614695919061567e565b6040516020818303038152906040528051906020012014156146ba57600191506146cd565b80806146c590615c2d565b9150506145d3565b50806147f25782828154811061470c577f4e487b7100000000000000000000000000000000000000000000000000000000600052603260045260246000fd5b90600052602060002001805461472190615bfb565b80601f016020809104026020016040519081016040528092919081815260200182805461474d90615bfb565b801561479a5780601f1061476f5761010080835404028352916020019161479a565b820191906000526020600020905b81548152906001019060200180831161477d57829003601f168201915b50505050508787815181106147d8577f4e487b7100000000000000000000000000000000000000000000000000000000600052603260045260246000fd5b602002602001018190525085806147ee90615c2d565b9650505b5080806147fe90615c2d565b9150506145c3565b505050808061481490615c2d565b91505061454e565b5060008167ffffffffffffffff81111561485f577f4e487b7100000000000000000000000000000000000000000000000000000000600052604160045260246000fd5b60405190808252806020026020018201604052801561489257816020015b606081526020019060019003908161487d5790505b50905060005b82811015614938578381815181106148d9577f4e487b7100000000000000000000000000000000000000000000000000000000600052603260045260246000fd5b602002602001015182828151811061491a577f4e487b7100000000000000000000000000000000000000000000000000000000600052603260045260246000fd5b6020026020010181905250808061493090615c2d565b915050614898565b508095505050505050919050565b828054828255906000526020600020908101928215614995579160200282015b828111156149945782518290805190602001906149849291906149a6565b5091602001919060010190614966565b5b5090506149a29190614c0f565b5090565b8280546149b290615bfb565b90600052602060002090601f0160209004810192826149d45760008555614a1b565b82601f106149ed57805160ff1916838001178555614a1b565b82800160010185558215614a1b579182015b82811115614a1a5782518255916020019190600101906149ff565b5b509050614a289190614c33565b5090565b828054614a3890615bfb565b90600052602060002090601f016020900481019282614a5a5760008555614aa8565b82601f10614a6b5780548555614aa8565b82800160010185558215614aa857600052602060002091601f016020900482015b82811115614aa7578254825591600101919060010190614a8c565b5b509050614ab59190614c33565b5090565b828054828255906000526020600020908101928215614b105760005260206000209182015b82811115614b0f578282908054614af490615bfb565b614aff929190614a2c565b5091600101919060010190614ade565b5b509050614b1d9190614c0f565b5090565b508054614b2d90615bfb565b6000825580601f10614b3f5750614b5e565b601f016020900490600052602060002090810190614b5d9190614c33565b5b50565b5080546000825590600052602060002090810190614b7f9190614c0f565b50565b828054614b8e90615bfb565b90600052602060002090601f016020900481019282614bb05760008555614bfe565b82601f10614bc15780548555614bfe565b82800160010185558215614bfe57600052602060002091601f016020900482015b82811115614bfd578254825591600101919060010190614be2565b5b509050614c0b9190614c33565b5090565b5b80821115614c2f5760008181614c269190614b21565b50600101614c10565b5090565b5b80821115614c4c576000816000905550600101614c34565b5090565b6000614c63614c5e84615a60565b615a2f565b9050808382526020820190508260005b85811015614ca35781358501614c898882614d15565b845260208401935060208301925050600181019050614c73565b5050509392505050565b6000614cc0614cbb84615a8c565b615a2f565b905082815260208101848484011115614cd857600080fd5b614ce3848285615bb9565b509392505050565b600082601f830112614cfc57600080fd5b8135614d0c848260208601614c50565b91505092915050565b600082601f830112614d2657600080fd5b8135614d36848260208601614cad565b91505092915050565b600060208284031215614d5157600080fd5b600082013567ffffffffffffffff811115614d6b57600080fd5b614d7784828501614d15565b91505092915050565b60008060408385031215614d9357600080fd5b600083013567ffffffffffffffff811115614dad57600080fd5b614db985828601614d15565b925050602083013567ffffffffffffffff811115614dd657600080fd5b614de285828601614ceb565b9150509250929050565b60008060408385031215614dff57600080fd5b600083013567ffffffffffffffff811115614e1957600080fd5b614e2585828601614d15565b925050602083013567ffffffffffffffff811115614e4257600080fd5b614e4e85828601614d15565b9150509250929050565b600080600060608486031215614e6d57600080fd5b600084013567ffffffffffffffff811115614e8757600080fd5b614e9386828701614d15565b935050602084013567ffffffffffffffff811115614eb057600080fd5b614ebc86828701614d15565b925050604084013567ffffffffffffffff811115614ed957600080fd5b614ee586828701614ceb565b9150509250925092565b60008060008060808587031215614f0557600080fd5b600085013567ffffffffffffffff811115614f1f57600080fd5b614f2b87828801614d15565b945050602085013567ffffffffffffffff811115614f4857600080fd5b614f5487828801614d15565b935050604085013567ffffffffffffffff811115614f7157600080fd5b614f7d87828801614ceb565b925050606085013567ffffffffffffffff811115614f9a57600080fd5b614fa687828801614d15565b91505092959194509250565b6000614fbe83836150d2565b905092915050565b6000614fd28383615175565b905092915050565b6000614fe582615af6565b614fef8185615b31565b93508360208202850161500185615abc565b8060005b8581101561503d578484038952815161501e8582614fb2565b945061502983615b17565b925060208a01995050600181019050615005565b50829750879550505050505092915050565b600061505a82615b01565b6150648185615b31565b93508360208202850161507685615acc565b8060005b858110156150b1578484038952816150928582614fc6565b945061509d83615b24565b925060208a0199505060018101905061507a565b50829750879550505050505092915050565b6150cc81615ba3565b82525050565b60006150dd82615b0c565b6150e78185615b42565b93506150f7818560208601615bc8565b61510081615d03565b840191505092915050565b600061511682615b0c565b6151208185615b53565b9350615130818560208601615bc8565b61513981615d03565b840191505092915050565b600061514f82615b0c565b6151598185615b64565b9350615169818560208601615bc8565b80840191505092915050565b6000815461518281615bfb565b61518c8186615b42565b945060018216600081146151a757600181146151b9576151ec565b60ff19831686526020860193506151ec565b6151c285615ae1565b60005b838110156151e4578154818901526001820191506020810190506151c5565b808801955050505b50505092915050565b6000815461520281615bfb565b61520c8186615b64565b9450600182166000811461522757600181146152385761526b565b60ff1983168652818601935061526b565b61524185615ae1565b60005b8381101561526357815481890152600182019150602081019050615244565b838801955050505b50505092915050565b6000615281602083615b53565b91507f47726f7570206e6f7420666f756e6420696e20616c6c47726f75704e616d65736000830152602082019050919050565b60006152c1603383615b53565b91507f52656d6f76696e672075736572732066726f6d2074686520557365727320677260008301527f6f7570206973206e6f7420616c6c6f77656421000000000000000000000000006020830152604082019050919050565b6000615327600583615b64565b91507f55736572730000000000000000000000000000000000000000000000000000006000830152600582019050919050565b6000615367602f83615b53565b91507f4d6f64696679696e6720636f72652067726f7570207065726d697373696f6e7360008301527f206973206e6f7420616c6c6f77656400000000000000000000000000000000006020830152604082019050919050565b60006153cd604283615b53565b91507f44656c6574696e6720746865206f726967696e616c20736d61727420636f6e7460008301527f726163742061646d696e6973747261746f72206973206e6f7420616c6c6f776560208301527f64210000000000000000000000000000000000000000000000000000000000006040830152606082019050919050565b6000615459602f83615b53565b91507f4f6e6c792074686520636f6e7472616374206f776e65722063616e207065726660008301527f6f726d207468697320616374696f6e00000000000000000000000000000000006020830152604082019050919050565b60006154bf603c83615b53565b91507f4d6f64696679696e6720636f72652067726f7570206e616d657320616e642f6f60008301527f72207065726d697373696f6e73206973206e6f7420616c6c6f776564000000006020830152604082019050919050565b6000615525601483615b53565b91507f47726f757020646f6573206e6f742065786973740000000000000000000000006000830152602082019050919050565b6000615565602483615b53565b91507f44656c6574696e67206120636f72652067726f7570206973206e6f7420616c6c60008301527f6f776564000000000000000000000000000000000000000000000000000000006020830152604082019050919050565b60006155cb601483615b53565b91507f5573657220646f6573206e6f74206578697374210000000000000000000000006000830152602082019050919050565b600061560b601383615b53565b91507f5573657220646f6573206e6f74206578697374000000000000000000000000006000830152602082019050919050565b600061564b601983615b53565b91507f55736572206973206e6f7420696e20746869732067726f7570000000000000006000830152602082019050919050565b600061568a8284615144565b915081905092915050565b60006156a182846151f5565b915081905092915050565b60006156b78261531a565b9150819050919050565b600060208201905081810360008301526156db8184614fda565b905092915050565b600060408201905081810360008301526156fd8185614fda565b905081810360208301526157118184614fda565b90509392505050565b60006020820190508181036000830152615734818461504f565b905092915050565b600060208201905061575160008301846150c3565b92915050565b60006020820190508181036000830152615771818461510b565b905092915050565b60006080820190508181036000830152615793818761510b565b905081810360208301526157a78186614fda565b905081810360408301526157bb8185614fda565b905081810360608301526157cf818461510b565b905095945050505050565b600060408201905081810360008301526157f4818561510b565b90508181036020830152615808818461510b565b90509392505050565b600061012082019050818103600083015261582c818c61510b565b90508181036020830152615840818b61510b565b90508181036040830152615854818a614fda565b90508181036060830152615868818961510b565b9050818103608083015261587c818861510b565b905061588b60a08301876150c3565b61589860c08301866150c3565b81810360e08301526158aa818561510b565b90508181036101008301526158bf818461510b565b90509a9950505050505050505050565b600060208201905081810360008301526158e881615274565b9050919050565b60006020820190508181036000830152615908816152b4565b9050919050565b600060208201905081810360008301526159288161535a565b9050919050565b60006020820190508181036000830152615948816153c0565b9050919050565b600060208201905081810360008301526159688161544c565b9050919050565b60006020820190508181036000830152615988816154b2565b9050919050565b600060208201905081810360008301526159a881615518565b9050919050565b600060208201905081810360008301526159c881615558565b9050919050565b600060208201905081810360008301526159e8816155be565b9050919050565b60006020820190508181036000830152615a08816155fe565b9050919050565b60006020820190508181036000830152615a288161563e565b9050919050565b6000604051905081810181811067ffffffffffffffff82111715615a5657615a55615cd4565b5b8060405250919050565b600067ffffffffffffffff821115615a7b57615a7a615cd4565b5b602082029050602081019050919050565b600067ffffffffffffffff821115615aa757615aa6615cd4565b5b601f19601f8301169050602081019050919050565b6000819050602082019050919050565b60008190508160005260206000209050919050565b60008190508160005260206000209050919050565b600081519050919050565b600081549050919050565b600081519050919050565b6000602082019050919050565b6000600182019050919050565b600082825260208201905092915050565b600082825260208201905092915050565b600082825260208201905092915050565b600081905092915050565b6000615b7a82615baf565b9150615b8583615baf565b925082821015615b9857615b97615c76565b5b828203905092915050565b60008115159050919050565b6000819050919050565b82818337600083830152505050565b60005b83811015615be6578082015181840152602081019050615bcb565b83811115615bf5576000848401525b50505050565b60006002820490506001821680615c1357607f821691505b60208210811415615c2757615c26615ca5565b5b50919050565b6000615c3882615baf565b91507fffffffffffffffffffffffffffffffffffffffffffffffffffffffffffffffff821415615c6b57615c6a615c76565b5b600182019050919050565b7f4e487b7100000000000000000000000000000000000000000000000000000000600052601160045260246000fd5b7f4e487b7100000000000000000000000000000000000000000000000000000000600052602260045260246000fd5b7f4e487b7100000000000000000000000000000000000000000000000000000000600052604160045260246000fd5b6000601f19601f830116905091905056fea264697066735822122095c3c899cbd8962639e538e6ac51dde567f3d6f1a0dce0bd9d5de78b07e9d48764736f6c63430008000033",
  "linkReferences": {},
  "deployedLinkReferences": {}
}