{
  "_format": "hh-sol-artifact-1",
  "contractName": "FaceGuard",
  "sourceName": "contracts/FaceGuard.sol",
  "abi": [
    {
      "inputs": [],
      "stateMutability": "nonpayable",
      "type": "constructor"
    },
    {
      "anonymous": false,
      "inputs": [
        {
          "indexed": false,
          "internalType": "string",
          "name": "username",
          "type": "string"
        }
      ],
      "name": "FaceHashUpdated",
      "type": "event"
    },
    {
      "anonymous": false,
      "inputs": [
        {
          "indexed": false,
          "internalType": "string",
          "name": "groupName",
          "type": "string"
        },
        {
          "indexed": false,
          "internalType": "string[]",
          "name": "permissions",
          "type": "string[]"
        }
      ],
      "name": "GroupCreated",
      "type": "event"
    },
    {
      "anonymous": false,
      "inputs": [
        {
          "indexed": false,
          "internalType": "string",
          "name": "originalGroupName",
          "type": "string"
        },
        {
          "indexed": false,
          "internalType": "string",
          "name": "newGroupName",
          "type": "string"
        }
      ],
      "name": "GroupNameUpdated",
      "type": "event"
    },
    {
      "anonymous": false,
      "inputs": [
        {
          "indexed": false,
          "internalType": "string",
          "name": "groupName",
          "type": "string"
        },
        {
          "indexed": false,
          "internalType": "string[]",
          "name": "permissions",
          "type": "string[]"
        }
      ],
      "name": "GroupPermissionsUpdated",
      "type": "event"
    },
    {
      "anonymous": false,
      "inputs": [
        {
          "indexed": false,
          "internalType": "string",
          "name": "groupName",
          "type": "string"
        }
      ],
      "name": "GroupRemoved",
      "type": "event"
    },
    {
      "anonymous": false,
      "inputs": [
        {
          "indexed": false,
          "internalType": "string",
          "name": "username",
          "type": "string"
        }
      ],
      "name": "PasswordChangeRequired",
      "type": "event"
    },
    {
      "anonymous": false,
      "inputs": [
        {
          "indexed": false,
          "internalType": "string",
          "name": "username",
          "type": "string"
        }
      ],
      "name": "PasswordUpdated",
      "type": "event"
    },
    {
      "anonymous": false,
      "inputs": [
        {
          "indexed": false,
          "internalType": "string",
          "name": "username",
          "type": "string"
        }
      ],
      "name": "PermissionsUpdated",
      "type": "event"
    },
    {
      "anonymous": false,
      "inputs": [
        {
          "indexed": false,
          "internalType": "string",
          "name": "username",
          "type": "string"
        },
        {
          "indexed": false,
          "internalType": "string",
          "name": "groupName",
          "type": "string"
        }
      ],
      "name": "UserAddedToGroup",
      "type": "event"
    },
    {
      "anonymous": false,
      "inputs": [
        {
          "indexed": false,
          "internalType": "string",
          "name": "username",
          "type": "string"
        }
      ],
      "name": "UserRegistered",
      "type": "event"
    },
    {
      "anonymous": false,
      "inputs": [
        {
          "indexed": false,
          "internalType": "string",
          "name": "username",
          "type": "string"
        },
        {
          "indexed": false,
          "internalType": "string",
          "name": "groupName",
          "type": "string"
        }
      ],
      "name": "UserRemovedFromGroup",
      "type": "event"
    },
    {
      "anonymous": false,
      "inputs": [
        {
          "indexed": false,
          "internalType": "string",
          "name": "username",
          "type": "string"
        },
        {
          "indexed": false,
          "internalType": "bool",
          "name": "enabled",
          "type": "bool"
        }
      ],
      "name": "UserToggled",
      "type": "event"
    },
    {
      "inputs": [
        {
          "internalType": "string",
          "name": "groupName",
          "type": "string"
        },
        {
          "internalType": "string",
          "name": "username",
          "type": "string"
        }
      ],
      "name": "addUserToGroup",
      "outputs": [],
      "stateMutability": "nonpayable",
      "type": "function"
    },
    {
      "inputs": [
        {
          "internalType": "string",
          "name": "username",
          "type": "string"
        }
      ],
      "name": "checkIfUserExists",
      "outputs": [
        {
          "internalType": "bool",
          "name": "",
          "type": "bool"
        }
      ],
      "stateMutability": "view",
      "type": "function"
    },
    {
      "inputs": [
        {
          "internalType": "string",
          "name": "groupName",
          "type": "string"
        },
        {
          "internalType": "string[]",
          "name": "permissions",
          "type": "string[]"
        }
      ],
      "name": "createGroup",
      "outputs": [],
      "stateMutability": "nonpayable",
      "type": "function"
    },
    {
      "inputs": [],
      "name": "getAllGroups",
      "outputs": [
        {
          "internalType": "string[]",
          "name": "",
          "type": "string[]"
        }
      ],
      "stateMutability": "view",
      "type": "function"
    },
    {
      "inputs": [],
      "name": "getAllUsernames",
      "outputs": [
        {
          "internalType": "string[]",
          "name": "",
          "type": "string[]"
        }
      ],
      "stateMutability": "view",
      "type": "function"
    },
    {
      "inputs": [
        {
          "internalType": "string",
          "name": "groupName",
          "type": "string"
        }
      ],
      "name": "getGroup",
      "outputs": [
        {
          "internalType": "string",
          "name": "",
          "type": "string"
        },
        {
          "internalType": "string[]",
          "name": "",
          "type": "string[]"
        },
        {
          "internalType": "string[]",
          "name": "",
          "type": "string[]"
        }
      ],
      "stateMutability": "view",
      "type": "function"
    },
    {
      "inputs": [
        {
          "internalType": "string",
          "name": "username",
          "type": "string"
        }
      ],
      "name": "getUser",
      "outputs": [
        {
          "internalType": "string",
          "name": "",
          "type": "string"
        },
        {
          "internalType": "string",
          "name": "",
          "type": "string"
        },
        {
          "internalType": "string[]",
          "name": "",
          "type": "string[]"
        },
        {
          "internalType": "string",
          "name": "",
          "type": "string"
        },
        {
          "internalType": "string",
          "name": "",
          "type": "string"
        },
        {
          "internalType": "bool",
          "name": "",
          "type": "bool"
        },
        {
          "internalType": "bool",
          "name": "",
          "type": "bool"
        }
      ],
      "stateMutability": "view",
      "type": "function"
    },
    {
      "inputs": [
        {
          "internalType": "string",
          "name": "username",
          "type": "string"
        }
      ],
      "name": "getUserFaceHashes",
      "outputs": [
        {
          "internalType": "string[]",
          "name": "",
          "type": "string[]"
        }
      ],
      "stateMutability": "view",
      "type": "function"
    },
    {
      "inputs": [
        {
          "internalType": "string",
          "name": "username",
          "type": "string"
        }
      ],
      "name": "getUserPermissions",
      "outputs": [
        {
          "internalType": "string[]",
          "name": "",
          "type": "string[]"
        }
      ],
      "stateMutability": "view",
      "type": "function"
    },
    {
      "inputs": [
        {
          "internalType": "string",
          "name": "username",
          "type": "string"
        },
        {
          "internalType": "string",
          "name": "passwordHash",
          "type": "string"
        },
        {
          "internalType": "string[]",
          "name": "initialFaceHashes",
          "type": "string[]"
        },
        {
          "internalType": "string",
          "name": "creationDate",
          "type": "string"
        }
      ],
      "name": "registerUser",
      "outputs": [],
      "stateMutability": "nonpayable",
      "type": "function"
    },
    {
      "inputs": [
        {
          "internalType": "string",
          "name": "groupName",
          "type": "string"
        }
      ],
      "name": "removeGroup",
      "outputs": [],
      "stateMutability": "nonpayable",
      "type": "function"
    },
    {
      "inputs": [
        {
          "internalType": "string",
          "name": "groupName",
          "type": "string"
        },
        {
          "internalType": "string",
          "name": "username",
          "type": "string"
        }
      ],
      "name": "removeUserFromGroup",
      "outputs": [],
      "stateMutability": "nonpayable",
      "type": "function"
    },
    {
      "inputs": [
        {
          "internalType": "string",
          "name": "username",
          "type": "string"
        }
      ],
      "name": "requireUserPasswordChange",
      "outputs": [],
      "stateMutability": "nonpayable",
      "type": "function"
    },
    {
      "inputs": [
        {
          "internalType": "string",
          "name": "groupName",
          "type": "string"
        },
        {
          "internalType": "string[]",
          "name": "groupPermissions",
          "type": "string[]"
        }
      ],
      "name": "setGroupPermissions",
      "outputs": [
        {
          "internalType": "string",
          "name": "",
          "type": "string"
        }
      ],
      "stateMutability": "nonpayable",
      "type": "function"
    },
    {
      "inputs": [
        {
          "internalType": "string",
          "name": "username",
          "type": "string"
        }
      ],
      "name": "toggleUser",
      "outputs": [],
      "stateMutability": "nonpayable",
      "type": "function"
    },
    {
      "inputs": [
        {
          "internalType": "string",
          "name": "originalGroupName",
          "type": "string"
        },
        {
          "internalType": "string",
          "name": "newGroupName",
          "type": "string"
        },
        {
          "internalType": "string[]",
          "name": "newPermissions",
          "type": "string[]"
        }
      ],
      "name": "updateGroup",
      "outputs": [],
      "stateMutability": "nonpayable",
      "type": "function"
    },
    {
      "inputs": [
        {
          "internalType": "string",
          "name": "username",
          "type": "string"
        },
        {
          "internalType": "string[]",
          "name": "newFaceHashes",
          "type": "string[]"
        }
      ],
      "name": "updateUserFaceHash",
      "outputs": [],
      "stateMutability": "nonpayable",
      "type": "function"
    },
    {
      "inputs": [
        {
          "internalType": "string",
          "name": "username",
          "type": "string"
        },
        {
          "internalType": "string",
          "name": "newPasswordHash",
          "type": "string"
        }
      ],
      "name": "updateUserPassword",
      "outputs": [],
      "stateMutability": "nonpayable",
      "type": "function"
    }
  ],
  "bytecode": "0x60806040523480156200001157600080fd5b5033600460006101000a81548173ffffffffffffffffffffffffffffffffffffffff021916908373ffffffffffffffffffffffffffffffffffffffff160217905550600060405180608001604052806040518060400160405280601581526020017f466163654775617264204372656174653a20416c6c000000000000000000000081525081526020016040518060400160405280601381526020017f46616365477561726420526561643a20416c6c0000000000000000000000000081525081526020016040518060400160405280601581526020017f466163654775617264205570646174653a20416c6c000000000000000000000081525081526020016040518060400160405280601581526020017f4661636547756172642044656c6574653a20416c6c00000000000000000000008152508152509050600060405180606001604052806040518060400160405280601481526020017f46616365477561726420526561643a2053656c6600000000000000000000000081525081526020016040518060400160405280601681526020017f466163654775617264205570646174653a2053656c660000000000000000000081525081526020016040518060400160405280601681526020017f4661636547756172642044656c6574653a2053656c66000000000000000000008152508152509050600060405180608001604052806040518060400160405280601881526020017f466163654775617264204372656174653a2047726f757073000000000000000081525081526020016040518060400160405280601681526020017f46616365477561726420526561643a2047726f7570730000000000000000000081525081526020016040518060400160405280601881526020017f466163654775617264205570646174653a2047726f757073000000000000000081525081526020016040518060400160405280601881526020017f4661636547756172642044656c6574653a2047726f75707300000000000000008152508152509050600060405180608001604052806040518060400160405280601781526020017f466163654775617264204372656174653a20557365727300000000000000000081525081526020016040518060400160405280601581526020017f46616365477561726420526561643a205573657273000000000000000000000081525081526020016040518060400160405280601781526020017f466163654775617264205570646174653a20557365727300000000000000000081525081526020016040518060400160405280601781526020017f4661636547756172642044656c6574653a2055736572730000000000000000008152508152509050620004536040518060400160405280600e81526020017f41646d696e6973747261746f727300000000000000000000000000000000000081525062000447866200056260201b60201c565b6200069160201b60201c565b620004aa6040518060400160405280600581526020017f55736572730000000000000000000000000000000000000000000000000000008152506200049e85620008b360201b60201c565b6200069160201b60201c565b620005016040518060400160405280600e81526020017f47726f7570204d616e6167657273000000000000000000000000000000000000815250620004f5846200056260201b60201c565b6200069160201b60201c565b620005586040518060400160405280600d81526020017f55736572204d616e6167657273000000000000000000000000000000000000008152506200054c836200056260201b60201c565b6200069160201b60201c565b5050505062000f39565b60606000600467ffffffffffffffff811115620005a8577f4e487b7100000000000000000000000000000000000000000000000000000000600052604160045260246000fd5b604051908082528060200260200182016040528015620005dd57816020015b6060815260200190600190039081620005c75790505b50905060005b6004811015620006875783816004811062000627577f4e487b7100000000000000000000000000000000000000000000000000000000600052603260045260246000fd5b602002015182828151811062000666577f4e487b7100000000000000000000000000000000000000000000000000000000600052603260045260246000fd5b602002602001018190525080806200067e9062000e7c565b915050620005e3565b5080915050919050565b600460009054906101000a900473ffffffffffffffffffffffffffffffffffffffff1673ffffffffffffffffffffffffffffffffffffffff163373ffffffffffffffffffffffffffffffffffffffff161462000724576040517f08c379a00000000000000000000000000000000000000000000000000000000081526004016200071b9062000d73565b60405180910390fd5b6040518060600160405280838152602001600067ffffffffffffffff81111562000777577f4e487b7100000000000000000000000000000000000000000000000000000000600052604160045260246000fd5b604051908082528060200260200182016040528015620007ac57816020015b6060815260200190600190039081620007965790505b50815260200182815250600183604051620007c8919062000d1f565b90815260200160405180910390206000820151816000019080519060200190620007f4929190620009e2565b5060208201518160010190805190602001906200081392919062000a73565b5060408201518160020190805190602001906200083292919062000a73565b5090505060038290806001815401808255809150506001900390600052602060002001600090919091909150908051906020019062000873929190620009e2565b507f64e45d769b067e3e2de0a2fbfa982b75ad4472af64e84e1c421ec5bbe695de0f8282604051620008a792919062000d38565b60405180910390a15050565b60606000600367ffffffffffffffff811115620008f9577f4e487b7100000000000000000000000000000000000000000000000000000000600052604160045260246000fd5b6040519080825280602002602001820160405280156200092e57816020015b6060815260200190600190039081620009185790505b50905060005b6003811015620009d85783816003811062000978577f4e487b7100000000000000000000000000000000000000000000000000000000600052603260045260246000fd5b6020020151828281518110620009b7577f4e487b7100000000000000000000000000000000000000000000000000000000600052603260045260246000fd5b60200260200101819052508080620009cf9062000e7c565b91505062000934565b5080915050919050565b828054620009f09062000e46565b90600052602060002090601f01602090048101928262000a14576000855562000a60565b82601f1062000a2f57805160ff191683800117855562000a60565b8280016001018555821562000a60579182015b8281111562000a5f57825182559160200191906001019062000a42565b5b50905062000a6f919062000ada565b5090565b82805482825590600052602060002090810192821562000ac7579160200282015b8281111562000ac657825182908051906020019062000ab5929190620009e2565b509160200191906001019062000a94565b5b50905062000ad6919062000af9565b5090565b5b8082111562000af557600081600090555060010162000adb565b5090565b5b8082111562000b1d576000818162000b13919062000b21565b5060010162000afa565b5090565b50805462000b2f9062000e46565b6000825580601f1062000b43575062000b64565b601f01602090049060005260206000209081019062000b63919062000ada565b5b50565b600062000b75838362000bfe565b905092915050565b600062000b8a8262000da5565b62000b96818562000dc8565b93508360208202850162000baa8562000d95565b8060005b8581101562000bec578484038952815162000bca858262000b67565b945062000bd78362000dbb565b925060208a0199505060018101905062000bae565b50829750879550505050505092915050565b600062000c0b8262000db0565b62000c17818562000dd9565b935062000c2981856020860162000e10565b62000c348162000f28565b840191505092915050565b600062000c4c8262000db0565b62000c58818562000dea565b935062000c6a81856020860162000e10565b62000c758162000f28565b840191505092915050565b600062000c8d8262000db0565b62000c99818562000dfb565b935062000cab81856020860162000e10565b80840191505092915050565b600062000cc6602f8362000dea565b91507f4f6e6c792074686520636f6e7472616374206f776e65722063616e207065726660008301527f6f726d207468697320616374696f6e00000000000000000000000000000000006020830152604082019050919050565b600062000d2d828462000c80565b915081905092915050565b6000604082019050818103600083015262000d54818562000c3f565b9050818103602083015262000d6a818462000b7d565b90509392505050565b6000602082019050818103600083015262000d8e8162000cb7565b9050919050565b6000819050602082019050919050565b600081519050919050565b600081519050919050565b6000602082019050919050565b600082825260208201905092915050565b600082825260208201905092915050565b600082825260208201905092915050565b600081905092915050565b6000819050919050565b60005b8381101562000e3057808201518184015260208101905062000e13565b8381111562000e40576000848401525b50505050565b6000600282049050600182168062000e5f57607f821691505b6020821081141562000e765762000e7562000ef9565b5b50919050565b600062000e898262000e06565b91507fffffffffffffffffffffffffffffffffffffffffffffffffffffffffffffffff82141562000ebf5762000ebe62000eca565b5b600182019050919050565b7f4e487b7100000000000000000000000000000000000000000000000000000000600052601160045260246000fd5b7f4e487b7100000000000000000000000000000000000000000000000000000000600052602260045260246000fd5b6000601f19601f8301169050919050565b61460f8062000f496000396000f3fe608060405234801561001057600080fd5b50600436106101165760003560e01c806367753ba1116100a2578063b9e6facb11610071578063b9e6facb146102f7578063c91bc46c14610313578063e537cac71461032f578063ecb5a4d51461034b578063ee1c55da1461036757610116565b806367753ba11461025d5780636cad1934146102795780637c77f39f146102a9578063abef281e146102c557610116565b806331feb671116100e957806331feb671146101b55780635108c3ab146101eb57806353620375146102075780635b9a6b1d146102255780636246b3101461024157610116565b806303df9e921461011b5780631ae7f10a1461013757806321cd3cae146101675780632d09d9e914610185575b600080fd5b610135600480360381019061013091906138b4565b610397565b005b610151600480360381019061014c91906138b4565b610498565b60405161015e919061405f565b60405180910390f35b61016f6108e1565b60405161017c9190614022565b60405180910390f35b61019f600480360381019061019a9190613873565b6109ba565b6040516101ac9190614022565b60405180910390f35b6101cf60048036038101906101ca9190613873565b610ab4565b6040516101e2979695949392919061416b565b60405180910390f35b61020560048036038101906102009190613873565b610e9b565b005b61020f610ffd565b60405161021c9190614022565b60405180910390f35b61023f600480360381019061023a919061398c565b6110d6565b005b61025b60048036038101906102569190613873565b611686565b005b61027760048036038101906102729190613920565b611c04565b005b610293600480360381019061028e9190613873565b611fdd565b6040516102a09190614044565b60405180910390f35b6102c360048036038101906102be91906138b4565b612016565b005b6102df60048036038101906102da9190613873565b612226565b6040516102ee939291906140b8565b60405180910390f35b610311600480360381019061030c9190613a23565b6125b9565b005b61032d60048036038101906103289190613920565b6128a4565b005b61034960048036038101906103449190613873565b6129de565b005b61036560048036038101906103609190613920565b612ae2565b005b610381600480360381019061037c9190613873565b612ce9565b60405161038e9190614022565b60405180910390f35b600460009054906101000a900473ffffffffffffffffffffffffffffffffffffffff1673ffffffffffffffffffffffffffffffffffffffff163373ffffffffffffffffffffffffffffffffffffffff1614610427576040517f08c379a000000000000000000000000000000000000000000000000000000000815260040161041e90614274565b60405180910390fd5b806000836040516104389190613ff4565b9081526020016040518091039020600201908051906020019061045c92919061347a565b507feb1060ec96e942d51b0f7b8b00c334c5c6da57c48f5ef56937468d28d0ee347a8260405161048c919061405f565b60405180910390a15050565b6060600460009054906101000a900473ffffffffffffffffffffffffffffffffffffffff1673ffffffffffffffffffffffffffffffffffffffff163373ffffffffffffffffffffffffffffffffffffffff161461052a576040517f08c379a000000000000000000000000000000000000000000000000000000000815260040161052190614274565b60405180910390fd5b600060018460405161053c9190613ff4565b90815260200160405180910390206000018054610558906144c0565b90501161059a576040517f08c379a000000000000000000000000000000000000000000000000000000000815260040161059190614294565b60405180910390fd5b600060405180608001604052806040518060400160405280600e81526020017f41646d696e6973747261746f727300000000000000000000000000000000000081525081526020016040518060400160405280600581526020017f557365727300000000000000000000000000000000000000000000000000000081525081526020016040518060400160405280600e81526020017f47726f7570204d616e616765727300000000000000000000000000000000000081525081526020016040518060400160405280600d81526020017f55736572204d616e616765727300000000000000000000000000000000000000815250815250905060005b600481101561077e578181600481106106d8577f4e487b7100000000000000000000000000000000000000000000000000000000600052603260045260246000fd5b60200201516040516020016106ed9190613ff4565b60405160208183030381529060405280519060200120856040516020016107149190613ff4565b60405160208183030381529060405280519060200120141561076b576040517f08c379a000000000000000000000000000000000000000000000000000000000815260040161076290614254565b60405180910390fd5b8080610776906144f2565b915050610696565b50826001856040516107909190613ff4565b908152602001604051809103902060020190805190602001906107b492919061347a565b507f65d29756900166ea1a95042b775077b9e0c4b52e2ad303784b8fc75584de59ef6001856040516107e69190613ff4565b90815260200160405180910390206000016001866040516108079190613ff4565b90815260200160405180910390206002016040516108269291906141fd565b60405180910390a160018460405161083e9190613ff4565b9081526020016040518091039020600001805461085a906144c0565b80601f0160208091040260200160405190810160405280929190818152602001828054610886906144c0565b80156108d35780601f106108a8576101008083540402835291602001916108d3565b820191906000526020600020905b8154815290600101906020018083116108b657829003601f168201915b505050505091505092915050565b60606003805480602002602001604051908101604052809291908181526020016000905b828210156109b1578382906000526020600020018054610924906144c0565b80601f0160208091040260200160405190810160405280929190818152602001828054610950906144c0565b801561099d5780601f106109725761010080835404028352916020019161099d565b820191906000526020600020905b81548152906001019060200180831161098057829003601f168201915b505050505081526020019060010190610905565b50505050905090565b60606000826040516109cc9190613ff4565b9081526020016040518091039020600201805480602002602001604051908101604052809291908181526020016000905b82821015610aa9578382906000526020600020018054610a1c906144c0565b80601f0160208091040260200160405190810160405280929190818152602001828054610a48906144c0565b8015610a955780601f10610a6a57610100808354040283529160200191610a95565b820191906000526020600020905b815481529060010190602001808311610a7857829003601f168201915b5050505050815260200190600101906109fd565b505050509050919050565b606080606080606060008060008089604051610ad09190613ff4565b908152602001604051809103902060405180610100016040529081600082018054610afa906144c0565b80601f0160208091040260200160405190810160405280929190818152602001828054610b26906144c0565b8015610b735780601f10610b4857610100808354040283529160200191610b73565b820191906000526020600020905b815481529060010190602001808311610b5657829003601f168201915b50505050508152602001600182018054610b8c906144c0565b80601f0160208091040260200160405190810160405280929190818152602001828054610bb8906144c0565b8015610c055780601f10610bda57610100808354040283529160200191610c05565b820191906000526020600020905b815481529060010190602001808311610be857829003601f168201915b5050505050815260200160028201805480602002602001604051908101604052809291908181526020016000905b82821015610cdf578382906000526020600020018054610c52906144c0565b80601f0160208091040260200160405190810160405280929190818152602001828054610c7e906144c0565b8015610ccb5780601f10610ca057610100808354040283529160200191610ccb565b820191906000526020600020905b815481529060010190602001808311610cae57829003601f168201915b505050505081526020019060010190610c33565b505050508152602001600382018054610cf7906144c0565b80601f0160208091040260200160405190810160405280929190818152602001828054610d23906144c0565b8015610d705780601f10610d4557610100808354040283529160200191610d70565b820191906000526020600020905b815481529060010190602001808311610d5357829003601f168201915b50505050508152602001600482018054610d89906144c0565b80601f0160208091040260200160405190810160405280929190818152602001828054610db5906144c0565b8015610e025780601f10610dd757610100808354040283529160200191610e02565b820191906000526020600020905b815481529060010190602001808311610de557829003601f168201915b505050505081526020016005820160009054906101000a900460ff161515151581526020016005820160019054906101000a900460ff161515151581526020016005820160029054906101000a900460ff1615151515815250509050806000015181602001518260400151836060015184608001518560a001518660e00151975097509750975097509750975050919395979092949650565b600460009054906101000a900473ffffffffffffffffffffffffffffffffffffffff1673ffffffffffffffffffffffffffffffffffffffff163373ffffffffffffffffffffffffffffffffffffffff1614610f2b576040517f08c379a0000000000000000000000000000000000000000000000000000000008152600401610f2290614274565b60405180910390fd5b600081604051610f3b9190613ff4565b908152602001604051809103902060050160029054906101000a900460ff1615600082604051610f6b9190613ff4565b908152602001604051809103902060050160026101000a81548160ff0219169083151502179055507f9b1a1e5131c18ee5fd8454b3b435b1b36127bd0c05686d9fc6190d638bcb149981600083604051610fc59190613ff4565b908152602001604051809103902060050160029054906101000a900460ff16604051610ff2929190614104565b60405180910390a150565b60606002805480602002602001604051908101604052809291908181526020016000905b828210156110cd578382906000526020600020018054611040906144c0565b80601f016020809104026020016040519081016040528092919081815260200182805461106c906144c0565b80156110b95780601f1061108e576101008083540402835291602001916110b9565b820191906000526020600020905b81548152906001019060200180831161109c57829003601f168201915b505050505081526020019060010190611021565b50505050905090565b600460009054906101000a900473ffffffffffffffffffffffffffffffffffffffff1673ffffffffffffffffffffffffffffffffffffffff163373ffffffffffffffffffffffffffffffffffffffff1614611166576040517f08c379a000000000000000000000000000000000000000000000000000000000815260040161115d90614274565b60405180910390fd5b60006001846040516111789190613ff4565b90815260200160405180910390206000018054611194906144c0565b9050116111d6576040517f08c379a00000000000000000000000000000000000000000000000000000000081526004016111cd90614294565b60405180910390fd5b600060405180608001604052806040518060400160405280600e81526020017f41646d696e6973747261746f727300000000000000000000000000000000000081525081526020016040518060400160405280600581526020017f557365727300000000000000000000000000000000000000000000000000000081525081526020016040518060400160405280600e81526020017f47726f7570204d616e616765727300000000000000000000000000000000000081525081526020016040518060400160405280600d81526020017f55736572204d616e616765727300000000000000000000000000000000000000815250815250905060005b60048110156113ba57818160048110611314577f4e487b7100000000000000000000000000000000000000000000000000000000600052603260045260246000fd5b60200201516040516020016113299190613ff4565b60405160208183030381529060405280519060200120856040516020016113509190613ff4565b6040516020818303038152906040528051906020012014156113a7576040517f08c379a000000000000000000000000000000000000000000000000000000000815260040161139e90614254565b60405180910390fd5b80806113b2906144f2565b9150506112d2565b506113c58483610498565b50826040516020016113d79190613ff4565b60405160208183030381529060405280519060200120846040516020016113fe9190613ff4565b6040516020818303038152906040528051906020012014611680576001846040516114299190613ff4565b90815260200160405180910390206001846040516114479190613ff4565b90815260200160405180910390206000820181600001908054611469906144c0565b6114749291906134da565b50600182018160010190805461148b929190613567565b5060028201816002019080546114a2929190613567565b50905050826001846040516114b79190613ff4565b908152602001604051809103902060000190805190602001906114db9291906135cf565b506001846040516114ec9190613ff4565b90815260200160405180910390206000808201600061150b9190613655565b60018201600061151b9190613695565b60028201600061152b9190613695565b505060005b600380549050811015611645578460405160200161154e9190613ff4565b604051602081830303815290604052805190602001206003828154811061159e577f4e487b7100000000000000000000000000000000000000000000000000000000600052603260045260246000fd5b906000526020600020016040516020016115b8919061400b565b60405160208183030381529060405280519060200120141561163257836003828154811061160f577f4e487b7100000000000000000000000000000000000000000000000000000000600052603260045260246000fd5b90600052602060002001908051906020019061162c9291906135cf565b50611645565b808061163d906144f2565b915050611530565b507f364b226b5f086e2e247d242241146270270074b8e63461b564298285dfdb08788484604051611677929190614134565b60405180910390a15b50505050565b600460009054906101000a900473ffffffffffffffffffffffffffffffffffffffff1673ffffffffffffffffffffffffffffffffffffffff163373ffffffffffffffffffffffffffffffffffffffff1614611716576040517f08c379a000000000000000000000000000000000000000000000000000000000815260040161170d90614274565b60405180910390fd5b60006001826040516117289190613ff4565b90815260200160405180910390206000018054611744906144c0565b905011611786576040517f08c379a000000000000000000000000000000000000000000000000000000000815260040161177d90614294565b60405180910390fd5b600060405180608001604052806040518060400160405280600e81526020017f41646d696e6973747261746f727300000000000000000000000000000000000081525081526020016040518060400160405280600581526020017f557365727300000000000000000000000000000000000000000000000000000081525081526020016040518060400160405280600e81526020017f47726f7570204d616e616765727300000000000000000000000000000000000081525081526020016040518060400160405280600d81526020017f55736572204d616e616765727300000000000000000000000000000000000000815250815250905060005b600481101561196a578181600481106118c4577f4e487b7100000000000000000000000000000000000000000000000000000000600052603260045260246000fd5b60200201516040516020016118d99190613ff4565b60405160208183030381529060405280519060200120836040516020016119009190613ff4565b604051602081830303815290604052805190602001201415611957576040517f08c379a000000000000000000000000000000000000000000000000000000000815260040161194e90614254565b60405180910390fd5b8080611962906144f2565b915050611882565b5060018260405161197b9190613ff4565b90815260200160405180910390206000808201600061199a9190613655565b6001820160006119aa9190613695565b6002820160006119ba9190613695565b50506000805b600380549050811015611b8757836040516020016119de9190613ff4565b6040516020818303038152906040528051906020012060038281548110611a2e577f4e487b7100000000000000000000000000000000000000000000000000000000600052603260045260246000fd5b90600052602060002001604051602001611a48919061400b565b604051602081830303815290604052805190602001201415611b74576001915060036001600380549050611a7c9190614434565b81548110611ab3577f4e487b7100000000000000000000000000000000000000000000000000000000600052603260045260246000fd5b9060005260206000200160038281548110611af7577f4e487b7100000000000000000000000000000000000000000000000000000000600052603260045260246000fd5b90600052602060002001908054611b0d906144c0565b611b189291906136b6565b506003805480611b51577f4e487b7100000000000000000000000000000000000000000000000000000000600052603160045260246000fd5b600190038181906000526020600020016000611b6d9190613655565b9055611b87565b8080611b7f906144f2565b9150506119c0565b5080611bc8576040517f08c379a0000000000000000000000000000000000000000000000000000000008152600401611bbf90614234565b60405180910390fd5b7f3d23503bda008e50d93c77e132b7d2cde3189a8de034b6d382a71004b5a1b04883604051611bf7919061405f565b60405180910390a1505050565b600460009054906101000a900473ffffffffffffffffffffffffffffffffffffffff1673ffffffffffffffffffffffffffffffffffffffff163373ffffffffffffffffffffffffffffffffffffffff1614611c94576040517f08c379a0000000000000000000000000000000000000000000000000000000008152600401611c8b90614274565b60405180910390fd5b6000600183604051611ca69190613ff4565b90815260200160405180910390206000018054611cc2906144c0565b905011611d04576040517f08c379a0000000000000000000000000000000000000000000000000000000008152600401611cfb90614294565b60405180910390fd5b60008082604051611d159190613ff4565b90815260200160405180910390206000018054611d31906144c0565b905011611d73576040517f08c379a0000000000000000000000000000000000000000000000000000000008152600401611d6a906142b4565b60405180910390fd5b6000600183604051611d859190613ff4565b908152602001604051809103902060010190506000805b8280549050811015611f5d5783604051602001611db99190613ff4565b60405160208183030381529060405280519060200120838281548110611e08577f4e487b7100000000000000000000000000000000000000000000000000000000600052603260045260246000fd5b90600052602060002001604051602001611e22919061400b565b604051602081830303815290604052805190602001201415611f4a57600191508260018480549050611e549190614434565b81548110611e8b577f4e487b7100000000000000000000000000000000000000000000000000000000600052603260045260246000fd5b90600052602060002001838281548110611ece577f4e487b7100000000000000000000000000000000000000000000000000000000600052603260045260246000fd5b90600052602060002001908054611ee4906144c0565b611eef9291906136b6565b5082805480611f27577f4e487b7100000000000000000000000000000000000000000000000000000000600052603160045260246000fd5b600190038181906000526020600020016000611f439190613655565b9055611f5d565b8080611f55906144f2565b915050611d9c565b5080611f9e576040517f08c379a0000000000000000000000000000000000000000000000000000000008152600401611f95906142d4565b60405180910390fd5b7f2987fe5a9775c7dc64ce1b0c8b76d750f2ef0f9e96561a0da6ad7f31a854515a8385604051611fcf929190614134565b60405180910390a150505050565b600080600083604051611ff09190613ff4565b9081526020016040518091039020600001805461200c906144c0565b9050119050919050565b600460009054906101000a900473ffffffffffffffffffffffffffffffffffffffff1673ffffffffffffffffffffffffffffffffffffffff163373ffffffffffffffffffffffffffffffffffffffff16146120a6576040517f08c379a000000000000000000000000000000000000000000000000000000000815260040161209d90614274565b60405180910390fd5b6040518060600160405280838152602001600067ffffffffffffffff8111156120f8577f4e487b7100000000000000000000000000000000000000000000000000000000600052604160045260246000fd5b60405190808252806020026020018201604052801561212b57816020015b60608152602001906001900390816121165790505b508152602001828152506001836040516121459190613ff4565b9081526020016040518091039020600082015181600001908051906020019061216f9291906135cf565b50602082015181600101908051906020019061218c92919061347a565b5060408201518160020190805190602001906121a992919061347a565b509050506003829080600181540180825580915050600190039060005260206000200160009091909190915090805190602001906121e89291906135cf565b507f64e45d769b067e3e2de0a2fbfa982b75ad4472af64e84e1c421ec5bbe695de0f828260405161221a929190614081565b60405180910390a15050565b6060806060600460009054906101000a900473ffffffffffffffffffffffffffffffffffffffff1673ffffffffffffffffffffffffffffffffffffffff163373ffffffffffffffffffffffffffffffffffffffff16146122bb576040517f08c379a00000000000000000000000000000000000000000000000000000000081526004016122b290614274565b60405180910390fd5b60006001856040516122cd9190613ff4565b908152602001604051809103902060000180546122e9906144c0565b90501161232b576040517f08c379a000000000000000000000000000000000000000000000000000000000815260040161232290614294565b60405180910390fd5b600060018560405161233d9190613ff4565b9081526020016040518091039020604051806060016040529081600082018054612366906144c0565b80601f0160208091040260200160405190810160405280929190818152602001828054612392906144c0565b80156123df5780601f106123b4576101008083540402835291602001916123df565b820191906000526020600020905b8154815290600101906020018083116123c257829003601f168201915b5050505050815260200160018201805480602002602001604051908101604052809291908181526020016000905b828210156124b957838290600052602060002001805461242c906144c0565b80601f0160208091040260200160405190810160405280929190818152602001828054612458906144c0565b80156124a55780601f1061247a576101008083540402835291602001916124a5565b820191906000526020600020905b81548152906001019060200180831161248857829003601f168201915b50505050508152602001906001019061240d565b50505050815260200160028201805480602002602001604051908101604052809291908181526020016000905b82821015612592578382906000526020600020018054612505906144c0565b80601f0160208091040260200160405190810160405280929190818152602001828054612531906144c0565b801561257e5780601f106125535761010080835404028352916020019161257e565b820191906000526020600020905b81548152906001019060200180831161256157829003601f168201915b5050505050815260200190600101906124e6565b50505050815250509050806000015181604001518260200151935093509350509193909250565b600460009054906101000a900473ffffffffffffffffffffffffffffffffffffffff1673ffffffffffffffffffffffffffffffffffffffff163373ffffffffffffffffffffffffffffffffffffffff1614612649576040517f08c379a000000000000000000000000000000000000000000000000000000000815260040161264090614274565b60405180910390fd5b6040518061010001604052808581526020018481526020018381526020018281526020018281526020016000151581526020016000151581526020016001151581525060008560405161269c9190613ff4565b908152602001604051809103902060008201518160000190805190602001906126c69291906135cf565b5060208201518160010190805190602001906126e39291906135cf565b50604082015181600201908051906020019061270092919061347a565b50606082015181600301908051906020019061271d9291906135cf565b50608082015181600401908051906020019061273a9291906135cf565b5060a08201518160050160006101000a81548160ff02191690831515021790555060c08201518160050160016101000a81548160ff02191690831515021790555060e08201518160050160026101000a81548160ff0219169083151502179055509050506002849080600181540180825580915050600190039060005260206000200160009091909190915090805190602001906127d99291906135cf565b506128196040518060400160405280600581526020017f557365727300000000000000000000000000000000000000000000000000000081525085612ae2565b7f270ff4b111e5baa49283562af127cc5ea74e9d6c9efd5465578bd9223d5843f084604051612848919061405f565b60405180910390a16001600280549050141561289e5761289d6040518060400160405280600e81526020017f41646d696e6973747261746f727300000000000000000000000000000000000081525085612ae2565b5b50505050565b600460009054906101000a900473ffffffffffffffffffffffffffffffffffffffff1673ffffffffffffffffffffffffffffffffffffffff163373ffffffffffffffffffffffffffffffffffffffff1614612934576040517f08c379a000000000000000000000000000000000000000000000000000000000815260040161292b90614274565b60405180910390fd5b806000836040516129459190613ff4565b908152602001604051809103902060010190805190602001906129699291906135cf565b506000808360405161297b9190613ff4565b908152602001604051809103902060050160016101000a81548160ff0219169083151502179055507fd0b43b0b96083c98cc0f0370575812de87ee48ff1bde30bcd74f3518443bc4f5826040516129d2919061405f565b60405180910390a15050565b600460009054906101000a900473ffffffffffffffffffffffffffffffffffffffff1673ffffffffffffffffffffffffffffffffffffffff163373ffffffffffffffffffffffffffffffffffffffff1614612a6e576040517f08c379a0000000000000000000000000000000000000000000000000000000008152600401612a6590614274565b60405180910390fd5b6001600082604051612a809190613ff4565b908152602001604051809103902060050160016101000a81548160ff0219169083151502179055507f926f593dd22175375135b3fd9428c5d0298a5665da18756555b6af9f305ab9a681604051612ad7919061405f565b60405180910390a150565b600460009054906101000a900473ffffffffffffffffffffffffffffffffffffffff1673ffffffffffffffffffffffffffffffffffffffff163373ffffffffffffffffffffffffffffffffffffffff1614612b72576040517f08c379a0000000000000000000000000000000000000000000000000000000008152600401612b6990614274565b60405180910390fd5b6000600183604051612b849190613ff4565b90815260200160405180910390206000018054612ba0906144c0565b905011612be2576040517f08c379a0000000000000000000000000000000000000000000000000000000008152600401612bd990614294565b60405180910390fd5b60008082604051612bf39190613ff4565b90815260200160405180910390206000018054612c0f906144c0565b905011612c51576040517f08c379a0000000000000000000000000000000000000000000000000000000008152600401612c48906142b4565b60405180910390fd5b600182604051612c619190613ff4565b908152602001604051809103902060010181908060018154018082558091505060019003906000526020600020016000909190919091509080519060200190612cab9291906135cf565b507f32475c6c091737c212dc5c54e3565db8aae94283f8b388d2c1dfe772b3f356e18183604051612cdd929190614134565b60405180910390a15050565b606060008083604051612cfc9190613ff4565b90815260200160405180910390206000018054612d18906144c0565b905011612d5a576040517f08c379a0000000000000000000000000000000000000000000000000000000008152600401612d51906142b4565b60405180910390fd5b600060038054905067ffffffffffffffff811115612da1577f4e487b7100000000000000000000000000000000000000000000000000000000600052604160045260246000fd5b604051908082528060200260200182016040528015612dd457816020015b6060815260200190600190039081612dbf5790505b5090506000805b600380549050811015613004576000600160038381548110612e26577f4e487b7100000000000000000000000000000000000000000000000000000000600052603260045260246000fd5b90600052602060002001604051612e3d919061400b565b9081526020016040518091039020905060005b8160010180549050811015612fef5786604051602001612e709190613ff4565b60405160208183030381529060405280519060200120826001018281548110612ec2577f4e487b7100000000000000000000000000000000000000000000000000000000600052603260045260246000fd5b90600052602060002001604051602001612edc919061400b565b604051602081830303815290604052805190602001201415612fdc57816000018054612f07906144c0565b80601f0160208091040260200160405190810160405280929190818152602001828054612f33906144c0565b8015612f805780601f10612f5557610100808354040283529160200191612f80565b820191906000526020600020905b815481529060010190602001808311612f6357829003601f168201915b5050505050858581518110612fbe577f4e487b7100000000000000000000000000000000000000000000000000000000600052603260045260246000fd5b60200260200101819052508380612fd4906144f2565b945050612fef565b8080612fe7906144f2565b915050612e50565b50508080612ffc906144f2565b915050612ddb565b506000603267ffffffffffffffff811115613048577f4e487b7100000000000000000000000000000000000000000000000000000000600052604160045260246000fd5b60405190808252806020026020018201604052801561307b57816020015b60608152602001906001900390816130665790505b5090506000805b838110156133505760008582815181106130c5577f4e487b7100000000000000000000000000000000000000000000000000000000600052603260045260246000fd5b6020026020010151905060006001826040516130e19190613ff4565b9081526020016040518091039020600201905060005b818054905081101561333a576000805b8681101561320157838381548110613148577f4e487b7100000000000000000000000000000000000000000000000000000000600052603260045260246000fd5b90600052602060002001604051602001613162919061400b565b604051602081830303815290604052805190602001208882815181106131b1577f4e487b7100000000000000000000000000000000000000000000000000000000600052603260045260246000fd5b60200260200101516040516020016131c99190613ff4565b6040516020818303038152906040528051906020012014156131ee5760019150613201565b80806131f9906144f2565b915050613107565b508061332657828281548110613240577f4e487b7100000000000000000000000000000000000000000000000000000000600052603260045260246000fd5b906000526020600020018054613255906144c0565b80601f0160208091040260200160405190810160405280929190818152602001828054613281906144c0565b80156132ce5780601f106132a3576101008083540402835291602001916132ce565b820191906000526020600020905b8154815290600101906020018083116132b157829003601f168201915b505050505087878151811061330c577f4e487b7100000000000000000000000000000000000000000000000000000000600052603260045260246000fd5b60200260200101819052508580613322906144f2565b9650505b508080613332906144f2565b9150506130f7565b5050508080613348906144f2565b915050613082565b5060008167ffffffffffffffff811115613393577f4e487b7100000000000000000000000000000000000000000000000000000000600052604160045260246000fd5b6040519080825280602002602001820160405280156133c657816020015b60608152602001906001900390816133b15790505b50905060005b8281101561346c5783818151811061340d577f4e487b7100000000000000000000000000000000000000000000000000000000600052603260045260246000fd5b602002602001015182828151811061344e577f4e487b7100000000000000000000000000000000000000000000000000000000600052603260045260246000fd5b60200260200101819052508080613464906144f2565b9150506133cc565b508095505050505050919050565b8280548282559060005260206000209081019282156134c9579160200282015b828111156134c85782518290805190602001906134b89291906135cf565b509160200191906001019061349a565b5b5090506134d69190613743565b5090565b8280546134e6906144c0565b90600052602060002090601f0160209004810192826135085760008555613556565b82601f106135195780548555613556565b8280016001018555821561355657600052602060002091601f016020900482015b8281111561355557825482559160010191906001019061353a565b5b5090506135639190613767565b5090565b8280548282559060005260206000209081019282156135be5760005260206000209182015b828111156135bd5782829080546135a2906144c0565b6135ad9291906134da565b509160010191906001019061358c565b5b5090506135cb9190613743565b5090565b8280546135db906144c0565b90600052602060002090601f0160209004810192826135fd5760008555613644565b82601f1061361657805160ff1916838001178555613644565b82800160010185558215613644579182015b82811115613643578251825591602001919060010190613628565b5b5090506136519190613767565b5090565b508054613661906144c0565b6000825580601f106136735750613692565b601f0160209004906000526020600020908101906136919190613767565b5b50565b50805460008255906000526020600020908101906136b39190613743565b50565b8280546136c2906144c0565b90600052602060002090601f0160209004810192826136e45760008555613732565b82601f106136f55780548555613732565b8280016001018555821561373257600052602060002091601f016020900482015b82811115613731578254825591600101919060010190613716565b5b50905061373f9190613767565b5090565b5b80821115613763576000818161375a9190613655565b50600101613744565b5090565b5b80821115613780576000816000905550600101613768565b5090565b600061379761379284614325565b6142f4565b9050808382526020820190508260005b858110156137d757813585016137bd8882613849565b8452602084019350602083019250506001810190506137a7565b5050509392505050565b60006137f46137ef84614351565b6142f4565b90508281526020810184848401111561380c57600080fd5b61381784828561447e565b509392505050565b600082601f83011261383057600080fd5b8135613840848260208601613784565b91505092915050565b600082601f83011261385a57600080fd5b813561386a8482602086016137e1565b91505092915050565b60006020828403121561388557600080fd5b600082013567ffffffffffffffff81111561389f57600080fd5b6138ab84828501613849565b91505092915050565b600080604083850312156138c757600080fd5b600083013567ffffffffffffffff8111156138e157600080fd5b6138ed85828601613849565b925050602083013567ffffffffffffffff81111561390a57600080fd5b6139168582860161381f565b9150509250929050565b6000806040838503121561393357600080fd5b600083013567ffffffffffffffff81111561394d57600080fd5b61395985828601613849565b925050602083013567ffffffffffffffff81111561397657600080fd5b61398285828601613849565b9150509250929050565b6000806000606084860312156139a157600080fd5b600084013567ffffffffffffffff8111156139bb57600080fd5b6139c786828701613849565b935050602084013567ffffffffffffffff8111156139e457600080fd5b6139f086828701613849565b925050604084013567ffffffffffffffff811115613a0d57600080fd5b613a198682870161381f565b9150509250925092565b60008060008060808587031215613a3957600080fd5b600085013567ffffffffffffffff811115613a5357600080fd5b613a5f87828801613849565b945050602085013567ffffffffffffffff811115613a7c57600080fd5b613a8887828801613849565b935050604085013567ffffffffffffffff811115613aa557600080fd5b613ab18782880161381f565b925050606085013567ffffffffffffffff811115613ace57600080fd5b613ada87828801613849565b91505092959194509250565b6000613af28383613c06565b905092915050565b6000613b068383613ca9565b905092915050565b6000613b19826143bb565b613b2381856143f6565b935083602082028501613b3585614381565b8060005b85811015613b715784840389528151613b528582613ae6565b9450613b5d836143dc565b925060208a01995050600181019050613b39565b50829750879550505050505092915050565b6000613b8e826143c6565b613b9881856143f6565b935083602082028501613baa85614391565b8060005b85811015613be557848403895281613bc68582613afa565b9450613bd1836143e9565b925060208a01995050600181019050613bae565b50829750879550505050505092915050565b613c0081614468565b82525050565b6000613c11826143d1565b613c1b8185614407565b9350613c2b81856020860161448d565b613c34816145c8565b840191505092915050565b6000613c4a826143d1565b613c548185614418565b9350613c6481856020860161448d565b613c6d816145c8565b840191505092915050565b6000613c83826143d1565b613c8d8185614429565b9350613c9d81856020860161448d565b80840191505092915050565b60008154613cb6816144c0565b613cc08186614407565b94506001821660008114613cdb5760018114613ced57613d20565b60ff1983168652602086019350613d20565b613cf6856143a6565b60005b83811015613d1857815481890152600182019150602081019050613cf9565b808801955050505b50505092915050565b60008154613d36816144c0565b613d408186614418565b94506001821660008114613d5b5760018114613d6d57613da0565b60ff1983168652602086019350613da0565b613d76856143a6565b60005b83811015613d9857815481890152600182019150602081019050613d79565b808801955050505b50505092915050565b60008154613db6816144c0565b613dc08186614429565b94506001821660008114613ddb5760018114613dec57613e1f565b60ff19831686528186019350613e1f565b613df5856143a6565b60005b83811015613e1757815481890152600182019150602081019050613df8565b838801955050505b50505092915050565b6000613e35602083614418565b91507f47726f7570206e6f7420666f756e6420696e20616c6c47726f75704e616d65736000830152602082019050919050565b6000613e75602f83614418565b91507f4d6f64696679696e6720636f72652067726f7570207065726d697373696f6e7360008301527f206973206e6f7420616c6c6f77656400000000000000000000000000000000006020830152604082019050919050565b6000613edb602f83614418565b91507f4f6e6c792074686520636f6e7472616374206f776e65722063616e207065726660008301527f6f726d207468697320616374696f6e00000000000000000000000000000000006020830152604082019050919050565b6000613f41601483614418565b91507f47726f757020646f6573206e6f742065786973740000000000000000000000006000830152602082019050919050565b6000613f81601383614418565b91507f5573657220646f6573206e6f74206578697374000000000000000000000000006000830152602082019050919050565b6000613fc1601983614418565b91507f55736572206973206e6f7420696e20746869732067726f7570000000000000006000830152602082019050919050565b60006140008284613c78565b915081905092915050565b60006140178284613da9565b915081905092915050565b6000602082019050818103600083015261403c8184613b0e565b905092915050565b60006020820190506140596000830184613bf7565b92915050565b600060208201905081810360008301526140798184613c3f565b905092915050565b6000604082019050818103600083015261409b8185613c3f565b905081810360208301526140af8184613b0e565b90509392505050565b600060608201905081810360008301526140d28186613c3f565b905081810360208301526140e68185613b0e565b905081810360408301526140fa8184613b0e565b9050949350505050565b6000604082019050818103600083015261411e8185613c3f565b905061412d6020830184613bf7565b9392505050565b6000604082019050818103600083015261414e8185613c3f565b905081810360208301526141628184613c3f565b90509392505050565b600060e0820190508181036000830152614185818a613c3f565b905081810360208301526141998189613c3f565b905081810360408301526141ad8188613b0e565b905081810360608301526141c18187613c3f565b905081810360808301526141d58186613c3f565b90506141e460a0830185613bf7565b6141f160c0830184613bf7565b98975050505050505050565b600060408201905081810360008301526142178185613d29565b9050818103602083015261422b8184613b83565b90509392505050565b6000602082019050818103600083015261424d81613e28565b9050919050565b6000602082019050818103600083015261426d81613e68565b9050919050565b6000602082019050818103600083015261428d81613ece565b9050919050565b600060208201905081810360008301526142ad81613f34565b9050919050565b600060208201905081810360008301526142cd81613f74565b9050919050565b600060208201905081810360008301526142ed81613fb4565b9050919050565b6000604051905081810181811067ffffffffffffffff8211171561431b5761431a614599565b5b8060405250919050565b600067ffffffffffffffff8211156143405761433f614599565b5b602082029050602081019050919050565b600067ffffffffffffffff82111561436c5761436b614599565b5b601f19601f8301169050602081019050919050565b6000819050602082019050919050565b60008190508160005260206000209050919050565b60008190508160005260206000209050919050565b600081519050919050565b600081549050919050565b600081519050919050565b6000602082019050919050565b6000600182019050919050565b600082825260208201905092915050565b600082825260208201905092915050565b600082825260208201905092915050565b600081905092915050565b600061443f82614474565b915061444a83614474565b92508282101561445d5761445c61453b565b5b828203905092915050565b60008115159050919050565b6000819050919050565b82818337600083830152505050565b60005b838110156144ab578082015181840152602081019050614490565b838111156144ba576000848401525b50505050565b600060028204905060018216806144d857607f821691505b602082108114156144ec576144eb61456a565b5b50919050565b60006144fd82614474565b91507fffffffffffffffffffffffffffffffffffffffffffffffffffffffffffffffff8214156145305761452f61453b565b5b600182019050919050565b7f4e487b7100000000000000000000000000000000000000000000000000000000600052601160045260246000fd5b7f4e487b7100000000000000000000000000000000000000000000000000000000600052602260045260246000fd5b7f4e487b7100000000000000000000000000000000000000000000000000000000600052604160045260246000fd5b6000601f19601f830116905091905056fea2646970667358221220ffae9858c2da0ce092127432646dcd3e5f579b54d36b72c96faa1cd56e83131b64736f6c63430008000033",
  "linkReferences": {},
  "deployedLinkReferences": {}
}