{
  "_format": "hh-sol-artifact-1",
  "contractName": "FaceGuard",
  "sourceName": "contracts/FaceGuard.sol",
  "abi": [
    {
      "inputs": [],
      "stateMutability": "nonpayable",
      "type": "constructor"
    },
    {
      "anonymous": false,
      "inputs": [
        {
          "indexed": false,
          "internalType": "string",
          "name": "username",
          "type": "string"
        }
      ],
      "name": "FaceHashUpdated",
      "type": "event"
    },
    {
      "anonymous": false,
      "inputs": [
        {
          "indexed": false,
          "internalType": "string",
          "name": "groupName",
          "type": "string"
        },
        {
          "indexed": false,
          "internalType": "string[]",
          "name": "permissions",
          "type": "string[]"
        }
      ],
      "name": "GroupCreated",
      "type": "event"
    },
    {
      "anonymous": false,
      "inputs": [
        {
          "indexed": false,
          "internalType": "string",
          "name": "groupName",
          "type": "string"
        },
        {
          "indexed": false,
          "internalType": "string[]",
          "name": "permissions",
          "type": "string[]"
        }
      ],
      "name": "GroupPermissionsUpdated",
      "type": "event"
    },
    {
      "anonymous": false,
      "inputs": [
        {
          "indexed": false,
          "internalType": "string",
          "name": "groupName",
          "type": "string"
        }
      ],
      "name": "GroupRemoved",
      "type": "event"
    },
    {
      "anonymous": false,
      "inputs": [
        {
          "indexed": false,
          "internalType": "string",
          "name": "username",
          "type": "string"
        }
      ],
      "name": "PasswordChangeRequired",
      "type": "event"
    },
    {
      "anonymous": false,
      "inputs": [
        {
          "indexed": false,
          "internalType": "string",
          "name": "username",
          "type": "string"
        }
      ],
      "name": "PasswordUpdated",
      "type": "event"
    },
    {
      "anonymous": false,
      "inputs": [
        {
          "indexed": false,
          "internalType": "string",
          "name": "username",
          "type": "string"
        }
      ],
      "name": "PermissionsUpdated",
      "type": "event"
    },
    {
      "anonymous": false,
      "inputs": [
        {
          "indexed": false,
          "internalType": "string",
          "name": "username",
          "type": "string"
        },
        {
          "indexed": false,
          "internalType": "string",
          "name": "groupName",
          "type": "string"
        }
      ],
      "name": "UserAddedToGroup",
      "type": "event"
    },
    {
      "anonymous": false,
      "inputs": [
        {
          "indexed": false,
          "internalType": "string",
          "name": "username",
          "type": "string"
        }
      ],
      "name": "UserRegistered",
      "type": "event"
    },
    {
      "anonymous": false,
      "inputs": [
        {
          "indexed": false,
          "internalType": "string",
          "name": "username",
          "type": "string"
        },
        {
          "indexed": false,
          "internalType": "string",
          "name": "groupName",
          "type": "string"
        }
      ],
      "name": "UserRemovedFromGroup",
      "type": "event"
    },
    {
      "anonymous": false,
      "inputs": [
        {
          "indexed": false,
          "internalType": "string",
          "name": "username",
          "type": "string"
        },
        {
          "indexed": false,
          "internalType": "bool",
          "name": "enabled",
          "type": "bool"
        }
      ],
      "name": "UserToggled",
      "type": "event"
    },
    {
      "inputs": [
        {
          "internalType": "string",
          "name": "username",
          "type": "string"
        },
        {
          "internalType": "string",
          "name": "groupName",
          "type": "string"
        }
      ],
      "name": "addUserToGroup",
      "outputs": [],
      "stateMutability": "nonpayable",
      "type": "function"
    },
    {
      "inputs": [
        {
          "internalType": "string",
          "name": "username",
          "type": "string"
        }
      ],
      "name": "checkIfUserExists",
      "outputs": [
        {
          "internalType": "bool",
          "name": "",
          "type": "bool"
        }
      ],
      "stateMutability": "view",
      "type": "function"
    },
    {
      "inputs": [
        {
          "internalType": "string",
          "name": "groupName",
          "type": "string"
        },
        {
          "internalType": "string[]",
          "name": "permissions",
          "type": "string[]"
        }
      ],
      "name": "createGroup",
      "outputs": [],
      "stateMutability": "nonpayable",
      "type": "function"
    },
    {
      "inputs": [],
      "name": "getAllGroups",
      "outputs": [
        {
          "internalType": "string[]",
          "name": "",
          "type": "string[]"
        }
      ],
      "stateMutability": "view",
      "type": "function"
    },
    {
      "inputs": [],
      "name": "getAllUsernames",
      "outputs": [
        {
          "internalType": "string[]",
          "name": "",
          "type": "string[]"
        }
      ],
      "stateMutability": "view",
      "type": "function"
    },
    {
      "inputs": [
        {
          "internalType": "string",
          "name": "groupName",
          "type": "string"
        }
      ],
      "name": "getGroup",
      "outputs": [
        {
          "internalType": "string",
          "name": "",
          "type": "string"
        },
        {
          "internalType": "string[]",
          "name": "",
          "type": "string[]"
        },
        {
          "internalType": "string[]",
          "name": "",
          "type": "string[]"
        }
      ],
      "stateMutability": "view",
      "type": "function"
    },
    {
      "inputs": [
        {
          "internalType": "string",
          "name": "username",
          "type": "string"
        }
      ],
      "name": "getUser",
      "outputs": [
        {
          "internalType": "string",
          "name": "",
          "type": "string"
        },
        {
          "internalType": "string",
          "name": "",
          "type": "string"
        },
        {
          "internalType": "string[]",
          "name": "",
          "type": "string[]"
        },
        {
          "internalType": "string",
          "name": "",
          "type": "string"
        },
        {
          "internalType": "string",
          "name": "",
          "type": "string"
        },
        {
          "internalType": "bool",
          "name": "",
          "type": "bool"
        },
        {
          "internalType": "bool",
          "name": "",
          "type": "bool"
        }
      ],
      "stateMutability": "view",
      "type": "function"
    },
    {
      "inputs": [
        {
          "internalType": "string",
          "name": "username",
          "type": "string"
        }
      ],
      "name": "getUserFaceHashes",
      "outputs": [
        {
          "internalType": "string[]",
          "name": "",
          "type": "string[]"
        }
      ],
      "stateMutability": "view",
      "type": "function"
    },
    {
      "inputs": [
        {
          "internalType": "string",
          "name": "username",
          "type": "string"
        }
      ],
      "name": "getUserPermissions",
      "outputs": [
        {
          "internalType": "string[]",
          "name": "",
          "type": "string[]"
        }
      ],
      "stateMutability": "view",
      "type": "function"
    },
    {
      "inputs": [
        {
          "internalType": "string",
          "name": "username",
          "type": "string"
        },
        {
          "internalType": "string",
          "name": "passwordHash",
          "type": "string"
        },
        {
          "internalType": "string[]",
          "name": "initialFaceHashes",
          "type": "string[]"
        },
        {
          "internalType": "string",
          "name": "creationDate",
          "type": "string"
        }
      ],
      "name": "registerUser",
      "outputs": [],
      "stateMutability": "nonpayable",
      "type": "function"
    },
    {
      "inputs": [
        {
          "internalType": "string",
          "name": "groupName",
          "type": "string"
        }
      ],
      "name": "removeGroup",
      "outputs": [],
      "stateMutability": "nonpayable",
      "type": "function"
    },
    {
      "inputs": [
        {
          "internalType": "string",
          "name": "username",
          "type": "string"
        },
        {
          "internalType": "string",
          "name": "groupName",
          "type": "string"
        }
      ],
      "name": "removeUserFromGroup",
      "outputs": [],
      "stateMutability": "nonpayable",
      "type": "function"
    },
    {
      "inputs": [
        {
          "internalType": "string",
          "name": "username",
          "type": "string"
        }
      ],
      "name": "requireUserPasswordChange",
      "outputs": [],
      "stateMutability": "nonpayable",
      "type": "function"
    },
    {
      "inputs": [
        {
          "internalType": "string",
          "name": "groupName",
          "type": "string"
        },
        {
          "internalType": "string[]",
          "name": "groupPermissions",
          "type": "string[]"
        }
      ],
      "name": "setGroupPermissions",
      "outputs": [
        {
          "internalType": "string",
          "name": "",
          "type": "string"
        }
      ],
      "stateMutability": "nonpayable",
      "type": "function"
    },
    {
      "inputs": [
        {
          "internalType": "string",
          "name": "username",
          "type": "string"
        }
      ],
      "name": "toggleUser",
      "outputs": [],
      "stateMutability": "nonpayable",
      "type": "function"
    },
    {
      "inputs": [
        {
          "internalType": "string",
          "name": "username",
          "type": "string"
        },
        {
          "internalType": "string[]",
          "name": "newFaceHashes",
          "type": "string[]"
        }
      ],
      "name": "updateUserFaceHash",
      "outputs": [],
      "stateMutability": "nonpayable",
      "type": "function"
    },
    {
      "inputs": [
        {
          "internalType": "string",
          "name": "username",
          "type": "string"
        },
        {
          "internalType": "string",
          "name": "newPasswordHash",
          "type": "string"
        }
      ],
      "name": "updateUserPassword",
      "outputs": [],
      "stateMutability": "nonpayable",
      "type": "function"
    }
  ],
  "bytecode": "0x60806040523480156200001157600080fd5b5033600460006101000a81548173ffffffffffffffffffffffffffffffffffffffff021916908373ffffffffffffffffffffffffffffffffffffffff160217905550600060405180608001604052806040518060400160405280601581526020017f466163654775617264204372656174653a20416c6c000000000000000000000081525081526020016040518060400160405280601381526020017f46616365477561726420526561643a20416c6c0000000000000000000000000081525081526020016040518060400160405280601581526020017f466163654775617264205570646174653a20416c6c000000000000000000000081525081526020016040518060400160405280601581526020017f4661636547756172642044656c6574653a20416c6c00000000000000000000008152508152509050600060405180606001604052806040518060400160405280601481526020017f46616365477561726420526561643a2053656c6600000000000000000000000081525081526020016040518060400160405280601681526020017f466163654775617264205570646174653a2053656c660000000000000000000081525081526020016040518060400160405280601681526020017f4661636547756172642044656c6574653a2053656c66000000000000000000008152508152509050600060405180608001604052806040518060400160405280601881526020017f466163654775617264204372656174653a2047726f757073000000000000000081525081526020016040518060400160405280601681526020017f46616365477561726420526561643a2047726f7570730000000000000000000081525081526020016040518060400160405280601881526020017f466163654775617264205570646174653a2047726f757073000000000000000081525081526020016040518060400160405280601881526020017f4661636547756172642044656c6574653a2047726f75707300000000000000008152508152509050600060405180608001604052806040518060400160405280601781526020017f466163654775617264204372656174653a20557365727300000000000000000081525081526020016040518060400160405280601581526020017f46616365477561726420526561643a205573657273000000000000000000000081525081526020016040518060400160405280601781526020017f466163654775617264205570646174653a20557365727300000000000000000081525081526020016040518060400160405280601781526020017f4661636547756172642044656c6574653a2055736572730000000000000000008152508152509050620004536040518060400160405280600e81526020017f41646d696e6973747261746f727300000000000000000000000000000000000081525062000447866200056260201b60201c565b6200069160201b60201c565b620004aa6040518060400160405280600581526020017f55736572730000000000000000000000000000000000000000000000000000008152506200049e85620008b360201b60201c565b6200069160201b60201c565b620005016040518060400160405280600e81526020017f47726f7570204d616e6167657273000000000000000000000000000000000000815250620004f5846200056260201b60201c565b6200069160201b60201c565b620005586040518060400160405280600d81526020017f55736572204d616e6167657273000000000000000000000000000000000000008152506200054c836200056260201b60201c565b6200069160201b60201c565b5050505062000f39565b60606000600467ffffffffffffffff811115620005a8577f4e487b7100000000000000000000000000000000000000000000000000000000600052604160045260246000fd5b604051908082528060200260200182016040528015620005dd57816020015b6060815260200190600190039081620005c75790505b50905060005b6004811015620006875783816004811062000627577f4e487b7100000000000000000000000000000000000000000000000000000000600052603260045260246000fd5b602002015182828151811062000666577f4e487b7100000000000000000000000000000000000000000000000000000000600052603260045260246000fd5b602002602001018190525080806200067e9062000e7c565b915050620005e3565b5080915050919050565b600460009054906101000a900473ffffffffffffffffffffffffffffffffffffffff1673ffffffffffffffffffffffffffffffffffffffff163373ffffffffffffffffffffffffffffffffffffffff161462000724576040517f08c379a00000000000000000000000000000000000000000000000000000000081526004016200071b9062000d73565b60405180910390fd5b6040518060600160405280838152602001600067ffffffffffffffff81111562000777577f4e487b7100000000000000000000000000000000000000000000000000000000600052604160045260246000fd5b604051908082528060200260200182016040528015620007ac57816020015b6060815260200190600190039081620007965790505b50815260200182815250600183604051620007c8919062000d1f565b90815260200160405180910390206000820151816000019080519060200190620007f4929190620009e2565b5060208201518160010190805190602001906200081392919062000a73565b5060408201518160020190805190602001906200083292919062000a73565b5090505060038290806001815401808255809150506001900390600052602060002001600090919091909150908051906020019062000873929190620009e2565b507f64e45d769b067e3e2de0a2fbfa982b75ad4472af64e84e1c421ec5bbe695de0f8282604051620008a792919062000d38565b60405180910390a15050565b60606000600367ffffffffffffffff811115620008f9577f4e487b7100000000000000000000000000000000000000000000000000000000600052604160045260246000fd5b6040519080825280602002602001820160405280156200092e57816020015b6060815260200190600190039081620009185790505b50905060005b6003811015620009d85783816003811062000978577f4e487b7100000000000000000000000000000000000000000000000000000000600052603260045260246000fd5b6020020151828281518110620009b7577f4e487b7100000000000000000000000000000000000000000000000000000000600052603260045260246000fd5b60200260200101819052508080620009cf9062000e7c565b91505062000934565b5080915050919050565b828054620009f09062000e46565b90600052602060002090601f01602090048101928262000a14576000855562000a60565b82601f1062000a2f57805160ff191683800117855562000a60565b8280016001018555821562000a60579182015b8281111562000a5f57825182559160200191906001019062000a42565b5b50905062000a6f919062000ada565b5090565b82805482825590600052602060002090810192821562000ac7579160200282015b8281111562000ac657825182908051906020019062000ab5929190620009e2565b509160200191906001019062000a94565b5b50905062000ad6919062000af9565b5090565b5b8082111562000af557600081600090555060010162000adb565b5090565b5b8082111562000b1d576000818162000b13919062000b21565b5060010162000afa565b5090565b50805462000b2f9062000e46565b6000825580601f1062000b43575062000b64565b601f01602090049060005260206000209081019062000b63919062000ada565b5b50565b600062000b75838362000bfe565b905092915050565b600062000b8a8262000da5565b62000b96818562000dc8565b93508360208202850162000baa8562000d95565b8060005b8581101562000bec578484038952815162000bca858262000b67565b945062000bd78362000dbb565b925060208a0199505060018101905062000bae565b50829750879550505050505092915050565b600062000c0b8262000db0565b62000c17818562000dd9565b935062000c2981856020860162000e10565b62000c348162000f28565b840191505092915050565b600062000c4c8262000db0565b62000c58818562000dea565b935062000c6a81856020860162000e10565b62000c758162000f28565b840191505092915050565b600062000c8d8262000db0565b62000c99818562000dfb565b935062000cab81856020860162000e10565b80840191505092915050565b600062000cc6602f8362000dea565b91507f4f6e6c792074686520636f6e7472616374206f776e65722063616e207065726660008301527f6f726d207468697320616374696f6e00000000000000000000000000000000006020830152604082019050919050565b600062000d2d828462000c80565b915081905092915050565b6000604082019050818103600083015262000d54818562000c3f565b9050818103602083015262000d6a818462000b7d565b90509392505050565b6000602082019050818103600083015262000d8e8162000cb7565b9050919050565b6000819050602082019050919050565b600081519050919050565b600081519050919050565b6000602082019050919050565b600082825260208201905092915050565b600082825260208201905092915050565b600082825260208201905092915050565b600081905092915050565b6000819050919050565b60005b8381101562000e3057808201518184015260208101905062000e13565b8381111562000e40576000848401525b50505050565b6000600282049050600182168062000e5f57607f821691505b6020821081141562000e765762000e7562000ef9565b5b50919050565b600062000e898262000e06565b91507fffffffffffffffffffffffffffffffffffffffffffffffffffffffffffffffff82141562000ebf5762000ebe62000eca565b5b600182019050919050565b7f4e487b7100000000000000000000000000000000000000000000000000000000600052601160045260246000fd5b7f4e487b7100000000000000000000000000000000000000000000000000000000600052602260045260246000fd5b6000601f19601f8301169050919050565b613eac8062000f496000396000f3fe608060405234801561001057600080fd5b506004361061010b5760003560e01c806367753ba1116100a2578063b9e6facb11610071578063b9e6facb146102d0578063c91bc46c146102ec578063e537cac714610308578063ecb5a4d514610324578063ee1c55da146103405761010b565b806367753ba1146102365780636cad1934146102525780637c77f39f14610282578063abef281e1461029e5761010b565b806331feb671116100de57806331feb671146101aa5780635108c3ab146101e057806353620375146101fc5780636246b3101461021a5761010b565b806303df9e92146101105780631ae7f10a1461012c57806321cd3cae1461015c5780632d09d9e91461017a575b600080fd5b61012a600480360381019061012591906131e8565b610370565b005b610146600480360381019061014191906131e8565b610471565b60405161015391906138fc565b60405180910390f35b6101646108ba565b60405161017191906138bf565b60405180910390f35b610194600480360381019061018f91906131a7565b610993565b6040516101a191906138bf565b60405180910390f35b6101c460048036038101906101bf91906131a7565b610a8d565b6040516101d79796959493929190613a08565b60405180910390f35b6101fa60048036038101906101f591906131a7565b610e74565b005b610204610fd6565b60405161021191906138bf565b60405180910390f35b610234600480360381019061022f91906131a7565b6110af565b005b610250600480360381019061024b9190613254565b61162d565b005b61026c600480360381019061026791906131a7565b611a06565b60405161027991906138e1565b60405180910390f35b61029c600480360381019061029791906131e8565b611a3f565b005b6102b860048036038101906102b391906131a7565b611c4f565b6040516102c793929190613955565b60405180910390f35b6102ea60048036038101906102e591906132c0565b611fe2565b005b61030660048036038101906103019190613254565b6122cd565b005b610322600480360381019061031d91906131a7565b612407565b005b61033e60048036038101906103399190613254565b61250b565b005b61035a600480360381019061035591906131a7565b612712565b60405161036791906138bf565b60405180910390f35b600460009054906101000a900473ffffffffffffffffffffffffffffffffffffffff1673ffffffffffffffffffffffffffffffffffffffff163373ffffffffffffffffffffffffffffffffffffffff1614610400576040517f08c379a00000000000000000000000000000000000000000000000000000000081526004016103f790613b11565b60405180910390fd5b806000836040516104119190613891565b90815260200160405180910390206002019080519060200190610435929190612ea3565b507feb1060ec96e942d51b0f7b8b00c334c5c6da57c48f5ef56937468d28d0ee347a8260405161046591906138fc565b60405180910390a15050565b6060600460009054906101000a900473ffffffffffffffffffffffffffffffffffffffff1673ffffffffffffffffffffffffffffffffffffffff163373ffffffffffffffffffffffffffffffffffffffff1614610503576040517f08c379a00000000000000000000000000000000000000000000000000000000081526004016104fa90613b11565b60405180910390fd5b60006001846040516105159190613891565b9081526020016040518091039020600001805461053190613d5d565b905011610573576040517f08c379a000000000000000000000000000000000000000000000000000000000815260040161056a90613b31565b60405180910390fd5b600060405180608001604052806040518060400160405280600e81526020017f41646d696e6973747261746f727300000000000000000000000000000000000081525081526020016040518060400160405280600581526020017f557365727300000000000000000000000000000000000000000000000000000081525081526020016040518060400160405280600e81526020017f47726f7570204d616e616765727300000000000000000000000000000000000081525081526020016040518060400160405280600d81526020017f55736572204d616e616765727300000000000000000000000000000000000000815250815250905060005b6004811015610757578181600481106106b1577f4e487b7100000000000000000000000000000000000000000000000000000000600052603260045260246000fd5b60200201516040516020016106c69190613891565b60405160208183030381529060405280519060200120856040516020016106ed9190613891565b604051602081830303815290604052805190602001201415610744576040517f08c379a000000000000000000000000000000000000000000000000000000000815260040161073b90613af1565b60405180910390fd5b808061074f90613d8f565b91505061066f565b50826001856040516107699190613891565b9081526020016040518091039020600201908051906020019061078d929190612ea3565b507f65d29756900166ea1a95042b775077b9e0c4b52e2ad303784b8fc75584de59ef6001856040516107bf9190613891565b90815260200160405180910390206000016001866040516107e09190613891565b90815260200160405180910390206002016040516107ff929190613a9a565b60405180910390a16001846040516108179190613891565b9081526020016040518091039020600001805461083390613d5d565b80601f016020809104026020016040519081016040528092919081815260200182805461085f90613d5d565b80156108ac5780601f10610881576101008083540402835291602001916108ac565b820191906000526020600020905b81548152906001019060200180831161088f57829003601f168201915b505050505091505092915050565b60606003805480602002602001604051908101604052809291908181526020016000905b8282101561098a5783829060005260206000200180546108fd90613d5d565b80601f016020809104026020016040519081016040528092919081815260200182805461092990613d5d565b80156109765780601f1061094b57610100808354040283529160200191610976565b820191906000526020600020905b81548152906001019060200180831161095957829003601f168201915b5050505050815260200190600101906108de565b50505050905090565b60606000826040516109a59190613891565b9081526020016040518091039020600201805480602002602001604051908101604052809291908181526020016000905b82821015610a825783829060005260206000200180546109f590613d5d565b80601f0160208091040260200160405190810160405280929190818152602001828054610a2190613d5d565b8015610a6e5780601f10610a4357610100808354040283529160200191610a6e565b820191906000526020600020905b815481529060010190602001808311610a5157829003601f168201915b5050505050815260200190600101906109d6565b505050509050919050565b606080606080606060008060008089604051610aa99190613891565b908152602001604051809103902060405180610100016040529081600082018054610ad390613d5d565b80601f0160208091040260200160405190810160405280929190818152602001828054610aff90613d5d565b8015610b4c5780601f10610b2157610100808354040283529160200191610b4c565b820191906000526020600020905b815481529060010190602001808311610b2f57829003601f168201915b50505050508152602001600182018054610b6590613d5d565b80601f0160208091040260200160405190810160405280929190818152602001828054610b9190613d5d565b8015610bde5780601f10610bb357610100808354040283529160200191610bde565b820191906000526020600020905b815481529060010190602001808311610bc157829003601f168201915b5050505050815260200160028201805480602002602001604051908101604052809291908181526020016000905b82821015610cb8578382906000526020600020018054610c2b90613d5d565b80601f0160208091040260200160405190810160405280929190818152602001828054610c5790613d5d565b8015610ca45780601f10610c7957610100808354040283529160200191610ca4565b820191906000526020600020905b815481529060010190602001808311610c8757829003601f168201915b505050505081526020019060010190610c0c565b505050508152602001600382018054610cd090613d5d565b80601f0160208091040260200160405190810160405280929190818152602001828054610cfc90613d5d565b8015610d495780601f10610d1e57610100808354040283529160200191610d49565b820191906000526020600020905b815481529060010190602001808311610d2c57829003601f168201915b50505050508152602001600482018054610d6290613d5d565b80601f0160208091040260200160405190810160405280929190818152602001828054610d8e90613d5d565b8015610ddb5780601f10610db057610100808354040283529160200191610ddb565b820191906000526020600020905b815481529060010190602001808311610dbe57829003601f168201915b505050505081526020016005820160009054906101000a900460ff161515151581526020016005820160019054906101000a900460ff161515151581526020016005820160029054906101000a900460ff1615151515815250509050806000015181602001518260400151836060015184608001518560a001518660e00151975097509750975097509750975050919395979092949650565b600460009054906101000a900473ffffffffffffffffffffffffffffffffffffffff1673ffffffffffffffffffffffffffffffffffffffff163373ffffffffffffffffffffffffffffffffffffffff1614610f04576040517f08c379a0000000000000000000000000000000000000000000000000000000008152600401610efb90613b11565b60405180910390fd5b600081604051610f149190613891565b908152602001604051809103902060050160029054906101000a900460ff1615600082604051610f449190613891565b908152602001604051809103902060050160026101000a81548160ff0219169083151502179055507f9b1a1e5131c18ee5fd8454b3b435b1b36127bd0c05686d9fc6190d638bcb149981600083604051610f9e9190613891565b908152602001604051809103902060050160029054906101000a900460ff16604051610fcb9291906139a1565b60405180910390a150565b60606002805480602002602001604051908101604052809291908181526020016000905b828210156110a657838290600052602060002001805461101990613d5d565b80601f016020809104026020016040519081016040528092919081815260200182805461104590613d5d565b80156110925780601f1061106757610100808354040283529160200191611092565b820191906000526020600020905b81548152906001019060200180831161107557829003601f168201915b505050505081526020019060010190610ffa565b50505050905090565b600460009054906101000a900473ffffffffffffffffffffffffffffffffffffffff1673ffffffffffffffffffffffffffffffffffffffff163373ffffffffffffffffffffffffffffffffffffffff161461113f576040517f08c379a000000000000000000000000000000000000000000000000000000000815260040161113690613b11565b60405180910390fd5b60006001826040516111519190613891565b9081526020016040518091039020600001805461116d90613d5d565b9050116111af576040517f08c379a00000000000000000000000000000000000000000000000000000000081526004016111a690613b31565b60405180910390fd5b600060405180608001604052806040518060400160405280600e81526020017f41646d696e6973747261746f727300000000000000000000000000000000000081525081526020016040518060400160405280600581526020017f557365727300000000000000000000000000000000000000000000000000000081525081526020016040518060400160405280600e81526020017f47726f7570204d616e616765727300000000000000000000000000000000000081525081526020016040518060400160405280600d81526020017f55736572204d616e616765727300000000000000000000000000000000000000815250815250905060005b6004811015611393578181600481106112ed577f4e487b7100000000000000000000000000000000000000000000000000000000600052603260045260246000fd5b60200201516040516020016113029190613891565b60405160208183030381529060405280519060200120836040516020016113299190613891565b604051602081830303815290604052805190602001201415611380576040517f08c379a000000000000000000000000000000000000000000000000000000000815260040161137790613af1565b60405180910390fd5b808061138b90613d8f565b9150506112ab565b506001826040516113a49190613891565b9081526020016040518091039020600080820160006113c39190612f03565b6001820160006113d39190612f43565b6002820160006113e39190612f43565b50506000805b6003805490508110156115b057836040516020016114079190613891565b6040516020818303038152906040528051906020012060038281548110611457577f4e487b7100000000000000000000000000000000000000000000000000000000600052603260045260246000fd5b9060005260206000200160405160200161147191906138a8565b60405160208183030381529060405280519060200120141561159d5760019150600360016003805490506114a59190613cd1565b815481106114dc577f4e487b7100000000000000000000000000000000000000000000000000000000600052603260045260246000fd5b9060005260206000200160038281548110611520577f4e487b7100000000000000000000000000000000000000000000000000000000600052603260045260246000fd5b9060005260206000200190805461153690613d5d565b611541929190612f64565b50600380548061157a577f4e487b7100000000000000000000000000000000000000000000000000000000600052603160045260246000fd5b6001900381819060005260206000200160006115969190612f03565b90556115b0565b80806115a890613d8f565b9150506113e9565b50806115f1576040517f08c379a00000000000000000000000000000000000000000000000000000000081526004016115e890613ad1565b60405180910390fd5b7f3d23503bda008e50d93c77e132b7d2cde3189a8de034b6d382a71004b5a1b0488360405161162091906138fc565b60405180910390a1505050565b600460009054906101000a900473ffffffffffffffffffffffffffffffffffffffff1673ffffffffffffffffffffffffffffffffffffffff163373ffffffffffffffffffffffffffffffffffffffff16146116bd576040517f08c379a00000000000000000000000000000000000000000000000000000000081526004016116b490613b11565b60405180910390fd5b60006001826040516116cf9190613891565b908152602001604051809103902060000180546116eb90613d5d565b90501161172d576040517f08c379a000000000000000000000000000000000000000000000000000000000815260040161172490613b31565b60405180910390fd5b6000808360405161173e9190613891565b9081526020016040518091039020600001805461175a90613d5d565b90501161179c576040517f08c379a000000000000000000000000000000000000000000000000000000000815260040161179390613b51565b60405180910390fd5b60006001826040516117ae9190613891565b908152602001604051809103902060010190506000805b828054905081101561198657846040516020016117e29190613891565b60405160208183030381529060405280519060200120838281548110611831577f4e487b7100000000000000000000000000000000000000000000000000000000600052603260045260246000fd5b9060005260206000200160405160200161184b91906138a8565b6040516020818303038152906040528051906020012014156119735760019150826001848054905061187d9190613cd1565b815481106118b4577f4e487b7100000000000000000000000000000000000000000000000000000000600052603260045260246000fd5b906000526020600020018382815481106118f7577f4e487b7100000000000000000000000000000000000000000000000000000000600052603260045260246000fd5b9060005260206000200190805461190d90613d5d565b611918929190612f64565b5082805480611950577f4e487b7100000000000000000000000000000000000000000000000000000000600052603160045260246000fd5b60019003818190600052602060002001600061196c9190612f03565b9055611986565b808061197e90613d8f565b9150506117c5565b50806119c7576040517f08c379a00000000000000000000000000000000000000000000000000000000081526004016119be90613b71565b60405180910390fd5b7f2987fe5a9775c7dc64ce1b0c8b76d750f2ef0f9e96561a0da6ad7f31a854515a84846040516119f89291906139d1565b60405180910390a150505050565b600080600083604051611a199190613891565b90815260200160405180910390206000018054611a3590613d5d565b9050119050919050565b600460009054906101000a900473ffffffffffffffffffffffffffffffffffffffff1673ffffffffffffffffffffffffffffffffffffffff163373ffffffffffffffffffffffffffffffffffffffff1614611acf576040517f08c379a0000000000000000000000000000000000000000000000000000000008152600401611ac690613b11565b60405180910390fd5b6040518060600160405280838152602001600067ffffffffffffffff811115611b21577f4e487b7100000000000000000000000000000000000000000000000000000000600052604160045260246000fd5b604051908082528060200260200182016040528015611b5457816020015b6060815260200190600190039081611b3f5790505b50815260200182815250600183604051611b6e9190613891565b90815260200160405180910390206000820151816000019080519060200190611b98929190612ff1565b506020820151816001019080519060200190611bb5929190612ea3565b506040820151816002019080519060200190611bd2929190612ea3565b50905050600382908060018154018082558091505060019003906000526020600020016000909190919091509080519060200190611c11929190612ff1565b507f64e45d769b067e3e2de0a2fbfa982b75ad4472af64e84e1c421ec5bbe695de0f8282604051611c4392919061391e565b60405180910390a15050565b6060806060600460009054906101000a900473ffffffffffffffffffffffffffffffffffffffff1673ffffffffffffffffffffffffffffffffffffffff163373ffffffffffffffffffffffffffffffffffffffff1614611ce4576040517f08c379a0000000000000000000000000000000000000000000000000000000008152600401611cdb90613b11565b60405180910390fd5b6000600185604051611cf69190613891565b90815260200160405180910390206000018054611d1290613d5d565b905011611d54576040517f08c379a0000000000000000000000000000000000000000000000000000000008152600401611d4b90613b31565b60405180910390fd5b6000600185604051611d669190613891565b9081526020016040518091039020604051806060016040529081600082018054611d8f90613d5d565b80601f0160208091040260200160405190810160405280929190818152602001828054611dbb90613d5d565b8015611e085780601f10611ddd57610100808354040283529160200191611e08565b820191906000526020600020905b815481529060010190602001808311611deb57829003601f168201915b5050505050815260200160018201805480602002602001604051908101604052809291908181526020016000905b82821015611ee2578382906000526020600020018054611e5590613d5d565b80601f0160208091040260200160405190810160405280929190818152602001828054611e8190613d5d565b8015611ece5780601f10611ea357610100808354040283529160200191611ece565b820191906000526020600020905b815481529060010190602001808311611eb157829003601f168201915b505050505081526020019060010190611e36565b50505050815260200160028201805480602002602001604051908101604052809291908181526020016000905b82821015611fbb578382906000526020600020018054611f2e90613d5d565b80601f0160208091040260200160405190810160405280929190818152602001828054611f5a90613d5d565b8015611fa75780601f10611f7c57610100808354040283529160200191611fa7565b820191906000526020600020905b815481529060010190602001808311611f8a57829003601f168201915b505050505081526020019060010190611f0f565b50505050815250509050806000015181604001518260200151935093509350509193909250565b600460009054906101000a900473ffffffffffffffffffffffffffffffffffffffff1673ffffffffffffffffffffffffffffffffffffffff163373ffffffffffffffffffffffffffffffffffffffff1614612072576040517f08c379a000000000000000000000000000000000000000000000000000000000815260040161206990613b11565b60405180910390fd5b604051806101000160405280858152602001848152602001838152602001828152602001828152602001600015158152602001600015158152602001600115158152506000856040516120c59190613891565b908152602001604051809103902060008201518160000190805190602001906120ef929190612ff1565b50602082015181600101908051906020019061210c929190612ff1565b506040820151816002019080519060200190612129929190612ea3565b506060820151816003019080519060200190612146929190612ff1565b506080820151816004019080519060200190612163929190612ff1565b5060a08201518160050160006101000a81548160ff02191690831515021790555060c08201518160050160016101000a81548160ff02191690831515021790555060e08201518160050160026101000a81548160ff021916908315150217905550905050600284908060018154018082558091505060019003906000526020600020016000909190919091509080519060200190612202929190612ff1565b50612242846040518060400160405280600581526020017f557365727300000000000000000000000000000000000000000000000000000081525061250b565b7f270ff4b111e5baa49283562af127cc5ea74e9d6c9efd5465578bd9223d5843f08460405161227191906138fc565b60405180910390a1600160028054905014156122c7576122c6846040518060400160405280600e81526020017f41646d696e6973747261746f727300000000000000000000000000000000000081525061250b565b5b50505050565b600460009054906101000a900473ffffffffffffffffffffffffffffffffffffffff1673ffffffffffffffffffffffffffffffffffffffff163373ffffffffffffffffffffffffffffffffffffffff161461235d576040517f08c379a000000000000000000000000000000000000000000000000000000000815260040161235490613b11565b60405180910390fd5b8060008360405161236e9190613891565b90815260200160405180910390206001019080519060200190612392929190612ff1565b50600080836040516123a49190613891565b908152602001604051809103902060050160016101000a81548160ff0219169083151502179055507fd0b43b0b96083c98cc0f0370575812de87ee48ff1bde30bcd74f3518443bc4f5826040516123fb91906138fc565b60405180910390a15050565b600460009054906101000a900473ffffffffffffffffffffffffffffffffffffffff1673ffffffffffffffffffffffffffffffffffffffff163373ffffffffffffffffffffffffffffffffffffffff1614612497576040517f08c379a000000000000000000000000000000000000000000000000000000000815260040161248e90613b11565b60405180910390fd5b60016000826040516124a99190613891565b908152602001604051809103902060050160016101000a81548160ff0219169083151502179055507f926f593dd22175375135b3fd9428c5d0298a5665da18756555b6af9f305ab9a68160405161250091906138fc565b60405180910390a150565b600460009054906101000a900473ffffffffffffffffffffffffffffffffffffffff1673ffffffffffffffffffffffffffffffffffffffff163373ffffffffffffffffffffffffffffffffffffffff161461259b576040517f08c379a000000000000000000000000000000000000000000000000000000000815260040161259290613b11565b60405180910390fd5b60006001826040516125ad9190613891565b908152602001604051809103902060000180546125c990613d5d565b90501161260b576040517f08c379a000000000000000000000000000000000000000000000000000000000815260040161260290613b31565b60405180910390fd5b6000808360405161261c9190613891565b9081526020016040518091039020600001805461263890613d5d565b90501161267a576040517f08c379a000000000000000000000000000000000000000000000000000000000815260040161267190613b51565b60405180910390fd5b60018160405161268a9190613891565b9081526020016040518091039020600101829080600181540180825580915050600190039060005260206000200160009091909190915090805190602001906126d4929190612ff1565b507f32475c6c091737c212dc5c54e3565db8aae94283f8b388d2c1dfe772b3f356e182826040516127069291906139d1565b60405180910390a15050565b6060600080836040516127259190613891565b9081526020016040518091039020600001805461274190613d5d565b905011612783576040517f08c379a000000000000000000000000000000000000000000000000000000000815260040161277a90613b51565b60405180910390fd5b600060038054905067ffffffffffffffff8111156127ca577f4e487b7100000000000000000000000000000000000000000000000000000000600052604160045260246000fd5b6040519080825280602002602001820160405280156127fd57816020015b60608152602001906001900390816127e85790505b5090506000805b600380549050811015612a2d57600060016003838154811061284f577f4e487b7100000000000000000000000000000000000000000000000000000000600052603260045260246000fd5b9060005260206000200160405161286691906138a8565b9081526020016040518091039020905060005b8160010180549050811015612a1857866040516020016128999190613891565b604051602081830303815290604052805190602001208260010182815481106128eb577f4e487b7100000000000000000000000000000000000000000000000000000000600052603260045260246000fd5b9060005260206000200160405160200161290591906138a8565b604051602081830303815290604052805190602001201415612a055781600001805461293090613d5d565b80601f016020809104026020016040519081016040528092919081815260200182805461295c90613d5d565b80156129a95780601f1061297e576101008083540402835291602001916129a9565b820191906000526020600020905b81548152906001019060200180831161298c57829003601f168201915b50505050508585815181106129e7577f4e487b7100000000000000000000000000000000000000000000000000000000600052603260045260246000fd5b602002602001018190525083806129fd90613d8f565b945050612a18565b8080612a1090613d8f565b915050612879565b50508080612a2590613d8f565b915050612804565b506000603267ffffffffffffffff811115612a71577f4e487b7100000000000000000000000000000000000000000000000000000000600052604160045260246000fd5b604051908082528060200260200182016040528015612aa457816020015b6060815260200190600190039081612a8f5790505b5090506000805b83811015612d79576000858281518110612aee577f4e487b7100000000000000000000000000000000000000000000000000000000600052603260045260246000fd5b602002602001015190506000600182604051612b0a9190613891565b9081526020016040518091039020600201905060005b8180549050811015612d63576000805b86811015612c2a57838381548110612b71577f4e487b7100000000000000000000000000000000000000000000000000000000600052603260045260246000fd5b90600052602060002001604051602001612b8b91906138a8565b60405160208183030381529060405280519060200120888281518110612bda577f4e487b7100000000000000000000000000000000000000000000000000000000600052603260045260246000fd5b6020026020010151604051602001612bf29190613891565b604051602081830303815290604052805190602001201415612c175760019150612c2a565b8080612c2290613d8f565b915050612b30565b5080612d4f57828281548110612c69577f4e487b7100000000000000000000000000000000000000000000000000000000600052603260045260246000fd5b906000526020600020018054612c7e90613d5d565b80601f0160208091040260200160405190810160405280929190818152602001828054612caa90613d5d565b8015612cf75780601f10612ccc57610100808354040283529160200191612cf7565b820191906000526020600020905b815481529060010190602001808311612cda57829003601f168201915b5050505050878781518110612d35577f4e487b7100000000000000000000000000000000000000000000000000000000600052603260045260246000fd5b60200260200101819052508580612d4b90613d8f565b9650505b508080612d5b90613d8f565b915050612b20565b5050508080612d7190613d8f565b915050612aab565b5060008167ffffffffffffffff811115612dbc577f4e487b7100000000000000000000000000000000000000000000000000000000600052604160045260246000fd5b604051908082528060200260200182016040528015612def57816020015b6060815260200190600190039081612dda5790505b50905060005b82811015612e9557838181518110612e36577f4e487b7100000000000000000000000000000000000000000000000000000000600052603260045260246000fd5b6020026020010151828281518110612e77577f4e487b7100000000000000000000000000000000000000000000000000000000600052603260045260246000fd5b60200260200101819052508080612e8d90613d8f565b915050612df5565b508095505050505050919050565b828054828255906000526020600020908101928215612ef2579160200282015b82811115612ef1578251829080519060200190612ee1929190612ff1565b5091602001919060010190612ec3565b5b509050612eff9190613077565b5090565b508054612f0f90613d5d565b6000825580601f10612f215750612f40565b601f016020900490600052602060002090810190612f3f919061309b565b5b50565b5080546000825590600052602060002090810190612f619190613077565b50565b828054612f7090613d5d565b90600052602060002090601f016020900481019282612f925760008555612fe0565b82601f10612fa35780548555612fe0565b82800160010185558215612fe057600052602060002091601f016020900482015b82811115612fdf578254825591600101919060010190612fc4565b5b509050612fed919061309b565b5090565b828054612ffd90613d5d565b90600052602060002090601f01602090048101928261301f5760008555613066565b82601f1061303857805160ff1916838001178555613066565b82800160010185558215613066579182015b8281111561306557825182559160200191906001019061304a565b5b509050613073919061309b565b5090565b5b80821115613097576000818161308e9190612f03565b50600101613078565b5090565b5b808211156130b457600081600090555060010161309c565b5090565b60006130cb6130c684613bc2565b613b91565b9050808382526020820190508260005b8581101561310b57813585016130f1888261317d565b8452602084019350602083019250506001810190506130db565b5050509392505050565b600061312861312384613bee565b613b91565b90508281526020810184848401111561314057600080fd5b61314b848285613d1b565b509392505050565b600082601f83011261316457600080fd5b81356131748482602086016130b8565b91505092915050565b600082601f83011261318e57600080fd5b813561319e848260208601613115565b91505092915050565b6000602082840312156131b957600080fd5b600082013567ffffffffffffffff8111156131d357600080fd5b6131df8482850161317d565b91505092915050565b600080604083850312156131fb57600080fd5b600083013567ffffffffffffffff81111561321557600080fd5b6132218582860161317d565b925050602083013567ffffffffffffffff81111561323e57600080fd5b61324a85828601613153565b9150509250929050565b6000806040838503121561326757600080fd5b600083013567ffffffffffffffff81111561328157600080fd5b61328d8582860161317d565b925050602083013567ffffffffffffffff8111156132aa57600080fd5b6132b68582860161317d565b9150509250929050565b600080600080608085870312156132d657600080fd5b600085013567ffffffffffffffff8111156132f057600080fd5b6132fc8782880161317d565b945050602085013567ffffffffffffffff81111561331957600080fd5b6133258782880161317d565b935050604085013567ffffffffffffffff81111561334257600080fd5b61334e87828801613153565b925050606085013567ffffffffffffffff81111561336b57600080fd5b6133778782880161317d565b91505092959194509250565b600061338f83836134a3565b905092915050565b60006133a38383613546565b905092915050565b60006133b682613c58565b6133c08185613c93565b9350836020820285016133d285613c1e565b8060005b8581101561340e57848403895281516133ef8582613383565b94506133fa83613c79565b925060208a019950506001810190506133d6565b50829750879550505050505092915050565b600061342b82613c63565b6134358185613c93565b93508360208202850161344785613c2e565b8060005b85811015613482578484038952816134638582613397565b945061346e83613c86565b925060208a0199505060018101905061344b565b50829750879550505050505092915050565b61349d81613d05565b82525050565b60006134ae82613c6e565b6134b88185613ca4565b93506134c8818560208601613d2a565b6134d181613e65565b840191505092915050565b60006134e782613c6e565b6134f18185613cb5565b9350613501818560208601613d2a565b61350a81613e65565b840191505092915050565b600061352082613c6e565b61352a8185613cc6565b935061353a818560208601613d2a565b80840191505092915050565b6000815461355381613d5d565b61355d8186613ca4565b94506001821660008114613578576001811461358a576135bd565b60ff19831686526020860193506135bd565b61359385613c43565b60005b838110156135b557815481890152600182019150602081019050613596565b808801955050505b50505092915050565b600081546135d381613d5d565b6135dd8186613cb5565b945060018216600081146135f8576001811461360a5761363d565b60ff198316865260208601935061363d565b61361385613c43565b60005b8381101561363557815481890152600182019150602081019050613616565b808801955050505b50505092915050565b6000815461365381613d5d565b61365d8186613cc6565b945060018216600081146136785760018114613689576136bc565b60ff198316865281860193506136bc565b61369285613c43565b60005b838110156136b457815481890152600182019150602081019050613695565b838801955050505b50505092915050565b60006136d2602083613cb5565b91507f47726f7570206e6f7420666f756e6420696e20616c6c47726f75704e616d65736000830152602082019050919050565b6000613712602f83613cb5565b91507f4d6f64696679696e6720636f72652067726f7570207065726d697373696f6e7360008301527f206973206e6f7420616c6c6f77656400000000000000000000000000000000006020830152604082019050919050565b6000613778602f83613cb5565b91507f4f6e6c792074686520636f6e7472616374206f776e65722063616e207065726660008301527f6f726d207468697320616374696f6e00000000000000000000000000000000006020830152604082019050919050565b60006137de601483613cb5565b91507f47726f757020646f6573206e6f742065786973740000000000000000000000006000830152602082019050919050565b600061381e601383613cb5565b91507f5573657220646f6573206e6f74206578697374000000000000000000000000006000830152602082019050919050565b600061385e601983613cb5565b91507f55736572206973206e6f7420696e20746869732067726f7570000000000000006000830152602082019050919050565b600061389d8284613515565b915081905092915050565b60006138b48284613646565b915081905092915050565b600060208201905081810360008301526138d981846133ab565b905092915050565b60006020820190506138f66000830184613494565b92915050565b6000602082019050818103600083015261391681846134dc565b905092915050565b6000604082019050818103600083015261393881856134dc565b9050818103602083015261394c81846133ab565b90509392505050565b6000606082019050818103600083015261396f81866134dc565b9050818103602083015261398381856133ab565b9050818103604083015261399781846133ab565b9050949350505050565b600060408201905081810360008301526139bb81856134dc565b90506139ca6020830184613494565b9392505050565b600060408201905081810360008301526139eb81856134dc565b905081810360208301526139ff81846134dc565b90509392505050565b600060e0820190508181036000830152613a22818a6134dc565b90508181036020830152613a3681896134dc565b90508181036040830152613a4a81886133ab565b90508181036060830152613a5e81876134dc565b90508181036080830152613a7281866134dc565b9050613a8160a0830185613494565b613a8e60c0830184613494565b98975050505050505050565b60006040820190508181036000830152613ab481856135c6565b90508181036020830152613ac88184613420565b90509392505050565b60006020820190508181036000830152613aea816136c5565b9050919050565b60006020820190508181036000830152613b0a81613705565b9050919050565b60006020820190508181036000830152613b2a8161376b565b9050919050565b60006020820190508181036000830152613b4a816137d1565b9050919050565b60006020820190508181036000830152613b6a81613811565b9050919050565b60006020820190508181036000830152613b8a81613851565b9050919050565b6000604051905081810181811067ffffffffffffffff82111715613bb857613bb7613e36565b5b8060405250919050565b600067ffffffffffffffff821115613bdd57613bdc613e36565b5b602082029050602081019050919050565b600067ffffffffffffffff821115613c0957613c08613e36565b5b601f19601f8301169050602081019050919050565b6000819050602082019050919050565b60008190508160005260206000209050919050565b60008190508160005260206000209050919050565b600081519050919050565b600081549050919050565b600081519050919050565b6000602082019050919050565b6000600182019050919050565b600082825260208201905092915050565b600082825260208201905092915050565b600082825260208201905092915050565b600081905092915050565b6000613cdc82613d11565b9150613ce783613d11565b925082821015613cfa57613cf9613dd8565b5b828203905092915050565b60008115159050919050565b6000819050919050565b82818337600083830152505050565b60005b83811015613d48578082015181840152602081019050613d2d565b83811115613d57576000848401525b50505050565b60006002820490506001821680613d7557607f821691505b60208210811415613d8957613d88613e07565b5b50919050565b6000613d9a82613d11565b91507fffffffffffffffffffffffffffffffffffffffffffffffffffffffffffffffff821415613dcd57613dcc613dd8565b5b600182019050919050565b7f4e487b7100000000000000000000000000000000000000000000000000000000600052601160045260246000fd5b7f4e487b7100000000000000000000000000000000000000000000000000000000600052602260045260246000fd5b7f4e487b7100000000000000000000000000000000000000000000000000000000600052604160045260246000fd5b6000601f19601f830116905091905056fea264697066735822122049fc34a1e910ebc243b95756aa72bbd239a5798f91df148df22fdf8b04e7e00464736f6c63430008000033",
  "linkReferences": {},
  "deployedLinkReferences": {}
}