{
  "_format": "hh-sol-artifact-1",
  "contractName": "FaceGuard",
  "sourceName": "contracts/FaceGuard.sol",
  "abi": [
    {
      "inputs": [],
      "stateMutability": "nonpayable",
      "type": "constructor"
    },
    {
      "anonymous": false,
      "inputs": [
        {
          "indexed": false,
          "internalType": "string",
          "name": "username",
          "type": "string"
        }
      ],
      "name": "FaceHashUpdated",
      "type": "event"
    },
    {
      "anonymous": false,
      "inputs": [
        {
          "indexed": false,
          "internalType": "string",
          "name": "username",
          "type": "string"
        }
      ],
      "name": "PasswordUpdated",
      "type": "event"
    },
    {
      "anonymous": false,
      "inputs": [
        {
          "indexed": false,
          "internalType": "string",
          "name": "username",
          "type": "string"
        }
      ],
      "name": "PermissionsUpdated",
      "type": "event"
    },
    {
      "anonymous": false,
      "inputs": [
        {
          "indexed": false,
          "internalType": "string",
          "name": "username",
          "type": "string"
        },
        {
          "indexed": false,
          "internalType": "string",
          "name": "applicationKey",
          "type": "string"
        }
      ],
      "name": "UserRegistered",
      "type": "event"
    },
    {
      "anonymous": false,
      "inputs": [
        {
          "indexed": false,
          "internalType": "string",
          "name": "username",
          "type": "string"
        },
        {
          "indexed": false,
          "internalType": "bool",
          "name": "enabled",
          "type": "bool"
        }
      ],
      "name": "UserToggled",
      "type": "event"
    },
    {
      "inputs": [
        {
          "internalType": "string",
          "name": "username",
          "type": "string"
        },
        {
          "internalType": "string[]",
          "name": "newPermissions",
          "type": "string[]"
        }
      ],
      "name": "editUserPermissions",
      "outputs": [],
      "stateMutability": "nonpayable",
      "type": "function"
    },
    {
      "inputs": [
        {
          "internalType": "string",
          "name": "username",
          "type": "string"
        }
      ],
      "name": "getUser",
      "outputs": [
        {
          "internalType": "string",
          "name": "",
          "type": "string"
        },
        {
          "internalType": "string",
          "name": "",
          "type": "string"
        },
        {
          "internalType": "string",
          "name": "",
          "type": "string"
        },
        {
          "internalType": "string[]",
          "name": "",
          "type": "string[]"
        },
        {
          "internalType": "string",
          "name": "",
          "type": "string"
        },
        {
          "internalType": "bool",
          "name": "",
          "type": "bool"
        }
      ],
      "stateMutability": "view",
      "type": "function"
    },
    {
      "inputs": [
        {
          "internalType": "string",
          "name": "username",
          "type": "string"
        },
        {
          "internalType": "string",
          "name": "passwordHash",
          "type": "string"
        },
        {
          "internalType": "string",
          "name": "faceHash",
          "type": "string"
        },
        {
          "internalType": "string",
          "name": "applicationKey",
          "type": "string"
        }
      ],
      "name": "registerUser",
      "outputs": [],
      "stateMutability": "nonpayable",
      "type": "function"
    },
    {
      "inputs": [
        {
          "internalType": "string",
          "name": "username",
          "type": "string"
        }
      ],
      "name": "toggleUser",
      "outputs": [],
      "stateMutability": "nonpayable",
      "type": "function"
    },
    {
      "inputs": [
        {
          "internalType": "string",
          "name": "username",
          "type": "string"
        },
        {
          "internalType": "string",
          "name": "newFaceHash",
          "type": "string"
        }
      ],
      "name": "updateUserFaceHash",
      "outputs": [],
      "stateMutability": "nonpayable",
      "type": "function"
    },
    {
      "inputs": [
        {
          "internalType": "string",
          "name": "username",
          "type": "string"
        },
        {
          "internalType": "string",
          "name": "newPasswordHash",
          "type": "string"
        }
      ],
      "name": "updateUserPassword",
      "outputs": [],
      "stateMutability": "nonpayable",
      "type": "function"
    }
  ],
  "bytecode": "0x608060405234801561001057600080fd5b5033600160006101000a81548173ffffffffffffffffffffffffffffffffffffffff021916908373ffffffffffffffffffffffffffffffffffffffff1602179055506114b2806100616000396000f3fe608060405234801561001057600080fd5b50600436106100625760003560e01c8063109248a11461006757806331feb671146100835780635108c3ab146100b857806393e54a56146100d4578063c91bc46c146100f0578063ca62b1f21461010c575b600080fd5b610081600480360381019061007c9190610e7b565b610128565b005b61009d60048036038101906100989190610dce565b610229565b6040516100af969594939291906111eb565b60405180910390f35b6100d260048036038101906100cd9190610dce565b6105cf565b005b6100ee60048036038101906100e99190610ee7565b610731565b005b61010a60048036038101906101059190610e7b565b610976565b005b61012660048036038101906101219190610e0f565b610a77565b005b600160009054906101000a900473ffffffffffffffffffffffffffffffffffffffff1673ffffffffffffffffffffffffffffffffffffffff163373ffffffffffffffffffffffffffffffffffffffff16146101b8576040517f08c379a00000000000000000000000000000000000000000000000000000000081526004016101af9061126f565b60405180910390fd5b806000836040516101c9919061114b565b908152602001604051809103902060020190805190602001906101ed929190610b78565b507feb1060ec96e942d51b0f7b8b00c334c5c6da57c48f5ef56937468d28d0ee347a8260405161021d9190611162565b60405180910390a15050565b6060806060806060600080600088604051610244919061114b565b90815260200160405180910390206040518060c001604052908160008201805461026d906113db565b80601f0160208091040260200160405190810160405280929190818152602001828054610299906113db565b80156102e65780601f106102bb576101008083540402835291602001916102e6565b820191906000526020600020905b8154815290600101906020018083116102c957829003601f168201915b505050505081526020016001820180546102ff906113db565b80601f016020809104026020016040519081016040528092919081815260200182805461032b906113db565b80156103785780601f1061034d57610100808354040283529160200191610378565b820191906000526020600020905b81548152906001019060200180831161035b57829003601f168201915b50505050508152602001600282018054610391906113db565b80601f01602080910402602001604051908101604052809291908181526020018280546103bd906113db565b801561040a5780601f106103df5761010080835404028352916020019161040a565b820191906000526020600020905b8154815290600101906020018083116103ed57829003601f168201915b5050505050815260200160038201805480602002602001604051908101604052809291908181526020016000905b828210156104e4578382906000526020600020018054610457906113db565b80601f0160208091040260200160405190810160405280929190818152602001828054610483906113db565b80156104d05780601f106104a5576101008083540402835291602001916104d0565b820191906000526020600020905b8154815290600101906020018083116104b357829003601f168201915b505050505081526020019060010190610438565b5050505081526020016004820180546104fc906113db565b80601f0160208091040260200160405190810160405280929190818152602001828054610528906113db565b80156105755780601f1061054a57610100808354040283529160200191610575565b820191906000526020600020905b81548152906001019060200180831161055857829003601f168201915b505050505081526020016005820160009054906101000a900460ff1615151515815250509050806000015181602001518260400151836060015184608001518560a001519650965096509650965096505091939550919395565b600160009054906101000a900473ffffffffffffffffffffffffffffffffffffffff1673ffffffffffffffffffffffffffffffffffffffff163373ffffffffffffffffffffffffffffffffffffffff161461065f576040517f08c379a00000000000000000000000000000000000000000000000000000000081526004016106569061126f565b60405180910390fd5b60008160405161066f919061114b565b908152602001604051809103902060050160009054906101000a900460ff161560008260405161069f919061114b565b908152602001604051809103902060050160006101000a81548160ff0219169083151502179055507f9b1a1e5131c18ee5fd8454b3b435b1b36127bd0c05686d9fc6190d638bcb1499816000836040516106f9919061114b565b908152602001604051809103902060050160009054906101000a900460ff16604051610726929190611184565b60405180910390a150565b600160009054906101000a900473ffffffffffffffffffffffffffffffffffffffff1673ffffffffffffffffffffffffffffffffffffffff163373ffffffffffffffffffffffffffffffffffffffff16146107c1576040517f08c379a00000000000000000000000000000000000000000000000000000000081526004016107b89061126f565b60405180910390fd5b6040518060c00160405280858152602001848152602001838152602001600067ffffffffffffffff81111561081f577f4e487b7100000000000000000000000000000000000000000000000000000000600052604160045260246000fd5b60405190808252806020026020018201604052801561085257816020015b606081526020019060019003908161083d5790505b50815260200182815260200160011515815250600085604051610875919061114b565b9081526020016040518091039020600082015181600001908051906020019061089f929190610b78565b5060208201518160010190805190602001906108bc929190610b78565b5060408201518160020190805190602001906108d9929190610b78565b5060608201518160030190805190602001906108f6929190610bfe565b506080820151816004019080519060200190610913929190610b78565b5060a08201518160050160006101000a81548160ff0219169083151502179055509050507f996d7324173609959370942b1ee1b743dc623b3d50459e66c1d55df55e5a9f3784826040516109689291906111b4565b60405180910390a150505050565b600160009054906101000a900473ffffffffffffffffffffffffffffffffffffffff1673ffffffffffffffffffffffffffffffffffffffff163373ffffffffffffffffffffffffffffffffffffffff1614610a06576040517f08c379a00000000000000000000000000000000000000000000000000000000081526004016109fd9061126f565b60405180910390fd5b80600083604051610a17919061114b565b90815260200160405180910390206001019080519060200190610a3b929190610b78565b507fd0b43b0b96083c98cc0f0370575812de87ee48ff1bde30bcd74f3518443bc4f582604051610a6b9190611162565b60405180910390a15050565b600160009054906101000a900473ffffffffffffffffffffffffffffffffffffffff1673ffffffffffffffffffffffffffffffffffffffff163373ffffffffffffffffffffffffffffffffffffffff1614610b07576040517f08c379a0000000000000000000000000000000000000000000000000000000008152600401610afe9061126f565b60405180910390fd5b80600083604051610b18919061114b565b90815260200160405180910390206003019080519060200190610b3c929190610bfe565b507f41c6e110b0fd95e082e424c7d45e89ce057d9d5c2704c744e5ba0cd0122c774f82604051610b6c9190611162565b60405180910390a15050565b828054610b84906113db565b90600052602060002090601f016020900481019282610ba65760008555610bed565b82601f10610bbf57805160ff1916838001178555610bed565b82800160010185558215610bed579182015b82811115610bec578251825591602001919060010190610bd1565b5b509050610bfa9190610c5e565b5090565b828054828255906000526020600020908101928215610c4d579160200282015b82811115610c4c578251829080519060200190610c3c929190610b78565b5091602001919060010190610c1e565b5b509050610c5a9190610c7b565b5090565b5b80821115610c77576000816000905550600101610c5f565b5090565b5b80821115610c9b5760008181610c929190610c9f565b50600101610c7c565b5090565b508054610cab906113db565b6000825580601f10610cbd5750610cdc565b601f016020900490600052602060002090810190610cdb9190610c5e565b5b50565b6000610cf2610ced846112c0565b61128f565b9050808382526020820190508260005b85811015610d325781358501610d188882610da4565b845260208401935060208301925050600181019050610d02565b5050509392505050565b6000610d4f610d4a846112ec565b61128f565b905082815260208101848484011115610d6757600080fd5b610d72848285611399565b509392505050565b600082601f830112610d8b57600080fd5b8135610d9b848260208601610cdf565b91505092915050565b600082601f830112610db557600080fd5b8135610dc5848260208601610d3c565b91505092915050565b600060208284031215610de057600080fd5b600082013567ffffffffffffffff811115610dfa57600080fd5b610e0684828501610da4565b91505092915050565b60008060408385031215610e2257600080fd5b600083013567ffffffffffffffff811115610e3c57600080fd5b610e4885828601610da4565b925050602083013567ffffffffffffffff811115610e6557600080fd5b610e7185828601610d7a565b9150509250929050565b60008060408385031215610e8e57600080fd5b600083013567ffffffffffffffff811115610ea857600080fd5b610eb485828601610da4565b925050602083013567ffffffffffffffff811115610ed157600080fd5b610edd85828601610da4565b9150509250929050565b60008060008060808587031215610efd57600080fd5b600085013567ffffffffffffffff811115610f1757600080fd5b610f2387828801610da4565b945050602085013567ffffffffffffffff811115610f4057600080fd5b610f4c87828801610da4565b935050604085013567ffffffffffffffff811115610f6957600080fd5b610f7587828801610da4565b925050606085013567ffffffffffffffff811115610f9257600080fd5b610f9e87828801610da4565b91505092959194509250565b6000610fb68383611042565b905092915050565b6000610fc98261132c565b610fd3818561134f565b935083602082028501610fe58561131c565b8060005b8581101561102157848403895281516110028582610faa565b945061100d83611342565b925060208a01995050600181019050610fe9565b50829750879550505050505092915050565b61103c8161138d565b82525050565b600061104d82611337565b6110578185611360565b93506110678185602086016113a8565b6110708161146b565b840191505092915050565b600061108682611337565b6110908185611371565b93506110a08185602086016113a8565b6110a98161146b565b840191505092915050565b60006110bf82611337565b6110c98185611382565b93506110d98185602086016113a8565b80840191505092915050565b60006110f2602f83611371565b91507f4f6e6c792074686520636f6e7472616374206f776e65722063616e207065726660008301527f6f726d207468697320616374696f6e00000000000000000000000000000000006020830152604082019050919050565b600061115782846110b4565b915081905092915050565b6000602082019050818103600083015261117c818461107b565b905092915050565b6000604082019050818103600083015261119e818561107b565b90506111ad6020830184611033565b9392505050565b600060408201905081810360008301526111ce818561107b565b905081810360208301526111e2818461107b565b90509392505050565b600060c0820190508181036000830152611205818961107b565b90508181036020830152611219818861107b565b9050818103604083015261122d818761107b565b905081810360608301526112418186610fbe565b90508181036080830152611255818561107b565b905061126460a0830184611033565b979650505050505050565b60006020820190508181036000830152611288816110e5565b9050919050565b6000604051905081810181811067ffffffffffffffff821117156112b6576112b561143c565b5b8060405250919050565b600067ffffffffffffffff8211156112db576112da61143c565b5b602082029050602081019050919050565b600067ffffffffffffffff8211156113075761130661143c565b5b601f19601f8301169050602081019050919050565b6000819050602082019050919050565b600081519050919050565b600081519050919050565b6000602082019050919050565b600082825260208201905092915050565b600082825260208201905092915050565b600082825260208201905092915050565b600081905092915050565b60008115159050919050565b82818337600083830152505050565b60005b838110156113c65780820151818401526020810190506113ab565b838111156113d5576000848401525b50505050565b600060028204905060018216806113f357607f821691505b602082108114156114075761140661140d565b5b50919050565b7f4e487b7100000000000000000000000000000000000000000000000000000000600052602260045260246000fd5b7f4e487b7100000000000000000000000000000000000000000000000000000000600052604160045260246000fd5b6000601f19601f830116905091905056fea2646970667358221220643576fd8980da666e8349f9a93cf6c75704813a0ac05e542f6efcdf6b86de7f64736f6c63430008000033",
  "linkReferences": {},
  "deployedLinkReferences": {}
}