{
  "_format": "hh-sol-artifact-1",
  "contractName": "FaceGuard",
  "sourceName": "contracts/FaceGuard.sol",
  "abi": [
    {
      "inputs": [],
      "stateMutability": "nonpayable",
      "type": "constructor"
    },
    {
      "anonymous": false,
      "inputs": [
        {
          "indexed": false,
          "internalType": "string",
          "name": "username",
          "type": "string"
        }
      ],
      "name": "FaceHashUpdated",
      "type": "event"
    },
    {
      "anonymous": false,
      "inputs": [
        {
          "indexed": false,
          "internalType": "string",
          "name": "groupName",
          "type": "string"
        }
      ],
      "name": "GroupCreated",
      "type": "event"
    },
    {
      "anonymous": false,
      "inputs": [
        {
          "indexed": false,
          "internalType": "string",
          "name": "groupName",
          "type": "string"
        },
        {
          "indexed": false,
          "internalType": "string[]",
          "name": "permissions",
          "type": "string[]"
        }
      ],
      "name": "GroupPermissionsUpdated",
      "type": "event"
    },
    {
      "anonymous": false,
      "inputs": [
        {
          "indexed": false,
          "internalType": "string",
          "name": "groupName",
          "type": "string"
        }
      ],
      "name": "GroupRemoved",
      "type": "event"
    },
    {
      "anonymous": false,
      "inputs": [
        {
          "indexed": false,
          "internalType": "string",
          "name": "username",
          "type": "string"
        }
      ],
      "name": "PasswordChangeRequired",
      "type": "event"
    },
    {
      "anonymous": false,
      "inputs": [
        {
          "indexed": false,
          "internalType": "string",
          "name": "username",
          "type": "string"
        }
      ],
      "name": "PasswordUpdated",
      "type": "event"
    },
    {
      "anonymous": false,
      "inputs": [
        {
          "indexed": false,
          "internalType": "string",
          "name": "username",
          "type": "string"
        }
      ],
      "name": "PermissionsUpdated",
      "type": "event"
    },
    {
      "anonymous": false,
      "inputs": [
        {
          "indexed": false,
          "internalType": "string",
          "name": "username",
          "type": "string"
        },
        {
          "indexed": false,
          "internalType": "string",
          "name": "groupName",
          "type": "string"
        }
      ],
      "name": "UserAddedToGroup",
      "type": "event"
    },
    {
      "anonymous": false,
      "inputs": [
        {
          "indexed": false,
          "internalType": "string",
          "name": "username",
          "type": "string"
        }
      ],
      "name": "UserRegistered",
      "type": "event"
    },
    {
      "anonymous": false,
      "inputs": [
        {
          "indexed": false,
          "internalType": "string",
          "name": "username",
          "type": "string"
        },
        {
          "indexed": false,
          "internalType": "string",
          "name": "groupName",
          "type": "string"
        }
      ],
      "name": "UserRemovedFromGroup",
      "type": "event"
    },
    {
      "anonymous": false,
      "inputs": [
        {
          "indexed": false,
          "internalType": "string",
          "name": "username",
          "type": "string"
        },
        {
          "indexed": false,
          "internalType": "bool",
          "name": "enabled",
          "type": "bool"
        }
      ],
      "name": "UserToggled",
      "type": "event"
    },
    {
      "inputs": [
        {
          "internalType": "string",
          "name": "username",
          "type": "string"
        },
        {
          "internalType": "string",
          "name": "groupName",
          "type": "string"
        }
      ],
      "name": "addUserToGroup",
      "outputs": [],
      "stateMutability": "nonpayable",
      "type": "function"
    },
    {
      "inputs": [
        {
          "internalType": "string",
          "name": "username",
          "type": "string"
        }
      ],
      "name": "checkIfUserExists",
      "outputs": [
        {
          "internalType": "bool",
          "name": "",
          "type": "bool"
        }
      ],
      "stateMutability": "view",
      "type": "function"
    },
    {
      "inputs": [
        {
          "internalType": "string",
          "name": "groupName",
          "type": "string"
        }
      ],
      "name": "createGroup",
      "outputs": [],
      "stateMutability": "nonpayable",
      "type": "function"
    },
    {
      "inputs": [],
      "name": "getAllGroups",
      "outputs": [
        {
          "internalType": "string[]",
          "name": "",
          "type": "string[]"
        }
      ],
      "stateMutability": "view",
      "type": "function"
    },
    {
      "inputs": [],
      "name": "getAllUsernames",
      "outputs": [
        {
          "internalType": "string[]",
          "name": "",
          "type": "string[]"
        }
      ],
      "stateMutability": "view",
      "type": "function"
    },
    {
      "inputs": [
        {
          "internalType": "string",
          "name": "groupName",
          "type": "string"
        }
      ],
      "name": "getGroup",
      "outputs": [
        {
          "internalType": "string",
          "name": "",
          "type": "string"
        },
        {
          "internalType": "string[]",
          "name": "",
          "type": "string[]"
        },
        {
          "internalType": "string[]",
          "name": "",
          "type": "string[]"
        }
      ],
      "stateMutability": "view",
      "type": "function"
    },
    {
      "inputs": [
        {
          "internalType": "string",
          "name": "username",
          "type": "string"
        }
      ],
      "name": "getUser",
      "outputs": [
        {
          "internalType": "string",
          "name": "",
          "type": "string"
        },
        {
          "internalType": "string",
          "name": "",
          "type": "string"
        },
        {
          "internalType": "string[]",
          "name": "",
          "type": "string[]"
        },
        {
          "internalType": "string",
          "name": "",
          "type": "string"
        },
        {
          "internalType": "string",
          "name": "",
          "type": "string"
        },
        {
          "internalType": "bool",
          "name": "",
          "type": "bool"
        },
        {
          "internalType": "bool",
          "name": "",
          "type": "bool"
        }
      ],
      "stateMutability": "view",
      "type": "function"
    },
    {
      "inputs": [
        {
          "internalType": "string",
          "name": "username",
          "type": "string"
        }
      ],
      "name": "getUserFaceHashes",
      "outputs": [
        {
          "internalType": "string[]",
          "name": "",
          "type": "string[]"
        }
      ],
      "stateMutability": "view",
      "type": "function"
    },
    {
      "inputs": [
        {
          "internalType": "string",
          "name": "username",
          "type": "string"
        }
      ],
      "name": "getUserPermissions",
      "outputs": [
        {
          "internalType": "string[]",
          "name": "",
          "type": "string[]"
        }
      ],
      "stateMutability": "view",
      "type": "function"
    },
    {
      "inputs": [
        {
          "internalType": "string",
          "name": "username",
          "type": "string"
        },
        {
          "internalType": "string",
          "name": "passwordHash",
          "type": "string"
        },
        {
          "internalType": "string[]",
          "name": "initialFaceHashes",
          "type": "string[]"
        },
        {
          "internalType": "string",
          "name": "creationDate",
          "type": "string"
        }
      ],
      "name": "registerUser",
      "outputs": [],
      "stateMutability": "nonpayable",
      "type": "function"
    },
    {
      "inputs": [
        {
          "internalType": "string",
          "name": "groupName",
          "type": "string"
        }
      ],
      "name": "removeGroup",
      "outputs": [],
      "stateMutability": "nonpayable",
      "type": "function"
    },
    {
      "inputs": [
        {
          "internalType": "string",
          "name": "username",
          "type": "string"
        },
        {
          "internalType": "string",
          "name": "groupName",
          "type": "string"
        }
      ],
      "name": "removeUserFromGroup",
      "outputs": [],
      "stateMutability": "nonpayable",
      "type": "function"
    },
    {
      "inputs": [
        {
          "internalType": "string",
          "name": "username",
          "type": "string"
        }
      ],
      "name": "requireUserPasswordChange",
      "outputs": [],
      "stateMutability": "nonpayable",
      "type": "function"
    },
    {
      "inputs": [
        {
          "internalType": "string",
          "name": "groupName",
          "type": "string"
        },
        {
          "internalType": "string[]",
          "name": "groupPermissions",
          "type": "string[]"
        }
      ],
      "name": "setGroupPermissions",
      "outputs": [
        {
          "internalType": "string",
          "name": "",
          "type": "string"
        }
      ],
      "stateMutability": "nonpayable",
      "type": "function"
    },
    {
      "inputs": [
        {
          "internalType": "string",
          "name": "username",
          "type": "string"
        }
      ],
      "name": "toggleUser",
      "outputs": [],
      "stateMutability": "nonpayable",
      "type": "function"
    },
    {
      "inputs": [
        {
          "internalType": "string",
          "name": "username",
          "type": "string"
        },
        {
          "internalType": "string[]",
          "name": "newFaceHashes",
          "type": "string[]"
        }
      ],
      "name": "updateUserFaceHash",
      "outputs": [],
      "stateMutability": "nonpayable",
      "type": "function"
    },
    {
      "inputs": [
        {
          "internalType": "string",
          "name": "username",
          "type": "string"
        },
        {
          "internalType": "string",
          "name": "newPasswordHash",
          "type": "string"
        }
      ],
      "name": "updateUserPassword",
      "outputs": [],
      "stateMutability": "nonpayable",
      "type": "function"
    }
  ],
  "bytecode": "0x60806040523480156200001157600080fd5b5033600660006101000a81548173ffffffffffffffffffffffffffffffffffffffff021916908373ffffffffffffffffffffffffffffffffffffffff160217905550620000996040518060400160405280600e81526020017f41646d696e6973747261746f7273000000000000000000000000000000000000815250620006ab60201b60201c565b620000df6040518060400160405280600581526020017f5573657273000000000000000000000000000000000000000000000000000000815250620006ab60201b60201c565b600480600181540180825580915050600190039060005260206000200160006040518060400160405280600a81526020017f43726561746520416c6c00000000000000000000000000000000000000000000815250909190915090805190602001906200014e92919062000bc2565b50600480600181540180825580915050600190039060005260206000200160006040518060400160405280600e81526020017f5265616420416c6c20557365727300000000000000000000000000000000000081525090919091509080519060200190620001be92919062000bc2565b50600480600181540180825580915050600190039060005260206000200160006040518060400160405280600f81526020017f5265616420416c6c2047726f7570730000000000000000000000000000000000815250909190915090805190602001906200022e92919062000bc2565b50600480600181540180825580915050600190039060005260206000200160006040518060400160405280600a81526020017f55706461746520416c6c00000000000000000000000000000000000000000000815250909190915090805190602001906200029e92919062000bc2565b50600480600181540180825580915050600190039060005260206000200160006040518060400160405280600a81526020017f44656c65746520416c6c00000000000000000000000000000000000000000000815250909190915090805190602001906200030e92919062000bc2565b50600580600181540180825580915050600190039060005260206000200160006040518060400160405280600e81526020017f526561642053656c66204f6e6c79000000000000000000000000000000000000815250909190915090805190602001906200037e92919062000bc2565b50600580600181540180825580915050600190039060005260206000200160006040518060400160405280601581526020017f526561642053656c662047726f757073204f6e6c79000000000000000000000081525090919091509080519060200190620003ee92919062000bc2565b50600580600181540180825580915050600190039060005260206000200160006040518060400160405280601081526020017f5570646174652053656c66204f6e6c7900000000000000000000000000000000815250909190915090805190602001906200045e92919062000bc2565b50620005816040518060400160405280600e81526020017f41646d696e6973747261746f72730000000000000000000000000000000000008152506004805480602002602001604051908101604052809291908181526020016000905b8282101562000571578382906000526020600020018054620004dd9062001194565b80601f01602080910402602001604051908101604052809291908181526020018280546200050b9062001194565b80156200055c5780601f1062000530576101008083540402835291602001916200055c565b820191906000526020600020905b8154815290600101906020018083116200053e57829003601f168201915b505050505081526020019060010190620004bb565b505050506200094160201b60201c565b50620006a46040518060400160405280600581526020017f55736572730000000000000000000000000000000000000000000000000000008152506005805480602002602001604051908101604052809291908181526020016000905b8282101562000694578382906000526020600020018054620006009062001194565b80601f01602080910402602001604051908101604052809291908181526020018280546200062e9062001194565b80156200067f5780601f1062000653576101008083540402835291602001916200067f565b820191906000526020600020905b8154815290600101906020018083116200066157829003601f168201915b505050505081526020019060010190620005de565b505050506200094160201b60201c565b506200120a565b600660009054906101000a900473ffffffffffffffffffffffffffffffffffffffff1673ffffffffffffffffffffffffffffffffffffffff163373ffffffffffffffffffffffffffffffffffffffff16146200073e576040517f08c379a000000000000000000000000000000000000000000000000000000000815260040162000735906200108f565b60405180910390fd5b6040518060600160405280828152602001600067ffffffffffffffff81111562000791577f4e487b7100000000000000000000000000000000000000000000000000000000600052604160045260246000fd5b604051908082528060200260200182016040528015620007c657816020015b6060815260200190600190039081620007b05790505b508152602001600067ffffffffffffffff8111156200080e577f4e487b7100000000000000000000000000000000000000000000000000000000600052604160045260246000fd5b6040519080825280602002602001820160405280156200084357816020015b60608152602001906001900390816200082d5790505b5081525060018260405162000859919062001017565b908152602001604051809103902060008201518160000190805190602001906200088592919062000bc2565b506020820151816001019080519060200190620008a492919062000c53565b506040820151816002019080519060200190620008c392919062000c53565b509050506003819080600181540180825580915050600190039060005260206000200160009091909190915090805190602001906200090492919062000bc2565b507fb4082bf161f07af2ff5aed9b78e2cb1baf973ed4f2cc2e6e8e81a46752cc33458160405162000936919062001030565b60405180910390a150565b6060600660009054906101000a900473ffffffffffffffffffffffffffffffffffffffff1673ffffffffffffffffffffffffffffffffffffffff163373ffffffffffffffffffffffffffffffffffffffff1614620009d6576040517f08c379a0000000000000000000000000000000000000000000000000000000008152600401620009cd906200108f565b60405180910390fd5b6000600184604051620009ea919062001017565b9081526020016040518091039020600001805462000a089062001194565b90501162000a4d576040517f08c379a000000000000000000000000000000000000000000000000000000000815260040162000a4490620010b1565b60405180910390fd5b8160018460405162000a60919062001017565b9081526020016040518091039020600201908051906020019062000a8692919062000c53565b507f65d29756900166ea1a95042b775077b9e0c4b52e2ad303784b8fc75584de59ef60018460405162000aba919062001017565b908152602001604051809103902060000160018560405162000add919062001017565b908152602001604051809103902060020160405162000afe92919062001054565b60405180910390a160018360405162000b18919062001017565b9081526020016040518091039020600001805462000b369062001194565b80601f016020809104026020016040519081016040528092919081815260200182805462000b649062001194565b801562000bb55780601f1062000b895761010080835404028352916020019162000bb5565b820191906000526020600020905b81548152906001019060200180831162000b9757829003601f168201915b5050505050905092915050565b82805462000bd09062001194565b90600052602060002090601f01602090048101928262000bf4576000855562000c40565b82601f1062000c0f57805160ff191683800117855562000c40565b8280016001018555821562000c40579182015b8281111562000c3f57825182559160200191906001019062000c22565b5b50905062000c4f919062000cba565b5090565b82805482825590600052602060002090810192821562000ca7579160200282015b8281111562000ca657825182908051906020019062000c9592919062000bc2565b509160200191906001019062000c74565b5b50905062000cb6919062000cd9565b5090565b5b8082111562000cd557600081600090555060010162000cbb565b5090565b5b8082111562000cfd576000818162000cf3919062000d01565b5060010162000cda565b5090565b50805462000d0f9062001194565b6000825580601f1062000d23575062000d44565b601f01602090049060005260206000209081019062000d43919062000cba565b5b50565b600062000d55838362000e55565b905092915050565b600062000d6a82620010fd565b62000d76818562001120565b93508360208202850162000d8a85620010d3565b8060005b8581101562000dcb5784840389528162000da9858262000d47565b945062000db68362001113565b925060208a0199505060018101905062000d8e565b50829750879550505050505092915050565b600062000dea8262001108565b62000df6818562001142565b935062000e088185602086016200115e565b62000e1381620011f9565b840191505092915050565b600062000e2b8262001108565b62000e37818562001153565b935062000e498185602086016200115e565b80840191505092915050565b6000815462000e648162001194565b62000e70818662001131565b9450600182166000811462000e8e576001811462000ea15762000ed8565b60ff198316865260208601935062000ed8565b62000eac85620010e8565b60005b8381101562000ed05781548189015260018201915060208101905062000eaf565b808801955050505b50505092915050565b6000815462000ef08162001194565b62000efc818662001142565b9450600182166000811462000f1a576001811462000f2d5762000f64565b60ff198316865260208601935062000f64565b62000f3885620010e8565b60005b8381101562000f5c5781548189015260018201915060208101905062000f3b565b808801955050505b50505092915050565b600062000f7c602f8362001142565b91507f4f6e6c792074686520636f6e7472616374206f776e65722063616e207065726660008301527f6f726d207468697320616374696f6e00000000000000000000000000000000006020830152604082019050919050565b600062000fe460148362001142565b91507f47726f757020646f6573206e6f742065786973740000000000000000000000006000830152602082019050919050565b600062001025828462000e1e565b915081905092915050565b600060208201905081810360008301526200104c818462000ddd565b905092915050565b6000604082019050818103600083015262001070818562000ee1565b9050818103602083015262001086818462000d5d565b90509392505050565b60006020820190508181036000830152620010aa8162000f6d565b9050919050565b60006020820190508181036000830152620010cc8162000fd5565b9050919050565b60008190508160005260206000209050919050565b60008190508160005260206000209050919050565b600081549050919050565b600081519050919050565b6000600182019050919050565b600082825260208201905092915050565b600082825260208201905092915050565b600082825260208201905092915050565b600081905092915050565b60005b838110156200117e57808201518184015260208101905062001161565b838111156200118e576000848401525b50505050565b60006002820490506001821680620011ad57607f821691505b60208210811415620011c457620011c3620011ca565b5b50919050565b7f4e487b7100000000000000000000000000000000000000000000000000000000600052602260045260246000fd5b6000601f19601f8301169050919050565b613a94806200121a6000396000f3fe608060405234801561001057600080fd5b506004361061010b5760003560e01c806367753ba1116100a2578063c91bc46c11610071578063c91bc46c146102d0578063dc2ddcae146102ec578063e537cac714610308578063ecb5a4d514610324578063ee1c55da146103405761010b565b806367753ba1146102365780636cad193414610252578063abef281e14610282578063b9e6facb146102b45761010b565b806331feb671116100de57806331feb671146101aa5780635108c3ab146101e057806353620375146101fc5780636246b3101461021a5761010b565b806303df9e92146101105780631ae7f10a1461012c57806321cd3cae1461015c5780632d09d9e91461017a575b600080fd5b61012a60048036038101906101259190612e8d565b610370565b005b61014660048036038101906101419190612e8d565b610471565b604051610153919061353b565b60405180910390f35b6101646106d4565b60405161017191906134fe565b60405180910390f35b610194600480360381019061018f9190612e4c565b6107ad565b6040516101a191906134fe565b60405180910390f35b6101c460048036038101906101bf9190612e4c565b6108a7565b6040516101d79796959493929190613610565b60405180910390f35b6101fa60048036038101906101f59190612e4c565b610c8e565b005b610204610df0565b60405161021191906134fe565b60405180910390f35b610234600480360381019061022f9190612e4c565b610ec9565b005b610250600480360381019061024b9190612ef9565b611261565b005b61026c60048036038101906102679190612e4c565b61163a565b6040516102799190613520565b60405180910390f35b61029c60048036038101906102979190612e4c565b611673565b6040516102ab9392919061355d565b60405180910390f35b6102ce60048036038101906102c99190612f65565b611a06565b005b6102ea60048036038101906102e59190612ef9565b611cf1565b005b61030660048036038101906103019190612e4c565b611e2b565b005b610322600480360381019061031d9190612e4c565b6120ac565b005b61033e60048036038101906103399190612ef9565b6121b0565b005b61035a60048036038101906103559190612e4c565b6123b7565b60405161036791906134fe565b60405180910390f35b600660009054906101000a900473ffffffffffffffffffffffffffffffffffffffff1673ffffffffffffffffffffffffffffffffffffffff163373ffffffffffffffffffffffffffffffffffffffff1614610400576040517f08c379a00000000000000000000000000000000000000000000000000000000081526004016103f7906136f9565b60405180910390fd5b8060008360405161041191906134d0565b90815260200160405180910390206002019080519060200190610435929190612b48565b507feb1060ec96e942d51b0f7b8b00c334c5c6da57c48f5ef56937468d28d0ee347a82604051610465919061353b565b60405180910390a15050565b6060600660009054906101000a900473ffffffffffffffffffffffffffffffffffffffff1673ffffffffffffffffffffffffffffffffffffffff163373ffffffffffffffffffffffffffffffffffffffff1614610503576040517f08c379a00000000000000000000000000000000000000000000000000000000081526004016104fa906136f9565b60405180910390fd5b600060018460405161051591906134d0565b9081526020016040518091039020600001805461053190613945565b905011610573576040517f08c379a000000000000000000000000000000000000000000000000000000000815260040161056a90613719565b60405180910390fd5b8160018460405161058491906134d0565b908152602001604051809103902060020190805190602001906105a8929190612b48565b507f65d29756900166ea1a95042b775077b9e0c4b52e2ad303784b8fc75584de59ef6001846040516105da91906134d0565b90815260200160405180910390206000016001856040516105fb91906134d0565b908152602001604051809103902060020160405161061a9291906136a2565b60405180910390a160018360405161063291906134d0565b9081526020016040518091039020600001805461064e90613945565b80601f016020809104026020016040519081016040528092919081815260200182805461067a90613945565b80156106c75780601f1061069c576101008083540402835291602001916106c7565b820191906000526020600020905b8154815290600101906020018083116106aa57829003601f168201915b5050505050905092915050565b60606003805480602002602001604051908101604052809291908181526020016000905b828210156107a457838290600052602060002001805461071790613945565b80601f016020809104026020016040519081016040528092919081815260200182805461074390613945565b80156107905780601f1061076557610100808354040283529160200191610790565b820191906000526020600020905b81548152906001019060200180831161077357829003601f168201915b5050505050815260200190600101906106f8565b50505050905090565b60606000826040516107bf91906134d0565b9081526020016040518091039020600201805480602002602001604051908101604052809291908181526020016000905b8282101561089c57838290600052602060002001805461080f90613945565b80601f016020809104026020016040519081016040528092919081815260200182805461083b90613945565b80156108885780601f1061085d57610100808354040283529160200191610888565b820191906000526020600020905b81548152906001019060200180831161086b57829003601f168201915b5050505050815260200190600101906107f0565b505050509050919050565b6060806060806060600080600080896040516108c391906134d0565b9081526020016040518091039020604051806101000160405290816000820180546108ed90613945565b80601f016020809104026020016040519081016040528092919081815260200182805461091990613945565b80156109665780601f1061093b57610100808354040283529160200191610966565b820191906000526020600020905b81548152906001019060200180831161094957829003601f168201915b5050505050815260200160018201805461097f90613945565b80601f01602080910402602001604051908101604052809291908181526020018280546109ab90613945565b80156109f85780601f106109cd576101008083540402835291602001916109f8565b820191906000526020600020905b8154815290600101906020018083116109db57829003601f168201915b5050505050815260200160028201805480602002602001604051908101604052809291908181526020016000905b82821015610ad2578382906000526020600020018054610a4590613945565b80601f0160208091040260200160405190810160405280929190818152602001828054610a7190613945565b8015610abe5780601f10610a9357610100808354040283529160200191610abe565b820191906000526020600020905b815481529060010190602001808311610aa157829003601f168201915b505050505081526020019060010190610a26565b505050508152602001600382018054610aea90613945565b80601f0160208091040260200160405190810160405280929190818152602001828054610b1690613945565b8015610b635780601f10610b3857610100808354040283529160200191610b63565b820191906000526020600020905b815481529060010190602001808311610b4657829003601f168201915b50505050508152602001600482018054610b7c90613945565b80601f0160208091040260200160405190810160405280929190818152602001828054610ba890613945565b8015610bf55780601f10610bca57610100808354040283529160200191610bf5565b820191906000526020600020905b815481529060010190602001808311610bd857829003601f168201915b505050505081526020016005820160009054906101000a900460ff161515151581526020016005820160019054906101000a900460ff161515151581526020016005820160029054906101000a900460ff1615151515815250509050806000015181602001518260400151836060015184608001518560a001518660e00151975097509750975097509750975050919395979092949650565b600660009054906101000a900473ffffffffffffffffffffffffffffffffffffffff1673ffffffffffffffffffffffffffffffffffffffff163373ffffffffffffffffffffffffffffffffffffffff1614610d1e576040517f08c379a0000000000000000000000000000000000000000000000000000000008152600401610d15906136f9565b60405180910390fd5b600081604051610d2e91906134d0565b908152602001604051809103902060050160029054906101000a900460ff1615600082604051610d5e91906134d0565b908152602001604051809103902060050160026101000a81548160ff0219169083151502179055507f9b1a1e5131c18ee5fd8454b3b435b1b36127bd0c05686d9fc6190d638bcb149981600083604051610db891906134d0565b908152602001604051809103902060050160029054906101000a900460ff16604051610de59291906135a9565b60405180910390a150565b60606002805480602002602001604051908101604052809291908181526020016000905b82821015610ec0578382906000526020600020018054610e3390613945565b80601f0160208091040260200160405190810160405280929190818152602001828054610e5f90613945565b8015610eac5780601f10610e8157610100808354040283529160200191610eac565b820191906000526020600020905b815481529060010190602001808311610e8f57829003601f168201915b505050505081526020019060010190610e14565b50505050905090565b600660009054906101000a900473ffffffffffffffffffffffffffffffffffffffff1673ffffffffffffffffffffffffffffffffffffffff163373ffffffffffffffffffffffffffffffffffffffff1614610f59576040517f08c379a0000000000000000000000000000000000000000000000000000000008152600401610f50906136f9565b60405180910390fd5b6000600182604051610f6b91906134d0565b90815260200160405180910390206000018054610f8790613945565b905011610fc9576040517f08c379a0000000000000000000000000000000000000000000000000000000008152600401610fc090613719565b60405180910390fd5b600181604051610fd991906134d0565b908152602001604051809103902060008082016000610ff89190612ba8565b6001820160006110089190612be8565b6002820160006110189190612be8565b50506000805b6003805490508110156111e5578260405160200161103c91906134d0565b604051602081830303815290604052805190602001206003828154811061108c577f4e487b7100000000000000000000000000000000000000000000000000000000600052603260045260246000fd5b906000526020600020016040516020016110a691906134e7565b6040516020818303038152906040528051906020012014156111d25760019150600360016003805490506110da91906138b9565b81548110611111577f4e487b7100000000000000000000000000000000000000000000000000000000600052603260045260246000fd5b9060005260206000200160038281548110611155577f4e487b7100000000000000000000000000000000000000000000000000000000600052603260045260246000fd5b9060005260206000200190805461116b90613945565b611176929190612c09565b5060038054806111af577f4e487b7100000000000000000000000000000000000000000000000000000000600052603160045260246000fd5b6001900381819060005260206000200160006111cb9190612ba8565b90556111e5565b80806111dd90613977565b91505061101e565b5080611226576040517f08c379a000000000000000000000000000000000000000000000000000000000815260040161121d906136d9565b60405180910390fd5b7f3d23503bda008e50d93c77e132b7d2cde3189a8de034b6d382a71004b5a1b04882604051611255919061353b565b60405180910390a15050565b600660009054906101000a900473ffffffffffffffffffffffffffffffffffffffff1673ffffffffffffffffffffffffffffffffffffffff163373ffffffffffffffffffffffffffffffffffffffff16146112f1576040517f08c379a00000000000000000000000000000000000000000000000000000000081526004016112e8906136f9565b60405180910390fd5b600060018260405161130391906134d0565b9081526020016040518091039020600001805461131f90613945565b905011611361576040517f08c379a000000000000000000000000000000000000000000000000000000000815260040161135890613719565b60405180910390fd5b6000808360405161137291906134d0565b9081526020016040518091039020600001805461138e90613945565b9050116113d0576040517f08c379a00000000000000000000000000000000000000000000000000000000081526004016113c790613739565b60405180910390fd5b60006001826040516113e291906134d0565b908152602001604051809103902060010190506000805b82805490508110156115ba578460405160200161141691906134d0565b60405160208183030381529060405280519060200120838281548110611465577f4e487b7100000000000000000000000000000000000000000000000000000000600052603260045260246000fd5b9060005260206000200160405160200161147f91906134e7565b6040516020818303038152906040528051906020012014156115a7576001915082600184805490506114b191906138b9565b815481106114e8577f4e487b7100000000000000000000000000000000000000000000000000000000600052603260045260246000fd5b9060005260206000200183828154811061152b577f4e487b7100000000000000000000000000000000000000000000000000000000600052603260045260246000fd5b9060005260206000200190805461154190613945565b61154c929190612c09565b5082805480611584577f4e487b7100000000000000000000000000000000000000000000000000000000600052603160045260246000fd5b6001900381819060005260206000200160006115a09190612ba8565b90556115ba565b80806115b290613977565b9150506113f9565b50806115fb576040517f08c379a00000000000000000000000000000000000000000000000000000000081526004016115f290613759565b60405180910390fd5b7f2987fe5a9775c7dc64ce1b0c8b76d750f2ef0f9e96561a0da6ad7f31a854515a848460405161162c9291906135d9565b60405180910390a150505050565b60008060008360405161164d91906134d0565b9081526020016040518091039020600001805461166990613945565b9050119050919050565b6060806060600660009054906101000a900473ffffffffffffffffffffffffffffffffffffffff1673ffffffffffffffffffffffffffffffffffffffff163373ffffffffffffffffffffffffffffffffffffffff1614611708576040517f08c379a00000000000000000000000000000000000000000000000000000000081526004016116ff906136f9565b60405180910390fd5b600060018560405161171a91906134d0565b9081526020016040518091039020600001805461173690613945565b905011611778576040517f08c379a000000000000000000000000000000000000000000000000000000000815260040161176f90613719565b60405180910390fd5b600060018560405161178a91906134d0565b90815260200160405180910390206040518060600160405290816000820180546117b390613945565b80601f01602080910402602001604051908101604052809291908181526020018280546117df90613945565b801561182c5780601f106118015761010080835404028352916020019161182c565b820191906000526020600020905b81548152906001019060200180831161180f57829003601f168201915b5050505050815260200160018201805480602002602001604051908101604052809291908181526020016000905b8282101561190657838290600052602060002001805461187990613945565b80601f01602080910402602001604051908101604052809291908181526020018280546118a590613945565b80156118f25780601f106118c7576101008083540402835291602001916118f2565b820191906000526020600020905b8154815290600101906020018083116118d557829003601f168201915b50505050508152602001906001019061185a565b50505050815260200160028201805480602002602001604051908101604052809291908181526020016000905b828210156119df57838290600052602060002001805461195290613945565b80601f016020809104026020016040519081016040528092919081815260200182805461197e90613945565b80156119cb5780601f106119a0576101008083540402835291602001916119cb565b820191906000526020600020905b8154815290600101906020018083116119ae57829003601f168201915b505050505081526020019060010190611933565b50505050815250509050806000015181604001518260200151935093509350509193909250565b600660009054906101000a900473ffffffffffffffffffffffffffffffffffffffff1673ffffffffffffffffffffffffffffffffffffffff163373ffffffffffffffffffffffffffffffffffffffff1614611a96576040517f08c379a0000000000000000000000000000000000000000000000000000000008152600401611a8d906136f9565b60405180910390fd5b60405180610100016040528085815260200184815260200183815260200182815260200182815260200160001515815260200160001515815260200160011515815250600085604051611ae991906134d0565b90815260200160405180910390206000820151816000019080519060200190611b13929190612c96565b506020820151816001019080519060200190611b30929190612c96565b506040820151816002019080519060200190611b4d929190612b48565b506060820151816003019080519060200190611b6a929190612c96565b506080820151816004019080519060200190611b87929190612c96565b5060a08201518160050160006101000a81548160ff02191690831515021790555060c08201518160050160016101000a81548160ff02191690831515021790555060e08201518160050160026101000a81548160ff021916908315150217905550905050600284908060018154018082558091505060019003906000526020600020016000909190919091509080519060200190611c26929190612c96565b50611c66846040518060400160405280600581526020017f55736572730000000000000000000000000000000000000000000000000000008152506121b0565b7f270ff4b111e5baa49283562af127cc5ea74e9d6c9efd5465578bd9223d5843f084604051611c95919061353b565b60405180910390a160016002805490501415611ceb57611cea846040518060400160405280600e81526020017f41646d696e6973747261746f72730000000000000000000000000000000000008152506121b0565b5b50505050565b600660009054906101000a900473ffffffffffffffffffffffffffffffffffffffff1673ffffffffffffffffffffffffffffffffffffffff163373ffffffffffffffffffffffffffffffffffffffff1614611d81576040517f08c379a0000000000000000000000000000000000000000000000000000000008152600401611d78906136f9565b60405180910390fd5b80600083604051611d9291906134d0565b90815260200160405180910390206001019080519060200190611db6929190612c96565b5060008083604051611dc891906134d0565b908152602001604051809103902060050160016101000a81548160ff0219169083151502179055507fd0b43b0b96083c98cc0f0370575812de87ee48ff1bde30bcd74f3518443bc4f582604051611e1f919061353b565b60405180910390a15050565b600660009054906101000a900473ffffffffffffffffffffffffffffffffffffffff1673ffffffffffffffffffffffffffffffffffffffff163373ffffffffffffffffffffffffffffffffffffffff1614611ebb576040517f08c379a0000000000000000000000000000000000000000000000000000000008152600401611eb2906136f9565b60405180910390fd5b6040518060600160405280828152602001600067ffffffffffffffff811115611f0d577f4e487b7100000000000000000000000000000000000000000000000000000000600052604160045260246000fd5b604051908082528060200260200182016040528015611f4057816020015b6060815260200190600190039081611f2b5790505b508152602001600067ffffffffffffffff811115611f87577f4e487b7100000000000000000000000000000000000000000000000000000000600052604160045260246000fd5b604051908082528060200260200182016040528015611fba57816020015b6060815260200190600190039081611fa55790505b50815250600182604051611fce91906134d0565b90815260200160405180910390206000820151816000019080519060200190611ff8929190612c96565b506020820151816001019080519060200190612015929190612b48565b506040820151816002019080519060200190612032929190612b48565b50905050600381908060018154018082558091505060019003906000526020600020016000909190919091509080519060200190612071929190612c96565b507fb4082bf161f07af2ff5aed9b78e2cb1baf973ed4f2cc2e6e8e81a46752cc3345816040516120a1919061353b565b60405180910390a150565b600660009054906101000a900473ffffffffffffffffffffffffffffffffffffffff1673ffffffffffffffffffffffffffffffffffffffff163373ffffffffffffffffffffffffffffffffffffffff161461213c576040517f08c379a0000000000000000000000000000000000000000000000000000000008152600401612133906136f9565b60405180910390fd5b600160008260405161214e91906134d0565b908152602001604051809103902060050160016101000a81548160ff0219169083151502179055507f926f593dd22175375135b3fd9428c5d0298a5665da18756555b6af9f305ab9a6816040516121a5919061353b565b60405180910390a150565b600660009054906101000a900473ffffffffffffffffffffffffffffffffffffffff1673ffffffffffffffffffffffffffffffffffffffff163373ffffffffffffffffffffffffffffffffffffffff1614612240576040517f08c379a0000000000000000000000000000000000000000000000000000000008152600401612237906136f9565b60405180910390fd5b600060018260405161225291906134d0565b9081526020016040518091039020600001805461226e90613945565b9050116122b0576040517f08c379a00000000000000000000000000000000000000000000000000000000081526004016122a790613719565b60405180910390fd5b600080836040516122c191906134d0565b908152602001604051809103902060000180546122dd90613945565b90501161231f576040517f08c379a000000000000000000000000000000000000000000000000000000000815260040161231690613739565b60405180910390fd5b60018160405161232f91906134d0565b908152602001604051809103902060010182908060018154018082558091505060019003906000526020600020016000909190919091509080519060200190612379929190612c96565b507f32475c6c091737c212dc5c54e3565db8aae94283f8b388d2c1dfe772b3f356e182826040516123ab9291906135d9565b60405180910390a15050565b6060600080836040516123ca91906134d0565b908152602001604051809103902060000180546123e690613945565b905011612428576040517f08c379a000000000000000000000000000000000000000000000000000000000815260040161241f90613739565b60405180910390fd5b600060038054905067ffffffffffffffff81111561246f577f4e487b7100000000000000000000000000000000000000000000000000000000600052604160045260246000fd5b6040519080825280602002602001820160405280156124a257816020015b606081526020019060019003908161248d5790505b5090506000805b6003805490508110156126d25760006001600383815481106124f4577f4e487b7100000000000000000000000000000000000000000000000000000000600052603260045260246000fd5b9060005260206000200160405161250b91906134e7565b9081526020016040518091039020905060005b81600101805490508110156126bd578660405160200161253e91906134d0565b60405160208183030381529060405280519060200120826001018281548110612590577f4e487b7100000000000000000000000000000000000000000000000000000000600052603260045260246000fd5b906000526020600020016040516020016125aa91906134e7565b6040516020818303038152906040528051906020012014156126aa578160000180546125d590613945565b80601f016020809104026020016040519081016040528092919081815260200182805461260190613945565b801561264e5780601f106126235761010080835404028352916020019161264e565b820191906000526020600020905b81548152906001019060200180831161263157829003601f168201915b505050505085858151811061268c577f4e487b7100000000000000000000000000000000000000000000000000000000600052603260045260246000fd5b602002602001018190525083806126a290613977565b9450506126bd565b80806126b590613977565b91505061251e565b505080806126ca90613977565b9150506124a9565b506000603267ffffffffffffffff811115612716577f4e487b7100000000000000000000000000000000000000000000000000000000600052604160045260246000fd5b60405190808252806020026020018201604052801561274957816020015b60608152602001906001900390816127345790505b5090506000805b83811015612a1e576000858281518110612793577f4e487b7100000000000000000000000000000000000000000000000000000000600052603260045260246000fd5b6020026020010151905060006001826040516127af91906134d0565b9081526020016040518091039020600201905060005b8180549050811015612a08576000805b868110156128cf57838381548110612816577f4e487b7100000000000000000000000000000000000000000000000000000000600052603260045260246000fd5b9060005260206000200160405160200161283091906134e7565b6040516020818303038152906040528051906020012088828151811061287f577f4e487b7100000000000000000000000000000000000000000000000000000000600052603260045260246000fd5b602002602001015160405160200161289791906134d0565b6040516020818303038152906040528051906020012014156128bc57600191506128cf565b80806128c790613977565b9150506127d5565b50806129f45782828154811061290e577f4e487b7100000000000000000000000000000000000000000000000000000000600052603260045260246000fd5b90600052602060002001805461292390613945565b80601f016020809104026020016040519081016040528092919081815260200182805461294f90613945565b801561299c5780601f106129715761010080835404028352916020019161299c565b820191906000526020600020905b81548152906001019060200180831161297f57829003601f168201915b50505050508787815181106129da577f4e487b7100000000000000000000000000000000000000000000000000000000600052603260045260246000fd5b602002602001018190525085806129f090613977565b9650505b508080612a0090613977565b9150506127c5565b5050508080612a1690613977565b915050612750565b5060008167ffffffffffffffff811115612a61577f4e487b7100000000000000000000000000000000000000000000000000000000600052604160045260246000fd5b604051908082528060200260200182016040528015612a9457816020015b6060815260200190600190039081612a7f5790505b50905060005b82811015612b3a57838181518110612adb577f4e487b7100000000000000000000000000000000000000000000000000000000600052603260045260246000fd5b6020026020010151828281518110612b1c577f4e487b7100000000000000000000000000000000000000000000000000000000600052603260045260246000fd5b60200260200101819052508080612b3290613977565b915050612a9a565b508095505050505050919050565b828054828255906000526020600020908101928215612b97579160200282015b82811115612b96578251829080519060200190612b86929190612c96565b5091602001919060010190612b68565b5b509050612ba49190612d1c565b5090565b508054612bb490613945565b6000825580601f10612bc65750612be5565b601f016020900490600052602060002090810190612be49190612d40565b5b50565b5080546000825590600052602060002090810190612c069190612d1c565b50565b828054612c1590613945565b90600052602060002090601f016020900481019282612c375760008555612c85565b82601f10612c485780548555612c85565b82800160010185558215612c8557600052602060002091601f016020900482015b82811115612c84578254825591600101919060010190612c69565b5b509050612c929190612d40565b5090565b828054612ca290613945565b90600052602060002090601f016020900481019282612cc45760008555612d0b565b82601f10612cdd57805160ff1916838001178555612d0b565b82800160010185558215612d0b579182015b82811115612d0a578251825591602001919060010190612cef565b5b509050612d189190612d40565b5090565b5b80821115612d3c5760008181612d339190612ba8565b50600101612d1d565b5090565b5b80821115612d59576000816000905550600101612d41565b5090565b6000612d70612d6b846137aa565b613779565b9050808382526020820190508260005b85811015612db05781358501612d968882612e22565b845260208401935060208301925050600181019050612d80565b5050509392505050565b6000612dcd612dc8846137d6565b613779565b905082815260208101848484011115612de557600080fd5b612df0848285613903565b509392505050565b600082601f830112612e0957600080fd5b8135612e19848260208601612d5d565b91505092915050565b600082601f830112612e3357600080fd5b8135612e43848260208601612dba565b91505092915050565b600060208284031215612e5e57600080fd5b600082013567ffffffffffffffff811115612e7857600080fd5b612e8484828501612e22565b91505092915050565b60008060408385031215612ea057600080fd5b600083013567ffffffffffffffff811115612eba57600080fd5b612ec685828601612e22565b925050602083013567ffffffffffffffff811115612ee357600080fd5b612eef85828601612df8565b9150509250929050565b60008060408385031215612f0c57600080fd5b600083013567ffffffffffffffff811115612f2657600080fd5b612f3285828601612e22565b925050602083013567ffffffffffffffff811115612f4f57600080fd5b612f5b85828601612e22565b9150509250929050565b60008060008060808587031215612f7b57600080fd5b600085013567ffffffffffffffff811115612f9557600080fd5b612fa187828801612e22565b945050602085013567ffffffffffffffff811115612fbe57600080fd5b612fca87828801612e22565b935050604085013567ffffffffffffffff811115612fe757600080fd5b612ff387828801612df8565b925050606085013567ffffffffffffffff81111561301057600080fd5b61301c87828801612e22565b91505092959194509250565b60006130348383613148565b905092915050565b600061304883836131eb565b905092915050565b600061305b82613840565b613065818561387b565b93508360208202850161307785613806565b8060005b858110156130b357848403895281516130948582613028565b945061309f83613861565b925060208a0199505060018101905061307b565b50829750879550505050505092915050565b60006130d08261384b565b6130da818561387b565b9350836020820285016130ec85613816565b8060005b8581101561312757848403895281613108858261303c565b94506131138361386e565b925060208a019950506001810190506130f0565b50829750879550505050505092915050565b613142816138ed565b82525050565b600061315382613856565b61315d818561388c565b935061316d818560208601613912565b61317681613a4d565b840191505092915050565b600061318c82613856565b613196818561389d565b93506131a6818560208601613912565b6131af81613a4d565b840191505092915050565b60006131c582613856565b6131cf81856138ae565b93506131df818560208601613912565b80840191505092915050565b600081546131f881613945565b613202818661388c565b9450600182166000811461321d576001811461322f57613262565b60ff1983168652602086019350613262565b6132388561382b565b60005b8381101561325a5781548189015260018201915060208101905061323b565b808801955050505b50505092915050565b6000815461327881613945565b613282818661389d565b9450600182166000811461329d57600181146132af576132e2565b60ff19831686526020860193506132e2565b6132b88561382b565b60005b838110156132da578154818901526001820191506020810190506132bb565b808801955050505b50505092915050565b600081546132f881613945565b61330281866138ae565b9450600182166000811461331d576001811461332e57613361565b60ff19831686528186019350613361565b6133378561382b565b60005b838110156133595781548189015260018201915060208101905061333a565b838801955050505b50505092915050565b600061337760208361389d565b91507f47726f7570206e6f7420666f756e6420696e20616c6c47726f75704e616d65736000830152602082019050919050565b60006133b7602f8361389d565b91507f4f6e6c792074686520636f6e7472616374206f776e65722063616e207065726660008301527f6f726d207468697320616374696f6e00000000000000000000000000000000006020830152604082019050919050565b600061341d60148361389d565b91507f47726f757020646f6573206e6f742065786973740000000000000000000000006000830152602082019050919050565b600061345d60138361389d565b91507f5573657220646f6573206e6f74206578697374000000000000000000000000006000830152602082019050919050565b600061349d60198361389d565b91507f55736572206973206e6f7420696e20746869732067726f7570000000000000006000830152602082019050919050565b60006134dc82846131ba565b915081905092915050565b60006134f382846132eb565b915081905092915050565b600060208201905081810360008301526135188184613050565b905092915050565b60006020820190506135356000830184613139565b92915050565b600060208201905081810360008301526135558184613181565b905092915050565b600060608201905081810360008301526135778186613181565b9050818103602083015261358b8185613050565b9050818103604083015261359f8184613050565b9050949350505050565b600060408201905081810360008301526135c38185613181565b90506135d26020830184613139565b9392505050565b600060408201905081810360008301526135f38185613181565b905081810360208301526136078184613181565b90509392505050565b600060e082019050818103600083015261362a818a613181565b9050818103602083015261363e8189613181565b905081810360408301526136528188613050565b905081810360608301526136668187613181565b9050818103608083015261367a8186613181565b905061368960a0830185613139565b61369660c0830184613139565b98975050505050505050565b600060408201905081810360008301526136bc818561326b565b905081810360208301526136d081846130c5565b90509392505050565b600060208201905081810360008301526136f28161336a565b9050919050565b60006020820190508181036000830152613712816133aa565b9050919050565b6000602082019050818103600083015261373281613410565b9050919050565b6000602082019050818103600083015261375281613450565b9050919050565b6000602082019050818103600083015261377281613490565b9050919050565b6000604051905081810181811067ffffffffffffffff821117156137a05761379f613a1e565b5b8060405250919050565b600067ffffffffffffffff8211156137c5576137c4613a1e565b5b602082029050602081019050919050565b600067ffffffffffffffff8211156137f1576137f0613a1e565b5b601f19601f8301169050602081019050919050565b6000819050602082019050919050565b60008190508160005260206000209050919050565b60008190508160005260206000209050919050565b600081519050919050565b600081549050919050565b600081519050919050565b6000602082019050919050565b6000600182019050919050565b600082825260208201905092915050565b600082825260208201905092915050565b600082825260208201905092915050565b600081905092915050565b60006138c4826138f9565b91506138cf836138f9565b9250828210156138e2576138e16139c0565b5b828203905092915050565b60008115159050919050565b6000819050919050565b82818337600083830152505050565b60005b83811015613930578082015181840152602081019050613915565b8381111561393f576000848401525b50505050565b6000600282049050600182168061395d57607f821691505b60208210811415613971576139706139ef565b5b50919050565b6000613982826138f9565b91507fffffffffffffffffffffffffffffffffffffffffffffffffffffffffffffffff8214156139b5576139b46139c0565b5b600182019050919050565b7f4e487b7100000000000000000000000000000000000000000000000000000000600052601160045260246000fd5b7f4e487b7100000000000000000000000000000000000000000000000000000000600052602260045260246000fd5b7f4e487b7100000000000000000000000000000000000000000000000000000000600052604160045260246000fd5b6000601f19601f830116905091905056fea2646970667358221220112b1c1dec48d8e49c61a4f23d9d791e9c3602508d7ac70ba5b310b512a02c4364736f6c63430008000033",
  "linkReferences": {},
  "deployedLinkReferences": {}
}