{
  "_format": "hh-sol-artifact-1",
  "contractName": "FaceGuard",
  "sourceName": "contracts/FaceGuard.sol",
  "abi": [
    {
      "inputs": [],
      "stateMutability": "nonpayable",
      "type": "constructor"
    },
    {
      "anonymous": false,
      "inputs": [
        {
          "indexed": false,
          "internalType": "string",
          "name": "username",
          "type": "string"
        }
      ],
      "name": "FaceHashUpdated",
      "type": "event"
    },
    {
      "anonymous": false,
      "inputs": [
        {
          "indexed": false,
          "internalType": "string",
          "name": "groupName",
          "type": "string"
        },
        {
          "indexed": false,
          "internalType": "string[]",
          "name": "permissions",
          "type": "string[]"
        }
      ],
      "name": "GroupCreated",
      "type": "event"
    },
    {
      "anonymous": false,
      "inputs": [
        {
          "indexed": false,
          "internalType": "string",
          "name": "originalGroupName",
          "type": "string"
        },
        {
          "indexed": false,
          "internalType": "string",
          "name": "newGroupName",
          "type": "string"
        }
      ],
      "name": "GroupNameUpdated",
      "type": "event"
    },
    {
      "anonymous": false,
      "inputs": [
        {
          "indexed": false,
          "internalType": "string",
          "name": "groupName",
          "type": "string"
        },
        {
          "indexed": false,
          "internalType": "string[]",
          "name": "permissions",
          "type": "string[]"
        }
      ],
      "name": "GroupPermissionsUpdated",
      "type": "event"
    },
    {
      "anonymous": false,
      "inputs": [
        {
          "indexed": false,
          "internalType": "string",
          "name": "groupName",
          "type": "string"
        }
      ],
      "name": "GroupRemoved",
      "type": "event"
    },
    {
      "anonymous": false,
      "inputs": [
        {
          "indexed": false,
          "internalType": "string",
          "name": "username",
          "type": "string"
        }
      ],
      "name": "PasswordChangeRequired",
      "type": "event"
    },
    {
      "anonymous": false,
      "inputs": [
        {
          "indexed": false,
          "internalType": "string",
          "name": "username",
          "type": "string"
        }
      ],
      "name": "PasswordUpdated",
      "type": "event"
    },
    {
      "anonymous": false,
      "inputs": [
        {
          "indexed": false,
          "internalType": "string",
          "name": "username",
          "type": "string"
        }
      ],
      "name": "PermissionsUpdated",
      "type": "event"
    },
    {
      "anonymous": false,
      "inputs": [
        {
          "indexed": false,
          "internalType": "string",
          "name": "username",
          "type": "string"
        },
        {
          "indexed": false,
          "internalType": "string",
          "name": "groupName",
          "type": "string"
        }
      ],
      "name": "UserAddedToGroup",
      "type": "event"
    },
    {
      "anonymous": false,
      "inputs": [
        {
          "indexed": false,
          "internalType": "string",
          "name": "username",
          "type": "string"
        },
        {
          "indexed": false,
          "internalType": "string",
          "name": "email",
          "type": "string"
        }
      ],
      "name": "UserEmailUpdated",
      "type": "event"
    },
    {
      "anonymous": false,
      "inputs": [
        {
          "indexed": false,
          "internalType": "string",
          "name": "username",
          "type": "string"
        },
        {
          "indexed": false,
          "internalType": "string",
          "name": "fullName",
          "type": "string"
        }
      ],
      "name": "UserFullNameUpdated",
      "type": "event"
    },
    {
      "anonymous": false,
      "inputs": [
        {
          "indexed": false,
          "internalType": "string",
          "name": "username",
          "type": "string"
        }
      ],
      "name": "UserRegistered",
      "type": "event"
    },
    {
      "anonymous": false,
      "inputs": [
        {
          "indexed": false,
          "internalType": "string",
          "name": "username",
          "type": "string"
        },
        {
          "indexed": false,
          "internalType": "string",
          "name": "groupName",
          "type": "string"
        }
      ],
      "name": "UserRemovedFromGroup",
      "type": "event"
    },
    {
      "anonymous": false,
      "inputs": [
        {
          "indexed": false,
          "internalType": "string",
          "name": "username",
          "type": "string"
        },
        {
          "indexed": false,
          "internalType": "bool",
          "name": "enabled",
          "type": "bool"
        }
      ],
      "name": "UserToggled",
      "type": "event"
    },
    {
      "inputs": [
        {
          "internalType": "string",
          "name": "groupName",
          "type": "string"
        },
        {
          "internalType": "string",
          "name": "username",
          "type": "string"
        }
      ],
      "name": "addUserToGroup",
      "outputs": [],
      "stateMutability": "nonpayable",
      "type": "function"
    },
    {
      "inputs": [
        {
          "internalType": "string",
          "name": "username",
          "type": "string"
        }
      ],
      "name": "checkIfUserExists",
      "outputs": [
        {
          "internalType": "bool",
          "name": "",
          "type": "bool"
        }
      ],
      "stateMutability": "view",
      "type": "function"
    },
    {
      "inputs": [
        {
          "internalType": "string",
          "name": "groupName",
          "type": "string"
        },
        {
          "internalType": "string[]",
          "name": "permissions",
          "type": "string[]"
        }
      ],
      "name": "createGroup",
      "outputs": [],
      "stateMutability": "nonpayable",
      "type": "function"
    },
    {
      "inputs": [],
      "name": "getAllGroups",
      "outputs": [
        {
          "internalType": "string[]",
          "name": "",
          "type": "string[]"
        }
      ],
      "stateMutability": "view",
      "type": "function"
    },
    {
      "inputs": [],
      "name": "getAllUsernames",
      "outputs": [
        {
          "internalType": "string[]",
          "name": "",
          "type": "string[]"
        }
      ],
      "stateMutability": "view",
      "type": "function"
    },
    {
      "inputs": [
        {
          "internalType": "string",
          "name": "groupName",
          "type": "string"
        }
      ],
      "name": "getGroup",
      "outputs": [
        {
          "internalType": "string",
          "name": "",
          "type": "string"
        },
        {
          "internalType": "string[]",
          "name": "",
          "type": "string[]"
        },
        {
          "internalType": "string[]",
          "name": "",
          "type": "string[]"
        }
      ],
      "stateMutability": "view",
      "type": "function"
    },
    {
      "inputs": [
        {
          "internalType": "string",
          "name": "username",
          "type": "string"
        }
      ],
      "name": "getUser",
      "outputs": [
        {
          "internalType": "string",
          "name": "",
          "type": "string"
        },
        {
          "internalType": "string",
          "name": "",
          "type": "string"
        },
        {
          "internalType": "string[]",
          "name": "",
          "type": "string[]"
        },
        {
          "internalType": "string",
          "name": "",
          "type": "string"
        },
        {
          "internalType": "string",
          "name": "",
          "type": "string"
        },
        {
          "internalType": "bool",
          "name": "",
          "type": "bool"
        },
        {
          "internalType": "bool",
          "name": "",
          "type": "bool"
        },
        {
          "internalType": "string",
          "name": "",
          "type": "string"
        },
        {
          "internalType": "string",
          "name": "",
          "type": "string"
        }
      ],
      "stateMutability": "view",
      "type": "function"
    },
    {
      "inputs": [
        {
          "internalType": "string",
          "name": "username",
          "type": "string"
        }
      ],
      "name": "getUserFaceHashes",
      "outputs": [
        {
          "internalType": "string[]",
          "name": "",
          "type": "string[]"
        }
      ],
      "stateMutability": "view",
      "type": "function"
    },
    {
      "inputs": [
        {
          "internalType": "string",
          "name": "username",
          "type": "string"
        }
      ],
      "name": "getUserPermissions",
      "outputs": [
        {
          "internalType": "string[]",
          "name": "",
          "type": "string[]"
        }
      ],
      "stateMutability": "view",
      "type": "function"
    },
    {
      "inputs": [
        {
          "internalType": "string",
          "name": "username",
          "type": "string"
        },
        {
          "internalType": "string",
          "name": "passwordHash",
          "type": "string"
        },
        {
          "internalType": "string[]",
          "name": "initialFaceHashes",
          "type": "string[]"
        },
        {
          "internalType": "string",
          "name": "creationDate",
          "type": "string"
        }
      ],
      "name": "registerUser",
      "outputs": [],
      "stateMutability": "nonpayable",
      "type": "function"
    },
    {
      "inputs": [
        {
          "internalType": "string",
          "name": "groupName",
          "type": "string"
        }
      ],
      "name": "removeGroup",
      "outputs": [],
      "stateMutability": "nonpayable",
      "type": "function"
    },
    {
      "inputs": [
        {
          "internalType": "string",
          "name": "groupName",
          "type": "string"
        },
        {
          "internalType": "string",
          "name": "username",
          "type": "string"
        }
      ],
      "name": "removeUserFromGroup",
      "outputs": [],
      "stateMutability": "nonpayable",
      "type": "function"
    },
    {
      "inputs": [
        {
          "internalType": "string",
          "name": "username",
          "type": "string"
        }
      ],
      "name": "requireUserPasswordChange",
      "outputs": [],
      "stateMutability": "nonpayable",
      "type": "function"
    },
    {
      "inputs": [
        {
          "internalType": "string",
          "name": "groupName",
          "type": "string"
        },
        {
          "internalType": "string[]",
          "name": "groupPermissions",
          "type": "string[]"
        }
      ],
      "name": "setGroupPermissions",
      "outputs": [
        {
          "internalType": "string",
          "name": "",
          "type": "string"
        }
      ],
      "stateMutability": "nonpayable",
      "type": "function"
    },
    {
      "inputs": [
        {
          "internalType": "string",
          "name": "username",
          "type": "string"
        }
      ],
      "name": "toggleUser",
      "outputs": [],
      "stateMutability": "nonpayable",
      "type": "function"
    },
    {
      "inputs": [
        {
          "internalType": "string",
          "name": "originalGroupName",
          "type": "string"
        },
        {
          "internalType": "string",
          "name": "newGroupName",
          "type": "string"
        },
        {
          "internalType": "string[]",
          "name": "newPermissions",
          "type": "string[]"
        }
      ],
      "name": "updateGroup",
      "outputs": [],
      "stateMutability": "nonpayable",
      "type": "function"
    },
    {
      "inputs": [
        {
          "internalType": "string",
          "name": "username",
          "type": "string"
        },
        {
          "internalType": "string",
          "name": "newEmail",
          "type": "string"
        }
      ],
      "name": "updateUserEmail",
      "outputs": [],
      "stateMutability": "nonpayable",
      "type": "function"
    },
    {
      "inputs": [
        {
          "internalType": "string",
          "name": "username",
          "type": "string"
        },
        {
          "internalType": "string[]",
          "name": "newFaceHashes",
          "type": "string[]"
        }
      ],
      "name": "updateUserFaceHash",
      "outputs": [],
      "stateMutability": "nonpayable",
      "type": "function"
    },
    {
      "inputs": [
        {
          "internalType": "string",
          "name": "username",
          "type": "string"
        },
        {
          "internalType": "string",
          "name": "newFullName",
          "type": "string"
        }
      ],
      "name": "updateUserFullName",
      "outputs": [],
      "stateMutability": "nonpayable",
      "type": "function"
    },
    {
      "inputs": [
        {
          "internalType": "string",
          "name": "username",
          "type": "string"
        },
        {
          "internalType": "string",
          "name": "newPasswordHash",
          "type": "string"
        }
      ],
      "name": "updateUserPassword",
      "outputs": [],
      "stateMutability": "nonpayable",
      "type": "function"
    }
  ],
  "bytecode": "0x60806040523480156200001157600080fd5b5033600460006101000a81548173ffffffffffffffffffffffffffffffffffffffff021916908373ffffffffffffffffffffffffffffffffffffffff160217905550600060405180608001604052806040518060400160405280601581526020017f466163654775617264204372656174653a20416c6c000000000000000000000081525081526020016040518060400160405280601381526020017f46616365477561726420526561643a20416c6c0000000000000000000000000081525081526020016040518060400160405280601581526020017f466163654775617264205570646174653a20416c6c000000000000000000000081525081526020016040518060400160405280601581526020017f4661636547756172642044656c6574653a20416c6c00000000000000000000008152508152509050600060405180606001604052806040518060400160405280601481526020017f46616365477561726420526561643a2053656c6600000000000000000000000081525081526020016040518060400160405280601681526020017f466163654775617264205570646174653a2053656c660000000000000000000081525081526020016040518060400160405280601681526020017f4661636547756172642044656c6574653a2053656c66000000000000000000008152508152509050600060405180608001604052806040518060400160405280601881526020017f466163654775617264204372656174653a2047726f757073000000000000000081525081526020016040518060400160405280601681526020017f46616365477561726420526561643a2047726f7570730000000000000000000081525081526020016040518060400160405280601881526020017f466163654775617264205570646174653a2047726f757073000000000000000081525081526020016040518060400160405280601881526020017f4661636547756172642044656c6574653a2047726f75707300000000000000008152508152509050600060405180608001604052806040518060400160405280601781526020017f466163654775617264204372656174653a20557365727300000000000000000081525081526020016040518060400160405280601581526020017f46616365477561726420526561643a205573657273000000000000000000000081525081526020016040518060400160405280601781526020017f466163654775617264205570646174653a20557365727300000000000000000081525081526020016040518060400160405280601781526020017f4661636547756172642044656c6574653a2055736572730000000000000000008152508152509050620004536040518060400160405280600e81526020017f41646d696e6973747261746f727300000000000000000000000000000000000081525062000447866200056260201b60201c565b6200069160201b60201c565b620004aa6040518060400160405280600581526020017f55736572730000000000000000000000000000000000000000000000000000008152506200049e85620008b360201b60201c565b6200069160201b60201c565b620005016040518060400160405280600e81526020017f47726f7570204d616e6167657273000000000000000000000000000000000000815250620004f5846200056260201b60201c565b6200069160201b60201c565b620005586040518060400160405280600d81526020017f55736572204d616e6167657273000000000000000000000000000000000000008152506200054c836200056260201b60201c565b6200069160201b60201c565b5050505062000f39565b60606000600467ffffffffffffffff811115620005a8577f4e487b7100000000000000000000000000000000000000000000000000000000600052604160045260246000fd5b604051908082528060200260200182016040528015620005dd57816020015b6060815260200190600190039081620005c75790505b50905060005b6004811015620006875783816004811062000627577f4e487b7100000000000000000000000000000000000000000000000000000000600052603260045260246000fd5b602002015182828151811062000666577f4e487b7100000000000000000000000000000000000000000000000000000000600052603260045260246000fd5b602002602001018190525080806200067e9062000e7c565b915050620005e3565b5080915050919050565b600460009054906101000a900473ffffffffffffffffffffffffffffffffffffffff1673ffffffffffffffffffffffffffffffffffffffff163373ffffffffffffffffffffffffffffffffffffffff161462000724576040517f08c379a00000000000000000000000000000000000000000000000000000000081526004016200071b9062000d73565b60405180910390fd5b6040518060600160405280838152602001600067ffffffffffffffff81111562000777577f4e487b7100000000000000000000000000000000000000000000000000000000600052604160045260246000fd5b604051908082528060200260200182016040528015620007ac57816020015b6060815260200190600190039081620007965790505b50815260200182815250600183604051620007c8919062000d1f565b90815260200160405180910390206000820151816000019080519060200190620007f4929190620009e2565b5060208201518160010190805190602001906200081392919062000a73565b5060408201518160020190805190602001906200083292919062000a73565b5090505060038290806001815401808255809150506001900390600052602060002001600090919091909150908051906020019062000873929190620009e2565b507f64e45d769b067e3e2de0a2fbfa982b75ad4472af64e84e1c421ec5bbe695de0f8282604051620008a792919062000d38565b60405180910390a15050565b60606000600367ffffffffffffffff811115620008f9577f4e487b7100000000000000000000000000000000000000000000000000000000600052604160045260246000fd5b6040519080825280602002602001820160405280156200092e57816020015b6060815260200190600190039081620009185790505b50905060005b6003811015620009d85783816003811062000978577f4e487b7100000000000000000000000000000000000000000000000000000000600052603260045260246000fd5b6020020151828281518110620009b7577f4e487b7100000000000000000000000000000000000000000000000000000000600052603260045260246000fd5b60200260200101819052508080620009cf9062000e7c565b91505062000934565b5080915050919050565b828054620009f09062000e46565b90600052602060002090601f01602090048101928262000a14576000855562000a60565b82601f1062000a2f57805160ff191683800117855562000a60565b8280016001018555821562000a60579182015b8281111562000a5f57825182559160200191906001019062000a42565b5b50905062000a6f919062000ada565b5090565b82805482825590600052602060002090810192821562000ac7579160200282015b8281111562000ac657825182908051906020019062000ab5929190620009e2565b509160200191906001019062000a94565b5b50905062000ad6919062000af9565b5090565b5b8082111562000af557600081600090555060010162000adb565b5090565b5b8082111562000b1d576000818162000b13919062000b21565b5060010162000afa565b5090565b50805462000b2f9062000e46565b6000825580601f1062000b43575062000b64565b601f01602090049060005260206000209081019062000b63919062000ada565b5b50565b600062000b75838362000bfe565b905092915050565b600062000b8a8262000da5565b62000b96818562000dc8565b93508360208202850162000baa8562000d95565b8060005b8581101562000bec578484038952815162000bca858262000b67565b945062000bd78362000dbb565b925060208a0199505060018101905062000bae565b50829750879550505050505092915050565b600062000c0b8262000db0565b62000c17818562000dd9565b935062000c2981856020860162000e10565b62000c348162000f28565b840191505092915050565b600062000c4c8262000db0565b62000c58818562000dea565b935062000c6a81856020860162000e10565b62000c758162000f28565b840191505092915050565b600062000c8d8262000db0565b62000c99818562000dfb565b935062000cab81856020860162000e10565b80840191505092915050565b600062000cc6602f8362000dea565b91507f4f6e6c792074686520636f6e7472616374206f776e65722063616e207065726660008301527f6f726d207468697320616374696f6e00000000000000000000000000000000006020830152604082019050919050565b600062000d2d828462000c80565b915081905092915050565b6000604082019050818103600083015262000d54818562000c3f565b9050818103602083015262000d6a818462000b7d565b90509392505050565b6000602082019050818103600083015262000d8e8162000cb7565b9050919050565b6000819050602082019050919050565b600081519050919050565b600081519050919050565b6000602082019050919050565b600082825260208201905092915050565b600082825260208201905092915050565b600082825260208201905092915050565b600081905092915050565b6000819050919050565b60005b8381101562000e3057808201518184015260208101905062000e13565b8381111562000e40576000848401525b50505050565b6000600282049050600182168062000e5f57607f821691505b6020821081141562000e765762000e7562000ef9565b5b50919050565b600062000e898262000e06565b91507fffffffffffffffffffffffffffffffffffffffffffffffffffffffffffffffff82141562000ebf5762000ebe62000eca565b5b600182019050919050565b7f4e487b7100000000000000000000000000000000000000000000000000000000600052601160045260246000fd5b7f4e487b7100000000000000000000000000000000000000000000000000000000600052602260045260246000fd5b6000601f19601f8301169050919050565b614a308062000f496000396000f3fe608060405234801561001057600080fd5b506004361061012c5760003560e01c806367753ba1116100ad578063b9e6facb11610071578063b9e6facb14610347578063c91bc46c14610363578063e537cac71461037f578063ecb5a4d51461039b578063ee1c55da146103b75761012c565b806367753ba1146102915780636cad1934146102ad5780637c77f39f146102dd5780638a0bd86b146102f9578063abef281e146103155761012c565b806331feb671116100f457806331feb671146101e75780635108c3ab1461021f578063536203751461023b5780635b9a6b1d146102595780636246b310146102755761012c565b806303df9e92146101315780631ae7f10a1461014d57806321cd3cae1461017d578063266c1bab1461019b5780632d09d9e9146101b7575b600080fd5b61014b60048036038101906101469190613ca9565b6103e7565b005b61016760048036038101906101629190613ca9565b6104e8565b6040516101749190614454565b60405180910390f35b610185610931565b6040516101929190614417565b60405180910390f35b6101b560048036038101906101b09190613d15565b610a0a565b005b6101d160048036038101906101cc9190613c68565b610b0d565b6040516101de9190614417565b60405180910390f35b61020160048036038101906101fc9190613c68565b610c07565b60405161021699989796959493929190614560565b60405180910390f35b61023960048036038101906102349190613c68565b611127565b005b610243611289565b6040516102509190614417565b60405180910390f35b610273600480360381019061026e9190613d81565b611362565b005b61028f600480360381019061028a9190613c68565b611912565b005b6102ab60048036038101906102a69190613d15565b611e90565b005b6102c760048036038101906102c29190613c68565b612269565b6040516102d49190614439565b60405180910390f35b6102f760048036038101906102f29190613ca9565b6122a2565b005b610313600480360381019061030e9190613d15565b6124b2565b005b61032f600480360381019061032a9190613c68565b6125b5565b60405161033e939291906144ad565b60405180910390f35b610361600480360381019061035c9190613e18565b612948565b005b61037d60048036038101906103789190613d15565b612c99565b005b61039960048036038101906103949190613c68565b612dd3565b005b6103b560048036038101906103b09190613d15565b612ed7565b005b6103d160048036038101906103cc9190613c68565b6130de565b6040516103de9190614417565b60405180910390f35b600460009054906101000a900473ffffffffffffffffffffffffffffffffffffffff1673ffffffffffffffffffffffffffffffffffffffff163373ffffffffffffffffffffffffffffffffffffffff1614610477576040517f08c379a000000000000000000000000000000000000000000000000000000000815260040161046e90614695565b60405180910390fd5b8060008360405161048891906143e9565b908152602001604051809103902060020190805190602001906104ac92919061386f565b507feb1060ec96e942d51b0f7b8b00c334c5c6da57c48f5ef56937468d28d0ee347a826040516104dc9190614454565b60405180910390a15050565b6060600460009054906101000a900473ffffffffffffffffffffffffffffffffffffffff1673ffffffffffffffffffffffffffffffffffffffff163373ffffffffffffffffffffffffffffffffffffffff161461057a576040517f08c379a000000000000000000000000000000000000000000000000000000000815260040161057190614695565b60405180910390fd5b600060018460405161058c91906143e9565b908152602001604051809103902060000180546105a8906148e1565b9050116105ea576040517f08c379a00000000000000000000000000000000000000000000000000000000081526004016105e1906146b5565b60405180910390fd5b600060405180608001604052806040518060400160405280600e81526020017f41646d696e6973747261746f727300000000000000000000000000000000000081525081526020016040518060400160405280600581526020017f557365727300000000000000000000000000000000000000000000000000000081525081526020016040518060400160405280600e81526020017f47726f7570204d616e616765727300000000000000000000000000000000000081525081526020016040518060400160405280600d81526020017f55736572204d616e616765727300000000000000000000000000000000000000815250815250905060005b60048110156107ce57818160048110610728577f4e487b7100000000000000000000000000000000000000000000000000000000600052603260045260246000fd5b602002015160405160200161073d91906143e9565b604051602081830303815290604052805190602001208560405160200161076491906143e9565b6040516020818303038152906040528051906020012014156107bb576040517f08c379a00000000000000000000000000000000000000000000000000000000081526004016107b290614675565b60405180910390fd5b80806107c690614913565b9150506106e6565b50826001856040516107e091906143e9565b9081526020016040518091039020600201908051906020019061080492919061386f565b507f65d29756900166ea1a95042b775077b9e0c4b52e2ad303784b8fc75584de59ef60018560405161083691906143e9565b908152602001604051809103902060000160018660405161085791906143e9565b908152602001604051809103902060020160405161087692919061461e565b60405180910390a160018460405161088e91906143e9565b908152602001604051809103902060000180546108aa906148e1565b80601f01602080910402602001604051908101604052809291908181526020018280546108d6906148e1565b80156109235780601f106108f857610100808354040283529160200191610923565b820191906000526020600020905b81548152906001019060200180831161090657829003601f168201915b505050505091505092915050565b60606003805480602002602001604051908101604052809291908181526020016000905b82821015610a01578382906000526020600020018054610974906148e1565b80601f01602080910402602001604051908101604052809291908181526020018280546109a0906148e1565b80156109ed5780601f106109c2576101008083540402835291602001916109ed565b820191906000526020600020905b8154815290600101906020018083116109d057829003601f168201915b505050505081526020019060010190610955565b50505050905090565b600460009054906101000a900473ffffffffffffffffffffffffffffffffffffffff1673ffffffffffffffffffffffffffffffffffffffff163373ffffffffffffffffffffffffffffffffffffffff1614610a9a576040517f08c379a0000000000000000000000000000000000000000000000000000000008152600401610a9190614695565b60405180910390fd5b80600083604051610aab91906143e9565b90815260200160405180910390206006019080519060200190610acf9291906138cf565b507f2a8884b2438626fca84a5f1bdfbf416f5d1344f8a4a7b89860ce8e8ee58f2b218282604051610b01929190614529565b60405180910390a15050565b6060600082604051610b1f91906143e9565b9081526020016040518091039020600201805480602002602001604051908101604052809291908181526020016000905b82821015610bfc578382906000526020600020018054610b6f906148e1565b80601f0160208091040260200160405190810160405280929190818152602001828054610b9b906148e1565b8015610be85780601f10610bbd57610100808354040283529160200191610be8565b820191906000526020600020905b815481529060010190602001808311610bcb57829003601f168201915b505050505081526020019060010190610b50565b505050509050919050565b60608060608060606000806060806000808b604051610c2691906143e9565b908152602001604051809103902060405180610140016040529081600082018054610c50906148e1565b80601f0160208091040260200160405190810160405280929190818152602001828054610c7c906148e1565b8015610cc95780601f10610c9e57610100808354040283529160200191610cc9565b820191906000526020600020905b815481529060010190602001808311610cac57829003601f168201915b50505050508152602001600182018054610ce2906148e1565b80601f0160208091040260200160405190810160405280929190818152602001828054610d0e906148e1565b8015610d5b5780601f10610d3057610100808354040283529160200191610d5b565b820191906000526020600020905b815481529060010190602001808311610d3e57829003601f168201915b5050505050815260200160028201805480602002602001604051908101604052809291908181526020016000905b82821015610e35578382906000526020600020018054610da8906148e1565b80601f0160208091040260200160405190810160405280929190818152602001828054610dd4906148e1565b8015610e215780601f10610df657610100808354040283529160200191610e21565b820191906000526020600020905b815481529060010190602001808311610e0457829003601f168201915b505050505081526020019060010190610d89565b505050508152602001600382018054610e4d906148e1565b80601f0160208091040260200160405190810160405280929190818152602001828054610e79906148e1565b8015610ec65780601f10610e9b57610100808354040283529160200191610ec6565b820191906000526020600020905b815481529060010190602001808311610ea957829003601f168201915b50505050508152602001600482018054610edf906148e1565b80601f0160208091040260200160405190810160405280929190818152602001828054610f0b906148e1565b8015610f585780601f10610f2d57610100808354040283529160200191610f58565b820191906000526020600020905b815481529060010190602001808311610f3b57829003601f168201915b505050505081526020016005820160009054906101000a900460ff161515151581526020016005820160019054906101000a900460ff161515151581526020016005820160029054906101000a900460ff16151515158152602001600682018054610fc2906148e1565b80601f0160208091040260200160405190810160405280929190818152602001828054610fee906148e1565b801561103b5780601f106110105761010080835404028352916020019161103b565b820191906000526020600020905b81548152906001019060200180831161101e57829003601f168201915b50505050508152602001600782018054611054906148e1565b80601f0160208091040260200160405190810160405280929190818152602001828054611080906148e1565b80156110cd5780601f106110a2576101008083540402835291602001916110cd565b820191906000526020600020905b8154815290600101906020018083116110b057829003601f168201915b5050505050815250509050806000015181602001518260400151836060015184608001518560a001518660e00151876101000151886101200151995099509950995099509950995099509950509193959799909294969850565b600460009054906101000a900473ffffffffffffffffffffffffffffffffffffffff1673ffffffffffffffffffffffffffffffffffffffff163373ffffffffffffffffffffffffffffffffffffffff16146111b7576040517f08c379a00000000000000000000000000000000000000000000000000000000081526004016111ae90614695565b60405180910390fd5b6000816040516111c791906143e9565b908152602001604051809103902060050160029054906101000a900460ff16156000826040516111f791906143e9565b908152602001604051809103902060050160026101000a81548160ff0219169083151502179055507f9b1a1e5131c18ee5fd8454b3b435b1b36127bd0c05686d9fc6190d638bcb14998160008360405161125191906143e9565b908152602001604051809103902060050160029054906101000a900460ff1660405161127e9291906144f9565b60405180910390a150565b60606002805480602002602001604051908101604052809291908181526020016000905b828210156113595783829060005260206000200180546112cc906148e1565b80601f01602080910402602001604051908101604052809291908181526020018280546112f8906148e1565b80156113455780601f1061131a57610100808354040283529160200191611345565b820191906000526020600020905b81548152906001019060200180831161132857829003601f168201915b5050505050815260200190600101906112ad565b50505050905090565b600460009054906101000a900473ffffffffffffffffffffffffffffffffffffffff1673ffffffffffffffffffffffffffffffffffffffff163373ffffffffffffffffffffffffffffffffffffffff16146113f2576040517f08c379a00000000000000000000000000000000000000000000000000000000081526004016113e990614695565b60405180910390fd5b600060018460405161140491906143e9565b90815260200160405180910390206000018054611420906148e1565b905011611462576040517f08c379a0000000000000000000000000000000000000000000000000000000008152600401611459906146b5565b60405180910390fd5b600060405180608001604052806040518060400160405280600e81526020017f41646d696e6973747261746f727300000000000000000000000000000000000081525081526020016040518060400160405280600581526020017f557365727300000000000000000000000000000000000000000000000000000081525081526020016040518060400160405280600e81526020017f47726f7570204d616e616765727300000000000000000000000000000000000081525081526020016040518060400160405280600d81526020017f55736572204d616e616765727300000000000000000000000000000000000000815250815250905060005b6004811015611646578181600481106115a0577f4e487b7100000000000000000000000000000000000000000000000000000000600052603260045260246000fd5b60200201516040516020016115b591906143e9565b60405160208183030381529060405280519060200120856040516020016115dc91906143e9565b604051602081830303815290604052805190602001201415611633576040517f08c379a000000000000000000000000000000000000000000000000000000000815260040161162a90614675565b60405180910390fd5b808061163e90614913565b91505061155e565b5061165184836104e8565b508260405160200161166391906143e9565b604051602081830303815290604052805190602001208460405160200161168a91906143e9565b604051602081830303815290604052805190602001201461190c576001846040516116b591906143e9565b90815260200160405180910390206001846040516116d391906143e9565b908152602001604051809103902060008201816000019080546116f5906148e1565b611700929190613955565b5060018201816001019080546117179291906139e2565b50600282018160020190805461172e9291906139e2565b509050508260018460405161174391906143e9565b908152602001604051809103902060000190805190602001906117679291906138cf565b5060018460405161177891906143e9565b9081526020016040518091039020600080820160006117979190613a4a565b6001820160006117a79190613a8a565b6002820160006117b79190613a8a565b505060005b6003805490508110156118d157846040516020016117da91906143e9565b604051602081830303815290604052805190602001206003828154811061182a577f4e487b7100000000000000000000000000000000000000000000000000000000600052603260045260246000fd5b906000526020600020016040516020016118449190614400565b6040516020818303038152906040528051906020012014156118be57836003828154811061189b577f4e487b7100000000000000000000000000000000000000000000000000000000600052603260045260246000fd5b9060005260206000200190805190602001906118b89291906138cf565b506118d1565b80806118c990614913565b9150506117bc565b507f364b226b5f086e2e247d242241146270270074b8e63461b564298285dfdb08788484604051611903929190614529565b60405180910390a15b50505050565b600460009054906101000a900473ffffffffffffffffffffffffffffffffffffffff1673ffffffffffffffffffffffffffffffffffffffff163373ffffffffffffffffffffffffffffffffffffffff16146119a2576040517f08c379a000000000000000000000000000000000000000000000000000000000815260040161199990614695565b60405180910390fd5b60006001826040516119b491906143e9565b908152602001604051809103902060000180546119d0906148e1565b905011611a12576040517f08c379a0000000000000000000000000000000000000000000000000000000008152600401611a09906146b5565b60405180910390fd5b600060405180608001604052806040518060400160405280600e81526020017f41646d696e6973747261746f727300000000000000000000000000000000000081525081526020016040518060400160405280600581526020017f557365727300000000000000000000000000000000000000000000000000000081525081526020016040518060400160405280600e81526020017f47726f7570204d616e616765727300000000000000000000000000000000000081525081526020016040518060400160405280600d81526020017f55736572204d616e616765727300000000000000000000000000000000000000815250815250905060005b6004811015611bf657818160048110611b50577f4e487b7100000000000000000000000000000000000000000000000000000000600052603260045260246000fd5b6020020151604051602001611b6591906143e9565b6040516020818303038152906040528051906020012083604051602001611b8c91906143e9565b604051602081830303815290604052805190602001201415611be3576040517f08c379a0000000000000000000000000000000000000000000000000000000008152600401611bda90614675565b60405180910390fd5b8080611bee90614913565b915050611b0e565b50600182604051611c0791906143e9565b908152602001604051809103902060008082016000611c269190613a4a565b600182016000611c369190613a8a565b600282016000611c469190613a8a565b50506000805b600380549050811015611e135783604051602001611c6a91906143e9565b6040516020818303038152906040528051906020012060038281548110611cba577f4e487b7100000000000000000000000000000000000000000000000000000000600052603260045260246000fd5b90600052602060002001604051602001611cd49190614400565b604051602081830303815290604052805190602001201415611e00576001915060036001600380549050611d089190614855565b81548110611d3f577f4e487b7100000000000000000000000000000000000000000000000000000000600052603260045260246000fd5b9060005260206000200160038281548110611d83577f4e487b7100000000000000000000000000000000000000000000000000000000600052603260045260246000fd5b90600052602060002001908054611d99906148e1565b611da4929190613aab565b506003805480611ddd577f4e487b7100000000000000000000000000000000000000000000000000000000600052603160045260246000fd5b600190038181906000526020600020016000611df99190613a4a565b9055611e13565b8080611e0b90614913565b915050611c4c565b5080611e54576040517f08c379a0000000000000000000000000000000000000000000000000000000008152600401611e4b90614655565b60405180910390fd5b7f3d23503bda008e50d93c77e132b7d2cde3189a8de034b6d382a71004b5a1b04883604051611e839190614454565b60405180910390a1505050565b600460009054906101000a900473ffffffffffffffffffffffffffffffffffffffff1673ffffffffffffffffffffffffffffffffffffffff163373ffffffffffffffffffffffffffffffffffffffff1614611f20576040517f08c379a0000000000000000000000000000000000000000000000000000000008152600401611f1790614695565b60405180910390fd5b6000600183604051611f3291906143e9565b90815260200160405180910390206000018054611f4e906148e1565b905011611f90576040517f08c379a0000000000000000000000000000000000000000000000000000000008152600401611f87906146b5565b60405180910390fd5b60008082604051611fa191906143e9565b90815260200160405180910390206000018054611fbd906148e1565b905011611fff576040517f08c379a0000000000000000000000000000000000000000000000000000000008152600401611ff6906146d5565b60405180910390fd5b600060018360405161201191906143e9565b908152602001604051809103902060010190506000805b82805490508110156121e9578360405160200161204591906143e9565b60405160208183030381529060405280519060200120838281548110612094577f4e487b7100000000000000000000000000000000000000000000000000000000600052603260045260246000fd5b906000526020600020016040516020016120ae9190614400565b6040516020818303038152906040528051906020012014156121d6576001915082600184805490506120e09190614855565b81548110612117577f4e487b7100000000000000000000000000000000000000000000000000000000600052603260045260246000fd5b9060005260206000200183828154811061215a577f4e487b7100000000000000000000000000000000000000000000000000000000600052603260045260246000fd5b90600052602060002001908054612170906148e1565b61217b929190613aab565b50828054806121b3577f4e487b7100000000000000000000000000000000000000000000000000000000600052603160045260246000fd5b6001900381819060005260206000200160006121cf9190613a4a565b90556121e9565b80806121e190614913565b915050612028565b508061222a576040517f08c379a0000000000000000000000000000000000000000000000000000000008152600401612221906146f5565b60405180910390fd5b7f2987fe5a9775c7dc64ce1b0c8b76d750f2ef0f9e96561a0da6ad7f31a854515a838560405161225b929190614529565b60405180910390a150505050565b60008060008360405161227c91906143e9565b90815260200160405180910390206000018054612298906148e1565b9050119050919050565b600460009054906101000a900473ffffffffffffffffffffffffffffffffffffffff1673ffffffffffffffffffffffffffffffffffffffff163373ffffffffffffffffffffffffffffffffffffffff1614612332576040517f08c379a000000000000000000000000000000000000000000000000000000000815260040161232990614695565b60405180910390fd5b6040518060600160405280838152602001600067ffffffffffffffff811115612384577f4e487b7100000000000000000000000000000000000000000000000000000000600052604160045260246000fd5b6040519080825280602002602001820160405280156123b757816020015b60608152602001906001900390816123a25790505b508152602001828152506001836040516123d191906143e9565b908152602001604051809103902060008201518160000190805190602001906123fb9291906138cf565b50602082015181600101908051906020019061241892919061386f565b50604082015181600201908051906020019061243592919061386f565b509050506003829080600181540180825580915050600190039060005260206000200160009091909190915090805190602001906124749291906138cf565b507f64e45d769b067e3e2de0a2fbfa982b75ad4472af64e84e1c421ec5bbe695de0f82826040516124a6929190614476565b60405180910390a15050565b600460009054906101000a900473ffffffffffffffffffffffffffffffffffffffff1673ffffffffffffffffffffffffffffffffffffffff163373ffffffffffffffffffffffffffffffffffffffff1614612542576040517f08c379a000000000000000000000000000000000000000000000000000000000815260040161253990614695565b60405180910390fd5b8060008360405161255391906143e9565b908152602001604051809103902060070190805190602001906125779291906138cf565b507fd7c1561b32410be5063d4ecbb122d75b71604c340791cb3a50b5345c7f62adc982826040516125a9929190614529565b60405180910390a15050565b6060806060600460009054906101000a900473ffffffffffffffffffffffffffffffffffffffff1673ffffffffffffffffffffffffffffffffffffffff163373ffffffffffffffffffffffffffffffffffffffff161461264a576040517f08c379a000000000000000000000000000000000000000000000000000000000815260040161264190614695565b60405180910390fd5b600060018560405161265c91906143e9565b90815260200160405180910390206000018054612678906148e1565b9050116126ba576040517f08c379a00000000000000000000000000000000000000000000000000000000081526004016126b1906146b5565b60405180910390fd5b60006001856040516126cc91906143e9565b90815260200160405180910390206040518060600160405290816000820180546126f5906148e1565b80601f0160208091040260200160405190810160405280929190818152602001828054612721906148e1565b801561276e5780601f106127435761010080835404028352916020019161276e565b820191906000526020600020905b81548152906001019060200180831161275157829003601f168201915b5050505050815260200160018201805480602002602001604051908101604052809291908181526020016000905b828210156128485783829060005260206000200180546127bb906148e1565b80601f01602080910402602001604051908101604052809291908181526020018280546127e7906148e1565b80156128345780601f1061280957610100808354040283529160200191612834565b820191906000526020600020905b81548152906001019060200180831161281757829003601f168201915b50505050508152602001906001019061279c565b50505050815260200160028201805480602002602001604051908101604052809291908181526020016000905b82821015612921578382906000526020600020018054612894906148e1565b80601f01602080910402602001604051908101604052809291908181526020018280546128c0906148e1565b801561290d5780601f106128e25761010080835404028352916020019161290d565b820191906000526020600020905b8154815290600101906020018083116128f057829003601f168201915b505050505081526020019060010190612875565b50505050815250509050806000015181604001518260200151935093509350509193909250565b600460009054906101000a900473ffffffffffffffffffffffffffffffffffffffff1673ffffffffffffffffffffffffffffffffffffffff163373ffffffffffffffffffffffffffffffffffffffff16146129d8576040517f08c379a00000000000000000000000000000000000000000000000000000000081526004016129cf90614695565b60405180910390fd5b60405180610140016040528085815260200184815260200183815260200182815260200182815260200160001515815260200160001515815260200160011515815260200160405180602001604052806000815250815260200160405180602001604052806000815250815250600085604051612a5591906143e9565b90815260200160405180910390206000820151816000019080519060200190612a7f9291906138cf565b506020820151816001019080519060200190612a9c9291906138cf565b506040820151816002019080519060200190612ab992919061386f565b506060820151816003019080519060200190612ad69291906138cf565b506080820151816004019080519060200190612af39291906138cf565b5060a08201518160050160006101000a81548160ff02191690831515021790555060c08201518160050160016101000a81548160ff02191690831515021790555060e08201518160050160026101000a81548160ff021916908315150217905550610100820151816006019080519060200190612b719291906138cf565b50610120820151816007019080519060200190612b8f9291906138cf565b50905050600284908060018154018082558091505060019003906000526020600020016000909190919091509080519060200190612bce9291906138cf565b50612c0e6040518060400160405280600581526020017f557365727300000000000000000000000000000000000000000000000000000081525085612ed7565b7f270ff4b111e5baa49283562af127cc5ea74e9d6c9efd5465578bd9223d5843f084604051612c3d9190614454565b60405180910390a160016002805490501415612c9357612c926040518060400160405280600e81526020017f41646d696e6973747261746f727300000000000000000000000000000000000081525085612ed7565b5b50505050565b600460009054906101000a900473ffffffffffffffffffffffffffffffffffffffff1673ffffffffffffffffffffffffffffffffffffffff163373ffffffffffffffffffffffffffffffffffffffff1614612d29576040517f08c379a0000000000000000000000000000000000000000000000000000000008152600401612d2090614695565b60405180910390fd5b80600083604051612d3a91906143e9565b90815260200160405180910390206001019080519060200190612d5e9291906138cf565b5060008083604051612d7091906143e9565b908152602001604051809103902060050160016101000a81548160ff0219169083151502179055507fd0b43b0b96083c98cc0f0370575812de87ee48ff1bde30bcd74f3518443bc4f582604051612dc79190614454565b60405180910390a15050565b600460009054906101000a900473ffffffffffffffffffffffffffffffffffffffff1673ffffffffffffffffffffffffffffffffffffffff163373ffffffffffffffffffffffffffffffffffffffff1614612e63576040517f08c379a0000000000000000000000000000000000000000000000000000000008152600401612e5a90614695565b60405180910390fd5b6001600082604051612e7591906143e9565b908152602001604051809103902060050160016101000a81548160ff0219169083151502179055507f926f593dd22175375135b3fd9428c5d0298a5665da18756555b6af9f305ab9a681604051612ecc9190614454565b60405180910390a150565b600460009054906101000a900473ffffffffffffffffffffffffffffffffffffffff1673ffffffffffffffffffffffffffffffffffffffff163373ffffffffffffffffffffffffffffffffffffffff1614612f67576040517f08c379a0000000000000000000000000000000000000000000000000000000008152600401612f5e90614695565b60405180910390fd5b6000600183604051612f7991906143e9565b90815260200160405180910390206000018054612f95906148e1565b905011612fd7576040517f08c379a0000000000000000000000000000000000000000000000000000000008152600401612fce906146b5565b60405180910390fd5b60008082604051612fe891906143e9565b90815260200160405180910390206000018054613004906148e1565b905011613046576040517f08c379a000000000000000000000000000000000000000000000000000000000815260040161303d906146d5565b60405180910390fd5b60018260405161305691906143e9565b9081526020016040518091039020600101819080600181540180825580915050600190039060005260206000200160009091909190915090805190602001906130a09291906138cf565b507f32475c6c091737c212dc5c54e3565db8aae94283f8b388d2c1dfe772b3f356e181836040516130d2929190614529565b60405180910390a15050565b6060600080836040516130f191906143e9565b9081526020016040518091039020600001805461310d906148e1565b90501161314f576040517f08c379a0000000000000000000000000000000000000000000000000000000008152600401613146906146d5565b60405180910390fd5b600060038054905067ffffffffffffffff811115613196577f4e487b7100000000000000000000000000000000000000000000000000000000600052604160045260246000fd5b6040519080825280602002602001820160405280156131c957816020015b60608152602001906001900390816131b45790505b5090506000805b6003805490508110156133f957600060016003838154811061321b577f4e487b7100000000000000000000000000000000000000000000000000000000600052603260045260246000fd5b906000526020600020016040516132329190614400565b9081526020016040518091039020905060005b81600101805490508110156133e4578660405160200161326591906143e9565b604051602081830303815290604052805190602001208260010182815481106132b7577f4e487b7100000000000000000000000000000000000000000000000000000000600052603260045260246000fd5b906000526020600020016040516020016132d19190614400565b6040516020818303038152906040528051906020012014156133d1578160000180546132fc906148e1565b80601f0160208091040260200160405190810160405280929190818152602001828054613328906148e1565b80156133755780601f1061334a57610100808354040283529160200191613375565b820191906000526020600020905b81548152906001019060200180831161335857829003601f168201915b50505050508585815181106133b3577f4e487b7100000000000000000000000000000000000000000000000000000000600052603260045260246000fd5b602002602001018190525083806133c990614913565b9450506133e4565b80806133dc90614913565b915050613245565b505080806133f190614913565b9150506131d0565b506000603267ffffffffffffffff81111561343d577f4e487b7100000000000000000000000000000000000000000000000000000000600052604160045260246000fd5b60405190808252806020026020018201604052801561347057816020015b606081526020019060019003908161345b5790505b5090506000805b838110156137455760008582815181106134ba577f4e487b7100000000000000000000000000000000000000000000000000000000600052603260045260246000fd5b6020026020010151905060006001826040516134d691906143e9565b9081526020016040518091039020600201905060005b818054905081101561372f576000805b868110156135f65783838154811061353d577f4e487b7100000000000000000000000000000000000000000000000000000000600052603260045260246000fd5b906000526020600020016040516020016135579190614400565b604051602081830303815290604052805190602001208882815181106135a6577f4e487b7100000000000000000000000000000000000000000000000000000000600052603260045260246000fd5b60200260200101516040516020016135be91906143e9565b6040516020818303038152906040528051906020012014156135e357600191506135f6565b80806135ee90614913565b9150506134fc565b508061371b57828281548110613635577f4e487b7100000000000000000000000000000000000000000000000000000000600052603260045260246000fd5b90600052602060002001805461364a906148e1565b80601f0160208091040260200160405190810160405280929190818152602001828054613676906148e1565b80156136c35780601f10613698576101008083540402835291602001916136c3565b820191906000526020600020905b8154815290600101906020018083116136a657829003601f168201915b5050505050878781518110613701577f4e487b7100000000000000000000000000000000000000000000000000000000600052603260045260246000fd5b6020026020010181905250858061371790614913565b9650505b50808061372790614913565b9150506134ec565b505050808061373d90614913565b915050613477565b5060008167ffffffffffffffff811115613788577f4e487b7100000000000000000000000000000000000000000000000000000000600052604160045260246000fd5b6040519080825280602002602001820160405280156137bb57816020015b60608152602001906001900390816137a65790505b50905060005b8281101561386157838181518110613802577f4e487b7100000000000000000000000000000000000000000000000000000000600052603260045260246000fd5b6020026020010151828281518110613843577f4e487b7100000000000000000000000000000000000000000000000000000000600052603260045260246000fd5b6020026020010181905250808061385990614913565b9150506137c1565b508095505050505050919050565b8280548282559060005260206000209081019282156138be579160200282015b828111156138bd5782518290805190602001906138ad9291906138cf565b509160200191906001019061388f565b5b5090506138cb9190613b38565b5090565b8280546138db906148e1565b90600052602060002090601f0160209004810192826138fd5760008555613944565b82601f1061391657805160ff1916838001178555613944565b82800160010185558215613944579182015b82811115613943578251825591602001919060010190613928565b5b5090506139519190613b5c565b5090565b828054613961906148e1565b90600052602060002090601f01602090048101928261398357600085556139d1565b82601f1061399457805485556139d1565b828001600101855582156139d157600052602060002091601f016020900482015b828111156139d05782548255916001019190600101906139b5565b5b5090506139de9190613b5c565b5090565b828054828255906000526020600020908101928215613a395760005260206000209182015b82811115613a38578282908054613a1d906148e1565b613a28929190613955565b5091600101919060010190613a07565b5b509050613a469190613b38565b5090565b508054613a56906148e1565b6000825580601f10613a685750613a87565b601f016020900490600052602060002090810190613a869190613b5c565b5b50565b5080546000825590600052602060002090810190613aa89190613b38565b50565b828054613ab7906148e1565b90600052602060002090601f016020900481019282613ad95760008555613b27565b82601f10613aea5780548555613b27565b82800160010185558215613b2757600052602060002091601f016020900482015b82811115613b26578254825591600101919060010190613b0b565b5b509050613b349190613b5c565b5090565b5b80821115613b585760008181613b4f9190613a4a565b50600101613b39565b5090565b5b80821115613b75576000816000905550600101613b5d565b5090565b6000613b8c613b8784614746565b614715565b9050808382526020820190508260005b85811015613bcc5781358501613bb28882613c3e565b845260208401935060208301925050600181019050613b9c565b5050509392505050565b6000613be9613be484614772565b614715565b905082815260208101848484011115613c0157600080fd5b613c0c84828561489f565b509392505050565b600082601f830112613c2557600080fd5b8135613c35848260208601613b79565b91505092915050565b600082601f830112613c4f57600080fd5b8135613c5f848260208601613bd6565b91505092915050565b600060208284031215613c7a57600080fd5b600082013567ffffffffffffffff811115613c9457600080fd5b613ca084828501613c3e565b91505092915050565b60008060408385031215613cbc57600080fd5b600083013567ffffffffffffffff811115613cd657600080fd5b613ce285828601613c3e565b925050602083013567ffffffffffffffff811115613cff57600080fd5b613d0b85828601613c14565b9150509250929050565b60008060408385031215613d2857600080fd5b600083013567ffffffffffffffff811115613d4257600080fd5b613d4e85828601613c3e565b925050602083013567ffffffffffffffff811115613d6b57600080fd5b613d7785828601613c3e565b9150509250929050565b600080600060608486031215613d9657600080fd5b600084013567ffffffffffffffff811115613db057600080fd5b613dbc86828701613c3e565b935050602084013567ffffffffffffffff811115613dd957600080fd5b613de586828701613c3e565b925050604084013567ffffffffffffffff811115613e0257600080fd5b613e0e86828701613c14565b9150509250925092565b60008060008060808587031215613e2e57600080fd5b600085013567ffffffffffffffff811115613e4857600080fd5b613e5487828801613c3e565b945050602085013567ffffffffffffffff811115613e7157600080fd5b613e7d87828801613c3e565b935050604085013567ffffffffffffffff811115613e9a57600080fd5b613ea687828801613c14565b925050606085013567ffffffffffffffff811115613ec357600080fd5b613ecf87828801613c3e565b91505092959194509250565b6000613ee78383613ffb565b905092915050565b6000613efb838361409e565b905092915050565b6000613f0e826147dc565b613f188185614817565b935083602082028501613f2a856147a2565b8060005b85811015613f665784840389528151613f478582613edb565b9450613f52836147fd565b925060208a01995050600181019050613f2e565b50829750879550505050505092915050565b6000613f83826147e7565b613f8d8185614817565b935083602082028501613f9f856147b2565b8060005b85811015613fda57848403895281613fbb8582613eef565b9450613fc68361480a565b925060208a01995050600181019050613fa3565b50829750879550505050505092915050565b613ff581614889565b82525050565b6000614006826147f2565b6140108185614828565b93506140208185602086016148ae565b614029816149e9565b840191505092915050565b600061403f826147f2565b6140498185614839565b93506140598185602086016148ae565b614062816149e9565b840191505092915050565b6000614078826147f2565b614082818561484a565b93506140928185602086016148ae565b80840191505092915050565b600081546140ab816148e1565b6140b58186614828565b945060018216600081146140d057600181146140e257614115565b60ff1983168652602086019350614115565b6140eb856147c7565b60005b8381101561410d578154818901526001820191506020810190506140ee565b808801955050505b50505092915050565b6000815461412b816148e1565b6141358186614839565b94506001821660008114614150576001811461416257614195565b60ff1983168652602086019350614195565b61416b856147c7565b60005b8381101561418d5781548189015260018201915060208101905061416e565b808801955050505b50505092915050565b600081546141ab816148e1565b6141b5818661484a565b945060018216600081146141d057600181146141e157614214565b60ff19831686528186019350614214565b6141ea856147c7565b60005b8381101561420c578154818901526001820191506020810190506141ed565b838801955050505b50505092915050565b600061422a602083614839565b91507f47726f7570206e6f7420666f756e6420696e20616c6c47726f75704e616d65736000830152602082019050919050565b600061426a602f83614839565b91507f4d6f64696679696e6720636f72652067726f7570207065726d697373696f6e7360008301527f206973206e6f7420616c6c6f77656400000000000000000000000000000000006020830152604082019050919050565b60006142d0602f83614839565b91507f4f6e6c792074686520636f6e7472616374206f776e65722063616e207065726660008301527f6f726d207468697320616374696f6e00000000000000000000000000000000006020830152604082019050919050565b6000614336601483614839565b91507f47726f757020646f6573206e6f742065786973740000000000000000000000006000830152602082019050919050565b6000614376601383614839565b91507f5573657220646f6573206e6f74206578697374000000000000000000000000006000830152602082019050919050565b60006143b6601983614839565b91507f55736572206973206e6f7420696e20746869732067726f7570000000000000006000830152602082019050919050565b60006143f5828461406d565b915081905092915050565b600061440c828461419e565b915081905092915050565b600060208201905081810360008301526144318184613f03565b905092915050565b600060208201905061444e6000830184613fec565b92915050565b6000602082019050818103600083015261446e8184614034565b905092915050565b600060408201905081810360008301526144908185614034565b905081810360208301526144a48184613f03565b90509392505050565b600060608201905081810360008301526144c78186614034565b905081810360208301526144db8185613f03565b905081810360408301526144ef8184613f03565b9050949350505050565b600060408201905081810360008301526145138185614034565b90506145226020830184613fec565b9392505050565b600060408201905081810360008301526145438185614034565b905081810360208301526145578184614034565b90509392505050565b600061012082019050818103600083015261457b818c614034565b9050818103602083015261458f818b614034565b905081810360408301526145a3818a613f03565b905081810360608301526145b78189614034565b905081810360808301526145cb8188614034565b90506145da60a0830187613fec565b6145e760c0830186613fec565b81810360e08301526145f98185614034565b905081810361010083015261460e8184614034565b90509a9950505050505050505050565b60006040820190508181036000830152614638818561411e565b9050818103602083015261464c8184613f78565b90509392505050565b6000602082019050818103600083015261466e8161421d565b9050919050565b6000602082019050818103600083015261468e8161425d565b9050919050565b600060208201905081810360008301526146ae816142c3565b9050919050565b600060208201905081810360008301526146ce81614329565b9050919050565b600060208201905081810360008301526146ee81614369565b9050919050565b6000602082019050818103600083015261470e816143a9565b9050919050565b6000604051905081810181811067ffffffffffffffff8211171561473c5761473b6149ba565b5b8060405250919050565b600067ffffffffffffffff821115614761576147606149ba565b5b602082029050602081019050919050565b600067ffffffffffffffff82111561478d5761478c6149ba565b5b601f19601f8301169050602081019050919050565b6000819050602082019050919050565b60008190508160005260206000209050919050565b60008190508160005260206000209050919050565b600081519050919050565b600081549050919050565b600081519050919050565b6000602082019050919050565b6000600182019050919050565b600082825260208201905092915050565b600082825260208201905092915050565b600082825260208201905092915050565b600081905092915050565b600061486082614895565b915061486b83614895565b92508282101561487e5761487d61495c565b5b828203905092915050565b60008115159050919050565b6000819050919050565b82818337600083830152505050565b60005b838110156148cc5780820151818401526020810190506148b1565b838111156148db576000848401525b50505050565b600060028204905060018216806148f957607f821691505b6020821081141561490d5761490c61498b565b5b50919050565b600061491e82614895565b91507fffffffffffffffffffffffffffffffffffffffffffffffffffffffffffffffff8214156149515761495061495c565b5b600182019050919050565b7f4e487b7100000000000000000000000000000000000000000000000000000000600052601160045260246000fd5b7f4e487b7100000000000000000000000000000000000000000000000000000000600052602260045260246000fd5b7f4e487b7100000000000000000000000000000000000000000000000000000000600052604160045260246000fd5b6000601f19601f830116905091905056fea2646970667358221220d6f699ccde87bd326f4129ae4aa791b1f4905d52a9596ab984a28e69d801c62d64736f6c63430008000033",
  "linkReferences": {},
  "deployedLinkReferences": {}
}