{
  "_format": "hh-sol-artifact-1",
  "contractName": "FaceGuard",
  "sourceName": "contracts/FaceGuard.sol",
  "abi": [
    {
      "inputs": [],
      "stateMutability": "nonpayable",
      "type": "constructor"
    },
    {
      "anonymous": false,
      "inputs": [
        {
          "indexed": true,
          "internalType": "string",
          "name": "indexedUsername",
          "type": "string"
        },
        {
          "indexed": false,
          "internalType": "string",
          "name": "username",
          "type": "string"
        },
        {
          "indexed": false,
          "internalType": "string[]",
          "name": "oldFaceHashes",
          "type": "string[]"
        },
        {
          "indexed": false,
          "internalType": "string[]",
          "name": "newFaceHashes",
          "type": "string[]"
        }
      ],
      "name": "FaceHashUpdated",
      "type": "event"
    },
    {
      "anonymous": false,
      "inputs": [
        {
          "indexed": true,
          "internalType": "string",
          "name": "indexedGroupName",
          "type": "string"
        },
        {
          "indexed": false,
          "internalType": "string",
          "name": "groupName",
          "type": "string"
        },
        {
          "indexed": false,
          "internalType": "string",
          "name": "oldAccessURL",
          "type": "string"
        },
        {
          "indexed": false,
          "internalType": "string",
          "name": "newAccessURL",
          "type": "string"
        }
      ],
      "name": "GroupAccessURLChanged",
      "type": "event"
    },
    {
      "anonymous": false,
      "inputs": [
        {
          "indexed": true,
          "internalType": "string",
          "name": "indexedGroupName",
          "type": "string"
        },
        {
          "indexed": false,
          "internalType": "string",
          "name": "groupName",
          "type": "string"
        },
        {
          "indexed": false,
          "internalType": "string[]",
          "name": "permissions",
          "type": "string[]"
        }
      ],
      "name": "GroupCreated",
      "type": "event"
    },
    {
      "anonymous": false,
      "inputs": [
        {
          "indexed": true,
          "internalType": "string",
          "name": "indexedGroupName",
          "type": "string"
        },
        {
          "indexed": false,
          "internalType": "string",
          "name": "oldGroupName",
          "type": "string"
        },
        {
          "indexed": false,
          "internalType": "string",
          "name": "newGroupName",
          "type": "string"
        }
      ],
      "name": "GroupNameUpdated",
      "type": "event"
    },
    {
      "anonymous": false,
      "inputs": [
        {
          "indexed": true,
          "internalType": "string",
          "name": "indexedGroupName",
          "type": "string"
        },
        {
          "indexed": false,
          "internalType": "string",
          "name": "groupName",
          "type": "string"
        },
        {
          "indexed": false,
          "internalType": "string[]",
          "name": "oldPermissions",
          "type": "string[]"
        },
        {
          "indexed": false,
          "internalType": "string[]",
          "name": "newPermissions",
          "type": "string[]"
        }
      ],
      "name": "GroupPermissionsUpdated",
      "type": "event"
    },
    {
      "anonymous": false,
      "inputs": [
        {
          "indexed": true,
          "internalType": "string",
          "name": "indexedGroupName",
          "type": "string"
        },
        {
          "indexed": false,
          "internalType": "string",
          "name": "groupName",
          "type": "string"
        }
      ],
      "name": "GroupRemoved",
      "type": "event"
    },
    {
      "anonymous": false,
      "inputs": [
        {
          "indexed": true,
          "internalType": "string",
          "name": "groupNameIndexed",
          "type": "string"
        },
        {
          "indexed": false,
          "internalType": "string",
          "name": "username",
          "type": "string"
        },
        {
          "indexed": false,
          "internalType": "string",
          "name": "groupName",
          "type": "string"
        }
      ],
      "name": "Group_UserAddedToGroup",
      "type": "event"
    },
    {
      "anonymous": false,
      "inputs": [
        {
          "indexed": true,
          "internalType": "string",
          "name": "groupNameIndexed",
          "type": "string"
        },
        {
          "indexed": false,
          "internalType": "string",
          "name": "username",
          "type": "string"
        },
        {
          "indexed": false,
          "internalType": "string",
          "name": "groupName",
          "type": "string"
        }
      ],
      "name": "Group_UserRemovedFromGroup",
      "type": "event"
    },
    {
      "anonymous": false,
      "inputs": [
        {
          "indexed": true,
          "internalType": "string",
          "name": "indexedUsername",
          "type": "string"
        },
        {
          "indexed": false,
          "internalType": "string",
          "name": "username",
          "type": "string"
        }
      ],
      "name": "PasswordChangeRequired",
      "type": "event"
    },
    {
      "anonymous": false,
      "inputs": [
        {
          "indexed": true,
          "internalType": "string",
          "name": "indexedUsername",
          "type": "string"
        },
        {
          "indexed": false,
          "internalType": "string",
          "name": "username",
          "type": "string"
        }
      ],
      "name": "PasswordUpdated",
      "type": "event"
    },
    {
      "anonymous": false,
      "inputs": [
        {
          "indexed": true,
          "internalType": "string",
          "name": "indexedUsername",
          "type": "string"
        },
        {
          "indexed": false,
          "internalType": "string",
          "name": "username",
          "type": "string"
        },
        {
          "indexed": false,
          "internalType": "string",
          "name": "oldEmail",
          "type": "string"
        },
        {
          "indexed": false,
          "internalType": "string",
          "name": "newEmail",
          "type": "string"
        }
      ],
      "name": "UserEmailUpdated",
      "type": "event"
    },
    {
      "anonymous": false,
      "inputs": [
        {
          "indexed": true,
          "internalType": "string",
          "name": "indexedUsername",
          "type": "string"
        },
        {
          "indexed": false,
          "internalType": "string",
          "name": "username",
          "type": "string"
        },
        {
          "indexed": false,
          "internalType": "string",
          "name": "oldFullName",
          "type": "string"
        },
        {
          "indexed": false,
          "internalType": "string",
          "name": "newFullName",
          "type": "string"
        }
      ],
      "name": "UserFullNameUpdated",
      "type": "event"
    },
    {
      "anonymous": false,
      "inputs": [
        {
          "indexed": true,
          "internalType": "string",
          "name": "indexedUsername",
          "type": "string"
        },
        {
          "indexed": false,
          "internalType": "string",
          "name": "username",
          "type": "string"
        }
      ],
      "name": "UserLoggedIn",
      "type": "event"
    },
    {
      "anonymous": false,
      "inputs": [
        {
          "indexed": true,
          "internalType": "string",
          "name": "indexedUsername",
          "type": "string"
        },
        {
          "indexed": false,
          "internalType": "string",
          "name": "username",
          "type": "string"
        }
      ],
      "name": "UserRegistered",
      "type": "event"
    },
    {
      "anonymous": false,
      "inputs": [
        {
          "indexed": true,
          "internalType": "string",
          "name": "indexedUsername",
          "type": "string"
        },
        {
          "indexed": false,
          "internalType": "string",
          "name": "username",
          "type": "string"
        }
      ],
      "name": "UserRemoved",
      "type": "event"
    },
    {
      "anonymous": false,
      "inputs": [
        {
          "indexed": true,
          "internalType": "string",
          "name": "indexedUsername",
          "type": "string"
        },
        {
          "indexed": false,
          "internalType": "string",
          "name": "username",
          "type": "string"
        },
        {
          "indexed": false,
          "internalType": "bool",
          "name": "enabled",
          "type": "bool"
        }
      ],
      "name": "UserToggled",
      "type": "event"
    },
    {
      "anonymous": false,
      "inputs": [
        {
          "indexed": true,
          "internalType": "string",
          "name": "indexedUsername",
          "type": "string"
        },
        {
          "indexed": false,
          "internalType": "string",
          "name": "username",
          "type": "string"
        },
        {
          "indexed": false,
          "internalType": "string",
          "name": "groupName",
          "type": "string"
        }
      ],
      "name": "User_UserAddedToGroup",
      "type": "event"
    },
    {
      "anonymous": false,
      "inputs": [
        {
          "indexed": true,
          "internalType": "string",
          "name": "indexedUsername",
          "type": "string"
        },
        {
          "indexed": false,
          "internalType": "string",
          "name": "username",
          "type": "string"
        },
        {
          "indexed": false,
          "internalType": "string",
          "name": "groupName",
          "type": "string"
        }
      ],
      "name": "User_UserRemovedFromGroup",
      "type": "event"
    },
    {
      "inputs": [
        {
          "internalType": "string",
          "name": "groupName",
          "type": "string"
        },
        {
          "internalType": "string",
          "name": "username",
          "type": "string"
        }
      ],
      "name": "addUserToGroup",
      "outputs": [],
      "stateMutability": "nonpayable",
      "type": "function"
    },
    {
      "inputs": [
        {
          "internalType": "string",
          "name": "username",
          "type": "string"
        }
      ],
      "name": "checkIfUserExists",
      "outputs": [
        {
          "internalType": "bool",
          "name": "",
          "type": "bool"
        }
      ],
      "stateMutability": "view",
      "type": "function"
    },
    {
      "inputs": [
        {
          "internalType": "string",
          "name": "groupName",
          "type": "string"
        },
        {
          "internalType": "string[]",
          "name": "permissions",
          "type": "string[]"
        },
        {
          "internalType": "string",
          "name": "newURL",
          "type": "string"
        }
      ],
      "name": "createGroup",
      "outputs": [],
      "stateMutability": "nonpayable",
      "type": "function"
    },
    {
      "inputs": [
        {
          "internalType": "string",
          "name": "username",
          "type": "string"
        }
      ],
      "name": "emitLoginSuccessLog",
      "outputs": [],
      "stateMutability": "nonpayable",
      "type": "function"
    },
    {
      "inputs": [],
      "name": "getAllGroups",
      "outputs": [
        {
          "internalType": "string[]",
          "name": "",
          "type": "string[]"
        }
      ],
      "stateMutability": "view",
      "type": "function"
    },
    {
      "inputs": [],
      "name": "getAllUsernames",
      "outputs": [
        {
          "internalType": "string[]",
          "name": "",
          "type": "string[]"
        }
      ],
      "stateMutability": "view",
      "type": "function"
    },
    {
      "inputs": [
        {
          "internalType": "string",
          "name": "groupName",
          "type": "string"
        }
      ],
      "name": "getGroup",
      "outputs": [
        {
          "internalType": "string",
          "name": "",
          "type": "string"
        },
        {
          "internalType": "string[]",
          "name": "",
          "type": "string[]"
        },
        {
          "internalType": "string[]",
          "name": "",
          "type": "string[]"
        },
        {
          "internalType": "string",
          "name": "",
          "type": "string"
        }
      ],
      "stateMutability": "view",
      "type": "function"
    },
    {
      "inputs": [
        {
          "internalType": "string",
          "name": "username",
          "type": "string"
        }
      ],
      "name": "getUser",
      "outputs": [
        {
          "internalType": "string",
          "name": "",
          "type": "string"
        },
        {
          "internalType": "string",
          "name": "",
          "type": "string"
        },
        {
          "internalType": "string[]",
          "name": "",
          "type": "string[]"
        },
        {
          "internalType": "string",
          "name": "",
          "type": "string"
        },
        {
          "internalType": "string",
          "name": "",
          "type": "string"
        },
        {
          "internalType": "bool",
          "name": "",
          "type": "bool"
        },
        {
          "internalType": "string",
          "name": "",
          "type": "string"
        },
        {
          "internalType": "string",
          "name": "",
          "type": "string"
        }
      ],
      "stateMutability": "view",
      "type": "function"
    },
    {
      "inputs": [
        {
          "internalType": "string",
          "name": "username",
          "type": "string"
        }
      ],
      "name": "getUserFaceHashes",
      "outputs": [
        {
          "internalType": "string[]",
          "name": "",
          "type": "string[]"
        }
      ],
      "stateMutability": "view",
      "type": "function"
    },
    {
      "inputs": [
        {
          "internalType": "string",
          "name": "username",
          "type": "string"
        }
      ],
      "name": "getUserPermissions",
      "outputs": [
        {
          "internalType": "string[]",
          "name": "",
          "type": "string[]"
        }
      ],
      "stateMutability": "view",
      "type": "function"
    },
    {
      "inputs": [
        {
          "internalType": "string",
          "name": "username",
          "type": "string"
        },
        {
          "internalType": "string",
          "name": "passwordHash",
          "type": "string"
        },
        {
          "internalType": "string[]",
          "name": "initialFaceHashes",
          "type": "string[]"
        },
        {
          "internalType": "string",
          "name": "creationDate",
          "type": "string"
        }
      ],
      "name": "registerUser",
      "outputs": [],
      "stateMutability": "nonpayable",
      "type": "function"
    },
    {
      "inputs": [
        {
          "internalType": "string",
          "name": "groupName",
          "type": "string"
        }
      ],
      "name": "removeGroup",
      "outputs": [],
      "stateMutability": "nonpayable",
      "type": "function"
    },
    {
      "inputs": [
        {
          "internalType": "string",
          "name": "username",
          "type": "string"
        }
      ],
      "name": "removeUser",
      "outputs": [],
      "stateMutability": "nonpayable",
      "type": "function"
    },
    {
      "inputs": [
        {
          "internalType": "string",
          "name": "groupName",
          "type": "string"
        },
        {
          "internalType": "string",
          "name": "username",
          "type": "string"
        }
      ],
      "name": "removeUserFromGroup",
      "outputs": [],
      "stateMutability": "nonpayable",
      "type": "function"
    },
    {
      "inputs": [
        {
          "internalType": "string",
          "name": "groupName",
          "type": "string"
        },
        {
          "internalType": "string[]",
          "name": "groupPermissions",
          "type": "string[]"
        }
      ],
      "name": "setGroupPermissions",
      "outputs": [
        {
          "internalType": "string",
          "name": "",
          "type": "string"
        }
      ],
      "stateMutability": "nonpayable",
      "type": "function"
    },
    {
      "inputs": [
        {
          "internalType": "string",
          "name": "groupName",
          "type": "string"
        },
        {
          "internalType": "string",
          "name": "url",
          "type": "string"
        }
      ],
      "name": "setGroupURL",
      "outputs": [],
      "stateMutability": "nonpayable",
      "type": "function"
    },
    {
      "inputs": [
        {
          "internalType": "string",
          "name": "username",
          "type": "string"
        }
      ],
      "name": "toggleUser",
      "outputs": [],
      "stateMutability": "nonpayable",
      "type": "function"
    },
    {
      "inputs": [
        {
          "internalType": "string",
          "name": "originalGroupName",
          "type": "string"
        },
        {
          "internalType": "string",
          "name": "newGroupName",
          "type": "string"
        },
        {
          "internalType": "string[]",
          "name": "newPermissions",
          "type": "string[]"
        }
      ],
      "name": "updateGroup",
      "outputs": [],
      "stateMutability": "nonpayable",
      "type": "function"
    },
    {
      "inputs": [
        {
          "internalType": "string",
          "name": "username",
          "type": "string"
        },
        {
          "internalType": "string",
          "name": "newEmail",
          "type": "string"
        }
      ],
      "name": "updateUserEmail",
      "outputs": [],
      "stateMutability": "nonpayable",
      "type": "function"
    },
    {
      "inputs": [
        {
          "internalType": "string",
          "name": "username",
          "type": "string"
        },
        {
          "internalType": "string[]",
          "name": "newFaceHashes",
          "type": "string[]"
        }
      ],
      "name": "updateUserFaceHash",
      "outputs": [],
      "stateMutability": "nonpayable",
      "type": "function"
    },
    {
      "inputs": [
        {
          "internalType": "string",
          "name": "username",
          "type": "string"
        },
        {
          "internalType": "string",
          "name": "newFullName",
          "type": "string"
        }
      ],
      "name": "updateUserFullName",
      "outputs": [],
      "stateMutability": "nonpayable",
      "type": "function"
    },
    {
      "inputs": [
        {
          "internalType": "string",
          "name": "username",
          "type": "string"
        },
        {
          "internalType": "string",
          "name": "newPasswordHash",
          "type": "string"
        }
      ],
      "name": "updateUserPassword",
      "outputs": [],
      "stateMutability": "nonpayable",
      "type": "function"
    }
  ],
  "bytecode": "0x60806040526000600560006101000a81548160ff0219169083151502179055503480156200002c57600080fd5b5033600560016101000a81548173ffffffffffffffffffffffffffffffffffffffff021916908373ffffffffffffffffffffffffffffffffffffffff160217905550600060405180608001604052806040518060400160405280601581526020017f466163654775617264204372656174653a20416c6c000000000000000000000081525081526020016040518060400160405280601381526020017f46616365477561726420526561643a20416c6c0000000000000000000000000081525081526020016040518060400160405280601581526020017f466163654775617264205570646174653a20416c6c000000000000000000000081525081526020016040518060400160405280601581526020017f4661636547756172642044656c6574653a20416c6c00000000000000000000008152508152509050600060405180606001604052806040518060400160405280601481526020017f46616365477561726420526561643a2053656c6600000000000000000000000081525081526020016040518060400160405280601681526020017f466163654775617264205570646174653a2053656c660000000000000000000081525081526020016040518060400160405280601681526020017f4661636547756172642044656c6574653a2053656c66000000000000000000008152508152509050600060405180608001604052806040518060400160405280601881526020017f466163654775617264204372656174653a2047726f757073000000000000000081525081526020016040518060400160405280601681526020017f46616365477561726420526561643a2047726f7570730000000000000000000081525081526020016040518060400160405280601881526020017f466163654775617264205570646174653a2047726f757073000000000000000081525081526020016040518060400160405280601881526020017f4661636547756172642044656c6574653a2047726f75707300000000000000008152508152509050600060405180608001604052806040518060400160405280601781526020017f466163654775617264204372656174653a20557365727300000000000000000081525081526020016040518060400160405280601581526020017f46616365477561726420526561643a205573657273000000000000000000000081525081526020016040518060400160405280601781526020017f466163654775617264205570646174653a20557365727300000000000000000081525081526020016040518060400160405280601781526020017f4661636547756172642044656c6574653a20557365727300000000000000000081525081525090506200047e6040518060400160405280600e81526020017f41646d696e6973747261746f72730000000000000000000000000000000000008152506200046286620005bd60201b60201c565b60405180602001604052806000815250620006ec60201b60201c565b620004e56040518060400160405280600581526020017f5573657273000000000000000000000000000000000000000000000000000000815250620004c9856200096d60201b60201c565b60405180602001604052806000815250620006ec60201b60201c565b6200054c6040518060400160405280600e81526020017f47726f7570204d616e61676572730000000000000000000000000000000000008152506200053084620005bd60201b60201c565b60405180602001604052806000815250620006ec60201b60201c565b620005b36040518060400160405280600d81526020017f55736572204d616e6167657273000000000000000000000000000000000000008152506200059783620005bd60201b60201c565b60405180602001604052806000815250620006ec60201b60201c565b50505050620012ff565b60606000600467ffffffffffffffff81111562000603577f4e487b7100000000000000000000000000000000000000000000000000000000600052604160045260246000fd5b6040519080825280602002602001820160405280156200063857816020015b6060815260200190600190039081620006225790505b50905060005b6004811015620006e25783816004811062000682577f4e487b7100000000000000000000000000000000000000000000000000000000600052603260045260246000fd5b6020020151828281518110620006c1577f4e487b7100000000000000000000000000000000000000000000000000000000600052603260045260246000fd5b60200260200101819052508080620006d99062001242565b9150506200063e565b5080915050919050565b600560019054906101000a900473ffffffffffffffffffffffffffffffffffffffff1673ffffffffffffffffffffffffffffffffffffffff163373ffffffffffffffffffffffffffffffffffffffff16146200077f576040517f08c379a0000000000000000000000000000000000000000000000000000000008152600401620007769062001117565b60405180910390fd5b6040518060800160405280848152602001600067ffffffffffffffff811115620007d2577f4e487b7100000000000000000000000000000000000000000000000000000000600052604160045260246000fd5b6040519080825280602002602001820160405280156200080757816020015b6060815260200190600190039081620007f15790505b5081526020018381526020016040518060200160405280600081525081525060018460405162000838919062001071565b908152602001604051809103902060008201518160000190805190602001906200086492919062000cf2565b5060208201518160010190805190602001906200088392919062000d83565b506040820151816002019080519060200190620008a292919062000d83565b506060820151816003019080519060200190620008c192919062000cf2565b509050506003839080600181540180825580915050600190039060005260206000200160009091909190915090805190602001906200090292919062000cf2565b508260405162000913919062001071565b60405180910390207fda8cb7463ba733d6194271d0978f8f3fe238ece9368518bf39f0a3ad9c21ea3584846040516200094e9291906200108a565b60405180910390a262000968838262000a9c60201b60201c565b505050565b60606000600367ffffffffffffffff811115620009b3577f4e487b7100000000000000000000000000000000000000000000000000000000600052604160045260246000fd5b604051908082528060200260200182016040528015620009e857816020015b6060815260200190600190039081620009d25790505b50905060005b600381101562000a925783816003811062000a32577f4e487b7100000000000000000000000000000000000000000000000000000000600052603260045260246000fd5b602002015182828151811062000a71577f4e487b7100000000000000000000000000000000000000000000000000000000600052603260045260246000fd5b6020026020010181905250808062000a899062001242565b915050620009ee565b5080915050919050565b600560019054906101000a900473ffffffffffffffffffffffffffffffffffffffff1673ffffffffffffffffffffffffffffffffffffffff163373ffffffffffffffffffffffffffffffffffffffff161462000b2f576040517f08c379a000000000000000000000000000000000000000000000000000000000815260040162000b269062001117565b60405180910390fd5b600060018360405162000b43919062001071565b9081526020016040518091039020600001805462000b61906200120c565b90501162000ba6576040517f08c379a000000000000000000000000000000000000000000000000000000000815260040162000b9d9062001139565b60405180910390fd5b600060018360405162000bba919062001071565b9081526020016040518091039020600301805462000bd8906200120c565b80601f016020809104026020016040519081016040528092919081815260200182805462000c06906200120c565b801562000c575780601f1062000c2b5761010080835404028352916020019162000c57565b820191906000526020600020905b81548152906001019060200180831162000c3957829003601f168201915b505050505090508160018460405162000c71919062001071565b9081526020016040518091039020600301908051906020019062000c9792919062000cf2565b508260405162000ca8919062001071565b60405180910390207f56ac90dbfad2748e87288544310f76b151244eaed1fd5b5744e2c9fd4ed19f8684838560405162000ce593929190620010c5565b60405180910390a2505050565b82805462000d00906200120c565b90600052602060002090601f01602090048101928262000d24576000855562000d70565b82601f1062000d3f57805160ff191683800117855562000d70565b8280016001018555821562000d70579182015b8281111562000d6f57825182559160200191906001019062000d52565b5b50905062000d7f919062000dea565b5090565b82805482825590600052602060002090810192821562000dd7579160200282015b8281111562000dd657825182908051906020019062000dc592919062000cf2565b509160200191906001019062000da4565b5b50905062000de6919062000e09565b5090565b5b8082111562000e0557600081600090555060010162000deb565b5090565b5b8082111562000e2d576000818162000e23919062000e31565b5060010162000e0a565b5090565b50805462000e3f906200120c565b6000825580601f1062000e53575062000e74565b601f01602090049060005260206000209081019062000e73919062000dea565b5b50565b600062000e85838362000f0e565b905092915050565b600062000e9a826200116b565b62000ea681856200118e565b93508360208202850162000eba856200115b565b8060005b8581101562000efc578484038952815162000eda858262000e77565b945062000ee78362001181565b925060208a0199505060018101905062000ebe565b50829750879550505050505092915050565b600062000f1b8262001176565b62000f2781856200119f565b935062000f39818560208601620011d6565b62000f4481620012ee565b840191505092915050565b600062000f5c8262001176565b62000f688185620011b0565b935062000f7a818560208601620011d6565b62000f8581620012ee565b840191505092915050565b600062000f9d8262001176565b62000fa98185620011c1565b935062000fbb818560208601620011d6565b80840191505092915050565b600062000fd6602f83620011b0565b91507f4f6e6c792074686520636f6e7472616374206f776e65722063616e207065726660008301527f6f726d207468697320616374696f6e00000000000000000000000000000000006020830152604082019050919050565b60006200103e601483620011b0565b91507f47726f757020646f6573206e6f742065786973740000000000000000000000006000830152602082019050919050565b60006200107f828462000f90565b915081905092915050565b60006040820190508181036000830152620010a6818562000f4f565b90508181036020830152620010bc818462000e8d565b90509392505050565b60006060820190508181036000830152620010e1818662000f4f565b90508181036020830152620010f7818562000f4f565b905081810360408301526200110d818462000f4f565b9050949350505050565b60006020820190508181036000830152620011328162000fc7565b9050919050565b6000602082019050818103600083015262001154816200102f565b9050919050565b6000819050602082019050919050565b600081519050919050565b600081519050919050565b6000602082019050919050565b600082825260208201905092915050565b600082825260208201905092915050565b600082825260208201905092915050565b600081905092915050565b6000819050919050565b60005b83811015620011f6578082015181840152602081019050620011d9565b8381111562001206576000848401525b50505050565b600060028204905060018216806200122557607f821691505b602082108114156200123c576200123b620012bf565b5b50919050565b60006200124f82620011cc565b91507fffffffffffffffffffffffffffffffffffffffffffffffffffffffffffffffff82141562001285576200128462001290565b5b600182019050919050565b7f4e487b7100000000000000000000000000000000000000000000000000000000600052601160045260246000fd5b7f4e487b7100000000000000000000000000000000000000000000000000000000600052602260045260246000fd5b6000601f19601f8301169050919050565b615d9f806200130f6000396000f3fe608060405234801561001057600080fd5b50600436106101425760003560e01c80636246b310116100b8578063abef281e1161007c578063abef281e14610362578063b9e6facb14610395578063c91bc46c146103b1578063dbfc63f9146103cd578063ecb5a4d5146103e9578063ee1c55da1461040557610142565b80636246b310146102c257806367753ba1146102de5780636b228cde146102fa5780636cad1934146103165780638a0bd86b1461034657610142565b80632d09d9e91161010a5780632d09d9e9146101e957806331feb671146102195780635108c3ab14610250578063536203751461026c5780635b9a6b1d1461028a578063600cee78146102a657610142565b806303df9e92146101475780630e63a8c4146101635780631ae7f10a1461017f57806321cd3cae146101af578063266c1bab146101cd575b600080fd5b610161600480360381019061015c9190614bdb565b610435565b005b61017d60048036038101906101789190614cde565b610645565b005b61019960048036038101906101949190614bdb565b61087f565b6040516101a69190615670565b60405180910390f35b6101b7610df6565b6040516101c49190615633565b60405180910390f35b6101e760048036038101906101e29190614cde565b610ecf565b005b61020360048036038101906101fe9190614b9a565b611097565b6040516102109190615633565b60405180910390f35b610233600480360381019061022e9190614b9a565b611221565b6040516102479897969594939291906157dd565b60405180910390f35b61026a60048036038101906102659190614b9a565b6116ff565b005b610274611877565b6040516102819190615633565b60405180910390f35b6102a4600480360381019061029f9190614d4a565b611950565b005b6102c060048036038101906102bb9190614b9a565b611f46565b005b6102dc60048036038101906102d79190614b9a565b61240c565b005b6102f860048036038101906102f39190614cde565b612aec565b005b610314600480360381019061030f9190614b9a565b612ff1565b005b610330600480360381019061032b9190614b9a565b6130d1565b60405161033d9190615655565b60405180910390f35b610360600480360381019061035b9190614cde565b61310a565b005b61037c60048036038101906103779190614b9a565b6132d3565b60405161038c9493929190615715565b60405180910390f35b6103af60048036038101906103aa9190614de1565b613700565b005b6103cb60048036038101906103c69190614cde565b613a2a565b005b6103e760048036038101906103e29190614c47565b613b41565b005b61040360048036038101906103fe9190614cde565b613da4565b005b61041f600480360381019061041a9190614b9a565b614010565b60405161042c9190615633565b60405180910390f35b600560019054906101000a900473ffffffffffffffffffffffffffffffffffffffff1673ffffffffffffffffffffffffffffffffffffffff163373ffffffffffffffffffffffffffffffffffffffff16146104c5576040517f08c379a00000000000000000000000000000000000000000000000000000000081526004016104bc906159a4565b60405180910390fd5b600080836040516104d691906155f0565b9081526020016040518091039020600201805480602002602001604051908101604052809291908181526020016000905b828210156105b357838290600052602060002001805461052690615c50565b80601f016020809104026020016040519081016040528092919081815260200182805461055290615c50565b801561059f5780601f106105745761010080835404028352916020019161059f565b820191906000526020600020905b81548152906001019060200180831161058257829003601f168201915b505050505081526020019060010190610507565b505050509050816000846040516105ca91906155f0565b908152602001604051809103902060020190805190602001906105ee9291906147a1565b50826040516105fd91906155f0565b60405180910390207f2915b912a9fec4a96d295ba3188e0d2bed2fd6e9f9e34947a8f17ddf60642d17848385604051610638939291906156c9565b60405180910390a2505050565b600560019054906101000a900473ffffffffffffffffffffffffffffffffffffffff1673ffffffffffffffffffffffffffffffffffffffff163373ffffffffffffffffffffffffffffffffffffffff16146106d5576040517f08c379a00000000000000000000000000000000000000000000000000000000081526004016106cc906159a4565b60405180910390fd5b60006001836040516106e791906155f0565b9081526020016040518091039020600001805461070390615c50565b905011610745576040517f08c379a000000000000000000000000000000000000000000000000000000000815260040161073c906159e4565b60405180910390fd5b600060018360405161075791906155f0565b9081526020016040518091039020600301805461077390615c50565b80601f016020809104026020016040519081016040528092919081815260200182805461079f90615c50565b80156107ec5780601f106107c1576101008083540402835291602001916107ec565b820191906000526020600020905b8154815290600101906020018083116107cf57829003601f168201915b505050505090508160018460405161080491906155f0565b90815260200160405180910390206003019080519060200190610828929190614801565b508260405161083791906155f0565b60405180910390207f56ac90dbfad2748e87288544310f76b151244eaed1fd5b5744e2c9fd4ed19f868483856040516108729392919061588c565b60405180910390a2505050565b6060600560019054906101000a900473ffffffffffffffffffffffffffffffffffffffff1673ffffffffffffffffffffffffffffffffffffffff163373ffffffffffffffffffffffffffffffffffffffff1614610911576040517f08c379a0000000000000000000000000000000000000000000000000000000008152600401610908906159a4565b60405180910390fd5b600060018460405161092391906155f0565b9081526020016040518091039020600001805461093f90615c50565b905011610981576040517f08c379a0000000000000000000000000000000000000000000000000000000008152600401610978906159e4565b60405180910390fd5b600060405180608001604052806040518060400160405280600e81526020017f41646d696e6973747261746f727300000000000000000000000000000000000081525081526020016040518060400160405280600581526020017f557365727300000000000000000000000000000000000000000000000000000081525081526020016040518060400160405280600e81526020017f47726f7570204d616e616765727300000000000000000000000000000000000081525081526020016040518060400160405280600d81526020017f55736572204d616e616765727300000000000000000000000000000000000000815250815250905060005b6004811015610b6557818160048110610abf577f4e487b7100000000000000000000000000000000000000000000000000000000600052603260045260246000fd5b6020020151604051602001610ad491906155f0565b6040516020818303038152906040528051906020012085604051602001610afb91906155f0565b604051602081830303815290604052805190602001201415610b52576040517f08c379a0000000000000000000000000000000000000000000000000000000008152600401610b4990615964565b60405180910390fd5b8080610b5d90615c82565b915050610a7d565b506000600185604051610b7891906155f0565b9081526020016040518091039020600201805480602002602001604051908101604052809291908181526020016000905b82821015610c55578382906000526020600020018054610bc890615c50565b80601f0160208091040260200160405190810160405280929190818152602001828054610bf490615c50565b8015610c415780601f10610c1657610100808354040283529160200191610c41565b820191906000526020600020905b815481529060010190602001808311610c2457829003601f168201915b505050505081526020019060010190610ba9565b50505050905083600186604051610c6c91906155f0565b90815260200160405180910390206002019080519060200190610c909291906147a1565b50600185604051610ca191906155f0565b9081526020016040518091039020600001604051610cbf9190615607565b60405180910390207ffcd9136e5deacda60dd8ad3b5583ee6a6747a1817e9e06e1366e43d0f01e91f7600187604051610cf891906155f0565b908152602001604051809103902060000183600189604051610d1a91906155f0565b9081526020016040518091039020600201604051610d3a939291906158d8565b60405180910390a2600185604051610d5291906155f0565b90815260200160405180910390206000018054610d6e90615c50565b80601f0160208091040260200160405190810160405280929190818152602001828054610d9a90615c50565b8015610de75780601f10610dbc57610100808354040283529160200191610de7565b820191906000526020600020905b815481529060010190602001808311610dca57829003601f168201915b50505050509250505092915050565b60606003805480602002602001604051908101604052809291908181526020016000905b82821015610ec6578382906000526020600020018054610e3990615c50565b80601f0160208091040260200160405190810160405280929190818152602001828054610e6590615c50565b8015610eb25780601f10610e8757610100808354040283529160200191610eb2565b820191906000526020600020905b815481529060010190602001808311610e9557829003601f168201915b505050505081526020019060010190610e1a565b50505050905090565b600560019054906101000a900473ffffffffffffffffffffffffffffffffffffffff1673ffffffffffffffffffffffffffffffffffffffff163373ffffffffffffffffffffffffffffffffffffffff1614610f5f576040517f08c379a0000000000000000000000000000000000000000000000000000000008152600401610f56906159a4565b60405180910390fd5b60008083604051610f7091906155f0565b90815260200160405180910390206006018054610f8c90615c50565b80601f0160208091040260200160405190810160405280929190818152602001828054610fb890615c50565b80156110055780601f10610fda57610100808354040283529160200191611005565b820191906000526020600020905b815481529060010190602001808311610fe857829003601f168201915b505050505090508160008460405161101d91906155f0565b90815260200160405180910390206006019080519060200190611041929190614801565b508260405161105091906155f0565b60405180910390207e95e409f8d4ea953d06c8d8e56df3da2afcbdd6d2d332290fcd2932e81bf5cf84838560405161108a9392919061588c565b60405180910390a2505050565b6060600560019054906101000a900473ffffffffffffffffffffffffffffffffffffffff1673ffffffffffffffffffffffffffffffffffffffff163373ffffffffffffffffffffffffffffffffffffffff1614611129576040517f08c379a0000000000000000000000000000000000000000000000000000000008152600401611120906159a4565b60405180910390fd5b60008260405161113991906155f0565b9081526020016040518091039020600201805480602002602001604051908101604052809291908181526020016000905b8282101561121657838290600052602060002001805461118990615c50565b80601f01602080910402602001604051908101604052809291908181526020018280546111b590615c50565b80156112025780601f106111d757610100808354040283529160200191611202565b820191906000526020600020905b8154815290600101906020018083116111e557829003601f168201915b50505050508152602001906001019061116a565b505050509050919050565b606080606080606060006060806000808a60405161123f91906155f0565b90815260200160405180910390206040518061010001604052908160008201805461126990615c50565b80601f016020809104026020016040519081016040528092919081815260200182805461129590615c50565b80156112e25780601f106112b7576101008083540402835291602001916112e2565b820191906000526020600020905b8154815290600101906020018083116112c557829003601f168201915b505050505081526020016001820180546112fb90615c50565b80601f016020809104026020016040519081016040528092919081815260200182805461132790615c50565b80156113745780601f1061134957610100808354040283529160200191611374565b820191906000526020600020905b81548152906001019060200180831161135757829003601f168201915b5050505050815260200160028201805480602002602001604051908101604052809291908181526020016000905b8282101561144e5783829060005260206000200180546113c190615c50565b80601f01602080910402602001604051908101604052809291908181526020018280546113ed90615c50565b801561143a5780601f1061140f5761010080835404028352916020019161143a565b820191906000526020600020905b81548152906001019060200180831161141d57829003601f168201915b5050505050815260200190600101906113a2565b50505050815260200160038201805461146690615c50565b80601f016020809104026020016040519081016040528092919081815260200182805461149290615c50565b80156114df5780601f106114b4576101008083540402835291602001916114df565b820191906000526020600020905b8154815290600101906020018083116114c257829003601f168201915b505050505081526020016004820180546114f890615c50565b80601f016020809104026020016040519081016040528092919081815260200182805461152490615c50565b80156115715780601f1061154657610100808354040283529160200191611571565b820191906000526020600020905b81548152906001019060200180831161155457829003601f168201915b505050505081526020016005820160009054906101000a900460ff161515151581526020016006820180546115a590615c50565b80601f01602080910402602001604051908101604052809291908181526020018280546115d190615c50565b801561161e5780601f106115f35761010080835404028352916020019161161e565b820191906000526020600020905b81548152906001019060200180831161160157829003601f168201915b5050505050815260200160078201805461163790615c50565b80601f016020809104026020016040519081016040528092919081815260200182805461166390615c50565b80156116b05780601f10611685576101008083540402835291602001916116b0565b820191906000526020600020905b81548152906001019060200180831161169357829003601f168201915b5050505050815250509050806000015181602001518260400151836060015184608001518560a001518660c001518760e001519850985098509850985098509850985050919395975091939597565b600560019054906101000a900473ffffffffffffffffffffffffffffffffffffffff1673ffffffffffffffffffffffffffffffffffffffff163373ffffffffffffffffffffffffffffffffffffffff161461178f576040517f08c379a0000000000000000000000000000000000000000000000000000000008152600401611786906159a4565b60405180910390fd5b60008160405161179f91906155f0565b908152602001604051809103902060050160009054906101000a900460ff16156000826040516117cf91906155f0565b908152602001604051809103902060050160006101000a81548160ff0219169083151502179055508060405161180591906155f0565b60405180910390207f6e035416864c42223c8c5c71745b27ca14f8c3d0f8a4f18f0c7abb691c7cd4b18260008460405161183f91906155f0565b908152602001604051809103902060050160009054906101000a900460ff1660405161186c929190615776565b60405180910390a250565b60606002805480602002602001604051908101604052809291908181526020016000905b828210156119475783829060005260206000200180546118ba90615c50565b80601f01602080910402602001604051908101604052809291908181526020018280546118e690615c50565b80156119335780601f1061190857610100808354040283529160200191611933565b820191906000526020600020905b81548152906001019060200180831161191657829003601f168201915b50505050508152602001906001019061189b565b50505050905090565b600560019054906101000a900473ffffffffffffffffffffffffffffffffffffffff1673ffffffffffffffffffffffffffffffffffffffff163373ffffffffffffffffffffffffffffffffffffffff16146119e0576040517f08c379a00000000000000000000000000000000000000000000000000000000081526004016119d7906159a4565b60405180910390fd5b60006001846040516119f291906155f0565b90815260200160405180910390206000018054611a0e90615c50565b905011611a50576040517f08c379a0000000000000000000000000000000000000000000000000000000008152600401611a47906159e4565b60405180910390fd5b600060405180608001604052806040518060400160405280600e81526020017f41646d696e6973747261746f727300000000000000000000000000000000000081525081526020016040518060400160405280600581526020017f557365727300000000000000000000000000000000000000000000000000000081525081526020016040518060400160405280600e81526020017f47726f7570204d616e616765727300000000000000000000000000000000000081525081526020016040518060400160405280600d81526020017f55736572204d616e616765727300000000000000000000000000000000000000815250815250905060005b6004811015611c3457818160048110611b8e577f4e487b7100000000000000000000000000000000000000000000000000000000600052603260045260246000fd5b6020020151604051602001611ba391906155f0565b6040516020818303038152906040528051906020012085604051602001611bca91906155f0565b604051602081830303815290604052805190602001201415611c21576040517f08c379a0000000000000000000000000000000000000000000000000000000008152600401611c18906159c4565b60405180910390fd5b8080611c2c90615c82565b915050611b4c565b50611c3f848361087f565b5082604051602001611c5191906155f0565b6040516020818303038152906040528051906020012084604051602001611c7891906155f0565b6040516020818303038152906040528051906020012014611f4057600184604051611ca391906155f0565b9081526020016040518091039020600184604051611cc191906155f0565b90815260200160405180910390206000820181600001908054611ce390615c50565b611cee929190614887565b506001820181600101908054611d05929190614914565b506002820181600201908054611d1c929190614914565b506003820181600301908054611d3190615c50565b611d3c929190614887565b5090505082600184604051611d5191906155f0565b90815260200160405180910390206000019080519060200190611d75929190614801565b50600184604051611d8691906155f0565b908152602001604051809103902060008082016000611da5919061497c565b600182016000611db591906149bc565b600282016000611dc591906149bc565b600382016000611dd5919061497c565b505060005b600380549050811015611eef5784604051602001611df891906155f0565b6040516020818303038152906040528051906020012060038281548110611e48577f4e487b7100000000000000000000000000000000000000000000000000000000600052603260045260246000fd5b90600052602060002001604051602001611e629190615607565b604051602081830303815290604052805190602001201415611edc578360038281548110611eb9577f4e487b7100000000000000000000000000000000000000000000000000000000600052603260045260246000fd5b906000526020600020019080519060200190611ed6929190614801565b50611eef565b8080611ee790615c82565b915050611dda565b5083604051611efe91906155f0565b60405180910390207ff50ce9fab9945002300a415697ea6ed2ffa0abe2e97704dbe379f96bbc1f4aba8585604051611f379291906157a6565b60405180910390a25b50505050565b600560019054906101000a900473ffffffffffffffffffffffffffffffffffffffff1673ffffffffffffffffffffffffffffffffffffffff163373ffffffffffffffffffffffffffffffffffffffff1614611fd6576040517f08c379a0000000000000000000000000000000000000000000000000000000008152600401611fcd906159a4565b60405180910390fd5b60008082604051611fe791906155f0565b9081526020016040518091039020600001805461200390615c50565b905011612045576040517f08c379a000000000000000000000000000000000000000000000000000000000815260040161203c90615a24565b60405180910390fd5b60046040516020016120579190615607565b604051602081830303815290604052805190602001208160405160200161207e91906155f0565b6040516020818303038152906040528051906020012014156120d5576040517f08c379a00000000000000000000000000000000000000000000000000000000081526004016120cc90615984565b60405180910390fd5b6001600560006101000a81548160ff02191690831515021790555061212f6040518060400160405280600581526020017f557365727300000000000000000000000000000000000000000000000000000081525082612aec565b6000600560006101000a81548160ff0219169083151502179055506000805b600280549050811015612315578260405160200161216c91906155f0565b60405160208183030381529060405280519060200120600282815481106121bc577f4e487b7100000000000000000000000000000000000000000000000000000000600052603260045260246000fd5b906000526020600020016040516020016121d69190615607565b60405160208183030381529060405280519060200120141561230257600191506002600160028054905061220a9190615bc4565b81548110612241577f4e487b7100000000000000000000000000000000000000000000000000000000600052603260045260246000fd5b9060005260206000200160028281548110612285577f4e487b7100000000000000000000000000000000000000000000000000000000600052603260045260246000fd5b9060005260206000200190805461229b90615c50565b6122a69291906149dd565b5060028054806122df577f4e487b7100000000000000000000000000000000000000000000000000000000600052603160045260246000fd5b6001900381819060005260206000200160006122fb919061497c565b9055612315565b808061230d90615c82565b91505061214e565b5060008260405161232691906155f0565b908152602001604051809103902060008082016000612345919061497c565b600182016000612355919061497c565b60028201600061236591906149bc565b600382016000612375919061497c565b600482016000612385919061497c565b6005820160006101000a81549060ff02191690556006820160006123a9919061497c565b6007820160006123b9919061497c565b5050816040516123c991906155f0565b60405180910390207f3f27f4d0d2da9aaa7a63839890b75093bf8524b6ac7d8aa21aa9f4576005d7c2836040516124009190615670565b60405180910390a25050565b600560019054906101000a900473ffffffffffffffffffffffffffffffffffffffff1673ffffffffffffffffffffffffffffffffffffffff163373ffffffffffffffffffffffffffffffffffffffff161461249c576040517f08c379a0000000000000000000000000000000000000000000000000000000008152600401612493906159a4565b60405180910390fd5b60006001826040516124ae91906155f0565b908152602001604051809103902060000180546124ca90615c50565b90501161250c576040517f08c379a0000000000000000000000000000000000000000000000000000000008152600401612503906159e4565b60405180910390fd5b600060405180608001604052806040518060400160405280600e81526020017f41646d696e6973747261746f727300000000000000000000000000000000000081525081526020016040518060400160405280600581526020017f557365727300000000000000000000000000000000000000000000000000000081525081526020016040518060400160405280600e81526020017f47726f7570204d616e616765727300000000000000000000000000000000000081525081526020016040518060400160405280600d81526020017f55736572204d616e616765727300000000000000000000000000000000000000815250815250905060005b60048110156126f05781816004811061264a577f4e487b7100000000000000000000000000000000000000000000000000000000600052603260045260246000fd5b602002015160405160200161265f91906155f0565b604051602081830303815290604052805190602001208360405160200161268691906155f0565b6040516020818303038152906040528051906020012014156126dd576040517f08c379a00000000000000000000000000000000000000000000000000000000081526004016126d490615a04565b60405180910390fd5b80806126e890615c82565b915050612608565b506000805b6003805490508110156129f8578360405160200161271391906155f0565b6040516020818303038152906040528051906020012060038281548110612763577f4e487b7100000000000000000000000000000000000000000000000000000000600052603260045260246000fd5b9060005260206000200160405160200161277d9190615607565b6040516020818303038152906040528051906020012014156129e557600191506000600382815481106127d9577f4e487b7100000000000000000000000000000000000000000000000000000000600052603260045260246000fd5b9060005260206000200180546127ee90615c50565b80601f016020809104026020016040519081016040528092919081815260200182805461281a90615c50565b80156128675780601f1061283c57610100808354040283529160200191612867565b820191906000526020600020905b81548152906001019060200180831161284a57829003601f168201915b50505050509050600360016003805490506128829190615bc4565b815481106128b9577f4e487b7100000000000000000000000000000000000000000000000000000000600052603260045260246000fd5b90600052602060002001600383815481106128fd577f4e487b7100000000000000000000000000000000000000000000000000000000600052603260045260246000fd5b9060005260206000200190805461291390615c50565b61291e9291906149dd565b5080600360016003805490506129349190615bc4565b8154811061296b577f4e487b7100000000000000000000000000000000000000000000000000000000600052603260045260246000fd5b906000526020600020019080519060200190612988929190614801565b5060038054806129c1577f4e487b7100000000000000000000000000000000000000000000000000000000600052603160045260246000fd5b6001900381819060005260206000200160006129dd919061497c565b9055506129f8565b80806129f090615c82565b9150506126f5565b5080612a39576040517f08c379a0000000000000000000000000000000000000000000000000000000008152600401612a3090615924565b60405180910390fd5b600183604051612a4991906155f0565b908152602001604051809103902060008082016000612a68919061497c565b600182016000612a7891906149bc565b600282016000612a8891906149bc565b600382016000612a98919061497c565b505082604051612aa891906155f0565b60405180910390207f07386a1c2a0cc80496a77c2fdc90bc93764d5fa75567f9dd3cb6513fdfb7e3ae84604051612adf9190615670565b60405180910390a2505050565b600560019054906101000a900473ffffffffffffffffffffffffffffffffffffffff1673ffffffffffffffffffffffffffffffffffffffff163373ffffffffffffffffffffffffffffffffffffffff1614612b7c576040517f08c379a0000000000000000000000000000000000000000000000000000000008152600401612b73906159a4565b60405180910390fd5b6000600183604051612b8e91906155f0565b90815260200160405180910390206000018054612baa90615c50565b905011612bec576040517f08c379a0000000000000000000000000000000000000000000000000000000008152600401612be3906159e4565b60405180910390fd5b60008082604051612bfd91906155f0565b90815260200160405180910390206000018054612c1990615c50565b905011612c5b576040517f08c379a0000000000000000000000000000000000000000000000000000000008152600401612c5290615a44565b60405180910390fd5b60001515600560009054906101000a900460ff1615151415612d0557604051602001612c869061561e565b6040516020818303038152906040528051906020012082604051602001612cad91906155f0565b604051602081830303815290604052805190602001201415612d04576040517f08c379a0000000000000000000000000000000000000000000000000000000008152600401612cfb90615944565b60405180910390fd5b5b6000600183604051612d1791906155f0565b908152602001604051809103902060010190506000805b8280549050811015612eef5783604051602001612d4b91906155f0565b60405160208183030381529060405280519060200120838281548110612d9a577f4e487b7100000000000000000000000000000000000000000000000000000000600052603260045260246000fd5b90600052602060002001604051602001612db49190615607565b604051602081830303815290604052805190602001201415612edc57600191508260018480549050612de69190615bc4565b81548110612e1d577f4e487b7100000000000000000000000000000000000000000000000000000000600052603260045260246000fd5b90600052602060002001838281548110612e60577f4e487b7100000000000000000000000000000000000000000000000000000000600052603260045260246000fd5b90600052602060002001908054612e7690615c50565b612e819291906149dd565b5082805480612eb9577f4e487b7100000000000000000000000000000000000000000000000000000000600052603160045260246000fd5b600190038181906000526020600020016000612ed5919061497c565b9055612eef565b8080612ee790615c82565b915050612d2e565b5060001515600560009054906101000a900460ff1615151415612f4d5780612f4c576040517f08c379a0000000000000000000000000000000000000000000000000000000008152600401612f4390615a64565b60405180910390fd5b5b82604051612f5b91906155f0565b60405180910390207ff48902b6ca97756a12ac8f65fb0fbcd8620f21cebec54393c1a3c1baca29500f8486604051612f949291906157a6565b60405180910390a283604051612faa91906155f0565b60405180910390207f5185a55227d2197d7d66b7de628b1cef8d3a8ea1a20809a31ae39453b61361858486604051612fe39291906157a6565b60405180910390a250505050565b600560019054906101000a900473ffffffffffffffffffffffffffffffffffffffff1673ffffffffffffffffffffffffffffffffffffffff163373ffffffffffffffffffffffffffffffffffffffff1614613081576040517f08c379a0000000000000000000000000000000000000000000000000000000008152600401613078906159a4565b60405180910390fd5b8060405161308f91906155f0565b60405180910390207f6d2522b0fa7d67bdab2f9971773f22a4e5f30a3a44cfdb04c82e8ebbd6f51b0e826040516130c69190615670565b60405180910390a250565b6000806000836040516130e491906155f0565b9081526020016040518091039020600001805461310090615c50565b9050119050919050565b600560019054906101000a900473ffffffffffffffffffffffffffffffffffffffff1673ffffffffffffffffffffffffffffffffffffffff163373ffffffffffffffffffffffffffffffffffffffff161461319a576040517f08c379a0000000000000000000000000000000000000000000000000000000008152600401613191906159a4565b60405180910390fd5b600080836040516131ab91906155f0565b908152602001604051809103902060070180546131c790615c50565b80601f01602080910402602001604051908101604052809291908181526020018280546131f390615c50565b80156132405780601f1061321557610100808354040283529160200191613240565b820191906000526020600020905b81548152906001019060200180831161322357829003601f168201915b505050505090508160008460405161325891906155f0565b9081526020016040518091039020600701908051906020019061327c929190614801565b508260405161328b91906155f0565b60405180910390207f4bf7adb7382a1159f4388abbdd1bc13a1a4c0075c70acbaeaf5b5fa612996f808483856040516132c69392919061588c565b60405180910390a2505050565b606080606080600560019054906101000a900473ffffffffffffffffffffffffffffffffffffffff1673ffffffffffffffffffffffffffffffffffffffff163373ffffffffffffffffffffffffffffffffffffffff1614613369576040517f08c379a0000000000000000000000000000000000000000000000000000000008152600401613360906159a4565b60405180910390fd5b600060018660405161337b91906155f0565b9081526020016040518091039020600001805461339790615c50565b9050116133d9576040517f08c379a00000000000000000000000000000000000000000000000000000000081526004016133d0906159e4565b60405180910390fd5b60006001866040516133eb91906155f0565b908152602001604051809103902060405180608001604052908160008201805461341490615c50565b80601f016020809104026020016040519081016040528092919081815260200182805461344090615c50565b801561348d5780601f106134625761010080835404028352916020019161348d565b820191906000526020600020905b81548152906001019060200180831161347057829003601f168201915b5050505050815260200160018201805480602002602001604051908101604052809291908181526020016000905b828210156135675783829060005260206000200180546134da90615c50565b80601f016020809104026020016040519081016040528092919081815260200182805461350690615c50565b80156135535780601f1061352857610100808354040283529160200191613553565b820191906000526020600020905b81548152906001019060200180831161353657829003601f168201915b5050505050815260200190600101906134bb565b50505050815260200160028201805480602002602001604051908101604052809291908181526020016000905b828210156136405783829060005260206000200180546135b390615c50565b80601f01602080910402602001604051908101604052809291908181526020018280546135df90615c50565b801561362c5780601f106136015761010080835404028352916020019161362c565b820191906000526020600020905b81548152906001019060200180831161360f57829003601f168201915b505050505081526020019060010190613594565b50505050815260200160038201805461365890615c50565b80601f016020809104026020016040519081016040528092919081815260200182805461368490615c50565b80156136d15780601f106136a6576101008083540402835291602001916136d1565b820191906000526020600020905b8154815290600101906020018083116136b457829003601f168201915b505050505081525050905080600001518160400151826020015183606001519450945094509450509193509193565b600560019054906101000a900473ffffffffffffffffffffffffffffffffffffffff1673ffffffffffffffffffffffffffffffffffffffff163373ffffffffffffffffffffffffffffffffffffffff1614613790576040517f08c379a0000000000000000000000000000000000000000000000000000000008152600401613787906159a4565b60405180910390fd5b604051806101000160405280858152602001848152602001838152602001828152602001828152602001600115158152602001604051806020016040528060008152508152602001604051806020016040528060008152508152506000856040516137fb91906155f0565b90815260200160405180910390206000820151816000019080519060200190613825929190614801565b506020820151816001019080519060200190613842929190614801565b50604082015181600201908051906020019061385f9291906147a1565b50606082015181600301908051906020019061387c929190614801565b506080820151816004019080519060200190613899929190614801565b5060a08201518160050160006101000a81548160ff02191690831515021790555060c08201518160060190805190602001906138d6929190614801565b5060e08201518160070190805190602001906138f3929190614801565b50905050600284908060018154018082558091505060019003906000526020600020016000909190919091509080519060200190613932929190614801565b506139726040518060400160405280600581526020017f557365727300000000000000000000000000000000000000000000000000000081525085613da4565b8360405161398091906155f0565b60405180910390207f996d7324173609959370942b1ee1b743dc623b3d50459e66c1d55df55e5a9f37856040516139b79190615670565b60405180910390a260016002805490501415613a2457613a0c6040518060400160405280600e81526020017f41646d696e6973747261746f727300000000000000000000000000000000000081525085613da4565b8360049080519060200190613a22929190614801565b505b50505050565b600560019054906101000a900473ffffffffffffffffffffffffffffffffffffffff1673ffffffffffffffffffffffffffffffffffffffff163373ffffffffffffffffffffffffffffffffffffffff1614613aba576040517f08c379a0000000000000000000000000000000000000000000000000000000008152600401613ab1906159a4565b60405180910390fd5b80600083604051613acb91906155f0565b90815260200160405180910390206001019080519060200190613aef929190614801565b5081604051613afe91906155f0565b60405180910390207f2e5be3910de361c407755aea981bf58449896a9b8b60b8679bb947d6a9ab628783604051613b359190615670565b60405180910390a25050565b600560019054906101000a900473ffffffffffffffffffffffffffffffffffffffff1673ffffffffffffffffffffffffffffffffffffffff163373ffffffffffffffffffffffffffffffffffffffff1614613bd1576040517f08c379a0000000000000000000000000000000000000000000000000000000008152600401613bc8906159a4565b60405180910390fd5b6040518060800160405280848152602001600067ffffffffffffffff811115613c23577f4e487b7100000000000000000000000000000000000000000000000000000000600052604160045260246000fd5b604051908082528060200260200182016040528015613c5657816020015b6060815260200190600190039081613c415790505b50815260200183815260200160405180602001604052806000815250815250600184604051613c8591906155f0565b90815260200160405180910390206000820151816000019080519060200190613caf929190614801565b506020820151816001019080519060200190613ccc9291906147a1565b506040820151816002019080519060200190613ce99291906147a1565b506060820151816003019080519060200190613d06929190614801565b50905050600383908060018154018082558091505060019003906000526020600020016000909190919091509080519060200190613d45929190614801565b5082604051613d5491906155f0565b60405180910390207fda8cb7463ba733d6194271d0978f8f3fe238ece9368518bf39f0a3ad9c21ea358484604051613d8d929190615692565b60405180910390a2613d9f8382610645565b505050565b600560019054906101000a900473ffffffffffffffffffffffffffffffffffffffff1673ffffffffffffffffffffffffffffffffffffffff163373ffffffffffffffffffffffffffffffffffffffff1614613e34576040517f08c379a0000000000000000000000000000000000000000000000000000000008152600401613e2b906159a4565b60405180910390fd5b6000600183604051613e4691906155f0565b90815260200160405180910390206000018054613e6290615c50565b905011613ea4576040517f08c379a0000000000000000000000000000000000000000000000000000000008152600401613e9b906159e4565b60405180910390fd5b60008082604051613eb591906155f0565b90815260200160405180910390206000018054613ed190615c50565b905011613f13576040517f08c379a0000000000000000000000000000000000000000000000000000000008152600401613f0a90615a44565b60405180910390fd5b600182604051613f2391906155f0565b908152602001604051809103902060010181908060018154018082558091505060019003906000526020600020016000909190919091509080519060200190613f6d929190614801565b5080604051613f7c91906155f0565b60405180910390207fb7baa76edd3a99d16b21483732a4faf53358ddb1a8e763c33e642188d081fb918284604051613fb59291906157a6565b60405180910390a281604051613fcb91906155f0565b60405180910390207f1c689139005cd3ee797c36342af9903d8c6ead9e1a454f9c3f89ab89a4ae9f5882846040516140049291906157a6565b60405180910390a25050565b60606000808360405161402391906155f0565b9081526020016040518091039020600001805461403f90615c50565b905011614081576040517f08c379a000000000000000000000000000000000000000000000000000000000815260040161407890615a44565b60405180910390fd5b600060038054905067ffffffffffffffff8111156140c8577f4e487b7100000000000000000000000000000000000000000000000000000000600052604160045260246000fd5b6040519080825280602002602001820160405280156140fb57816020015b60608152602001906001900390816140e65790505b5090506000805b60038054905081101561432b57600060016003838154811061414d577f4e487b7100000000000000000000000000000000000000000000000000000000600052603260045260246000fd5b906000526020600020016040516141649190615607565b9081526020016040518091039020905060005b8160010180549050811015614316578660405160200161419791906155f0565b604051602081830303815290604052805190602001208260010182815481106141e9577f4e487b7100000000000000000000000000000000000000000000000000000000600052603260045260246000fd5b906000526020600020016040516020016142039190615607565b6040516020818303038152906040528051906020012014156143035781600001805461422e90615c50565b80601f016020809104026020016040519081016040528092919081815260200182805461425a90615c50565b80156142a75780601f1061427c576101008083540402835291602001916142a7565b820191906000526020600020905b81548152906001019060200180831161428a57829003601f168201915b50505050508585815181106142e5577f4e487b7100000000000000000000000000000000000000000000000000000000600052603260045260246000fd5b602002602001018190525083806142fb90615c82565b945050614316565b808061430e90615c82565b915050614177565b5050808061432390615c82565b915050614102565b506000603267ffffffffffffffff81111561436f577f4e487b7100000000000000000000000000000000000000000000000000000000600052604160045260246000fd5b6040519080825280602002602001820160405280156143a257816020015b606081526020019060019003908161438d5790505b5090506000805b838110156146775760008582815181106143ec577f4e487b7100000000000000000000000000000000000000000000000000000000600052603260045260246000fd5b60200260200101519050600060018260405161440891906155f0565b9081526020016040518091039020600201905060005b8180549050811015614661576000805b868110156145285783838154811061446f577f4e487b7100000000000000000000000000000000000000000000000000000000600052603260045260246000fd5b906000526020600020016040516020016144899190615607565b604051602081830303815290604052805190602001208882815181106144d8577f4e487b7100000000000000000000000000000000000000000000000000000000600052603260045260246000fd5b60200260200101516040516020016144f091906155f0565b6040516020818303038152906040528051906020012014156145155760019150614528565b808061452090615c82565b91505061442e565b508061464d57828281548110614567577f4e487b7100000000000000000000000000000000000000000000000000000000600052603260045260246000fd5b90600052602060002001805461457c90615c50565b80601f01602080910402602001604051908101604052809291908181526020018280546145a890615c50565b80156145f55780601f106145ca576101008083540402835291602001916145f5565b820191906000526020600020905b8154815290600101906020018083116145d857829003601f168201915b5050505050878781518110614633577f4e487b7100000000000000000000000000000000000000000000000000000000600052603260045260246000fd5b6020026020010181905250858061464990615c82565b9650505b50808061465990615c82565b91505061441e565b505050808061466f90615c82565b9150506143a9565b5060008167ffffffffffffffff8111156146ba577f4e487b7100000000000000000000000000000000000000000000000000000000600052604160045260246000fd5b6040519080825280602002602001820160405280156146ed57816020015b60608152602001906001900390816146d85790505b50905060005b8281101561479357838181518110614734577f4e487b7100000000000000000000000000000000000000000000000000000000600052603260045260246000fd5b6020026020010151828281518110614775577f4e487b7100000000000000000000000000000000000000000000000000000000600052603260045260246000fd5b6020026020010181905250808061478b90615c82565b9150506146f3565b508095505050505050919050565b8280548282559060005260206000209081019282156147f0579160200282015b828111156147ef5782518290805190602001906147df929190614801565b50916020019190600101906147c1565b5b5090506147fd9190614a6a565b5090565b82805461480d90615c50565b90600052602060002090601f01602090048101928261482f5760008555614876565b82601f1061484857805160ff1916838001178555614876565b82800160010185558215614876579182015b8281111561487557825182559160200191906001019061485a565b5b5090506148839190614a8e565b5090565b82805461489390615c50565b90600052602060002090601f0160209004810192826148b55760008555614903565b82601f106148c65780548555614903565b8280016001018555821561490357600052602060002091601f016020900482015b828111156149025782548255916001019190600101906148e7565b5b5090506149109190614a8e565b5090565b82805482825590600052602060002090810192821561496b5760005260206000209182015b8281111561496a57828290805461494f90615c50565b61495a929190614887565b5091600101919060010190614939565b5b5090506149789190614a6a565b5090565b50805461498890615c50565b6000825580601f1061499a57506149b9565b601f0160209004906000526020600020908101906149b89190614a8e565b5b50565b50805460008255906000526020600020908101906149da9190614a6a565b50565b8280546149e990615c50565b90600052602060002090601f016020900481019282614a0b5760008555614a59565b82601f10614a1c5780548555614a59565b82800160010185558215614a5957600052602060002091601f016020900482015b82811115614a58578254825591600101919060010190614a3d565b5b509050614a669190614a8e565b5090565b5b80821115614a8a5760008181614a81919061497c565b50600101614a6b565b5090565b5b80821115614aa7576000816000905550600101614a8f565b5090565b6000614abe614ab984615ab5565b615a84565b9050808382526020820190508260005b85811015614afe5781358501614ae48882614b70565b845260208401935060208301925050600181019050614ace565b5050509392505050565b6000614b1b614b1684615ae1565b615a84565b905082815260208101848484011115614b3357600080fd5b614b3e848285615c0e565b509392505050565b600082601f830112614b5757600080fd5b8135614b67848260208601614aab565b91505092915050565b600082601f830112614b8157600080fd5b8135614b91848260208601614b08565b91505092915050565b600060208284031215614bac57600080fd5b600082013567ffffffffffffffff811115614bc657600080fd5b614bd284828501614b70565b91505092915050565b60008060408385031215614bee57600080fd5b600083013567ffffffffffffffff811115614c0857600080fd5b614c1485828601614b70565b925050602083013567ffffffffffffffff811115614c3157600080fd5b614c3d85828601614b46565b9150509250929050565b600080600060608486031215614c5c57600080fd5b600084013567ffffffffffffffff811115614c7657600080fd5b614c8286828701614b70565b935050602084013567ffffffffffffffff811115614c9f57600080fd5b614cab86828701614b46565b925050604084013567ffffffffffffffff811115614cc857600080fd5b614cd486828701614b70565b9150509250925092565b60008060408385031215614cf157600080fd5b600083013567ffffffffffffffff811115614d0b57600080fd5b614d1785828601614b70565b925050602083013567ffffffffffffffff811115614d3457600080fd5b614d4085828601614b70565b9150509250929050565b600080600060608486031215614d5f57600080fd5b600084013567ffffffffffffffff811115614d7957600080fd5b614d8586828701614b70565b935050602084013567ffffffffffffffff811115614da257600080fd5b614dae86828701614b70565b925050604084013567ffffffffffffffff811115614dcb57600080fd5b614dd786828701614b46565b9150509250925092565b60008060008060808587031215614df757600080fd5b600085013567ffffffffffffffff811115614e1157600080fd5b614e1d87828801614b70565b945050602085013567ffffffffffffffff811115614e3a57600080fd5b614e4687828801614b70565b935050604085013567ffffffffffffffff811115614e6357600080fd5b614e6f87828801614b46565b925050606085013567ffffffffffffffff811115614e8c57600080fd5b614e9887828801614b70565b91505092959194509250565b6000614eb08383614fc4565b905092915050565b6000614ec48383615067565b905092915050565b6000614ed782615b4b565b614ee18185615b86565b935083602082028501614ef385615b11565b8060005b85811015614f2f5784840389528151614f108582614ea4565b9450614f1b83615b6c565b925060208a01995050600181019050614ef7565b50829750879550505050505092915050565b6000614f4c82615b56565b614f568185615b86565b935083602082028501614f6885615b21565b8060005b85811015614fa357848403895281614f848582614eb8565b9450614f8f83615b79565b925060208a01995050600181019050614f6c565b50829750879550505050505092915050565b614fbe81615bf8565b82525050565b6000614fcf82615b61565b614fd98185615b97565b9350614fe9818560208601615c1d565b614ff281615d58565b840191505092915050565b600061500882615b61565b6150128185615ba8565b9350615022818560208601615c1d565b61502b81615d58565b840191505092915050565b600061504182615b61565b61504b8185615bb9565b935061505b818560208601615c1d565b80840191505092915050565b6000815461507481615c50565b61507e8186615b97565b9450600182166000811461509957600181146150ab576150de565b60ff19831686526020860193506150de565b6150b485615b36565b60005b838110156150d6578154818901526001820191506020810190506150b7565b808801955050505b50505092915050565b600081546150f481615c50565b6150fe8186615ba8565b94506001821660008114615119576001811461512b5761515e565b60ff198316865260208601935061515e565b61513485615b36565b60005b8381101561515657815481890152600182019150602081019050615137565b808801955050505b50505092915050565b6000815461517481615c50565b61517e8186615bb9565b9450600182166000811461519957600181146151aa576151dd565b60ff198316865281860193506151dd565b6151b385615b36565b60005b838110156151d5578154818901526001820191506020810190506151b6565b838801955050505b50505092915050565b60006151f3602083615ba8565b91507f47726f7570206e6f7420666f756e6420696e20616c6c47726f75704e616d65736000830152602082019050919050565b6000615233603383615ba8565b91507f52656d6f76696e672075736572732066726f6d2074686520557365727320677260008301527f6f7570206973206e6f7420616c6c6f77656421000000000000000000000000006020830152604082019050919050565b6000615299600583615bb9565b91507f55736572730000000000000000000000000000000000000000000000000000006000830152600582019050919050565b60006152d9602f83615ba8565b91507f4d6f64696679696e6720636f72652067726f7570207065726d697373696f6e7360008301527f206973206e6f7420616c6c6f77656400000000000000000000000000000000006020830152604082019050919050565b600061533f604283615ba8565b91507f44656c6574696e6720746865206f726967696e616c20736d61727420636f6e7460008301527f726163742061646d696e6973747261746f72206973206e6f7420616c6c6f776560208301527f64210000000000000000000000000000000000000000000000000000000000006040830152606082019050919050565b60006153cb602f83615ba8565b91507f4f6e6c792074686520636f6e7472616374206f776e65722063616e207065726660008301527f6f726d207468697320616374696f6e00000000000000000000000000000000006020830152604082019050919050565b6000615431603c83615ba8565b91507f4d6f64696679696e6720636f72652067726f7570206e616d657320616e642f6f60008301527f72207065726d697373696f6e73206973206e6f7420616c6c6f776564000000006020830152604082019050919050565b6000615497601483615ba8565b91507f47726f757020646f6573206e6f742065786973740000000000000000000000006000830152602082019050919050565b60006154d7602483615ba8565b91507f44656c6574696e67206120636f72652067726f7570206973206e6f7420616c6c60008301527f6f776564000000000000000000000000000000000000000000000000000000006020830152604082019050919050565b600061553d601483615ba8565b91507f5573657220646f6573206e6f74206578697374210000000000000000000000006000830152602082019050919050565b600061557d601383615ba8565b91507f5573657220646f6573206e6f74206578697374000000000000000000000000006000830152602082019050919050565b60006155bd601983615ba8565b91507f55736572206973206e6f7420696e20746869732067726f7570000000000000006000830152602082019050919050565b60006155fc8284615036565b915081905092915050565b60006156138284615167565b915081905092915050565b60006156298261528c565b9150819050919050565b6000602082019050818103600083015261564d8184614ecc565b905092915050565b600060208201905061566a6000830184614fb5565b92915050565b6000602082019050818103600083015261568a8184614ffd565b905092915050565b600060408201905081810360008301526156ac8185614ffd565b905081810360208301526156c08184614ecc565b90509392505050565b600060608201905081810360008301526156e38186614ffd565b905081810360208301526156f78185614ecc565b9050818103604083015261570b8184614ecc565b9050949350505050565b6000608082019050818103600083015261572f8187614ffd565b905081810360208301526157438186614ecc565b905081810360408301526157578185614ecc565b9050818103606083015261576b8184614ffd565b905095945050505050565b600060408201905081810360008301526157908185614ffd565b905061579f6020830184614fb5565b9392505050565b600060408201905081810360008301526157c08185614ffd565b905081810360208301526157d48184614ffd565b90509392505050565b60006101008201905081810360008301526157f8818b614ffd565b9050818103602083015261580c818a614ffd565b905081810360408301526158208189614ecc565b905081810360608301526158348188614ffd565b905081810360808301526158488187614ffd565b905061585760a0830186614fb5565b81810360c08301526158698185614ffd565b905081810360e083015261587d8184614ffd565b90509998505050505050505050565b600060608201905081810360008301526158a68186614ffd565b905081810360208301526158ba8185614ffd565b905081810360408301526158ce8184614ffd565b9050949350505050565b600060608201905081810360008301526158f281866150e7565b905081810360208301526159068185614ecc565b9050818103604083015261591a8184614f41565b9050949350505050565b6000602082019050818103600083015261593d816151e6565b9050919050565b6000602082019050818103600083015261595d81615226565b9050919050565b6000602082019050818103600083015261597d816152cc565b9050919050565b6000602082019050818103600083015261599d81615332565b9050919050565b600060208201905081810360008301526159bd816153be565b9050919050565b600060208201905081810360008301526159dd81615424565b9050919050565b600060208201905081810360008301526159fd8161548a565b9050919050565b60006020820190508181036000830152615a1d816154ca565b9050919050565b60006020820190508181036000830152615a3d81615530565b9050919050565b60006020820190508181036000830152615a5d81615570565b9050919050565b60006020820190508181036000830152615a7d816155b0565b9050919050565b6000604051905081810181811067ffffffffffffffff82111715615aab57615aaa615d29565b5b8060405250919050565b600067ffffffffffffffff821115615ad057615acf615d29565b5b602082029050602081019050919050565b600067ffffffffffffffff821115615afc57615afb615d29565b5b601f19601f8301169050602081019050919050565b6000819050602082019050919050565b60008190508160005260206000209050919050565b60008190508160005260206000209050919050565b600081519050919050565b600081549050919050565b600081519050919050565b6000602082019050919050565b6000600182019050919050565b600082825260208201905092915050565b600082825260208201905092915050565b600082825260208201905092915050565b600081905092915050565b6000615bcf82615c04565b9150615bda83615c04565b925082821015615bed57615bec615ccb565b5b828203905092915050565b60008115159050919050565b6000819050919050565b82818337600083830152505050565b60005b83811015615c3b578082015181840152602081019050615c20565b83811115615c4a576000848401525b50505050565b60006002820490506001821680615c6857607f821691505b60208210811415615c7c57615c7b615cfa565b5b50919050565b6000615c8d82615c04565b91507fffffffffffffffffffffffffffffffffffffffffffffffffffffffffffffffff821415615cc057615cbf615ccb565b5b600182019050919050565b7f4e487b7100000000000000000000000000000000000000000000000000000000600052601160045260246000fd5b7f4e487b7100000000000000000000000000000000000000000000000000000000600052602260045260246000fd5b7f4e487b7100000000000000000000000000000000000000000000000000000000600052604160045260246000fd5b6000601f19601f830116905091905056fea2646970667358221220f976605ba5b8bd00c0912f308a03570a5c70bb23cbfb839b6e346010ebb48a5464736f6c63430008000033",
  "linkReferences": {},
  "deployedLinkReferences": {}
}