{
  "_format": "hh-sol-artifact-1",
  "contractName": "FaceGuard",
  "sourceName": "contracts/FaceGuard.sol",
  "abi": [
    {
      "inputs": [],
      "stateMutability": "nonpayable",
      "type": "constructor"
    },
    {
      "anonymous": false,
      "inputs": [
        {
          "indexed": true,
          "internalType": "string",
          "name": "username",
          "type": "string"
        }
      ],
      "name": "FaceHashUpdated",
      "type": "event"
    },
    {
      "anonymous": false,
      "inputs": [
        {
          "indexed": true,
          "internalType": "string",
          "name": "groupName",
          "type": "string"
        },
        {
          "indexed": false,
          "internalType": "string[]",
          "name": "permissions",
          "type": "string[]"
        }
      ],
      "name": "GroupCreated",
      "type": "event"
    },
    {
      "anonymous": false,
      "inputs": [
        {
          "indexed": true,
          "internalType": "string",
          "name": "originalGroupName",
          "type": "string"
        },
        {
          "indexed": false,
          "internalType": "string",
          "name": "newGroupName",
          "type": "string"
        }
      ],
      "name": "GroupNameUpdated",
      "type": "event"
    },
    {
      "anonymous": false,
      "inputs": [
        {
          "indexed": true,
          "internalType": "string",
          "name": "groupName",
          "type": "string"
        },
        {
          "indexed": false,
          "internalType": "string[]",
          "name": "permissions",
          "type": "string[]"
        }
      ],
      "name": "GroupPermissionsUpdated",
      "type": "event"
    },
    {
      "anonymous": false,
      "inputs": [
        {
          "indexed": true,
          "internalType": "string",
          "name": "groupName",
          "type": "string"
        }
      ],
      "name": "GroupRemoved",
      "type": "event"
    },
    {
      "anonymous": false,
      "inputs": [
        {
          "indexed": true,
          "internalType": "string",
          "name": "username",
          "type": "string"
        }
      ],
      "name": "PasswordChangeRequired",
      "type": "event"
    },
    {
      "anonymous": false,
      "inputs": [
        {
          "indexed": true,
          "internalType": "string",
          "name": "username",
          "type": "string"
        }
      ],
      "name": "PasswordUpdated",
      "type": "event"
    },
    {
      "anonymous": false,
      "inputs": [
        {
          "indexed": true,
          "internalType": "string",
          "name": "username",
          "type": "string"
        },
        {
          "indexed": false,
          "internalType": "string",
          "name": "groupName",
          "type": "string"
        }
      ],
      "name": "UserAddedToGroup",
      "type": "event"
    },
    {
      "anonymous": false,
      "inputs": [
        {
          "indexed": true,
          "internalType": "string",
          "name": "username",
          "type": "string"
        },
        {
          "indexed": false,
          "internalType": "string",
          "name": "oldEmail",
          "type": "string"
        },
        {
          "indexed": false,
          "internalType": "string",
          "name": "newEmail",
          "type": "string"
        }
      ],
      "name": "UserEmailUpdated",
      "type": "event"
    },
    {
      "anonymous": false,
      "inputs": [
        {
          "indexed": true,
          "internalType": "string",
          "name": "username",
          "type": "string"
        },
        {
          "indexed": false,
          "internalType": "string",
          "name": "oldFullName",
          "type": "string"
        },
        {
          "indexed": false,
          "internalType": "string",
          "name": "newFullName",
          "type": "string"
        }
      ],
      "name": "UserFullNameUpdated",
      "type": "event"
    },
    {
      "anonymous": false,
      "inputs": [
        {
          "indexed": true,
          "internalType": "string",
          "name": "username",
          "type": "string"
        }
      ],
      "name": "UserLoggedIn",
      "type": "event"
    },
    {
      "anonymous": false,
      "inputs": [
        {
          "indexed": true,
          "internalType": "string",
          "name": "username",
          "type": "string"
        }
      ],
      "name": "UserRegistered",
      "type": "event"
    },
    {
      "anonymous": false,
      "inputs": [
        {
          "indexed": true,
          "internalType": "string",
          "name": "username",
          "type": "string"
        },
        {
          "indexed": false,
          "internalType": "string",
          "name": "groupName",
          "type": "string"
        }
      ],
      "name": "UserRemovedFromGroup",
      "type": "event"
    },
    {
      "anonymous": false,
      "inputs": [
        {
          "indexed": true,
          "internalType": "string",
          "name": "username",
          "type": "string"
        },
        {
          "indexed": false,
          "internalType": "bool",
          "name": "enabled",
          "type": "bool"
        }
      ],
      "name": "UserToggled",
      "type": "event"
    },
    {
      "inputs": [
        {
          "internalType": "string",
          "name": "groupName",
          "type": "string"
        },
        {
          "internalType": "string",
          "name": "username",
          "type": "string"
        }
      ],
      "name": "addUserToGroup",
      "outputs": [],
      "stateMutability": "nonpayable",
      "type": "function"
    },
    {
      "inputs": [
        {
          "internalType": "string",
          "name": "username",
          "type": "string"
        }
      ],
      "name": "checkIfUserExists",
      "outputs": [
        {
          "internalType": "bool",
          "name": "",
          "type": "bool"
        }
      ],
      "stateMutability": "view",
      "type": "function"
    },
    {
      "inputs": [
        {
          "internalType": "string",
          "name": "groupName",
          "type": "string"
        },
        {
          "internalType": "string[]",
          "name": "permissions",
          "type": "string[]"
        }
      ],
      "name": "createGroup",
      "outputs": [],
      "stateMutability": "nonpayable",
      "type": "function"
    },
    {
      "inputs": [
        {
          "internalType": "string",
          "name": "username",
          "type": "string"
        }
      ],
      "name": "emitLoginSuccessLog",
      "outputs": [],
      "stateMutability": "nonpayable",
      "type": "function"
    },
    {
      "inputs": [],
      "name": "getAllGroups",
      "outputs": [
        {
          "internalType": "string[]",
          "name": "",
          "type": "string[]"
        }
      ],
      "stateMutability": "view",
      "type": "function"
    },
    {
      "inputs": [],
      "name": "getAllUsernames",
      "outputs": [
        {
          "internalType": "string[]",
          "name": "",
          "type": "string[]"
        }
      ],
      "stateMutability": "view",
      "type": "function"
    },
    {
      "inputs": [
        {
          "internalType": "string",
          "name": "groupName",
          "type": "string"
        }
      ],
      "name": "getGroup",
      "outputs": [
        {
          "internalType": "string",
          "name": "",
          "type": "string"
        },
        {
          "internalType": "string[]",
          "name": "",
          "type": "string[]"
        },
        {
          "internalType": "string[]",
          "name": "",
          "type": "string[]"
        }
      ],
      "stateMutability": "view",
      "type": "function"
    },
    {
      "inputs": [
        {
          "internalType": "string",
          "name": "username",
          "type": "string"
        }
      ],
      "name": "getUser",
      "outputs": [
        {
          "internalType": "string",
          "name": "",
          "type": "string"
        },
        {
          "internalType": "string",
          "name": "",
          "type": "string"
        },
        {
          "internalType": "string[]",
          "name": "",
          "type": "string[]"
        },
        {
          "internalType": "string",
          "name": "",
          "type": "string"
        },
        {
          "internalType": "string",
          "name": "",
          "type": "string"
        },
        {
          "internalType": "bool",
          "name": "",
          "type": "bool"
        },
        {
          "internalType": "bool",
          "name": "",
          "type": "bool"
        },
        {
          "internalType": "string",
          "name": "",
          "type": "string"
        },
        {
          "internalType": "string",
          "name": "",
          "type": "string"
        }
      ],
      "stateMutability": "view",
      "type": "function"
    },
    {
      "inputs": [
        {
          "internalType": "string",
          "name": "username",
          "type": "string"
        }
      ],
      "name": "getUserFaceHashes",
      "outputs": [
        {
          "internalType": "string[]",
          "name": "",
          "type": "string[]"
        }
      ],
      "stateMutability": "view",
      "type": "function"
    },
    {
      "inputs": [
        {
          "internalType": "string",
          "name": "username",
          "type": "string"
        }
      ],
      "name": "getUserPermissions",
      "outputs": [
        {
          "internalType": "string[]",
          "name": "",
          "type": "string[]"
        }
      ],
      "stateMutability": "view",
      "type": "function"
    },
    {
      "inputs": [
        {
          "internalType": "string",
          "name": "username",
          "type": "string"
        },
        {
          "internalType": "string",
          "name": "passwordHash",
          "type": "string"
        },
        {
          "internalType": "string[]",
          "name": "initialFaceHashes",
          "type": "string[]"
        },
        {
          "internalType": "string",
          "name": "creationDate",
          "type": "string"
        }
      ],
      "name": "registerUser",
      "outputs": [],
      "stateMutability": "nonpayable",
      "type": "function"
    },
    {
      "inputs": [
        {
          "internalType": "string",
          "name": "groupName",
          "type": "string"
        }
      ],
      "name": "removeGroup",
      "outputs": [],
      "stateMutability": "nonpayable",
      "type": "function"
    },
    {
      "inputs": [
        {
          "internalType": "string",
          "name": "groupName",
          "type": "string"
        },
        {
          "internalType": "string",
          "name": "username",
          "type": "string"
        }
      ],
      "name": "removeUserFromGroup",
      "outputs": [],
      "stateMutability": "nonpayable",
      "type": "function"
    },
    {
      "inputs": [
        {
          "internalType": "string",
          "name": "username",
          "type": "string"
        }
      ],
      "name": "requireUserPasswordChange",
      "outputs": [],
      "stateMutability": "nonpayable",
      "type": "function"
    },
    {
      "inputs": [
        {
          "internalType": "string",
          "name": "groupName",
          "type": "string"
        },
        {
          "internalType": "string[]",
          "name": "groupPermissions",
          "type": "string[]"
        }
      ],
      "name": "setGroupPermissions",
      "outputs": [
        {
          "internalType": "string",
          "name": "",
          "type": "string"
        }
      ],
      "stateMutability": "nonpayable",
      "type": "function"
    },
    {
      "inputs": [
        {
          "internalType": "string",
          "name": "username",
          "type": "string"
        }
      ],
      "name": "toggleUser",
      "outputs": [],
      "stateMutability": "nonpayable",
      "type": "function"
    },
    {
      "inputs": [
        {
          "internalType": "string",
          "name": "originalGroupName",
          "type": "string"
        },
        {
          "internalType": "string",
          "name": "newGroupName",
          "type": "string"
        },
        {
          "internalType": "string[]",
          "name": "newPermissions",
          "type": "string[]"
        }
      ],
      "name": "updateGroup",
      "outputs": [],
      "stateMutability": "nonpayable",
      "type": "function"
    },
    {
      "inputs": [
        {
          "internalType": "string",
          "name": "username",
          "type": "string"
        },
        {
          "internalType": "string",
          "name": "newEmail",
          "type": "string"
        }
      ],
      "name": "updateUserEmail",
      "outputs": [],
      "stateMutability": "nonpayable",
      "type": "function"
    },
    {
      "inputs": [
        {
          "internalType": "string",
          "name": "username",
          "type": "string"
        },
        {
          "internalType": "string[]",
          "name": "newFaceHashes",
          "type": "string[]"
        }
      ],
      "name": "updateUserFaceHash",
      "outputs": [],
      "stateMutability": "nonpayable",
      "type": "function"
    },
    {
      "inputs": [
        {
          "internalType": "string",
          "name": "username",
          "type": "string"
        },
        {
          "internalType": "string",
          "name": "newFullName",
          "type": "string"
        }
      ],
      "name": "updateUserFullName",
      "outputs": [],
      "stateMutability": "nonpayable",
      "type": "function"
    },
    {
      "inputs": [
        {
          "internalType": "string",
          "name": "username",
          "type": "string"
        },
        {
          "internalType": "string",
          "name": "newPasswordHash",
          "type": "string"
        }
      ],
      "name": "updateUserPassword",
      "outputs": [],
      "stateMutability": "nonpayable",
      "type": "function"
    }
  ],
  "bytecode": "0x60806040523480156200001157600080fd5b5033600460006101000a81548173ffffffffffffffffffffffffffffffffffffffff021916908373ffffffffffffffffffffffffffffffffffffffff160217905550600060405180608001604052806040518060400160405280601581526020017f466163654775617264204372656174653a20416c6c000000000000000000000081525081526020016040518060400160405280601381526020017f46616365477561726420526561643a20416c6c0000000000000000000000000081525081526020016040518060400160405280601581526020017f466163654775617264205570646174653a20416c6c000000000000000000000081525081526020016040518060400160405280601581526020017f4661636547756172642044656c6574653a20416c6c00000000000000000000008152508152509050600060405180606001604052806040518060400160405280601481526020017f46616365477561726420526561643a2053656c6600000000000000000000000081525081526020016040518060400160405280601681526020017f466163654775617264205570646174653a2053656c660000000000000000000081525081526020016040518060400160405280601681526020017f4661636547756172642044656c6574653a2053656c66000000000000000000008152508152509050600060405180608001604052806040518060400160405280601881526020017f466163654775617264204372656174653a2047726f757073000000000000000081525081526020016040518060400160405280601681526020017f46616365477561726420526561643a2047726f7570730000000000000000000081525081526020016040518060400160405280601881526020017f466163654775617264205570646174653a2047726f757073000000000000000081525081526020016040518060400160405280601881526020017f4661636547756172642044656c6574653a2047726f75707300000000000000008152508152509050600060405180608001604052806040518060400160405280601781526020017f466163654775617264204372656174653a20557365727300000000000000000081525081526020016040518060400160405280601581526020017f46616365477561726420526561643a205573657273000000000000000000000081525081526020016040518060400160405280601781526020017f466163654775617264205570646174653a20557365727300000000000000000081525081526020016040518060400160405280601781526020017f4661636547756172642044656c6574653a2055736572730000000000000000008152508152509050620004536040518060400160405280600e81526020017f41646d696e6973747261746f727300000000000000000000000000000000000081525062000447866200056260201b60201c565b6200069160201b60201c565b620004aa6040518060400160405280600581526020017f55736572730000000000000000000000000000000000000000000000000000008152506200049e85620008c960201b60201c565b6200069160201b60201c565b620005016040518060400160405280600e81526020017f47726f7570204d616e6167657273000000000000000000000000000000000000815250620004f5846200056260201b60201c565b6200069160201b60201c565b620005586040518060400160405280600d81526020017f55736572204d616e6167657273000000000000000000000000000000000000008152506200054c836200056260201b60201c565b6200069160201b60201c565b5050505062000ef7565b60606000600467ffffffffffffffff811115620005a8577f4e487b7100000000000000000000000000000000000000000000000000000000600052604160045260246000fd5b604051908082528060200260200182016040528015620005dd57816020015b6060815260200190600190039081620005c75790505b50905060005b6004811015620006875783816004811062000627577f4e487b7100000000000000000000000000000000000000000000000000000000600052603260045260246000fd5b602002015182828151811062000666577f4e487b7100000000000000000000000000000000000000000000000000000000600052603260045260246000fd5b602002602001018190525080806200067e9062000e3a565b915050620005e3565b5080915050919050565b600460009054906101000a900473ffffffffffffffffffffffffffffffffffffffff1673ffffffffffffffffffffffffffffffffffffffff163373ffffffffffffffffffffffffffffffffffffffff161462000724576040517f08c379a00000000000000000000000000000000000000000000000000000000081526004016200071b9062000d31565b60405180910390fd5b6040518060600160405280838152602001600067ffffffffffffffff81111562000777577f4e487b7100000000000000000000000000000000000000000000000000000000600052604160045260246000fd5b604051908082528060200260200182016040528015620007ac57816020015b6060815260200190600190039081620007965790505b50815260200182815250600183604051620007c8919062000cf4565b90815260200160405180910390206000820151816000019080519060200190620007f4929190620009f8565b5060208201518160010190805190602001906200081392919062000a89565b5060408201518160020190805190602001906200083292919062000a89565b5090505060038290806001815401808255809150506001900390600052602060002001600090919091909150908051906020019062000873929190620009f8565b508160405162000884919062000cf4565b60405180910390207f64e45d769b067e3e2de0a2fbfa982b75ad4472af64e84e1c421ec5bbe695de0f82604051620008bd919062000d0d565b60405180910390a25050565b60606000600367ffffffffffffffff8111156200090f577f4e487b7100000000000000000000000000000000000000000000000000000000600052604160045260246000fd5b6040519080825280602002602001820160405280156200094457816020015b60608152602001906001900390816200092e5790505b50905060005b6003811015620009ee578381600381106200098e577f4e487b7100000000000000000000000000000000000000000000000000000000600052603260045260246000fd5b6020020151828281518110620009cd577f4e487b7100000000000000000000000000000000000000000000000000000000600052603260045260246000fd5b60200260200101819052508080620009e59062000e3a565b9150506200094a565b5080915050919050565b82805462000a069062000e04565b90600052602060002090601f01602090048101928262000a2a576000855562000a76565b82601f1062000a4557805160ff191683800117855562000a76565b8280016001018555821562000a76579182015b8281111562000a7557825182559160200191906001019062000a58565b5b50905062000a85919062000af0565b5090565b82805482825590600052602060002090810192821562000add579160200282015b8281111562000adc57825182908051906020019062000acb929190620009f8565b509160200191906001019062000aaa565b5b50905062000aec919062000b0f565b5090565b5b8082111562000b0b57600081600090555060010162000af1565b5090565b5b8082111562000b33576000818162000b29919062000b37565b5060010162000b10565b5090565b50805462000b459062000e04565b6000825580601f1062000b59575062000b7a565b601f01602090049060005260206000209081019062000b79919062000af0565b5b50565b600062000b8b838362000c14565b905092915050565b600062000ba08262000d63565b62000bac818562000d86565b93508360208202850162000bc08562000d53565b8060005b8581101562000c02578484038952815162000be0858262000b7d565b945062000bed8362000d79565b925060208a0199505060018101905062000bc4565b50829750879550505050505092915050565b600062000c218262000d6e565b62000c2d818562000d97565b935062000c3f81856020860162000dce565b62000c4a8162000ee6565b840191505092915050565b600062000c628262000d6e565b62000c6e818562000db9565b935062000c8081856020860162000dce565b80840191505092915050565b600062000c9b602f8362000da8565b91507f4f6e6c792074686520636f6e7472616374206f776e65722063616e207065726660008301527f6f726d207468697320616374696f6e00000000000000000000000000000000006020830152604082019050919050565b600062000d02828462000c55565b915081905092915050565b6000602082019050818103600083015262000d29818462000b93565b905092915050565b6000602082019050818103600083015262000d4c8162000c8c565b9050919050565b6000819050602082019050919050565b600081519050919050565b600081519050919050565b6000602082019050919050565b600082825260208201905092915050565b600082825260208201905092915050565b600082825260208201905092915050565b600081905092915050565b6000819050919050565b60005b8381101562000dee57808201518184015260208101905062000dd1565b8381111562000dfe576000848401525b50505050565b6000600282049050600182168062000e1d57607f821691505b6020821081141562000e345762000e3362000eb7565b5b50919050565b600062000e478262000dc4565b91507fffffffffffffffffffffffffffffffffffffffffffffffffffffffffffffffff82141562000e7d5762000e7c62000e88565b5b600182019050919050565b7f4e487b7100000000000000000000000000000000000000000000000000000000600052601160045260246000fd5b7f4e487b7100000000000000000000000000000000000000000000000000000000600052602260045260246000fd5b6000601f19601f8301169050919050565b614c678062000f076000396000f3fe608060405234801561001057600080fd5b50600436106101375760003560e01c806367753ba1116100b8578063abef281e1161007c578063abef281e1461033c578063b9e6facb1461036e578063c91bc46c1461038a578063e537cac7146103a6578063ecb5a4d5146103c2578063ee1c55da146103de57610137565b806367753ba11461029c5780636b228cde146102b85780636cad1934146102d45780637c77f39f146103045780638a0bd86b1461032057610137565b806331feb671116100ff57806331feb671146101f25780635108c3ab1461022a57806353620375146102465780635b9a6b1d146102645780636246b3101461028057610137565b806303df9e921461013c5780631ae7f10a1461015857806321cd3cae14610188578063266c1bab146101a65780632d09d9e9146101c2575b600080fd5b61015660048036038101906101519190613fdc565b61040e565b005b610172600480360381019061016d9190613fdc565b61051a565b60405161017f9190614729565b60405180910390f35b610190610977565b60405161019d91906146ca565b60405180910390f35b6101c060048036038101906101bb9190614048565b610a50565b005b6101dc60048036038101906101d79190613f9b565b610c17565b6040516101e991906146ca565b60405180910390f35b61020c60048036038101906102079190613f9b565b610d11565b604051610221999897969594939291906147ce565b60405180910390f35b610244600480360381019061023f9190613f9b565b611231565b005b61024e6113a7565b60405161025b91906146ca565b60405180910390f35b61027e600480360381019061027991906140b4565b611480565b005b61029a60048036038101906102959190613f9b565b611a44565b005b6102b660048036038101906102b19190614048565b611fcd565b005b6102d260048036038101906102cd9190613f9b565b6123ba565b005b6102ee60048036038101906102e99190613f9b565b61248f565b6040516102fb919061470e565b60405180910390f35b61031e60048036038101906103199190613fdc565b6124c8565b005b61033a60048036038101906103359190614048565b6126ec565b005b61035660048036038101906103519190613f9b565b6128b3565b6040516103659392919061474b565b60405180910390f35b6103886004803603810190610383919061414b565b612c46565b005b6103a4600480360381019061039f9190614048565b612fa2565b005b6103c060048036038101906103bb9190613f9b565b6130e7565b005b6103dc60048036038101906103d79190614048565b6131f6565b005b6103f860048036038101906103f39190613f9b565b613411565b60405161040591906146ca565b60405180910390f35b600460009054906101000a900473ffffffffffffffffffffffffffffffffffffffff1673ffffffffffffffffffffffffffffffffffffffff163373ffffffffffffffffffffffffffffffffffffffff161461049e576040517f08c379a0000000000000000000000000000000000000000000000000000000008152600401610495906148cc565b60405180910390fd5b806000836040516104af919061469c565b908152602001604051809103902060020190805190602001906104d3929190613ba2565b50816040516104e2919061469c565b60405180910390207feb1060ec96e942d51b0f7b8b00c334c5c6da57c48f5ef56937468d28d0ee347a60405160405180910390a25050565b6060600460009054906101000a900473ffffffffffffffffffffffffffffffffffffffff1673ffffffffffffffffffffffffffffffffffffffff163373ffffffffffffffffffffffffffffffffffffffff16146105ac576040517f08c379a00000000000000000000000000000000000000000000000000000000081526004016105a3906148cc565b60405180910390fd5b60006001846040516105be919061469c565b908152602001604051809103902060000180546105da90614b18565b90501161061c576040517f08c379a0000000000000000000000000000000000000000000000000000000008152600401610613906148ec565b60405180910390fd5b600060405180608001604052806040518060400160405280600e81526020017f41646d696e6973747261746f727300000000000000000000000000000000000081525081526020016040518060400160405280600581526020017f557365727300000000000000000000000000000000000000000000000000000081525081526020016040518060400160405280600e81526020017f47726f7570204d616e616765727300000000000000000000000000000000000081525081526020016040518060400160405280600d81526020017f55736572204d616e616765727300000000000000000000000000000000000000815250815250905060005b60048110156108005781816004811061075a577f4e487b7100000000000000000000000000000000000000000000000000000000600052603260045260246000fd5b602002015160405160200161076f919061469c565b6040516020818303038152906040528051906020012085604051602001610796919061469c565b6040516020818303038152906040528051906020012014156107ed576040517f08c379a00000000000000000000000000000000000000000000000000000000081526004016107e4906148ac565b60405180910390fd5b80806107f890614b4a565b915050610718565b5082600185604051610812919061469c565b90815260200160405180910390206002019080519060200190610836929190613ba2565b50600184604051610847919061469c565b908152602001604051809103902060000160405161086591906146b3565b60405180910390207f65d29756900166ea1a95042b775077b9e0c4b52e2ad303784b8fc75584de59ef60018660405161089e919061469c565b90815260200160405180910390206002016040516108bc91906146ec565b60405180910390a26001846040516108d4919061469c565b908152602001604051809103902060000180546108f090614b18565b80601f016020809104026020016040519081016040528092919081815260200182805461091c90614b18565b80156109695780601f1061093e57610100808354040283529160200191610969565b820191906000526020600020905b81548152906001019060200180831161094c57829003601f168201915b505050505091505092915050565b60606003805480602002602001604051908101604052809291908181526020016000905b82821015610a475783829060005260206000200180546109ba90614b18565b80601f01602080910402602001604051908101604052809291908181526020018280546109e690614b18565b8015610a335780601f10610a0857610100808354040283529160200191610a33565b820191906000526020600020905b815481529060010190602001808311610a1657829003601f168201915b50505050508152602001906001019061099b565b50505050905090565b600460009054906101000a900473ffffffffffffffffffffffffffffffffffffffff1673ffffffffffffffffffffffffffffffffffffffff163373ffffffffffffffffffffffffffffffffffffffff1614610ae0576040517f08c379a0000000000000000000000000000000000000000000000000000000008152600401610ad7906148cc565b60405180910390fd5b60008083604051610af1919061469c565b90815260200160405180910390206006018054610b0d90614b18565b80601f0160208091040260200160405190810160405280929190818152602001828054610b3990614b18565b8015610b865780601f10610b5b57610100808354040283529160200191610b86565b820191906000526020600020905b815481529060010190602001808311610b6957829003601f168201915b5050505050905081600084604051610b9e919061469c565b90815260200160405180910390206006019080519060200190610bc2929190613c02565b5082604051610bd1919061469c565b60405180910390207fcc1535b390217134b99857a8888766bbd62b45e9c4ee9436c1f1471790825f138284604051610c0a929190614797565b60405180910390a2505050565b6060600082604051610c29919061469c565b9081526020016040518091039020600201805480602002602001604051908101604052809291908181526020016000905b82821015610d06578382906000526020600020018054610c7990614b18565b80601f0160208091040260200160405190810160405280929190818152602001828054610ca590614b18565b8015610cf25780601f10610cc757610100808354040283529160200191610cf2565b820191906000526020600020905b815481529060010190602001808311610cd557829003601f168201915b505050505081526020019060010190610c5a565b505050509050919050565b60608060608060606000806060806000808b604051610d30919061469c565b908152602001604051809103902060405180610140016040529081600082018054610d5a90614b18565b80601f0160208091040260200160405190810160405280929190818152602001828054610d8690614b18565b8015610dd35780601f10610da857610100808354040283529160200191610dd3565b820191906000526020600020905b815481529060010190602001808311610db657829003601f168201915b50505050508152602001600182018054610dec90614b18565b80601f0160208091040260200160405190810160405280929190818152602001828054610e1890614b18565b8015610e655780601f10610e3a57610100808354040283529160200191610e65565b820191906000526020600020905b815481529060010190602001808311610e4857829003601f168201915b5050505050815260200160028201805480602002602001604051908101604052809291908181526020016000905b82821015610f3f578382906000526020600020018054610eb290614b18565b80601f0160208091040260200160405190810160405280929190818152602001828054610ede90614b18565b8015610f2b5780601f10610f0057610100808354040283529160200191610f2b565b820191906000526020600020905b815481529060010190602001808311610f0e57829003601f168201915b505050505081526020019060010190610e93565b505050508152602001600382018054610f5790614b18565b80601f0160208091040260200160405190810160405280929190818152602001828054610f8390614b18565b8015610fd05780601f10610fa557610100808354040283529160200191610fd0565b820191906000526020600020905b815481529060010190602001808311610fb357829003601f168201915b50505050508152602001600482018054610fe990614b18565b80601f016020809104026020016040519081016040528092919081815260200182805461101590614b18565b80156110625780601f1061103757610100808354040283529160200191611062565b820191906000526020600020905b81548152906001019060200180831161104557829003601f168201915b505050505081526020016005820160009054906101000a900460ff161515151581526020016005820160019054906101000a900460ff161515151581526020016005820160029054906101000a900460ff161515151581526020016006820180546110cc90614b18565b80601f01602080910402602001604051908101604052809291908181526020018280546110f890614b18565b80156111455780601f1061111a57610100808354040283529160200191611145565b820191906000526020600020905b81548152906001019060200180831161112857829003601f168201915b5050505050815260200160078201805461115e90614b18565b80601f016020809104026020016040519081016040528092919081815260200182805461118a90614b18565b80156111d75780601f106111ac576101008083540402835291602001916111d7565b820191906000526020600020905b8154815290600101906020018083116111ba57829003601f168201915b5050505050815250509050806000015181602001518260400151836060015184608001518560a001518660e00151876101000151886101200151995099509950995099509950995099509950509193959799909294969850565b600460009054906101000a900473ffffffffffffffffffffffffffffffffffffffff1673ffffffffffffffffffffffffffffffffffffffff163373ffffffffffffffffffffffffffffffffffffffff16146112c1576040517f08c379a00000000000000000000000000000000000000000000000000000000081526004016112b8906148cc565b60405180910390fd5b6000816040516112d1919061469c565b908152602001604051809103902060050160029054906101000a900460ff1615600082604051611301919061469c565b908152602001604051809103902060050160026101000a81548160ff02191690831515021790555080604051611337919061469c565b60405180910390207f9b1a1e5131c18ee5fd8454b3b435b1b36127bd0c05686d9fc6190d638bcb1499600083604051611370919061469c565b908152602001604051809103902060050160029054906101000a900460ff1660405161139c919061470e565b60405180910390a250565b60606002805480602002602001604051908101604052809291908181526020016000905b828210156114775783829060005260206000200180546113ea90614b18565b80601f016020809104026020016040519081016040528092919081815260200182805461141690614b18565b80156114635780601f1061143857610100808354040283529160200191611463565b820191906000526020600020905b81548152906001019060200180831161144657829003601f168201915b5050505050815260200190600101906113cb565b50505050905090565b600460009054906101000a900473ffffffffffffffffffffffffffffffffffffffff1673ffffffffffffffffffffffffffffffffffffffff163373ffffffffffffffffffffffffffffffffffffffff1614611510576040517f08c379a0000000000000000000000000000000000000000000000000000000008152600401611507906148cc565b60405180910390fd5b6000600184604051611522919061469c565b9081526020016040518091039020600001805461153e90614b18565b905011611580576040517f08c379a0000000000000000000000000000000000000000000000000000000008152600401611577906148ec565b60405180910390fd5b600060405180608001604052806040518060400160405280600e81526020017f41646d696e6973747261746f727300000000000000000000000000000000000081525081526020016040518060400160405280600581526020017f557365727300000000000000000000000000000000000000000000000000000081525081526020016040518060400160405280600e81526020017f47726f7570204d616e616765727300000000000000000000000000000000000081525081526020016040518060400160405280600d81526020017f55736572204d616e616765727300000000000000000000000000000000000000815250815250905060005b6004811015611764578181600481106116be577f4e487b7100000000000000000000000000000000000000000000000000000000600052603260045260246000fd5b60200201516040516020016116d3919061469c565b60405160208183030381529060405280519060200120856040516020016116fa919061469c565b604051602081830303815290604052805190602001201415611751576040517f08c379a0000000000000000000000000000000000000000000000000000000008152600401611748906148ac565b60405180910390fd5b808061175c90614b4a565b91505061167c565b5061176f848361051a565b5082604051602001611781919061469c565b60405160208183030381529060405280519060200120846040516020016117a8919061469c565b6040516020818303038152906040528051906020012014611a3e576001846040516117d3919061469c565b90815260200160405180910390206001846040516117f1919061469c565b9081526020016040518091039020600082018160000190805461181390614b18565b61181e929190613c88565b506001820181600101908054611835929190613d15565b50600282018160020190805461184c929190613d15565b5090505082600184604051611861919061469c565b90815260200160405180910390206000019080519060200190611885929190613c02565b50600184604051611896919061469c565b9081526020016040518091039020600080820160006118b59190613d7d565b6001820160006118c59190613dbd565b6002820160006118d59190613dbd565b505060005b6003805490508110156119ef57846040516020016118f8919061469c565b6040516020818303038152906040528051906020012060038281548110611948577f4e487b7100000000000000000000000000000000000000000000000000000000600052603260045260246000fd5b9060005260206000200160405160200161196291906146b3565b6040516020818303038152906040528051906020012014156119dc5783600382815481106119b9577f4e487b7100000000000000000000000000000000000000000000000000000000600052603260045260246000fd5b9060005260206000200190805190602001906119d6929190613c02565b506119ef565b80806119e790614b4a565b9150506118da565b50836040516119fe919061469c565b60405180910390207f364b226b5f086e2e247d242241146270270074b8e63461b564298285dfdb087884604051611a359190614729565b60405180910390a25b50505050565b600460009054906101000a900473ffffffffffffffffffffffffffffffffffffffff1673ffffffffffffffffffffffffffffffffffffffff163373ffffffffffffffffffffffffffffffffffffffff1614611ad4576040517f08c379a0000000000000000000000000000000000000000000000000000000008152600401611acb906148cc565b60405180910390fd5b6000600182604051611ae6919061469c565b90815260200160405180910390206000018054611b0290614b18565b905011611b44576040517f08c379a0000000000000000000000000000000000000000000000000000000008152600401611b3b906148ec565b60405180910390fd5b600060405180608001604052806040518060400160405280600e81526020017f41646d696e6973747261746f727300000000000000000000000000000000000081525081526020016040518060400160405280600581526020017f557365727300000000000000000000000000000000000000000000000000000081525081526020016040518060400160405280600e81526020017f47726f7570204d616e616765727300000000000000000000000000000000000081525081526020016040518060400160405280600d81526020017f55736572204d616e616765727300000000000000000000000000000000000000815250815250905060005b6004811015611d2857818160048110611c82577f4e487b7100000000000000000000000000000000000000000000000000000000600052603260045260246000fd5b6020020151604051602001611c97919061469c565b6040516020818303038152906040528051906020012083604051602001611cbe919061469c565b604051602081830303815290604052805190602001201415611d15576040517f08c379a0000000000000000000000000000000000000000000000000000000008152600401611d0c906148ac565b60405180910390fd5b8080611d2090614b4a565b915050611c40565b50600182604051611d39919061469c565b908152602001604051809103902060008082016000611d589190613d7d565b600182016000611d689190613dbd565b600282016000611d789190613dbd565b50506000805b600380549050811015611f455783604051602001611d9c919061469c565b6040516020818303038152906040528051906020012060038281548110611dec577f4e487b7100000000000000000000000000000000000000000000000000000000600052603260045260246000fd5b90600052602060002001604051602001611e0691906146b3565b604051602081830303815290604052805190602001201415611f32576001915060036001600380549050611e3a9190614a8c565b81548110611e71577f4e487b7100000000000000000000000000000000000000000000000000000000600052603260045260246000fd5b9060005260206000200160038281548110611eb5577f4e487b7100000000000000000000000000000000000000000000000000000000600052603260045260246000fd5b90600052602060002001908054611ecb90614b18565b611ed6929190613dde565b506003805480611f0f577f4e487b7100000000000000000000000000000000000000000000000000000000600052603160045260246000fd5b600190038181906000526020600020016000611f2b9190613d7d565b9055611f45565b8080611f3d90614b4a565b915050611d7e565b5080611f86576040517f08c379a0000000000000000000000000000000000000000000000000000000008152600401611f7d9061488c565b60405180910390fd5b82604051611f94919061469c565b60405180910390207f3d23503bda008e50d93c77e132b7d2cde3189a8de034b6d382a71004b5a1b04860405160405180910390a2505050565b600460009054906101000a900473ffffffffffffffffffffffffffffffffffffffff1673ffffffffffffffffffffffffffffffffffffffff163373ffffffffffffffffffffffffffffffffffffffff161461205d576040517f08c379a0000000000000000000000000000000000000000000000000000000008152600401612054906148cc565b60405180910390fd5b600060018360405161206f919061469c565b9081526020016040518091039020600001805461208b90614b18565b9050116120cd576040517f08c379a00000000000000000000000000000000000000000000000000000000081526004016120c4906148ec565b60405180910390fd5b600080826040516120de919061469c565b908152602001604051809103902060000180546120fa90614b18565b90501161213c576040517f08c379a00000000000000000000000000000000000000000000000000000000081526004016121339061490c565b60405180910390fd5b600060018360405161214e919061469c565b908152602001604051809103902060010190506000805b82805490508110156123265783604051602001612182919061469c565b604051602081830303815290604052805190602001208382815481106121d1577f4e487b7100000000000000000000000000000000000000000000000000000000600052603260045260246000fd5b906000526020600020016040516020016121eb91906146b3565b6040516020818303038152906040528051906020012014156123135760019150826001848054905061221d9190614a8c565b81548110612254577f4e487b7100000000000000000000000000000000000000000000000000000000600052603260045260246000fd5b90600052602060002001838281548110612297577f4e487b7100000000000000000000000000000000000000000000000000000000600052603260045260246000fd5b906000526020600020019080546122ad90614b18565b6122b8929190613dde565b50828054806122f0577f4e487b7100000000000000000000000000000000000000000000000000000000600052603160045260246000fd5b60019003818190600052602060002001600061230c9190613d7d565b9055612326565b808061231e90614b4a565b915050612165565b5080612367576040517f08c379a000000000000000000000000000000000000000000000000000000000815260040161235e9061492c565b60405180910390fd5b82604051612375919061469c565b60405180910390207f2987fe5a9775c7dc64ce1b0c8b76d750f2ef0f9e96561a0da6ad7f31a854515a856040516123ac9190614729565b60405180910390a250505050565b600460009054906101000a900473ffffffffffffffffffffffffffffffffffffffff1673ffffffffffffffffffffffffffffffffffffffff163373ffffffffffffffffffffffffffffffffffffffff161461244a576040517f08c379a0000000000000000000000000000000000000000000000000000000008152600401612441906148cc565b60405180910390fd5b80604051612458919061469c565b60405180910390207f66ece5ba82771921bdbfdb2bf2e469359fdecc21f7a2dc5b5e978e84fe9ad20960405160405180910390a250565b6000806000836040516124a2919061469c565b908152602001604051809103902060000180546124be90614b18565b9050119050919050565b600460009054906101000a900473ffffffffffffffffffffffffffffffffffffffff1673ffffffffffffffffffffffffffffffffffffffff163373ffffffffffffffffffffffffffffffffffffffff1614612558576040517f08c379a000000000000000000000000000000000000000000000000000000000815260040161254f906148cc565b60405180910390fd5b6040518060600160405280838152602001600067ffffffffffffffff8111156125aa577f4e487b7100000000000000000000000000000000000000000000000000000000600052604160045260246000fd5b6040519080825280602002602001820160405280156125dd57816020015b60608152602001906001900390816125c85790505b508152602001828152506001836040516125f7919061469c565b90815260200160405180910390206000820151816000019080519060200190612621929190613c02565b50602082015181600101908051906020019061263e929190613ba2565b50604082015181600201908051906020019061265b929190613ba2565b5090505060038290806001815401808255809150506001900390600052602060002001600090919091909150908051906020019061269a929190613c02565b50816040516126a9919061469c565b60405180910390207f64e45d769b067e3e2de0a2fbfa982b75ad4472af64e84e1c421ec5bbe695de0f826040516126e091906146ca565b60405180910390a25050565b600460009054906101000a900473ffffffffffffffffffffffffffffffffffffffff1673ffffffffffffffffffffffffffffffffffffffff163373ffffffffffffffffffffffffffffffffffffffff161461277c576040517f08c379a0000000000000000000000000000000000000000000000000000000008152600401612773906148cc565b60405180910390fd5b6000808360405161278d919061469c565b908152602001604051809103902060070180546127a990614b18565b80601f01602080910402602001604051908101604052809291908181526020018280546127d590614b18565b80156128225780601f106127f757610100808354040283529160200191612822565b820191906000526020600020905b81548152906001019060200180831161280557829003601f168201915b505050505090508160008460405161283a919061469c565b9081526020016040518091039020600701908051906020019061285e929190613c02565b508260405161286d919061469c565b60405180910390207f761bd9ed45e855f17b06454b8c624a18672818f8993e77686bcce7a8f70b265582846040516128a6929190614797565b60405180910390a2505050565b6060806060600460009054906101000a900473ffffffffffffffffffffffffffffffffffffffff1673ffffffffffffffffffffffffffffffffffffffff163373ffffffffffffffffffffffffffffffffffffffff1614612948576040517f08c379a000000000000000000000000000000000000000000000000000000000815260040161293f906148cc565b60405180910390fd5b600060018560405161295a919061469c565b9081526020016040518091039020600001805461297690614b18565b9050116129b8576040517f08c379a00000000000000000000000000000000000000000000000000000000081526004016129af906148ec565b60405180910390fd5b60006001856040516129ca919061469c565b90815260200160405180910390206040518060600160405290816000820180546129f390614b18565b80601f0160208091040260200160405190810160405280929190818152602001828054612a1f90614b18565b8015612a6c5780601f10612a4157610100808354040283529160200191612a6c565b820191906000526020600020905b815481529060010190602001808311612a4f57829003601f168201915b5050505050815260200160018201805480602002602001604051908101604052809291908181526020016000905b82821015612b46578382906000526020600020018054612ab990614b18565b80601f0160208091040260200160405190810160405280929190818152602001828054612ae590614b18565b8015612b325780601f10612b0757610100808354040283529160200191612b32565b820191906000526020600020905b815481529060010190602001808311612b1557829003601f168201915b505050505081526020019060010190612a9a565b50505050815260200160028201805480602002602001604051908101604052809291908181526020016000905b82821015612c1f578382906000526020600020018054612b9290614b18565b80601f0160208091040260200160405190810160405280929190818152602001828054612bbe90614b18565b8015612c0b5780601f10612be057610100808354040283529160200191612c0b565b820191906000526020600020905b815481529060010190602001808311612bee57829003601f168201915b505050505081526020019060010190612b73565b50505050815250509050806000015181604001518260200151935093509350509193909250565b600460009054906101000a900473ffffffffffffffffffffffffffffffffffffffff1673ffffffffffffffffffffffffffffffffffffffff163373ffffffffffffffffffffffffffffffffffffffff1614612cd6576040517f08c379a0000000000000000000000000000000000000000000000000000000008152600401612ccd906148cc565b60405180910390fd5b60405180610140016040528085815260200184815260200183815260200182815260200182815260200160001515815260200160001515815260200160011515815260200160405180602001604052806000815250815260200160405180602001604052806000815250815250600085604051612d53919061469c565b90815260200160405180910390206000820151816000019080519060200190612d7d929190613c02565b506020820151816001019080519060200190612d9a929190613c02565b506040820151816002019080519060200190612db7929190613ba2565b506060820151816003019080519060200190612dd4929190613c02565b506080820151816004019080519060200190612df1929190613c02565b5060a08201518160050160006101000a81548160ff02191690831515021790555060c08201518160050160016101000a81548160ff02191690831515021790555060e08201518160050160026101000a81548160ff021916908315150217905550610100820151816006019080519060200190612e6f929190613c02565b50610120820151816007019080519060200190612e8d929190613c02565b50905050600284908060018154018082558091505060019003906000526020600020016000909190919091509080519060200190612ecc929190613c02565b50612f0c6040518060400160405280600581526020017f5573657273000000000000000000000000000000000000000000000000000000815250856131f6565b83604051612f1a919061469c565b60405180910390207f270ff4b111e5baa49283562af127cc5ea74e9d6c9efd5465578bd9223d5843f060405160405180910390a260016002805490501415612f9c57612f9b6040518060400160405280600e81526020017f41646d696e6973747261746f7273000000000000000000000000000000000000815250856131f6565b5b50505050565b600460009054906101000a900473ffffffffffffffffffffffffffffffffffffffff1673ffffffffffffffffffffffffffffffffffffffff163373ffffffffffffffffffffffffffffffffffffffff1614613032576040517f08c379a0000000000000000000000000000000000000000000000000000000008152600401613029906148cc565b60405180910390fd5b80600083604051613043919061469c565b90815260200160405180910390206001019080519060200190613067929190613c02565b5060008083604051613079919061469c565b908152602001604051809103902060050160016101000a81548160ff021916908315150217905550816040516130af919061469c565b60405180910390207fd0b43b0b96083c98cc0f0370575812de87ee48ff1bde30bcd74f3518443bc4f560405160405180910390a25050565b600460009054906101000a900473ffffffffffffffffffffffffffffffffffffffff1673ffffffffffffffffffffffffffffffffffffffff163373ffffffffffffffffffffffffffffffffffffffff1614613177576040517f08c379a000000000000000000000000000000000000000000000000000000000815260040161316e906148cc565b60405180910390fd5b6001600082604051613189919061469c565b908152602001604051809103902060050160016101000a81548160ff021916908315150217905550806040516131bf919061469c565b60405180910390207f926f593dd22175375135b3fd9428c5d0298a5665da18756555b6af9f305ab9a660405160405180910390a250565b600460009054906101000a900473ffffffffffffffffffffffffffffffffffffffff1673ffffffffffffffffffffffffffffffffffffffff163373ffffffffffffffffffffffffffffffffffffffff1614613286576040517f08c379a000000000000000000000000000000000000000000000000000000000815260040161327d906148cc565b60405180910390fd5b6000600183604051613298919061469c565b908152602001604051809103902060000180546132b490614b18565b9050116132f6576040517f08c379a00000000000000000000000000000000000000000000000000000000081526004016132ed906148ec565b60405180910390fd5b60008082604051613307919061469c565b9081526020016040518091039020600001805461332390614b18565b905011613365576040517f08c379a000000000000000000000000000000000000000000000000000000000815260040161335c9061490c565b60405180910390fd5b600182604051613375919061469c565b9081526020016040518091039020600101819080600181540180825580915050600190039060005260206000200160009091909190915090805190602001906133bf929190613c02565b50806040516133ce919061469c565b60405180910390207f32475c6c091737c212dc5c54e3565db8aae94283f8b388d2c1dfe772b3f356e1836040516134059190614729565b60405180910390a25050565b606060008083604051613424919061469c565b9081526020016040518091039020600001805461344090614b18565b905011613482576040517f08c379a00000000000000000000000000000000000000000000000000000000081526004016134799061490c565b60405180910390fd5b600060038054905067ffffffffffffffff8111156134c9577f4e487b7100000000000000000000000000000000000000000000000000000000600052604160045260246000fd5b6040519080825280602002602001820160405280156134fc57816020015b60608152602001906001900390816134e75790505b5090506000805b60038054905081101561372c57600060016003838154811061354e577f4e487b7100000000000000000000000000000000000000000000000000000000600052603260045260246000fd5b9060005260206000200160405161356591906146b3565b9081526020016040518091039020905060005b81600101805490508110156137175786604051602001613598919061469c565b604051602081830303815290604052805190602001208260010182815481106135ea577f4e487b7100000000000000000000000000000000000000000000000000000000600052603260045260246000fd5b9060005260206000200160405160200161360491906146b3565b6040516020818303038152906040528051906020012014156137045781600001805461362f90614b18565b80601f016020809104026020016040519081016040528092919081815260200182805461365b90614b18565b80156136a85780601f1061367d576101008083540402835291602001916136a8565b820191906000526020600020905b81548152906001019060200180831161368b57829003601f168201915b50505050508585815181106136e6577f4e487b7100000000000000000000000000000000000000000000000000000000600052603260045260246000fd5b602002602001018190525083806136fc90614b4a565b945050613717565b808061370f90614b4a565b915050613578565b5050808061372490614b4a565b915050613503565b506000603267ffffffffffffffff811115613770577f4e487b7100000000000000000000000000000000000000000000000000000000600052604160045260246000fd5b6040519080825280602002602001820160405280156137a357816020015b606081526020019060019003908161378e5790505b5090506000805b83811015613a785760008582815181106137ed577f4e487b7100000000000000000000000000000000000000000000000000000000600052603260045260246000fd5b602002602001015190506000600182604051613809919061469c565b9081526020016040518091039020600201905060005b8180549050811015613a62576000805b8681101561392957838381548110613870577f4e487b7100000000000000000000000000000000000000000000000000000000600052603260045260246000fd5b9060005260206000200160405160200161388a91906146b3565b604051602081830303815290604052805190602001208882815181106138d9577f4e487b7100000000000000000000000000000000000000000000000000000000600052603260045260246000fd5b60200260200101516040516020016138f1919061469c565b6040516020818303038152906040528051906020012014156139165760019150613929565b808061392190614b4a565b91505061382f565b5080613a4e57828281548110613968577f4e487b7100000000000000000000000000000000000000000000000000000000600052603260045260246000fd5b90600052602060002001805461397d90614b18565b80601f01602080910402602001604051908101604052809291908181526020018280546139a990614b18565b80156139f65780601f106139cb576101008083540402835291602001916139f6565b820191906000526020600020905b8154815290600101906020018083116139d957829003601f168201915b5050505050878781518110613a34577f4e487b7100000000000000000000000000000000000000000000000000000000600052603260045260246000fd5b60200260200101819052508580613a4a90614b4a565b9650505b508080613a5a90614b4a565b91505061381f565b5050508080613a7090614b4a565b9150506137aa565b5060008167ffffffffffffffff811115613abb577f4e487b7100000000000000000000000000000000000000000000000000000000600052604160045260246000fd5b604051908082528060200260200182016040528015613aee57816020015b6060815260200190600190039081613ad95790505b50905060005b82811015613b9457838181518110613b35577f4e487b7100000000000000000000000000000000000000000000000000000000600052603260045260246000fd5b6020026020010151828281518110613b76577f4e487b7100000000000000000000000000000000000000000000000000000000600052603260045260246000fd5b60200260200101819052508080613b8c90614b4a565b915050613af4565b508095505050505050919050565b828054828255906000526020600020908101928215613bf1579160200282015b82811115613bf0578251829080519060200190613be0929190613c02565b5091602001919060010190613bc2565b5b509050613bfe9190613e6b565b5090565b828054613c0e90614b18565b90600052602060002090601f016020900481019282613c305760008555613c77565b82601f10613c4957805160ff1916838001178555613c77565b82800160010185558215613c77579182015b82811115613c76578251825591602001919060010190613c5b565b5b509050613c849190613e8f565b5090565b828054613c9490614b18565b90600052602060002090601f016020900481019282613cb65760008555613d04565b82601f10613cc75780548555613d04565b82800160010185558215613d0457600052602060002091601f016020900482015b82811115613d03578254825591600101919060010190613ce8565b5b509050613d119190613e8f565b5090565b828054828255906000526020600020908101928215613d6c5760005260206000209182015b82811115613d6b578282908054613d5090614b18565b613d5b929190613c88565b5091600101919060010190613d3a565b5b509050613d799190613e6b565b5090565b508054613d8990614b18565b6000825580601f10613d9b5750613dba565b601f016020900490600052602060002090810190613db99190613e8f565b5b50565b5080546000825590600052602060002090810190613ddb9190613e6b565b50565b828054613dea90614b18565b90600052602060002090601f016020900481019282613e0c5760008555613e5a565b82601f10613e1d5780548555613e5a565b82800160010185558215613e5a57600052602060002091601f016020900482015b82811115613e59578254825591600101919060010190613e3e565b5b509050613e679190613e8f565b5090565b5b80821115613e8b5760008181613e829190613d7d565b50600101613e6c565b5090565b5b80821115613ea8576000816000905550600101613e90565b5090565b6000613ebf613eba8461497d565b61494c565b9050808382526020820190508260005b85811015613eff5781358501613ee58882613f71565b845260208401935060208301925050600181019050613ecf565b5050509392505050565b6000613f1c613f17846149a9565b61494c565b905082815260208101848484011115613f3457600080fd5b613f3f848285614ad6565b509392505050565b600082601f830112613f5857600080fd5b8135613f68848260208601613eac565b91505092915050565b600082601f830112613f8257600080fd5b8135613f92848260208601613f09565b91505092915050565b600060208284031215613fad57600080fd5b600082013567ffffffffffffffff811115613fc757600080fd5b613fd384828501613f71565b91505092915050565b60008060408385031215613fef57600080fd5b600083013567ffffffffffffffff81111561400957600080fd5b61401585828601613f71565b925050602083013567ffffffffffffffff81111561403257600080fd5b61403e85828601613f47565b9150509250929050565b6000806040838503121561405b57600080fd5b600083013567ffffffffffffffff81111561407557600080fd5b61408185828601613f71565b925050602083013567ffffffffffffffff81111561409e57600080fd5b6140aa85828601613f71565b9150509250929050565b6000806000606084860312156140c957600080fd5b600084013567ffffffffffffffff8111156140e357600080fd5b6140ef86828701613f71565b935050602084013567ffffffffffffffff81111561410c57600080fd5b61411886828701613f71565b925050604084013567ffffffffffffffff81111561413557600080fd5b61414186828701613f47565b9150509250925092565b6000806000806080858703121561416157600080fd5b600085013567ffffffffffffffff81111561417b57600080fd5b61418787828801613f71565b945050602085013567ffffffffffffffff8111156141a457600080fd5b6141b087828801613f71565b935050604085013567ffffffffffffffff8111156141cd57600080fd5b6141d987828801613f47565b925050606085013567ffffffffffffffff8111156141f657600080fd5b61420287828801613f71565b91505092959194509250565b600061421a838361432e565b905092915050565b600061422e83836143d1565b905092915050565b600061424182614a13565b61424b8185614a4e565b93508360208202850161425d856149d9565b8060005b85811015614299578484038952815161427a858261420e565b945061428583614a34565b925060208a01995050600181019050614261565b50829750879550505050505092915050565b60006142b682614a1e565b6142c08185614a4e565b9350836020820285016142d2856149e9565b8060005b8581101561430d578484038952816142ee8582614222565b94506142f983614a41565b925060208a019950506001810190506142d6565b50829750879550505050505092915050565b61432881614ac0565b82525050565b600061433982614a29565b6143438185614a5f565b9350614353818560208601614ae5565b61435c81614c20565b840191505092915050565b600061437282614a29565b61437c8185614a70565b935061438c818560208601614ae5565b61439581614c20565b840191505092915050565b60006143ab82614a29565b6143b58185614a81565b93506143c5818560208601614ae5565b80840191505092915050565b600081546143de81614b18565b6143e88186614a5f565b94506001821660008114614403576001811461441557614448565b60ff1983168652602086019350614448565b61441e856149fe565b60005b8381101561444057815481890152600182019150602081019050614421565b808801955050505b50505092915050565b6000815461445e81614b18565b6144688186614a81565b945060018216600081146144835760018114614494576144c7565b60ff198316865281860193506144c7565b61449d856149fe565b60005b838110156144bf578154818901526001820191506020810190506144a0565b838801955050505b50505092915050565b60006144dd602083614a70565b91507f47726f7570206e6f7420666f756e6420696e20616c6c47726f75704e616d65736000830152602082019050919050565b600061451d602f83614a70565b91507f4d6f64696679696e6720636f72652067726f7570207065726d697373696f6e7360008301527f206973206e6f7420616c6c6f77656400000000000000000000000000000000006020830152604082019050919050565b6000614583602f83614a70565b91507f4f6e6c792074686520636f6e7472616374206f776e65722063616e207065726660008301527f6f726d207468697320616374696f6e00000000000000000000000000000000006020830152604082019050919050565b60006145e9601483614a70565b91507f47726f757020646f6573206e6f742065786973740000000000000000000000006000830152602082019050919050565b6000614629601383614a70565b91507f5573657220646f6573206e6f74206578697374000000000000000000000000006000830152602082019050919050565b6000614669601983614a70565b91507f55736572206973206e6f7420696e20746869732067726f7570000000000000006000830152602082019050919050565b60006146a882846143a0565b915081905092915050565b60006146bf8284614451565b915081905092915050565b600060208201905081810360008301526146e48184614236565b905092915050565b6000602082019050818103600083015261470681846142ab565b905092915050565b6000602082019050614723600083018461431f565b92915050565b600060208201905081810360008301526147438184614367565b905092915050565b600060608201905081810360008301526147658186614367565b905081810360208301526147798185614236565b9050818103604083015261478d8184614236565b9050949350505050565b600060408201905081810360008301526147b18185614367565b905081810360208301526147c58184614367565b90509392505050565b60006101208201905081810360008301526147e9818c614367565b905081810360208301526147fd818b614367565b90508181036040830152614811818a614236565b905081810360608301526148258189614367565b905081810360808301526148398188614367565b905061484860a083018761431f565b61485560c083018661431f565b81810360e08301526148678185614367565b905081810361010083015261487c8184614367565b90509a9950505050505050505050565b600060208201905081810360008301526148a5816144d0565b9050919050565b600060208201905081810360008301526148c581614510565b9050919050565b600060208201905081810360008301526148e581614576565b9050919050565b60006020820190508181036000830152614905816145dc565b9050919050565b600060208201905081810360008301526149258161461c565b9050919050565b600060208201905081810360008301526149458161465c565b9050919050565b6000604051905081810181811067ffffffffffffffff8211171561497357614972614bf1565b5b8060405250919050565b600067ffffffffffffffff82111561499857614997614bf1565b5b602082029050602081019050919050565b600067ffffffffffffffff8211156149c4576149c3614bf1565b5b601f19601f8301169050602081019050919050565b6000819050602082019050919050565b60008190508160005260206000209050919050565b60008190508160005260206000209050919050565b600081519050919050565b600081549050919050565b600081519050919050565b6000602082019050919050565b6000600182019050919050565b600082825260208201905092915050565b600082825260208201905092915050565b600082825260208201905092915050565b600081905092915050565b6000614a9782614acc565b9150614aa283614acc565b925082821015614ab557614ab4614b93565b5b828203905092915050565b60008115159050919050565b6000819050919050565b82818337600083830152505050565b60005b83811015614b03578082015181840152602081019050614ae8565b83811115614b12576000848401525b50505050565b60006002820490506001821680614b3057607f821691505b60208210811415614b4457614b43614bc2565b5b50919050565b6000614b5582614acc565b91507fffffffffffffffffffffffffffffffffffffffffffffffffffffffffffffffff821415614b8857614b87614b93565b5b600182019050919050565b7f4e487b7100000000000000000000000000000000000000000000000000000000600052601160045260246000fd5b7f4e487b7100000000000000000000000000000000000000000000000000000000600052602260045260246000fd5b7f4e487b7100000000000000000000000000000000000000000000000000000000600052604160045260246000fd5b6000601f19601f830116905091905056fea26469706673582212209e678fb60d14e86410d444b4177ddc6277972196f1fbca7e5575a01dcb8438d964736f6c63430008000033",
  "linkReferences": {},
  "deployedLinkReferences": {}
}