{
  "_format": "hh-sol-artifact-1",
  "contractName": "FaceGuard",
  "sourceName": "contracts/FaceGuard.sol",
  "abi": [
    {
      "inputs": [
        {
          "internalType": "string",
          "name": "creationDate",
          "type": "string"
        }
      ],
      "stateMutability": "nonpayable",
      "type": "constructor"
    },
    {
      "anonymous": false,
      "inputs": [
        {
          "indexed": false,
          "internalType": "string",
          "name": "username",
          "type": "string"
        }
      ],
      "name": "FaceHashUpdated",
      "type": "event"
    },
    {
      "anonymous": false,
      "inputs": [
        {
          "indexed": false,
          "internalType": "string",
          "name": "groupName",
          "type": "string"
        }
      ],
      "name": "GroupCreated",
      "type": "event"
    },
    {
      "anonymous": false,
      "inputs": [
        {
          "indexed": false,
          "internalType": "string",
          "name": "groupName",
          "type": "string"
        },
        {
          "indexed": false,
          "internalType": "string[]",
          "name": "permissions",
          "type": "string[]"
        }
      ],
      "name": "GroupPermissionsUpdated",
      "type": "event"
    },
    {
      "anonymous": false,
      "inputs": [
        {
          "indexed": false,
          "internalType": "string",
          "name": "groupName",
          "type": "string"
        }
      ],
      "name": "GroupRemoved",
      "type": "event"
    },
    {
      "anonymous": false,
      "inputs": [
        {
          "indexed": false,
          "internalType": "string",
          "name": "username",
          "type": "string"
        }
      ],
      "name": "PasswordChangeRequired",
      "type": "event"
    },
    {
      "anonymous": false,
      "inputs": [
        {
          "indexed": false,
          "internalType": "string",
          "name": "username",
          "type": "string"
        }
      ],
      "name": "PasswordUpdated",
      "type": "event"
    },
    {
      "anonymous": false,
      "inputs": [
        {
          "indexed": false,
          "internalType": "string",
          "name": "username",
          "type": "string"
        }
      ],
      "name": "PermissionsUpdated",
      "type": "event"
    },
    {
      "anonymous": false,
      "inputs": [
        {
          "indexed": false,
          "internalType": "string",
          "name": "username",
          "type": "string"
        },
        {
          "indexed": false,
          "internalType": "string",
          "name": "groupName",
          "type": "string"
        }
      ],
      "name": "UserAddedToGroup",
      "type": "event"
    },
    {
      "anonymous": false,
      "inputs": [
        {
          "indexed": false,
          "internalType": "string",
          "name": "username",
          "type": "string"
        }
      ],
      "name": "UserRegistered",
      "type": "event"
    },
    {
      "anonymous": false,
      "inputs": [
        {
          "indexed": false,
          "internalType": "string",
          "name": "username",
          "type": "string"
        },
        {
          "indexed": false,
          "internalType": "string",
          "name": "groupName",
          "type": "string"
        }
      ],
      "name": "UserRemovedFromGroup",
      "type": "event"
    },
    {
      "anonymous": false,
      "inputs": [
        {
          "indexed": false,
          "internalType": "string",
          "name": "username",
          "type": "string"
        },
        {
          "indexed": false,
          "internalType": "bool",
          "name": "enabled",
          "type": "bool"
        }
      ],
      "name": "UserToggled",
      "type": "event"
    },
    {
      "inputs": [
        {
          "internalType": "string",
          "name": "username",
          "type": "string"
        },
        {
          "internalType": "string",
          "name": "groupName",
          "type": "string"
        }
      ],
      "name": "addUserToGroup",
      "outputs": [],
      "stateMutability": "nonpayable",
      "type": "function"
    },
    {
      "inputs": [
        {
          "internalType": "string",
          "name": "username",
          "type": "string"
        }
      ],
      "name": "checkIfUserExists",
      "outputs": [
        {
          "internalType": "bool",
          "name": "",
          "type": "bool"
        }
      ],
      "stateMutability": "view",
      "type": "function"
    },
    {
      "inputs": [
        {
          "internalType": "string",
          "name": "groupName",
          "type": "string"
        }
      ],
      "name": "createGroup",
      "outputs": [],
      "stateMutability": "nonpayable",
      "type": "function"
    },
    {
      "inputs": [],
      "name": "getAllGroups",
      "outputs": [
        {
          "internalType": "string[]",
          "name": "",
          "type": "string[]"
        }
      ],
      "stateMutability": "view",
      "type": "function"
    },
    {
      "inputs": [],
      "name": "getAllUsernames",
      "outputs": [
        {
          "internalType": "string[]",
          "name": "",
          "type": "string[]"
        }
      ],
      "stateMutability": "view",
      "type": "function"
    },
    {
      "inputs": [
        {
          "internalType": "string",
          "name": "groupName",
          "type": "string"
        }
      ],
      "name": "getGroup",
      "outputs": [
        {
          "internalType": "string",
          "name": "",
          "type": "string"
        },
        {
          "internalType": "string[]",
          "name": "",
          "type": "string[]"
        },
        {
          "internalType": "string[]",
          "name": "",
          "type": "string[]"
        }
      ],
      "stateMutability": "view",
      "type": "function"
    },
    {
      "inputs": [
        {
          "internalType": "string",
          "name": "username",
          "type": "string"
        }
      ],
      "name": "getUser",
      "outputs": [
        {
          "internalType": "string",
          "name": "",
          "type": "string"
        },
        {
          "internalType": "string",
          "name": "",
          "type": "string"
        },
        {
          "internalType": "string[]",
          "name": "",
          "type": "string[]"
        },
        {
          "internalType": "string",
          "name": "",
          "type": "string"
        },
        {
          "internalType": "string",
          "name": "",
          "type": "string"
        },
        {
          "internalType": "bool",
          "name": "",
          "type": "bool"
        },
        {
          "internalType": "bool",
          "name": "",
          "type": "bool"
        }
      ],
      "stateMutability": "view",
      "type": "function"
    },
    {
      "inputs": [
        {
          "internalType": "string",
          "name": "username",
          "type": "string"
        }
      ],
      "name": "getUserFaceHashes",
      "outputs": [
        {
          "internalType": "string[]",
          "name": "",
          "type": "string[]"
        }
      ],
      "stateMutability": "view",
      "type": "function"
    },
    {
      "inputs": [
        {
          "internalType": "string",
          "name": "username",
          "type": "string"
        },
        {
          "internalType": "string",
          "name": "passwordHash",
          "type": "string"
        },
        {
          "internalType": "string[]",
          "name": "initialFaceHashes",
          "type": "string[]"
        },
        {
          "internalType": "string",
          "name": "creationDate",
          "type": "string"
        }
      ],
      "name": "registerUser",
      "outputs": [],
      "stateMutability": "nonpayable",
      "type": "function"
    },
    {
      "inputs": [
        {
          "internalType": "string",
          "name": "groupName",
          "type": "string"
        }
      ],
      "name": "removeGroup",
      "outputs": [],
      "stateMutability": "nonpayable",
      "type": "function"
    },
    {
      "inputs": [
        {
          "internalType": "string",
          "name": "username",
          "type": "string"
        },
        {
          "internalType": "string",
          "name": "groupName",
          "type": "string"
        }
      ],
      "name": "removeUserFromGroup",
      "outputs": [],
      "stateMutability": "nonpayable",
      "type": "function"
    },
    {
      "inputs": [
        {
          "internalType": "string",
          "name": "username",
          "type": "string"
        }
      ],
      "name": "requireUserPasswordChange",
      "outputs": [],
      "stateMutability": "nonpayable",
      "type": "function"
    },
    {
      "inputs": [
        {
          "internalType": "string",
          "name": "groupName",
          "type": "string"
        },
        {
          "internalType": "string[]",
          "name": "groupPermissions",
          "type": "string[]"
        }
      ],
      "name": "setGroupPermissions",
      "outputs": [
        {
          "internalType": "string",
          "name": "",
          "type": "string"
        }
      ],
      "stateMutability": "nonpayable",
      "type": "function"
    },
    {
      "inputs": [
        {
          "internalType": "string",
          "name": "username",
          "type": "string"
        }
      ],
      "name": "toggleUser",
      "outputs": [],
      "stateMutability": "nonpayable",
      "type": "function"
    },
    {
      "inputs": [
        {
          "internalType": "string",
          "name": "username",
          "type": "string"
        },
        {
          "internalType": "string[]",
          "name": "newFaceHashes",
          "type": "string[]"
        }
      ],
      "name": "updateUserFaceHash",
      "outputs": [],
      "stateMutability": "nonpayable",
      "type": "function"
    },
    {
      "inputs": [
        {
          "internalType": "string",
          "name": "username",
          "type": "string"
        },
        {
          "internalType": "string",
          "name": "newPasswordHash",
          "type": "string"
        }
      ],
      "name": "updateUserPassword",
      "outputs": [],
      "stateMutability": "nonpayable",
      "type": "function"
    }
  ],
  "bytecode": "0x60806040523480156200001157600080fd5b50604051620042a7380380620042a78339818101604052810190620000379190620009f2565b33600560006101000a81548173ffffffffffffffffffffffffffffffffffffffff021916908373ffffffffffffffffffffffffffffffffffffffff160217905550620000be6040518060400160405280600681526020017f4f776e6572730000000000000000000000000000000000000000000000000000815250620002e460201b60201c565b620001046040518060400160405280600e81526020017f41646d696e6973747261746f7273000000000000000000000000000000000000815250620002e460201b60201c565b6200014a6040518060400160405280600581526020017f5573657273000000000000000000000000000000000000000000000000000000815250620002e460201b60201c565b600480600181540180825580915050600190039060005260206000200160006040518060400160405280600c81526020017f46756c6c20436f6e74726f6c000000000000000000000000000000000000000081525090919091509080519060200190620001b9929190620007fb565b50620002dc6040518060400160405280600681526020017f4f776e65727300000000000000000000000000000000000000000000000000008152506004805480602002602001604051908101604052809291908181526020016000905b82821015620002cc578382906000526020600020018054620002389062000eeb565b80601f0160208091040260200160405190810160405280929190818152602001828054620002669062000eeb565b8015620002b75780601f106200028b57610100808354040283529160200191620002b7565b820191906000526020600020905b8154815290600101906020018083116200029957829003601f168201915b50505050508152602001906001019062000216565b505050506200057a60201b60201c565b505062000f90565b600560009054906101000a900473ffffffffffffffffffffffffffffffffffffffff1673ffffffffffffffffffffffffffffffffffffffff163373ffffffffffffffffffffffffffffffffffffffff161462000377576040517f08c379a00000000000000000000000000000000000000000000000000000000081526004016200036e9062000d7f565b60405180910390fd5b6040518060600160405280828152602001600067ffffffffffffffff811115620003ca577f4e487b7100000000000000000000000000000000000000000000000000000000600052604160045260246000fd5b604051908082528060200260200182016040528015620003ff57816020015b6060815260200190600190039081620003e95790505b508152602001600067ffffffffffffffff81111562000447577f4e487b7100000000000000000000000000000000000000000000000000000000600052604160045260246000fd5b6040519080825280602002602001820160405280156200047c57816020015b6060815260200190600190039081620004665790505b5081525060018260405162000492919062000d07565b90815260200160405180910390206000820151816000019080519060200190620004be929190620007fb565b506020820151816001019080519060200190620004dd9291906200088c565b506040820151816002019080519060200190620004fc9291906200088c565b509050506003819080600181540180825580915050600190039060005260206000200160009091909190915090805190602001906200053d929190620007fb565b507fb4082bf161f07af2ff5aed9b78e2cb1baf973ed4f2cc2e6e8e81a46752cc3345816040516200056f919062000d20565b60405180910390a150565b6060600560009054906101000a900473ffffffffffffffffffffffffffffffffffffffff1673ffffffffffffffffffffffffffffffffffffffff163373ffffffffffffffffffffffffffffffffffffffff16146200060f576040517f08c379a0000000000000000000000000000000000000000000000000000000008152600401620006069062000d7f565b60405180910390fd5b600060018460405162000623919062000d07565b90815260200160405180910390206000018054620006419062000eeb565b90501162000686576040517f08c379a00000000000000000000000000000000000000000000000000000000081526004016200067d9062000da1565b60405180910390fd5b8160018460405162000699919062000d07565b90815260200160405180910390206002019080519060200190620006bf9291906200088c565b507f65d29756900166ea1a95042b775077b9e0c4b52e2ad303784b8fc75584de59ef600184604051620006f3919062000d07565b908152602001604051809103902060000160018560405162000716919062000d07565b90815260200160405180910390206002016040516200073792919062000d44565b60405180910390a160018360405162000751919062000d07565b908152602001604051809103902060000180546200076f9062000eeb565b80601f01602080910402602001604051908101604052809291908181526020018280546200079d9062000eeb565b8015620007ee5780601f10620007c257610100808354040283529160200191620007ee565b820191906000526020600020905b815481529060010190602001808311620007d057829003601f168201915b5050505050905092915050565b828054620008099062000eeb565b90600052602060002090601f0160209004810192826200082d576000855562000879565b82601f106200084857805160ff191683800117855562000879565b8280016001018555821562000879579182015b82811115620008785782518255916020019190600101906200085b565b5b509050620008889190620008f3565b5090565b828054828255906000526020600020908101928215620008e0579160200282015b82811115620008df578251829080519060200190620008ce929190620007fb565b5091602001919060010190620008ad565b5b509050620008ef919062000912565b5090565b5b808211156200090e576000816000905550600101620008f4565b5090565b5b808211156200093657600081816200092c91906200093a565b5060010162000913565b5090565b508054620009489062000eeb565b6000825580601f106200095c57506200097d565b601f0160209004906000526020600020908101906200097c9190620008f3565b5b50565b600062000997620009918462000df7565b62000dc3565b905082815260208101848484011115620009b057600080fd5b620009bd84828562000eb5565b509392505050565b600082601f830112620009d757600080fd5b8151620009e984826020860162000980565b91505092915050565b60006020828403121562000a0557600080fd5b600082015167ffffffffffffffff81111562000a2057600080fd5b62000a2e84828501620009c5565b91505092915050565b600062000a45838362000b45565b905092915050565b600062000a5a8262000e54565b62000a66818562000e77565b93508360208202850162000a7a8562000e2a565b8060005b8581101562000abb5784840389528162000a99858262000a37565b945062000aa68362000e6a565b925060208a0199505060018101905062000a7e565b50829750879550505050505092915050565b600062000ada8262000e5f565b62000ae6818562000e99565b935062000af881856020860162000eb5565b62000b038162000f7f565b840191505092915050565b600062000b1b8262000e5f565b62000b27818562000eaa565b935062000b3981856020860162000eb5565b80840191505092915050565b6000815462000b548162000eeb565b62000b60818662000e88565b9450600182166000811462000b7e576001811462000b915762000bc8565b60ff198316865260208601935062000bc8565b62000b9c8562000e3f565b60005b8381101562000bc05781548189015260018201915060208101905062000b9f565b808801955050505b50505092915050565b6000815462000be08162000eeb565b62000bec818662000e99565b9450600182166000811462000c0a576001811462000c1d5762000c54565b60ff198316865260208601935062000c54565b62000c288562000e3f565b60005b8381101562000c4c5781548189015260018201915060208101905062000c2b565b808801955050505b50505092915050565b600062000c6c602f8362000e99565b91507f4f6e6c792074686520636f6e7472616374206f776e65722063616e207065726660008301527f6f726d207468697320616374696f6e00000000000000000000000000000000006020830152604082019050919050565b600062000cd460148362000e99565b91507f47726f757020646f6573206e6f742065786973740000000000000000000000006000830152602082019050919050565b600062000d15828462000b0e565b915081905092915050565b6000602082019050818103600083015262000d3c818462000acd565b905092915050565b6000604082019050818103600083015262000d60818562000bd1565b9050818103602083015262000d76818462000a4d565b90509392505050565b6000602082019050818103600083015262000d9a8162000c5d565b9050919050565b6000602082019050818103600083015262000dbc8162000cc5565b9050919050565b6000604051905081810181811067ffffffffffffffff8211171562000ded5762000dec62000f50565b5b8060405250919050565b600067ffffffffffffffff82111562000e155762000e1462000f50565b5b601f19601f8301169050602081019050919050565b60008190508160005260206000209050919050565b60008190508160005260206000209050919050565b600081549050919050565b600081519050919050565b6000600182019050919050565b600082825260208201905092915050565b600082825260208201905092915050565b600082825260208201905092915050565b600081905092915050565b60005b8381101562000ed557808201518184015260208101905062000eb8565b8381111562000ee5576000848401525b50505050565b6000600282049050600182168062000f0457607f821691505b6020821081141562000f1b5762000f1a62000f21565b5b50919050565b7f4e487b7100000000000000000000000000000000000000000000000000000000600052602260045260246000fd5b7f4e487b7100000000000000000000000000000000000000000000000000000000600052604160045260246000fd5b6000601f19601f8301169050919050565b6133078062000fa06000396000f3fe608060405234801561001057600080fd5b50600436106101005760003560e01c806367753ba111610097578063c91bc46c11610066578063c91bc46c146102c5578063dc2ddcae146102e1578063e537cac7146102fd578063ecb5a4d51461031957610100565b806367753ba11461022b5780636cad193414610247578063abef281e14610277578063b9e6facb146102a957610100565b806331feb671116100d357806331feb6711461019f5780635108c3ab146101d557806353620375146101f15780636246b3101461020f57610100565b806303df9e92146101055780631ae7f10a1461012157806321cd3cae146101515780632d09d9e91461016f575b600080fd5b61011f600480360381019061011a9190612700565b610335565b005b61013b60048036038101906101369190612700565b610436565b6040516101489190612dae565b60405180910390f35b610159610699565b6040516101669190612d71565b60405180910390f35b610189600480360381019061018491906126bf565b610772565b6040516101969190612d71565b60405180910390f35b6101b960048036038101906101b491906126bf565b61086c565b6040516101cc9796959493929190612e83565b60405180910390f35b6101ef60048036038101906101ea91906126bf565b610c53565b005b6101f9610db5565b6040516102069190612d71565b60405180910390f35b610229600480360381019061022491906126bf565b610e8e565b005b6102456004803603810190610240919061276c565b611226565b005b610261600480360381019061025c91906126bf565b6115ff565b60405161026e9190612d93565b60405180910390f35b610291600480360381019061028c91906126bf565b611638565b6040516102a093929190612dd0565b60405180910390f35b6102c360048036038101906102be91906127d8565b6119cb565b005b6102df60048036038101906102da919061276c565b611cf5565b005b6102fb60048036038101906102f691906126bf565b611e2f565b005b610317600480360381019061031291906126bf565b6120b0565b005b610333600480360381019061032e919061276c565b6121b4565b005b600560009054906101000a900473ffffffffffffffffffffffffffffffffffffffff1673ffffffffffffffffffffffffffffffffffffffff163373ffffffffffffffffffffffffffffffffffffffff16146103c5576040517f08c379a00000000000000000000000000000000000000000000000000000000081526004016103bc90612f6c565b60405180910390fd5b806000836040516103d69190612d43565b908152602001604051809103902060020190805190602001906103fa9291906123bb565b507feb1060ec96e942d51b0f7b8b00c334c5c6da57c48f5ef56937468d28d0ee347a8260405161042a9190612dae565b60405180910390a15050565b6060600560009054906101000a900473ffffffffffffffffffffffffffffffffffffffff1673ffffffffffffffffffffffffffffffffffffffff163373ffffffffffffffffffffffffffffffffffffffff16146104c8576040517f08c379a00000000000000000000000000000000000000000000000000000000081526004016104bf90612f6c565b60405180910390fd5b60006001846040516104da9190612d43565b908152602001604051809103902060000180546104f6906131b8565b905011610538576040517f08c379a000000000000000000000000000000000000000000000000000000000815260040161052f90612f8c565b60405180910390fd5b816001846040516105499190612d43565b9081526020016040518091039020600201908051906020019061056d9291906123bb565b507f65d29756900166ea1a95042b775077b9e0c4b52e2ad303784b8fc75584de59ef60018460405161059f9190612d43565b90815260200160405180910390206000016001856040516105c09190612d43565b90815260200160405180910390206002016040516105df929190612f15565b60405180910390a16001836040516105f79190612d43565b90815260200160405180910390206000018054610613906131b8565b80601f016020809104026020016040519081016040528092919081815260200182805461063f906131b8565b801561068c5780601f106106615761010080835404028352916020019161068c565b820191906000526020600020905b81548152906001019060200180831161066f57829003601f168201915b5050505050905092915050565b60606003805480602002602001604051908101604052809291908181526020016000905b828210156107695783829060005260206000200180546106dc906131b8565b80601f0160208091040260200160405190810160405280929190818152602001828054610708906131b8565b80156107555780601f1061072a57610100808354040283529160200191610755565b820191906000526020600020905b81548152906001019060200180831161073857829003601f168201915b5050505050815260200190600101906106bd565b50505050905090565b60606000826040516107849190612d43565b9081526020016040518091039020600201805480602002602001604051908101604052809291908181526020016000905b828210156108615783829060005260206000200180546107d4906131b8565b80601f0160208091040260200160405190810160405280929190818152602001828054610800906131b8565b801561084d5780601f106108225761010080835404028352916020019161084d565b820191906000526020600020905b81548152906001019060200180831161083057829003601f168201915b5050505050815260200190600101906107b5565b505050509050919050565b6060806060806060600080600080896040516108889190612d43565b9081526020016040518091039020604051806101000160405290816000820180546108b2906131b8565b80601f01602080910402602001604051908101604052809291908181526020018280546108de906131b8565b801561092b5780601f106109005761010080835404028352916020019161092b565b820191906000526020600020905b81548152906001019060200180831161090e57829003601f168201915b50505050508152602001600182018054610944906131b8565b80601f0160208091040260200160405190810160405280929190818152602001828054610970906131b8565b80156109bd5780601f10610992576101008083540402835291602001916109bd565b820191906000526020600020905b8154815290600101906020018083116109a057829003601f168201915b5050505050815260200160028201805480602002602001604051908101604052809291908181526020016000905b82821015610a97578382906000526020600020018054610a0a906131b8565b80601f0160208091040260200160405190810160405280929190818152602001828054610a36906131b8565b8015610a835780601f10610a5857610100808354040283529160200191610a83565b820191906000526020600020905b815481529060010190602001808311610a6657829003601f168201915b5050505050815260200190600101906109eb565b505050508152602001600382018054610aaf906131b8565b80601f0160208091040260200160405190810160405280929190818152602001828054610adb906131b8565b8015610b285780601f10610afd57610100808354040283529160200191610b28565b820191906000526020600020905b815481529060010190602001808311610b0b57829003601f168201915b50505050508152602001600482018054610b41906131b8565b80601f0160208091040260200160405190810160405280929190818152602001828054610b6d906131b8565b8015610bba5780601f10610b8f57610100808354040283529160200191610bba565b820191906000526020600020905b815481529060010190602001808311610b9d57829003601f168201915b505050505081526020016005820160009054906101000a900460ff161515151581526020016005820160019054906101000a900460ff161515151581526020016005820160029054906101000a900460ff1615151515815250509050806000015181602001518260400151836060015184608001518560a001518660e00151975097509750975097509750975050919395979092949650565b600560009054906101000a900473ffffffffffffffffffffffffffffffffffffffff1673ffffffffffffffffffffffffffffffffffffffff163373ffffffffffffffffffffffffffffffffffffffff1614610ce3576040517f08c379a0000000000000000000000000000000000000000000000000000000008152600401610cda90612f6c565b60405180910390fd5b600081604051610cf39190612d43565b908152602001604051809103902060050160029054906101000a900460ff1615600082604051610d239190612d43565b908152602001604051809103902060050160026101000a81548160ff0219169083151502179055507f9b1a1e5131c18ee5fd8454b3b435b1b36127bd0c05686d9fc6190d638bcb149981600083604051610d7d9190612d43565b908152602001604051809103902060050160029054906101000a900460ff16604051610daa929190612e1c565b60405180910390a150565b60606002805480602002602001604051908101604052809291908181526020016000905b82821015610e85578382906000526020600020018054610df8906131b8565b80601f0160208091040260200160405190810160405280929190818152602001828054610e24906131b8565b8015610e715780601f10610e4657610100808354040283529160200191610e71565b820191906000526020600020905b815481529060010190602001808311610e5457829003601f168201915b505050505081526020019060010190610dd9565b50505050905090565b600560009054906101000a900473ffffffffffffffffffffffffffffffffffffffff1673ffffffffffffffffffffffffffffffffffffffff163373ffffffffffffffffffffffffffffffffffffffff1614610f1e576040517f08c379a0000000000000000000000000000000000000000000000000000000008152600401610f1590612f6c565b60405180910390fd5b6000600182604051610f309190612d43565b90815260200160405180910390206000018054610f4c906131b8565b905011610f8e576040517f08c379a0000000000000000000000000000000000000000000000000000000008152600401610f8590612f8c565b60405180910390fd5b600181604051610f9e9190612d43565b908152602001604051809103902060008082016000610fbd919061241b565b600182016000610fcd919061245b565b600282016000610fdd919061245b565b50506000805b6003805490508110156111aa57826040516020016110019190612d43565b6040516020818303038152906040528051906020012060038281548110611051577f4e487b7100000000000000000000000000000000000000000000000000000000600052603260045260246000fd5b9060005260206000200160405160200161106b9190612d5a565b60405160208183030381529060405280519060200120141561119757600191506003600160038054905061109f919061312c565b815481106110d6577f4e487b7100000000000000000000000000000000000000000000000000000000600052603260045260246000fd5b906000526020600020016003828154811061111a577f4e487b7100000000000000000000000000000000000000000000000000000000600052603260045260246000fd5b90600052602060002001908054611130906131b8565b61113b92919061247c565b506003805480611174577f4e487b7100000000000000000000000000000000000000000000000000000000600052603160045260246000fd5b600190038181906000526020600020016000611190919061241b565b90556111aa565b80806111a2906131ea565b915050610fe3565b50806111eb576040517f08c379a00000000000000000000000000000000000000000000000000000000081526004016111e290612f4c565b60405180910390fd5b7f3d23503bda008e50d93c77e132b7d2cde3189a8de034b6d382a71004b5a1b0488260405161121a9190612dae565b60405180910390a15050565b600560009054906101000a900473ffffffffffffffffffffffffffffffffffffffff1673ffffffffffffffffffffffffffffffffffffffff163373ffffffffffffffffffffffffffffffffffffffff16146112b6576040517f08c379a00000000000000000000000000000000000000000000000000000000081526004016112ad90612f6c565b60405180910390fd5b60006001826040516112c89190612d43565b908152602001604051809103902060000180546112e4906131b8565b905011611326576040517f08c379a000000000000000000000000000000000000000000000000000000000815260040161131d90612f8c565b60405180910390fd5b600080836040516113379190612d43565b90815260200160405180910390206000018054611353906131b8565b905011611395576040517f08c379a000000000000000000000000000000000000000000000000000000000815260040161138c90612fac565b60405180910390fd5b60006001826040516113a79190612d43565b908152602001604051809103902060010190506000805b828054905081101561157f57846040516020016113db9190612d43565b6040516020818303038152906040528051906020012083828154811061142a577f4e487b7100000000000000000000000000000000000000000000000000000000600052603260045260246000fd5b906000526020600020016040516020016114449190612d5a565b60405160208183030381529060405280519060200120141561156c57600191508260018480549050611476919061312c565b815481106114ad577f4e487b7100000000000000000000000000000000000000000000000000000000600052603260045260246000fd5b906000526020600020018382815481106114f0577f4e487b7100000000000000000000000000000000000000000000000000000000600052603260045260246000fd5b90600052602060002001908054611506906131b8565b61151192919061247c565b5082805480611549577f4e487b7100000000000000000000000000000000000000000000000000000000600052603160045260246000fd5b600190038181906000526020600020016000611565919061241b565b905561157f565b8080611577906131ea565b9150506113be565b50806115c0576040517f08c379a00000000000000000000000000000000000000000000000000000000081526004016115b790612fcc565b60405180910390fd5b7f2987fe5a9775c7dc64ce1b0c8b76d750f2ef0f9e96561a0da6ad7f31a854515a84846040516115f1929190612e4c565b60405180910390a150505050565b6000806000836040516116129190612d43565b9081526020016040518091039020600001805461162e906131b8565b9050119050919050565b6060806060600560009054906101000a900473ffffffffffffffffffffffffffffffffffffffff1673ffffffffffffffffffffffffffffffffffffffff163373ffffffffffffffffffffffffffffffffffffffff16146116cd576040517f08c379a00000000000000000000000000000000000000000000000000000000081526004016116c490612f6c565b60405180910390fd5b60006001856040516116df9190612d43565b908152602001604051809103902060000180546116fb906131b8565b90501161173d576040517f08c379a000000000000000000000000000000000000000000000000000000000815260040161173490612f8c565b60405180910390fd5b600060018560405161174f9190612d43565b9081526020016040518091039020604051806060016040529081600082018054611778906131b8565b80601f01602080910402602001604051908101604052809291908181526020018280546117a4906131b8565b80156117f15780601f106117c6576101008083540402835291602001916117f1565b820191906000526020600020905b8154815290600101906020018083116117d457829003601f168201915b5050505050815260200160018201805480602002602001604051908101604052809291908181526020016000905b828210156118cb57838290600052602060002001805461183e906131b8565b80601f016020809104026020016040519081016040528092919081815260200182805461186a906131b8565b80156118b75780601f1061188c576101008083540402835291602001916118b7565b820191906000526020600020905b81548152906001019060200180831161189a57829003601f168201915b50505050508152602001906001019061181f565b50505050815260200160028201805480602002602001604051908101604052809291908181526020016000905b828210156119a4578382906000526020600020018054611917906131b8565b80601f0160208091040260200160405190810160405280929190818152602001828054611943906131b8565b80156119905780601f1061196557610100808354040283529160200191611990565b820191906000526020600020905b81548152906001019060200180831161197357829003601f168201915b5050505050815260200190600101906118f8565b50505050815250509050806000015181604001518260200151935093509350509193909250565b600560009054906101000a900473ffffffffffffffffffffffffffffffffffffffff1673ffffffffffffffffffffffffffffffffffffffff163373ffffffffffffffffffffffffffffffffffffffff1614611a5b576040517f08c379a0000000000000000000000000000000000000000000000000000000008152600401611a5290612f6c565b60405180910390fd5b60405180610100016040528085815260200184815260200183815260200182815260200182815260200160001515815260200160001515815260200160011515815250600085604051611aae9190612d43565b90815260200160405180910390206000820151816000019080519060200190611ad8929190612509565b506020820151816001019080519060200190611af5929190612509565b506040820151816002019080519060200190611b129291906123bb565b506060820151816003019080519060200190611b2f929190612509565b506080820151816004019080519060200190611b4c929190612509565b5060a08201518160050160006101000a81548160ff02191690831515021790555060c08201518160050160016101000a81548160ff02191690831515021790555060e08201518160050160026101000a81548160ff021916908315150217905550905050600284908060018154018082558091505060019003906000526020600020016000909190919091509080519060200190611beb929190612509565b50611c2b846040518060400160405280600581526020017f55736572730000000000000000000000000000000000000000000000000000008152506121b4565b7f270ff4b111e5baa49283562af127cc5ea74e9d6c9efd5465578bd9223d5843f084604051611c5a9190612dae565b60405180910390a160016002805490501415611cef57611caf846040518060400160405280600681526020017f4f776e65727300000000000000000000000000000000000000000000000000008152506121b4565b611cee846040518060400160405280600e81526020017f41646d696e6973747261746f72730000000000000000000000000000000000008152506121b4565b5b50505050565b600560009054906101000a900473ffffffffffffffffffffffffffffffffffffffff1673ffffffffffffffffffffffffffffffffffffffff163373ffffffffffffffffffffffffffffffffffffffff1614611d85576040517f08c379a0000000000000000000000000000000000000000000000000000000008152600401611d7c90612f6c565b60405180910390fd5b80600083604051611d969190612d43565b90815260200160405180910390206001019080519060200190611dba929190612509565b5060008083604051611dcc9190612d43565b908152602001604051809103902060050160016101000a81548160ff0219169083151502179055507fd0b43b0b96083c98cc0f0370575812de87ee48ff1bde30bcd74f3518443bc4f582604051611e239190612dae565b60405180910390a15050565b600560009054906101000a900473ffffffffffffffffffffffffffffffffffffffff1673ffffffffffffffffffffffffffffffffffffffff163373ffffffffffffffffffffffffffffffffffffffff1614611ebf576040517f08c379a0000000000000000000000000000000000000000000000000000000008152600401611eb690612f6c565b60405180910390fd5b6040518060600160405280828152602001600067ffffffffffffffff811115611f11577f4e487b7100000000000000000000000000000000000000000000000000000000600052604160045260246000fd5b604051908082528060200260200182016040528015611f4457816020015b6060815260200190600190039081611f2f5790505b508152602001600067ffffffffffffffff811115611f8b577f4e487b7100000000000000000000000000000000000000000000000000000000600052604160045260246000fd5b604051908082528060200260200182016040528015611fbe57816020015b6060815260200190600190039081611fa95790505b50815250600182604051611fd29190612d43565b90815260200160405180910390206000820151816000019080519060200190611ffc929190612509565b5060208201518160010190805190602001906120199291906123bb565b5060408201518160020190805190602001906120369291906123bb565b50905050600381908060018154018082558091505060019003906000526020600020016000909190919091509080519060200190612075929190612509565b507fb4082bf161f07af2ff5aed9b78e2cb1baf973ed4f2cc2e6e8e81a46752cc3345816040516120a59190612dae565b60405180910390a150565b600560009054906101000a900473ffffffffffffffffffffffffffffffffffffffff1673ffffffffffffffffffffffffffffffffffffffff163373ffffffffffffffffffffffffffffffffffffffff1614612140576040517f08c379a000000000000000000000000000000000000000000000000000000000815260040161213790612f6c565b60405180910390fd5b60016000826040516121529190612d43565b908152602001604051809103902060050160016101000a81548160ff0219169083151502179055507f926f593dd22175375135b3fd9428c5d0298a5665da18756555b6af9f305ab9a6816040516121a99190612dae565b60405180910390a150565b600560009054906101000a900473ffffffffffffffffffffffffffffffffffffffff1673ffffffffffffffffffffffffffffffffffffffff163373ffffffffffffffffffffffffffffffffffffffff1614612244576040517f08c379a000000000000000000000000000000000000000000000000000000000815260040161223b90612f6c565b60405180910390fd5b60006001826040516122569190612d43565b90815260200160405180910390206000018054612272906131b8565b9050116122b4576040517f08c379a00000000000000000000000000000000000000000000000000000000081526004016122ab90612f8c565b60405180910390fd5b600080836040516122c59190612d43565b908152602001604051809103902060000180546122e1906131b8565b905011612323576040517f08c379a000000000000000000000000000000000000000000000000000000000815260040161231a90612fac565b60405180910390fd5b6001816040516123339190612d43565b90815260200160405180910390206001018290806001815401808255809150506001900390600052602060002001600090919091909150908051906020019061237d929190612509565b507f32475c6c091737c212dc5c54e3565db8aae94283f8b388d2c1dfe772b3f356e182826040516123af929190612e4c565b60405180910390a15050565b82805482825590600052602060002090810192821561240a579160200282015b828111156124095782518290805190602001906123f9929190612509565b50916020019190600101906123db565b5b509050612417919061258f565b5090565b508054612427906131b8565b6000825580601f106124395750612458565b601f01602090049060005260206000209081019061245791906125b3565b5b50565b5080546000825590600052602060002090810190612479919061258f565b50565b828054612488906131b8565b90600052602060002090601f0160209004810192826124aa57600085556124f8565b82601f106124bb57805485556124f8565b828001600101855582156124f857600052602060002091601f016020900482015b828111156124f75782548255916001019190600101906124dc565b5b50905061250591906125b3565b5090565b828054612515906131b8565b90600052602060002090601f016020900481019282612537576000855561257e565b82601f1061255057805160ff191683800117855561257e565b8280016001018555821561257e579182015b8281111561257d578251825591602001919060010190612562565b5b50905061258b91906125b3565b5090565b5b808211156125af57600081816125a6919061241b565b50600101612590565b5090565b5b808211156125cc5760008160009055506001016125b4565b5090565b60006125e36125de8461301d565b612fec565b9050808382526020820190508260005b8581101561262357813585016126098882612695565b8452602084019350602083019250506001810190506125f3565b5050509392505050565b600061264061263b84613049565b612fec565b90508281526020810184848401111561265857600080fd5b612663848285613176565b509392505050565b600082601f83011261267c57600080fd5b813561268c8482602086016125d0565b91505092915050565b600082601f8301126126a657600080fd5b81356126b684826020860161262d565b91505092915050565b6000602082840312156126d157600080fd5b600082013567ffffffffffffffff8111156126eb57600080fd5b6126f784828501612695565b91505092915050565b6000806040838503121561271357600080fd5b600083013567ffffffffffffffff81111561272d57600080fd5b61273985828601612695565b925050602083013567ffffffffffffffff81111561275657600080fd5b6127628582860161266b565b9150509250929050565b6000806040838503121561277f57600080fd5b600083013567ffffffffffffffff81111561279957600080fd5b6127a585828601612695565b925050602083013567ffffffffffffffff8111156127c257600080fd5b6127ce85828601612695565b9150509250929050565b600080600080608085870312156127ee57600080fd5b600085013567ffffffffffffffff81111561280857600080fd5b61281487828801612695565b945050602085013567ffffffffffffffff81111561283157600080fd5b61283d87828801612695565b935050604085013567ffffffffffffffff81111561285a57600080fd5b6128668782880161266b565b925050606085013567ffffffffffffffff81111561288357600080fd5b61288f87828801612695565b91505092959194509250565b60006128a783836129bb565b905092915050565b60006128bb8383612a5e565b905092915050565b60006128ce826130b3565b6128d881856130ee565b9350836020820285016128ea85613079565b8060005b858110156129265784840389528151612907858261289b565b9450612912836130d4565b925060208a019950506001810190506128ee565b50829750879550505050505092915050565b6000612943826130be565b61294d81856130ee565b93508360208202850161295f85613089565b8060005b8581101561299a5784840389528161297b85826128af565b9450612986836130e1565b925060208a01995050600181019050612963565b50829750879550505050505092915050565b6129b581613160565b82525050565b60006129c6826130c9565b6129d081856130ff565b93506129e0818560208601613185565b6129e9816132c0565b840191505092915050565b60006129ff826130c9565b612a098185613110565b9350612a19818560208601613185565b612a22816132c0565b840191505092915050565b6000612a38826130c9565b612a428185613121565b9350612a52818560208601613185565b80840191505092915050565b60008154612a6b816131b8565b612a7581866130ff565b94506001821660008114612a905760018114612aa257612ad5565b60ff1983168652602086019350612ad5565b612aab8561309e565b60005b83811015612acd57815481890152600182019150602081019050612aae565b808801955050505b50505092915050565b60008154612aeb816131b8565b612af58186613110565b94506001821660008114612b105760018114612b2257612b55565b60ff1983168652602086019350612b55565b612b2b8561309e565b60005b83811015612b4d57815481890152600182019150602081019050612b2e565b808801955050505b50505092915050565b60008154612b6b816131b8565b612b758186613121565b94506001821660008114612b905760018114612ba157612bd4565b60ff19831686528186019350612bd4565b612baa8561309e565b60005b83811015612bcc57815481890152600182019150602081019050612bad565b838801955050505b50505092915050565b6000612bea602083613110565b91507f47726f7570206e6f7420666f756e6420696e20616c6c47726f75704e616d65736000830152602082019050919050565b6000612c2a602f83613110565b91507f4f6e6c792074686520636f6e7472616374206f776e65722063616e207065726660008301527f6f726d207468697320616374696f6e00000000000000000000000000000000006020830152604082019050919050565b6000612c90601483613110565b91507f47726f757020646f6573206e6f742065786973740000000000000000000000006000830152602082019050919050565b6000612cd0601383613110565b91507f5573657220646f6573206e6f74206578697374000000000000000000000000006000830152602082019050919050565b6000612d10601983613110565b91507f55736572206973206e6f7420696e20746869732067726f7570000000000000006000830152602082019050919050565b6000612d4f8284612a2d565b915081905092915050565b6000612d668284612b5e565b915081905092915050565b60006020820190508181036000830152612d8b81846128c3565b905092915050565b6000602082019050612da860008301846129ac565b92915050565b60006020820190508181036000830152612dc881846129f4565b905092915050565b60006060820190508181036000830152612dea81866129f4565b90508181036020830152612dfe81856128c3565b90508181036040830152612e1281846128c3565b9050949350505050565b60006040820190508181036000830152612e3681856129f4565b9050612e4560208301846129ac565b9392505050565b60006040820190508181036000830152612e6681856129f4565b90508181036020830152612e7a81846129f4565b90509392505050565b600060e0820190508181036000830152612e9d818a6129f4565b90508181036020830152612eb181896129f4565b90508181036040830152612ec581886128c3565b90508181036060830152612ed981876129f4565b90508181036080830152612eed81866129f4565b9050612efc60a08301856129ac565b612f0960c08301846129ac565b98975050505050505050565b60006040820190508181036000830152612f2f8185612ade565b90508181036020830152612f438184612938565b90509392505050565b60006020820190508181036000830152612f6581612bdd565b9050919050565b60006020820190508181036000830152612f8581612c1d565b9050919050565b60006020820190508181036000830152612fa581612c83565b9050919050565b60006020820190508181036000830152612fc581612cc3565b9050919050565b60006020820190508181036000830152612fe581612d03565b9050919050565b6000604051905081810181811067ffffffffffffffff8211171561301357613012613291565b5b8060405250919050565b600067ffffffffffffffff82111561303857613037613291565b5b602082029050602081019050919050565b600067ffffffffffffffff82111561306457613063613291565b5b601f19601f8301169050602081019050919050565b6000819050602082019050919050565b60008190508160005260206000209050919050565b60008190508160005260206000209050919050565b600081519050919050565b600081549050919050565b600081519050919050565b6000602082019050919050565b6000600182019050919050565b600082825260208201905092915050565b600082825260208201905092915050565b600082825260208201905092915050565b600081905092915050565b60006131378261316c565b91506131428361316c565b92508282101561315557613154613233565b5b828203905092915050565b60008115159050919050565b6000819050919050565b82818337600083830152505050565b60005b838110156131a3578082015181840152602081019050613188565b838111156131b2576000848401525b50505050565b600060028204905060018216806131d057607f821691505b602082108114156131e4576131e3613262565b5b50919050565b60006131f58261316c565b91507fffffffffffffffffffffffffffffffffffffffffffffffffffffffffffffffff82141561322857613227613233565b5b600182019050919050565b7f4e487b7100000000000000000000000000000000000000000000000000000000600052601160045260246000fd5b7f4e487b7100000000000000000000000000000000000000000000000000000000600052602260045260246000fd5b7f4e487b7100000000000000000000000000000000000000000000000000000000600052604160045260246000fd5b6000601f19601f830116905091905056fea26469706673582212200ccf0f6b8aa0eb162499f40f8d242c0f6e086ae22bcb677f77730cf4ee8b032464736f6c63430008000033",
  "linkReferences": {},
  "deployedLinkReferences": {}
}