{
  "_format": "hh-sol-artifact-1",
  "contractName": "FaceGuard",
  "sourceName": "contracts/FaceGuard.sol",
  "abi": [
    {
      "inputs": [],
      "stateMutability": "nonpayable",
      "type": "constructor"
    },
    {
      "anonymous": false,
      "inputs": [
        {
          "indexed": false,
          "internalType": "string",
          "name": "username",
          "type": "string"
        }
      ],
      "name": "FaceHashUpdated",
      "type": "event"
    },
    {
      "anonymous": false,
      "inputs": [
        {
          "indexed": false,
          "internalType": "string",
          "name": "groupName",
          "type": "string"
        }
      ],
      "name": "GroupCreated",
      "type": "event"
    },
    {
      "anonymous": false,
      "inputs": [
        {
          "indexed": false,
          "internalType": "string",
          "name": "username",
          "type": "string"
        }
      ],
      "name": "PasswordUpdated",
      "type": "event"
    },
    {
      "anonymous": false,
      "inputs": [
        {
          "indexed": false,
          "internalType": "string",
          "name": "username",
          "type": "string"
        }
      ],
      "name": "PermissionsUpdated",
      "type": "event"
    },
    {
      "anonymous": false,
      "inputs": [
        {
          "indexed": false,
          "internalType": "string",
          "name": "username",
          "type": "string"
        },
        {
          "indexed": false,
          "internalType": "string",
          "name": "groupName",
          "type": "string"
        }
      ],
      "name": "UserAddedToGroup",
      "type": "event"
    },
    {
      "anonymous": false,
      "inputs": [
        {
          "indexed": false,
          "internalType": "string",
          "name": "username",
          "type": "string"
        },
        {
          "indexed": false,
          "internalType": "string",
          "name": "applicationKey",
          "type": "string"
        }
      ],
      "name": "UserRegistered",
      "type": "event"
    },
    {
      "anonymous": false,
      "inputs": [
        {
          "indexed": false,
          "internalType": "string",
          "name": "username",
          "type": "string"
        },
        {
          "indexed": false,
          "internalType": "string",
          "name": "groupName",
          "type": "string"
        }
      ],
      "name": "UserRemovedFromGroup",
      "type": "event"
    },
    {
      "anonymous": false,
      "inputs": [
        {
          "indexed": false,
          "internalType": "string",
          "name": "username",
          "type": "string"
        },
        {
          "indexed": false,
          "internalType": "bool",
          "name": "enabled",
          "type": "bool"
        }
      ],
      "name": "UserToggled",
      "type": "event"
    },
    {
      "inputs": [
        {
          "internalType": "string",
          "name": "username",
          "type": "string"
        },
        {
          "internalType": "string",
          "name": "groupName",
          "type": "string"
        }
      ],
      "name": "addUserToGroup",
      "outputs": [],
      "stateMutability": "nonpayable",
      "type": "function"
    },
    {
      "inputs": [
        {
          "internalType": "string",
          "name": "username",
          "type": "string"
        }
      ],
      "name": "checkIfUserExists",
      "outputs": [
        {
          "internalType": "bool",
          "name": "",
          "type": "bool"
        }
      ],
      "stateMutability": "view",
      "type": "function"
    },
    {
      "inputs": [
        {
          "internalType": "string",
          "name": "groupName",
          "type": "string"
        },
        {
          "internalType": "string",
          "name": "groupCreator",
          "type": "string"
        }
      ],
      "name": "createGroup",
      "outputs": [],
      "stateMutability": "nonpayable",
      "type": "function"
    },
    {
      "inputs": [
        {
          "internalType": "string",
          "name": "username",
          "type": "string"
        },
        {
          "internalType": "string[]",
          "name": "newPermissions",
          "type": "string[]"
        }
      ],
      "name": "editUserPermissions",
      "outputs": [],
      "stateMutability": "nonpayable",
      "type": "function"
    },
    {
      "inputs": [
        {
          "internalType": "string",
          "name": "groupName",
          "type": "string"
        }
      ],
      "name": "getGroup",
      "outputs": [
        {
          "internalType": "string",
          "name": "",
          "type": "string"
        },
        {
          "internalType": "string[]",
          "name": "",
          "type": "string[]"
        },
        {
          "internalType": "string[]",
          "name": "",
          "type": "string[]"
        }
      ],
      "stateMutability": "view",
      "type": "function"
    },
    {
      "inputs": [
        {
          "internalType": "string",
          "name": "username",
          "type": "string"
        }
      ],
      "name": "getUser",
      "outputs": [
        {
          "internalType": "string",
          "name": "",
          "type": "string"
        },
        {
          "internalType": "string",
          "name": "",
          "type": "string"
        },
        {
          "internalType": "bytes8[]",
          "name": "",
          "type": "bytes8[]"
        },
        {
          "internalType": "string[]",
          "name": "",
          "type": "string[]"
        },
        {
          "internalType": "string",
          "name": "",
          "type": "string"
        },
        {
          "internalType": "bool",
          "name": "",
          "type": "bool"
        }
      ],
      "stateMutability": "view",
      "type": "function"
    },
    {
      "inputs": [
        {
          "internalType": "string",
          "name": "username",
          "type": "string"
        }
      ],
      "name": "getUserFaceHashes",
      "outputs": [
        {
          "internalType": "bytes8[]",
          "name": "",
          "type": "bytes8[]"
        }
      ],
      "stateMutability": "view",
      "type": "function"
    },
    {
      "inputs": [
        {
          "internalType": "string",
          "name": "username",
          "type": "string"
        },
        {
          "internalType": "string",
          "name": "passwordHash",
          "type": "string"
        },
        {
          "internalType": "bytes8[]",
          "name": "initialFaceHashes",
          "type": "bytes8[]"
        },
        {
          "internalType": "string",
          "name": "applicationKey",
          "type": "string"
        }
      ],
      "name": "registerUser",
      "outputs": [],
      "stateMutability": "nonpayable",
      "type": "function"
    },
    {
      "inputs": [
        {
          "internalType": "string",
          "name": "username",
          "type": "string"
        }
      ],
      "name": "toggleUser",
      "outputs": [],
      "stateMutability": "nonpayable",
      "type": "function"
    },
    {
      "inputs": [
        {
          "internalType": "string",
          "name": "username",
          "type": "string"
        },
        {
          "internalType": "bytes8[]",
          "name": "newFaceHashes",
          "type": "bytes8[]"
        }
      ],
      "name": "updateUserFaceHash",
      "outputs": [],
      "stateMutability": "nonpayable",
      "type": "function"
    },
    {
      "inputs": [
        {
          "internalType": "string",
          "name": "username",
          "type": "string"
        },
        {
          "internalType": "string",
          "name": "newPasswordHash",
          "type": "string"
        }
      ],
      "name": "updateUserPassword",
      "outputs": [],
      "stateMutability": "nonpayable",
      "type": "function"
    }
  ],
  "bytecode": "0x608060405234801561001057600080fd5b5033600260006101000a81548173ffffffffffffffffffffffffffffffffffffffff021916908373ffffffffffffffffffffffffffffffffffffffff160217905550612249806100616000396000f3fe608060405234801561001057600080fd5b50600436106100a95760003560e01c80635108c3ab116100715780635108c3ab146101675780636cad193414610183578063abef281e146101b3578063c91bc46c146101e5578063ca62b1f214610201578063ecb5a4d51461021d576100a9565b80630fec248a146100ae57806319700588146100ca5780631e4a97dd146100e65780632d09d9e91461010257806331feb67114610132575b600080fd5b6100c860048036038101906100c39190611a08565b610239565b005b6100e460048036038101906100df91906118c4565b61047e565b005b61010060048036038101906100fb919061199c565b61057f565b005b61011c60048036038101906101179190611883565b6107c5565b6040516101299190611d88565b60405180910390f35b61014c60048036038101906101479190611883565b61087c565b60405161015e96959493929190611e9a565b60405180910390f35b610181600480360381019061017c9190611883565b610c26565b005b61019d60048036038101906101989190611883565b610d88565b6040516101aa9190611daa565b60405180910390f35b6101cd60048036038101906101c89190611883565b610dc1565b6040516101dc93929190611de7565b60405180910390f35b6101ff60048036038101906101fa919061199c565b6110c4565b005b61021b60048036038101906102169190611930565b6111c5565b005b6102376004803603810190610232919061199c565b6112c6565b005b600260009054906101000a900473ffffffffffffffffffffffffffffffffffffffff1673ffffffffffffffffffffffffffffffffffffffff163373ffffffffffffffffffffffffffffffffffffffff16146102c9576040517f08c379a00000000000000000000000000000000000000000000000000000000081526004016102c090611f1e565b60405180910390fd5b6040518060c00160405280858152602001848152602001838152602001600067ffffffffffffffff811115610327577f4e487b7100000000000000000000000000000000000000000000000000000000600052604160045260246000fd5b60405190808252806020026020018201604052801561035a57816020015b60608152602001906001900390816103455790505b5081526020018281526020016001151581525060008560405161037d9190611d71565b908152602001604051809103902060008201518160000190805190602001906103a79291906114cd565b5060208201518160010190805190602001906103c49291906114cd565b5060408201518160020190805190602001906103e1929190611553565b5060608201518160030190805190602001906103fe929190611608565b50608082015181600401908051906020019061041b9291906114cd565b5060a08201518160050160006101000a81548160ff0219169083151502179055509050507f996d7324173609959370942b1ee1b743dc623b3d50459e66c1d55df55e5a9f378482604051610470929190611e63565b60405180910390a150505050565b600260009054906101000a900473ffffffffffffffffffffffffffffffffffffffff1673ffffffffffffffffffffffffffffffffffffffff163373ffffffffffffffffffffffffffffffffffffffff161461050e576040517f08c379a000000000000000000000000000000000000000000000000000000000815260040161050590611f1e565b60405180910390fd5b8060008360405161051f9190611d71565b90815260200160405180910390206002019080519060200190610543929190611553565b507feb1060ec96e942d51b0f7b8b00c334c5c6da57c48f5ef56937468d28d0ee347a826040516105739190611dc5565b60405180910390a15050565b600260009054906101000a900473ffffffffffffffffffffffffffffffffffffffff1673ffffffffffffffffffffffffffffffffffffffff163373ffffffffffffffffffffffffffffffffffffffff161461060f576040517f08c379a000000000000000000000000000000000000000000000000000000000815260040161060690611f1e565b60405180910390fd5b6040518060600160405280838152602001600067ffffffffffffffff811115610661577f4e487b7100000000000000000000000000000000000000000000000000000000600052604160045260246000fd5b60405190808252806020026020018201604052801561069457816020015b606081526020019060019003908161067f5790505b508152602001600067ffffffffffffffff8111156106db577f4e487b7100000000000000000000000000000000000000000000000000000000600052604160045260246000fd5b60405190808252806020026020018201604052801561070e57816020015b60608152602001906001900390816106f95790505b508152506001836040516107229190611d71565b9081526020016040518091039020600082015181600001908051906020019061074c9291906114cd565b506020820151816001019080519060200190610769929190611608565b506040820151816002019080519060200190610786929190611608565b509050507fb4082bf161f07af2ff5aed9b78e2cb1baf973ed4f2cc2e6e8e81a46752cc3345826040516107b99190611dc5565b60405180910390a15050565b60606000826040516107d79190611d71565b908152602001604051809103902060020180548060200260200160405190810160405280929190818152602001828054801561087057602002820191906000526020600020906000905b82829054906101000a900460c01b77ffffffffffffffffffffffffffffffffffffffffffffffff1916815260200190600801906020826007010492830192600103820291508084116108215790505b50505050509050919050565b60608060608060606000806000886040516108979190611d71565b90815260200160405180910390206040518060c00160405290816000820180546108c09061215b565b80601f01602080910402602001604051908101604052809291908181526020018280546108ec9061215b565b80156109395780601f1061090e57610100808354040283529160200191610939565b820191906000526020600020905b81548152906001019060200180831161091c57829003601f168201915b505050505081526020016001820180546109529061215b565b80601f016020809104026020016040519081016040528092919081815260200182805461097e9061215b565b80156109cb5780601f106109a0576101008083540402835291602001916109cb565b820191906000526020600020905b8154815290600101906020018083116109ae57829003601f168201915b5050505050815260200160028201805480602002602001604051908101604052809291908181526020018280548015610a6157602002820191906000526020600020906000905b82829054906101000a900460c01b77ffffffffffffffffffffffffffffffffffffffffffffffff191681526020019060080190602082600701049283019260010382029150808411610a125790505b5050505050815260200160038201805480602002602001604051908101604052809291908181526020016000905b82821015610b3b578382906000526020600020018054610aae9061215b565b80601f0160208091040260200160405190810160405280929190818152602001828054610ada9061215b565b8015610b275780601f10610afc57610100808354040283529160200191610b27565b820191906000526020600020905b815481529060010190602001808311610b0a57829003601f168201915b505050505081526020019060010190610a8f565b505050508152602001600482018054610b539061215b565b80601f0160208091040260200160405190810160405280929190818152602001828054610b7f9061215b565b8015610bcc5780601f10610ba157610100808354040283529160200191610bcc565b820191906000526020600020905b815481529060010190602001808311610baf57829003601f168201915b505050505081526020016005820160009054906101000a900460ff1615151515815250509050806000015181602001518260400151836060015184608001518560a001519650965096509650965096505091939550919395565b600260009054906101000a900473ffffffffffffffffffffffffffffffffffffffff1673ffffffffffffffffffffffffffffffffffffffff163373ffffffffffffffffffffffffffffffffffffffff1614610cb6576040517f08c379a0000000000000000000000000000000000000000000000000000000008152600401610cad90611f1e565b60405180910390fd5b600081604051610cc69190611d71565b908152602001604051809103902060050160009054906101000a900460ff1615600082604051610cf69190611d71565b908152602001604051809103902060050160006101000a81548160ff0219169083151502179055507f9b1a1e5131c18ee5fd8454b3b435b1b36127bd0c05686d9fc6190d638bcb149981600083604051610d509190611d71565b908152602001604051809103902060050160009054906101000a900460ff16604051610d7d929190611e33565b60405180910390a150565b600080600083604051610d9b9190611d71565b90815260200160405180910390206000018054610db79061215b565b9050119050919050565b60608060606000600185604051610dd89190611d71565b90815260200160405180910390206000018054610df49061215b565b905011610e36576040517f08c379a0000000000000000000000000000000000000000000000000000000008152600401610e2d90611f3e565b60405180910390fd5b6000600185604051610e489190611d71565b9081526020016040518091039020604051806060016040529081600082018054610e719061215b565b80601f0160208091040260200160405190810160405280929190818152602001828054610e9d9061215b565b8015610eea5780601f10610ebf57610100808354040283529160200191610eea565b820191906000526020600020905b815481529060010190602001808311610ecd57829003601f168201915b5050505050815260200160018201805480602002602001604051908101604052809291908181526020016000905b82821015610fc4578382906000526020600020018054610f379061215b565b80601f0160208091040260200160405190810160405280929190818152602001828054610f639061215b565b8015610fb05780601f10610f8557610100808354040283529160200191610fb0565b820191906000526020600020905b815481529060010190602001808311610f9357829003601f168201915b505050505081526020019060010190610f18565b50505050815260200160028201805480602002602001604051908101604052809291908181526020016000905b8282101561109d5783829060005260206000200180546110109061215b565b80601f016020809104026020016040519081016040528092919081815260200182805461103c9061215b565b80156110895780601f1061105e57610100808354040283529160200191611089565b820191906000526020600020905b81548152906001019060200180831161106c57829003601f168201915b505050505081526020019060010190610ff1565b50505050815250509050806000015181602001518260400151935093509350509193909250565b600260009054906101000a900473ffffffffffffffffffffffffffffffffffffffff1673ffffffffffffffffffffffffffffffffffffffff163373ffffffffffffffffffffffffffffffffffffffff1614611154576040517f08c379a000000000000000000000000000000000000000000000000000000000815260040161114b90611f1e565b60405180910390fd5b806000836040516111659190611d71565b908152602001604051809103902060010190805190602001906111899291906114cd565b507fd0b43b0b96083c98cc0f0370575812de87ee48ff1bde30bcd74f3518443bc4f5826040516111b99190611dc5565b60405180910390a15050565b600260009054906101000a900473ffffffffffffffffffffffffffffffffffffffff1673ffffffffffffffffffffffffffffffffffffffff163373ffffffffffffffffffffffffffffffffffffffff1614611255576040517f08c379a000000000000000000000000000000000000000000000000000000000815260040161124c90611f1e565b60405180910390fd5b806000836040516112669190611d71565b9081526020016040518091039020600301908051906020019061128a929190611608565b507f41c6e110b0fd95e082e424c7d45e89ce057d9d5c2704c744e5ba0cd0122c774f826040516112ba9190611dc5565b60405180910390a15050565b600260009054906101000a900473ffffffffffffffffffffffffffffffffffffffff1673ffffffffffffffffffffffffffffffffffffffff163373ffffffffffffffffffffffffffffffffffffffff1614611356576040517f08c379a000000000000000000000000000000000000000000000000000000000815260040161134d90611f1e565b60405180910390fd5b60006001826040516113689190611d71565b908152602001604051809103902060000180546113849061215b565b9050116113c6576040517f08c379a00000000000000000000000000000000000000000000000000000000081526004016113bd90611f3e565b60405180910390fd5b600080836040516113d79190611d71565b908152602001604051809103902060000180546113f39061215b565b905011611435576040517f08c379a000000000000000000000000000000000000000000000000000000000815260040161142c90611f5e565b60405180910390fd5b6001816040516114459190611d71565b90815260200160405180910390206001018290806001815401808255809150506001900390600052602060002001600090919091909150908051906020019061148f9291906114cd565b507f32475c6c091737c212dc5c54e3565db8aae94283f8b388d2c1dfe772b3f356e182826040516114c1929190611e63565b60405180910390a15050565b8280546114d99061215b565b90600052602060002090601f0160209004810192826114fb5760008555611542565b82601f1061151457805160ff1916838001178555611542565b82800160010185558215611542579182015b82811115611541578251825591602001919060010190611526565b5b50905061154f9190611668565b5090565b828054828255906000526020600020906003016004900481019282156115f75791602002820160005b838211156115c157835183826101000a81548167ffffffffffffffff021916908360c01c0217905550926020019260080160208160070104928301926001030261157c565b80156115f55782816101000a81549067ffffffffffffffff02191690556008016020816007010492830192600103026115c1565b505b5090506116049190611668565b5090565b828054828255906000526020600020908101928215611657579160200282015b828111156116565782518290805190602001906116469291906114cd565b5091602001919060010190611628565b5b5090506116649190611685565b5090565b5b80821115611681576000816000905550600101611669565b5090565b5b808211156116a5576000818161169c91906116a9565b50600101611686565b5090565b5080546116b59061215b565b6000825580601f106116c757506116e6565b601f0160209004906000526020600020908101906116e59190611668565b5b50565b60006116fc6116f784611faf565b611f7e565b9050808382526020820190508285602086028201111561171b57600080fd5b60005b8581101561174b57816117318882611844565b84526020840193506020830192505060018101905061171e565b5050509392505050565b600061176861176384611fdb565b611f7e565b9050808382526020820190508260005b858110156117a8578135850161178e8882611859565b845260208401935060208301925050600181019050611778565b5050509392505050565b60006117c56117c084612007565b611f7e565b9050828152602081018484840111156117dd57600080fd5b6117e8848285612119565b509392505050565b600082601f83011261180157600080fd5b81356118118482602086016116e9565b91505092915050565b600082601f83011261182b57600080fd5b813561183b848260208601611755565b91505092915050565b600081359050611853816121fc565b92915050565b600082601f83011261186a57600080fd5b813561187a8482602086016117b2565b91505092915050565b60006020828403121561189557600080fd5b600082013567ffffffffffffffff8111156118af57600080fd5b6118bb84828501611859565b91505092915050565b600080604083850312156118d757600080fd5b600083013567ffffffffffffffff8111156118f157600080fd5b6118fd85828601611859565b925050602083013567ffffffffffffffff81111561191a57600080fd5b611926858286016117f0565b9150509250929050565b6000806040838503121561194357600080fd5b600083013567ffffffffffffffff81111561195d57600080fd5b61196985828601611859565b925050602083013567ffffffffffffffff81111561198657600080fd5b6119928582860161181a565b9150509250929050565b600080604083850312156119af57600080fd5b600083013567ffffffffffffffff8111156119c957600080fd5b6119d585828601611859565b925050602083013567ffffffffffffffff8111156119f257600080fd5b6119fe85828601611859565b9150509250929050565b60008060008060808587031215611a1e57600080fd5b600085013567ffffffffffffffff811115611a3857600080fd5b611a4487828801611859565b945050602085013567ffffffffffffffff811115611a6157600080fd5b611a6d87828801611859565b935050604085013567ffffffffffffffff811115611a8a57600080fd5b611a96878288016117f0565b925050606085013567ffffffffffffffff811115611ab357600080fd5b611abf87828801611859565b91505092959194509250565b6000611ad78383611bd9565b60208301905092915050565b6000611aef8383611be8565b905092915050565b6000611b0282612057565b611b0c8185612092565b9350611b1783612037565b8060005b83811015611b48578151611b2f8882611acb565b9750611b3a83612078565b925050600181019050611b1b565b5085935050505092915050565b6000611b6082612062565b611b6a81856120a3565b935083602082028501611b7c85612047565b8060005b85811015611bb85784840389528151611b998582611ae3565b9450611ba483612085565b925060208a01995050600181019050611b80565b50829750879550505050505092915050565b611bd3816120e1565b82525050565b611be2816120ed565b82525050565b6000611bf38261206d565b611bfd81856120b4565b9350611c0d818560208601612128565b611c16816121eb565b840191505092915050565b6000611c2c8261206d565b611c3681856120c5565b9350611c46818560208601612128565b611c4f816121eb565b840191505092915050565b6000611c658261206d565b611c6f81856120d6565b9350611c7f818560208601612128565b80840191505092915050565b6000611c98602f836120c5565b91507f4f6e6c792074686520636f6e7472616374206f776e65722063616e207065726660008301527f6f726d207468697320616374696f6e00000000000000000000000000000000006020830152604082019050919050565b6000611cfe6014836120c5565b91507f47726f757020646f6573206e6f742065786973740000000000000000000000006000830152602082019050919050565b6000611d3e6013836120c5565b91507f5573657220646f6573206e6f74206578697374000000000000000000000000006000830152602082019050919050565b6000611d7d8284611c5a565b915081905092915050565b60006020820190508181036000830152611da28184611af7565b905092915050565b6000602082019050611dbf6000830184611bca565b92915050565b60006020820190508181036000830152611ddf8184611c21565b905092915050565b60006060820190508181036000830152611e018186611c21565b90508181036020830152611e158185611b55565b90508181036040830152611e298184611b55565b9050949350505050565b60006040820190508181036000830152611e4d8185611c21565b9050611e5c6020830184611bca565b9392505050565b60006040820190508181036000830152611e7d8185611c21565b90508181036020830152611e918184611c21565b90509392505050565b600060c0820190508181036000830152611eb48189611c21565b90508181036020830152611ec88188611c21565b90508181036040830152611edc8187611af7565b90508181036060830152611ef08186611b55565b90508181036080830152611f048185611c21565b9050611f1360a0830184611bca565b979650505050505050565b60006020820190508181036000830152611f3781611c8b565b9050919050565b60006020820190508181036000830152611f5781611cf1565b9050919050565b60006020820190508181036000830152611f7781611d31565b9050919050565b6000604051905081810181811067ffffffffffffffff82111715611fa557611fa46121bc565b5b8060405250919050565b600067ffffffffffffffff821115611fca57611fc96121bc565b5b602082029050602081019050919050565b600067ffffffffffffffff821115611ff657611ff56121bc565b5b602082029050602081019050919050565b600067ffffffffffffffff821115612022576120216121bc565b5b601f19601f8301169050602081019050919050565b6000819050602082019050919050565b6000819050602082019050919050565b600081519050919050565b600081519050919050565b600081519050919050565b6000602082019050919050565b6000602082019050919050565b600082825260208201905092915050565b600082825260208201905092915050565b600082825260208201905092915050565b600082825260208201905092915050565b600081905092915050565b60008115159050919050565b60007fffffffffffffffff00000000000000000000000000000000000000000000000082169050919050565b82818337600083830152505050565b60005b8381101561214657808201518184015260208101905061212b565b83811115612155576000848401525b50505050565b6000600282049050600182168061217357607f821691505b602082108114156121875761218661218d565b5b50919050565b7f4e487b7100000000000000000000000000000000000000000000000000000000600052602260045260246000fd5b7f4e487b7100000000000000000000000000000000000000000000000000000000600052604160045260246000fd5b6000601f19601f8301169050919050565b612205816120ed565b811461221057600080fd5b5056fea264697066735822122081ff3fc54fe8205d1a08798dde2a16febcf34858d5478f83e21801786a6f79ff64736f6c63430008000033",
  "linkReferences": {},
  "deployedLinkReferences": {}
}