{
  "_format": "hh-sol-artifact-1",
  "contractName": "FaceGuard",
  "sourceName": "contracts/FaceGuard.sol",
  "abi": [
    {
      "inputs": [
        {
          "internalType": "string",
          "name": "creationDate",
          "type": "string"
        }
      ],
      "stateMutability": "nonpayable",
      "type": "constructor"
    },
    {
      "anonymous": false,
      "inputs": [
        {
          "indexed": false,
          "internalType": "string",
          "name": "username",
          "type": "string"
        }
      ],
      "name": "FaceHashUpdated",
      "type": "event"
    },
    {
      "anonymous": false,
      "inputs": [
        {
          "indexed": false,
          "internalType": "string",
          "name": "groupName",
          "type": "string"
        }
      ],
      "name": "GroupCreated",
      "type": "event"
    },
    {
      "anonymous": false,
      "inputs": [
        {
          "indexed": false,
          "internalType": "string",
          "name": "groupName",
          "type": "string"
        },
        {
          "indexed": false,
          "internalType": "string[]",
          "name": "permissions",
          "type": "string[]"
        }
      ],
      "name": "GroupPermissionsUpdated",
      "type": "event"
    },
    {
      "anonymous": false,
      "inputs": [
        {
          "indexed": false,
          "internalType": "string",
          "name": "username",
          "type": "string"
        }
      ],
      "name": "PasswordChangeRequired",
      "type": "event"
    },
    {
      "anonymous": false,
      "inputs": [
        {
          "indexed": false,
          "internalType": "string",
          "name": "username",
          "type": "string"
        }
      ],
      "name": "PasswordUpdated",
      "type": "event"
    },
    {
      "anonymous": false,
      "inputs": [
        {
          "indexed": false,
          "internalType": "string",
          "name": "username",
          "type": "string"
        }
      ],
      "name": "PermissionsUpdated",
      "type": "event"
    },
    {
      "anonymous": false,
      "inputs": [
        {
          "indexed": false,
          "internalType": "string",
          "name": "username",
          "type": "string"
        },
        {
          "indexed": false,
          "internalType": "string",
          "name": "groupName",
          "type": "string"
        }
      ],
      "name": "UserAddedToGroup",
      "type": "event"
    },
    {
      "anonymous": false,
      "inputs": [
        {
          "indexed": false,
          "internalType": "string",
          "name": "username",
          "type": "string"
        }
      ],
      "name": "UserRegistered",
      "type": "event"
    },
    {
      "anonymous": false,
      "inputs": [
        {
          "indexed": false,
          "internalType": "string",
          "name": "username",
          "type": "string"
        },
        {
          "indexed": false,
          "internalType": "string",
          "name": "groupName",
          "type": "string"
        }
      ],
      "name": "UserRemovedFromGroup",
      "type": "event"
    },
    {
      "anonymous": false,
      "inputs": [
        {
          "indexed": false,
          "internalType": "string",
          "name": "username",
          "type": "string"
        },
        {
          "indexed": false,
          "internalType": "bool",
          "name": "enabled",
          "type": "bool"
        }
      ],
      "name": "UserToggled",
      "type": "event"
    },
    {
      "inputs": [
        {
          "internalType": "string",
          "name": "username",
          "type": "string"
        },
        {
          "internalType": "string",
          "name": "groupName",
          "type": "string"
        }
      ],
      "name": "addUserToGroup",
      "outputs": [],
      "stateMutability": "nonpayable",
      "type": "function"
    },
    {
      "inputs": [
        {
          "internalType": "string",
          "name": "username",
          "type": "string"
        }
      ],
      "name": "checkIfUserExists",
      "outputs": [
        {
          "internalType": "bool",
          "name": "",
          "type": "bool"
        }
      ],
      "stateMutability": "view",
      "type": "function"
    },
    {
      "inputs": [
        {
          "internalType": "string",
          "name": "groupName",
          "type": "string"
        },
        {
          "internalType": "string",
          "name": "groupCreator",
          "type": "string"
        }
      ],
      "name": "createGroup",
      "outputs": [],
      "stateMutability": "nonpayable",
      "type": "function"
    },
    {
      "inputs": [],
      "name": "getAllUsernames",
      "outputs": [
        {
          "internalType": "string[]",
          "name": "",
          "type": "string[]"
        }
      ],
      "stateMutability": "view",
      "type": "function"
    },
    {
      "inputs": [
        {
          "internalType": "string",
          "name": "groupName",
          "type": "string"
        }
      ],
      "name": "getGroup",
      "outputs": [
        {
          "internalType": "string",
          "name": "",
          "type": "string"
        },
        {
          "internalType": "string[]",
          "name": "",
          "type": "string[]"
        },
        {
          "internalType": "string[]",
          "name": "",
          "type": "string[]"
        }
      ],
      "stateMutability": "view",
      "type": "function"
    },
    {
      "inputs": [
        {
          "internalType": "string",
          "name": "username",
          "type": "string"
        }
      ],
      "name": "getUser",
      "outputs": [
        {
          "internalType": "string",
          "name": "",
          "type": "string"
        },
        {
          "internalType": "string",
          "name": "",
          "type": "string"
        },
        {
          "internalType": "string[]",
          "name": "",
          "type": "string[]"
        },
        {
          "internalType": "string[]",
          "name": "",
          "type": "string[]"
        },
        {
          "internalType": "string",
          "name": "",
          "type": "string"
        },
        {
          "internalType": "string",
          "name": "",
          "type": "string"
        },
        {
          "internalType": "bool",
          "name": "",
          "type": "bool"
        },
        {
          "internalType": "bool",
          "name": "",
          "type": "bool"
        }
      ],
      "stateMutability": "view",
      "type": "function"
    },
    {
      "inputs": [
        {
          "internalType": "string",
          "name": "username",
          "type": "string"
        }
      ],
      "name": "getUserFaceHashes",
      "outputs": [
        {
          "internalType": "string[]",
          "name": "",
          "type": "string[]"
        }
      ],
      "stateMutability": "view",
      "type": "function"
    },
    {
      "inputs": [
        {
          "internalType": "string",
          "name": "username",
          "type": "string"
        },
        {
          "internalType": "string",
          "name": "passwordHash",
          "type": "string"
        },
        {
          "internalType": "string[]",
          "name": "initialFaceHashes",
          "type": "string[]"
        },
        {
          "internalType": "string",
          "name": "creationDate",
          "type": "string"
        }
      ],
      "name": "registerUser",
      "outputs": [],
      "stateMutability": "nonpayable",
      "type": "function"
    },
    {
      "inputs": [
        {
          "internalType": "string",
          "name": "username",
          "type": "string"
        }
      ],
      "name": "requireUserPasswordChange",
      "outputs": [],
      "stateMutability": "nonpayable",
      "type": "function"
    },
    {
      "inputs": [
        {
          "internalType": "string",
          "name": "groupName",
          "type": "string"
        },
        {
          "internalType": "string[]",
          "name": "groupPermissions",
          "type": "string[]"
        }
      ],
      "name": "setGroupPermissions",
      "outputs": [
        {
          "internalType": "string",
          "name": "",
          "type": "string"
        }
      ],
      "stateMutability": "nonpayable",
      "type": "function"
    },
    {
      "inputs": [
        {
          "internalType": "string",
          "name": "username",
          "type": "string"
        }
      ],
      "name": "toggleUser",
      "outputs": [],
      "stateMutability": "nonpayable",
      "type": "function"
    },
    {
      "inputs": [
        {
          "internalType": "string",
          "name": "username",
          "type": "string"
        },
        {
          "internalType": "string[]",
          "name": "newFaceHashes",
          "type": "string[]"
        }
      ],
      "name": "updateUserFaceHash",
      "outputs": [],
      "stateMutability": "nonpayable",
      "type": "function"
    },
    {
      "inputs": [
        {
          "internalType": "string",
          "name": "username",
          "type": "string"
        },
        {
          "internalType": "string",
          "name": "newPasswordHash",
          "type": "string"
        }
      ],
      "name": "updateUserPassword",
      "outputs": [],
      "stateMutability": "nonpayable",
      "type": "function"
    }
  ],
  "bytecode": "0x60806040523480156200001157600080fd5b506040516200417f3803806200417f833981810160405281019062000037919062001203565b33600460006101000a81548173ffffffffffffffffffffffffffffffffffffffff021916908373ffffffffffffffffffffffffffffffffffffffff16021790555060405180606001604052806040518060400160405280600681526020017f4f776e65727300000000000000000000000000000000000000000000000000008152508152602001600067ffffffffffffffff81111562000100577f4e487b7100000000000000000000000000000000000000000000000000000000600052604160045260246000fd5b6040519080825280602002602001820160405280156200013557816020015b60608152602001906001900390816200011f5790505b508152602001600067ffffffffffffffff8111156200017d577f4e487b7100000000000000000000000000000000000000000000000000000000600052604160045260246000fd5b604051908082528060200260200182016040528015620001b257816020015b60608152602001906001900390816200019c5790505b508152506001604051620001c69062001692565b90815260200160405180910390206000820151816000019080519060200190620001f29291906200100c565b506020820151816001019080519060200190620002119291906200109d565b506040820151816002019080519060200190620002309291906200109d565b509050507fb4082bf161f07af2ff5aed9b78e2cb1baf973ed4f2cc2e6e8e81a46752cc33456040516200026390620017cb565b60405180910390a160405180606001604052806040518060400160405280600581526020017f55736572730000000000000000000000000000000000000000000000000000008152508152602001600067ffffffffffffffff811115620002f3577f4e487b7100000000000000000000000000000000000000000000000000000000600052604160045260246000fd5b6040519080825280602002602001820160405280156200032857816020015b6060815260200190600190039081620003125790505b508152602001600067ffffffffffffffff81111562000370577f4e487b7100000000000000000000000000000000000000000000000000000000600052604160045260246000fd5b604051908082528060200260200182016040528015620003a557816020015b60608152602001906001900390816200038f5790505b508152506001604051620003b9906200167b565b90815260200160405180910390206000820151816000019080519060200190620003e59291906200100c565b506020820151816001019080519060200190620004049291906200109d565b506040820151816002019080519060200190620004239291906200109d565b509050507fb4082bf161f07af2ff5aed9b78e2cb1baf973ed4f2cc2e6e8e81a46752cc3345604051620004569062001743565b60405180910390a1600380600181540180825580915050600190039060005260206000200160006040518060400160405280600c81526020017f46756c6c20436f6e74726f6c000000000000000000000000000000000000000081525090919091509080519060200190620004cd9291906200100c565b50620005f06040518060400160405280600681526020017f4f776e65727300000000000000000000000000000000000000000000000000008152506003805480602002602001604051908101604052809291908181526020016000905b82821015620005e05783829060005260206000200180546200054c9062001915565b80601f01602080910402602001604051908101604052809291908181526020018280546200057a9062001915565b8015620005cb5780601f106200059f57610100808354040283529160200191620005cb565b820191906000526020600020905b815481529060010190602001808311620005ad57829003601f168201915b5050505050815260200190600101906200052a565b505050506200070d60201b60201c565b50620006c06040518060400160405280600d81526020017f41646d696e6973747261746f720000000000000000000000000000000000000081525060405180602001604052806000815250600067ffffffffffffffff8111156200067d577f4e487b7100000000000000000000000000000000000000000000000000000000600052604160045260246000fd5b604051908082528060200260200182016040528015620006b257816020015b60608152602001906001900390816200069c5790505b50846200098e60201b60201c565b620007066040518060400160405280600d81526020017f41646d696e6973747261746f720000000000000000000000000000000000000081525062000ce360201b60201c565b50620019ba565b6060600460009054906101000a900473ffffffffffffffffffffffffffffffffffffffff1673ffffffffffffffffffffffffffffffffffffffff163373ffffffffffffffffffffffffffffffffffffffff1614620007a2576040517f08c379a0000000000000000000000000000000000000000000000000000000008152600401620007999062001765565b60405180910390fd5b6000600184604051620007b6919062001662565b90815260200160405180910390206000018054620007d49062001915565b90501162000819576040517f08c379a0000000000000000000000000000000000000000000000000000000008152600401620008109062001787565b60405180910390fd5b816001846040516200082c919062001662565b90815260200160405180910390206002019080519060200190620008529291906200109d565b507f65d29756900166ea1a95042b775077b9e0c4b52e2ad303784b8fc75584de59ef60018460405162000886919062001662565b9081526020016040518091039020600001600185604051620008a9919062001662565b9081526020016040518091039020600201604051620008ca92919062001708565b60405180910390a1600183604051620008e4919062001662565b90815260200160405180910390206000018054620009029062001915565b80601f0160208091040260200160405190810160405280929190818152602001828054620009309062001915565b8015620009815780601f10620009555761010080835404028352916020019162000981565b820191906000526020600020905b8154815290600101906020018083116200096357829003601f168201915b5050505050905092915050565b600460009054906101000a900473ffffffffffffffffffffffffffffffffffffffff1673ffffffffffffffffffffffffffffffffffffffff163373ffffffffffffffffffffffffffffffffffffffff161462000a21576040517f08c379a000000000000000000000000000000000000000000000000000000000815260040162000a189062001765565b60405180910390fd5b604051806101200160405280858152602001848152602001838152602001600067ffffffffffffffff81111562000a81577f4e487b7100000000000000000000000000000000000000000000000000000000600052604160045260246000fd5b60405190808252806020026020018201604052801562000ab657816020015b606081526020019060019003908162000aa05790505b5081526020018281526020018281526020016000151581526020016000151581526020016001151581525060008560405162000af3919062001662565b9081526020016040518091039020600082015181600001908051906020019062000b1f9291906200100c565b50602082015181600101908051906020019062000b3e9291906200100c565b50604082015181600201908051906020019062000b5d9291906200109d565b50606082015181600301908051906020019062000b7c9291906200109d565b50608082015181600401908051906020019062000b9b9291906200100c565b5060a082015181600501908051906020019062000bba9291906200100c565b5060c08201518160060160006101000a81548160ff02191690831515021790555060e08201518160060160016101000a81548160ff0219169083151502179055506101008201518160060160026101000a81548160ff02191690831515021790555090505060028490806001815401808255809150506001900390600052602060002001600090919091909150908051906020019062000c5c9291906200100c565b5062000ca4846040518060400160405280600581526020017f557365727300000000000000000000000000000000000000000000000000000081525062000dee60201b60201c565b7f270ff4b111e5baa49283562af127cc5ea74e9d6c9efd5465578bd9223d5843f08460405162000cd59190620016a9565b60405180910390a150505050565b600460009054906101000a900473ffffffffffffffffffffffffffffffffffffffff1673ffffffffffffffffffffffffffffffffffffffff163373ffffffffffffffffffffffffffffffffffffffff161462000d76576040517f08c379a000000000000000000000000000000000000000000000000000000000815260040162000d6d9062001765565b60405180910390fd5b600160008260405162000d8a919062001662565b908152602001604051809103902060060160016101000a81548160ff0219169083151502179055507f926f593dd22175375135b3fd9428c5d0298a5665da18756555b6af9f305ab9a68160405162000de39190620016a9565b60405180910390a150565b600460009054906101000a900473ffffffffffffffffffffffffffffffffffffffff1673ffffffffffffffffffffffffffffffffffffffff163373ffffffffffffffffffffffffffffffffffffffff161462000e81576040517f08c379a000000000000000000000000000000000000000000000000000000000815260040162000e789062001765565b60405180910390fd5b600060018260405162000e95919062001662565b9081526020016040518091039020600001805462000eb39062001915565b90501162000ef8576040517f08c379a000000000000000000000000000000000000000000000000000000000815260040162000eef9062001787565b60405180910390fd5b6000808360405162000f0b919062001662565b9081526020016040518091039020600001805462000f299062001915565b90501162000f6e576040517f08c379a000000000000000000000000000000000000000000000000000000000815260040162000f6590620017a9565b60405180910390fd5b60018160405162000f80919062001662565b90815260200160405180910390206001018290806001815401808255809150506001900390600052602060002001600090919091909150908051906020019062000fcc9291906200100c565b507f32475c6c091737c212dc5c54e3565db8aae94283f8b388d2c1dfe772b3f356e1828260405162001000929190620016cd565b60405180910390a15050565b8280546200101a9062001915565b90600052602060002090601f0160209004810192826200103e57600085556200108a565b82601f106200105957805160ff19168380011785556200108a565b828001600101855582156200108a579182015b82811115620010895782518255916020019190600101906200106c565b5b50905062001099919062001104565b5090565b828054828255906000526020600020908101928215620010f1579160200282015b82811115620010f0578251829080519060200190620010df9291906200100c565b5091602001919060010190620010be565b5b50905062001100919062001123565b5090565b5b808211156200111f57600081600090555060010162001105565b5090565b5b808211156200114757600081816200113d91906200114b565b5060010162001124565b5090565b508054620011599062001915565b6000825580601f106200116d57506200118e565b601f0160209004906000526020600020908101906200118d919062001104565b5b50565b6000620011a8620011a28462001821565b620017ed565b905082815260208101848484011115620011c157600080fd5b620011ce848285620018df565b509392505050565b600082601f830112620011e857600080fd5b8151620011fa84826020860162001191565b91505092915050565b6000602082840312156200121657600080fd5b600082015167ffffffffffffffff8111156200123157600080fd5b6200123f84828501620011d6565b91505092915050565b600062001256838362001356565b905092915050565b60006200126b826200187e565b620012778185620018a1565b9350836020820285016200128b8562001854565b8060005b85811015620012cc57848403895281620012aa858262001248565b9450620012b78362001894565b925060208a019950506001810190506200128f565b50829750879550505050505092915050565b6000620012eb8262001889565b620012f78185620018c3565b935062001309818560208601620018df565b6200131481620019a9565b840191505092915050565b60006200132c8262001889565b620013388185620018d4565b93506200134a818560208601620018df565b80840191505092915050565b60008154620013658162001915565b620013718186620018b2565b945060018216600081146200138f5760018114620013a257620013d9565b60ff1983168652602086019350620013d9565b620013ad8562001869565b60005b83811015620013d157815481890152600182019150602081019050620013b0565b808801955050505b50505092915050565b60008154620013f18162001915565b620013fd8186620018c3565b945060018216600081146200141b57600181146200142e5762001465565b60ff198316865260208601935062001465565b620014398562001869565b60005b838110156200145d578154818901526001820191506020810190506200143c565b808801955050505b50505092915050565b60006200147d600583620018c3565b91507f55736572730000000000000000000000000000000000000000000000000000006000830152602082019050919050565b6000620014bf600583620018d4565b91507f55736572730000000000000000000000000000000000000000000000000000006000830152600582019050919050565b600062001501602f83620018c3565b91507f4f6e6c792074686520636f6e7472616374206f776e65722063616e207065726660008301527f6f726d207468697320616374696f6e00000000000000000000000000000000006020830152604082019050919050565b600062001569601483620018c3565b91507f47726f757020646f6573206e6f742065786973740000000000000000000000006000830152602082019050919050565b6000620015ab601383620018c3565b91507f5573657220646f6573206e6f74206578697374000000000000000000000000006000830152602082019050919050565b6000620015ed600683620018c3565b91507f4f776e65727300000000000000000000000000000000000000000000000000006000830152602082019050919050565b60006200162f600683620018d4565b91507f4f776e65727300000000000000000000000000000000000000000000000000006000830152600682019050919050565b60006200167082846200131f565b915081905092915050565b60006200168882620014b0565b9150819050919050565b60006200169f8262001620565b9150819050919050565b60006020820190508181036000830152620016c58184620012de565b905092915050565b60006040820190508181036000830152620016e98185620012de565b90508181036020830152620016ff8184620012de565b90509392505050565b60006040820190508181036000830152620017248185620013e2565b905081810360208301526200173a81846200125e565b90509392505050565b600060208201905081810360008301526200175e816200146e565b9050919050565b600060208201905081810360008301526200178081620014f2565b9050919050565b60006020820190508181036000830152620017a2816200155a565b9050919050565b60006020820190508181036000830152620017c4816200159c565b9050919050565b60006020820190508181036000830152620017e681620015de565b9050919050565b6000604051905081810181811067ffffffffffffffff821117156200181757620018166200197a565b5b8060405250919050565b600067ffffffffffffffff8211156200183f576200183e6200197a565b5b601f19601f8301169050602081019050919050565b60008190508160005260206000209050919050565b60008190508160005260206000209050919050565b600081549050919050565b600081519050919050565b6000600182019050919050565b600082825260208201905092915050565b600082825260208201905092915050565b600082825260208201905092915050565b600081905092915050565b60005b83811015620018ff578082015181840152602081019050620018e2565b838111156200190f576000848401525b50505050565b600060028204905060018216806200192e57607f821691505b602082108114156200194557620019446200194b565b5b50919050565b7f4e487b7100000000000000000000000000000000000000000000000000000000600052602260045260246000fd5b7f4e487b7100000000000000000000000000000000000000000000000000000000600052604160045260246000fd5b6000601f19601f8301169050919050565b6127b580620019ca6000396000f3fe608060405234801561001057600080fd5b50600436106100cf5760003560e01c8063536203751161008c578063b9e6facb11610066578063b9e6facb1461023f578063c91bc46c1461025b578063e537cac714610277578063ecb5a4d514610293576100cf565b806353620375146101bf5780636cad1934146101dd578063abef281e1461020d576100cf565b806303df9e92146100d45780631ae7f10a146100f05780631e4a97dd146101205780632d09d9e91461013c57806331feb6711461016c5780635108c3ab146101a3575b600080fd5b6100ee60048036038101906100e99190611da4565b6102af565b005b61010a60048036038101906101059190611da4565b6103b0565b604051610117919061233c565b60405180910390f35b61013a60048036038101906101359190611e10565b610613565b005b61015660048036038101906101519190611d63565b610859565b60405161016391906122ff565b60405180910390f35b61018660048036038101906101819190611d63565b610953565b60405161019a989796959493929190612411565b60405180910390f35b6101bd60048036038101906101b89190611d63565b610e1c565b005b6101c7610f7e565b6040516101d491906122ff565b60405180910390f35b6101f760048036038101906101f29190611d63565b611057565b6040516102049190612321565b60405180910390f35b61022760048036038101906102229190611d63565b611090565b6040516102369392919061235e565b60405180910390f35b61025960048036038101906102549190611e7c565b611393565b005b61027560048036038101906102709190611e10565b6116c8565b005b610291600480360381019061028c9190611d63565b611802565b005b6102ad60048036038101906102a89190611e10565b611906565b005b600460009054906101000a900473ffffffffffffffffffffffffffffffffffffffff1673ffffffffffffffffffffffffffffffffffffffff163373ffffffffffffffffffffffffffffffffffffffff161461033f576040517f08c379a0000000000000000000000000000000000000000000000000000000008152600401610336906124f0565b60405180910390fd5b8060008360405161035091906122e8565b90815260200160405180910390206002019080519060200190610374929190611b0d565b507feb1060ec96e942d51b0f7b8b00c334c5c6da57c48f5ef56937468d28d0ee347a826040516103a4919061233c565b60405180910390a15050565b6060600460009054906101000a900473ffffffffffffffffffffffffffffffffffffffff1673ffffffffffffffffffffffffffffffffffffffff163373ffffffffffffffffffffffffffffffffffffffff1614610442576040517f08c379a0000000000000000000000000000000000000000000000000000000008152600401610439906124f0565b60405180910390fd5b600060018460405161045491906122e8565b90815260200160405180910390206000018054610470906126de565b9050116104b2576040517f08c379a00000000000000000000000000000000000000000000000000000000081526004016104a990612510565b60405180910390fd5b816001846040516104c391906122e8565b908152602001604051809103902060020190805190602001906104e7929190611b0d565b507f65d29756900166ea1a95042b775077b9e0c4b52e2ad303784b8fc75584de59ef60018460405161051991906122e8565b908152602001604051809103902060000160018560405161053a91906122e8565b90815260200160405180910390206002016040516105599291906124b9565b60405180910390a160018360405161057191906122e8565b9081526020016040518091039020600001805461058d906126de565b80601f01602080910402602001604051908101604052809291908181526020018280546105b9906126de565b80156106065780601f106105db57610100808354040283529160200191610606565b820191906000526020600020905b8154815290600101906020018083116105e957829003601f168201915b5050505050905092915050565b600460009054906101000a900473ffffffffffffffffffffffffffffffffffffffff1673ffffffffffffffffffffffffffffffffffffffff163373ffffffffffffffffffffffffffffffffffffffff16146106a3576040517f08c379a000000000000000000000000000000000000000000000000000000000815260040161069a906124f0565b60405180910390fd5b6040518060600160405280838152602001600067ffffffffffffffff8111156106f5577f4e487b7100000000000000000000000000000000000000000000000000000000600052604160045260246000fd5b60405190808252806020026020018201604052801561072857816020015b60608152602001906001900390816107135790505b508152602001600067ffffffffffffffff81111561076f577f4e487b7100000000000000000000000000000000000000000000000000000000600052604160045260246000fd5b6040519080825280602002602001820160405280156107a257816020015b606081526020019060019003908161078d5790505b508152506001836040516107b691906122e8565b908152602001604051809103902060008201518160000190805190602001906107e0929190611b6d565b5060208201518160010190805190602001906107fd929190611b0d565b50604082015181600201908051906020019061081a929190611b0d565b509050507fb4082bf161f07af2ff5aed9b78e2cb1baf973ed4f2cc2e6e8e81a46752cc33458260405161084d919061233c565b60405180910390a15050565b606060008260405161086b91906122e8565b9081526020016040518091039020600201805480602002602001604051908101604052809291908181526020016000905b828210156109485783829060005260206000200180546108bb906126de565b80601f01602080910402602001604051908101604052809291908181526020018280546108e7906126de565b80156109345780601f1061090957610100808354040283529160200191610934565b820191906000526020600020905b81548152906001019060200180831161091757829003601f168201915b50505050508152602001906001019061089c565b505050509050919050565b6060806060806060806000806000808a60405161097091906122e8565b90815260200160405180910390206040518061012001604052908160008201805461099a906126de565b80601f01602080910402602001604051908101604052809291908181526020018280546109c6906126de565b8015610a135780601f106109e857610100808354040283529160200191610a13565b820191906000526020600020905b8154815290600101906020018083116109f657829003601f168201915b50505050508152602001600182018054610a2c906126de565b80601f0160208091040260200160405190810160405280929190818152602001828054610a58906126de565b8015610aa55780601f10610a7a57610100808354040283529160200191610aa5565b820191906000526020600020905b815481529060010190602001808311610a8857829003601f168201915b5050505050815260200160028201805480602002602001604051908101604052809291908181526020016000905b82821015610b7f578382906000526020600020018054610af2906126de565b80601f0160208091040260200160405190810160405280929190818152602001828054610b1e906126de565b8015610b6b5780601f10610b4057610100808354040283529160200191610b6b565b820191906000526020600020905b815481529060010190602001808311610b4e57829003601f168201915b505050505081526020019060010190610ad3565b50505050815260200160038201805480602002602001604051908101604052809291908181526020016000905b82821015610c58578382906000526020600020018054610bcb906126de565b80601f0160208091040260200160405190810160405280929190818152602001828054610bf7906126de565b8015610c445780601f10610c1957610100808354040283529160200191610c44565b820191906000526020600020905b815481529060010190602001808311610c2757829003601f168201915b505050505081526020019060010190610bac565b505050508152602001600482018054610c70906126de565b80601f0160208091040260200160405190810160405280929190818152602001828054610c9c906126de565b8015610ce95780601f10610cbe57610100808354040283529160200191610ce9565b820191906000526020600020905b815481529060010190602001808311610ccc57829003601f168201915b50505050508152602001600582018054610d02906126de565b80601f0160208091040260200160405190810160405280929190818152602001828054610d2e906126de565b8015610d7b5780601f10610d5057610100808354040283529160200191610d7b565b820191906000526020600020905b815481529060010190602001808311610d5e57829003601f168201915b505050505081526020016006820160009054906101000a900460ff161515151581526020016006820160019054906101000a900460ff161515151581526020016006820160029054906101000a900460ff1615151515815250509050806000015181602001518260400151836060015184608001518560a001518660c001518761010001519850985098509850985098509850985050919395975091939597565b600460009054906101000a900473ffffffffffffffffffffffffffffffffffffffff1673ffffffffffffffffffffffffffffffffffffffff163373ffffffffffffffffffffffffffffffffffffffff1614610eac576040517f08c379a0000000000000000000000000000000000000000000000000000000008152600401610ea3906124f0565b60405180910390fd5b600081604051610ebc91906122e8565b908152602001604051809103902060060160029054906101000a900460ff1615600082604051610eec91906122e8565b908152602001604051809103902060060160026101000a81548160ff0219169083151502179055507f9b1a1e5131c18ee5fd8454b3b435b1b36127bd0c05686d9fc6190d638bcb149981600083604051610f4691906122e8565b908152602001604051809103902060060160029054906101000a900460ff16604051610f739291906123aa565b60405180910390a150565b60606002805480602002602001604051908101604052809291908181526020016000905b8282101561104e578382906000526020600020018054610fc1906126de565b80601f0160208091040260200160405190810160405280929190818152602001828054610fed906126de565b801561103a5780601f1061100f5761010080835404028352916020019161103a565b820191906000526020600020905b81548152906001019060200180831161101d57829003601f168201915b505050505081526020019060010190610fa2565b50505050905090565b60008060008360405161106a91906122e8565b90815260200160405180910390206000018054611086906126de565b9050119050919050565b606080606060006001856040516110a791906122e8565b908152602001604051809103902060000180546110c3906126de565b905011611105576040517f08c379a00000000000000000000000000000000000000000000000000000000081526004016110fc90612510565b60405180910390fd5b600060018560405161111791906122e8565b9081526020016040518091039020604051806060016040529081600082018054611140906126de565b80601f016020809104026020016040519081016040528092919081815260200182805461116c906126de565b80156111b95780601f1061118e576101008083540402835291602001916111b9565b820191906000526020600020905b81548152906001019060200180831161119c57829003601f168201915b5050505050815260200160018201805480602002602001604051908101604052809291908181526020016000905b82821015611293578382906000526020600020018054611206906126de565b80601f0160208091040260200160405190810160405280929190818152602001828054611232906126de565b801561127f5780601f106112545761010080835404028352916020019161127f565b820191906000526020600020905b81548152906001019060200180831161126257829003601f168201915b5050505050815260200190600101906111e7565b50505050815260200160028201805480602002602001604051908101604052809291908181526020016000905b8282101561136c5783829060005260206000200180546112df906126de565b80601f016020809104026020016040519081016040528092919081815260200182805461130b906126de565b80156113585780601f1061132d57610100808354040283529160200191611358565b820191906000526020600020905b81548152906001019060200180831161133b57829003601f168201915b5050505050815260200190600101906112c0565b50505050815250509050806000015181602001518260400151935093509350509193909250565b600460009054906101000a900473ffffffffffffffffffffffffffffffffffffffff1673ffffffffffffffffffffffffffffffffffffffff163373ffffffffffffffffffffffffffffffffffffffff1614611423576040517f08c379a000000000000000000000000000000000000000000000000000000000815260040161141a906124f0565b60405180910390fd5b604051806101200160405280858152602001848152602001838152602001600067ffffffffffffffff811115611482577f4e487b7100000000000000000000000000000000000000000000000000000000600052604160045260246000fd5b6040519080825280602002602001820160405280156114b557816020015b60608152602001906001900390816114a05790505b508152602001828152602001828152602001600015158152602001600015158152602001600115158152506000856040516114f091906122e8565b9081526020016040518091039020600082015181600001908051906020019061151a929190611b6d565b506020820151816001019080519060200190611537929190611b6d565b506040820151816002019080519060200190611554929190611b0d565b506060820151816003019080519060200190611571929190611b0d565b50608082015181600401908051906020019061158e929190611b6d565b5060a08201518160050190805190602001906115ab929190611b6d565b5060c08201518160060160006101000a81548160ff02191690831515021790555060e08201518160060160016101000a81548160ff0219169083151502179055506101008201518160060160026101000a81548160ff02191690831515021790555090505060028490806001815401808255809150506001900390600052602060002001600090919091909150908051906020019061164b929190611b6d565b5061168b846040518060400160405280600581526020017f5573657273000000000000000000000000000000000000000000000000000000815250611906565b7f270ff4b111e5baa49283562af127cc5ea74e9d6c9efd5465578bd9223d5843f0846040516116ba919061233c565b60405180910390a150505050565b600460009054906101000a900473ffffffffffffffffffffffffffffffffffffffff1673ffffffffffffffffffffffffffffffffffffffff163373ffffffffffffffffffffffffffffffffffffffff1614611758576040517f08c379a000000000000000000000000000000000000000000000000000000000815260040161174f906124f0565b60405180910390fd5b8060008360405161176991906122e8565b9081526020016040518091039020600101908051906020019061178d929190611b6d565b506000808360405161179f91906122e8565b908152602001604051809103902060060160016101000a81548160ff0219169083151502179055507fd0b43b0b96083c98cc0f0370575812de87ee48ff1bde30bcd74f3518443bc4f5826040516117f6919061233c565b60405180910390a15050565b600460009054906101000a900473ffffffffffffffffffffffffffffffffffffffff1673ffffffffffffffffffffffffffffffffffffffff163373ffffffffffffffffffffffffffffffffffffffff1614611892576040517f08c379a0000000000000000000000000000000000000000000000000000000008152600401611889906124f0565b60405180910390fd5b60016000826040516118a491906122e8565b908152602001604051809103902060060160016101000a81548160ff0219169083151502179055507f926f593dd22175375135b3fd9428c5d0298a5665da18756555b6af9f305ab9a6816040516118fb919061233c565b60405180910390a150565b600460009054906101000a900473ffffffffffffffffffffffffffffffffffffffff1673ffffffffffffffffffffffffffffffffffffffff163373ffffffffffffffffffffffffffffffffffffffff1614611996576040517f08c379a000000000000000000000000000000000000000000000000000000000815260040161198d906124f0565b60405180910390fd5b60006001826040516119a891906122e8565b908152602001604051809103902060000180546119c4906126de565b905011611a06576040517f08c379a00000000000000000000000000000000000000000000000000000000081526004016119fd90612510565b60405180910390fd5b60008083604051611a1791906122e8565b90815260200160405180910390206000018054611a33906126de565b905011611a75576040517f08c379a0000000000000000000000000000000000000000000000000000000008152600401611a6c90612530565b60405180910390fd5b600181604051611a8591906122e8565b908152602001604051809103902060010182908060018154018082558091505060019003906000526020600020016000909190919091509080519060200190611acf929190611b6d565b507f32475c6c091737c212dc5c54e3565db8aae94283f8b388d2c1dfe772b3f356e18282604051611b019291906123da565b60405180910390a15050565b828054828255906000526020600020908101928215611b5c579160200282015b82811115611b5b578251829080519060200190611b4b929190611b6d565b5091602001919060010190611b2d565b5b509050611b699190611bf3565b5090565b828054611b79906126de565b90600052602060002090601f016020900481019282611b9b5760008555611be2565b82601f10611bb457805160ff1916838001178555611be2565b82800160010185558215611be2579182015b82811115611be1578251825591602001919060010190611bc6565b5b509050611bef9190611c17565b5090565b5b80821115611c135760008181611c0a9190611c34565b50600101611bf4565b5090565b5b80821115611c30576000816000905550600101611c18565b5090565b508054611c40906126de565b6000825580601f10611c525750611c71565b601f016020900490600052602060002090810190611c709190611c17565b5b50565b6000611c87611c8284612581565b612550565b9050808382526020820190508260005b85811015611cc75781358501611cad8882611d39565b845260208401935060208301925050600181019050611c97565b5050509392505050565b6000611ce4611cdf846125ad565b612550565b905082815260208101848484011115611cfc57600080fd5b611d0784828561269c565b509392505050565b600082601f830112611d2057600080fd5b8135611d30848260208601611c74565b91505092915050565b600082601f830112611d4a57600080fd5b8135611d5a848260208601611cd1565b91505092915050565b600060208284031215611d7557600080fd5b600082013567ffffffffffffffff811115611d8f57600080fd5b611d9b84828501611d39565b91505092915050565b60008060408385031215611db757600080fd5b600083013567ffffffffffffffff811115611dd157600080fd5b611ddd85828601611d39565b925050602083013567ffffffffffffffff811115611dfa57600080fd5b611e0685828601611d0f565b9150509250929050565b60008060408385031215611e2357600080fd5b600083013567ffffffffffffffff811115611e3d57600080fd5b611e4985828601611d39565b925050602083013567ffffffffffffffff811115611e6657600080fd5b611e7285828601611d39565b9150509250929050565b60008060008060808587031215611e9257600080fd5b600085013567ffffffffffffffff811115611eac57600080fd5b611eb887828801611d39565b945050602085013567ffffffffffffffff811115611ed557600080fd5b611ee187828801611d39565b935050604085013567ffffffffffffffff811115611efe57600080fd5b611f0a87828801611d0f565b925050606085013567ffffffffffffffff811115611f2757600080fd5b611f3387828801611d39565b91505092959194509250565b6000611f4b838361205f565b905092915050565b6000611f5f8383612102565b905092915050565b6000611f7282612617565b611f7c8185612652565b935083602082028501611f8e856125dd565b8060005b85811015611fca5784840389528151611fab8582611f3f565b9450611fb683612638565b925060208a01995050600181019050611f92565b50829750879550505050505092915050565b6000611fe782612622565b611ff18185612652565b935083602082028501612003856125ed565b8060005b8581101561203e5784840389528161201f8582611f53565b945061202a83612645565b925060208a01995050600181019050612007565b50829750879550505050505092915050565b61205981612690565b82525050565b600061206a8261262d565b6120748185612663565b93506120848185602086016126ab565b61208d8161276e565b840191505092915050565b60006120a38261262d565b6120ad8185612674565b93506120bd8185602086016126ab565b6120c68161276e565b840191505092915050565b60006120dc8261262d565b6120e68185612685565b93506120f68185602086016126ab565b80840191505092915050565b6000815461210f816126de565b6121198186612663565b94506001821660008114612134576001811461214657612179565b60ff1983168652602086019350612179565b61214f85612602565b60005b8381101561217157815481890152600182019150602081019050612152565b808801955050505b50505092915050565b6000815461218f816126de565b6121998186612674565b945060018216600081146121b457600181146121c6576121f9565b60ff19831686526020860193506121f9565b6121cf85612602565b60005b838110156121f1578154818901526001820191506020810190506121d2565b808801955050505b50505092915050565b600061220f602f83612674565b91507f4f6e6c792074686520636f6e7472616374206f776e65722063616e207065726660008301527f6f726d207468697320616374696f6e00000000000000000000000000000000006020830152604082019050919050565b6000612275601483612674565b91507f47726f757020646f6573206e6f742065786973740000000000000000000000006000830152602082019050919050565b60006122b5601383612674565b91507f5573657220646f6573206e6f74206578697374000000000000000000000000006000830152602082019050919050565b60006122f482846120d1565b915081905092915050565b600060208201905081810360008301526123198184611f67565b905092915050565b60006020820190506123366000830184612050565b92915050565b600060208201905081810360008301526123568184612098565b905092915050565b600060608201905081810360008301526123788186612098565b9050818103602083015261238c8185611f67565b905081810360408301526123a08184611f67565b9050949350505050565b600060408201905081810360008301526123c48185612098565b90506123d36020830184612050565b9392505050565b600060408201905081810360008301526123f48185612098565b905081810360208301526124088184612098565b90509392505050565b600061010082019050818103600083015261242c818b612098565b90508181036020830152612440818a612098565b905081810360408301526124548189611f67565b905081810360608301526124688188611f67565b9050818103608083015261247c8187612098565b905081810360a08301526124908186612098565b905061249f60c0830185612050565b6124ac60e0830184612050565b9998505050505050505050565b600060408201905081810360008301526124d38185612182565b905081810360208301526124e78184611fdc565b90509392505050565b6000602082019050818103600083015261250981612202565b9050919050565b6000602082019050818103600083015261252981612268565b9050919050565b60006020820190508181036000830152612549816122a8565b9050919050565b6000604051905081810181811067ffffffffffffffff821117156125775761257661273f565b5b8060405250919050565b600067ffffffffffffffff82111561259c5761259b61273f565b5b602082029050602081019050919050565b600067ffffffffffffffff8211156125c8576125c761273f565b5b601f19601f8301169050602081019050919050565b6000819050602082019050919050565b60008190508160005260206000209050919050565b60008190508160005260206000209050919050565b600081519050919050565b600081549050919050565b600081519050919050565b6000602082019050919050565b6000600182019050919050565b600082825260208201905092915050565b600082825260208201905092915050565b600082825260208201905092915050565b600081905092915050565b60008115159050919050565b82818337600083830152505050565b60005b838110156126c95780820151818401526020810190506126ae565b838111156126d8576000848401525b50505050565b600060028204905060018216806126f657607f821691505b6020821081141561270a57612709612710565b5b50919050565b7f4e487b7100000000000000000000000000000000000000000000000000000000600052602260045260246000fd5b7f4e487b7100000000000000000000000000000000000000000000000000000000600052604160045260246000fd5b6000601f19601f830116905091905056fea26469706673582212209b48e7499165ee02eff9fd0393ef97ae3a68732bad038463ca63fc1217f41feb64736f6c63430008000033",
  "linkReferences": {},
  "deployedLinkReferences": {}
}