{
  "_format": "hh-sol-artifact-1",
  "contractName": "FaceGuard",
  "sourceName": "contracts/FaceGuard.sol",
  "abi": [
    {
      "inputs": [],
      "stateMutability": "nonpayable",
      "type": "constructor"
    },
    {
      "anonymous": false,
      "inputs": [
        {
          "indexed": false,
          "internalType": "string",
          "name": "username",
          "type": "string"
        }
      ],
      "name": "FaceHashUpdated",
      "type": "event"
    },
    {
      "anonymous": false,
      "inputs": [
        {
          "indexed": false,
          "internalType": "string",
          "name": "groupName",
          "type": "string"
        }
      ],
      "name": "GroupCreated",
      "type": "event"
    },
    {
      "anonymous": false,
      "inputs": [
        {
          "indexed": false,
          "internalType": "string",
          "name": "username",
          "type": "string"
        }
      ],
      "name": "PasswordUpdated",
      "type": "event"
    },
    {
      "anonymous": false,
      "inputs": [
        {
          "indexed": false,
          "internalType": "string",
          "name": "username",
          "type": "string"
        }
      ],
      "name": "PermissionsUpdated",
      "type": "event"
    },
    {
      "anonymous": false,
      "inputs": [
        {
          "indexed": false,
          "internalType": "string",
          "name": "username",
          "type": "string"
        },
        {
          "indexed": false,
          "internalType": "string",
          "name": "groupName",
          "type": "string"
        }
      ],
      "name": "UserAddedToGroup",
      "type": "event"
    },
    {
      "anonymous": false,
      "inputs": [
        {
          "indexed": false,
          "internalType": "string",
          "name": "username",
          "type": "string"
        }
      ],
      "name": "UserRegistered",
      "type": "event"
    },
    {
      "anonymous": false,
      "inputs": [
        {
          "indexed": false,
          "internalType": "string",
          "name": "username",
          "type": "string"
        },
        {
          "indexed": false,
          "internalType": "string",
          "name": "groupName",
          "type": "string"
        }
      ],
      "name": "UserRemovedFromGroup",
      "type": "event"
    },
    {
      "anonymous": false,
      "inputs": [
        {
          "indexed": false,
          "internalType": "string",
          "name": "username",
          "type": "string"
        },
        {
          "indexed": false,
          "internalType": "bool",
          "name": "enabled",
          "type": "bool"
        }
      ],
      "name": "UserToggled",
      "type": "event"
    },
    {
      "inputs": [
        {
          "internalType": "string",
          "name": "username",
          "type": "string"
        },
        {
          "internalType": "string",
          "name": "groupName",
          "type": "string"
        }
      ],
      "name": "addUserToGroup",
      "outputs": [],
      "stateMutability": "nonpayable",
      "type": "function"
    },
    {
      "inputs": [
        {
          "internalType": "string",
          "name": "username",
          "type": "string"
        }
      ],
      "name": "checkIfUserExists",
      "outputs": [
        {
          "internalType": "bool",
          "name": "",
          "type": "bool"
        }
      ],
      "stateMutability": "view",
      "type": "function"
    },
    {
      "inputs": [
        {
          "internalType": "string",
          "name": "groupName",
          "type": "string"
        },
        {
          "internalType": "string",
          "name": "groupCreator",
          "type": "string"
        }
      ],
      "name": "createGroup",
      "outputs": [],
      "stateMutability": "nonpayable",
      "type": "function"
    },
    {
      "inputs": [],
      "name": "getAllUsernames",
      "outputs": [
        {
          "internalType": "string[]",
          "name": "",
          "type": "string[]"
        }
      ],
      "stateMutability": "view",
      "type": "function"
    },
    {
      "inputs": [
        {
          "internalType": "string",
          "name": "groupName",
          "type": "string"
        }
      ],
      "name": "getGroup",
      "outputs": [
        {
          "internalType": "string",
          "name": "",
          "type": "string"
        },
        {
          "internalType": "string[]",
          "name": "",
          "type": "string[]"
        },
        {
          "internalType": "string[]",
          "name": "",
          "type": "string[]"
        }
      ],
      "stateMutability": "view",
      "type": "function"
    },
    {
      "inputs": [
        {
          "internalType": "string",
          "name": "username",
          "type": "string"
        }
      ],
      "name": "getUser",
      "outputs": [
        {
          "internalType": "string",
          "name": "",
          "type": "string"
        },
        {
          "internalType": "string",
          "name": "",
          "type": "string"
        },
        {
          "internalType": "string[]",
          "name": "",
          "type": "string[]"
        },
        {
          "internalType": "string[]",
          "name": "",
          "type": "string[]"
        },
        {
          "internalType": "string",
          "name": "",
          "type": "string"
        },
        {
          "internalType": "string",
          "name": "",
          "type": "string"
        },
        {
          "internalType": "bool",
          "name": "",
          "type": "bool"
        },
        {
          "internalType": "bool",
          "name": "",
          "type": "bool"
        }
      ],
      "stateMutability": "view",
      "type": "function"
    },
    {
      "inputs": [
        {
          "internalType": "string",
          "name": "username",
          "type": "string"
        }
      ],
      "name": "getUserFaceHashes",
      "outputs": [
        {
          "internalType": "string[]",
          "name": "",
          "type": "string[]"
        }
      ],
      "stateMutability": "view",
      "type": "function"
    },
    {
      "inputs": [
        {
          "internalType": "string",
          "name": "username",
          "type": "string"
        },
        {
          "internalType": "string",
          "name": "passwordHash",
          "type": "string"
        },
        {
          "internalType": "string[]",
          "name": "initialFaceHashes",
          "type": "string[]"
        },
        {
          "internalType": "string",
          "name": "creationDate",
          "type": "string"
        }
      ],
      "name": "registerUser",
      "outputs": [],
      "stateMutability": "nonpayable",
      "type": "function"
    },
    {
      "inputs": [
        {
          "internalType": "string",
          "name": "username",
          "type": "string"
        }
      ],
      "name": "toggleUser",
      "outputs": [],
      "stateMutability": "nonpayable",
      "type": "function"
    },
    {
      "inputs": [
        {
          "internalType": "string",
          "name": "username",
          "type": "string"
        },
        {
          "internalType": "string[]",
          "name": "newFaceHashes",
          "type": "string[]"
        }
      ],
      "name": "updateUserFaceHash",
      "outputs": [],
      "stateMutability": "nonpayable",
      "type": "function"
    },
    {
      "inputs": [
        {
          "internalType": "string",
          "name": "username",
          "type": "string"
        },
        {
          "internalType": "string",
          "name": "newPasswordHash",
          "type": "string"
        }
      ],
      "name": "updateUserPassword",
      "outputs": [],
      "stateMutability": "nonpayable",
      "type": "function"
    }
  ],
  "bytecode": "0x60806040523480156200001157600080fd5b5033600360006101000a81548173ffffffffffffffffffffffffffffffffffffffff021916908373ffffffffffffffffffffffffffffffffffffffff16021790555060405180606001604052806040518060400160405280600681526020017f4f776e65727300000000000000000000000000000000000000000000000000008152508152602001600067ffffffffffffffff811115620000db577f4e487b7100000000000000000000000000000000000000000000000000000000600052604160045260246000fd5b6040519080825280602002602001820160405280156200011057816020015b6060815260200190600190039081620000fa5790505b508152602001600067ffffffffffffffff81111562000158577f4e487b7100000000000000000000000000000000000000000000000000000000600052604160045260246000fd5b6040519080825280602002602001820160405280156200018d57816020015b6060815260200190600190039081620001775790505b508152506001604051620001a190620006e3565b90815260200160405180910390206000820151816000019080519060200190620001cd9291906200043f565b506020820151816001019080519060200190620001ec929190620004d0565b5060408201518160020190805190602001906200020b929190620004d0565b509050507fb4082bf161f07af2ff5aed9b78e2cb1baf973ed4f2cc2e6e8e81a46752cc33456040516200023e906200071c565b60405180910390a160405180606001604052806040518060400160405280600581526020017f55736572730000000000000000000000000000000000000000000000000000008152508152602001600067ffffffffffffffff811115620002ce577f4e487b7100000000000000000000000000000000000000000000000000000000600052604160045260246000fd5b6040519080825280602002602001820160405280156200030357816020015b6060815260200190600190039081620002ed5790505b508152602001600067ffffffffffffffff8111156200034b577f4e487b7100000000000000000000000000000000000000000000000000000000600052604160045260246000fd5b6040519080825280602002602001820160405280156200038057816020015b60608152602001906001900390816200036a5790505b5081525060016040516200039490620006cc565b90815260200160405180910390206000820151816000019080519060200190620003c09291906200043f565b506020820151816001019080519060200190620003df929190620004d0565b506040820151816002019080519060200190620003fe929190620004d0565b509050507fb4082bf161f07af2ff5aed9b78e2cb1baf973ed4f2cc2e6e8e81a46752cc33456040516200043190620006fa565b60405180910390a1620007bf565b8280546200044d906200075a565b90600052602060002090601f016020900481019282620004715760008555620004bd565b82601f106200048c57805160ff1916838001178555620004bd565b82800160010185558215620004bd579182015b82811115620004bc5782518255916020019190600101906200049f565b5b509050620004cc919062000537565b5090565b82805482825590600052602060002090810192821562000524579160200282015b8281111562000523578251829080519060200190620005129291906200043f565b5091602001919060010190620004f1565b5b50905062000533919062000556565b5090565b5b808211156200055257600081600090555060010162000538565b5090565b5b808211156200057a57600081816200057091906200057e565b5060010162000557565b5090565b5080546200058c906200075a565b6000825580601f10620005a05750620005c1565b601f016020900490600052602060002090810190620005c0919062000537565b5b50565b6000620005d36005836200073e565b91507f55736572730000000000000000000000000000000000000000000000000000006000830152602082019050919050565b6000620006156005836200074f565b91507f55736572730000000000000000000000000000000000000000000000000000006000830152600582019050919050565b6000620006576006836200073e565b91507f4f776e65727300000000000000000000000000000000000000000000000000006000830152602082019050919050565b6000620006996006836200074f565b91507f4f776e65727300000000000000000000000000000000000000000000000000006000830152600682019050919050565b6000620006d98262000606565b9150819050919050565b6000620006f0826200068a565b9150819050919050565b600060208201905081810360008301526200071581620005c4565b9050919050565b60006020820190508181036000830152620007378162000648565b9050919050565b600082825260208201905092915050565b600081905092915050565b600060028204905060018216806200077357607f821691505b602082108114156200078a576200078962000790565b5b50919050565b7f4e487b7100000000000000000000000000000000000000000000000000000000600052602260045260246000fd5b61211d80620007cf6000396000f3fe608060405234801561001057600080fd5b50600436106100a95760003560e01c8063536203751161007157806353620375146101695780636cad193414610187578063abef281e146101b7578063b9e6facb146101e9578063c91bc46c14610205578063ecb5a4d514610221576100a9565b806303df9e92146100ae5780631e4a97dd146100ca5780632d09d9e9146100e657806331feb671146101165780635108c3ab1461014d575b600080fd5b6100c860048036038101906100c3919061190d565b61023d565b005b6100e460048036038101906100df9190611979565b61033e565b005b61010060048036038101906100fb91906118cc565b610584565b60405161010d9190611ce0565b60405180910390f35b610130600480360381019061012b91906118cc565b61067e565b604051610144989796959493929190611df2565b60405180910390f35b610167600480360381019061016291906118cc565b610b2b565b005b610171610c8d565b60405161017e9190611ce0565b60405180910390f35b6101a1600480360381019061019c91906118cc565b610d66565b6040516101ae9190611d02565b60405180910390f35b6101d160048036038101906101cc91906118cc565b610d9f565b6040516101e093929190611d3f565b60405180910390f35b61020360048036038101906101fe91906119e5565b6110a2565b005b61021f600480360381019061021a9190611979565b61136e565b005b61023b60048036038101906102369190611979565b61146f565b005b600360009054906101000a900473ffffffffffffffffffffffffffffffffffffffff1673ffffffffffffffffffffffffffffffffffffffff163373ffffffffffffffffffffffffffffffffffffffff16146102cd576040517f08c379a00000000000000000000000000000000000000000000000000000000081526004016102c490611e9a565b60405180910390fd5b806000836040516102de9190611cc9565b90815260200160405180910390206002019080519060200190610302929190611676565b507feb1060ec96e942d51b0f7b8b00c334c5c6da57c48f5ef56937468d28d0ee347a826040516103329190611d1d565b60405180910390a15050565b600360009054906101000a900473ffffffffffffffffffffffffffffffffffffffff1673ffffffffffffffffffffffffffffffffffffffff163373ffffffffffffffffffffffffffffffffffffffff16146103ce576040517f08c379a00000000000000000000000000000000000000000000000000000000081526004016103c590611e9a565b60405180910390fd5b6040518060600160405280838152602001600067ffffffffffffffff811115610420577f4e487b7100000000000000000000000000000000000000000000000000000000600052604160045260246000fd5b60405190808252806020026020018201604052801561045357816020015b606081526020019060019003908161043e5790505b508152602001600067ffffffffffffffff81111561049a577f4e487b7100000000000000000000000000000000000000000000000000000000600052604160045260246000fd5b6040519080825280602002602001820160405280156104cd57816020015b60608152602001906001900390816104b85790505b508152506001836040516104e19190611cc9565b9081526020016040518091039020600082015181600001908051906020019061050b9291906116d6565b506020820151816001019080519060200190610528929190611676565b506040820151816002019080519060200190610545929190611676565b509050507fb4082bf161f07af2ff5aed9b78e2cb1baf973ed4f2cc2e6e8e81a46752cc3345826040516105789190611d1d565b60405180910390a15050565b60606000826040516105969190611cc9565b9081526020016040518091039020600201805480602002602001604051908101604052809291908181526020016000905b828210156106735783829060005260206000200180546105e690612046565b80601f016020809104026020016040519081016040528092919081815260200182805461061290612046565b801561065f5780601f106106345761010080835404028352916020019161065f565b820191906000526020600020905b81548152906001019060200180831161064257829003601f168201915b5050505050815260200190600101906105c7565b505050509050919050565b6060806060806060806000806000808a60405161069b9190611cc9565b9081526020016040518091039020604051806101000160405290816000820180546106c590612046565b80601f01602080910402602001604051908101604052809291908181526020018280546106f190612046565b801561073e5780601f106107135761010080835404028352916020019161073e565b820191906000526020600020905b81548152906001019060200180831161072157829003601f168201915b5050505050815260200160018201805461075790612046565b80601f016020809104026020016040519081016040528092919081815260200182805461078390612046565b80156107d05780601f106107a5576101008083540402835291602001916107d0565b820191906000526020600020905b8154815290600101906020018083116107b357829003601f168201915b5050505050815260200160028201805480602002602001604051908101604052809291908181526020016000905b828210156108aa57838290600052602060002001805461081d90612046565b80601f016020809104026020016040519081016040528092919081815260200182805461084990612046565b80156108965780601f1061086b57610100808354040283529160200191610896565b820191906000526020600020905b81548152906001019060200180831161087957829003601f168201915b5050505050815260200190600101906107fe565b50505050815260200160038201805480602002602001604051908101604052809291908181526020016000905b828210156109835783829060005260206000200180546108f690612046565b80601f016020809104026020016040519081016040528092919081815260200182805461092290612046565b801561096f5780601f106109445761010080835404028352916020019161096f565b820191906000526020600020905b81548152906001019060200180831161095257829003601f168201915b5050505050815260200190600101906108d7565b50505050815260200160048201805461099b90612046565b80601f01602080910402602001604051908101604052809291908181526020018280546109c790612046565b8015610a145780601f106109e957610100808354040283529160200191610a14565b820191906000526020600020905b8154815290600101906020018083116109f757829003601f168201915b50505050508152602001600582018054610a2d90612046565b80601f0160208091040260200160405190810160405280929190818152602001828054610a5990612046565b8015610aa65780601f10610a7b57610100808354040283529160200191610aa6565b820191906000526020600020905b815481529060010190602001808311610a8957829003601f168201915b505050505081526020016006820160009054906101000a900460ff161515151581526020016006820160019054906101000a900460ff1615151515815250509050806000015181602001518260400151836060015184608001518560a001518660c001518760e001519850985098509850985098509850985050919395975091939597565b600360009054906101000a900473ffffffffffffffffffffffffffffffffffffffff1673ffffffffffffffffffffffffffffffffffffffff163373ffffffffffffffffffffffffffffffffffffffff1614610bbb576040517f08c379a0000000000000000000000000000000000000000000000000000000008152600401610bb290611e9a565b60405180910390fd5b600081604051610bcb9190611cc9565b908152602001604051809103902060060160019054906101000a900460ff1615600082604051610bfb9190611cc9565b908152602001604051809103902060060160016101000a81548160ff0219169083151502179055507f9b1a1e5131c18ee5fd8454b3b435b1b36127bd0c05686d9fc6190d638bcb149981600083604051610c559190611cc9565b908152602001604051809103902060060160019054906101000a900460ff16604051610c82929190611d8b565b60405180910390a150565b60606002805480602002602001604051908101604052809291908181526020016000905b82821015610d5d578382906000526020600020018054610cd090612046565b80601f0160208091040260200160405190810160405280929190818152602001828054610cfc90612046565b8015610d495780601f10610d1e57610100808354040283529160200191610d49565b820191906000526020600020905b815481529060010190602001808311610d2c57829003601f168201915b505050505081526020019060010190610cb1565b50505050905090565b600080600083604051610d799190611cc9565b90815260200160405180910390206000018054610d9590612046565b9050119050919050565b60608060606000600185604051610db69190611cc9565b90815260200160405180910390206000018054610dd290612046565b905011610e14576040517f08c379a0000000000000000000000000000000000000000000000000000000008152600401610e0b90611eba565b60405180910390fd5b6000600185604051610e269190611cc9565b9081526020016040518091039020604051806060016040529081600082018054610e4f90612046565b80601f0160208091040260200160405190810160405280929190818152602001828054610e7b90612046565b8015610ec85780601f10610e9d57610100808354040283529160200191610ec8565b820191906000526020600020905b815481529060010190602001808311610eab57829003601f168201915b5050505050815260200160018201805480602002602001604051908101604052809291908181526020016000905b82821015610fa2578382906000526020600020018054610f1590612046565b80601f0160208091040260200160405190810160405280929190818152602001828054610f4190612046565b8015610f8e5780601f10610f6357610100808354040283529160200191610f8e565b820191906000526020600020905b815481529060010190602001808311610f7157829003601f168201915b505050505081526020019060010190610ef6565b50505050815260200160028201805480602002602001604051908101604052809291908181526020016000905b8282101561107b578382906000526020600020018054610fee90612046565b80601f016020809104026020016040519081016040528092919081815260200182805461101a90612046565b80156110675780601f1061103c57610100808354040283529160200191611067565b820191906000526020600020905b81548152906001019060200180831161104a57829003601f168201915b505050505081526020019060010190610fcf565b50505050815250509050806000015181602001518260400151935093509350509193909250565b600360009054906101000a900473ffffffffffffffffffffffffffffffffffffffff1673ffffffffffffffffffffffffffffffffffffffff163373ffffffffffffffffffffffffffffffffffffffff1614611132576040517f08c379a000000000000000000000000000000000000000000000000000000000815260040161112990611e9a565b60405180910390fd5b604051806101000160405280858152602001848152602001838152602001600067ffffffffffffffff811115611191577f4e487b7100000000000000000000000000000000000000000000000000000000600052604160045260246000fd5b6040519080825280602002602001820160405280156111c457816020015b60608152602001906001900390816111af5790505b508152602001828152602001828152602001600015158152602001600115158152506000856040516111f69190611cc9565b908152602001604051809103902060008201518160000190805190602001906112209291906116d6565b50602082015181600101908051906020019061123d9291906116d6565b50604082015181600201908051906020019061125a929190611676565b506060820151816003019080519060200190611277929190611676565b5060808201518160040190805190602001906112949291906116d6565b5060a08201518160050190805190602001906112b19291906116d6565b5060c08201518160060160006101000a81548160ff02191690831515021790555060e08201518160060160016101000a81548160ff0219169083151502179055509050506002849080600181540180825580915050600190039060005260206000200160009091909190915090805190602001906113309291906116d6565b507f270ff4b111e5baa49283562af127cc5ea74e9d6c9efd5465578bd9223d5843f0846040516113609190611d1d565b60405180910390a150505050565b600360009054906101000a900473ffffffffffffffffffffffffffffffffffffffff1673ffffffffffffffffffffffffffffffffffffffff163373ffffffffffffffffffffffffffffffffffffffff16146113fe576040517f08c379a00000000000000000000000000000000000000000000000000000000081526004016113f590611e9a565b60405180910390fd5b8060008360405161140f9190611cc9565b908152602001604051809103902060010190805190602001906114339291906116d6565b507fd0b43b0b96083c98cc0f0370575812de87ee48ff1bde30bcd74f3518443bc4f5826040516114639190611d1d565b60405180910390a15050565b600360009054906101000a900473ffffffffffffffffffffffffffffffffffffffff1673ffffffffffffffffffffffffffffffffffffffff163373ffffffffffffffffffffffffffffffffffffffff16146114ff576040517f08c379a00000000000000000000000000000000000000000000000000000000081526004016114f690611e9a565b60405180910390fd5b60006001826040516115119190611cc9565b9081526020016040518091039020600001805461152d90612046565b90501161156f576040517f08c379a000000000000000000000000000000000000000000000000000000000815260040161156690611eba565b60405180910390fd5b600080836040516115809190611cc9565b9081526020016040518091039020600001805461159c90612046565b9050116115de576040517f08c379a00000000000000000000000000000000000000000000000000000000081526004016115d590611eda565b60405180910390fd5b6001816040516115ee9190611cc9565b9081526020016040518091039020600101829080600181540180825580915050600190039060005260206000200160009091909190915090805190602001906116389291906116d6565b507f32475c6c091737c212dc5c54e3565db8aae94283f8b388d2c1dfe772b3f356e1828260405161166a929190611dbb565b60405180910390a15050565b8280548282559060005260206000209081019282156116c5579160200282015b828111156116c45782518290805190602001906116b49291906116d6565b5091602001919060010190611696565b5b5090506116d2919061175c565b5090565b8280546116e290612046565b90600052602060002090601f016020900481019282611704576000855561174b565b82601f1061171d57805160ff191683800117855561174b565b8280016001018555821561174b579182015b8281111561174a57825182559160200191906001019061172f565b5b5090506117589190611780565b5090565b5b8082111561177c5760008181611773919061179d565b5060010161175d565b5090565b5b80821115611799576000816000905550600101611781565b5090565b5080546117a990612046565b6000825580601f106117bb57506117da565b601f0160209004906000526020600020908101906117d99190611780565b5b50565b60006117f06117eb84611f2b565b611efa565b9050808382526020820190508260005b85811015611830578135850161181688826118a2565b845260208401935060208301925050600181019050611800565b5050509392505050565b600061184d61184884611f57565b611efa565b90508281526020810184848401111561186557600080fd5b611870848285612004565b509392505050565b600082601f83011261188957600080fd5b81356118998482602086016117dd565b91505092915050565b600082601f8301126118b357600080fd5b81356118c384826020860161183a565b91505092915050565b6000602082840312156118de57600080fd5b600082013567ffffffffffffffff8111156118f857600080fd5b611904848285016118a2565b91505092915050565b6000806040838503121561192057600080fd5b600083013567ffffffffffffffff81111561193a57600080fd5b611946858286016118a2565b925050602083013567ffffffffffffffff81111561196357600080fd5b61196f85828601611878565b9150509250929050565b6000806040838503121561198c57600080fd5b600083013567ffffffffffffffff8111156119a657600080fd5b6119b2858286016118a2565b925050602083013567ffffffffffffffff8111156119cf57600080fd5b6119db858286016118a2565b9150509250929050565b600080600080608085870312156119fb57600080fd5b600085013567ffffffffffffffff811115611a1557600080fd5b611a21878288016118a2565b945050602085013567ffffffffffffffff811115611a3e57600080fd5b611a4a878288016118a2565b935050604085013567ffffffffffffffff811115611a6757600080fd5b611a7387828801611878565b925050606085013567ffffffffffffffff811115611a9057600080fd5b611a9c878288016118a2565b91505092959194509250565b6000611ab48383611b40565b905092915050565b6000611ac782611f97565b611ad18185611fba565b935083602082028501611ae385611f87565b8060005b85811015611b1f5784840389528151611b008582611aa8565b9450611b0b83611fad565b925060208a01995050600181019050611ae7565b50829750879550505050505092915050565b611b3a81611ff8565b82525050565b6000611b4b82611fa2565b611b558185611fcb565b9350611b65818560208601612013565b611b6e816120d6565b840191505092915050565b6000611b8482611fa2565b611b8e8185611fdc565b9350611b9e818560208601612013565b611ba7816120d6565b840191505092915050565b6000611bbd82611fa2565b611bc78185611fed565b9350611bd7818560208601612013565b80840191505092915050565b6000611bf0602f83611fdc565b91507f4f6e6c792074686520636f6e7472616374206f776e65722063616e207065726660008301527f6f726d207468697320616374696f6e00000000000000000000000000000000006020830152604082019050919050565b6000611c56601483611fdc565b91507f47726f757020646f6573206e6f742065786973740000000000000000000000006000830152602082019050919050565b6000611c96601383611fdc565b91507f5573657220646f6573206e6f74206578697374000000000000000000000000006000830152602082019050919050565b6000611cd58284611bb2565b915081905092915050565b60006020820190508181036000830152611cfa8184611abc565b905092915050565b6000602082019050611d176000830184611b31565b92915050565b60006020820190508181036000830152611d378184611b79565b905092915050565b60006060820190508181036000830152611d598186611b79565b90508181036020830152611d6d8185611abc565b90508181036040830152611d818184611abc565b9050949350505050565b60006040820190508181036000830152611da58185611b79565b9050611db46020830184611b31565b9392505050565b60006040820190508181036000830152611dd58185611b79565b90508181036020830152611de98184611b79565b90509392505050565b6000610100820190508181036000830152611e0d818b611b79565b90508181036020830152611e21818a611b79565b90508181036040830152611e358189611abc565b90508181036060830152611e498188611abc565b90508181036080830152611e5d8187611b79565b905081810360a0830152611e718186611b79565b9050611e8060c0830185611b31565b611e8d60e0830184611b31565b9998505050505050505050565b60006020820190508181036000830152611eb381611be3565b9050919050565b60006020820190508181036000830152611ed381611c49565b9050919050565b60006020820190508181036000830152611ef381611c89565b9050919050565b6000604051905081810181811067ffffffffffffffff82111715611f2157611f206120a7565b5b8060405250919050565b600067ffffffffffffffff821115611f4657611f456120a7565b5b602082029050602081019050919050565b600067ffffffffffffffff821115611f7257611f716120a7565b5b601f19601f8301169050602081019050919050565b6000819050602082019050919050565b600081519050919050565b600081519050919050565b6000602082019050919050565b600082825260208201905092915050565b600082825260208201905092915050565b600082825260208201905092915050565b600081905092915050565b60008115159050919050565b82818337600083830152505050565b60005b83811015612031578082015181840152602081019050612016565b83811115612040576000848401525b50505050565b6000600282049050600182168061205e57607f821691505b6020821081141561207257612071612078565b5b50919050565b7f4e487b7100000000000000000000000000000000000000000000000000000000600052602260045260246000fd5b7f4e487b7100000000000000000000000000000000000000000000000000000000600052604160045260246000fd5b6000601f19601f830116905091905056fea2646970667358221220081870d8763cba69b001063e2e38f6b0ed3dac41413636bc97909204075cfa3864736f6c63430008000033",
  "linkReferences": {},
  "deployedLinkReferences": {}
}