{
  "_format": "hh-sol-artifact-1",
  "contractName": "FaceGuard",
  "sourceName": "contracts/FaceGuard.sol",
  "abi": [
    {
      "inputs": [],
      "stateMutability": "nonpayable",
      "type": "constructor"
    },
    {
      "anonymous": false,
      "inputs": [
        {
          "indexed": true,
          "internalType": "string",
          "name": "username",
          "type": "string"
        },
        {
          "indexed": false,
          "internalType": "string[]",
          "name": "oldFaceHashes",
          "type": "string[]"
        },
        {
          "indexed": false,
          "internalType": "string[]",
          "name": "newFaceHashes",
          "type": "string[]"
        }
      ],
      "name": "FaceHashUpdated",
      "type": "event"
    },
    {
      "anonymous": false,
      "inputs": [
        {
          "indexed": true,
          "internalType": "string",
          "name": "groupName",
          "type": "string"
        },
        {
          "indexed": false,
          "internalType": "string",
          "name": "oldAccessURL",
          "type": "string"
        },
        {
          "indexed": false,
          "internalType": "string",
          "name": "newAccessURL",
          "type": "string"
        }
      ],
      "name": "GroupAccessURLChanged",
      "type": "event"
    },
    {
      "anonymous": false,
      "inputs": [
        {
          "indexed": true,
          "internalType": "string",
          "name": "groupName",
          "type": "string"
        },
        {
          "indexed": false,
          "internalType": "string[]",
          "name": "permissions",
          "type": "string[]"
        }
      ],
      "name": "GroupCreated",
      "type": "event"
    },
    {
      "anonymous": false,
      "inputs": [
        {
          "indexed": true,
          "internalType": "string",
          "name": "originalGroupName",
          "type": "string"
        },
        {
          "indexed": false,
          "internalType": "string",
          "name": "newGroupName",
          "type": "string"
        }
      ],
      "name": "GroupNameUpdated",
      "type": "event"
    },
    {
      "anonymous": false,
      "inputs": [
        {
          "indexed": true,
          "internalType": "string",
          "name": "groupName",
          "type": "string"
        },
        {
          "indexed": false,
          "internalType": "string[]",
          "name": "permissions",
          "type": "string[]"
        }
      ],
      "name": "GroupPermissionsUpdated",
      "type": "event"
    },
    {
      "anonymous": false,
      "inputs": [
        {
          "indexed": true,
          "internalType": "string",
          "name": "groupNameIndexed",
          "type": "string"
        },
        {
          "indexed": false,
          "internalType": "string",
          "name": "groupName",
          "type": "string"
        }
      ],
      "name": "GroupRemoved",
      "type": "event"
    },
    {
      "anonymous": false,
      "inputs": [
        {
          "indexed": true,
          "internalType": "string",
          "name": "username",
          "type": "string"
        }
      ],
      "name": "PasswordChangeRequired",
      "type": "event"
    },
    {
      "anonymous": false,
      "inputs": [
        {
          "indexed": true,
          "internalType": "string",
          "name": "username",
          "type": "string"
        }
      ],
      "name": "PasswordUpdated",
      "type": "event"
    },
    {
      "anonymous": false,
      "inputs": [
        {
          "indexed": true,
          "internalType": "string",
          "name": "username",
          "type": "string"
        },
        {
          "indexed": true,
          "internalType": "string",
          "name": "groupNameIndexed",
          "type": "string"
        },
        {
          "indexed": false,
          "internalType": "string",
          "name": "groupName",
          "type": "string"
        }
      ],
      "name": "UserAddedToGroup",
      "type": "event"
    },
    {
      "anonymous": false,
      "inputs": [
        {
          "indexed": true,
          "internalType": "string",
          "name": "username",
          "type": "string"
        },
        {
          "indexed": false,
          "internalType": "string",
          "name": "oldEmail",
          "type": "string"
        },
        {
          "indexed": false,
          "internalType": "string",
          "name": "newEmail",
          "type": "string"
        }
      ],
      "name": "UserEmailUpdated",
      "type": "event"
    },
    {
      "anonymous": false,
      "inputs": [
        {
          "indexed": true,
          "internalType": "string",
          "name": "username",
          "type": "string"
        },
        {
          "indexed": false,
          "internalType": "string",
          "name": "oldFullName",
          "type": "string"
        },
        {
          "indexed": false,
          "internalType": "string",
          "name": "newFullName",
          "type": "string"
        }
      ],
      "name": "UserFullNameUpdated",
      "type": "event"
    },
    {
      "anonymous": false,
      "inputs": [
        {
          "indexed": true,
          "internalType": "string",
          "name": "username",
          "type": "string"
        }
      ],
      "name": "UserLoggedIn",
      "type": "event"
    },
    {
      "anonymous": false,
      "inputs": [
        {
          "indexed": true,
          "internalType": "string",
          "name": "username",
          "type": "string"
        }
      ],
      "name": "UserRegistered",
      "type": "event"
    },
    {
      "anonymous": false,
      "inputs": [
        {
          "indexed": false,
          "internalType": "string",
          "name": "username",
          "type": "string"
        }
      ],
      "name": "UserRemoved",
      "type": "event"
    },
    {
      "anonymous": false,
      "inputs": [
        {
          "indexed": true,
          "internalType": "string",
          "name": "username",
          "type": "string"
        },
        {
          "indexed": true,
          "internalType": "string",
          "name": "groupNameIndexed",
          "type": "string"
        },
        {
          "indexed": false,
          "internalType": "string",
          "name": "groupName",
          "type": "string"
        }
      ],
      "name": "UserRemovedFromGroup",
      "type": "event"
    },
    {
      "anonymous": false,
      "inputs": [
        {
          "indexed": true,
          "internalType": "string",
          "name": "username",
          "type": "string"
        },
        {
          "indexed": false,
          "internalType": "bool",
          "name": "enabled",
          "type": "bool"
        }
      ],
      "name": "UserToggled",
      "type": "event"
    },
    {
      "inputs": [
        {
          "internalType": "string",
          "name": "groupName",
          "type": "string"
        },
        {
          "internalType": "string",
          "name": "username",
          "type": "string"
        }
      ],
      "name": "addUserToGroup",
      "outputs": [],
      "stateMutability": "nonpayable",
      "type": "function"
    },
    {
      "inputs": [
        {
          "internalType": "string",
          "name": "username",
          "type": "string"
        }
      ],
      "name": "checkIfUserExists",
      "outputs": [
        {
          "internalType": "bool",
          "name": "",
          "type": "bool"
        }
      ],
      "stateMutability": "view",
      "type": "function"
    },
    {
      "inputs": [
        {
          "internalType": "string",
          "name": "groupName",
          "type": "string"
        },
        {
          "internalType": "string[]",
          "name": "permissions",
          "type": "string[]"
        }
      ],
      "name": "createGroup",
      "outputs": [],
      "stateMutability": "nonpayable",
      "type": "function"
    },
    {
      "inputs": [
        {
          "internalType": "string",
          "name": "username",
          "type": "string"
        }
      ],
      "name": "emitLoginSuccessLog",
      "outputs": [],
      "stateMutability": "nonpayable",
      "type": "function"
    },
    {
      "inputs": [],
      "name": "getAllGroups",
      "outputs": [
        {
          "internalType": "string[]",
          "name": "",
          "type": "string[]"
        }
      ],
      "stateMutability": "view",
      "type": "function"
    },
    {
      "inputs": [],
      "name": "getAllUsernames",
      "outputs": [
        {
          "internalType": "string[]",
          "name": "",
          "type": "string[]"
        }
      ],
      "stateMutability": "view",
      "type": "function"
    },
    {
      "inputs": [
        {
          "internalType": "string",
          "name": "groupName",
          "type": "string"
        }
      ],
      "name": "getGroup",
      "outputs": [
        {
          "internalType": "string",
          "name": "",
          "type": "string"
        },
        {
          "internalType": "string[]",
          "name": "",
          "type": "string[]"
        },
        {
          "internalType": "string[]",
          "name": "",
          "type": "string[]"
        }
      ],
      "stateMutability": "view",
      "type": "function"
    },
    {
      "inputs": [
        {
          "internalType": "string",
          "name": "username",
          "type": "string"
        }
      ],
      "name": "getUser",
      "outputs": [
        {
          "internalType": "string",
          "name": "",
          "type": "string"
        },
        {
          "internalType": "string",
          "name": "",
          "type": "string"
        },
        {
          "internalType": "string[]",
          "name": "",
          "type": "string[]"
        },
        {
          "internalType": "string",
          "name": "",
          "type": "string"
        },
        {
          "internalType": "string",
          "name": "",
          "type": "string"
        },
        {
          "internalType": "bool",
          "name": "",
          "type": "bool"
        },
        {
          "internalType": "bool",
          "name": "",
          "type": "bool"
        },
        {
          "internalType": "string",
          "name": "",
          "type": "string"
        },
        {
          "internalType": "string",
          "name": "",
          "type": "string"
        }
      ],
      "stateMutability": "view",
      "type": "function"
    },
    {
      "inputs": [
        {
          "internalType": "string",
          "name": "username",
          "type": "string"
        }
      ],
      "name": "getUserFaceHashes",
      "outputs": [
        {
          "internalType": "string[]",
          "name": "",
          "type": "string[]"
        }
      ],
      "stateMutability": "view",
      "type": "function"
    },
    {
      "inputs": [
        {
          "internalType": "string",
          "name": "username",
          "type": "string"
        }
      ],
      "name": "getUserPermissions",
      "outputs": [
        {
          "internalType": "string[]",
          "name": "",
          "type": "string[]"
        }
      ],
      "stateMutability": "view",
      "type": "function"
    },
    {
      "inputs": [
        {
          "internalType": "string",
          "name": "username",
          "type": "string"
        },
        {
          "internalType": "string",
          "name": "passwordHash",
          "type": "string"
        },
        {
          "internalType": "string[]",
          "name": "initialFaceHashes",
          "type": "string[]"
        },
        {
          "internalType": "string",
          "name": "creationDate",
          "type": "string"
        }
      ],
      "name": "registerUser",
      "outputs": [],
      "stateMutability": "nonpayable",
      "type": "function"
    },
    {
      "inputs": [
        {
          "internalType": "string",
          "name": "groupName",
          "type": "string"
        }
      ],
      "name": "removeGroup",
      "outputs": [],
      "stateMutability": "nonpayable",
      "type": "function"
    },
    {
      "inputs": [
        {
          "internalType": "string",
          "name": "username",
          "type": "string"
        }
      ],
      "name": "removeUser",
      "outputs": [],
      "stateMutability": "nonpayable",
      "type": "function"
    },
    {
      "inputs": [
        {
          "internalType": "string",
          "name": "groupName",
          "type": "string"
        },
        {
          "internalType": "string",
          "name": "username",
          "type": "string"
        }
      ],
      "name": "removeUserFromGroup",
      "outputs": [],
      "stateMutability": "nonpayable",
      "type": "function"
    },
    {
      "inputs": [
        {
          "internalType": "string",
          "name": "username",
          "type": "string"
        }
      ],
      "name": "requireUserPasswordChange",
      "outputs": [],
      "stateMutability": "nonpayable",
      "type": "function"
    },
    {
      "inputs": [
        {
          "internalType": "string",
          "name": "groupName",
          "type": "string"
        },
        {
          "internalType": "string[]",
          "name": "groupPermissions",
          "type": "string[]"
        }
      ],
      "name": "setGroupPermissions",
      "outputs": [
        {
          "internalType": "string",
          "name": "",
          "type": "string"
        }
      ],
      "stateMutability": "nonpayable",
      "type": "function"
    },
    {
      "inputs": [
        {
          "internalType": "string",
          "name": "groupName",
          "type": "string"
        },
        {
          "internalType": "string",
          "name": "url",
          "type": "string"
        }
      ],
      "name": "setGroupURL",
      "outputs": [],
      "stateMutability": "nonpayable",
      "type": "function"
    },
    {
      "inputs": [
        {
          "internalType": "string",
          "name": "username",
          "type": "string"
        }
      ],
      "name": "toggleUser",
      "outputs": [],
      "stateMutability": "nonpayable",
      "type": "function"
    },
    {
      "inputs": [
        {
          "internalType": "string",
          "name": "originalGroupName",
          "type": "string"
        },
        {
          "internalType": "string",
          "name": "newGroupName",
          "type": "string"
        },
        {
          "internalType": "string[]",
          "name": "newPermissions",
          "type": "string[]"
        }
      ],
      "name": "updateGroup",
      "outputs": [],
      "stateMutability": "nonpayable",
      "type": "function"
    },
    {
      "inputs": [
        {
          "internalType": "string",
          "name": "username",
          "type": "string"
        },
        {
          "internalType": "string",
          "name": "newEmail",
          "type": "string"
        }
      ],
      "name": "updateUserEmail",
      "outputs": [],
      "stateMutability": "nonpayable",
      "type": "function"
    },
    {
      "inputs": [
        {
          "internalType": "string",
          "name": "username",
          "type": "string"
        },
        {
          "internalType": "string[]",
          "name": "newFaceHashes",
          "type": "string[]"
        }
      ],
      "name": "updateUserFaceHash",
      "outputs": [],
      "stateMutability": "nonpayable",
      "type": "function"
    },
    {
      "inputs": [
        {
          "internalType": "string",
          "name": "username",
          "type": "string"
        },
        {
          "internalType": "string",
          "name": "newFullName",
          "type": "string"
        }
      ],
      "name": "updateUserFullName",
      "outputs": [],
      "stateMutability": "nonpayable",
      "type": "function"
    },
    {
      "inputs": [
        {
          "internalType": "string",
          "name": "username",
          "type": "string"
        },
        {
          "internalType": "string",
          "name": "newPasswordHash",
          "type": "string"
        }
      ],
      "name": "updateUserPassword",
      "outputs": [],
      "stateMutability": "nonpayable",
      "type": "function"
    }
  ],
  "bytecode": "0x60806040526000600560006101000a81548160ff0219169083151502179055503480156200002c57600080fd5b5033600560016101000a81548173ffffffffffffffffffffffffffffffffffffffff021916908373ffffffffffffffffffffffffffffffffffffffff160217905550600060405180608001604052806040518060400160405280601581526020017f466163654775617264204372656174653a20416c6c000000000000000000000081525081526020016040518060400160405280601381526020017f46616365477561726420526561643a20416c6c0000000000000000000000000081525081526020016040518060400160405280601581526020017f466163654775617264205570646174653a20416c6c000000000000000000000081525081526020016040518060400160405280601581526020017f4661636547756172642044656c6574653a20416c6c00000000000000000000008152508152509050600060405180606001604052806040518060400160405280601481526020017f46616365477561726420526561643a2053656c6600000000000000000000000081525081526020016040518060400160405280601681526020017f466163654775617264205570646174653a2053656c660000000000000000000081525081526020016040518060400160405280601681526020017f4661636547756172642044656c6574653a2053656c66000000000000000000008152508152509050600060405180608001604052806040518060400160405280601881526020017f466163654775617264204372656174653a2047726f757073000000000000000081525081526020016040518060400160405280601681526020017f46616365477561726420526561643a2047726f7570730000000000000000000081525081526020016040518060400160405280601881526020017f466163654775617264205570646174653a2047726f757073000000000000000081525081526020016040518060400160405280601881526020017f4661636547756172642044656c6574653a2047726f75707300000000000000008152508152509050600060405180608001604052806040518060400160405280601781526020017f466163654775617264204372656174653a20557365727300000000000000000081525081526020016040518060400160405280601581526020017f46616365477561726420526561643a205573657273000000000000000000000081525081526020016040518060400160405280601781526020017f466163654775617264205570646174653a20557365727300000000000000000081525081526020016040518060400160405280601781526020017f4661636547756172642044656c6574653a20557365727300000000000000000081525081525090506200046e6040518060400160405280600e81526020017f41646d696e6973747261746f727300000000000000000000000000000000000081525062000462866200057d60201b60201c565b620006ac60201b60201c565b620004c56040518060400160405280600581526020017f5573657273000000000000000000000000000000000000000000000000000000815250620004b9856200091860201b60201c565b620006ac60201b60201c565b6200051c6040518060400160405280600e81526020017f47726f7570204d616e616765727300000000000000000000000000000000000081525062000510846200057d60201b60201c565b620006ac60201b60201c565b620005736040518060400160405280600d81526020017f55736572204d616e61676572730000000000000000000000000000000000000081525062000567836200057d60201b60201c565b620006ac60201b60201c565b5050505062000f46565b60606000600467ffffffffffffffff811115620005c3577f4e487b7100000000000000000000000000000000000000000000000000000000600052604160045260246000fd5b604051908082528060200260200182016040528015620005f857816020015b6060815260200190600190039081620005e25790505b50905060005b6004811015620006a25783816004811062000642577f4e487b7100000000000000000000000000000000000000000000000000000000600052603260045260246000fd5b602002015182828151811062000681577f4e487b7100000000000000000000000000000000000000000000000000000000600052603260045260246000fd5b60200260200101819052508080620006999062000e89565b915050620005fe565b5080915050919050565b600560019054906101000a900473ffffffffffffffffffffffffffffffffffffffff1673ffffffffffffffffffffffffffffffffffffffff163373ffffffffffffffffffffffffffffffffffffffff16146200073f576040517f08c379a0000000000000000000000000000000000000000000000000000000008152600401620007369062000d80565b60405180910390fd5b6040518060800160405280838152602001600067ffffffffffffffff81111562000792577f4e487b7100000000000000000000000000000000000000000000000000000000600052604160045260246000fd5b604051908082528060200260200182016040528015620007c757816020015b6060815260200190600190039081620007b15790505b50815260200182815260200160405180602001604052806000815250815250600183604051620007f8919062000d43565b908152602001604051809103902060008201518160000190805190602001906200082492919062000a47565b5060208201518160010190805190602001906200084392919062000ad8565b5060408201518160020190805190602001906200086292919062000ad8565b5060608201518160030190805190602001906200088192919062000a47565b50905050600382908060018154018082558091505060019003906000526020600020016000909190919091509080519060200190620008c292919062000a47565b5081604051620008d3919062000d43565b60405180910390207f64e45d769b067e3e2de0a2fbfa982b75ad4472af64e84e1c421ec5bbe695de0f826040516200090c919062000d5c565b60405180910390a25050565b60606000600367ffffffffffffffff8111156200095e577f4e487b7100000000000000000000000000000000000000000000000000000000600052604160045260246000fd5b6040519080825280602002602001820160405280156200099357816020015b60608152602001906001900390816200097d5790505b50905060005b600381101562000a3d57838160038110620009dd577f4e487b7100000000000000000000000000000000000000000000000000000000600052603260045260246000fd5b602002015182828151811062000a1c577f4e487b7100000000000000000000000000000000000000000000000000000000600052603260045260246000fd5b6020026020010181905250808062000a349062000e89565b91505062000999565b5080915050919050565b82805462000a559062000e53565b90600052602060002090601f01602090048101928262000a79576000855562000ac5565b82601f1062000a9457805160ff191683800117855562000ac5565b8280016001018555821562000ac5579182015b8281111562000ac457825182559160200191906001019062000aa7565b5b50905062000ad4919062000b3f565b5090565b82805482825590600052602060002090810192821562000b2c579160200282015b8281111562000b2b57825182908051906020019062000b1a92919062000a47565b509160200191906001019062000af9565b5b50905062000b3b919062000b5e565b5090565b5b8082111562000b5a57600081600090555060010162000b40565b5090565b5b8082111562000b82576000818162000b78919062000b86565b5060010162000b5f565b5090565b50805462000b949062000e53565b6000825580601f1062000ba8575062000bc9565b601f01602090049060005260206000209081019062000bc8919062000b3f565b5b50565b600062000bda838362000c63565b905092915050565b600062000bef8262000db2565b62000bfb818562000dd5565b93508360208202850162000c0f8562000da2565b8060005b8581101562000c51578484038952815162000c2f858262000bcc565b945062000c3c8362000dc8565b925060208a0199505060018101905062000c13565b50829750879550505050505092915050565b600062000c708262000dbd565b62000c7c818562000de6565b935062000c8e81856020860162000e1d565b62000c998162000f35565b840191505092915050565b600062000cb18262000dbd565b62000cbd818562000e08565b935062000ccf81856020860162000e1d565b80840191505092915050565b600062000cea602f8362000df7565b91507f4f6e6c792074686520636f6e7472616374206f776e65722063616e207065726660008301527f6f726d207468697320616374696f6e00000000000000000000000000000000006020830152604082019050919050565b600062000d51828462000ca4565b915081905092915050565b6000602082019050818103600083015262000d78818462000be2565b905092915050565b6000602082019050818103600083015262000d9b8162000cdb565b9050919050565b6000819050602082019050919050565b600081519050919050565b600081519050919050565b6000602082019050919050565b600082825260208201905092915050565b600082825260208201905092915050565b600082825260208201905092915050565b600081905092915050565b6000819050919050565b60005b8381101562000e3d57808201518184015260208101905062000e20565b8381111562000e4d576000848401525b50505050565b6000600282049050600182168062000e6c57607f821691505b6020821081141562000e835762000e8262000f06565b5b50919050565b600062000e968262000e13565b91507fffffffffffffffffffffffffffffffffffffffffffffffffffffffffffffffff82141562000ecc5762000ecb62000ed7565b5b600182019050919050565b7f4e487b7100000000000000000000000000000000000000000000000000000000600052601160045260246000fd5b7f4e487b7100000000000000000000000000000000000000000000000000000000600052602260045260246000fd5b6000601f19601f8301169050919050565b615d2c8062000f566000396000f3fe608060405234801561001057600080fd5b506004361061014d5760003560e01c80636246b310116100c3578063abef281e1161007c578063abef281e1461038a578063b9e6facb146103bc578063c91bc46c146103d8578063e537cac7146103f4578063ecb5a4d514610410578063ee1c55da1461042c5761014d565b80636246b310146102ce57806367753ba1146102ea5780636b228cde146103065780636cad1934146103225780637c77f39f146103525780638a0bd86b1461036e5761014d565b80632d09d9e9116101155780632d09d9e9146101f457806331feb671146102245780635108c3ab1461025c57806353620375146102785780635b9a6b1d14610296578063600cee78146102b25761014d565b806303df9e92146101525780630e63a8c41461016e5780631ae7f10a1461018a57806321cd3cae146101ba578063266c1bab146101d8575b600080fd5b61016c60048036038101906101679190614d77565b61045c565b005b61018860048036038101906101839190614de3565b61066a565b005b6101a4600480360381019061019f9190614d77565b610a88565b6040516101b1919061574e565b60405180910390f35b6101c2610ee5565b6040516101cf91906156b8565b60405180910390f35b6101f260048036038101906101ed9190614de3565b610fbe565b005b61020e60048036038101906102099190614d36565b611185565b60405161021b91906156b8565b60405180910390f35b61023e60048036038101906102399190614d36565b61127f565b604051610253999897969594939291906157f3565b60405180910390f35b61027660048036038101906102719190614d36565b61179f565b005b610280611915565b60405161028d91906156b8565b60405180910390f35b6102b060048036038101906102ab9190614e4f565b6119ee565b005b6102cc60048036038101906102c79190614d36565b611fe2565b005b6102e860048036038101906102e39190614d36565b6124ba565b005b61030460048036038101906102ff9190614de3565b612b9a565b005b610320600480360381019061031b9190614d36565b613064565b005b61033c60048036038101906103379190614d36565b613139565b6040516103499190615733565b60405180910390f35b61036c60048036038101906103679190614d77565b613172565b005b61038860048036038101906103839190614de3565b6133c8565b005b6103a4600480360381019061039f9190614d36565b61358f565b6040516103b393929190615770565b60405180910390f35b6103d660048036038101906103d19190614ee6565b6139b4565b005b6103f260048036038101906103ed9190614de3565b613d27565b005b61040e60048036038101906104099190614d36565b613e6c565b005b61042a60048036038101906104259190614de3565b613f7b565b005b61044660048036038101906104419190614d36565b6141ac565b60405161045391906156b8565b60405180910390f35b600560019054906101000a900473ffffffffffffffffffffffffffffffffffffffff1673ffffffffffffffffffffffffffffffffffffffff163373ffffffffffffffffffffffffffffffffffffffff16146104ec576040517f08c379a00000000000000000000000000000000000000000000000000000000081526004016104e390615931565b60405180910390fd5b600080836040516104fd9190615675565b9081526020016040518091039020600201805480602002602001604051908101604052809291908181526020016000905b828210156105da57838290600052602060002001805461054d90615bdd565b80601f016020809104026020016040519081016040528092919081815260200182805461057990615bdd565b80156105c65780601f1061059b576101008083540402835291602001916105c6565b820191906000526020600020905b8154815290600101906020018083116105a957829003601f168201915b50505050508152602001906001019061052e565b505050509050816000846040516105f19190615675565b9081526020016040518091039020600201908051906020019061061592919061493d565b50826040516106249190615675565b60405180910390207fc3ab2bd26c429f3b9ad2951ce386b67f5ef41f9ab09d8db62e412af51d594a40828460405161065d9291906156da565b60405180910390a2505050565b600560019054906101000a900473ffffffffffffffffffffffffffffffffffffffff1673ffffffffffffffffffffffffffffffffffffffff163373ffffffffffffffffffffffffffffffffffffffff16146106fa576040517f08c379a00000000000000000000000000000000000000000000000000000000081526004016106f190615931565b60405180910390fd5b600060018360405161070c9190615675565b9081526020016040518091039020600001805461072890615bdd565b90501161076a576040517f08c379a000000000000000000000000000000000000000000000000000000000815260040161076190615971565b60405180910390fd5b600060405180608001604052806040518060400160405280600e81526020017f41646d696e6973747261746f727300000000000000000000000000000000000081525081526020016040518060400160405280600581526020017f557365727300000000000000000000000000000000000000000000000000000081525081526020016040518060400160405280600e81526020017f47726f7570204d616e616765727300000000000000000000000000000000000081525081526020016040518060400160405280600d81526020017f55736572204d616e616765727300000000000000000000000000000000000000815250815250905060005b600481101561094e578181600481106108a8577f4e487b7100000000000000000000000000000000000000000000000000000000600052603260045260246000fd5b60200201516040516020016108bd9190615675565b60405160208183030381529060405280519060200120846040516020016108e49190615675565b60405160208183030381529060405280519060200120141561093b576040517f08c379a0000000000000000000000000000000000000000000000000000000008152600401610932906158f1565b60405180910390fd5b808061094690615c0f565b915050610866565b5060006001846040516109619190615675565b9081526020016040518091039020600301805461097d90615bdd565b80601f01602080910402602001604051908101604052809291908181526020018280546109a990615bdd565b80156109f65780601f106109cb576101008083540402835291602001916109f6565b820191906000526020600020905b8154815290600101906020018083116109d957829003601f168201915b5050505050905082600185604051610a0e9190615675565b90815260200160405180910390206003019080519060200190610a3292919061499d565b5083604051610a419190615675565b60405180910390207f275d6b91252f1dc72d77d577b868396e1119b938aca15a3e0d9f08a8436aefb08285604051610a7a9291906157bc565b60405180910390a250505050565b6060600560019054906101000a900473ffffffffffffffffffffffffffffffffffffffff1673ffffffffffffffffffffffffffffffffffffffff163373ffffffffffffffffffffffffffffffffffffffff1614610b1a576040517f08c379a0000000000000000000000000000000000000000000000000000000008152600401610b1190615931565b60405180910390fd5b6000600184604051610b2c9190615675565b90815260200160405180910390206000018054610b4890615bdd565b905011610b8a576040517f08c379a0000000000000000000000000000000000000000000000000000000008152600401610b8190615971565b60405180910390fd5b600060405180608001604052806040518060400160405280600e81526020017f41646d696e6973747261746f727300000000000000000000000000000000000081525081526020016040518060400160405280600581526020017f557365727300000000000000000000000000000000000000000000000000000081525081526020016040518060400160405280600e81526020017f47726f7570204d616e616765727300000000000000000000000000000000000081525081526020016040518060400160405280600d81526020017f55736572204d616e616765727300000000000000000000000000000000000000815250815250905060005b6004811015610d6e57818160048110610cc8577f4e487b7100000000000000000000000000000000000000000000000000000000600052603260045260246000fd5b6020020151604051602001610cdd9190615675565b6040516020818303038152906040528051906020012085604051602001610d049190615675565b604051602081830303815290604052805190602001201415610d5b576040517f08c379a0000000000000000000000000000000000000000000000000000000008152600401610d52906158f1565b60405180910390fd5b8080610d6690615c0f565b915050610c86565b5082600185604051610d809190615675565b90815260200160405180910390206002019080519060200190610da492919061493d565b50600184604051610db59190615675565b9081526020016040518091039020600001604051610dd3919061568c565b60405180910390207f65d29756900166ea1a95042b775077b9e0c4b52e2ad303784b8fc75584de59ef600186604051610e0c9190615675565b9081526020016040518091039020600201604051610e2a9190615711565b60405180910390a2600184604051610e429190615675565b90815260200160405180910390206000018054610e5e90615bdd565b80601f0160208091040260200160405190810160405280929190818152602001828054610e8a90615bdd565b8015610ed75780601f10610eac57610100808354040283529160200191610ed7565b820191906000526020600020905b815481529060010190602001808311610eba57829003601f168201915b505050505091505092915050565b60606003805480602002602001604051908101604052809291908181526020016000905b82821015610fb5578382906000526020600020018054610f2890615bdd565b80601f0160208091040260200160405190810160405280929190818152602001828054610f5490615bdd565b8015610fa15780601f10610f7657610100808354040283529160200191610fa1565b820191906000526020600020905b815481529060010190602001808311610f8457829003601f168201915b505050505081526020019060010190610f09565b50505050905090565b600560019054906101000a900473ffffffffffffffffffffffffffffffffffffffff1673ffffffffffffffffffffffffffffffffffffffff163373ffffffffffffffffffffffffffffffffffffffff161461104e576040517f08c379a000000000000000000000000000000000000000000000000000000000815260040161104590615931565b60405180910390fd5b6000808360405161105f9190615675565b9081526020016040518091039020600601805461107b90615bdd565b80601f01602080910402602001604051908101604052809291908181526020018280546110a790615bdd565b80156110f45780601f106110c9576101008083540402835291602001916110f4565b820191906000526020600020905b8154815290600101906020018083116110d757829003601f168201915b505050505090508160008460405161110c9190615675565b9081526020016040518091039020600601908051906020019061113092919061499d565b508260405161113f9190615675565b60405180910390207fcc1535b390217134b99857a8888766bbd62b45e9c4ee9436c1f1471790825f1382846040516111789291906157bc565b60405180910390a2505050565b60606000826040516111979190615675565b9081526020016040518091039020600201805480602002602001604051908101604052809291908181526020016000905b828210156112745783829060005260206000200180546111e790615bdd565b80601f016020809104026020016040519081016040528092919081815260200182805461121390615bdd565b80156112605780601f1061123557610100808354040283529160200191611260565b820191906000526020600020905b81548152906001019060200180831161124357829003601f168201915b5050505050815260200190600101906111c8565b505050509050919050565b60608060608060606000806060806000808b60405161129e9190615675565b9081526020016040518091039020604051806101400160405290816000820180546112c890615bdd565b80601f01602080910402602001604051908101604052809291908181526020018280546112f490615bdd565b80156113415780601f1061131657610100808354040283529160200191611341565b820191906000526020600020905b81548152906001019060200180831161132457829003601f168201915b5050505050815260200160018201805461135a90615bdd565b80601f016020809104026020016040519081016040528092919081815260200182805461138690615bdd565b80156113d35780601f106113a8576101008083540402835291602001916113d3565b820191906000526020600020905b8154815290600101906020018083116113b657829003601f168201915b5050505050815260200160028201805480602002602001604051908101604052809291908181526020016000905b828210156114ad57838290600052602060002001805461142090615bdd565b80601f016020809104026020016040519081016040528092919081815260200182805461144c90615bdd565b80156114995780601f1061146e57610100808354040283529160200191611499565b820191906000526020600020905b81548152906001019060200180831161147c57829003601f168201915b505050505081526020019060010190611401565b5050505081526020016003820180546114c590615bdd565b80601f01602080910402602001604051908101604052809291908181526020018280546114f190615bdd565b801561153e5780601f106115135761010080835404028352916020019161153e565b820191906000526020600020905b81548152906001019060200180831161152157829003601f168201915b5050505050815260200160048201805461155790615bdd565b80601f016020809104026020016040519081016040528092919081815260200182805461158390615bdd565b80156115d05780601f106115a5576101008083540402835291602001916115d0565b820191906000526020600020905b8154815290600101906020018083116115b357829003601f168201915b505050505081526020016005820160009054906101000a900460ff161515151581526020016005820160019054906101000a900460ff161515151581526020016005820160029054906101000a900460ff1615151515815260200160068201805461163a90615bdd565b80601f016020809104026020016040519081016040528092919081815260200182805461166690615bdd565b80156116b35780601f10611688576101008083540402835291602001916116b3565b820191906000526020600020905b81548152906001019060200180831161169657829003601f168201915b505050505081526020016007820180546116cc90615bdd565b80601f01602080910402602001604051908101604052809291908181526020018280546116f890615bdd565b80156117455780601f1061171a57610100808354040283529160200191611745565b820191906000526020600020905b81548152906001019060200180831161172857829003601f168201915b5050505050815250509050806000015181602001518260400151836060015184608001518560a001518660e00151876101000151886101200151995099509950995099509950995099509950509193959799909294969850565b600560019054906101000a900473ffffffffffffffffffffffffffffffffffffffff1673ffffffffffffffffffffffffffffffffffffffff163373ffffffffffffffffffffffffffffffffffffffff161461182f576040517f08c379a000000000000000000000000000000000000000000000000000000000815260040161182690615931565b60405180910390fd5b60008160405161183f9190615675565b908152602001604051809103902060050160029054906101000a900460ff161560008260405161186f9190615675565b908152602001604051809103902060050160026101000a81548160ff021916908315150217905550806040516118a59190615675565b60405180910390207f9b1a1e5131c18ee5fd8454b3b435b1b36127bd0c05686d9fc6190d638bcb14996000836040516118de9190615675565b908152602001604051809103902060050160029054906101000a900460ff1660405161190a9190615733565b60405180910390a250565b60606002805480602002602001604051908101604052809291908181526020016000905b828210156119e557838290600052602060002001805461195890615bdd565b80601f016020809104026020016040519081016040528092919081815260200182805461198490615bdd565b80156119d15780601f106119a6576101008083540402835291602001916119d1565b820191906000526020600020905b8154815290600101906020018083116119b457829003601f168201915b505050505081526020019060010190611939565b50505050905090565b600560019054906101000a900473ffffffffffffffffffffffffffffffffffffffff1673ffffffffffffffffffffffffffffffffffffffff163373ffffffffffffffffffffffffffffffffffffffff1614611a7e576040517f08c379a0000000000000000000000000000000000000000000000000000000008152600401611a7590615931565b60405180910390fd5b6000600184604051611a909190615675565b90815260200160405180910390206000018054611aac90615bdd565b905011611aee576040517f08c379a0000000000000000000000000000000000000000000000000000000008152600401611ae590615971565b60405180910390fd5b600060405180608001604052806040518060400160405280600e81526020017f41646d696e6973747261746f727300000000000000000000000000000000000081525081526020016040518060400160405280600581526020017f557365727300000000000000000000000000000000000000000000000000000081525081526020016040518060400160405280600e81526020017f47726f7570204d616e616765727300000000000000000000000000000000000081525081526020016040518060400160405280600d81526020017f55736572204d616e616765727300000000000000000000000000000000000000815250815250905060005b6004811015611cd257818160048110611c2c577f4e487b7100000000000000000000000000000000000000000000000000000000600052603260045260246000fd5b6020020151604051602001611c419190615675565b6040516020818303038152906040528051906020012085604051602001611c689190615675565b604051602081830303815290604052805190602001201415611cbf576040517f08c379a0000000000000000000000000000000000000000000000000000000008152600401611cb690615951565b60405180910390fd5b8080611cca90615c0f565b915050611bea565b50611cdd8483610a88565b5082604051602001611cef9190615675565b6040516020818303038152906040528051906020012084604051602001611d169190615675565b6040516020818303038152906040528051906020012014611fdc57600184604051611d419190615675565b9081526020016040518091039020600184604051611d5f9190615675565b90815260200160405180910390206000820181600001908054611d8190615bdd565b611d8c929190614a23565b506001820181600101908054611da3929190614ab0565b506002820181600201908054611dba929190614ab0565b506003820181600301908054611dcf90615bdd565b611dda929190614a23565b5090505082600184604051611def9190615675565b90815260200160405180910390206000019080519060200190611e1392919061499d565b50600184604051611e249190615675565b908152602001604051809103902060008082016000611e439190614b18565b600182016000611e539190614b58565b600282016000611e639190614b58565b600382016000611e739190614b18565b505060005b600380549050811015611f8d5784604051602001611e969190615675565b6040516020818303038152906040528051906020012060038281548110611ee6577f4e487b7100000000000000000000000000000000000000000000000000000000600052603260045260246000fd5b90600052602060002001604051602001611f00919061568c565b604051602081830303815290604052805190602001201415611f7a578360038281548110611f57577f4e487b7100000000000000000000000000000000000000000000000000000000600052603260045260246000fd5b906000526020600020019080519060200190611f7492919061499d565b50611f8d565b8080611f8590615c0f565b915050611e78565b5083604051611f9c9190615675565b60405180910390207f364b226b5f086e2e247d242241146270270074b8e63461b564298285dfdb087884604051611fd3919061574e565b60405180910390a25b50505050565b600560019054906101000a900473ffffffffffffffffffffffffffffffffffffffff1673ffffffffffffffffffffffffffffffffffffffff163373ffffffffffffffffffffffffffffffffffffffff1614612072576040517f08c379a000000000000000000000000000000000000000000000000000000000815260040161206990615931565b60405180910390fd5b600080826040516120839190615675565b9081526020016040518091039020600001805461209f90615bdd565b9050116120e1576040517f08c379a00000000000000000000000000000000000000000000000000000000081526004016120d8906159b1565b60405180910390fd5b60046040516020016120f3919061568c565b604051602081830303815290604052805190602001208160405160200161211a9190615675565b604051602081830303815290604052805190602001201415612171576040517f08c379a000000000000000000000000000000000000000000000000000000000815260040161216890615911565b60405180910390fd5b6001600560006101000a81548160ff0219169083151502179055506121cb6040518060400160405280600581526020017f557365727300000000000000000000000000000000000000000000000000000081525082612b9a565b6000600560006101000a81548160ff0219169083151502179055506000805b6002805490508110156123b157826040516020016122089190615675565b6040516020818303038152906040528051906020012060028281548110612258577f4e487b7100000000000000000000000000000000000000000000000000000000600052603260045260246000fd5b90600052602060002001604051602001612272919061568c565b60405160208183030381529060405280519060200120141561239e5760019150600260016002805490506122a69190615b51565b815481106122dd577f4e487b7100000000000000000000000000000000000000000000000000000000600052603260045260246000fd5b9060005260206000200160028281548110612321577f4e487b7100000000000000000000000000000000000000000000000000000000600052603260045260246000fd5b9060005260206000200190805461233790615bdd565b612342929190614b79565b50600280548061237b577f4e487b7100000000000000000000000000000000000000000000000000000000600052603160045260246000fd5b6001900381819060005260206000200160006123979190614b18565b90556123b1565b80806123a990615c0f565b9150506121ea565b506000826040516123c29190615675565b9081526020016040518091039020600080820160006123e19190614b18565b6001820160006123f19190614b18565b6002820160006124019190614b58565b6003820160006124119190614b18565b6004820160006124219190614b18565b6005820160006101000a81549060ff02191690556005820160016101000a81549060ff02191690556005820160026101000a81549060ff021916905560068201600061246d9190614b18565b60078201600061247d9190614b18565b50507f5b8514bf599ab0e7b72a3b2d47ae13677daa88ebbf833cea7bad37b6df49ede3826040516124ae919061574e565b60405180910390a15050565b600560019054906101000a900473ffffffffffffffffffffffffffffffffffffffff1673ffffffffffffffffffffffffffffffffffffffff163373ffffffffffffffffffffffffffffffffffffffff161461254a576040517f08c379a000000000000000000000000000000000000000000000000000000000815260040161254190615931565b60405180910390fd5b600060018260405161255c9190615675565b9081526020016040518091039020600001805461257890615bdd565b9050116125ba576040517f08c379a00000000000000000000000000000000000000000000000000000000081526004016125b190615971565b60405180910390fd5b600060405180608001604052806040518060400160405280600e81526020017f41646d696e6973747261746f727300000000000000000000000000000000000081525081526020016040518060400160405280600581526020017f557365727300000000000000000000000000000000000000000000000000000081525081526020016040518060400160405280600e81526020017f47726f7570204d616e616765727300000000000000000000000000000000000081525081526020016040518060400160405280600d81526020017f55736572204d616e616765727300000000000000000000000000000000000000815250815250905060005b600481101561279e578181600481106126f8577f4e487b7100000000000000000000000000000000000000000000000000000000600052603260045260246000fd5b602002015160405160200161270d9190615675565b60405160208183030381529060405280519060200120836040516020016127349190615675565b60405160208183030381529060405280519060200120141561278b576040517f08c379a000000000000000000000000000000000000000000000000000000000815260040161278290615991565b60405180910390fd5b808061279690615c0f565b9150506126b6565b506000805b600380549050811015612aa657836040516020016127c19190615675565b6040516020818303038152906040528051906020012060038281548110612811577f4e487b7100000000000000000000000000000000000000000000000000000000600052603260045260246000fd5b9060005260206000200160405160200161282b919061568c565b604051602081830303815290604052805190602001201415612a935760019150600060038281548110612887577f4e487b7100000000000000000000000000000000000000000000000000000000600052603260045260246000fd5b90600052602060002001805461289c90615bdd565b80601f01602080910402602001604051908101604052809291908181526020018280546128c890615bdd565b80156129155780601f106128ea57610100808354040283529160200191612915565b820191906000526020600020905b8154815290600101906020018083116128f857829003601f168201915b50505050509050600360016003805490506129309190615b51565b81548110612967577f4e487b7100000000000000000000000000000000000000000000000000000000600052603260045260246000fd5b90600052602060002001600383815481106129ab577f4e487b7100000000000000000000000000000000000000000000000000000000600052603260045260246000fd5b906000526020600020019080546129c190615bdd565b6129cc929190614b79565b5080600360016003805490506129e29190615b51565b81548110612a19577f4e487b7100000000000000000000000000000000000000000000000000000000600052603260045260246000fd5b906000526020600020019080519060200190612a3692919061499d565b506003805480612a6f577f4e487b7100000000000000000000000000000000000000000000000000000000600052603160045260246000fd5b600190038181906000526020600020016000612a8b9190614b18565b905550612aa6565b8080612a9e90615c0f565b9150506127a3565b5080612ae7576040517f08c379a0000000000000000000000000000000000000000000000000000000008152600401612ade906158b1565b60405180910390fd5b600183604051612af79190615675565b908152602001604051809103902060008082016000612b169190614b18565b600182016000612b269190614b58565b600282016000612b369190614b58565b600382016000612b469190614b18565b505082604051612b569190615675565b60405180910390207f07386a1c2a0cc80496a77c2fdc90bc93764d5fa75567f9dd3cb6513fdfb7e3ae84604051612b8d919061574e565b60405180910390a2505050565b600560019054906101000a900473ffffffffffffffffffffffffffffffffffffffff1673ffffffffffffffffffffffffffffffffffffffff163373ffffffffffffffffffffffffffffffffffffffff1614612c2a576040517f08c379a0000000000000000000000000000000000000000000000000000000008152600401612c2190615931565b60405180910390fd5b6000600183604051612c3c9190615675565b90815260200160405180910390206000018054612c5890615bdd565b905011612c9a576040517f08c379a0000000000000000000000000000000000000000000000000000000008152600401612c9190615971565b60405180910390fd5b60008082604051612cab9190615675565b90815260200160405180910390206000018054612cc790615bdd565b905011612d09576040517f08c379a0000000000000000000000000000000000000000000000000000000008152600401612d00906159d1565b60405180910390fd5b60001515600560009054906101000a900460ff1615151415612db357604051602001612d34906156a3565b6040516020818303038152906040528051906020012082604051602001612d5b9190615675565b604051602081830303815290604052805190602001201415612db2576040517f08c379a0000000000000000000000000000000000000000000000000000000008152600401612da9906158d1565b60405180910390fd5b5b6000600183604051612dc59190615675565b908152602001604051809103902060010190506000805b8280549050811015612f9d5783604051602001612df99190615675565b60405160208183030381529060405280519060200120838281548110612e48577f4e487b7100000000000000000000000000000000000000000000000000000000600052603260045260246000fd5b90600052602060002001604051602001612e62919061568c565b604051602081830303815290604052805190602001201415612f8a57600191508260018480549050612e949190615b51565b81548110612ecb577f4e487b7100000000000000000000000000000000000000000000000000000000600052603260045260246000fd5b90600052602060002001838281548110612f0e577f4e487b7100000000000000000000000000000000000000000000000000000000600052603260045260246000fd5b90600052602060002001908054612f2490615bdd565b612f2f929190614b79565b5082805480612f67577f4e487b7100000000000000000000000000000000000000000000000000000000600052603160045260246000fd5b600190038181906000526020600020016000612f839190614b18565b9055612f9d565b8080612f9590615c0f565b915050612ddc565b5060001515600560009054906101000a900460ff1615151415612ffb5780612ffa576040517f08c379a0000000000000000000000000000000000000000000000000000000008152600401612ff1906159f1565b60405180910390fd5b5b836040516130099190615675565b60405180910390208360405161301f9190615675565b60405180910390207fb1732b736a2c3992176f914fe619cdc4cd9e4e2b2162e1a9ed48d9d38f1493e586604051613056919061574e565b60405180910390a350505050565b600560019054906101000a900473ffffffffffffffffffffffffffffffffffffffff1673ffffffffffffffffffffffffffffffffffffffff163373ffffffffffffffffffffffffffffffffffffffff16146130f4576040517f08c379a00000000000000000000000000000000000000000000000000000000081526004016130eb90615931565b60405180910390fd5b806040516131029190615675565b60405180910390207f66ece5ba82771921bdbfdb2bf2e469359fdecc21f7a2dc5b5e978e84fe9ad20960405160405180910390a250565b60008060008360405161314c9190615675565b9081526020016040518091039020600001805461316890615bdd565b9050119050919050565b600560019054906101000a900473ffffffffffffffffffffffffffffffffffffffff1673ffffffffffffffffffffffffffffffffffffffff163373ffffffffffffffffffffffffffffffffffffffff1614613202576040517f08c379a00000000000000000000000000000000000000000000000000000000081526004016131f990615931565b60405180910390fd5b6040518060800160405280838152602001600067ffffffffffffffff811115613254577f4e487b7100000000000000000000000000000000000000000000000000000000600052604160045260246000fd5b60405190808252806020026020018201604052801561328757816020015b60608152602001906001900390816132725790505b508152602001828152602001604051806020016040528060008152508152506001836040516132b69190615675565b908152602001604051809103902060008201518160000190805190602001906132e092919061499d565b5060208201518160010190805190602001906132fd92919061493d565b50604082015181600201908051906020019061331a92919061493d565b50606082015181600301908051906020019061333792919061499d565b5090505060038290806001815401808255809150506001900390600052602060002001600090919091909150908051906020019061337692919061499d565b50816040516133859190615675565b60405180910390207f64e45d769b067e3e2de0a2fbfa982b75ad4472af64e84e1c421ec5bbe695de0f826040516133bc91906156b8565b60405180910390a25050565b600560019054906101000a900473ffffffffffffffffffffffffffffffffffffffff1673ffffffffffffffffffffffffffffffffffffffff163373ffffffffffffffffffffffffffffffffffffffff1614613458576040517f08c379a000000000000000000000000000000000000000000000000000000000815260040161344f90615931565b60405180910390fd5b600080836040516134699190615675565b9081526020016040518091039020600701805461348590615bdd565b80601f01602080910402602001604051908101604052809291908181526020018280546134b190615bdd565b80156134fe5780601f106134d3576101008083540402835291602001916134fe565b820191906000526020600020905b8154815290600101906020018083116134e157829003601f168201915b50505050509050816000846040516135169190615675565b9081526020016040518091039020600701908051906020019061353a92919061499d565b50826040516135499190615675565b60405180910390207f761bd9ed45e855f17b06454b8c624a18672818f8993e77686bcce7a8f70b265582846040516135829291906157bc565b60405180910390a2505050565b6060806060600560019054906101000a900473ffffffffffffffffffffffffffffffffffffffff1673ffffffffffffffffffffffffffffffffffffffff163373ffffffffffffffffffffffffffffffffffffffff1614613624576040517f08c379a000000000000000000000000000000000000000000000000000000000815260040161361b90615931565b60405180910390fd5b60006001856040516136369190615675565b9081526020016040518091039020600001805461365290615bdd565b905011613694576040517f08c379a000000000000000000000000000000000000000000000000000000000815260040161368b90615971565b60405180910390fd5b60006001856040516136a69190615675565b90815260200160405180910390206040518060800160405290816000820180546136cf90615bdd565b80601f01602080910402602001604051908101604052809291908181526020018280546136fb90615bdd565b80156137485780601f1061371d57610100808354040283529160200191613748565b820191906000526020600020905b81548152906001019060200180831161372b57829003601f168201915b5050505050815260200160018201805480602002602001604051908101604052809291908181526020016000905b8282101561382257838290600052602060002001805461379590615bdd565b80601f01602080910402602001604051908101604052809291908181526020018280546137c190615bdd565b801561380e5780601f106137e35761010080835404028352916020019161380e565b820191906000526020600020905b8154815290600101906020018083116137f157829003601f168201915b505050505081526020019060010190613776565b50505050815260200160028201805480602002602001604051908101604052809291908181526020016000905b828210156138fb57838290600052602060002001805461386e90615bdd565b80601f016020809104026020016040519081016040528092919081815260200182805461389a90615bdd565b80156138e75780601f106138bc576101008083540402835291602001916138e7565b820191906000526020600020905b8154815290600101906020018083116138ca57829003601f168201915b50505050508152602001906001019061384f565b50505050815260200160038201805461391390615bdd565b80601f016020809104026020016040519081016040528092919081815260200182805461393f90615bdd565b801561398c5780601f106139615761010080835404028352916020019161398c565b820191906000526020600020905b81548152906001019060200180831161396f57829003601f168201915b5050505050815250509050806000015181604001518260200151935093509350509193909250565b600560019054906101000a900473ffffffffffffffffffffffffffffffffffffffff1673ffffffffffffffffffffffffffffffffffffffff163373ffffffffffffffffffffffffffffffffffffffff1614613a44576040517f08c379a0000000000000000000000000000000000000000000000000000000008152600401613a3b90615931565b60405180910390fd5b60405180610140016040528085815260200184815260200183815260200182815260200182815260200160001515815260200160001515815260200160011515815260200160405180602001604052806000815250815260200160405180602001604052806000815250815250600085604051613ac19190615675565b90815260200160405180910390206000820151816000019080519060200190613aeb92919061499d565b506020820151816001019080519060200190613b0892919061499d565b506040820151816002019080519060200190613b2592919061493d565b506060820151816003019080519060200190613b4292919061499d565b506080820151816004019080519060200190613b5f92919061499d565b5060a08201518160050160006101000a81548160ff02191690831515021790555060c08201518160050160016101000a81548160ff02191690831515021790555060e08201518160050160026101000a81548160ff021916908315150217905550610100820151816006019080519060200190613bdd92919061499d565b50610120820151816007019080519060200190613bfb92919061499d565b50905050600284908060018154018082558091505060019003906000526020600020016000909190919091509080519060200190613c3a92919061499d565b50613c7a6040518060400160405280600581526020017f557365727300000000000000000000000000000000000000000000000000000081525085613f7b565b83604051613c889190615675565b60405180910390207f270ff4b111e5baa49283562af127cc5ea74e9d6c9efd5465578bd9223d5843f060405160405180910390a260016002805490501415613d2157613d096040518060400160405280600e81526020017f41646d696e6973747261746f727300000000000000000000000000000000000081525085613f7b565b8360049080519060200190613d1f92919061499d565b505b50505050565b600560019054906101000a900473ffffffffffffffffffffffffffffffffffffffff1673ffffffffffffffffffffffffffffffffffffffff163373ffffffffffffffffffffffffffffffffffffffff1614613db7576040517f08c379a0000000000000000000000000000000000000000000000000000000008152600401613dae90615931565b60405180910390fd5b80600083604051613dc89190615675565b90815260200160405180910390206001019080519060200190613dec92919061499d565b5060008083604051613dfe9190615675565b908152602001604051809103902060050160016101000a81548160ff02191690831515021790555081604051613e349190615675565b60405180910390207fd0b43b0b96083c98cc0f0370575812de87ee48ff1bde30bcd74f3518443bc4f560405160405180910390a25050565b600560019054906101000a900473ffffffffffffffffffffffffffffffffffffffff1673ffffffffffffffffffffffffffffffffffffffff163373ffffffffffffffffffffffffffffffffffffffff1614613efc576040517f08c379a0000000000000000000000000000000000000000000000000000000008152600401613ef390615931565b60405180910390fd5b6001600082604051613f0e9190615675565b908152602001604051809103902060050160016101000a81548160ff02191690831515021790555080604051613f449190615675565b60405180910390207f926f593dd22175375135b3fd9428c5d0298a5665da18756555b6af9f305ab9a660405160405180910390a250565b600560019054906101000a900473ffffffffffffffffffffffffffffffffffffffff1673ffffffffffffffffffffffffffffffffffffffff163373ffffffffffffffffffffffffffffffffffffffff161461400b576040517f08c379a000000000000000000000000000000000000000000000000000000000815260040161400290615931565b60405180910390fd5b600060018360405161401d9190615675565b9081526020016040518091039020600001805461403990615bdd565b90501161407b576040517f08c379a000000000000000000000000000000000000000000000000000000000815260040161407290615971565b60405180910390fd5b6000808260405161408c9190615675565b908152602001604051809103902060000180546140a890615bdd565b9050116140ea576040517f08c379a00000000000000000000000000000000000000000000000000000000081526004016140e1906159d1565b60405180910390fd5b6001826040516140fa9190615675565b90815260200160405180910390206001018190806001815401808255809150506001900390600052602060002001600090919091909150908051906020019061414492919061499d565b50816040516141539190615675565b6040518091039020816040516141699190615675565b60405180910390207f88660d90a50050ca9a3dc40508709d6f9b1f057a360eca907d347ae286e058d8846040516141a0919061574e565b60405180910390a35050565b6060600080836040516141bf9190615675565b908152602001604051809103902060000180546141db90615bdd565b90501161421d576040517f08c379a0000000000000000000000000000000000000000000000000000000008152600401614214906159d1565b60405180910390fd5b600060038054905067ffffffffffffffff811115614264577f4e487b7100000000000000000000000000000000000000000000000000000000600052604160045260246000fd5b60405190808252806020026020018201604052801561429757816020015b60608152602001906001900390816142825790505b5090506000805b6003805490508110156144c75760006001600383815481106142e9577f4e487b7100000000000000000000000000000000000000000000000000000000600052603260045260246000fd5b90600052602060002001604051614300919061568c565b9081526020016040518091039020905060005b81600101805490508110156144b257866040516020016143339190615675565b60405160208183030381529060405280519060200120826001018281548110614385577f4e487b7100000000000000000000000000000000000000000000000000000000600052603260045260246000fd5b9060005260206000200160405160200161439f919061568c565b60405160208183030381529060405280519060200120141561449f578160000180546143ca90615bdd565b80601f01602080910402602001604051908101604052809291908181526020018280546143f690615bdd565b80156144435780601f1061441857610100808354040283529160200191614443565b820191906000526020600020905b81548152906001019060200180831161442657829003601f168201915b5050505050858581518110614481577f4e487b7100000000000000000000000000000000000000000000000000000000600052603260045260246000fd5b6020026020010181905250838061449790615c0f565b9450506144b2565b80806144aa90615c0f565b915050614313565b505080806144bf90615c0f565b91505061429e565b506000603267ffffffffffffffff81111561450b577f4e487b7100000000000000000000000000000000000000000000000000000000600052604160045260246000fd5b60405190808252806020026020018201604052801561453e57816020015b60608152602001906001900390816145295790505b5090506000805b83811015614813576000858281518110614588577f4e487b7100000000000000000000000000000000000000000000000000000000600052603260045260246000fd5b6020026020010151905060006001826040516145a49190615675565b9081526020016040518091039020600201905060005b81805490508110156147fd576000805b868110156146c45783838154811061460b577f4e487b7100000000000000000000000000000000000000000000000000000000600052603260045260246000fd5b90600052602060002001604051602001614625919061568c565b60405160208183030381529060405280519060200120888281518110614674577f4e487b7100000000000000000000000000000000000000000000000000000000600052603260045260246000fd5b602002602001015160405160200161468c9190615675565b6040516020818303038152906040528051906020012014156146b157600191506146c4565b80806146bc90615c0f565b9150506145ca565b50806147e957828281548110614703577f4e487b7100000000000000000000000000000000000000000000000000000000600052603260045260246000fd5b90600052602060002001805461471890615bdd565b80601f016020809104026020016040519081016040528092919081815260200182805461474490615bdd565b80156147915780601f1061476657610100808354040283529160200191614791565b820191906000526020600020905b81548152906001019060200180831161477457829003601f168201915b50505050508787815181106147cf577f4e487b7100000000000000000000000000000000000000000000000000000000600052603260045260246000fd5b602002602001018190525085806147e590615c0f565b9650505b5080806147f590615c0f565b9150506145ba565b505050808061480b90615c0f565b915050614545565b5060008167ffffffffffffffff811115614856577f4e487b7100000000000000000000000000000000000000000000000000000000600052604160045260246000fd5b60405190808252806020026020018201604052801561488957816020015b60608152602001906001900390816148745790505b50905060005b8281101561492f578381815181106148d0577f4e487b7100000000000000000000000000000000000000000000000000000000600052603260045260246000fd5b6020026020010151828281518110614911577f4e487b7100000000000000000000000000000000000000000000000000000000600052603260045260246000fd5b6020026020010181905250808061492790615c0f565b91505061488f565b508095505050505050919050565b82805482825590600052602060002090810192821561498c579160200282015b8281111561498b57825182908051906020019061497b92919061499d565b509160200191906001019061495d565b5b5090506149999190614c06565b5090565b8280546149a990615bdd565b90600052602060002090601f0160209004810192826149cb5760008555614a12565b82601f106149e457805160ff1916838001178555614a12565b82800160010185558215614a12579182015b82811115614a115782518255916020019190600101906149f6565b5b509050614a1f9190614c2a565b5090565b828054614a2f90615bdd565b90600052602060002090601f016020900481019282614a515760008555614a9f565b82601f10614a625780548555614a9f565b82800160010185558215614a9f57600052602060002091601f016020900482015b82811115614a9e578254825591600101919060010190614a83565b5b509050614aac9190614c2a565b5090565b828054828255906000526020600020908101928215614b075760005260206000209182015b82811115614b06578282908054614aeb90615bdd565b614af6929190614a23565b5091600101919060010190614ad5565b5b509050614b149190614c06565b5090565b508054614b2490615bdd565b6000825580601f10614b365750614b55565b601f016020900490600052602060002090810190614b549190614c2a565b5b50565b5080546000825590600052602060002090810190614b769190614c06565b50565b828054614b8590615bdd565b90600052602060002090601f016020900481019282614ba75760008555614bf5565b82601f10614bb85780548555614bf5565b82800160010185558215614bf557600052602060002091601f016020900482015b82811115614bf4578254825591600101919060010190614bd9565b5b509050614c029190614c2a565b5090565b5b80821115614c265760008181614c1d9190614b18565b50600101614c07565b5090565b5b80821115614c43576000816000905550600101614c2b565b5090565b6000614c5a614c5584615a42565b615a11565b9050808382526020820190508260005b85811015614c9a5781358501614c808882614d0c565b845260208401935060208301925050600181019050614c6a565b5050509392505050565b6000614cb7614cb284615a6e565b615a11565b905082815260208101848484011115614ccf57600080fd5b614cda848285615b9b565b509392505050565b600082601f830112614cf357600080fd5b8135614d03848260208601614c47565b91505092915050565b600082601f830112614d1d57600080fd5b8135614d2d848260208601614ca4565b91505092915050565b600060208284031215614d4857600080fd5b600082013567ffffffffffffffff811115614d6257600080fd5b614d6e84828501614d0c565b91505092915050565b60008060408385031215614d8a57600080fd5b600083013567ffffffffffffffff811115614da457600080fd5b614db085828601614d0c565b925050602083013567ffffffffffffffff811115614dcd57600080fd5b614dd985828601614ce2565b9150509250929050565b60008060408385031215614df657600080fd5b600083013567ffffffffffffffff811115614e1057600080fd5b614e1c85828601614d0c565b925050602083013567ffffffffffffffff811115614e3957600080fd5b614e4585828601614d0c565b9150509250929050565b600080600060608486031215614e6457600080fd5b600084013567ffffffffffffffff811115614e7e57600080fd5b614e8a86828701614d0c565b935050602084013567ffffffffffffffff811115614ea757600080fd5b614eb386828701614d0c565b925050604084013567ffffffffffffffff811115614ed057600080fd5b614edc86828701614ce2565b9150509250925092565b60008060008060808587031215614efc57600080fd5b600085013567ffffffffffffffff811115614f1657600080fd5b614f2287828801614d0c565b945050602085013567ffffffffffffffff811115614f3f57600080fd5b614f4b87828801614d0c565b935050604085013567ffffffffffffffff811115614f6857600080fd5b614f7487828801614ce2565b925050606085013567ffffffffffffffff811115614f9157600080fd5b614f9d87828801614d0c565b91505092959194509250565b6000614fb583836150c9565b905092915050565b6000614fc9838361516c565b905092915050565b6000614fdc82615ad8565b614fe68185615b13565b935083602082028501614ff885615a9e565b8060005b8581101561503457848403895281516150158582614fa9565b945061502083615af9565b925060208a01995050600181019050614ffc565b50829750879550505050505092915050565b600061505182615ae3565b61505b8185615b13565b93508360208202850161506d85615aae565b8060005b858110156150a8578484038952816150898582614fbd565b945061509483615b06565b925060208a01995050600181019050615071565b50829750879550505050505092915050565b6150c381615b85565b82525050565b60006150d482615aee565b6150de8185615b24565b93506150ee818560208601615baa565b6150f781615ce5565b840191505092915050565b600061510d82615aee565b6151178185615b35565b9350615127818560208601615baa565b61513081615ce5565b840191505092915050565b600061514682615aee565b6151508185615b46565b9350615160818560208601615baa565b80840191505092915050565b6000815461517981615bdd565b6151838186615b24565b9450600182166000811461519e57600181146151b0576151e3565b60ff19831686526020860193506151e3565b6151b985615ac3565b60005b838110156151db578154818901526001820191506020810190506151bc565b808801955050505b50505092915050565b600081546151f981615bdd565b6152038186615b46565b9450600182166000811461521e576001811461522f57615262565b60ff19831686528186019350615262565b61523885615ac3565b60005b8381101561525a5781548189015260018201915060208101905061523b565b838801955050505b50505092915050565b6000615278602083615b35565b91507f47726f7570206e6f7420666f756e6420696e20616c6c47726f75704e616d65736000830152602082019050919050565b60006152b8603383615b35565b91507f52656d6f76696e672075736572732066726f6d2074686520557365727320677260008301527f6f7570206973206e6f7420616c6c6f77656421000000000000000000000000006020830152604082019050919050565b600061531e600583615b46565b91507f55736572730000000000000000000000000000000000000000000000000000006000830152600582019050919050565b600061535e602f83615b35565b91507f4d6f64696679696e6720636f72652067726f7570207065726d697373696f6e7360008301527f206973206e6f7420616c6c6f77656400000000000000000000000000000000006020830152604082019050919050565b60006153c4604283615b35565b91507f44656c6574696e6720746865206f726967696e616c20736d61727420636f6e7460008301527f726163742061646d696e6973747261746f72206973206e6f7420616c6c6f776560208301527f64210000000000000000000000000000000000000000000000000000000000006040830152606082019050919050565b6000615450602f83615b35565b91507f4f6e6c792074686520636f6e7472616374206f776e65722063616e207065726660008301527f6f726d207468697320616374696f6e00000000000000000000000000000000006020830152604082019050919050565b60006154b6603c83615b35565b91507f4d6f64696679696e6720636f72652067726f7570206e616d657320616e642f6f60008301527f72207065726d697373696f6e73206973206e6f7420616c6c6f776564000000006020830152604082019050919050565b600061551c601483615b35565b91507f47726f757020646f6573206e6f742065786973740000000000000000000000006000830152602082019050919050565b600061555c602483615b35565b91507f44656c6574696e67206120636f72652067726f7570206973206e6f7420616c6c60008301527f6f776564000000000000000000000000000000000000000000000000000000006020830152604082019050919050565b60006155c2601483615b35565b91507f5573657220646f6573206e6f74206578697374210000000000000000000000006000830152602082019050919050565b6000615602601383615b35565b91507f5573657220646f6573206e6f74206578697374000000000000000000000000006000830152602082019050919050565b6000615642601983615b35565b91507f55736572206973206e6f7420696e20746869732067726f7570000000000000006000830152602082019050919050565b6000615681828461513b565b915081905092915050565b600061569882846151ec565b915081905092915050565b60006156ae82615311565b9150819050919050565b600060208201905081810360008301526156d28184614fd1565b905092915050565b600060408201905081810360008301526156f48185614fd1565b905081810360208301526157088184614fd1565b90509392505050565b6000602082019050818103600083015261572b8184615046565b905092915050565b600060208201905061574860008301846150ba565b92915050565b600060208201905081810360008301526157688184615102565b905092915050565b6000606082019050818103600083015261578a8186615102565b9050818103602083015261579e8185614fd1565b905081810360408301526157b28184614fd1565b9050949350505050565b600060408201905081810360008301526157d68185615102565b905081810360208301526157ea8184615102565b90509392505050565b600061012082019050818103600083015261580e818c615102565b90508181036020830152615822818b615102565b90508181036040830152615836818a614fd1565b9050818103606083015261584a8189615102565b9050818103608083015261585e8188615102565b905061586d60a08301876150ba565b61587a60c08301866150ba565b81810360e083015261588c8185615102565b90508181036101008301526158a18184615102565b90509a9950505050505050505050565b600060208201905081810360008301526158ca8161526b565b9050919050565b600060208201905081810360008301526158ea816152ab565b9050919050565b6000602082019050818103600083015261590a81615351565b9050919050565b6000602082019050818103600083015261592a816153b7565b9050919050565b6000602082019050818103600083015261594a81615443565b9050919050565b6000602082019050818103600083015261596a816154a9565b9050919050565b6000602082019050818103600083015261598a8161550f565b9050919050565b600060208201905081810360008301526159aa8161554f565b9050919050565b600060208201905081810360008301526159ca816155b5565b9050919050565b600060208201905081810360008301526159ea816155f5565b9050919050565b60006020820190508181036000830152615a0a81615635565b9050919050565b6000604051905081810181811067ffffffffffffffff82111715615a3857615a37615cb6565b5b8060405250919050565b600067ffffffffffffffff821115615a5d57615a5c615cb6565b5b602082029050602081019050919050565b600067ffffffffffffffff821115615a8957615a88615cb6565b5b601f19601f8301169050602081019050919050565b6000819050602082019050919050565b60008190508160005260206000209050919050565b60008190508160005260206000209050919050565b600081519050919050565b600081549050919050565b600081519050919050565b6000602082019050919050565b6000600182019050919050565b600082825260208201905092915050565b600082825260208201905092915050565b600082825260208201905092915050565b600081905092915050565b6000615b5c82615b91565b9150615b6783615b91565b925082821015615b7a57615b79615c58565b5b828203905092915050565b60008115159050919050565b6000819050919050565b82818337600083830152505050565b60005b83811015615bc8578082015181840152602081019050615bad565b83811115615bd7576000848401525b50505050565b60006002820490506001821680615bf557607f821691505b60208210811415615c0957615c08615c87565b5b50919050565b6000615c1a82615b91565b91507fffffffffffffffffffffffffffffffffffffffffffffffffffffffffffffffff821415615c4d57615c4c615c58565b5b600182019050919050565b7f4e487b7100000000000000000000000000000000000000000000000000000000600052601160045260246000fd5b7f4e487b7100000000000000000000000000000000000000000000000000000000600052602260045260246000fd5b7f4e487b7100000000000000000000000000000000000000000000000000000000600052604160045260246000fd5b6000601f19601f830116905091905056fea26469706673582212205c8fcd07356abf199d42cf712e017750c893184c434360c2f0ffa3f4fbdba0f964736f6c63430008000033",
  "linkReferences": {},
  "deployedLinkReferences": {}
}