{"contracts/FaceGuard.sol":{"FaceGuard":{"abi":[{"inputs":[],"stateMutability":"nonpayable","type":"constructor"},{"anonymous":false,"inputs":[{"indexed":false,"internalType":"string","name":"username","type":"string"}],"name":"FaceHashUpdated","type":"event"},{"anonymous":false,"inputs":[{"indexed":false,"internalType":"string","name":"groupName","type":"string"},{"indexed":false,"internalType":"string[]","name":"permissions","type":"string[]"}],"name":"GroupCreated","type":"event"},{"anonymous":false,"inputs":[{"indexed":false,"internalType":"string","name":"originalGroupName","type":"string"},{"indexed":false,"internalType":"string","name":"newGroupName","type":"string"}],"name":"GroupNameUpdated","type":"event"},{"anonymous":false,"inputs":[{"indexed":false,"internalType":"string","name":"groupName","type":"string"},{"indexed":false,"internalType":"string[]","name":"permissions","type":"string[]"}],"name":"GroupPermissionsUpdated","type":"event"},{"anonymous":false,"inputs":[{"indexed":false,"internalType":"string","name":"groupName","type":"string"}],"name":"GroupRemoved","type":"event"},{"anonymous":false,"inputs":[{"indexed":false,"internalType":"string","name":"username","type":"string"}],"name":"PasswordChangeRequired","type":"event"},{"anonymous":false,"inputs":[{"indexed":false,"internalType":"string","name":"username","type":"string"}],"name":"PasswordUpdated","type":"event"},{"anonymous":false,"inputs":[{"indexed":false,"internalType":"string","name":"username","type":"string"}],"name":"PermissionsUpdated","type":"event"},{"anonymous":false,"inputs":[{"indexed":false,"internalType":"string","name":"username","type":"string"},{"indexed":false,"internalType":"string","name":"groupName","type":"string"}],"name":"UserAddedToGroup","type":"event"},{"anonymous":false,"inputs":[{"indexed":false,"internalType":"string","name":"username","type":"string"}],"name":"UserRegistered","type":"event"},{"anonymous":false,"inputs":[{"indexed":false,"internalType":"string","name":"username","type":"string"},{"indexed":false,"internalType":"string","name":"groupName","type":"string"}],"name":"UserRemovedFromGroup","type":"event"},{"anonymous":false,"inputs":[{"indexed":false,"internalType":"string","name":"username","type":"string"},{"indexed":false,"internalType":"bool","name":"enabled","type":"bool"}],"name":"UserToggled","type":"event"},{"inputs":[{"internalType":"string","name":"groupName","type":"string"},{"internalType":"string","name":"username","type":"string"}],"name":"addUserToGroup","outputs":[],"stateMutability":"nonpayable","type":"function"},{"inputs":[{"internalType":"string","name":"username","type":"string"}],"name":"checkIfUserExists","outputs":[{"internalType":"bool","name":"","type":"bool"}],"stateMutability":"view","type":"function"},{"inputs":[{"internalType":"string","name":"groupName","type":"string"},{"internalType":"string[]","name":"permissions","type":"string[]"}],"name":"createGroup","outputs":[],"stateMutability":"nonpayable","type":"function"},{"inputs":[],"name":"getAllGroups","outputs":[{"internalType":"string[]","name":"","type":"string[]"}],"stateMutability":"view","type":"function"},{"inputs":[],"name":"getAllUsernames","outputs":[{"internalType":"string[]","name":"","type":"string[]"}],"stateMutability":"view","type":"function"},{"inputs":[{"internalType":"string","name":"groupName","type":"string"}],"name":"getGroup","outputs":[{"internalType":"string","name":"","type":"string"},{"internalType":"string[]","name":"","type":"string[]"},{"internalType":"string[]","name":"","type":"string[]"}],"stateMutability":"view","type":"function"},{"inputs":[{"internalType":"string","name":"username","type":"string"}],"name":"getUser","outputs":[{"internalType":"string","name":"","type":"string"},{"internalType":"string","name":"","type":"string"},{"internalType":"string[]","name":"","type":"string[]"},{"internalType":"string","name":"","type":"string"},{"internalType":"string","name":"","type":"string"},{"internalType":"bool","name":"","type":"bool"},{"internalType":"bool","name":"","type":"bool"}],"stateMutability":"view","type":"function"},{"inputs":[{"internalType":"string","name":"username","type":"string"}],"name":"getUserFaceHashes","outputs":[{"internalType":"string[]","name":"","type":"string[]"}],"stateMutability":"view","type":"function"},{"inputs":[{"internalType":"string","name":"username","type":"string"}],"name":"getUserPermissions","outputs":[{"internalType":"string[]","name":"","type":"string[]"}],"stateMutability":"view","type":"function"},{"inputs":[{"internalType":"string","name":"username","type":"string"},{"internalType":"string","name":"passwordHash","type":"string"},{"internalType":"string[]","name":"initialFaceHashes","type":"string[]"},{"internalType":"string","name":"creationDate","type":"string"}],"name":"registerUser","outputs":[],"stateMutability":"nonpayable","type":"function"},{"inputs":[{"internalType":"string","name":"groupName","type":"string"}],"name":"removeGroup","outputs":[],"stateMutability":"nonpayable","type":"function"},{"inputs":[{"internalType":"string","name":"groupName","type":"string"},{"internalType":"string","name":"username","type":"string"}],"name":"removeUserFromGroup","outputs":[],"stateMutability":"nonpayable","type":"function"},{"inputs":[{"internalType":"string","name":"username","type":"string"}],"name":"requireUserPasswordChange","outputs":[],"stateMutability":"nonpayable","type":"function"},{"inputs":[{"internalType":"string","name":"groupName","type":"string"},{"internalType":"string[]","name":"groupPermissions","type":"string[]"}],"name":"setGroupPermissions","outputs":[{"internalType":"string","name":"","type":"string"}],"stateMutability":"nonpayable","type":"function"},{"inputs":[{"internalType":"string","name":"username","type":"string"}],"name":"toggleUser","outputs":[],"stateMutability":"nonpayable","type":"function"},{"inputs":[{"internalType":"string","name":"originalGroupName","type":"string"},{"internalType":"string","name":"newGroupName","type":"string"},{"internalType":"string[]","name":"newPermissions","type":"string[]"}],"name":"updateGroup","outputs":[],"stateMutability":"nonpayable","type":"function"},{"inputs":[{"internalType":"string","name":"username","type":"string"},{"internalType":"string[]","name":"newFaceHashes","type":"string[]"}],"name":"updateUserFaceHash","outputs":[],"stateMutability":"nonpayable","type":"function"},{"inputs":[{"internalType":"string","name":"username","type":"string"},{"internalType":"string","name":"newPasswordHash","type":"string"}],"name":"updateUserPassword","outputs":[],"stateMutability":"nonpayable","type":"function"}],"evm":{"bytecode":{"linkReferences":{},"object":"60806040523480156200001157600080fd5b5033600460006101000a81548173ffffffffffffffffffffffffffffffffffffffff021916908373ffffffffffffffffffffffffffffffffffffffff160217905550600060405180608001604052806040518060400160405280601581526020017f466163654775617264204372656174653a20416c6c000000000000000000000081525081526020016040518060400160405280601381526020017f46616365477561726420526561643a20416c6c0000000000000000000000000081525081526020016040518060400160405280601581526020017f466163654775617264205570646174653a20416c6c000000000000000000000081525081526020016040518060400160405280601581526020017f4661636547756172642044656c6574653a20416c6c00000000000000000000008152508152509050600060405180606001604052806040518060400160405280601481526020017f46616365477561726420526561643a2053656c6600000000000000000000000081525081526020016040518060400160405280601681526020017f466163654775617264205570646174653a2053656c660000000000000000000081525081526020016040518060400160405280601681526020017f4661636547756172642044656c6574653a2053656c66000000000000000000008152508152509050600060405180608001604052806040518060400160405280601881526020017f466163654775617264204372656174653a2047726f757073000000000000000081525081526020016040518060400160405280601681526020017f46616365477561726420526561643a2047726f7570730000000000000000000081525081526020016040518060400160405280601881526020017f466163654775617264205570646174653a2047726f757073000000000000000081525081526020016040518060400160405280601881526020017f4661636547756172642044656c6574653a2047726f75707300000000000000008152508152509050600060405180608001604052806040518060400160405280601781526020017f466163654775617264204372656174653a20557365727300000000000000000081525081526020016040518060400160405280601581526020017f46616365477561726420526561643a205573657273000000000000000000000081525081526020016040518060400160405280601781526020017f466163654775617264205570646174653a20557365727300000000000000000081525081526020016040518060400160405280601781526020017f4661636547756172642044656c6574653a2055736572730000000000000000008152508152509050620004536040518060400160405280600e81526020017f41646d696e6973747261746f727300000000000000000000000000000000000081525062000447866200056260201b60201c565b6200069160201b60201c565b620004aa6040518060400160405280600581526020017f55736572730000000000000000000000000000000000000000000000000000008152506200049e85620008b360201b60201c565b6200069160201b60201c565b620005016040518060400160405280600e81526020017f47726f7570204d616e6167657273000000000000000000000000000000000000815250620004f5846200056260201b60201c565b6200069160201b60201c565b620005586040518060400160405280600d81526020017f55736572204d616e6167657273000000000000000000000000000000000000008152506200054c836200056260201b60201c565b6200069160201b60201c565b5050505062000f39565b60606000600467ffffffffffffffff811115620005a8577f4e487b7100000000000000000000000000000000000000000000000000000000600052604160045260246000fd5b604051908082528060200260200182016040528015620005dd57816020015b6060815260200190600190039081620005c75790505b50905060005b6004811015620006875783816004811062000627577f4e487b7100000000000000000000000000000000000000000000000000000000600052603260045260246000fd5b602002015182828151811062000666577f4e487b7100000000000000000000000000000000000000000000000000000000600052603260045260246000fd5b602002602001018190525080806200067e9062000e7c565b915050620005e3565b5080915050919050565b600460009054906101000a900473ffffffffffffffffffffffffffffffffffffffff1673ffffffffffffffffffffffffffffffffffffffff163373ffffffffffffffffffffffffffffffffffffffff161462000724576040517f08c379a00000000000000000000000000000000000000000000000000000000081526004016200071b9062000d73565b60405180910390fd5b6040518060600160405280838152602001600067ffffffffffffffff81111562000777577f4e487b7100000000000000000000000000000000000000000000000000000000600052604160045260246000fd5b604051908082528060200260200182016040528015620007ac57816020015b6060815260200190600190039081620007965790505b50815260200182815250600183604051620007c8919062000d1f565b90815260200160405180910390206000820151816000019080519060200190620007f4929190620009e2565b5060208201518160010190805190602001906200081392919062000a73565b5060408201518160020190805190602001906200083292919062000a73565b5090505060038290806001815401808255809150506001900390600052602060002001600090919091909150908051906020019062000873929190620009e2565b507f64e45d769b067e3e2de0a2fbfa982b75ad4472af64e84e1c421ec5bbe695de0f8282604051620008a792919062000d38565b60405180910390a15050565b60606000600367ffffffffffffffff811115620008f9577f4e487b7100000000000000000000000000000000000000000000000000000000600052604160045260246000fd5b6040519080825280602002602001820160405280156200092e57816020015b6060815260200190600190039081620009185790505b50905060005b6003811015620009d85783816003811062000978577f4e487b7100000000000000000000000000000000000000000000000000000000600052603260045260246000fd5b6020020151828281518110620009b7577f4e487b7100000000000000000000000000000000000000000000000000000000600052603260045260246000fd5b60200260200101819052508080620009cf9062000e7c565b91505062000934565b5080915050919050565b828054620009f09062000e46565b90600052602060002090601f01602090048101928262000a14576000855562000a60565b82601f1062000a2f57805160ff191683800117855562000a60565b8280016001018555821562000a60579182015b8281111562000a5f57825182559160200191906001019062000a42565b5b50905062000a6f919062000ada565b5090565b82805482825590600052602060002090810192821562000ac7579160200282015b8281111562000ac657825182908051906020019062000ab5929190620009e2565b509160200191906001019062000a94565b5b50905062000ad6919062000af9565b5090565b5b8082111562000af557600081600090555060010162000adb565b5090565b5b8082111562000b1d576000818162000b13919062000b21565b5060010162000afa565b5090565b50805462000b2f9062000e46565b6000825580601f1062000b43575062000b64565b601f01602090049060005260206000209081019062000b63919062000ada565b5b50565b600062000b75838362000bfe565b905092915050565b600062000b8a8262000da5565b62000b96818562000dc8565b93508360208202850162000baa8562000d95565b8060005b8581101562000bec578484038952815162000bca858262000b67565b945062000bd78362000dbb565b925060208a0199505060018101905062000bae565b50829750879550505050505092915050565b600062000c0b8262000db0565b62000c17818562000dd9565b935062000c2981856020860162000e10565b62000c348162000f28565b840191505092915050565b600062000c4c8262000db0565b62000c58818562000dea565b935062000c6a81856020860162000e10565b62000c758162000f28565b840191505092915050565b600062000c8d8262000db0565b62000c99818562000dfb565b935062000cab81856020860162000e10565b80840191505092915050565b600062000cc6602f8362000dea565b91507f4f6e6c792074686520636f6e7472616374206f776e65722063616e207065726660008301527f6f726d207468697320616374696f6e00000000000000000000000000000000006020830152604082019050919050565b600062000d2d828462000c80565b915081905092915050565b6000604082019050818103600083015262000d54818562000c3f565b9050818103602083015262000d6a818462000b7d565b90509392505050565b6000602082019050818103600083015262000d8e8162000cb7565b9050919050565b6000819050602082019050919050565b600081519050919050565b600081519050919050565b6000602082019050919050565b600082825260208201905092915050565b600082825260208201905092915050565b600082825260208201905092915050565b600081905092915050565b6000819050919050565b60005b8381101562000e3057808201518184015260208101905062000e13565b8381111562000e40576000848401525b50505050565b6000600282049050600182168062000e5f57607f821691505b6020821081141562000e765762000e7562000ef9565b5b50919050565b600062000e898262000e06565b91507fffffffffffffffffffffffffffffffffffffffffffffffffffffffffffffffff82141562000ebf5762000ebe62000eca565b5b600182019050919050565b7f4e487b7100000000000000000000000000000000000000000000000000000000600052601160045260246000fd5b7f4e487b7100000000000000000000000000000000000000000000000000000000600052602260045260246000fd5b6000601f19601f8301169050919050565b61460f8062000f496000396000f3fe608060405234801561001057600080fd5b50600436106101165760003560e01c806367753ba1116100a2578063b9e6facb11610071578063b9e6facb146102f7578063c91bc46c14610313578063e537cac71461032f578063ecb5a4d51461034b578063ee1c55da1461036757610116565b806367753ba11461025d5780636cad1934146102795780637c77f39f146102a9578063abef281e146102c557610116565b806331feb671116100e957806331feb671146101b55780635108c3ab146101eb57806353620375146102075780635b9a6b1d146102255780636246b3101461024157610116565b806303df9e921461011b5780631ae7f10a1461013757806321cd3cae146101675780632d09d9e914610185575b600080fd5b610135600480360381019061013091906138b4565b610397565b005b610151600480360381019061014c91906138b4565b610498565b60405161015e919061405f565b60405180910390f35b61016f6108e1565b60405161017c9190614022565b60405180910390f35b61019f600480360381019061019a9190613873565b6109ba565b6040516101ac9190614022565b60405180910390f35b6101cf60048036038101906101ca9190613873565b610ab4565b6040516101e2979695949392919061416b565b60405180910390f35b61020560048036038101906102009190613873565b610e9b565b005b61020f610ffd565b60405161021c9190614022565b60405180910390f35b61023f600480360381019061023a919061398c565b6110d6565b005b61025b60048036038101906102569190613873565b611686565b005b61027760048036038101906102729190613920565b611c04565b005b610293600480360381019061028e9190613873565b611fdd565b6040516102a09190614044565b60405180910390f35b6102c360048036038101906102be91906138b4565b612016565b005b6102df60048036038101906102da9190613873565b612226565b6040516102ee939291906140b8565b60405180910390f35b610311600480360381019061030c9190613a23565b6125b9565b005b61032d60048036038101906103289190613920565b6128a4565b005b61034960048036038101906103449190613873565b6129de565b005b61036560048036038101906103609190613920565b612ae2565b005b610381600480360381019061037c9190613873565b612ce9565b60405161038e9190614022565b60405180910390f35b600460009054906101000a900473ffffffffffffffffffffffffffffffffffffffff1673ffffffffffffffffffffffffffffffffffffffff163373ffffffffffffffffffffffffffffffffffffffff1614610427576040517f08c379a000000000000000000000000000000000000000000000000000000000815260040161041e90614274565b60405180910390fd5b806000836040516104389190613ff4565b9081526020016040518091039020600201908051906020019061045c92919061347a565b507feb1060ec96e942d51b0f7b8b00c334c5c6da57c48f5ef56937468d28d0ee347a8260405161048c919061405f565b60405180910390a15050565b6060600460009054906101000a900473ffffffffffffffffffffffffffffffffffffffff1673ffffffffffffffffffffffffffffffffffffffff163373ffffffffffffffffffffffffffffffffffffffff161461052a576040517f08c379a000000000000000000000000000000000000000000000000000000000815260040161052190614274565b60405180910390fd5b600060018460405161053c9190613ff4565b90815260200160405180910390206000018054610558906144c0565b90501161059a576040517f08c379a000000000000000000000000000000000000000000000000000000000815260040161059190614294565b60405180910390fd5b600060405180608001604052806040518060400160405280600e81526020017f41646d696e6973747261746f727300000000000000000000000000000000000081525081526020016040518060400160405280600581526020017f557365727300000000000000000000000000000000000000000000000000000081525081526020016040518060400160405280600e81526020017f47726f7570204d616e616765727300000000000000000000000000000000000081525081526020016040518060400160405280600d81526020017f55736572204d616e616765727300000000000000000000000000000000000000815250815250905060005b600481101561077e578181600481106106d8577f4e487b7100000000000000000000000000000000000000000000000000000000600052603260045260246000fd5b60200201516040516020016106ed9190613ff4565b60405160208183030381529060405280519060200120856040516020016107149190613ff4565b60405160208183030381529060405280519060200120141561076b576040517f08c379a000000000000000000000000000000000000000000000000000000000815260040161076290614254565b60405180910390fd5b8080610776906144f2565b915050610696565b50826001856040516107909190613ff4565b908152602001604051809103902060020190805190602001906107b492919061347a565b507f65d29756900166ea1a95042b775077b9e0c4b52e2ad303784b8fc75584de59ef6001856040516107e69190613ff4565b90815260200160405180910390206000016001866040516108079190613ff4565b90815260200160405180910390206002016040516108269291906141fd565b60405180910390a160018460405161083e9190613ff4565b9081526020016040518091039020600001805461085a906144c0565b80601f0160208091040260200160405190810160405280929190818152602001828054610886906144c0565b80156108d35780601f106108a8576101008083540402835291602001916108d3565b820191906000526020600020905b8154815290600101906020018083116108b657829003601f168201915b505050505091505092915050565b60606003805480602002602001604051908101604052809291908181526020016000905b828210156109b1578382906000526020600020018054610924906144c0565b80601f0160208091040260200160405190810160405280929190818152602001828054610950906144c0565b801561099d5780601f106109725761010080835404028352916020019161099d565b820191906000526020600020905b81548152906001019060200180831161098057829003601f168201915b505050505081526020019060010190610905565b50505050905090565b60606000826040516109cc9190613ff4565b9081526020016040518091039020600201805480602002602001604051908101604052809291908181526020016000905b82821015610aa9578382906000526020600020018054610a1c906144c0565b80601f0160208091040260200160405190810160405280929190818152602001828054610a48906144c0565b8015610a955780601f10610a6a57610100808354040283529160200191610a95565b820191906000526020600020905b815481529060010190602001808311610a7857829003601f168201915b5050505050815260200190600101906109fd565b505050509050919050565b606080606080606060008060008089604051610ad09190613ff4565b908152602001604051809103902060405180610100016040529081600082018054610afa906144c0565b80601f0160208091040260200160405190810160405280929190818152602001828054610b26906144c0565b8015610b735780601f10610b4857610100808354040283529160200191610b73565b820191906000526020600020905b815481529060010190602001808311610b5657829003601f168201915b50505050508152602001600182018054610b8c906144c0565b80601f0160208091040260200160405190810160405280929190818152602001828054610bb8906144c0565b8015610c055780601f10610bda57610100808354040283529160200191610c05565b820191906000526020600020905b815481529060010190602001808311610be857829003601f168201915b5050505050815260200160028201805480602002602001604051908101604052809291908181526020016000905b82821015610cdf578382906000526020600020018054610c52906144c0565b80601f0160208091040260200160405190810160405280929190818152602001828054610c7e906144c0565b8015610ccb5780601f10610ca057610100808354040283529160200191610ccb565b820191906000526020600020905b815481529060010190602001808311610cae57829003601f168201915b505050505081526020019060010190610c33565b505050508152602001600382018054610cf7906144c0565b80601f0160208091040260200160405190810160405280929190818152602001828054610d23906144c0565b8015610d705780601f10610d4557610100808354040283529160200191610d70565b820191906000526020600020905b815481529060010190602001808311610d5357829003601f168201915b50505050508152602001600482018054610d89906144c0565b80601f0160208091040260200160405190810160405280929190818152602001828054610db5906144c0565b8015610e025780601f10610dd757610100808354040283529160200191610e02565b820191906000526020600020905b815481529060010190602001808311610de557829003601f168201915b505050505081526020016005820160009054906101000a900460ff161515151581526020016005820160019054906101000a900460ff161515151581526020016005820160029054906101000a900460ff1615151515815250509050806000015181602001518260400151836060015184608001518560a001518660e00151975097509750975097509750975050919395979092949650565b600460009054906101000a900473ffffffffffffffffffffffffffffffffffffffff1673ffffffffffffffffffffffffffffffffffffffff163373ffffffffffffffffffffffffffffffffffffffff1614610f2b576040517f08c379a0000000000000000000000000000000000000000000000000000000008152600401610f2290614274565b60405180910390fd5b600081604051610f3b9190613ff4565b908152602001604051809103902060050160029054906101000a900460ff1615600082604051610f6b9190613ff4565b908152602001604051809103902060050160026101000a81548160ff0219169083151502179055507f9b1a1e5131c18ee5fd8454b3b435b1b36127bd0c05686d9fc6190d638bcb149981600083604051610fc59190613ff4565b908152602001604051809103902060050160029054906101000a900460ff16604051610ff2929190614104565b60405180910390a150565b60606002805480602002602001604051908101604052809291908181526020016000905b828210156110cd578382906000526020600020018054611040906144c0565b80601f016020809104026020016040519081016040528092919081815260200182805461106c906144c0565b80156110b95780601f1061108e576101008083540402835291602001916110b9565b820191906000526020600020905b81548152906001019060200180831161109c57829003601f168201915b505050505081526020019060010190611021565b50505050905090565b600460009054906101000a900473ffffffffffffffffffffffffffffffffffffffff1673ffffffffffffffffffffffffffffffffffffffff163373ffffffffffffffffffffffffffffffffffffffff1614611166576040517f08c379a000000000000000000000000000000000000000000000000000000000815260040161115d90614274565b60405180910390fd5b60006001846040516111789190613ff4565b90815260200160405180910390206000018054611194906144c0565b9050116111d6576040517f08c379a00000000000000000000000000000000000000000000000000000000081526004016111cd90614294565b60405180910390fd5b600060405180608001604052806040518060400160405280600e81526020017f41646d696e6973747261746f727300000000000000000000000000000000000081525081526020016040518060400160405280600581526020017f557365727300000000000000000000000000000000000000000000000000000081525081526020016040518060400160405280600e81526020017f47726f7570204d616e616765727300000000000000000000000000000000000081525081526020016040518060400160405280600d81526020017f55736572204d616e616765727300000000000000000000000000000000000000815250815250905060005b60048110156113ba57818160048110611314577f4e487b7100000000000000000000000000000000000000000000000000000000600052603260045260246000fd5b60200201516040516020016113299190613ff4565b60405160208183030381529060405280519060200120856040516020016113509190613ff4565b6040516020818303038152906040528051906020012014156113a7576040517f08c379a000000000000000000000000000000000000000000000000000000000815260040161139e90614254565b60405180910390fd5b80806113b2906144f2565b9150506112d2565b506113c58483610498565b50826040516020016113d79190613ff4565b60405160208183030381529060405280519060200120846040516020016113fe9190613ff4565b6040516020818303038152906040528051906020012014611680576001846040516114299190613ff4565b90815260200160405180910390206001846040516114479190613ff4565b90815260200160405180910390206000820181600001908054611469906144c0565b6114749291906134da565b50600182018160010190805461148b929190613567565b5060028201816002019080546114a2929190613567565b50905050826001846040516114b79190613ff4565b908152602001604051809103902060000190805190602001906114db9291906135cf565b506001846040516114ec9190613ff4565b90815260200160405180910390206000808201600061150b9190613655565b60018201600061151b9190613695565b60028201600061152b9190613695565b505060005b600380549050811015611645578460405160200161154e9190613ff4565b604051602081830303815290604052805190602001206003828154811061159e577f4e487b7100000000000000000000000000000000000000000000000000000000600052603260045260246000fd5b906000526020600020016040516020016115b8919061400b565b60405160208183030381529060405280519060200120141561163257836003828154811061160f577f4e487b7100000000000000000000000000000000000000000000000000000000600052603260045260246000fd5b90600052602060002001908051906020019061162c9291906135cf565b50611645565b808061163d906144f2565b915050611530565b507f364b226b5f086e2e247d242241146270270074b8e63461b564298285dfdb08788484604051611677929190614134565b60405180910390a15b50505050565b600460009054906101000a900473ffffffffffffffffffffffffffffffffffffffff1673ffffffffffffffffffffffffffffffffffffffff163373ffffffffffffffffffffffffffffffffffffffff1614611716576040517f08c379a000000000000000000000000000000000000000000000000000000000815260040161170d90614274565b60405180910390fd5b60006001826040516117289190613ff4565b90815260200160405180910390206000018054611744906144c0565b905011611786576040517f08c379a000000000000000000000000000000000000000000000000000000000815260040161177d90614294565b60405180910390fd5b600060405180608001604052806040518060400160405280600e81526020017f41646d696e6973747261746f727300000000000000000000000000000000000081525081526020016040518060400160405280600581526020017f557365727300000000000000000000000000000000000000000000000000000081525081526020016040518060400160405280600e81526020017f47726f7570204d616e616765727300000000000000000000000000000000000081525081526020016040518060400160405280600d81526020017f55736572204d616e616765727300000000000000000000000000000000000000815250815250905060005b600481101561196a578181600481106118c4577f4e487b7100000000000000000000000000000000000000000000000000000000600052603260045260246000fd5b60200201516040516020016118d99190613ff4565b60405160208183030381529060405280519060200120836040516020016119009190613ff4565b604051602081830303815290604052805190602001201415611957576040517f08c379a000000000000000000000000000000000000000000000000000000000815260040161194e90614254565b60405180910390fd5b8080611962906144f2565b915050611882565b5060018260405161197b9190613ff4565b90815260200160405180910390206000808201600061199a9190613655565b6001820160006119aa9190613695565b6002820160006119ba9190613695565b50506000805b600380549050811015611b8757836040516020016119de9190613ff4565b6040516020818303038152906040528051906020012060038281548110611a2e577f4e487b7100000000000000000000000000000000000000000000000000000000600052603260045260246000fd5b90600052602060002001604051602001611a48919061400b565b604051602081830303815290604052805190602001201415611b74576001915060036001600380549050611a7c9190614434565b81548110611ab3577f4e487b7100000000000000000000000000000000000000000000000000000000600052603260045260246000fd5b9060005260206000200160038281548110611af7577f4e487b7100000000000000000000000000000000000000000000000000000000600052603260045260246000fd5b90600052602060002001908054611b0d906144c0565b611b189291906136b6565b506003805480611b51577f4e487b7100000000000000000000000000000000000000000000000000000000600052603160045260246000fd5b600190038181906000526020600020016000611b6d9190613655565b9055611b87565b8080611b7f906144f2565b9150506119c0565b5080611bc8576040517f08c379a0000000000000000000000000000000000000000000000000000000008152600401611bbf90614234565b60405180910390fd5b7f3d23503bda008e50d93c77e132b7d2cde3189a8de034b6d382a71004b5a1b04883604051611bf7919061405f565b60405180910390a1505050565b600460009054906101000a900473ffffffffffffffffffffffffffffffffffffffff1673ffffffffffffffffffffffffffffffffffffffff163373ffffffffffffffffffffffffffffffffffffffff1614611c94576040517f08c379a0000000000000000000000000000000000000000000000000000000008152600401611c8b90614274565b60405180910390fd5b6000600183604051611ca69190613ff4565b90815260200160405180910390206000018054611cc2906144c0565b905011611d04576040517f08c379a0000000000000000000000000000000000000000000000000000000008152600401611cfb90614294565b60405180910390fd5b60008082604051611d159190613ff4565b90815260200160405180910390206000018054611d31906144c0565b905011611d73576040517f08c379a0000000000000000000000000000000000000000000000000000000008152600401611d6a906142b4565b60405180910390fd5b6000600183604051611d859190613ff4565b908152602001604051809103902060010190506000805b8280549050811015611f5d5783604051602001611db99190613ff4565b60405160208183030381529060405280519060200120838281548110611e08577f4e487b7100000000000000000000000000000000000000000000000000000000600052603260045260246000fd5b90600052602060002001604051602001611e22919061400b565b604051602081830303815290604052805190602001201415611f4a57600191508260018480549050611e549190614434565b81548110611e8b577f4e487b7100000000000000000000000000000000000000000000000000000000600052603260045260246000fd5b90600052602060002001838281548110611ece577f4e487b7100000000000000000000000000000000000000000000000000000000600052603260045260246000fd5b90600052602060002001908054611ee4906144c0565b611eef9291906136b6565b5082805480611f27577f4e487b7100000000000000000000000000000000000000000000000000000000600052603160045260246000fd5b600190038181906000526020600020016000611f439190613655565b9055611f5d565b8080611f55906144f2565b915050611d9c565b5080611f9e576040517f08c379a0000000000000000000000000000000000000000000000000000000008152600401611f95906142d4565b60405180910390fd5b7f2987fe5a9775c7dc64ce1b0c8b76d750f2ef0f9e96561a0da6ad7f31a854515a8385604051611fcf929190614134565b60405180910390a150505050565b600080600083604051611ff09190613ff4565b9081526020016040518091039020600001805461200c906144c0565b9050119050919050565b600460009054906101000a900473ffffffffffffffffffffffffffffffffffffffff1673ffffffffffffffffffffffffffffffffffffffff163373ffffffffffffffffffffffffffffffffffffffff16146120a6576040517f08c379a000000000000000000000000000000000000000000000000000000000815260040161209d90614274565b60405180910390fd5b6040518060600160405280838152602001600067ffffffffffffffff8111156120f8577f4e487b7100000000000000000000000000000000000000000000000000000000600052604160045260246000fd5b60405190808252806020026020018201604052801561212b57816020015b60608152602001906001900390816121165790505b508152602001828152506001836040516121459190613ff4565b9081526020016040518091039020600082015181600001908051906020019061216f9291906135cf565b50602082015181600101908051906020019061218c92919061347a565b5060408201518160020190805190602001906121a992919061347a565b509050506003829080600181540180825580915050600190039060005260206000200160009091909190915090805190602001906121e89291906135cf565b507f64e45d769b067e3e2de0a2fbfa982b75ad4472af64e84e1c421ec5bbe695de0f828260405161221a929190614081565b60405180910390a15050565b6060806060600460009054906101000a900473ffffffffffffffffffffffffffffffffffffffff1673ffffffffffffffffffffffffffffffffffffffff163373ffffffffffffffffffffffffffffffffffffffff16146122bb576040517f08c379a00000000000000000000000000000000000000000000000000000000081526004016122b290614274565b60405180910390fd5b60006001856040516122cd9190613ff4565b908152602001604051809103902060000180546122e9906144c0565b90501161232b576040517f08c379a000000000000000000000000000000000000000000000000000000000815260040161232290614294565b60405180910390fd5b600060018560405161233d9190613ff4565b9081526020016040518091039020604051806060016040529081600082018054612366906144c0565b80601f0160208091040260200160405190810160405280929190818152602001828054612392906144c0565b80156123df5780601f106123b4576101008083540402835291602001916123df565b820191906000526020600020905b8154815290600101906020018083116123c257829003601f168201915b5050505050815260200160018201805480602002602001604051908101604052809291908181526020016000905b828210156124b957838290600052602060002001805461242c906144c0565b80601f0160208091040260200160405190810160405280929190818152602001828054612458906144c0565b80156124a55780601f1061247a576101008083540402835291602001916124a5565b820191906000526020600020905b81548152906001019060200180831161248857829003601f168201915b50505050508152602001906001019061240d565b50505050815260200160028201805480602002602001604051908101604052809291908181526020016000905b82821015612592578382906000526020600020018054612505906144c0565b80601f0160208091040260200160405190810160405280929190818152602001828054612531906144c0565b801561257e5780601f106125535761010080835404028352916020019161257e565b820191906000526020600020905b81548152906001019060200180831161256157829003601f168201915b5050505050815260200190600101906124e6565b50505050815250509050806000015181604001518260200151935093509350509193909250565b600460009054906101000a900473ffffffffffffffffffffffffffffffffffffffff1673ffffffffffffffffffffffffffffffffffffffff163373ffffffffffffffffffffffffffffffffffffffff1614612649576040517f08c379a000000000000000000000000000000000000000000000000000000000815260040161264090614274565b60405180910390fd5b6040518061010001604052808581526020018481526020018381526020018281526020018281526020016000151581526020016000151581526020016001151581525060008560405161269c9190613ff4565b908152602001604051809103902060008201518160000190805190602001906126c69291906135cf565b5060208201518160010190805190602001906126e39291906135cf565b50604082015181600201908051906020019061270092919061347a565b50606082015181600301908051906020019061271d9291906135cf565b50608082015181600401908051906020019061273a9291906135cf565b5060a08201518160050160006101000a81548160ff02191690831515021790555060c08201518160050160016101000a81548160ff02191690831515021790555060e08201518160050160026101000a81548160ff0219169083151502179055509050506002849080600181540180825580915050600190039060005260206000200160009091909190915090805190602001906127d99291906135cf565b506128196040518060400160405280600581526020017f557365727300000000000000000000000000000000000000000000000000000081525085612ae2565b7f270ff4b111e5baa49283562af127cc5ea74e9d6c9efd5465578bd9223d5843f084604051612848919061405f565b60405180910390a16001600280549050141561289e5761289d6040518060400160405280600e81526020017f41646d696e6973747261746f727300000000000000000000000000000000000081525085612ae2565b5b50505050565b600460009054906101000a900473ffffffffffffffffffffffffffffffffffffffff1673ffffffffffffffffffffffffffffffffffffffff163373ffffffffffffffffffffffffffffffffffffffff1614612934576040517f08c379a000000000000000000000000000000000000000000000000000000000815260040161292b90614274565b60405180910390fd5b806000836040516129459190613ff4565b908152602001604051809103902060010190805190602001906129699291906135cf565b506000808360405161297b9190613ff4565b908152602001604051809103902060050160016101000a81548160ff0219169083151502179055507fd0b43b0b96083c98cc0f0370575812de87ee48ff1bde30bcd74f3518443bc4f5826040516129d2919061405f565b60405180910390a15050565b600460009054906101000a900473ffffffffffffffffffffffffffffffffffffffff1673ffffffffffffffffffffffffffffffffffffffff163373ffffffffffffffffffffffffffffffffffffffff1614612a6e576040517f08c379a0000000000000000000000000000000000000000000000000000000008152600401612a6590614274565b60405180910390fd5b6001600082604051612a809190613ff4565b908152602001604051809103902060050160016101000a81548160ff0219169083151502179055507f926f593dd22175375135b3fd9428c5d0298a5665da18756555b6af9f305ab9a681604051612ad7919061405f565b60405180910390a150565b600460009054906101000a900473ffffffffffffffffffffffffffffffffffffffff1673ffffffffffffffffffffffffffffffffffffffff163373ffffffffffffffffffffffffffffffffffffffff1614612b72576040517f08c379a0000000000000000000000000000000000000000000000000000000008152600401612b6990614274565b60405180910390fd5b6000600183604051612b849190613ff4565b90815260200160405180910390206000018054612ba0906144c0565b905011612be2576040517f08c379a0000000000000000000000000000000000000000000000000000000008152600401612bd990614294565b60405180910390fd5b60008082604051612bf39190613ff4565b90815260200160405180910390206000018054612c0f906144c0565b905011612c51576040517f08c379a0000000000000000000000000000000000000000000000000000000008152600401612c48906142b4565b60405180910390fd5b600182604051612c619190613ff4565b908152602001604051809103902060010181908060018154018082558091505060019003906000526020600020016000909190919091509080519060200190612cab9291906135cf565b507f32475c6c091737c212dc5c54e3565db8aae94283f8b388d2c1dfe772b3f356e18183604051612cdd929190614134565b60405180910390a15050565b606060008083604051612cfc9190613ff4565b90815260200160405180910390206000018054612d18906144c0565b905011612d5a576040517f08c379a0000000000000000000000000000000000000000000000000000000008152600401612d51906142b4565b60405180910390fd5b600060038054905067ffffffffffffffff811115612da1577f4e487b7100000000000000000000000000000000000000000000000000000000600052604160045260246000fd5b604051908082528060200260200182016040528015612dd457816020015b6060815260200190600190039081612dbf5790505b5090506000805b600380549050811015613004576000600160038381548110612e26577f4e487b7100000000000000000000000000000000000000000000000000000000600052603260045260246000fd5b90600052602060002001604051612e3d919061400b565b9081526020016040518091039020905060005b8160010180549050811015612fef5786604051602001612e709190613ff4565b60405160208183030381529060405280519060200120826001018281548110612ec2577f4e487b7100000000000000000000000000000000000000000000000000000000600052603260045260246000fd5b90600052602060002001604051602001612edc919061400b565b604051602081830303815290604052805190602001201415612fdc57816000018054612f07906144c0565b80601f0160208091040260200160405190810160405280929190818152602001828054612f33906144c0565b8015612f805780601f10612f5557610100808354040283529160200191612f80565b820191906000526020600020905b815481529060010190602001808311612f6357829003601f168201915b5050505050858581518110612fbe577f4e487b7100000000000000000000000000000000000000000000000000000000600052603260045260246000fd5b60200260200101819052508380612fd4906144f2565b945050612fef565b8080612fe7906144f2565b915050612e50565b50508080612ffc906144f2565b915050612ddb565b506000603267ffffffffffffffff811115613048577f4e487b7100000000000000000000000000000000000000000000000000000000600052604160045260246000fd5b60405190808252806020026020018201604052801561307b57816020015b60608152602001906001900390816130665790505b5090506000805b838110156133505760008582815181106130c5577f4e487b7100000000000000000000000000000000000000000000000000000000600052603260045260246000fd5b6020026020010151905060006001826040516130e19190613ff4565b9081526020016040518091039020600201905060005b818054905081101561333a576000805b8681101561320157838381548110613148577f4e487b7100000000000000000000000000000000000000000000000000000000600052603260045260246000fd5b90600052602060002001604051602001613162919061400b565b604051602081830303815290604052805190602001208882815181106131b1577f4e487b7100000000000000000000000000000000000000000000000000000000600052603260045260246000fd5b60200260200101516040516020016131c99190613ff4565b6040516020818303038152906040528051906020012014156131ee5760019150613201565b80806131f9906144f2565b915050613107565b508061332657828281548110613240577f4e487b7100000000000000000000000000000000000000000000000000000000600052603260045260246000fd5b906000526020600020018054613255906144c0565b80601f0160208091040260200160405190810160405280929190818152602001828054613281906144c0565b80156132ce5780601f106132a3576101008083540402835291602001916132ce565b820191906000526020600020905b8154815290600101906020018083116132b157829003601f168201915b505050505087878151811061330c577f4e487b7100000000000000000000000000000000000000000000000000000000600052603260045260246000fd5b60200260200101819052508580613322906144f2565b9650505b508080613332906144f2565b9150506130f7565b5050508080613348906144f2565b915050613082565b5060008167ffffffffffffffff811115613393577f4e487b7100000000000000000000000000000000000000000000000000000000600052604160045260246000fd5b6040519080825280602002602001820160405280156133c657816020015b60608152602001906001900390816133b15790505b50905060005b8281101561346c5783818151811061340d577f4e487b7100000000000000000000000000000000000000000000000000000000600052603260045260246000fd5b602002602001015182828151811061344e577f4e487b7100000000000000000000000000000000000000000000000000000000600052603260045260246000fd5b60200260200101819052508080613464906144f2565b9150506133cc565b508095505050505050919050565b8280548282559060005260206000209081019282156134c9579160200282015b828111156134c85782518290805190602001906134b89291906135cf565b509160200191906001019061349a565b5b5090506134d69190613743565b5090565b8280546134e6906144c0565b90600052602060002090601f0160209004810192826135085760008555613556565b82601f106135195780548555613556565b8280016001018555821561355657600052602060002091601f016020900482015b8281111561355557825482559160010191906001019061353a565b5b5090506135639190613767565b5090565b8280548282559060005260206000209081019282156135be5760005260206000209182015b828111156135bd5782829080546135a2906144c0565b6135ad9291906134da565b509160010191906001019061358c565b5b5090506135cb9190613743565b5090565b8280546135db906144c0565b90600052602060002090601f0160209004810192826135fd5760008555613644565b82601f1061361657805160ff1916838001178555613644565b82800160010185558215613644579182015b82811115613643578251825591602001919060010190613628565b5b5090506136519190613767565b5090565b508054613661906144c0565b6000825580601f106136735750613692565b601f0160209004906000526020600020908101906136919190613767565b5b50565b50805460008255906000526020600020908101906136b39190613743565b50565b8280546136c2906144c0565b90600052602060002090601f0160209004810192826136e45760008555613732565b82601f106136f55780548555613732565b8280016001018555821561373257600052602060002091601f016020900482015b82811115613731578254825591600101919060010190613716565b5b50905061373f9190613767565b5090565b5b80821115613763576000818161375a9190613655565b50600101613744565b5090565b5b80821115613780576000816000905550600101613768565b5090565b600061379761379284614325565b6142f4565b9050808382526020820190508260005b858110156137d757813585016137bd8882613849565b8452602084019350602083019250506001810190506137a7565b5050509392505050565b60006137f46137ef84614351565b6142f4565b90508281526020810184848401111561380c57600080fd5b61381784828561447e565b509392505050565b600082601f83011261383057600080fd5b8135613840848260208601613784565b91505092915050565b600082601f83011261385a57600080fd5b813561386a8482602086016137e1565b91505092915050565b60006020828403121561388557600080fd5b600082013567ffffffffffffffff81111561389f57600080fd5b6138ab84828501613849565b91505092915050565b600080604083850312156138c757600080fd5b600083013567ffffffffffffffff8111156138e157600080fd5b6138ed85828601613849565b925050602083013567ffffffffffffffff81111561390a57600080fd5b6139168582860161381f565b9150509250929050565b6000806040838503121561393357600080fd5b600083013567ffffffffffffffff81111561394d57600080fd5b61395985828601613849565b925050602083013567ffffffffffffffff81111561397657600080fd5b61398285828601613849565b9150509250929050565b6000806000606084860312156139a157600080fd5b600084013567ffffffffffffffff8111156139bb57600080fd5b6139c786828701613849565b935050602084013567ffffffffffffffff8111156139e457600080fd5b6139f086828701613849565b925050604084013567ffffffffffffffff811115613a0d57600080fd5b613a198682870161381f565b9150509250925092565b60008060008060808587031215613a3957600080fd5b600085013567ffffffffffffffff811115613a5357600080fd5b613a5f87828801613849565b945050602085013567ffffffffffffffff811115613a7c57600080fd5b613a8887828801613849565b935050604085013567ffffffffffffffff811115613aa557600080fd5b613ab18782880161381f565b925050606085013567ffffffffffffffff811115613ace57600080fd5b613ada87828801613849565b91505092959194509250565b6000613af28383613c06565b905092915050565b6000613b068383613ca9565b905092915050565b6000613b19826143bb565b613b2381856143f6565b935083602082028501613b3585614381565b8060005b85811015613b715784840389528151613b528582613ae6565b9450613b5d836143dc565b925060208a01995050600181019050613b39565b50829750879550505050505092915050565b6000613b8e826143c6565b613b9881856143f6565b935083602082028501613baa85614391565b8060005b85811015613be557848403895281613bc68582613afa565b9450613bd1836143e9565b925060208a01995050600181019050613bae565b50829750879550505050505092915050565b613c0081614468565b82525050565b6000613c11826143d1565b613c1b8185614407565b9350613c2b81856020860161448d565b613c34816145c8565b840191505092915050565b6000613c4a826143d1565b613c548185614418565b9350613c6481856020860161448d565b613c6d816145c8565b840191505092915050565b6000613c83826143d1565b613c8d8185614429565b9350613c9d81856020860161448d565b80840191505092915050565b60008154613cb6816144c0565b613cc08186614407565b94506001821660008114613cdb5760018114613ced57613d20565b60ff1983168652602086019350613d20565b613cf6856143a6565b60005b83811015613d1857815481890152600182019150602081019050613cf9565b808801955050505b50505092915050565b60008154613d36816144c0565b613d408186614418565b94506001821660008114613d5b5760018114613d6d57613da0565b60ff1983168652602086019350613da0565b613d76856143a6565b60005b83811015613d9857815481890152600182019150602081019050613d79565b808801955050505b50505092915050565b60008154613db6816144c0565b613dc08186614429565b94506001821660008114613ddb5760018114613dec57613e1f565b60ff19831686528186019350613e1f565b613df5856143a6565b60005b83811015613e1757815481890152600182019150602081019050613df8565b838801955050505b50505092915050565b6000613e35602083614418565b91507f47726f7570206e6f7420666f756e6420696e20616c6c47726f75704e616d65736000830152602082019050919050565b6000613e75602f83614418565b91507f4d6f64696679696e6720636f72652067726f7570207065726d697373696f6e7360008301527f206973206e6f7420616c6c6f77656400000000000000000000000000000000006020830152604082019050919050565b6000613edb602f83614418565b91507f4f6e6c792074686520636f6e7472616374206f776e65722063616e207065726660008301527f6f726d207468697320616374696f6e00000000000000000000000000000000006020830152604082019050919050565b6000613f41601483614418565b91507f47726f757020646f6573206e6f742065786973740000000000000000000000006000830152602082019050919050565b6000613f81601383614418565b91507f5573657220646f6573206e6f74206578697374000000000000000000000000006000830152602082019050919050565b6000613fc1601983614418565b91507f55736572206973206e6f7420696e20746869732067726f7570000000000000006000830152602082019050919050565b60006140008284613c78565b915081905092915050565b60006140178284613da9565b915081905092915050565b6000602082019050818103600083015261403c8184613b0e565b905092915050565b60006020820190506140596000830184613bf7565b92915050565b600060208201905081810360008301526140798184613c3f565b905092915050565b6000604082019050818103600083015261409b8185613c3f565b905081810360208301526140af8184613b0e565b90509392505050565b600060608201905081810360008301526140d28186613c3f565b905081810360208301526140e68185613b0e565b905081810360408301526140fa8184613b0e565b9050949350505050565b6000604082019050818103600083015261411e8185613c3f565b905061412d6020830184613bf7565b9392505050565b6000604082019050818103600083015261414e8185613c3f565b905081810360208301526141628184613c3f565b90509392505050565b600060e0820190508181036000830152614185818a613c3f565b905081810360208301526141998189613c3f565b905081810360408301526141ad8188613b0e565b905081810360608301526141c18187613c3f565b905081810360808301526141d58186613c3f565b90506141e460a0830185613bf7565b6141f160c0830184613bf7565b98975050505050505050565b600060408201905081810360008301526142178185613d29565b9050818103602083015261422b8184613b83565b90509392505050565b6000602082019050818103600083015261424d81613e28565b9050919050565b6000602082019050818103600083015261426d81613e68565b9050919050565b6000602082019050818103600083015261428d81613ece565b9050919050565b600060208201905081810360008301526142ad81613f34565b9050919050565b600060208201905081810360008301526142cd81613f74565b9050919050565b600060208201905081810360008301526142ed81613fb4565b9050919050565b6000604051905081810181811067ffffffffffffffff8211171561431b5761431a614599565b5b8060405250919050565b600067ffffffffffffffff8211156143405761433f614599565b5b602082029050602081019050919050565b600067ffffffffffffffff82111561436c5761436b614599565b5b601f19601f8301169050602081019050919050565b6000819050602082019050919050565b60008190508160005260206000209050919050565b60008190508160005260206000209050919050565b600081519050919050565b600081549050919050565b600081519050919050565b6000602082019050919050565b6000600182019050919050565b600082825260208201905092915050565b600082825260208201905092915050565b600082825260208201905092915050565b600081905092915050565b600061443f82614474565b915061444a83614474565b92508282101561445d5761445c61453b565b5b828203905092915050565b60008115159050919050565b6000819050919050565b82818337600083830152505050565b60005b838110156144ab578082015181840152602081019050614490565b838111156144ba576000848401525b50505050565b600060028204905060018216806144d857607f821691505b602082108114156144ec576144eb61456a565b5b50919050565b60006144fd82614474565b91507fffffffffffffffffffffffffffffffffffffffffffffffffffffffffffffffff8214156145305761452f61453b565b5b600182019050919050565b7f4e487b7100000000000000000000000000000000000000000000000000000000600052601160045260246000fd5b7f4e487b7100000000000000000000000000000000000000000000000000000000600052602260045260246000fd5b7f4e487b7100000000000000000000000000000000000000000000000000000000600052604160045260246000fd5b6000601f19601f830116905091905056fea2646970667358221220ffae9858c2da0ce092127432646dcd3e5f579b54d36b72c96faa1cd56e83131b64736f6c63430008000033","opcodes":"PUSH1 0x80 PUSH1 0x40 MSTORE CALLVALUE DUP1 ISZERO PUSH3 0x11 JUMPI PUSH1 0x0 DUP1 REVERT JUMPDEST POP CALLER PUSH1 0x4 PUSH1 0x0 PUSH2 0x100 EXP DUP2 SLOAD DUP2 PUSH20 0xFFFFFFFFFFFFFFFFFFFFFFFFFFFFFFFFFFFFFFFF MUL NOT AND SWAP1 DUP4 PUSH20 0xFFFFFFFFFFFFFFFFFFFFFFFFFFFFFFFFFFFFFFFF AND MUL OR SWAP1 SSTORE POP PUSH1 0x0 PUSH1 0x40 MLOAD DUP1 PUSH1 0x80 ADD PUSH1 0x40 MSTORE DUP1 PUSH1 0x40 MLOAD DUP1 PUSH1 0x40 ADD PUSH1 0x40 MSTORE DUP1 PUSH1 0x15 DUP2 MSTORE PUSH1 0x20 ADD PUSH32 0x466163654775617264204372656174653A20416C6C0000000000000000000000 DUP2 MSTORE POP DUP2 MSTORE PUSH1 0x20 ADD PUSH1 0x40 MLOAD DUP1 PUSH1 0x40 ADD PUSH1 0x40 MSTORE DUP1 PUSH1 0x13 DUP2 MSTORE PUSH1 0x20 ADD PUSH32 0x46616365477561726420526561643A20416C6C00000000000000000000000000 DUP2 MSTORE POP DUP2 MSTORE PUSH1 0x20 ADD PUSH1 0x40 MLOAD DUP1 PUSH1 0x40 ADD PUSH1 0x40 MSTORE DUP1 PUSH1 0x15 DUP2 MSTORE PUSH1 0x20 ADD PUSH32 0x466163654775617264205570646174653A20416C6C0000000000000000000000 DUP2 MSTORE POP DUP2 MSTORE PUSH1 0x20 ADD PUSH1 0x40 MLOAD DUP1 PUSH1 0x40 ADD PUSH1 0x40 MSTORE DUP1 PUSH1 0x15 DUP2 MSTORE PUSH1 0x20 ADD PUSH32 0x4661636547756172642044656C6574653A20416C6C0000000000000000000000 DUP2 MSTORE POP DUP2 MSTORE POP SWAP1 POP PUSH1 0x0 PUSH1 0x40 MLOAD DUP1 PUSH1 0x60 ADD PUSH1 0x40 MSTORE DUP1 PUSH1 0x40 MLOAD DUP1 PUSH1 0x40 ADD PUSH1 0x40 MSTORE DUP1 PUSH1 0x14 DUP2 MSTORE PUSH1 0x20 ADD PUSH32 0x46616365477561726420526561643A2053656C66000000000000000000000000 DUP2 MSTORE POP DUP2 MSTORE PUSH1 0x20 ADD PUSH1 0x40 MLOAD DUP1 PUSH1 0x40 ADD PUSH1 0x40 MSTORE DUP1 PUSH1 0x16 DUP2 MSTORE PUSH1 0x20 ADD PUSH32 0x466163654775617264205570646174653A2053656C6600000000000000000000 DUP2 MSTORE POP DUP2 MSTORE PUSH1 0x20 ADD PUSH1 0x40 MLOAD DUP1 PUSH1 0x40 ADD PUSH1 0x40 MSTORE DUP1 PUSH1 0x16 DUP2 MSTORE PUSH1 0x20 ADD PUSH32 0x4661636547756172642044656C6574653A2053656C6600000000000000000000 DUP2 MSTORE POP DUP2 MSTORE POP SWAP1 POP PUSH1 0x0 PUSH1 0x40 MLOAD DUP1 PUSH1 0x80 ADD PUSH1 0x40 MSTORE DUP1 PUSH1 0x40 MLOAD DUP1 PUSH1 0x40 ADD PUSH1 0x40 MSTORE DUP1 PUSH1 0x18 DUP2 MSTORE PUSH1 0x20 ADD PUSH32 0x466163654775617264204372656174653A2047726F7570730000000000000000 DUP2 MSTORE POP DUP2 MSTORE PUSH1 0x20 ADD PUSH1 0x40 MLOAD DUP1 PUSH1 0x40 ADD PUSH1 0x40 MSTORE DUP1 PUSH1 0x16 DUP2 MSTORE PUSH1 0x20 ADD PUSH32 0x46616365477561726420526561643A2047726F75707300000000000000000000 DUP2 MSTORE POP DUP2 MSTORE PUSH1 0x20 ADD PUSH1 0x40 MLOAD DUP1 PUSH1 0x40 ADD PUSH1 0x40 MSTORE DUP1 PUSH1 0x18 DUP2 MSTORE PUSH1 0x20 ADD PUSH32 0x466163654775617264205570646174653A2047726F7570730000000000000000 DUP2 MSTORE POP DUP2 MSTORE PUSH1 0x20 ADD PUSH1 0x40 MLOAD DUP1 PUSH1 0x40 ADD PUSH1 0x40 MSTORE DUP1 PUSH1 0x18 DUP2 MSTORE PUSH1 0x20 ADD PUSH32 0x4661636547756172642044656C6574653A2047726F7570730000000000000000 DUP2 MSTORE POP DUP2 MSTORE POP SWAP1 POP PUSH1 0x0 PUSH1 0x40 MLOAD DUP1 PUSH1 0x80 ADD PUSH1 0x40 MSTORE DUP1 PUSH1 0x40 MLOAD DUP1 PUSH1 0x40 ADD PUSH1 0x40 MSTORE DUP1 PUSH1 0x17 DUP2 MSTORE PUSH1 0x20 ADD PUSH32 0x466163654775617264204372656174653A205573657273000000000000000000 DUP2 MSTORE POP DUP2 MSTORE PUSH1 0x20 ADD PUSH1 0x40 MLOAD DUP1 PUSH1 0x40 ADD PUSH1 0x40 MSTORE DUP1 PUSH1 0x15 DUP2 MSTORE PUSH1 0x20 ADD PUSH32 0x46616365477561726420526561643A2055736572730000000000000000000000 DUP2 MSTORE POP DUP2 MSTORE PUSH1 0x20 ADD PUSH1 0x40 MLOAD DUP1 PUSH1 0x40 ADD PUSH1 0x40 MSTORE DUP1 PUSH1 0x17 DUP2 MSTORE PUSH1 0x20 ADD PUSH32 0x466163654775617264205570646174653A205573657273000000000000000000 DUP2 MSTORE POP DUP2 MSTORE PUSH1 0x20 ADD PUSH1 0x40 MLOAD DUP1 PUSH1 0x40 ADD PUSH1 0x40 MSTORE DUP1 PUSH1 0x17 DUP2 MSTORE PUSH1 0x20 ADD PUSH32 0x4661636547756172642044656C6574653A205573657273000000000000000000 DUP2 MSTORE POP DUP2 MSTORE POP SWAP1 POP PUSH3 0x453 PUSH1 0x40 MLOAD DUP1 PUSH1 0x40 ADD PUSH1 0x40 MSTORE DUP1 PUSH1 0xE DUP2 MSTORE PUSH1 0x20 ADD PUSH32 0x41646D696E6973747261746F7273000000000000000000000000000000000000 DUP2 MSTORE POP PUSH3 0x447 DUP7 PUSH3 0x562 PUSH1 0x20 SHL PUSH1 0x20 SHR JUMP JUMPDEST PUSH3 0x691 PUSH1 0x20 SHL PUSH1 0x20 SHR JUMP JUMPDEST PUSH3 0x4AA PUSH1 0x40 MLOAD DUP1 PUSH1 0x40 ADD PUSH1 0x40 MSTORE DUP1 PUSH1 0x5 DUP2 MSTORE PUSH1 0x20 ADD PUSH32 0x5573657273000000000000000000000000000000000000000000000000000000 DUP2 MSTORE POP PUSH3 0x49E DUP6 PUSH3 0x8B3 PUSH1 0x20 SHL PUSH1 0x20 SHR JUMP JUMPDEST PUSH3 0x691 PUSH1 0x20 SHL PUSH1 0x20 SHR JUMP JUMPDEST PUSH3 0x501 PUSH1 0x40 MLOAD DUP1 PUSH1 0x40 ADD PUSH1 0x40 MSTORE DUP1 PUSH1 0xE DUP2 MSTORE PUSH1 0x20 ADD PUSH32 0x47726F7570204D616E6167657273000000000000000000000000000000000000 DUP2 MSTORE POP PUSH3 0x4F5 DUP5 PUSH3 0x562 PUSH1 0x20 SHL PUSH1 0x20 SHR JUMP JUMPDEST PUSH3 0x691 PUSH1 0x20 SHL PUSH1 0x20 SHR JUMP JUMPDEST PUSH3 0x558 PUSH1 0x40 MLOAD DUP1 PUSH1 0x40 ADD PUSH1 0x40 MSTORE DUP1 PUSH1 0xD DUP2 MSTORE PUSH1 0x20 ADD PUSH32 0x55736572204D616E616765727300000000000000000000000000000000000000 DUP2 MSTORE POP PUSH3 0x54C DUP4 PUSH3 0x562 PUSH1 0x20 SHL PUSH1 0x20 SHR JUMP JUMPDEST PUSH3 0x691 PUSH1 0x20 SHL PUSH1 0x20 SHR JUMP JUMPDEST POP POP POP POP PUSH3 0xF39 JUMP JUMPDEST PUSH1 0x60 PUSH1 0x0 PUSH1 0x4 PUSH8 0xFFFFFFFFFFFFFFFF DUP2 GT ISZERO PUSH3 0x5A8 JUMPI PUSH32 0x4E487B7100000000000000000000000000000000000000000000000000000000 PUSH1 0x0 MSTORE PUSH1 0x41 PUSH1 0x4 MSTORE PUSH1 0x24 PUSH1 0x0 REVERT JUMPDEST PUSH1 0x40 MLOAD SWAP1 DUP1 DUP3 MSTORE DUP1 PUSH1 0x20 MUL PUSH1 0x20 ADD DUP3 ADD PUSH1 0x40 MSTORE DUP1 ISZERO PUSH3 0x5DD JUMPI DUP2 PUSH1 0x20 ADD JUMPDEST PUSH1 0x60 DUP2 MSTORE PUSH1 0x20 ADD SWAP1 PUSH1 0x1 SWAP1 SUB SWAP1 DUP2 PUSH3 0x5C7 JUMPI SWAP1 POP JUMPDEST POP SWAP1 POP PUSH1 0x0 JUMPDEST PUSH1 0x4 DUP2 LT ISZERO PUSH3 0x687 JUMPI DUP4 DUP2 PUSH1 0x4 DUP2 LT PUSH3 0x627 JUMPI PUSH32 0x4E487B7100000000000000000000000000000000000000000000000000000000 PUSH1 0x0 MSTORE PUSH1 0x32 PUSH1 0x4 MSTORE PUSH1 0x24 PUSH1 0x0 REVERT JUMPDEST PUSH1 0x20 MUL ADD MLOAD DUP3 DUP3 DUP2 MLOAD DUP2 LT PUSH3 0x666 JUMPI PUSH32 0x4E487B7100000000000000000000000000000000000000000000000000000000 PUSH1 0x0 MSTORE PUSH1 0x32 PUSH1 0x4 MSTORE PUSH1 0x24 PUSH1 0x0 REVERT JUMPDEST PUSH1 0x20 MUL PUSH1 0x20 ADD ADD DUP2 SWAP1 MSTORE POP DUP1 DUP1 PUSH3 0x67E SWAP1 PUSH3 0xE7C JUMP JUMPDEST SWAP2 POP POP PUSH3 0x5E3 JUMP JUMPDEST POP DUP1 SWAP2 POP POP SWAP2 SWAP1 POP JUMP JUMPDEST PUSH1 0x4 PUSH1 0x0 SWAP1 SLOAD SWAP1 PUSH2 0x100 EXP SWAP1 DIV PUSH20 0xFFFFFFFFFFFFFFFFFFFFFFFFFFFFFFFFFFFFFFFF AND PUSH20 0xFFFFFFFFFFFFFFFFFFFFFFFFFFFFFFFFFFFFFFFF AND CALLER PUSH20 0xFFFFFFFFFFFFFFFFFFFFFFFFFFFFFFFFFFFFFFFF AND EQ PUSH3 0x724 JUMPI PUSH1 0x40 MLOAD PUSH32 0x8C379A000000000000000000000000000000000000000000000000000000000 DUP2 MSTORE PUSH1 0x4 ADD PUSH3 0x71B SWAP1 PUSH3 0xD73 JUMP JUMPDEST PUSH1 0x40 MLOAD DUP1 SWAP2 SUB SWAP1 REVERT JUMPDEST PUSH1 0x40 MLOAD DUP1 PUSH1 0x60 ADD PUSH1 0x40 MSTORE DUP1 DUP4 DUP2 MSTORE PUSH1 0x20 ADD PUSH1 0x0 PUSH8 0xFFFFFFFFFFFFFFFF DUP2 GT ISZERO PUSH3 0x777 JUMPI PUSH32 0x4E487B7100000000000000000000000000000000000000000000000000000000 PUSH1 0x0 MSTORE PUSH1 0x41 PUSH1 0x4 MSTORE PUSH1 0x24 PUSH1 0x0 REVERT JUMPDEST PUSH1 0x40 MLOAD SWAP1 DUP1 DUP3 MSTORE DUP1 PUSH1 0x20 MUL PUSH1 0x20 ADD DUP3 ADD PUSH1 0x40 MSTORE DUP1 ISZERO PUSH3 0x7AC JUMPI DUP2 PUSH1 0x20 ADD JUMPDEST PUSH1 0x60 DUP2 MSTORE PUSH1 0x20 ADD SWAP1 PUSH1 0x1 SWAP1 SUB SWAP1 DUP2 PUSH3 0x796 JUMPI SWAP1 POP JUMPDEST POP DUP2 MSTORE PUSH1 0x20 ADD DUP3 DUP2 MSTORE POP PUSH1 0x1 DUP4 PUSH1 0x40 MLOAD PUSH3 0x7C8 SWAP2 SWAP1 PUSH3 0xD1F JUMP JUMPDEST SWAP1 DUP2 MSTORE PUSH1 0x20 ADD PUSH1 0x40 MLOAD DUP1 SWAP2 SUB SWAP1 KECCAK256 PUSH1 0x0 DUP3 ADD MLOAD DUP2 PUSH1 0x0 ADD SWAP1 DUP1 MLOAD SWAP1 PUSH1 0x20 ADD SWAP1 PUSH3 0x7F4 SWAP3 SWAP2 SWAP1 PUSH3 0x9E2 JUMP JUMPDEST POP PUSH1 0x20 DUP3 ADD MLOAD DUP2 PUSH1 0x1 ADD SWAP1 DUP1 MLOAD SWAP1 PUSH1 0x20 ADD SWAP1 PUSH3 0x813 SWAP3 SWAP2 SWAP1 PUSH3 0xA73 JUMP JUMPDEST POP PUSH1 0x40 DUP3 ADD MLOAD DUP2 PUSH1 0x2 ADD SWAP1 DUP1 MLOAD SWAP1 PUSH1 0x20 ADD SWAP1 PUSH3 0x832 SWAP3 SWAP2 SWAP1 PUSH3 0xA73 JUMP JUMPDEST POP SWAP1 POP POP PUSH1 0x3 DUP3 SWAP1 DUP1 PUSH1 0x1 DUP2 SLOAD ADD DUP1 DUP3 SSTORE DUP1 SWAP2 POP POP PUSH1 0x1 SWAP1 SUB SWAP1 PUSH1 0x0 MSTORE PUSH1 0x20 PUSH1 0x0 KECCAK256 ADD PUSH1 0x0 SWAP1 SWAP2 SWAP1 SWAP2 SWAP1 SWAP2 POP SWAP1 DUP1 MLOAD SWAP1 PUSH1 0x20 ADD SWAP1 PUSH3 0x873 SWAP3 SWAP2 SWAP1 PUSH3 0x9E2 JUMP JUMPDEST POP PUSH32 0x64E45D769B067E3E2DE0A2FBFA982B75AD4472AF64E84E1C421EC5BBE695DE0F DUP3 DUP3 PUSH1 0x40 MLOAD PUSH3 0x8A7 SWAP3 SWAP2 SWAP1 PUSH3 0xD38 JUMP JUMPDEST PUSH1 0x40 MLOAD DUP1 SWAP2 SUB SWAP1 LOG1 POP POP JUMP JUMPDEST PUSH1 0x60 PUSH1 0x0 PUSH1 0x3 PUSH8 0xFFFFFFFFFFFFFFFF DUP2 GT ISZERO PUSH3 0x8F9 JUMPI PUSH32 0x4E487B7100000000000000000000000000000000000000000000000000000000 PUSH1 0x0 MSTORE PUSH1 0x41 PUSH1 0x4 MSTORE PUSH1 0x24 PUSH1 0x0 REVERT JUMPDEST PUSH1 0x40 MLOAD SWAP1 DUP1 DUP3 MSTORE DUP1 PUSH1 0x20 MUL PUSH1 0x20 ADD DUP3 ADD PUSH1 0x40 MSTORE DUP1 ISZERO PUSH3 0x92E JUMPI DUP2 PUSH1 0x20 ADD JUMPDEST PUSH1 0x60 DUP2 MSTORE PUSH1 0x20 ADD SWAP1 PUSH1 0x1 SWAP1 SUB SWAP1 DUP2 PUSH3 0x918 JUMPI SWAP1 POP JUMPDEST POP SWAP1 POP PUSH1 0x0 JUMPDEST PUSH1 0x3 DUP2 LT ISZERO PUSH3 0x9D8 JUMPI DUP4 DUP2 PUSH1 0x3 DUP2 LT PUSH3 0x978 JUMPI PUSH32 0x4E487B7100000000000000000000000000000000000000000000000000000000 PUSH1 0x0 MSTORE PUSH1 0x32 PUSH1 0x4 MSTORE PUSH1 0x24 PUSH1 0x0 REVERT JUMPDEST PUSH1 0x20 MUL ADD MLOAD DUP3 DUP3 DUP2 MLOAD DUP2 LT PUSH3 0x9B7 JUMPI PUSH32 0x4E487B7100000000000000000000000000000000000000000000000000000000 PUSH1 0x0 MSTORE PUSH1 0x32 PUSH1 0x4 MSTORE PUSH1 0x24 PUSH1 0x0 REVERT JUMPDEST PUSH1 0x20 MUL PUSH1 0x20 ADD ADD DUP2 SWAP1 MSTORE POP DUP1 DUP1 PUSH3 0x9CF SWAP1 PUSH3 0xE7C JUMP JUMPDEST SWAP2 POP POP PUSH3 0x934 JUMP JUMPDEST POP DUP1 SWAP2 POP POP SWAP2 SWAP1 POP JUMP JUMPDEST DUP3 DUP1 SLOAD PUSH3 0x9F0 SWAP1 PUSH3 0xE46 JUMP JUMPDEST SWAP1 PUSH1 0x0 MSTORE PUSH1 0x20 PUSH1 0x0 KECCAK256 SWAP1 PUSH1 0x1F ADD PUSH1 0x20 SWAP1 DIV DUP2 ADD SWAP3 DUP3 PUSH3 0xA14 JUMPI PUSH1 0x0 DUP6 SSTORE PUSH3 0xA60 JUMP JUMPDEST DUP3 PUSH1 0x1F LT PUSH3 0xA2F JUMPI DUP1 MLOAD PUSH1 0xFF NOT AND DUP4 DUP1 ADD OR DUP6 SSTORE PUSH3 0xA60 JUMP JUMPDEST DUP3 DUP1 ADD PUSH1 0x1 ADD DUP6 SSTORE DUP3 ISZERO PUSH3 0xA60 JUMPI SWAP2 DUP3 ADD JUMPDEST DUP3 DUP2 GT ISZERO PUSH3 0xA5F JUMPI DUP3 MLOAD DUP3 SSTORE SWAP2 PUSH1 0x20 ADD SWAP2 SWAP1 PUSH1 0x1 ADD SWAP1 PUSH3 0xA42 JUMP JUMPDEST JUMPDEST POP SWAP1 POP PUSH3 0xA6F SWAP2 SWAP1 PUSH3 0xADA JUMP JUMPDEST POP SWAP1 JUMP JUMPDEST DUP3 DUP1 SLOAD DUP3 DUP3 SSTORE SWAP1 PUSH1 0x0 MSTORE PUSH1 0x20 PUSH1 0x0 KECCAK256 SWAP1 DUP2 ADD SWAP3 DUP3 ISZERO PUSH3 0xAC7 JUMPI SWAP2 PUSH1 0x20 MUL DUP3 ADD JUMPDEST DUP3 DUP2 GT ISZERO PUSH3 0xAC6 JUMPI DUP3 MLOAD DUP3 SWAP1 DUP1 MLOAD SWAP1 PUSH1 0x20 ADD SWAP1 PUSH3 0xAB5 SWAP3 SWAP2 SWAP1 PUSH3 0x9E2 JUMP JUMPDEST POP SWAP2 PUSH1 0x20 ADD SWAP2 SWAP1 PUSH1 0x1 ADD SWAP1 PUSH3 0xA94 JUMP JUMPDEST JUMPDEST POP SWAP1 POP PUSH3 0xAD6 SWAP2 SWAP1 PUSH3 0xAF9 JUMP JUMPDEST POP SWAP1 JUMP JUMPDEST JUMPDEST DUP1 DUP3 GT ISZERO PUSH3 0xAF5 JUMPI PUSH1 0x0 DUP2 PUSH1 0x0 SWAP1 SSTORE POP PUSH1 0x1 ADD PUSH3 0xADB JUMP JUMPDEST POP SWAP1 JUMP JUMPDEST JUMPDEST DUP1 DUP3 GT ISZERO PUSH3 0xB1D JUMPI PUSH1 0x0 DUP2 DUP2 PUSH3 0xB13 SWAP2 SWAP1 PUSH3 0xB21 JUMP JUMPDEST POP PUSH1 0x1 ADD PUSH3 0xAFA JUMP JUMPDEST POP SWAP1 JUMP JUMPDEST POP DUP1 SLOAD PUSH3 0xB2F SWAP1 PUSH3 0xE46 JUMP JUMPDEST PUSH1 0x0 DUP3 SSTORE DUP1 PUSH1 0x1F LT PUSH3 0xB43 JUMPI POP PUSH3 0xB64 JUMP JUMPDEST PUSH1 0x1F ADD PUSH1 0x20 SWAP1 DIV SWAP1 PUSH1 0x0 MSTORE PUSH1 0x20 PUSH1 0x0 KECCAK256 SWAP1 DUP2 ADD SWAP1 PUSH3 0xB63 SWAP2 SWAP1 PUSH3 0xADA JUMP JUMPDEST JUMPDEST POP JUMP JUMPDEST PUSH1 0x0 PUSH3 0xB75 DUP4 DUP4 PUSH3 0xBFE JUMP JUMPDEST SWAP1 POP SWAP3 SWAP2 POP POP JUMP JUMPDEST PUSH1 0x0 PUSH3 0xB8A DUP3 PUSH3 0xDA5 JUMP JUMPDEST PUSH3 0xB96 DUP2 DUP6 PUSH3 0xDC8 JUMP JUMPDEST SWAP4 POP DUP4 PUSH1 0x20 DUP3 MUL DUP6 ADD PUSH3 0xBAA DUP6 PUSH3 0xD95 JUMP JUMPDEST DUP1 PUSH1 0x0 JUMPDEST DUP6 DUP2 LT ISZERO PUSH3 0xBEC JUMPI DUP5 DUP5 SUB DUP10 MSTORE DUP2 MLOAD PUSH3 0xBCA DUP6 DUP3 PUSH3 0xB67 JUMP JUMPDEST SWAP5 POP PUSH3 0xBD7 DUP4 PUSH3 0xDBB JUMP JUMPDEST SWAP3 POP PUSH1 0x20 DUP11 ADD SWAP10 POP POP PUSH1 0x1 DUP2 ADD SWAP1 POP PUSH3 0xBAE JUMP JUMPDEST POP DUP3 SWAP8 POP DUP8 SWAP6 POP POP POP POP POP POP SWAP3 SWAP2 POP POP JUMP JUMPDEST PUSH1 0x0 PUSH3 0xC0B DUP3 PUSH3 0xDB0 JUMP JUMPDEST PUSH3 0xC17 DUP2 DUP6 PUSH3 0xDD9 JUMP JUMPDEST SWAP4 POP PUSH3 0xC29 DUP2 DUP6 PUSH1 0x20 DUP7 ADD PUSH3 0xE10 JUMP JUMPDEST PUSH3 0xC34 DUP2 PUSH3 0xF28 JUMP JUMPDEST DUP5 ADD SWAP2 POP POP SWAP3 SWAP2 POP POP JUMP JUMPDEST PUSH1 0x0 PUSH3 0xC4C DUP3 PUSH3 0xDB0 JUMP JUMPDEST PUSH3 0xC58 DUP2 DUP6 PUSH3 0xDEA JUMP JUMPDEST SWAP4 POP PUSH3 0xC6A DUP2 DUP6 PUSH1 0x20 DUP7 ADD PUSH3 0xE10 JUMP JUMPDEST PUSH3 0xC75 DUP2 PUSH3 0xF28 JUMP JUMPDEST DUP5 ADD SWAP2 POP POP SWAP3 SWAP2 POP POP JUMP JUMPDEST PUSH1 0x0 PUSH3 0xC8D DUP3 PUSH3 0xDB0 JUMP JUMPDEST PUSH3 0xC99 DUP2 DUP6 PUSH3 0xDFB JUMP JUMPDEST SWAP4 POP PUSH3 0xCAB DUP2 DUP6 PUSH1 0x20 DUP7 ADD PUSH3 0xE10 JUMP JUMPDEST DUP1 DUP5 ADD SWAP2 POP POP SWAP3 SWAP2 POP POP JUMP JUMPDEST PUSH1 0x0 PUSH3 0xCC6 PUSH1 0x2F DUP4 PUSH3 0xDEA JUMP JUMPDEST SWAP2 POP PUSH32 0x4F6E6C792074686520636F6E7472616374206F776E65722063616E2070657266 PUSH1 0x0 DUP4 ADD MSTORE PUSH32 0x6F726D207468697320616374696F6E0000000000000000000000000000000000 PUSH1 0x20 DUP4 ADD MSTORE PUSH1 0x40 DUP3 ADD SWAP1 POP SWAP2 SWAP1 POP JUMP JUMPDEST PUSH1 0x0 PUSH3 0xD2D DUP3 DUP5 PUSH3 0xC80 JUMP JUMPDEST SWAP2 POP DUP2 SWAP1 POP SWAP3 SWAP2 POP POP JUMP JUMPDEST PUSH1 0x0 PUSH1 0x40 DUP3 ADD SWAP1 POP DUP2 DUP2 SUB PUSH1 0x0 DUP4 ADD MSTORE PUSH3 0xD54 DUP2 DUP6 PUSH3 0xC3F JUMP JUMPDEST SWAP1 POP DUP2 DUP2 SUB PUSH1 0x20 DUP4 ADD MSTORE PUSH3 0xD6A DUP2 DUP5 PUSH3 0xB7D JUMP JUMPDEST SWAP1 POP SWAP4 SWAP3 POP POP POP JUMP JUMPDEST PUSH1 0x0 PUSH1 0x20 DUP3 ADD SWAP1 POP DUP2 DUP2 SUB PUSH1 0x0 DUP4 ADD MSTORE PUSH3 0xD8E DUP2 PUSH3 0xCB7 JUMP JUMPDEST SWAP1 POP SWAP2 SWAP1 POP JUMP JUMPDEST PUSH1 0x0 DUP2 SWAP1 POP PUSH1 0x20 DUP3 ADD SWAP1 POP SWAP2 SWAP1 POP JUMP JUMPDEST PUSH1 0x0 DUP2 MLOAD SWAP1 POP SWAP2 SWAP1 POP JUMP JUMPDEST PUSH1 0x0 DUP2 MLOAD SWAP1 POP SWAP2 SWAP1 POP JUMP JUMPDEST PUSH1 0x0 PUSH1 0x20 DUP3 ADD SWAP1 POP SWAP2 SWAP1 POP JUMP JUMPDEST PUSH1 0x0 DUP3 DUP3 MSTORE PUSH1 0x20 DUP3 ADD SWAP1 POP SWAP3 SWAP2 POP POP JUMP JUMPDEST PUSH1 0x0 DUP3 DUP3 MSTORE PUSH1 0x20 DUP3 ADD SWAP1 POP SWAP3 SWAP2 POP POP JUMP JUMPDEST PUSH1 0x0 DUP3 DUP3 MSTORE PUSH1 0x20 DUP3 ADD SWAP1 POP SWAP3 SWAP2 POP POP JUMP JUMPDEST PUSH1 0x0 DUP2 SWAP1 POP SWAP3 SWAP2 POP POP JUMP JUMPDEST PUSH1 0x0 DUP2 SWAP1 POP SWAP2 SWAP1 POP JUMP JUMPDEST PUSH1 0x0 JUMPDEST DUP4 DUP2 LT ISZERO PUSH3 0xE30 JUMPI DUP1 DUP3 ADD MLOAD DUP2 DUP5 ADD MSTORE PUSH1 0x20 DUP2 ADD SWAP1 POP PUSH3 0xE13 JUMP JUMPDEST DUP4 DUP2 GT ISZERO PUSH3 0xE40 JUMPI PUSH1 0x0 DUP5 DUP5 ADD MSTORE JUMPDEST POP POP POP POP JUMP JUMPDEST PUSH1 0x0 PUSH1 0x2 DUP3 DIV SWAP1 POP PUSH1 0x1 DUP3 AND DUP1 PUSH3 0xE5F JUMPI PUSH1 0x7F DUP3 AND SWAP2 POP JUMPDEST PUSH1 0x20 DUP3 LT DUP2 EQ ISZERO PUSH3 0xE76 JUMPI PUSH3 0xE75 PUSH3 0xEF9 JUMP JUMPDEST JUMPDEST POP SWAP2 SWAP1 POP JUMP JUMPDEST PUSH1 0x0 PUSH3 0xE89 DUP3 PUSH3 0xE06 JUMP JUMPDEST SWAP2 POP PUSH32 0xFFFFFFFFFFFFFFFFFFFFFFFFFFFFFFFFFFFFFFFFFFFFFFFFFFFFFFFFFFFFFFFF DUP3 EQ ISZERO PUSH3 0xEBF JUMPI PUSH3 0xEBE PUSH3 0xECA JUMP JUMPDEST JUMPDEST PUSH1 0x1 DUP3 ADD SWAP1 POP SWAP2 SWAP1 POP JUMP JUMPDEST PUSH32 0x4E487B7100000000000000000000000000000000000000000000000000000000 PUSH1 0x0 MSTORE PUSH1 0x11 PUSH1 0x4 MSTORE PUSH1 0x24 PUSH1 0x0 REVERT JUMPDEST PUSH32 0x4E487B7100000000000000000000000000000000000000000000000000000000 PUSH1 0x0 MSTORE PUSH1 0x22 PUSH1 0x4 MSTORE PUSH1 0x24 PUSH1 0x0 REVERT JUMPDEST PUSH1 0x0 PUSH1 0x1F NOT PUSH1 0x1F DUP4 ADD AND SWAP1 POP SWAP2 SWAP1 POP JUMP JUMPDEST PUSH2 0x460F DUP1 PUSH3 0xF49 PUSH1 0x0 CODECOPY PUSH1 0x0 RETURN INVALID PUSH1 0x80 PUSH1 0x40 MSTORE CALLVALUE DUP1 ISZERO PUSH2 0x10 JUMPI PUSH1 0x0 DUP1 REVERT JUMPDEST POP PUSH1 0x4 CALLDATASIZE LT PUSH2 0x116 JUMPI PUSH1 0x0 CALLDATALOAD PUSH1 0xE0 SHR DUP1 PUSH4 0x67753BA1 GT PUSH2 0xA2 JUMPI DUP1 PUSH4 0xB9E6FACB GT PUSH2 0x71 JUMPI DUP1 PUSH4 0xB9E6FACB EQ PUSH2 0x2F7 JUMPI DUP1 PUSH4 0xC91BC46C EQ PUSH2 0x313 JUMPI DUP1 PUSH4 0xE537CAC7 EQ PUSH2 0x32F JUMPI DUP1 PUSH4 0xECB5A4D5 EQ PUSH2 0x34B JUMPI DUP1 PUSH4 0xEE1C55DA EQ PUSH2 0x367 JUMPI PUSH2 0x116 JUMP JUMPDEST DUP1 PUSH4 0x67753BA1 EQ PUSH2 0x25D JUMPI DUP1 PUSH4 0x6CAD1934 EQ PUSH2 0x279 JUMPI DUP1 PUSH4 0x7C77F39F EQ PUSH2 0x2A9 JUMPI DUP1 PUSH4 0xABEF281E EQ PUSH2 0x2C5 JUMPI PUSH2 0x116 JUMP JUMPDEST DUP1 PUSH4 0x31FEB671 GT PUSH2 0xE9 JUMPI DUP1 PUSH4 0x31FEB671 EQ PUSH2 0x1B5 JUMPI DUP1 PUSH4 0x5108C3AB EQ PUSH2 0x1EB JUMPI DUP1 PUSH4 0x53620375 EQ PUSH2 0x207 JUMPI DUP1 PUSH4 0x5B9A6B1D EQ PUSH2 0x225 JUMPI DUP1 PUSH4 0x6246B310 EQ PUSH2 0x241 JUMPI PUSH2 0x116 JUMP JUMPDEST DUP1 PUSH4 0x3DF9E92 EQ PUSH2 0x11B JUMPI DUP1 PUSH4 0x1AE7F10A EQ PUSH2 0x137 JUMPI DUP1 PUSH4 0x21CD3CAE EQ PUSH2 0x167 JUMPI DUP1 PUSH4 0x2D09D9E9 EQ PUSH2 0x185 JUMPI JUMPDEST PUSH1 0x0 DUP1 REVERT JUMPDEST PUSH2 0x135 PUSH1 0x4 DUP1 CALLDATASIZE SUB DUP2 ADD SWAP1 PUSH2 0x130 SWAP2 SWAP1 PUSH2 0x38B4 JUMP JUMPDEST PUSH2 0x397 JUMP JUMPDEST STOP JUMPDEST PUSH2 0x151 PUSH1 0x4 DUP1 CALLDATASIZE SUB DUP2 ADD SWAP1 PUSH2 0x14C SWAP2 SWAP1 PUSH2 0x38B4 JUMP JUMPDEST PUSH2 0x498 JUMP JUMPDEST PUSH1 0x40 MLOAD PUSH2 0x15E SWAP2 SWAP1 PUSH2 0x405F JUMP JUMPDEST PUSH1 0x40 MLOAD DUP1 SWAP2 SUB SWAP1 RETURN JUMPDEST PUSH2 0x16F PUSH2 0x8E1 JUMP JUMPDEST PUSH1 0x40 MLOAD PUSH2 0x17C SWAP2 SWAP1 PUSH2 0x4022 JUMP JUMPDEST PUSH1 0x40 MLOAD DUP1 SWAP2 SUB SWAP1 RETURN JUMPDEST PUSH2 0x19F PUSH1 0x4 DUP1 CALLDATASIZE SUB DUP2 ADD SWAP1 PUSH2 0x19A SWAP2 SWAP1 PUSH2 0x3873 JUMP JUMPDEST PUSH2 0x9BA JUMP JUMPDEST PUSH1 0x40 MLOAD PUSH2 0x1AC SWAP2 SWAP1 PUSH2 0x4022 JUMP JUMPDEST PUSH1 0x40 MLOAD DUP1 SWAP2 SUB SWAP1 RETURN JUMPDEST PUSH2 0x1CF PUSH1 0x4 DUP1 CALLDATASIZE SUB DUP2 ADD SWAP1 PUSH2 0x1CA SWAP2 SWAP1 PUSH2 0x3873 JUMP JUMPDEST PUSH2 0xAB4 JUMP JUMPDEST PUSH1 0x40 MLOAD PUSH2 0x1E2 SWAP8 SWAP7 SWAP6 SWAP5 SWAP4 SWAP3 SWAP2 SWAP1 PUSH2 0x416B JUMP JUMPDEST PUSH1 0x40 MLOAD DUP1 SWAP2 SUB SWAP1 RETURN JUMPDEST PUSH2 0x205 PUSH1 0x4 DUP1 CALLDATASIZE SUB DUP2 ADD SWAP1 PUSH2 0x200 SWAP2 SWAP1 PUSH2 0x3873 JUMP JUMPDEST PUSH2 0xE9B JUMP JUMPDEST STOP JUMPDEST PUSH2 0x20F PUSH2 0xFFD JUMP JUMPDEST PUSH1 0x40 MLOAD PUSH2 0x21C SWAP2 SWAP1 PUSH2 0x4022 JUMP JUMPDEST PUSH1 0x40 MLOAD DUP1 SWAP2 SUB SWAP1 RETURN JUMPDEST PUSH2 0x23F PUSH1 0x4 DUP1 CALLDATASIZE SUB DUP2 ADD SWAP1 PUSH2 0x23A SWAP2 SWAP1 PUSH2 0x398C JUMP JUMPDEST PUSH2 0x10D6 JUMP JUMPDEST STOP JUMPDEST PUSH2 0x25B PUSH1 0x4 DUP1 CALLDATASIZE SUB DUP2 ADD SWAP1 PUSH2 0x256 SWAP2 SWAP1 PUSH2 0x3873 JUMP JUMPDEST PUSH2 0x1686 JUMP JUMPDEST STOP JUMPDEST PUSH2 0x277 PUSH1 0x4 DUP1 CALLDATASIZE SUB DUP2 ADD SWAP1 PUSH2 0x272 SWAP2 SWAP1 PUSH2 0x3920 JUMP JUMPDEST PUSH2 0x1C04 JUMP JUMPDEST STOP JUMPDEST PUSH2 0x293 PUSH1 0x4 DUP1 CALLDATASIZE SUB DUP2 ADD SWAP1 PUSH2 0x28E SWAP2 SWAP1 PUSH2 0x3873 JUMP JUMPDEST PUSH2 0x1FDD JUMP JUMPDEST PUSH1 0x40 MLOAD PUSH2 0x2A0 SWAP2 SWAP1 PUSH2 0x4044 JUMP JUMPDEST PUSH1 0x40 MLOAD DUP1 SWAP2 SUB SWAP1 RETURN JUMPDEST PUSH2 0x2C3 PUSH1 0x4 DUP1 CALLDATASIZE SUB DUP2 ADD SWAP1 PUSH2 0x2BE SWAP2 SWAP1 PUSH2 0x38B4 JUMP JUMPDEST PUSH2 0x2016 JUMP JUMPDEST STOP JUMPDEST PUSH2 0x2DF PUSH1 0x4 DUP1 CALLDATASIZE SUB DUP2 ADD SWAP1 PUSH2 0x2DA SWAP2 SWAP1 PUSH2 0x3873 JUMP JUMPDEST PUSH2 0x2226 JUMP JUMPDEST PUSH1 0x40 MLOAD PUSH2 0x2EE SWAP4 SWAP3 SWAP2 SWAP1 PUSH2 0x40B8 JUMP JUMPDEST PUSH1 0x40 MLOAD DUP1 SWAP2 SUB SWAP1 RETURN JUMPDEST PUSH2 0x311 PUSH1 0x4 DUP1 CALLDATASIZE SUB DUP2 ADD SWAP1 PUSH2 0x30C SWAP2 SWAP1 PUSH2 0x3A23 JUMP JUMPDEST PUSH2 0x25B9 JUMP JUMPDEST STOP JUMPDEST PUSH2 0x32D PUSH1 0x4 DUP1 CALLDATASIZE SUB DUP2 ADD SWAP1 PUSH2 0x328 SWAP2 SWAP1 PUSH2 0x3920 JUMP JUMPDEST PUSH2 0x28A4 JUMP JUMPDEST STOP JUMPDEST PUSH2 0x349 PUSH1 0x4 DUP1 CALLDATASIZE SUB DUP2 ADD SWAP1 PUSH2 0x344 SWAP2 SWAP1 PUSH2 0x3873 JUMP JUMPDEST PUSH2 0x29DE JUMP JUMPDEST STOP JUMPDEST PUSH2 0x365 PUSH1 0x4 DUP1 CALLDATASIZE SUB DUP2 ADD SWAP1 PUSH2 0x360 SWAP2 SWAP1 PUSH2 0x3920 JUMP JUMPDEST PUSH2 0x2AE2 JUMP JUMPDEST STOP JUMPDEST PUSH2 0x381 PUSH1 0x4 DUP1 CALLDATASIZE SUB DUP2 ADD SWAP1 PUSH2 0x37C SWAP2 SWAP1 PUSH2 0x3873 JUMP JUMPDEST PUSH2 0x2CE9 JUMP JUMPDEST PUSH1 0x40 MLOAD PUSH2 0x38E SWAP2 SWAP1 PUSH2 0x4022 JUMP JUMPDEST PUSH1 0x40 MLOAD DUP1 SWAP2 SUB SWAP1 RETURN JUMPDEST PUSH1 0x4 PUSH1 0x0 SWAP1 SLOAD SWAP1 PUSH2 0x100 EXP SWAP1 DIV PUSH20 0xFFFFFFFFFFFFFFFFFFFFFFFFFFFFFFFFFFFFFFFF AND PUSH20 0xFFFFFFFFFFFFFFFFFFFFFFFFFFFFFFFFFFFFFFFF AND CALLER PUSH20 0xFFFFFFFFFFFFFFFFFFFFFFFFFFFFFFFFFFFFFFFF AND EQ PUSH2 0x427 JUMPI PUSH1 0x40 MLOAD PUSH32 0x8C379A000000000000000000000000000000000000000000000000000000000 DUP2 MSTORE PUSH1 0x4 ADD PUSH2 0x41E SWAP1 PUSH2 0x4274 JUMP JUMPDEST PUSH1 0x40 MLOAD DUP1 SWAP2 SUB SWAP1 REVERT JUMPDEST DUP1 PUSH1 0x0 DUP4 PUSH1 0x40 MLOAD PUSH2 0x438 SWAP2 SWAP1 PUSH2 0x3FF4 JUMP JUMPDEST SWAP1 DUP2 MSTORE PUSH1 0x20 ADD PUSH1 0x40 MLOAD DUP1 SWAP2 SUB SWAP1 KECCAK256 PUSH1 0x2 ADD SWAP1 DUP1 MLOAD SWAP1 PUSH1 0x20 ADD SWAP1 PUSH2 0x45C SWAP3 SWAP2 SWAP1 PUSH2 0x347A JUMP JUMPDEST POP PUSH32 0xEB1060EC96E942D51B0F7B8B00C334C5C6DA57C48F5EF56937468D28D0EE347A DUP3 PUSH1 0x40 MLOAD PUSH2 0x48C SWAP2 SWAP1 PUSH2 0x405F JUMP JUMPDEST PUSH1 0x40 MLOAD DUP1 SWAP2 SUB SWAP1 LOG1 POP POP JUMP JUMPDEST PUSH1 0x60 PUSH1 0x4 PUSH1 0x0 SWAP1 SLOAD SWAP1 PUSH2 0x100 EXP SWAP1 DIV PUSH20 0xFFFFFFFFFFFFFFFFFFFFFFFFFFFFFFFFFFFFFFFF AND PUSH20 0xFFFFFFFFFFFFFFFFFFFFFFFFFFFFFFFFFFFFFFFF AND CALLER PUSH20 0xFFFFFFFFFFFFFFFFFFFFFFFFFFFFFFFFFFFFFFFF AND EQ PUSH2 0x52A JUMPI PUSH1 0x40 MLOAD PUSH32 0x8C379A000000000000000000000000000000000000000000000000000000000 DUP2 MSTORE PUSH1 0x4 ADD PUSH2 0x521 SWAP1 PUSH2 0x4274 JUMP JUMPDEST PUSH1 0x40 MLOAD DUP1 SWAP2 SUB SWAP1 REVERT JUMPDEST PUSH1 0x0 PUSH1 0x1 DUP5 PUSH1 0x40 MLOAD PUSH2 0x53C SWAP2 SWAP1 PUSH2 0x3FF4 JUMP JUMPDEST SWAP1 DUP2 MSTORE PUSH1 0x20 ADD PUSH1 0x40 MLOAD DUP1 SWAP2 SUB SWAP1 KECCAK256 PUSH1 0x0 ADD DUP1 SLOAD PUSH2 0x558 SWAP1 PUSH2 0x44C0 JUMP JUMPDEST SWAP1 POP GT PUSH2 0x59A JUMPI PUSH1 0x40 MLOAD PUSH32 0x8C379A000000000000000000000000000000000000000000000000000000000 DUP2 MSTORE PUSH1 0x4 ADD PUSH2 0x591 SWAP1 PUSH2 0x4294 JUMP JUMPDEST PUSH1 0x40 MLOAD DUP1 SWAP2 SUB SWAP1 REVERT JUMPDEST PUSH1 0x0 PUSH1 0x40 MLOAD DUP1 PUSH1 0x80 ADD PUSH1 0x40 MSTORE DUP1 PUSH1 0x40 MLOAD DUP1 PUSH1 0x40 ADD PUSH1 0x40 MSTORE DUP1 PUSH1 0xE DUP2 MSTORE PUSH1 0x20 ADD PUSH32 0x41646D696E6973747261746F7273000000000000000000000000000000000000 DUP2 MSTORE POP DUP2 MSTORE PUSH1 0x20 ADD PUSH1 0x40 MLOAD DUP1 PUSH1 0x40 ADD PUSH1 0x40 MSTORE DUP1 PUSH1 0x5 DUP2 MSTORE PUSH1 0x20 ADD PUSH32 0x5573657273000000000000000000000000000000000000000000000000000000 DUP2 MSTORE POP DUP2 MSTORE PUSH1 0x20 ADD PUSH1 0x40 MLOAD DUP1 PUSH1 0x40 ADD PUSH1 0x40 MSTORE DUP1 PUSH1 0xE DUP2 MSTORE PUSH1 0x20 ADD PUSH32 0x47726F7570204D616E6167657273000000000000000000000000000000000000 DUP2 MSTORE POP DUP2 MSTORE PUSH1 0x20 ADD PUSH1 0x40 MLOAD DUP1 PUSH1 0x40 ADD PUSH1 0x40 MSTORE DUP1 PUSH1 0xD DUP2 MSTORE PUSH1 0x20 ADD PUSH32 0x55736572204D616E616765727300000000000000000000000000000000000000 DUP2 MSTORE POP DUP2 MSTORE POP SWAP1 POP PUSH1 0x0 JUMPDEST PUSH1 0x4 DUP2 LT ISZERO PUSH2 0x77E JUMPI DUP2 DUP2 PUSH1 0x4 DUP2 LT PUSH2 0x6D8 JUMPI PUSH32 0x4E487B7100000000000000000000000000000000000000000000000000000000 PUSH1 0x0 MSTORE PUSH1 0x32 PUSH1 0x4 MSTORE PUSH1 0x24 PUSH1 0x0 REVERT JUMPDEST PUSH1 0x20 MUL ADD MLOAD PUSH1 0x40 MLOAD PUSH1 0x20 ADD PUSH2 0x6ED SWAP2 SWAP1 PUSH2 0x3FF4 JUMP JUMPDEST PUSH1 0x40 MLOAD PUSH1 0x20 DUP2 DUP4 SUB SUB DUP2 MSTORE SWAP1 PUSH1 0x40 MSTORE DUP1 MLOAD SWAP1 PUSH1 0x20 ADD KECCAK256 DUP6 PUSH1 0x40 MLOAD PUSH1 0x20 ADD PUSH2 0x714 SWAP2 SWAP1 PUSH2 0x3FF4 JUMP JUMPDEST PUSH1 0x40 MLOAD PUSH1 0x20 DUP2 DUP4 SUB SUB DUP2 MSTORE SWAP1 PUSH1 0x40 MSTORE DUP1 MLOAD SWAP1 PUSH1 0x20 ADD KECCAK256 EQ ISZERO PUSH2 0x76B JUMPI PUSH1 0x40 MLOAD PUSH32 0x8C379A000000000000000000000000000000000000000000000000000000000 DUP2 MSTORE PUSH1 0x4 ADD PUSH2 0x762 SWAP1 PUSH2 0x4254 JUMP JUMPDEST PUSH1 0x40 MLOAD DUP1 SWAP2 SUB SWAP1 REVERT JUMPDEST DUP1 DUP1 PUSH2 0x776 SWAP1 PUSH2 0x44F2 JUMP JUMPDEST SWAP2 POP POP PUSH2 0x696 JUMP JUMPDEST POP DUP3 PUSH1 0x1 DUP6 PUSH1 0x40 MLOAD PUSH2 0x790 SWAP2 SWAP1 PUSH2 0x3FF4 JUMP JUMPDEST SWAP1 DUP2 MSTORE PUSH1 0x20 ADD PUSH1 0x40 MLOAD DUP1 SWAP2 SUB SWAP1 KECCAK256 PUSH1 0x2 ADD SWAP1 DUP1 MLOAD SWAP1 PUSH1 0x20 ADD SWAP1 PUSH2 0x7B4 SWAP3 SWAP2 SWAP1 PUSH2 0x347A JUMP JUMPDEST POP PUSH32 0x65D29756900166EA1A95042B775077B9E0C4B52E2AD303784B8FC75584DE59EF PUSH1 0x1 DUP6 PUSH1 0x40 MLOAD PUSH2 0x7E6 SWAP2 SWAP1 PUSH2 0x3FF4 JUMP JUMPDEST SWAP1 DUP2 MSTORE PUSH1 0x20 ADD PUSH1 0x40 MLOAD DUP1 SWAP2 SUB SWAP1 KECCAK256 PUSH1 0x0 ADD PUSH1 0x1 DUP7 PUSH1 0x40 MLOAD PUSH2 0x807 SWAP2 SWAP1 PUSH2 0x3FF4 JUMP JUMPDEST SWAP1 DUP2 MSTORE PUSH1 0x20 ADD PUSH1 0x40 MLOAD DUP1 SWAP2 SUB SWAP1 KECCAK256 PUSH1 0x2 ADD PUSH1 0x40 MLOAD PUSH2 0x826 SWAP3 SWAP2 SWAP1 PUSH2 0x41FD JUMP JUMPDEST PUSH1 0x40 MLOAD DUP1 SWAP2 SUB SWAP1 LOG1 PUSH1 0x1 DUP5 PUSH1 0x40 MLOAD PUSH2 0x83E SWAP2 SWAP1 PUSH2 0x3FF4 JUMP JUMPDEST SWAP1 DUP2 MSTORE PUSH1 0x20 ADD PUSH1 0x40 MLOAD DUP1 SWAP2 SUB SWAP1 KECCAK256 PUSH1 0x0 ADD DUP1 SLOAD PUSH2 0x85A SWAP1 PUSH2 0x44C0 JUMP JUMPDEST DUP1 PUSH1 0x1F ADD PUSH1 0x20 DUP1 SWAP2 DIV MUL PUSH1 0x20 ADD PUSH1 0x40 MLOAD SWAP1 DUP2 ADD PUSH1 0x40 MSTORE DUP1 SWAP3 SWAP2 SWAP1 DUP2 DUP2 MSTORE PUSH1 0x20 ADD DUP3 DUP1 SLOAD PUSH2 0x886 SWAP1 PUSH2 0x44C0 JUMP JUMPDEST DUP1 ISZERO PUSH2 0x8D3 JUMPI DUP1 PUSH1 0x1F LT PUSH2 0x8A8 JUMPI PUSH2 0x100 DUP1 DUP4 SLOAD DIV MUL DUP4 MSTORE SWAP2 PUSH1 0x20 ADD SWAP2 PUSH2 0x8D3 JUMP JUMPDEST DUP3 ADD SWAP2 SWAP1 PUSH1 0x0 MSTORE PUSH1 0x20 PUSH1 0x0 KECCAK256 SWAP1 JUMPDEST DUP2 SLOAD DUP2 MSTORE SWAP1 PUSH1 0x1 ADD SWAP1 PUSH1 0x20 ADD DUP1 DUP4 GT PUSH2 0x8B6 JUMPI DUP3 SWAP1 SUB PUSH1 0x1F AND DUP3 ADD SWAP2 JUMPDEST POP POP POP POP POP SWAP2 POP POP SWAP3 SWAP2 POP POP JUMP JUMPDEST PUSH1 0x60 PUSH1 0x3 DUP1 SLOAD DUP1 PUSH1 0x20 MUL PUSH1 0x20 ADD PUSH1 0x40 MLOAD SWAP1 DUP2 ADD PUSH1 0x40 MSTORE DUP1 SWAP3 SWAP2 SWAP1 DUP2 DUP2 MSTORE PUSH1 0x20 ADD PUSH1 0x0 SWAP1 JUMPDEST DUP3 DUP3 LT ISZERO PUSH2 0x9B1 JUMPI DUP4 DUP3 SWAP1 PUSH1 0x0 MSTORE PUSH1 0x20 PUSH1 0x0 KECCAK256 ADD DUP1 SLOAD PUSH2 0x924 SWAP1 PUSH2 0x44C0 JUMP JUMPDEST DUP1 PUSH1 0x1F ADD PUSH1 0x20 DUP1 SWAP2 DIV MUL PUSH1 0x20 ADD PUSH1 0x40 MLOAD SWAP1 DUP2 ADD PUSH1 0x40 MSTORE DUP1 SWAP3 SWAP2 SWAP1 DUP2 DUP2 MSTORE PUSH1 0x20 ADD DUP3 DUP1 SLOAD PUSH2 0x950 SWAP1 PUSH2 0x44C0 JUMP JUMPDEST DUP1 ISZERO PUSH2 0x99D JUMPI DUP1 PUSH1 0x1F LT PUSH2 0x972 JUMPI PUSH2 0x100 DUP1 DUP4 SLOAD DIV MUL DUP4 MSTORE SWAP2 PUSH1 0x20 ADD SWAP2 PUSH2 0x99D JUMP JUMPDEST DUP3 ADD SWAP2 SWAP1 PUSH1 0x0 MSTORE PUSH1 0x20 PUSH1 0x0 KECCAK256 SWAP1 JUMPDEST DUP2 SLOAD DUP2 MSTORE SWAP1 PUSH1 0x1 ADD SWAP1 PUSH1 0x20 ADD DUP1 DUP4 GT PUSH2 0x980 JUMPI DUP3 SWAP1 SUB PUSH1 0x1F AND DUP3 ADD SWAP2 JUMPDEST POP POP POP POP POP DUP2 MSTORE PUSH1 0x20 ADD SWAP1 PUSH1 0x1 ADD SWAP1 PUSH2 0x905 JUMP JUMPDEST POP POP POP POP SWAP1 POP SWAP1 JUMP JUMPDEST PUSH1 0x60 PUSH1 0x0 DUP3 PUSH1 0x40 MLOAD PUSH2 0x9CC SWAP2 SWAP1 PUSH2 0x3FF4 JUMP JUMPDEST SWAP1 DUP2 MSTORE PUSH1 0x20 ADD PUSH1 0x40 MLOAD DUP1 SWAP2 SUB SWAP1 KECCAK256 PUSH1 0x2 ADD DUP1 SLOAD DUP1 PUSH1 0x20 MUL PUSH1 0x20 ADD PUSH1 0x40 MLOAD SWAP1 DUP2 ADD PUSH1 0x40 MSTORE DUP1 SWAP3 SWAP2 SWAP1 DUP2 DUP2 MSTORE PUSH1 0x20 ADD PUSH1 0x0 SWAP1 JUMPDEST DUP3 DUP3 LT ISZERO PUSH2 0xAA9 JUMPI DUP4 DUP3 SWAP1 PUSH1 0x0 MSTORE PUSH1 0x20 PUSH1 0x0 KECCAK256 ADD DUP1 SLOAD PUSH2 0xA1C SWAP1 PUSH2 0x44C0 JUMP JUMPDEST DUP1 PUSH1 0x1F ADD PUSH1 0x20 DUP1 SWAP2 DIV MUL PUSH1 0x20 ADD PUSH1 0x40 MLOAD SWAP1 DUP2 ADD PUSH1 0x40 MSTORE DUP1 SWAP3 SWAP2 SWAP1 DUP2 DUP2 MSTORE PUSH1 0x20 ADD DUP3 DUP1 SLOAD PUSH2 0xA48 SWAP1 PUSH2 0x44C0 JUMP JUMPDEST DUP1 ISZERO PUSH2 0xA95 JUMPI DUP1 PUSH1 0x1F LT PUSH2 0xA6A JUMPI PUSH2 0x100 DUP1 DUP4 SLOAD DIV MUL DUP4 MSTORE SWAP2 PUSH1 0x20 ADD SWAP2 PUSH2 0xA95 JUMP JUMPDEST DUP3 ADD SWAP2 SWAP1 PUSH1 0x0 MSTORE PUSH1 0x20 PUSH1 0x0 KECCAK256 SWAP1 JUMPDEST DUP2 SLOAD DUP2 MSTORE SWAP1 PUSH1 0x1 ADD SWAP1 PUSH1 0x20 ADD DUP1 DUP4 GT PUSH2 0xA78 JUMPI DUP3 SWAP1 SUB PUSH1 0x1F AND DUP3 ADD SWAP2 JUMPDEST POP POP POP POP POP DUP2 MSTORE PUSH1 0x20 ADD SWAP1 PUSH1 0x1 ADD SWAP1 PUSH2 0x9FD JUMP JUMPDEST POP POP POP POP SWAP1 POP SWAP2 SWAP1 POP JUMP JUMPDEST PUSH1 0x60 DUP1 PUSH1 0x60 DUP1 PUSH1 0x60 PUSH1 0x0 DUP1 PUSH1 0x0 DUP1 DUP10 PUSH1 0x40 MLOAD PUSH2 0xAD0 SWAP2 SWAP1 PUSH2 0x3FF4 JUMP JUMPDEST SWAP1 DUP2 MSTORE PUSH1 0x20 ADD PUSH1 0x40 MLOAD DUP1 SWAP2 SUB SWAP1 KECCAK256 PUSH1 0x40 MLOAD DUP1 PUSH2 0x100 ADD PUSH1 0x40 MSTORE SWAP1 DUP2 PUSH1 0x0 DUP3 ADD DUP1 SLOAD PUSH2 0xAFA SWAP1 PUSH2 0x44C0 JUMP JUMPDEST DUP1 PUSH1 0x1F ADD PUSH1 0x20 DUP1 SWAP2 DIV MUL PUSH1 0x20 ADD PUSH1 0x40 MLOAD SWAP1 DUP2 ADD PUSH1 0x40 MSTORE DUP1 SWAP3 SWAP2 SWAP1 DUP2 DUP2 MSTORE PUSH1 0x20 ADD DUP3 DUP1 SLOAD PUSH2 0xB26 SWAP1 PUSH2 0x44C0 JUMP JUMPDEST DUP1 ISZERO PUSH2 0xB73 JUMPI DUP1 PUSH1 0x1F LT PUSH2 0xB48 JUMPI PUSH2 0x100 DUP1 DUP4 SLOAD DIV MUL DUP4 MSTORE SWAP2 PUSH1 0x20 ADD SWAP2 PUSH2 0xB73 JUMP JUMPDEST DUP3 ADD SWAP2 SWAP1 PUSH1 0x0 MSTORE PUSH1 0x20 PUSH1 0x0 KECCAK256 SWAP1 JUMPDEST DUP2 SLOAD DUP2 MSTORE SWAP1 PUSH1 0x1 ADD SWAP1 PUSH1 0x20 ADD DUP1 DUP4 GT PUSH2 0xB56 JUMPI DUP3 SWAP1 SUB PUSH1 0x1F AND DUP3 ADD SWAP2 JUMPDEST POP POP POP POP POP DUP2 MSTORE PUSH1 0x20 ADD PUSH1 0x1 DUP3 ADD DUP1 SLOAD PUSH2 0xB8C SWAP1 PUSH2 0x44C0 JUMP JUMPDEST DUP1 PUSH1 0x1F ADD PUSH1 0x20 DUP1 SWAP2 DIV MUL PUSH1 0x20 ADD PUSH1 0x40 MLOAD SWAP1 DUP2 ADD PUSH1 0x40 MSTORE DUP1 SWAP3 SWAP2 SWAP1 DUP2 DUP2 MSTORE PUSH1 0x20 ADD DUP3 DUP1 SLOAD PUSH2 0xBB8 SWAP1 PUSH2 0x44C0 JUMP JUMPDEST DUP1 ISZERO PUSH2 0xC05 JUMPI DUP1 PUSH1 0x1F LT PUSH2 0xBDA JUMPI PUSH2 0x100 DUP1 DUP4 SLOAD DIV MUL DUP4 MSTORE SWAP2 PUSH1 0x20 ADD SWAP2 PUSH2 0xC05 JUMP JUMPDEST DUP3 ADD SWAP2 SWAP1 PUSH1 0x0 MSTORE PUSH1 0x20 PUSH1 0x0 KECCAK256 SWAP1 JUMPDEST DUP2 SLOAD DUP2 MSTORE SWAP1 PUSH1 0x1 ADD SWAP1 PUSH1 0x20 ADD DUP1 DUP4 GT PUSH2 0xBE8 JUMPI DUP3 SWAP1 SUB PUSH1 0x1F AND DUP3 ADD SWAP2 JUMPDEST POP POP POP POP POP DUP2 MSTORE PUSH1 0x20 ADD PUSH1 0x2 DUP3 ADD DUP1 SLOAD DUP1 PUSH1 0x20 MUL PUSH1 0x20 ADD PUSH1 0x40 MLOAD SWAP1 DUP2 ADD PUSH1 0x40 MSTORE DUP1 SWAP3 SWAP2 SWAP1 DUP2 DUP2 MSTORE PUSH1 0x20 ADD PUSH1 0x0 SWAP1 JUMPDEST DUP3 DUP3 LT ISZERO PUSH2 0xCDF JUMPI DUP4 DUP3 SWAP1 PUSH1 0x0 MSTORE PUSH1 0x20 PUSH1 0x0 KECCAK256 ADD DUP1 SLOAD PUSH2 0xC52 SWAP1 PUSH2 0x44C0 JUMP JUMPDEST DUP1 PUSH1 0x1F ADD PUSH1 0x20 DUP1 SWAP2 DIV MUL PUSH1 0x20 ADD PUSH1 0x40 MLOAD SWAP1 DUP2 ADD PUSH1 0x40 MSTORE DUP1 SWAP3 SWAP2 SWAP1 DUP2 DUP2 MSTORE PUSH1 0x20 ADD DUP3 DUP1 SLOAD PUSH2 0xC7E SWAP1 PUSH2 0x44C0 JUMP JUMPDEST DUP1 ISZERO PUSH2 0xCCB JUMPI DUP1 PUSH1 0x1F LT PUSH2 0xCA0 JUMPI PUSH2 0x100 DUP1 DUP4 SLOAD DIV MUL DUP4 MSTORE SWAP2 PUSH1 0x20 ADD SWAP2 PUSH2 0xCCB JUMP JUMPDEST DUP3 ADD SWAP2 SWAP1 PUSH1 0x0 MSTORE PUSH1 0x20 PUSH1 0x0 KECCAK256 SWAP1 JUMPDEST DUP2 SLOAD DUP2 MSTORE SWAP1 PUSH1 0x1 ADD SWAP1 PUSH1 0x20 ADD DUP1 DUP4 GT PUSH2 0xCAE JUMPI DUP3 SWAP1 SUB PUSH1 0x1F AND DUP3 ADD SWAP2 JUMPDEST POP POP POP POP POP DUP2 MSTORE PUSH1 0x20 ADD SWAP1 PUSH1 0x1 ADD SWAP1 PUSH2 0xC33 JUMP JUMPDEST POP POP POP POP DUP2 MSTORE PUSH1 0x20 ADD PUSH1 0x3 DUP3 ADD DUP1 SLOAD PUSH2 0xCF7 SWAP1 PUSH2 0x44C0 JUMP JUMPDEST DUP1 PUSH1 0x1F ADD PUSH1 0x20 DUP1 SWAP2 DIV MUL PUSH1 0x20 ADD PUSH1 0x40 MLOAD SWAP1 DUP2 ADD PUSH1 0x40 MSTORE DUP1 SWAP3 SWAP2 SWAP1 DUP2 DUP2 MSTORE PUSH1 0x20 ADD DUP3 DUP1 SLOAD PUSH2 0xD23 SWAP1 PUSH2 0x44C0 JUMP JUMPDEST DUP1 ISZERO PUSH2 0xD70 JUMPI DUP1 PUSH1 0x1F LT PUSH2 0xD45 JUMPI PUSH2 0x100 DUP1 DUP4 SLOAD DIV MUL DUP4 MSTORE SWAP2 PUSH1 0x20 ADD SWAP2 PUSH2 0xD70 JUMP JUMPDEST DUP3 ADD SWAP2 SWAP1 PUSH1 0x0 MSTORE PUSH1 0x20 PUSH1 0x0 KECCAK256 SWAP1 JUMPDEST DUP2 SLOAD DUP2 MSTORE SWAP1 PUSH1 0x1 ADD SWAP1 PUSH1 0x20 ADD DUP1 DUP4 GT PUSH2 0xD53 JUMPI DUP3 SWAP1 SUB PUSH1 0x1F AND DUP3 ADD SWAP2 JUMPDEST POP POP POP POP POP DUP2 MSTORE PUSH1 0x20 ADD PUSH1 0x4 DUP3 ADD DUP1 SLOAD PUSH2 0xD89 SWAP1 PUSH2 0x44C0 JUMP JUMPDEST DUP1 PUSH1 0x1F ADD PUSH1 0x20 DUP1 SWAP2 DIV MUL PUSH1 0x20 ADD PUSH1 0x40 MLOAD SWAP1 DUP2 ADD PUSH1 0x40 MSTORE DUP1 SWAP3 SWAP2 SWAP1 DUP2 DUP2 MSTORE PUSH1 0x20 ADD DUP3 DUP1 SLOAD PUSH2 0xDB5 SWAP1 PUSH2 0x44C0 JUMP JUMPDEST DUP1 ISZERO PUSH2 0xE02 JUMPI DUP1 PUSH1 0x1F LT PUSH2 0xDD7 JUMPI PUSH2 0x100 DUP1 DUP4 SLOAD DIV MUL DUP4 MSTORE SWAP2 PUSH1 0x20 ADD SWAP2 PUSH2 0xE02 JUMP JUMPDEST DUP3 ADD SWAP2 SWAP1 PUSH1 0x0 MSTORE PUSH1 0x20 PUSH1 0x0 KECCAK256 SWAP1 JUMPDEST DUP2 SLOAD DUP2 MSTORE SWAP1 PUSH1 0x1 ADD SWAP1 PUSH1 0x20 ADD DUP1 DUP4 GT PUSH2 0xDE5 JUMPI DUP3 SWAP1 SUB PUSH1 0x1F AND DUP3 ADD SWAP2 JUMPDEST POP POP POP POP POP DUP2 MSTORE PUSH1 0x20 ADD PUSH1 0x5 DUP3 ADD PUSH1 0x0 SWAP1 SLOAD SWAP1 PUSH2 0x100 EXP SWAP1 DIV PUSH1 0xFF AND ISZERO ISZERO ISZERO ISZERO DUP2 MSTORE PUSH1 0x20 ADD PUSH1 0x5 DUP3 ADD PUSH1 0x1 SWAP1 SLOAD SWAP1 PUSH2 0x100 EXP SWAP1 DIV PUSH1 0xFF AND ISZERO ISZERO ISZERO ISZERO DUP2 MSTORE PUSH1 0x20 ADD PUSH1 0x5 DUP3 ADD PUSH1 0x2 SWAP1 SLOAD SWAP1 PUSH2 0x100 EXP SWAP1 DIV PUSH1 0xFF AND ISZERO ISZERO ISZERO ISZERO DUP2 MSTORE POP POP SWAP1 POP DUP1 PUSH1 0x0 ADD MLOAD DUP2 PUSH1 0x20 ADD MLOAD DUP3 PUSH1 0x40 ADD MLOAD DUP4 PUSH1 0x60 ADD MLOAD DUP5 PUSH1 0x80 ADD MLOAD DUP6 PUSH1 0xA0 ADD MLOAD DUP7 PUSH1 0xE0 ADD MLOAD SWAP8 POP SWAP8 POP SWAP8 POP SWAP8 POP SWAP8 POP SWAP8 POP SWAP8 POP POP SWAP2 SWAP4 SWAP6 SWAP8 SWAP1 SWAP3 SWAP5 SWAP7 POP JUMP JUMPDEST PUSH1 0x4 PUSH1 0x0 SWAP1 SLOAD SWAP1 PUSH2 0x100 EXP SWAP1 DIV PUSH20 0xFFFFFFFFFFFFFFFFFFFFFFFFFFFFFFFFFFFFFFFF AND PUSH20 0xFFFFFFFFFFFFFFFFFFFFFFFFFFFFFFFFFFFFFFFF AND CALLER PUSH20 0xFFFFFFFFFFFFFFFFFFFFFFFFFFFFFFFFFFFFFFFF AND EQ PUSH2 0xF2B JUMPI PUSH1 0x40 MLOAD PUSH32 0x8C379A000000000000000000000000000000000000000000000000000000000 DUP2 MSTORE PUSH1 0x4 ADD PUSH2 0xF22 SWAP1 PUSH2 0x4274 JUMP JUMPDEST PUSH1 0x40 MLOAD DUP1 SWAP2 SUB SWAP1 REVERT JUMPDEST PUSH1 0x0 DUP2 PUSH1 0x40 MLOAD PUSH2 0xF3B SWAP2 SWAP1 PUSH2 0x3FF4 JUMP JUMPDEST SWAP1 DUP2 MSTORE PUSH1 0x20 ADD PUSH1 0x40 MLOAD DUP1 SWAP2 SUB SWAP1 KECCAK256 PUSH1 0x5 ADD PUSH1 0x2 SWAP1 SLOAD SWAP1 PUSH2 0x100 EXP SWAP1 DIV PUSH1 0xFF AND ISZERO PUSH1 0x0 DUP3 PUSH1 0x40 MLOAD PUSH2 0xF6B SWAP2 SWAP1 PUSH2 0x3FF4 JUMP JUMPDEST SWAP1 DUP2 MSTORE PUSH1 0x20 ADD PUSH1 0x40 MLOAD DUP1 SWAP2 SUB SWAP1 KECCAK256 PUSH1 0x5 ADD PUSH1 0x2 PUSH2 0x100 EXP DUP2 SLOAD DUP2 PUSH1 0xFF MUL NOT AND SWAP1 DUP4 ISZERO ISZERO MUL OR SWAP1 SSTORE POP PUSH32 0x9B1A1E5131C18EE5FD8454B3B435B1B36127BD0C05686D9FC6190D638BCB1499 DUP2 PUSH1 0x0 DUP4 PUSH1 0x40 MLOAD PUSH2 0xFC5 SWAP2 SWAP1 PUSH2 0x3FF4 JUMP JUMPDEST SWAP1 DUP2 MSTORE PUSH1 0x20 ADD PUSH1 0x40 MLOAD DUP1 SWAP2 SUB SWAP1 KECCAK256 PUSH1 0x5 ADD PUSH1 0x2 SWAP1 SLOAD SWAP1 PUSH2 0x100 EXP SWAP1 DIV PUSH1 0xFF AND PUSH1 0x40 MLOAD PUSH2 0xFF2 SWAP3 SWAP2 SWAP1 PUSH2 0x4104 JUMP JUMPDEST PUSH1 0x40 MLOAD DUP1 SWAP2 SUB SWAP1 LOG1 POP JUMP JUMPDEST PUSH1 0x60 PUSH1 0x2 DUP1 SLOAD DUP1 PUSH1 0x20 MUL PUSH1 0x20 ADD PUSH1 0x40 MLOAD SWAP1 DUP2 ADD PUSH1 0x40 MSTORE DUP1 SWAP3 SWAP2 SWAP1 DUP2 DUP2 MSTORE PUSH1 0x20 ADD PUSH1 0x0 SWAP1 JUMPDEST DUP3 DUP3 LT ISZERO PUSH2 0x10CD JUMPI DUP4 DUP3 SWAP1 PUSH1 0x0 MSTORE PUSH1 0x20 PUSH1 0x0 KECCAK256 ADD DUP1 SLOAD PUSH2 0x1040 SWAP1 PUSH2 0x44C0 JUMP JUMPDEST DUP1 PUSH1 0x1F ADD PUSH1 0x20 DUP1 SWAP2 DIV MUL PUSH1 0x20 ADD PUSH1 0x40 MLOAD SWAP1 DUP2 ADD PUSH1 0x40 MSTORE DUP1 SWAP3 SWAP2 SWAP1 DUP2 DUP2 MSTORE PUSH1 0x20 ADD DUP3 DUP1 SLOAD PUSH2 0x106C SWAP1 PUSH2 0x44C0 JUMP JUMPDEST DUP1 ISZERO PUSH2 0x10B9 JUMPI DUP1 PUSH1 0x1F LT PUSH2 0x108E JUMPI PUSH2 0x100 DUP1 DUP4 SLOAD DIV MUL DUP4 MSTORE SWAP2 PUSH1 0x20 ADD SWAP2 PUSH2 0x10B9 JUMP JUMPDEST DUP3 ADD SWAP2 SWAP1 PUSH1 0x0 MSTORE PUSH1 0x20 PUSH1 0x0 KECCAK256 SWAP1 JUMPDEST DUP2 SLOAD DUP2 MSTORE SWAP1 PUSH1 0x1 ADD SWAP1 PUSH1 0x20 ADD DUP1 DUP4 GT PUSH2 0x109C JUMPI DUP3 SWAP1 SUB PUSH1 0x1F AND DUP3 ADD SWAP2 JUMPDEST POP POP POP POP POP DUP2 MSTORE PUSH1 0x20 ADD SWAP1 PUSH1 0x1 ADD SWAP1 PUSH2 0x1021 JUMP JUMPDEST POP POP POP POP SWAP1 POP SWAP1 JUMP JUMPDEST PUSH1 0x4 PUSH1 0x0 SWAP1 SLOAD SWAP1 PUSH2 0x100 EXP SWAP1 DIV PUSH20 0xFFFFFFFFFFFFFFFFFFFFFFFFFFFFFFFFFFFFFFFF AND PUSH20 0xFFFFFFFFFFFFFFFFFFFFFFFFFFFFFFFFFFFFFFFF AND CALLER PUSH20 0xFFFFFFFFFFFFFFFFFFFFFFFFFFFFFFFFFFFFFFFF AND EQ PUSH2 0x1166 JUMPI PUSH1 0x40 MLOAD PUSH32 0x8C379A000000000000000000000000000000000000000000000000000000000 DUP2 MSTORE PUSH1 0x4 ADD PUSH2 0x115D SWAP1 PUSH2 0x4274 JUMP JUMPDEST PUSH1 0x40 MLOAD DUP1 SWAP2 SUB SWAP1 REVERT JUMPDEST PUSH1 0x0 PUSH1 0x1 DUP5 PUSH1 0x40 MLOAD PUSH2 0x1178 SWAP2 SWAP1 PUSH2 0x3FF4 JUMP JUMPDEST SWAP1 DUP2 MSTORE PUSH1 0x20 ADD PUSH1 0x40 MLOAD DUP1 SWAP2 SUB SWAP1 KECCAK256 PUSH1 0x0 ADD DUP1 SLOAD PUSH2 0x1194 SWAP1 PUSH2 0x44C0 JUMP JUMPDEST SWAP1 POP GT PUSH2 0x11D6 JUMPI PUSH1 0x40 MLOAD PUSH32 0x8C379A000000000000000000000000000000000000000000000000000000000 DUP2 MSTORE PUSH1 0x4 ADD PUSH2 0x11CD SWAP1 PUSH2 0x4294 JUMP JUMPDEST PUSH1 0x40 MLOAD DUP1 SWAP2 SUB SWAP1 REVERT JUMPDEST PUSH1 0x0 PUSH1 0x40 MLOAD DUP1 PUSH1 0x80 ADD PUSH1 0x40 MSTORE DUP1 PUSH1 0x40 MLOAD DUP1 PUSH1 0x40 ADD PUSH1 0x40 MSTORE DUP1 PUSH1 0xE DUP2 MSTORE PUSH1 0x20 ADD PUSH32 0x41646D696E6973747261746F7273000000000000000000000000000000000000 DUP2 MSTORE POP DUP2 MSTORE PUSH1 0x20 ADD PUSH1 0x40 MLOAD DUP1 PUSH1 0x40 ADD PUSH1 0x40 MSTORE DUP1 PUSH1 0x5 DUP2 MSTORE PUSH1 0x20 ADD PUSH32 0x5573657273000000000000000000000000000000000000000000000000000000 DUP2 MSTORE POP DUP2 MSTORE PUSH1 0x20 ADD PUSH1 0x40 MLOAD DUP1 PUSH1 0x40 ADD PUSH1 0x40 MSTORE DUP1 PUSH1 0xE DUP2 MSTORE PUSH1 0x20 ADD PUSH32 0x47726F7570204D616E6167657273000000000000000000000000000000000000 DUP2 MSTORE POP DUP2 MSTORE PUSH1 0x20 ADD PUSH1 0x40 MLOAD DUP1 PUSH1 0x40 ADD PUSH1 0x40 MSTORE DUP1 PUSH1 0xD DUP2 MSTORE PUSH1 0x20 ADD PUSH32 0x55736572204D616E616765727300000000000000000000000000000000000000 DUP2 MSTORE POP DUP2 MSTORE POP SWAP1 POP PUSH1 0x0 JUMPDEST PUSH1 0x4 DUP2 LT ISZERO PUSH2 0x13BA JUMPI DUP2 DUP2 PUSH1 0x4 DUP2 LT PUSH2 0x1314 JUMPI PUSH32 0x4E487B7100000000000000000000000000000000000000000000000000000000 PUSH1 0x0 MSTORE PUSH1 0x32 PUSH1 0x4 MSTORE PUSH1 0x24 PUSH1 0x0 REVERT JUMPDEST PUSH1 0x20 MUL ADD MLOAD PUSH1 0x40 MLOAD PUSH1 0x20 ADD PUSH2 0x1329 SWAP2 SWAP1 PUSH2 0x3FF4 JUMP JUMPDEST PUSH1 0x40 MLOAD PUSH1 0x20 DUP2 DUP4 SUB SUB DUP2 MSTORE SWAP1 PUSH1 0x40 MSTORE DUP1 MLOAD SWAP1 PUSH1 0x20 ADD KECCAK256 DUP6 PUSH1 0x40 MLOAD PUSH1 0x20 ADD PUSH2 0x1350 SWAP2 SWAP1 PUSH2 0x3FF4 JUMP JUMPDEST PUSH1 0x40 MLOAD PUSH1 0x20 DUP2 DUP4 SUB SUB DUP2 MSTORE SWAP1 PUSH1 0x40 MSTORE DUP1 MLOAD SWAP1 PUSH1 0x20 ADD KECCAK256 EQ ISZERO PUSH2 0x13A7 JUMPI PUSH1 0x40 MLOAD PUSH32 0x8C379A000000000000000000000000000000000000000000000000000000000 DUP2 MSTORE PUSH1 0x4 ADD PUSH2 0x139E SWAP1 PUSH2 0x4254 JUMP JUMPDEST PUSH1 0x40 MLOAD DUP1 SWAP2 SUB SWAP1 REVERT JUMPDEST DUP1 DUP1 PUSH2 0x13B2 SWAP1 PUSH2 0x44F2 JUMP JUMPDEST SWAP2 POP POP PUSH2 0x12D2 JUMP JUMPDEST POP PUSH2 0x13C5 DUP5 DUP4 PUSH2 0x498 JUMP JUMPDEST POP DUP3 PUSH1 0x40 MLOAD PUSH1 0x20 ADD PUSH2 0x13D7 SWAP2 SWAP1 PUSH2 0x3FF4 JUMP JUMPDEST PUSH1 0x40 MLOAD PUSH1 0x20 DUP2 DUP4 SUB SUB DUP2 MSTORE SWAP1 PUSH1 0x40 MSTORE DUP1 MLOAD SWAP1 PUSH1 0x20 ADD KECCAK256 DUP5 PUSH1 0x40 MLOAD PUSH1 0x20 ADD PUSH2 0x13FE SWAP2 SWAP1 PUSH2 0x3FF4 JUMP JUMPDEST PUSH1 0x40 MLOAD PUSH1 0x20 DUP2 DUP4 SUB SUB DUP2 MSTORE SWAP1 PUSH1 0x40 MSTORE DUP1 MLOAD SWAP1 PUSH1 0x20 ADD KECCAK256 EQ PUSH2 0x1680 JUMPI PUSH1 0x1 DUP5 PUSH1 0x40 MLOAD PUSH2 0x1429 SWAP2 SWAP1 PUSH2 0x3FF4 JUMP JUMPDEST SWAP1 DUP2 MSTORE PUSH1 0x20 ADD PUSH1 0x40 MLOAD DUP1 SWAP2 SUB SWAP1 KECCAK256 PUSH1 0x1 DUP5 PUSH1 0x40 MLOAD PUSH2 0x1447 SWAP2 SWAP1 PUSH2 0x3FF4 JUMP JUMPDEST SWAP1 DUP2 MSTORE PUSH1 0x20 ADD PUSH1 0x40 MLOAD DUP1 SWAP2 SUB SWAP1 KECCAK256 PUSH1 0x0 DUP3 ADD DUP2 PUSH1 0x0 ADD SWAP1 DUP1 SLOAD PUSH2 0x1469 SWAP1 PUSH2 0x44C0 JUMP JUMPDEST PUSH2 0x1474 SWAP3 SWAP2 SWAP1 PUSH2 0x34DA JUMP JUMPDEST POP PUSH1 0x1 DUP3 ADD DUP2 PUSH1 0x1 ADD SWAP1 DUP1 SLOAD PUSH2 0x148B SWAP3 SWAP2 SWAP1 PUSH2 0x3567 JUMP JUMPDEST POP PUSH1 0x2 DUP3 ADD DUP2 PUSH1 0x2 ADD SWAP1 DUP1 SLOAD PUSH2 0x14A2 SWAP3 SWAP2 SWAP1 PUSH2 0x3567 JUMP JUMPDEST POP SWAP1 POP POP DUP3 PUSH1 0x1 DUP5 PUSH1 0x40 MLOAD PUSH2 0x14B7 SWAP2 SWAP1 PUSH2 0x3FF4 JUMP JUMPDEST SWAP1 DUP2 MSTORE PUSH1 0x20 ADD PUSH1 0x40 MLOAD DUP1 SWAP2 SUB SWAP1 KECCAK256 PUSH1 0x0 ADD SWAP1 DUP1 MLOAD SWAP1 PUSH1 0x20 ADD SWAP1 PUSH2 0x14DB SWAP3 SWAP2 SWAP1 PUSH2 0x35CF JUMP JUMPDEST POP PUSH1 0x1 DUP5 PUSH1 0x40 MLOAD PUSH2 0x14EC SWAP2 SWAP1 PUSH2 0x3FF4 JUMP JUMPDEST SWAP1 DUP2 MSTORE PUSH1 0x20 ADD PUSH1 0x40 MLOAD DUP1 SWAP2 SUB SWAP1 KECCAK256 PUSH1 0x0 DUP1 DUP3 ADD PUSH1 0x0 PUSH2 0x150B SWAP2 SWAP1 PUSH2 0x3655 JUMP JUMPDEST PUSH1 0x1 DUP3 ADD PUSH1 0x0 PUSH2 0x151B SWAP2 SWAP1 PUSH2 0x3695 JUMP JUMPDEST PUSH1 0x2 DUP3 ADD PUSH1 0x0 PUSH2 0x152B SWAP2 SWAP1 PUSH2 0x3695 JUMP JUMPDEST POP POP PUSH1 0x0 JUMPDEST PUSH1 0x3 DUP1 SLOAD SWAP1 POP DUP2 LT ISZERO PUSH2 0x1645 JUMPI DUP5 PUSH1 0x40 MLOAD PUSH1 0x20 ADD PUSH2 0x154E SWAP2 SWAP1 PUSH2 0x3FF4 JUMP JUMPDEST PUSH1 0x40 MLOAD PUSH1 0x20 DUP2 DUP4 SUB SUB DUP2 MSTORE SWAP1 PUSH1 0x40 MSTORE DUP1 MLOAD SWAP1 PUSH1 0x20 ADD KECCAK256 PUSH1 0x3 DUP3 DUP2 SLOAD DUP2 LT PUSH2 0x159E JUMPI PUSH32 0x4E487B7100000000000000000000000000000000000000000000000000000000 PUSH1 0x0 MSTORE PUSH1 0x32 PUSH1 0x4 MSTORE PUSH1 0x24 PUSH1 0x0 REVERT JUMPDEST SWAP1 PUSH1 0x0 MSTORE PUSH1 0x20 PUSH1 0x0 KECCAK256 ADD PUSH1 0x40 MLOAD PUSH1 0x20 ADD PUSH2 0x15B8 SWAP2 SWAP1 PUSH2 0x400B JUMP JUMPDEST PUSH1 0x40 MLOAD PUSH1 0x20 DUP2 DUP4 SUB SUB DUP2 MSTORE SWAP1 PUSH1 0x40 MSTORE DUP1 MLOAD SWAP1 PUSH1 0x20 ADD KECCAK256 EQ ISZERO PUSH2 0x1632 JUMPI DUP4 PUSH1 0x3 DUP3 DUP2 SLOAD DUP2 LT PUSH2 0x160F JUMPI PUSH32 0x4E487B7100000000000000000000000000000000000000000000000000000000 PUSH1 0x0 MSTORE PUSH1 0x32 PUSH1 0x4 MSTORE PUSH1 0x24 PUSH1 0x0 REVERT JUMPDEST SWAP1 PUSH1 0x0 MSTORE PUSH1 0x20 PUSH1 0x0 KECCAK256 ADD SWAP1 DUP1 MLOAD SWAP1 PUSH1 0x20 ADD SWAP1 PUSH2 0x162C SWAP3 SWAP2 SWAP1 PUSH2 0x35CF JUMP JUMPDEST POP PUSH2 0x1645 JUMP JUMPDEST DUP1 DUP1 PUSH2 0x163D SWAP1 PUSH2 0x44F2 JUMP JUMPDEST SWAP2 POP POP PUSH2 0x1530 JUMP JUMPDEST POP PUSH32 0x364B226B5F086E2E247D242241146270270074B8E63461B564298285DFDB0878 DUP5 DUP5 PUSH1 0x40 MLOAD PUSH2 0x1677 SWAP3 SWAP2 SWAP1 PUSH2 0x4134 JUMP JUMPDEST PUSH1 0x40 MLOAD DUP1 SWAP2 SUB SWAP1 LOG1 JUMPDEST POP POP POP POP JUMP JUMPDEST PUSH1 0x4 PUSH1 0x0 SWAP1 SLOAD SWAP1 PUSH2 0x100 EXP SWAP1 DIV PUSH20 0xFFFFFFFFFFFFFFFFFFFFFFFFFFFFFFFFFFFFFFFF AND PUSH20 0xFFFFFFFFFFFFFFFFFFFFFFFFFFFFFFFFFFFFFFFF AND CALLER PUSH20 0xFFFFFFFFFFFFFFFFFFFFFFFFFFFFFFFFFFFFFFFF AND EQ PUSH2 0x1716 JUMPI PUSH1 0x40 MLOAD PUSH32 0x8C379A000000000000000000000000000000000000000000000000000000000 DUP2 MSTORE PUSH1 0x4 ADD PUSH2 0x170D SWAP1 PUSH2 0x4274 JUMP JUMPDEST PUSH1 0x40 MLOAD DUP1 SWAP2 SUB SWAP1 REVERT JUMPDEST PUSH1 0x0 PUSH1 0x1 DUP3 PUSH1 0x40 MLOAD PUSH2 0x1728 SWAP2 SWAP1 PUSH2 0x3FF4 JUMP JUMPDEST SWAP1 DUP2 MSTORE PUSH1 0x20 ADD PUSH1 0x40 MLOAD DUP1 SWAP2 SUB SWAP1 KECCAK256 PUSH1 0x0 ADD DUP1 SLOAD PUSH2 0x1744 SWAP1 PUSH2 0x44C0 JUMP JUMPDEST SWAP1 POP GT PUSH2 0x1786 JUMPI PUSH1 0x40 MLOAD PUSH32 0x8C379A000000000000000000000000000000000000000000000000000000000 DUP2 MSTORE PUSH1 0x4 ADD PUSH2 0x177D SWAP1 PUSH2 0x4294 JUMP JUMPDEST PUSH1 0x40 MLOAD DUP1 SWAP2 SUB SWAP1 REVERT JUMPDEST PUSH1 0x0 PUSH1 0x40 MLOAD DUP1 PUSH1 0x80 ADD PUSH1 0x40 MSTORE DUP1 PUSH1 0x40 MLOAD DUP1 PUSH1 0x40 ADD PUSH1 0x40 MSTORE DUP1 PUSH1 0xE DUP2 MSTORE PUSH1 0x20 ADD PUSH32 0x41646D696E6973747261746F7273000000000000000000000000000000000000 DUP2 MSTORE POP DUP2 MSTORE PUSH1 0x20 ADD PUSH1 0x40 MLOAD DUP1 PUSH1 0x40 ADD PUSH1 0x40 MSTORE DUP1 PUSH1 0x5 DUP2 MSTORE PUSH1 0x20 ADD PUSH32 0x5573657273000000000000000000000000000000000000000000000000000000 DUP2 MSTORE POP DUP2 MSTORE PUSH1 0x20 ADD PUSH1 0x40 MLOAD DUP1 PUSH1 0x40 ADD PUSH1 0x40 MSTORE DUP1 PUSH1 0xE DUP2 MSTORE PUSH1 0x20 ADD PUSH32 0x47726F7570204D616E6167657273000000000000000000000000000000000000 DUP2 MSTORE POP DUP2 MSTORE PUSH1 0x20 ADD PUSH1 0x40 MLOAD DUP1 PUSH1 0x40 ADD PUSH1 0x40 MSTORE DUP1 PUSH1 0xD DUP2 MSTORE PUSH1 0x20 ADD PUSH32 0x55736572204D616E616765727300000000000000000000000000000000000000 DUP2 MSTORE POP DUP2 MSTORE POP SWAP1 POP PUSH1 0x0 JUMPDEST PUSH1 0x4 DUP2 LT ISZERO PUSH2 0x196A JUMPI DUP2 DUP2 PUSH1 0x4 DUP2 LT PUSH2 0x18C4 JUMPI PUSH32 0x4E487B7100000000000000000000000000000000000000000000000000000000 PUSH1 0x0 MSTORE PUSH1 0x32 PUSH1 0x4 MSTORE PUSH1 0x24 PUSH1 0x0 REVERT JUMPDEST PUSH1 0x20 MUL ADD MLOAD PUSH1 0x40 MLOAD PUSH1 0x20 ADD PUSH2 0x18D9 SWAP2 SWAP1 PUSH2 0x3FF4 JUMP JUMPDEST PUSH1 0x40 MLOAD PUSH1 0x20 DUP2 DUP4 SUB SUB DUP2 MSTORE SWAP1 PUSH1 0x40 MSTORE DUP1 MLOAD SWAP1 PUSH1 0x20 ADD KECCAK256 DUP4 PUSH1 0x40 MLOAD PUSH1 0x20 ADD PUSH2 0x1900 SWAP2 SWAP1 PUSH2 0x3FF4 JUMP JUMPDEST PUSH1 0x40 MLOAD PUSH1 0x20 DUP2 DUP4 SUB SUB DUP2 MSTORE SWAP1 PUSH1 0x40 MSTORE DUP1 MLOAD SWAP1 PUSH1 0x20 ADD KECCAK256 EQ ISZERO PUSH2 0x1957 JUMPI PUSH1 0x40 MLOAD PUSH32 0x8C379A000000000000000000000000000000000000000000000000000000000 DUP2 MSTORE PUSH1 0x4 ADD PUSH2 0x194E SWAP1 PUSH2 0x4254 JUMP JUMPDEST PUSH1 0x40 MLOAD DUP1 SWAP2 SUB SWAP1 REVERT JUMPDEST DUP1 DUP1 PUSH2 0x1962 SWAP1 PUSH2 0x44F2 JUMP JUMPDEST SWAP2 POP POP PUSH2 0x1882 JUMP JUMPDEST POP PUSH1 0x1 DUP3 PUSH1 0x40 MLOAD PUSH2 0x197B SWAP2 SWAP1 PUSH2 0x3FF4 JUMP JUMPDEST SWAP1 DUP2 MSTORE PUSH1 0x20 ADD PUSH1 0x40 MLOAD DUP1 SWAP2 SUB SWAP1 KECCAK256 PUSH1 0x0 DUP1 DUP3 ADD PUSH1 0x0 PUSH2 0x199A SWAP2 SWAP1 PUSH2 0x3655 JUMP JUMPDEST PUSH1 0x1 DUP3 ADD PUSH1 0x0 PUSH2 0x19AA SWAP2 SWAP1 PUSH2 0x3695 JUMP JUMPDEST PUSH1 0x2 DUP3 ADD PUSH1 0x0 PUSH2 0x19BA SWAP2 SWAP1 PUSH2 0x3695 JUMP JUMPDEST POP POP PUSH1 0x0 DUP1 JUMPDEST PUSH1 0x3 DUP1 SLOAD SWAP1 POP DUP2 LT ISZERO PUSH2 0x1B87 JUMPI DUP4 PUSH1 0x40 MLOAD PUSH1 0x20 ADD PUSH2 0x19DE SWAP2 SWAP1 PUSH2 0x3FF4 JUMP JUMPDEST PUSH1 0x40 MLOAD PUSH1 0x20 DUP2 DUP4 SUB SUB DUP2 MSTORE SWAP1 PUSH1 0x40 MSTORE DUP1 MLOAD SWAP1 PUSH1 0x20 ADD KECCAK256 PUSH1 0x3 DUP3 DUP2 SLOAD DUP2 LT PUSH2 0x1A2E JUMPI PUSH32 0x4E487B7100000000000000000000000000000000000000000000000000000000 PUSH1 0x0 MSTORE PUSH1 0x32 PUSH1 0x4 MSTORE PUSH1 0x24 PUSH1 0x0 REVERT JUMPDEST SWAP1 PUSH1 0x0 MSTORE PUSH1 0x20 PUSH1 0x0 KECCAK256 ADD PUSH1 0x40 MLOAD PUSH1 0x20 ADD PUSH2 0x1A48 SWAP2 SWAP1 PUSH2 0x400B JUMP JUMPDEST PUSH1 0x40 MLOAD PUSH1 0x20 DUP2 DUP4 SUB SUB DUP2 MSTORE SWAP1 PUSH1 0x40 MSTORE DUP1 MLOAD SWAP1 PUSH1 0x20 ADD KECCAK256 EQ ISZERO PUSH2 0x1B74 JUMPI PUSH1 0x1 SWAP2 POP PUSH1 0x3 PUSH1 0x1 PUSH1 0x3 DUP1 SLOAD SWAP1 POP PUSH2 0x1A7C SWAP2 SWAP1 PUSH2 0x4434 JUMP JUMPDEST DUP2 SLOAD DUP2 LT PUSH2 0x1AB3 JUMPI PUSH32 0x4E487B7100000000000000000000000000000000000000000000000000000000 PUSH1 0x0 MSTORE PUSH1 0x32 PUSH1 0x4 MSTORE PUSH1 0x24 PUSH1 0x0 REVERT JUMPDEST SWAP1 PUSH1 0x0 MSTORE PUSH1 0x20 PUSH1 0x0 KECCAK256 ADD PUSH1 0x3 DUP3 DUP2 SLOAD DUP2 LT PUSH2 0x1AF7 JUMPI PUSH32 0x4E487B7100000000000000000000000000000000000000000000000000000000 PUSH1 0x0 MSTORE PUSH1 0x32 PUSH1 0x4 MSTORE PUSH1 0x24 PUSH1 0x0 REVERT JUMPDEST SWAP1 PUSH1 0x0 MSTORE PUSH1 0x20 PUSH1 0x0 KECCAK256 ADD SWAP1 DUP1 SLOAD PUSH2 0x1B0D SWAP1 PUSH2 0x44C0 JUMP JUMPDEST PUSH2 0x1B18 SWAP3 SWAP2 SWAP1 PUSH2 0x36B6 JUMP JUMPDEST POP PUSH1 0x3 DUP1 SLOAD DUP1 PUSH2 0x1B51 JUMPI PUSH32 0x4E487B7100000000000000000000000000000000000000000000000000000000 PUSH1 0x0 MSTORE PUSH1 0x31 PUSH1 0x4 MSTORE PUSH1 0x24 PUSH1 0x0 REVERT JUMPDEST PUSH1 0x1 SWAP1 SUB DUP2 DUP2 SWAP1 PUSH1 0x0 MSTORE PUSH1 0x20 PUSH1 0x0 KECCAK256 ADD PUSH1 0x0 PUSH2 0x1B6D SWAP2 SWAP1 PUSH2 0x3655 JUMP JUMPDEST SWAP1 SSTORE PUSH2 0x1B87 JUMP JUMPDEST DUP1 DUP1 PUSH2 0x1B7F SWAP1 PUSH2 0x44F2 JUMP JUMPDEST SWAP2 POP POP PUSH2 0x19C0 JUMP JUMPDEST POP DUP1 PUSH2 0x1BC8 JUMPI PUSH1 0x40 MLOAD PUSH32 0x8C379A000000000000000000000000000000000000000000000000000000000 DUP2 MSTORE PUSH1 0x4 ADD PUSH2 0x1BBF SWAP1 PUSH2 0x4234 JUMP JUMPDEST PUSH1 0x40 MLOAD DUP1 SWAP2 SUB SWAP1 REVERT JUMPDEST PUSH32 0x3D23503BDA008E50D93C77E132B7D2CDE3189A8DE034B6D382A71004B5A1B048 DUP4 PUSH1 0x40 MLOAD PUSH2 0x1BF7 SWAP2 SWAP1 PUSH2 0x405F JUMP JUMPDEST PUSH1 0x40 MLOAD DUP1 SWAP2 SUB SWAP1 LOG1 POP POP POP JUMP JUMPDEST PUSH1 0x4 PUSH1 0x0 SWAP1 SLOAD SWAP1 PUSH2 0x100 EXP SWAP1 DIV PUSH20 0xFFFFFFFFFFFFFFFFFFFFFFFFFFFFFFFFFFFFFFFF AND PUSH20 0xFFFFFFFFFFFFFFFFFFFFFFFFFFFFFFFFFFFFFFFF AND CALLER PUSH20 0xFFFFFFFFFFFFFFFFFFFFFFFFFFFFFFFFFFFFFFFF AND EQ PUSH2 0x1C94 JUMPI PUSH1 0x40 MLOAD PUSH32 0x8C379A000000000000000000000000000000000000000000000000000000000 DUP2 MSTORE PUSH1 0x4 ADD PUSH2 0x1C8B SWAP1 PUSH2 0x4274 JUMP JUMPDEST PUSH1 0x40 MLOAD DUP1 SWAP2 SUB SWAP1 REVERT JUMPDEST PUSH1 0x0 PUSH1 0x1 DUP4 PUSH1 0x40 MLOAD PUSH2 0x1CA6 SWAP2 SWAP1 PUSH2 0x3FF4 JUMP JUMPDEST SWAP1 DUP2 MSTORE PUSH1 0x20 ADD PUSH1 0x40 MLOAD DUP1 SWAP2 SUB SWAP1 KECCAK256 PUSH1 0x0 ADD DUP1 SLOAD PUSH2 0x1CC2 SWAP1 PUSH2 0x44C0 JUMP JUMPDEST SWAP1 POP GT PUSH2 0x1D04 JUMPI PUSH1 0x40 MLOAD PUSH32 0x8C379A000000000000000000000000000000000000000000000000000000000 DUP2 MSTORE PUSH1 0x4 ADD PUSH2 0x1CFB SWAP1 PUSH2 0x4294 JUMP JUMPDEST PUSH1 0x40 MLOAD DUP1 SWAP2 SUB SWAP1 REVERT JUMPDEST PUSH1 0x0 DUP1 DUP3 PUSH1 0x40 MLOAD PUSH2 0x1D15 SWAP2 SWAP1 PUSH2 0x3FF4 JUMP JUMPDEST SWAP1 DUP2 MSTORE PUSH1 0x20 ADD PUSH1 0x40 MLOAD DUP1 SWAP2 SUB SWAP1 KECCAK256 PUSH1 0x0 ADD DUP1 SLOAD PUSH2 0x1D31 SWAP1 PUSH2 0x44C0 JUMP JUMPDEST SWAP1 POP GT PUSH2 0x1D73 JUMPI PUSH1 0x40 MLOAD PUSH32 0x8C379A000000000000000000000000000000000000000000000000000000000 DUP2 MSTORE PUSH1 0x4 ADD PUSH2 0x1D6A SWAP1 PUSH2 0x42B4 JUMP JUMPDEST PUSH1 0x40 MLOAD DUP1 SWAP2 SUB SWAP1 REVERT JUMPDEST PUSH1 0x0 PUSH1 0x1 DUP4 PUSH1 0x40 MLOAD PUSH2 0x1D85 SWAP2 SWAP1 PUSH2 0x3FF4 JUMP JUMPDEST SWAP1 DUP2 MSTORE PUSH1 0x20 ADD PUSH1 0x40 MLOAD DUP1 SWAP2 SUB SWAP1 KECCAK256 PUSH1 0x1 ADD SWAP1 POP PUSH1 0x0 DUP1 JUMPDEST DUP3 DUP1 SLOAD SWAP1 POP DUP2 LT ISZERO PUSH2 0x1F5D JUMPI DUP4 PUSH1 0x40 MLOAD PUSH1 0x20 ADD PUSH2 0x1DB9 SWAP2 SWAP1 PUSH2 0x3FF4 JUMP JUMPDEST PUSH1 0x40 MLOAD PUSH1 0x20 DUP2 DUP4 SUB SUB DUP2 MSTORE SWAP1 PUSH1 0x40 MSTORE DUP1 MLOAD SWAP1 PUSH1 0x20 ADD KECCAK256 DUP4 DUP3 DUP2 SLOAD DUP2 LT PUSH2 0x1E08 JUMPI PUSH32 0x4E487B7100000000000000000000000000000000000000000000000000000000 PUSH1 0x0 MSTORE PUSH1 0x32 PUSH1 0x4 MSTORE PUSH1 0x24 PUSH1 0x0 REVERT JUMPDEST SWAP1 PUSH1 0x0 MSTORE PUSH1 0x20 PUSH1 0x0 KECCAK256 ADD PUSH1 0x40 MLOAD PUSH1 0x20 ADD PUSH2 0x1E22 SWAP2 SWAP1 PUSH2 0x400B JUMP JUMPDEST PUSH1 0x40 MLOAD PUSH1 0x20 DUP2 DUP4 SUB SUB DUP2 MSTORE SWAP1 PUSH1 0x40 MSTORE DUP1 MLOAD SWAP1 PUSH1 0x20 ADD KECCAK256 EQ ISZERO PUSH2 0x1F4A JUMPI PUSH1 0x1 SWAP2 POP DUP3 PUSH1 0x1 DUP5 DUP1 SLOAD SWAP1 POP PUSH2 0x1E54 SWAP2 SWAP1 PUSH2 0x4434 JUMP JUMPDEST DUP2 SLOAD DUP2 LT PUSH2 0x1E8B JUMPI PUSH32 0x4E487B7100000000000000000000000000000000000000000000000000000000 PUSH1 0x0 MSTORE PUSH1 0x32 PUSH1 0x4 MSTORE PUSH1 0x24 PUSH1 0x0 REVERT JUMPDEST SWAP1 PUSH1 0x0 MSTORE PUSH1 0x20 PUSH1 0x0 KECCAK256 ADD DUP4 DUP3 DUP2 SLOAD DUP2 LT PUSH2 0x1ECE JUMPI PUSH32 0x4E487B7100000000000000000000000000000000000000000000000000000000 PUSH1 0x0 MSTORE PUSH1 0x32 PUSH1 0x4 MSTORE PUSH1 0x24 PUSH1 0x0 REVERT JUMPDEST SWAP1 PUSH1 0x0 MSTORE PUSH1 0x20 PUSH1 0x0 KECCAK256 ADD SWAP1 DUP1 SLOAD PUSH2 0x1EE4 SWAP1 PUSH2 0x44C0 JUMP JUMPDEST PUSH2 0x1EEF SWAP3 SWAP2 SWAP1 PUSH2 0x36B6 JUMP JUMPDEST POP DUP3 DUP1 SLOAD DUP1 PUSH2 0x1F27 JUMPI PUSH32 0x4E487B7100000000000000000000000000000000000000000000000000000000 PUSH1 0x0 MSTORE PUSH1 0x31 PUSH1 0x4 MSTORE PUSH1 0x24 PUSH1 0x0 REVERT JUMPDEST PUSH1 0x1 SWAP1 SUB DUP2 DUP2 SWAP1 PUSH1 0x0 MSTORE PUSH1 0x20 PUSH1 0x0 KECCAK256 ADD PUSH1 0x0 PUSH2 0x1F43 SWAP2 SWAP1 PUSH2 0x3655 JUMP JUMPDEST SWAP1 SSTORE PUSH2 0x1F5D JUMP JUMPDEST DUP1 DUP1 PUSH2 0x1F55 SWAP1 PUSH2 0x44F2 JUMP JUMPDEST SWAP2 POP POP PUSH2 0x1D9C JUMP JUMPDEST POP DUP1 PUSH2 0x1F9E JUMPI PUSH1 0x40 MLOAD PUSH32 0x8C379A000000000000000000000000000000000000000000000000000000000 DUP2 MSTORE PUSH1 0x4 ADD PUSH2 0x1F95 SWAP1 PUSH2 0x42D4 JUMP JUMPDEST PUSH1 0x40 MLOAD DUP1 SWAP2 SUB SWAP1 REVERT JUMPDEST PUSH32 0x2987FE5A9775C7DC64CE1B0C8B76D750F2EF0F9E96561A0DA6AD7F31A854515A DUP4 DUP6 PUSH1 0x40 MLOAD PUSH2 0x1FCF SWAP3 SWAP2 SWAP1 PUSH2 0x4134 JUMP JUMPDEST PUSH1 0x40 MLOAD DUP1 SWAP2 SUB SWAP1 LOG1 POP POP POP POP JUMP JUMPDEST PUSH1 0x0 DUP1 PUSH1 0x0 DUP4 PUSH1 0x40 MLOAD PUSH2 0x1FF0 SWAP2 SWAP1 PUSH2 0x3FF4 JUMP JUMPDEST SWAP1 DUP2 MSTORE PUSH1 0x20 ADD PUSH1 0x40 MLOAD DUP1 SWAP2 SUB SWAP1 KECCAK256 PUSH1 0x0 ADD DUP1 SLOAD PUSH2 0x200C SWAP1 PUSH2 0x44C0 JUMP JUMPDEST SWAP1 POP GT SWAP1 POP SWAP2 SWAP1 POP JUMP JUMPDEST PUSH1 0x4 PUSH1 0x0 SWAP1 SLOAD SWAP1 PUSH2 0x100 EXP SWAP1 DIV PUSH20 0xFFFFFFFFFFFFFFFFFFFFFFFFFFFFFFFFFFFFFFFF AND PUSH20 0xFFFFFFFFFFFFFFFFFFFFFFFFFFFFFFFFFFFFFFFF AND CALLER PUSH20 0xFFFFFFFFFFFFFFFFFFFFFFFFFFFFFFFFFFFFFFFF AND EQ PUSH2 0x20A6 JUMPI PUSH1 0x40 MLOAD PUSH32 0x8C379A000000000000000000000000000000000000000000000000000000000 DUP2 MSTORE PUSH1 0x4 ADD PUSH2 0x209D SWAP1 PUSH2 0x4274 JUMP JUMPDEST PUSH1 0x40 MLOAD DUP1 SWAP2 SUB SWAP1 REVERT JUMPDEST PUSH1 0x40 MLOAD DUP1 PUSH1 0x60 ADD PUSH1 0x40 MSTORE DUP1 DUP4 DUP2 MSTORE PUSH1 0x20 ADD PUSH1 0x0 PUSH8 0xFFFFFFFFFFFFFFFF DUP2 GT ISZERO PUSH2 0x20F8 JUMPI PUSH32 0x4E487B7100000000000000000000000000000000000000000000000000000000 PUSH1 0x0 MSTORE PUSH1 0x41 PUSH1 0x4 MSTORE PUSH1 0x24 PUSH1 0x0 REVERT JUMPDEST PUSH1 0x40 MLOAD SWAP1 DUP1 DUP3 MSTORE DUP1 PUSH1 0x20 MUL PUSH1 0x20 ADD DUP3 ADD PUSH1 0x40 MSTORE DUP1 ISZERO PUSH2 0x212B JUMPI DUP2 PUSH1 0x20 ADD JUMPDEST PUSH1 0x60 DUP2 MSTORE PUSH1 0x20 ADD SWAP1 PUSH1 0x1 SWAP1 SUB SWAP1 DUP2 PUSH2 0x2116 JUMPI SWAP1 POP JUMPDEST POP DUP2 MSTORE PUSH1 0x20 ADD DUP3 DUP2 MSTORE POP PUSH1 0x1 DUP4 PUSH1 0x40 MLOAD PUSH2 0x2145 SWAP2 SWAP1 PUSH2 0x3FF4 JUMP JUMPDEST SWAP1 DUP2 MSTORE PUSH1 0x20 ADD PUSH1 0x40 MLOAD DUP1 SWAP2 SUB SWAP1 KECCAK256 PUSH1 0x0 DUP3 ADD MLOAD DUP2 PUSH1 0x0 ADD SWAP1 DUP1 MLOAD SWAP1 PUSH1 0x20 ADD SWAP1 PUSH2 0x216F SWAP3 SWAP2 SWAP1 PUSH2 0x35CF JUMP JUMPDEST POP PUSH1 0x20 DUP3 ADD MLOAD DUP2 PUSH1 0x1 ADD SWAP1 DUP1 MLOAD SWAP1 PUSH1 0x20 ADD SWAP1 PUSH2 0x218C SWAP3 SWAP2 SWAP1 PUSH2 0x347A JUMP JUMPDEST POP PUSH1 0x40 DUP3 ADD MLOAD DUP2 PUSH1 0x2 ADD SWAP1 DUP1 MLOAD SWAP1 PUSH1 0x20 ADD SWAP1 PUSH2 0x21A9 SWAP3 SWAP2 SWAP1 PUSH2 0x347A JUMP JUMPDEST POP SWAP1 POP POP PUSH1 0x3 DUP3 SWAP1 DUP1 PUSH1 0x1 DUP2 SLOAD ADD DUP1 DUP3 SSTORE DUP1 SWAP2 POP POP PUSH1 0x1 SWAP1 SUB SWAP1 PUSH1 0x0 MSTORE PUSH1 0x20 PUSH1 0x0 KECCAK256 ADD PUSH1 0x0 SWAP1 SWAP2 SWAP1 SWAP2 SWAP1 SWAP2 POP SWAP1 DUP1 MLOAD SWAP1 PUSH1 0x20 ADD SWAP1 PUSH2 0x21E8 SWAP3 SWAP2 SWAP1 PUSH2 0x35CF JUMP JUMPDEST POP PUSH32 0x64E45D769B067E3E2DE0A2FBFA982B75AD4472AF64E84E1C421EC5BBE695DE0F DUP3 DUP3 PUSH1 0x40 MLOAD PUSH2 0x221A SWAP3 SWAP2 SWAP1 PUSH2 0x4081 JUMP JUMPDEST PUSH1 0x40 MLOAD DUP1 SWAP2 SUB SWAP1 LOG1 POP POP JUMP JUMPDEST PUSH1 0x60 DUP1 PUSH1 0x60 PUSH1 0x4 PUSH1 0x0 SWAP1 SLOAD SWAP1 PUSH2 0x100 EXP SWAP1 DIV PUSH20 0xFFFFFFFFFFFFFFFFFFFFFFFFFFFFFFFFFFFFFFFF AND PUSH20 0xFFFFFFFFFFFFFFFFFFFFFFFFFFFFFFFFFFFFFFFF AND CALLER PUSH20 0xFFFFFFFFFFFFFFFFFFFFFFFFFFFFFFFFFFFFFFFF AND EQ PUSH2 0x22BB JUMPI PUSH1 0x40 MLOAD PUSH32 0x8C379A000000000000000000000000000000000000000000000000000000000 DUP2 MSTORE PUSH1 0x4 ADD PUSH2 0x22B2 SWAP1 PUSH2 0x4274 JUMP JUMPDEST PUSH1 0x40 MLOAD DUP1 SWAP2 SUB SWAP1 REVERT JUMPDEST PUSH1 0x0 PUSH1 0x1 DUP6 PUSH1 0x40 MLOAD PUSH2 0x22CD SWAP2 SWAP1 PUSH2 0x3FF4 JUMP JUMPDEST SWAP1 DUP2 MSTORE PUSH1 0x20 ADD PUSH1 0x40 MLOAD DUP1 SWAP2 SUB SWAP1 KECCAK256 PUSH1 0x0 ADD DUP1 SLOAD PUSH2 0x22E9 SWAP1 PUSH2 0x44C0 JUMP JUMPDEST SWAP1 POP GT PUSH2 0x232B JUMPI PUSH1 0x40 MLOAD PUSH32 0x8C379A000000000000000000000000000000000000000000000000000000000 DUP2 MSTORE PUSH1 0x4 ADD PUSH2 0x2322 SWAP1 PUSH2 0x4294 JUMP JUMPDEST PUSH1 0x40 MLOAD DUP1 SWAP2 SUB SWAP1 REVERT JUMPDEST PUSH1 0x0 PUSH1 0x1 DUP6 PUSH1 0x40 MLOAD PUSH2 0x233D SWAP2 SWAP1 PUSH2 0x3FF4 JUMP JUMPDEST SWAP1 DUP2 MSTORE PUSH1 0x20 ADD PUSH1 0x40 MLOAD DUP1 SWAP2 SUB SWAP1 KECCAK256 PUSH1 0x40 MLOAD DUP1 PUSH1 0x60 ADD PUSH1 0x40 MSTORE SWAP1 DUP2 PUSH1 0x0 DUP3 ADD DUP1 SLOAD PUSH2 0x2366 SWAP1 PUSH2 0x44C0 JUMP JUMPDEST DUP1 PUSH1 0x1F ADD PUSH1 0x20 DUP1 SWAP2 DIV MUL PUSH1 0x20 ADD PUSH1 0x40 MLOAD SWAP1 DUP2 ADD PUSH1 0x40 MSTORE DUP1 SWAP3 SWAP2 SWAP1 DUP2 DUP2 MSTORE PUSH1 0x20 ADD DUP3 DUP1 SLOAD PUSH2 0x2392 SWAP1 PUSH2 0x44C0 JUMP JUMPDEST DUP1 ISZERO PUSH2 0x23DF JUMPI DUP1 PUSH1 0x1F LT PUSH2 0x23B4 JUMPI PUSH2 0x100 DUP1 DUP4 SLOAD DIV MUL DUP4 MSTORE SWAP2 PUSH1 0x20 ADD SWAP2 PUSH2 0x23DF JUMP JUMPDEST DUP3 ADD SWAP2 SWAP1 PUSH1 0x0 MSTORE PUSH1 0x20 PUSH1 0x0 KECCAK256 SWAP1 JUMPDEST DUP2 SLOAD DUP2 MSTORE SWAP1 PUSH1 0x1 ADD SWAP1 PUSH1 0x20 ADD DUP1 DUP4 GT PUSH2 0x23C2 JUMPI DUP3 SWAP1 SUB PUSH1 0x1F AND DUP3 ADD SWAP2 JUMPDEST POP POP POP POP POP DUP2 MSTORE PUSH1 0x20 ADD PUSH1 0x1 DUP3 ADD DUP1 SLOAD DUP1 PUSH1 0x20 MUL PUSH1 0x20 ADD PUSH1 0x40 MLOAD SWAP1 DUP2 ADD PUSH1 0x40 MSTORE DUP1 SWAP3 SWAP2 SWAP1 DUP2 DUP2 MSTORE PUSH1 0x20 ADD PUSH1 0x0 SWAP1 JUMPDEST DUP3 DUP3 LT ISZERO PUSH2 0x24B9 JUMPI DUP4 DUP3 SWAP1 PUSH1 0x0 MSTORE PUSH1 0x20 PUSH1 0x0 KECCAK256 ADD DUP1 SLOAD PUSH2 0x242C SWAP1 PUSH2 0x44C0 JUMP JUMPDEST DUP1 PUSH1 0x1F ADD PUSH1 0x20 DUP1 SWAP2 DIV MUL PUSH1 0x20 ADD PUSH1 0x40 MLOAD SWAP1 DUP2 ADD PUSH1 0x40 MSTORE DUP1 SWAP3 SWAP2 SWAP1 DUP2 DUP2 MSTORE PUSH1 0x20 ADD DUP3 DUP1 SLOAD PUSH2 0x2458 SWAP1 PUSH2 0x44C0 JUMP JUMPDEST DUP1 ISZERO PUSH2 0x24A5 JUMPI DUP1 PUSH1 0x1F LT PUSH2 0x247A JUMPI PUSH2 0x100 DUP1 DUP4 SLOAD DIV MUL DUP4 MSTORE SWAP2 PUSH1 0x20 ADD SWAP2 PUSH2 0x24A5 JUMP JUMPDEST DUP3 ADD SWAP2 SWAP1 PUSH1 0x0 MSTORE PUSH1 0x20 PUSH1 0x0 KECCAK256 SWAP1 JUMPDEST DUP2 SLOAD DUP2 MSTORE SWAP1 PUSH1 0x1 ADD SWAP1 PUSH1 0x20 ADD DUP1 DUP4 GT PUSH2 0x2488 JUMPI DUP3 SWAP1 SUB PUSH1 0x1F AND DUP3 ADD SWAP2 JUMPDEST POP POP POP POP POP DUP2 MSTORE PUSH1 0x20 ADD SWAP1 PUSH1 0x1 ADD SWAP1 PUSH2 0x240D JUMP JUMPDEST POP POP POP POP DUP2 MSTORE PUSH1 0x20 ADD PUSH1 0x2 DUP3 ADD DUP1 SLOAD DUP1 PUSH1 0x20 MUL PUSH1 0x20 ADD PUSH1 0x40 MLOAD SWAP1 DUP2 ADD PUSH1 0x40 MSTORE DUP1 SWAP3 SWAP2 SWAP1 DUP2 DUP2 MSTORE PUSH1 0x20 ADD PUSH1 0x0 SWAP1 JUMPDEST DUP3 DUP3 LT ISZERO PUSH2 0x2592 JUMPI DUP4 DUP3 SWAP1 PUSH1 0x0 MSTORE PUSH1 0x20 PUSH1 0x0 KECCAK256 ADD DUP1 SLOAD PUSH2 0x2505 SWAP1 PUSH2 0x44C0 JUMP JUMPDEST DUP1 PUSH1 0x1F ADD PUSH1 0x20 DUP1 SWAP2 DIV MUL PUSH1 0x20 ADD PUSH1 0x40 MLOAD SWAP1 DUP2 ADD PUSH1 0x40 MSTORE DUP1 SWAP3 SWAP2 SWAP1 DUP2 DUP2 MSTORE PUSH1 0x20 ADD DUP3 DUP1 SLOAD PUSH2 0x2531 SWAP1 PUSH2 0x44C0 JUMP JUMPDEST DUP1 ISZERO PUSH2 0x257E JUMPI DUP1 PUSH1 0x1F LT PUSH2 0x2553 JUMPI PUSH2 0x100 DUP1 DUP4 SLOAD DIV MUL DUP4 MSTORE SWAP2 PUSH1 0x20 ADD SWAP2 PUSH2 0x257E JUMP JUMPDEST DUP3 ADD SWAP2 SWAP1 PUSH1 0x0 MSTORE PUSH1 0x20 PUSH1 0x0 KECCAK256 SWAP1 JUMPDEST DUP2 SLOAD DUP2 MSTORE SWAP1 PUSH1 0x1 ADD SWAP1 PUSH1 0x20 ADD DUP1 DUP4 GT PUSH2 0x2561 JUMPI DUP3 SWAP1 SUB PUSH1 0x1F AND DUP3 ADD SWAP2 JUMPDEST POP POP POP POP POP DUP2 MSTORE PUSH1 0x20 ADD SWAP1 PUSH1 0x1 ADD SWAP1 PUSH2 0x24E6 JUMP JUMPDEST POP POP POP POP DUP2 MSTORE POP POP SWAP1 POP DUP1 PUSH1 0x0 ADD MLOAD DUP2 PUSH1 0x40 ADD MLOAD DUP3 PUSH1 0x20 ADD MLOAD SWAP4 POP SWAP4 POP SWAP4 POP POP SWAP2 SWAP4 SWAP1 SWAP3 POP JUMP JUMPDEST PUSH1 0x4 PUSH1 0x0 SWAP1 SLOAD SWAP1 PUSH2 0x100 EXP SWAP1 DIV PUSH20 0xFFFFFFFFFFFFFFFFFFFFFFFFFFFFFFFFFFFFFFFF AND PUSH20 0xFFFFFFFFFFFFFFFFFFFFFFFFFFFFFFFFFFFFFFFF AND CALLER PUSH20 0xFFFFFFFFFFFFFFFFFFFFFFFFFFFFFFFFFFFFFFFF AND EQ PUSH2 0x2649 JUMPI PUSH1 0x40 MLOAD PUSH32 0x8C379A000000000000000000000000000000000000000000000000000000000 DUP2 MSTORE PUSH1 0x4 ADD PUSH2 0x2640 SWAP1 PUSH2 0x4274 JUMP JUMPDEST PUSH1 0x40 MLOAD DUP1 SWAP2 SUB SWAP1 REVERT JUMPDEST PUSH1 0x40 MLOAD DUP1 PUSH2 0x100 ADD PUSH1 0x40 MSTORE DUP1 DUP6 DUP2 MSTORE PUSH1 0x20 ADD DUP5 DUP2 MSTORE PUSH1 0x20 ADD DUP4 DUP2 MSTORE PUSH1 0x20 ADD DUP3 DUP2 MSTORE PUSH1 0x20 ADD DUP3 DUP2 MSTORE PUSH1 0x20 ADD PUSH1 0x0 ISZERO ISZERO DUP2 MSTORE PUSH1 0x20 ADD PUSH1 0x0 ISZERO ISZERO DUP2 MSTORE PUSH1 0x20 ADD PUSH1 0x1 ISZERO ISZERO DUP2 MSTORE POP PUSH1 0x0 DUP6 PUSH1 0x40 MLOAD PUSH2 0x269C SWAP2 SWAP1 PUSH2 0x3FF4 JUMP JUMPDEST SWAP1 DUP2 MSTORE PUSH1 0x20 ADD PUSH1 0x40 MLOAD DUP1 SWAP2 SUB SWAP1 KECCAK256 PUSH1 0x0 DUP3 ADD MLOAD DUP2 PUSH1 0x0 ADD SWAP1 DUP1 MLOAD SWAP1 PUSH1 0x20 ADD SWAP1 PUSH2 0x26C6 SWAP3 SWAP2 SWAP1 PUSH2 0x35CF JUMP JUMPDEST POP PUSH1 0x20 DUP3 ADD MLOAD DUP2 PUSH1 0x1 ADD SWAP1 DUP1 MLOAD SWAP1 PUSH1 0x20 ADD SWAP1 PUSH2 0x26E3 SWAP3 SWAP2 SWAP1 PUSH2 0x35CF JUMP JUMPDEST POP PUSH1 0x40 DUP3 ADD MLOAD DUP2 PUSH1 0x2 ADD SWAP1 DUP1 MLOAD SWAP1 PUSH1 0x20 ADD SWAP1 PUSH2 0x2700 SWAP3 SWAP2 SWAP1 PUSH2 0x347A JUMP JUMPDEST POP PUSH1 0x60 DUP3 ADD MLOAD DUP2 PUSH1 0x3 ADD SWAP1 DUP1 MLOAD SWAP1 PUSH1 0x20 ADD SWAP1 PUSH2 0x271D SWAP3 SWAP2 SWAP1 PUSH2 0x35CF JUMP JUMPDEST POP PUSH1 0x80 DUP3 ADD MLOAD DUP2 PUSH1 0x4 ADD SWAP1 DUP1 MLOAD SWAP1 PUSH1 0x20 ADD SWAP1 PUSH2 0x273A SWAP3 SWAP2 SWAP1 PUSH2 0x35CF JUMP JUMPDEST POP PUSH1 0xA0 DUP3 ADD MLOAD DUP2 PUSH1 0x5 ADD PUSH1 0x0 PUSH2 0x100 EXP DUP2 SLOAD DUP2 PUSH1 0xFF MUL NOT AND SWAP1 DUP4 ISZERO ISZERO MUL OR SWAP1 SSTORE POP PUSH1 0xC0 DUP3 ADD MLOAD DUP2 PUSH1 0x5 ADD PUSH1 0x1 PUSH2 0x100 EXP DUP2 SLOAD DUP2 PUSH1 0xFF MUL NOT AND SWAP1 DUP4 ISZERO ISZERO MUL OR SWAP1 SSTORE POP PUSH1 0xE0 DUP3 ADD MLOAD DUP2 PUSH1 0x5 ADD PUSH1 0x2 PUSH2 0x100 EXP DUP2 SLOAD DUP2 PUSH1 0xFF MUL NOT AND SWAP1 DUP4 ISZERO ISZERO MUL OR SWAP1 SSTORE POP SWAP1 POP POP PUSH1 0x2 DUP5 SWAP1 DUP1 PUSH1 0x1 DUP2 SLOAD ADD DUP1 DUP3 SSTORE DUP1 SWAP2 POP POP PUSH1 0x1 SWAP1 SUB SWAP1 PUSH1 0x0 MSTORE PUSH1 0x20 PUSH1 0x0 KECCAK256 ADD PUSH1 0x0 SWAP1 SWAP2 SWAP1 SWAP2 SWAP1 SWAP2 POP SWAP1 DUP1 MLOAD SWAP1 PUSH1 0x20 ADD SWAP1 PUSH2 0x27D9 SWAP3 SWAP2 SWAP1 PUSH2 0x35CF JUMP JUMPDEST POP PUSH2 0x2819 PUSH1 0x40 MLOAD DUP1 PUSH1 0x40 ADD PUSH1 0x40 MSTORE DUP1 PUSH1 0x5 DUP2 MSTORE PUSH1 0x20 ADD PUSH32 0x5573657273000000000000000000000000000000000000000000000000000000 DUP2 MSTORE POP DUP6 PUSH2 0x2AE2 JUMP JUMPDEST PUSH32 0x270FF4B111E5BAA49283562AF127CC5EA74E9D6C9EFD5465578BD9223D5843F0 DUP5 PUSH1 0x40 MLOAD PUSH2 0x2848 SWAP2 SWAP1 PUSH2 0x405F JUMP JUMPDEST PUSH1 0x40 MLOAD DUP1 SWAP2 SUB SWAP1 LOG1 PUSH1 0x1 PUSH1 0x2 DUP1 SLOAD SWAP1 POP EQ ISZERO PUSH2 0x289E JUMPI PUSH2 0x289D PUSH1 0x40 MLOAD DUP1 PUSH1 0x40 ADD PUSH1 0x40 MSTORE DUP1 PUSH1 0xE DUP2 MSTORE PUSH1 0x20 ADD PUSH32 0x41646D696E6973747261746F7273000000000000000000000000000000000000 DUP2 MSTORE POP DUP6 PUSH2 0x2AE2 JUMP JUMPDEST JUMPDEST POP POP POP POP JUMP JUMPDEST PUSH1 0x4 PUSH1 0x0 SWAP1 SLOAD SWAP1 PUSH2 0x100 EXP SWAP1 DIV PUSH20 0xFFFFFFFFFFFFFFFFFFFFFFFFFFFFFFFFFFFFFFFF AND PUSH20 0xFFFFFFFFFFFFFFFFFFFFFFFFFFFFFFFFFFFFFFFF AND CALLER PUSH20 0xFFFFFFFFFFFFFFFFFFFFFFFFFFFFFFFFFFFFFFFF AND EQ PUSH2 0x2934 JUMPI PUSH1 0x40 MLOAD PUSH32 0x8C379A000000000000000000000000000000000000000000000000000000000 DUP2 MSTORE PUSH1 0x4 ADD PUSH2 0x292B SWAP1 PUSH2 0x4274 JUMP JUMPDEST PUSH1 0x40 MLOAD DUP1 SWAP2 SUB SWAP1 REVERT JUMPDEST DUP1 PUSH1 0x0 DUP4 PUSH1 0x40 MLOAD PUSH2 0x2945 SWAP2 SWAP1 PUSH2 0x3FF4 JUMP JUMPDEST SWAP1 DUP2 MSTORE PUSH1 0x20 ADD PUSH1 0x40 MLOAD DUP1 SWAP2 SUB SWAP1 KECCAK256 PUSH1 0x1 ADD SWAP1 DUP1 MLOAD SWAP1 PUSH1 0x20 ADD SWAP1 PUSH2 0x2969 SWAP3 SWAP2 SWAP1 PUSH2 0x35CF JUMP JUMPDEST POP PUSH1 0x0 DUP1 DUP4 PUSH1 0x40 MLOAD PUSH2 0x297B SWAP2 SWAP1 PUSH2 0x3FF4 JUMP JUMPDEST SWAP1 DUP2 MSTORE PUSH1 0x20 ADD PUSH1 0x40 MLOAD DUP1 SWAP2 SUB SWAP1 KECCAK256 PUSH1 0x5 ADD PUSH1 0x1 PUSH2 0x100 EXP DUP2 SLOAD DUP2 PUSH1 0xFF MUL NOT AND SWAP1 DUP4 ISZERO ISZERO MUL OR SWAP1 SSTORE POP PUSH32 0xD0B43B0B96083C98CC0F0370575812DE87EE48FF1BDE30BCD74F3518443BC4F5 DUP3 PUSH1 0x40 MLOAD PUSH2 0x29D2 SWAP2 SWAP1 PUSH2 0x405F JUMP JUMPDEST PUSH1 0x40 MLOAD DUP1 SWAP2 SUB SWAP1 LOG1 POP POP JUMP JUMPDEST PUSH1 0x4 PUSH1 0x0 SWAP1 SLOAD SWAP1 PUSH2 0x100 EXP SWAP1 DIV PUSH20 0xFFFFFFFFFFFFFFFFFFFFFFFFFFFFFFFFFFFFFFFF AND PUSH20 0xFFFFFFFFFFFFFFFFFFFFFFFFFFFFFFFFFFFFFFFF AND CALLER PUSH20 0xFFFFFFFFFFFFFFFFFFFFFFFFFFFFFFFFFFFFFFFF AND EQ PUSH2 0x2A6E JUMPI PUSH1 0x40 MLOAD PUSH32 0x8C379A000000000000000000000000000000000000000000000000000000000 DUP2 MSTORE PUSH1 0x4 ADD PUSH2 0x2A65 SWAP1 PUSH2 0x4274 JUMP JUMPDEST PUSH1 0x40 MLOAD DUP1 SWAP2 SUB SWAP1 REVERT JUMPDEST PUSH1 0x1 PUSH1 0x0 DUP3 PUSH1 0x40 MLOAD PUSH2 0x2A80 SWAP2 SWAP1 PUSH2 0x3FF4 JUMP JUMPDEST SWAP1 DUP2 MSTORE PUSH1 0x20 ADD PUSH1 0x40 MLOAD DUP1 SWAP2 SUB SWAP1 KECCAK256 PUSH1 0x5 ADD PUSH1 0x1 PUSH2 0x100 EXP DUP2 SLOAD DUP2 PUSH1 0xFF MUL NOT AND SWAP1 DUP4 ISZERO ISZERO MUL OR SWAP1 SSTORE POP PUSH32 0x926F593DD22175375135B3FD9428C5D0298A5665DA18756555B6AF9F305AB9A6 DUP2 PUSH1 0x40 MLOAD PUSH2 0x2AD7 SWAP2 SWAP1 PUSH2 0x405F JUMP JUMPDEST PUSH1 0x40 MLOAD DUP1 SWAP2 SUB SWAP1 LOG1 POP JUMP JUMPDEST PUSH1 0x4 PUSH1 0x0 SWAP1 SLOAD SWAP1 PUSH2 0x100 EXP SWAP1 DIV PUSH20 0xFFFFFFFFFFFFFFFFFFFFFFFFFFFFFFFFFFFFFFFF AND PUSH20 0xFFFFFFFFFFFFFFFFFFFFFFFFFFFFFFFFFFFFFFFF AND CALLER PUSH20 0xFFFFFFFFFFFFFFFFFFFFFFFFFFFFFFFFFFFFFFFF AND EQ PUSH2 0x2B72 JUMPI PUSH1 0x40 MLOAD PUSH32 0x8C379A000000000000000000000000000000000000000000000000000000000 DUP2 MSTORE PUSH1 0x4 ADD PUSH2 0x2B69 SWAP1 PUSH2 0x4274 JUMP JUMPDEST PUSH1 0x40 MLOAD DUP1 SWAP2 SUB SWAP1 REVERT JUMPDEST PUSH1 0x0 PUSH1 0x1 DUP4 PUSH1 0x40 MLOAD PUSH2 0x2B84 SWAP2 SWAP1 PUSH2 0x3FF4 JUMP JUMPDEST SWAP1 DUP2 MSTORE PUSH1 0x20 ADD PUSH1 0x40 MLOAD DUP1 SWAP2 SUB SWAP1 KECCAK256 PUSH1 0x0 ADD DUP1 SLOAD PUSH2 0x2BA0 SWAP1 PUSH2 0x44C0 JUMP JUMPDEST SWAP1 POP GT PUSH2 0x2BE2 JUMPI PUSH1 0x40 MLOAD PUSH32 0x8C379A000000000000000000000000000000000000000000000000000000000 DUP2 MSTORE PUSH1 0x4 ADD PUSH2 0x2BD9 SWAP1 PUSH2 0x4294 JUMP JUMPDEST PUSH1 0x40 MLOAD DUP1 SWAP2 SUB SWAP1 REVERT JUMPDEST PUSH1 0x0 DUP1 DUP3 PUSH1 0x40 MLOAD PUSH2 0x2BF3 SWAP2 SWAP1 PUSH2 0x3FF4 JUMP JUMPDEST SWAP1 DUP2 MSTORE PUSH1 0x20 ADD PUSH1 0x40 MLOAD DUP1 SWAP2 SUB SWAP1 KECCAK256 PUSH1 0x0 ADD DUP1 SLOAD PUSH2 0x2C0F SWAP1 PUSH2 0x44C0 JUMP JUMPDEST SWAP1 POP GT PUSH2 0x2C51 JUMPI PUSH1 0x40 MLOAD PUSH32 0x8C379A000000000000000000000000000000000000000000000000000000000 DUP2 MSTORE PUSH1 0x4 ADD PUSH2 0x2C48 SWAP1 PUSH2 0x42B4 JUMP JUMPDEST PUSH1 0x40 MLOAD DUP1 SWAP2 SUB SWAP1 REVERT JUMPDEST PUSH1 0x1 DUP3 PUSH1 0x40 MLOAD PUSH2 0x2C61 SWAP2 SWAP1 PUSH2 0x3FF4 JUMP JUMPDEST SWAP1 DUP2 MSTORE PUSH1 0x20 ADD PUSH1 0x40 MLOAD DUP1 SWAP2 SUB SWAP1 KECCAK256 PUSH1 0x1 ADD DUP2 SWAP1 DUP1 PUSH1 0x1 DUP2 SLOAD ADD DUP1 DUP3 SSTORE DUP1 SWAP2 POP POP PUSH1 0x1 SWAP1 SUB SWAP1 PUSH1 0x0 MSTORE PUSH1 0x20 PUSH1 0x0 KECCAK256 ADD PUSH1 0x0 SWAP1 SWAP2 SWAP1 SWAP2 SWAP1 SWAP2 POP SWAP1 DUP1 MLOAD SWAP1 PUSH1 0x20 ADD SWAP1 PUSH2 0x2CAB SWAP3 SWAP2 SWAP1 PUSH2 0x35CF JUMP JUMPDEST POP PUSH32 0x32475C6C091737C212DC5C54E3565DB8AAE94283F8B388D2C1DFE772B3F356E1 DUP2 DUP4 PUSH1 0x40 MLOAD PUSH2 0x2CDD SWAP3 SWAP2 SWAP1 PUSH2 0x4134 JUMP JUMPDEST PUSH1 0x40 MLOAD DUP1 SWAP2 SUB SWAP1 LOG1 POP POP JUMP JUMPDEST PUSH1 0x60 PUSH1 0x0 DUP1 DUP4 PUSH1 0x40 MLOAD PUSH2 0x2CFC SWAP2 SWAP1 PUSH2 0x3FF4 JUMP JUMPDEST SWAP1 DUP2 MSTORE PUSH1 0x20 ADD PUSH1 0x40 MLOAD DUP1 SWAP2 SUB SWAP1 KECCAK256 PUSH1 0x0 ADD DUP1 SLOAD PUSH2 0x2D18 SWAP1 PUSH2 0x44C0 JUMP JUMPDEST SWAP1 POP GT PUSH2 0x2D5A JUMPI PUSH1 0x40 MLOAD PUSH32 0x8C379A000000000000000000000000000000000000000000000000000000000 DUP2 MSTORE PUSH1 0x4 ADD PUSH2 0x2D51 SWAP1 PUSH2 0x42B4 JUMP JUMPDEST PUSH1 0x40 MLOAD DUP1 SWAP2 SUB SWAP1 REVERT JUMPDEST PUSH1 0x0 PUSH1 0x3 DUP1 SLOAD SWAP1 POP PUSH8 0xFFFFFFFFFFFFFFFF DUP2 GT ISZERO PUSH2 0x2DA1 JUMPI PUSH32 0x4E487B7100000000000000000000000000000000000000000000000000000000 PUSH1 0x0 MSTORE PUSH1 0x41 PUSH1 0x4 MSTORE PUSH1 0x24 PUSH1 0x0 REVERT JUMPDEST PUSH1 0x40 MLOAD SWAP1 DUP1 DUP3 MSTORE DUP1 PUSH1 0x20 MUL PUSH1 0x20 ADD DUP3 ADD PUSH1 0x40 MSTORE DUP1 ISZERO PUSH2 0x2DD4 JUMPI DUP2 PUSH1 0x20 ADD JUMPDEST PUSH1 0x60 DUP2 MSTORE PUSH1 0x20 ADD SWAP1 PUSH1 0x1 SWAP1 SUB SWAP1 DUP2 PUSH2 0x2DBF JUMPI SWAP1 POP JUMPDEST POP SWAP1 POP PUSH1 0x0 DUP1 JUMPDEST PUSH1 0x3 DUP1 SLOAD SWAP1 POP DUP2 LT ISZERO PUSH2 0x3004 JUMPI PUSH1 0x0 PUSH1 0x1 PUSH1 0x3 DUP4 DUP2 SLOAD DUP2 LT PUSH2 0x2E26 JUMPI PUSH32 0x4E487B7100000000000000000000000000000000000000000000000000000000 PUSH1 0x0 MSTORE PUSH1 0x32 PUSH1 0x4 MSTORE PUSH1 0x24 PUSH1 0x0 REVERT JUMPDEST SWAP1 PUSH1 0x0 MSTORE PUSH1 0x20 PUSH1 0x0 KECCAK256 ADD PUSH1 0x40 MLOAD PUSH2 0x2E3D SWAP2 SWAP1 PUSH2 0x400B JUMP JUMPDEST SWAP1 DUP2 MSTORE PUSH1 0x20 ADD PUSH1 0x40 MLOAD DUP1 SWAP2 SUB SWAP1 KECCAK256 SWAP1 POP PUSH1 0x0 JUMPDEST DUP2 PUSH1 0x1 ADD DUP1 SLOAD SWAP1 POP DUP2 LT ISZERO PUSH2 0x2FEF JUMPI DUP7 PUSH1 0x40 MLOAD PUSH1 0x20 ADD PUSH2 0x2E70 SWAP2 SWAP1 PUSH2 0x3FF4 JUMP JUMPDEST PUSH1 0x40 MLOAD PUSH1 0x20 DUP2 DUP4 SUB SUB DUP2 MSTORE SWAP1 PUSH1 0x40 MSTORE DUP1 MLOAD SWAP1 PUSH1 0x20 ADD KECCAK256 DUP3 PUSH1 0x1 ADD DUP3 DUP2 SLOAD DUP2 LT PUSH2 0x2EC2 JUMPI PUSH32 0x4E487B7100000000000000000000000000000000000000000000000000000000 PUSH1 0x0 MSTORE PUSH1 0x32 PUSH1 0x4 MSTORE PUSH1 0x24 PUSH1 0x0 REVERT JUMPDEST SWAP1 PUSH1 0x0 MSTORE PUSH1 0x20 PUSH1 0x0 KECCAK256 ADD PUSH1 0x40 MLOAD PUSH1 0x20 ADD PUSH2 0x2EDC SWAP2 SWAP1 PUSH2 0x400B JUMP JUMPDEST PUSH1 0x40 MLOAD PUSH1 0x20 DUP2 DUP4 SUB SUB DUP2 MSTORE SWAP1 PUSH1 0x40 MSTORE DUP1 MLOAD SWAP1 PUSH1 0x20 ADD KECCAK256 EQ ISZERO PUSH2 0x2FDC JUMPI DUP2 PUSH1 0x0 ADD DUP1 SLOAD PUSH2 0x2F07 SWAP1 PUSH2 0x44C0 JUMP JUMPDEST DUP1 PUSH1 0x1F ADD PUSH1 0x20 DUP1 SWAP2 DIV MUL PUSH1 0x20 ADD PUSH1 0x40 MLOAD SWAP1 DUP2 ADD PUSH1 0x40 MSTORE DUP1 SWAP3 SWAP2 SWAP1 DUP2 DUP2 MSTORE PUSH1 0x20 ADD DUP3 DUP1 SLOAD PUSH2 0x2F33 SWAP1 PUSH2 0x44C0 JUMP JUMPDEST DUP1 ISZERO PUSH2 0x2F80 JUMPI DUP1 PUSH1 0x1F LT PUSH2 0x2F55 JUMPI PUSH2 0x100 DUP1 DUP4 SLOAD DIV MUL DUP4 MSTORE SWAP2 PUSH1 0x20 ADD SWAP2 PUSH2 0x2F80 JUMP JUMPDEST DUP3 ADD SWAP2 SWAP1 PUSH1 0x0 MSTORE PUSH1 0x20 PUSH1 0x0 KECCAK256 SWAP1 JUMPDEST DUP2 SLOAD DUP2 MSTORE SWAP1 PUSH1 0x1 ADD SWAP1 PUSH1 0x20 ADD DUP1 DUP4 GT PUSH2 0x2F63 JUMPI DUP3 SWAP1 SUB PUSH1 0x1F AND DUP3 ADD SWAP2 JUMPDEST POP POP POP POP POP DUP6 DUP6 DUP2 MLOAD DUP2 LT PUSH2 0x2FBE JUMPI PUSH32 0x4E487B7100000000000000000000000000000000000000000000000000000000 PUSH1 0x0 MSTORE PUSH1 0x32 PUSH1 0x4 MSTORE PUSH1 0x24 PUSH1 0x0 REVERT JUMPDEST PUSH1 0x20 MUL PUSH1 0x20 ADD ADD DUP2 SWAP1 MSTORE POP DUP4 DUP1 PUSH2 0x2FD4 SWAP1 PUSH2 0x44F2 JUMP JUMPDEST SWAP5 POP POP PUSH2 0x2FEF JUMP JUMPDEST DUP1 DUP1 PUSH2 0x2FE7 SWAP1 PUSH2 0x44F2 JUMP JUMPDEST SWAP2 POP POP PUSH2 0x2E50 JUMP JUMPDEST POP POP DUP1 DUP1 PUSH2 0x2FFC SWAP1 PUSH2 0x44F2 JUMP JUMPDEST SWAP2 POP POP PUSH2 0x2DDB JUMP JUMPDEST POP PUSH1 0x0 PUSH1 0x32 PUSH8 0xFFFFFFFFFFFFFFFF DUP2 GT ISZERO PUSH2 0x3048 JUMPI PUSH32 0x4E487B7100000000000000000000000000000000000000000000000000000000 PUSH1 0x0 MSTORE PUSH1 0x41 PUSH1 0x4 MSTORE PUSH1 0x24 PUSH1 0x0 REVERT JUMPDEST PUSH1 0x40 MLOAD SWAP1 DUP1 DUP3 MSTORE DUP1 PUSH1 0x20 MUL PUSH1 0x20 ADD DUP3 ADD PUSH1 0x40 MSTORE DUP1 ISZERO PUSH2 0x307B JUMPI DUP2 PUSH1 0x20 ADD JUMPDEST PUSH1 0x60 DUP2 MSTORE PUSH1 0x20 ADD SWAP1 PUSH1 0x1 SWAP1 SUB SWAP1 DUP2 PUSH2 0x3066 JUMPI SWAP1 POP JUMPDEST POP SWAP1 POP PUSH1 0x0 DUP1 JUMPDEST DUP4 DUP2 LT ISZERO PUSH2 0x3350 JUMPI PUSH1 0x0 DUP6 DUP3 DUP2 MLOAD DUP2 LT PUSH2 0x30C5 JUMPI PUSH32 0x4E487B7100000000000000000000000000000000000000000000000000000000 PUSH1 0x0 MSTORE PUSH1 0x32 PUSH1 0x4 MSTORE PUSH1 0x24 PUSH1 0x0 REVERT JUMPDEST PUSH1 0x20 MUL PUSH1 0x20 ADD ADD MLOAD SWAP1 POP PUSH1 0x0 PUSH1 0x1 DUP3 PUSH1 0x40 MLOAD PUSH2 0x30E1 SWAP2 SWAP1 PUSH2 0x3FF4 JUMP JUMPDEST SWAP1 DUP2 MSTORE PUSH1 0x20 ADD PUSH1 0x40 MLOAD DUP1 SWAP2 SUB SWAP1 KECCAK256 PUSH1 0x2 ADD SWAP1 POP PUSH1 0x0 JUMPDEST DUP2 DUP1 SLOAD SWAP1 POP DUP2 LT ISZERO PUSH2 0x333A JUMPI PUSH1 0x0 DUP1 JUMPDEST DUP7 DUP2 LT ISZERO PUSH2 0x3201 JUMPI DUP4 DUP4 DUP2 SLOAD DUP2 LT PUSH2 0x3148 JUMPI PUSH32 0x4E487B7100000000000000000000000000000000000000000000000000000000 PUSH1 0x0 MSTORE PUSH1 0x32 PUSH1 0x4 MSTORE PUSH1 0x24 PUSH1 0x0 REVERT JUMPDEST SWAP1 PUSH1 0x0 MSTORE PUSH1 0x20 PUSH1 0x0 KECCAK256 ADD PUSH1 0x40 MLOAD PUSH1 0x20 ADD PUSH2 0x3162 SWAP2 SWAP1 PUSH2 0x400B JUMP JUMPDEST PUSH1 0x40 MLOAD PUSH1 0x20 DUP2 DUP4 SUB SUB DUP2 MSTORE SWAP1 PUSH1 0x40 MSTORE DUP1 MLOAD SWAP1 PUSH1 0x20 ADD KECCAK256 DUP9 DUP3 DUP2 MLOAD DUP2 LT PUSH2 0x31B1 JUMPI PUSH32 0x4E487B7100000000000000000000000000000000000000000000000000000000 PUSH1 0x0 MSTORE PUSH1 0x32 PUSH1 0x4 MSTORE PUSH1 0x24 PUSH1 0x0 REVERT JUMPDEST PUSH1 0x20 MUL PUSH1 0x20 ADD ADD MLOAD PUSH1 0x40 MLOAD PUSH1 0x20 ADD PUSH2 0x31C9 SWAP2 SWAP1 PUSH2 0x3FF4 JUMP JUMPDEST PUSH1 0x40 MLOAD PUSH1 0x20 DUP2 DUP4 SUB SUB DUP2 MSTORE SWAP1 PUSH1 0x40 MSTORE DUP1 MLOAD SWAP1 PUSH1 0x20 ADD KECCAK256 EQ ISZERO PUSH2 0x31EE JUMPI PUSH1 0x1 SWAP2 POP PUSH2 0x3201 JUMP JUMPDEST DUP1 DUP1 PUSH2 0x31F9 SWAP1 PUSH2 0x44F2 JUMP JUMPDEST SWAP2 POP POP PUSH2 0x3107 JUMP JUMPDEST POP DUP1 PUSH2 0x3326 JUMPI DUP3 DUP3 DUP2 SLOAD DUP2 LT PUSH2 0x3240 JUMPI PUSH32 0x4E487B7100000000000000000000000000000000000000000000000000000000 PUSH1 0x0 MSTORE PUSH1 0x32 PUSH1 0x4 MSTORE PUSH1 0x24 PUSH1 0x0 REVERT JUMPDEST SWAP1 PUSH1 0x0 MSTORE PUSH1 0x20 PUSH1 0x0 KECCAK256 ADD DUP1 SLOAD PUSH2 0x3255 SWAP1 PUSH2 0x44C0 JUMP JUMPDEST DUP1 PUSH1 0x1F ADD PUSH1 0x20 DUP1 SWAP2 DIV MUL PUSH1 0x20 ADD PUSH1 0x40 MLOAD SWAP1 DUP2 ADD PUSH1 0x40 MSTORE DUP1 SWAP3 SWAP2 SWAP1 DUP2 DUP2 MSTORE PUSH1 0x20 ADD DUP3 DUP1 SLOAD PUSH2 0x3281 SWAP1 PUSH2 0x44C0 JUMP JUMPDEST DUP1 ISZERO PUSH2 0x32CE JUMPI DUP1 PUSH1 0x1F LT PUSH2 0x32A3 JUMPI PUSH2 0x100 DUP1 DUP4 SLOAD DIV MUL DUP4 MSTORE SWAP2 PUSH1 0x20 ADD SWAP2 PUSH2 0x32CE JUMP JUMPDEST DUP3 ADD SWAP2 SWAP1 PUSH1 0x0 MSTORE PUSH1 0x20 PUSH1 0x0 KECCAK256 SWAP1 JUMPDEST DUP2 SLOAD DUP2 MSTORE SWAP1 PUSH1 0x1 ADD SWAP1 PUSH1 0x20 ADD DUP1 DUP4 GT PUSH2 0x32B1 JUMPI DUP3 SWAP1 SUB PUSH1 0x1F AND DUP3 ADD SWAP2 JUMPDEST POP POP POP POP POP DUP8 DUP8 DUP2 MLOAD DUP2 LT PUSH2 0x330C JUMPI PUSH32 0x4E487B7100000000000000000000000000000000000000000000000000000000 PUSH1 0x0 MSTORE PUSH1 0x32 PUSH1 0x4 MSTORE PUSH1 0x24 PUSH1 0x0 REVERT JUMPDEST PUSH1 0x20 MUL PUSH1 0x20 ADD ADD DUP2 SWAP1 MSTORE POP DUP6 DUP1 PUSH2 0x3322 SWAP1 PUSH2 0x44F2 JUMP JUMPDEST SWAP7 POP POP JUMPDEST POP DUP1 DUP1 PUSH2 0x3332 SWAP1 PUSH2 0x44F2 JUMP JUMPDEST SWAP2 POP POP PUSH2 0x30F7 JUMP JUMPDEST POP POP POP DUP1 DUP1 PUSH2 0x3348 SWAP1 PUSH2 0x44F2 JUMP JUMPDEST SWAP2 POP POP PUSH2 0x3082 JUMP JUMPDEST POP PUSH1 0x0 DUP2 PUSH8 0xFFFFFFFFFFFFFFFF DUP2 GT ISZERO PUSH2 0x3393 JUMPI PUSH32 0x4E487B7100000000000000000000000000000000000000000000000000000000 PUSH1 0x0 MSTORE PUSH1 0x41 PUSH1 0x4 MSTORE PUSH1 0x24 PUSH1 0x0 REVERT JUMPDEST PUSH1 0x40 MLOAD SWAP1 DUP1 DUP3 MSTORE DUP1 PUSH1 0x20 MUL PUSH1 0x20 ADD DUP3 ADD PUSH1 0x40 MSTORE DUP1 ISZERO PUSH2 0x33C6 JUMPI DUP2 PUSH1 0x20 ADD JUMPDEST PUSH1 0x60 DUP2 MSTORE PUSH1 0x20 ADD SWAP1 PUSH1 0x1 SWAP1 SUB SWAP1 DUP2 PUSH2 0x33B1 JUMPI SWAP1 POP JUMPDEST POP SWAP1 POP PUSH1 0x0 JUMPDEST DUP3 DUP2 LT ISZERO PUSH2 0x346C JUMPI DUP4 DUP2 DUP2 MLOAD DUP2 LT PUSH2 0x340D JUMPI PUSH32 0x4E487B7100000000000000000000000000000000000000000000000000000000 PUSH1 0x0 MSTORE PUSH1 0x32 PUSH1 0x4 MSTORE PUSH1 0x24 PUSH1 0x0 REVERT JUMPDEST PUSH1 0x20 MUL PUSH1 0x20 ADD ADD MLOAD DUP3 DUP3 DUP2 MLOAD DUP2 LT PUSH2 0x344E JUMPI PUSH32 0x4E487B7100000000000000000000000000000000000000000000000000000000 PUSH1 0x0 MSTORE PUSH1 0x32 PUSH1 0x4 MSTORE PUSH1 0x24 PUSH1 0x0 REVERT JUMPDEST PUSH1 0x20 MUL PUSH1 0x20 ADD ADD DUP2 SWAP1 MSTORE POP DUP1 DUP1 PUSH2 0x3464 SWAP1 PUSH2 0x44F2 JUMP JUMPDEST SWAP2 POP POP PUSH2 0x33CC JUMP JUMPDEST POP DUP1 SWAP6 POP POP POP POP POP POP SWAP2 SWAP1 POP JUMP JUMPDEST DUP3 DUP1 SLOAD DUP3 DUP3 SSTORE SWAP1 PUSH1 0x0 MSTORE PUSH1 0x20 PUSH1 0x0 KECCAK256 SWAP1 DUP2 ADD SWAP3 DUP3 ISZERO PUSH2 0x34C9 JUMPI SWAP2 PUSH1 0x20 MUL DUP3 ADD JUMPDEST DUP3 DUP2 GT ISZERO PUSH2 0x34C8 JUMPI DUP3 MLOAD DUP3 SWAP1 DUP1 MLOAD SWAP1 PUSH1 0x20 ADD SWAP1 PUSH2 0x34B8 SWAP3 SWAP2 SWAP1 PUSH2 0x35CF JUMP JUMPDEST POP SWAP2 PUSH1 0x20 ADD SWAP2 SWAP1 PUSH1 0x1 ADD SWAP1 PUSH2 0x349A JUMP JUMPDEST JUMPDEST POP SWAP1 POP PUSH2 0x34D6 SWAP2 SWAP1 PUSH2 0x3743 JUMP JUMPDEST POP SWAP1 JUMP JUMPDEST DUP3 DUP1 SLOAD PUSH2 0x34E6 SWAP1 PUSH2 0x44C0 JUMP JUMPDEST SWAP1 PUSH1 0x0 MSTORE PUSH1 0x20 PUSH1 0x0 KECCAK256 SWAP1 PUSH1 0x1F ADD PUSH1 0x20 SWAP1 DIV DUP2 ADD SWAP3 DUP3 PUSH2 0x3508 JUMPI PUSH1 0x0 DUP6 SSTORE PUSH2 0x3556 JUMP JUMPDEST DUP3 PUSH1 0x1F LT PUSH2 0x3519 JUMPI DUP1 SLOAD DUP6 SSTORE PUSH2 0x3556 JUMP JUMPDEST DUP3 DUP1 ADD PUSH1 0x1 ADD DUP6 SSTORE DUP3 ISZERO PUSH2 0x3556 JUMPI PUSH1 0x0 MSTORE PUSH1 0x20 PUSH1 0x0 KECCAK256 SWAP2 PUSH1 0x1F ADD PUSH1 0x20 SWAP1 DIV DUP3 ADD JUMPDEST DUP3 DUP2 GT ISZERO PUSH2 0x3555 JUMPI DUP3 SLOAD DUP3 SSTORE SWAP2 PUSH1 0x1 ADD SWAP2 SWAP1 PUSH1 0x1 ADD SWAP1 PUSH2 0x353A JUMP JUMPDEST JUMPDEST POP SWAP1 POP PUSH2 0x3563 SWAP2 SWAP1 PUSH2 0x3767 JUMP JUMPDEST POP SWAP1 JUMP JUMPDEST DUP3 DUP1 SLOAD DUP3 DUP3 SSTORE SWAP1 PUSH1 0x0 MSTORE PUSH1 0x20 PUSH1 0x0 KECCAK256 SWAP1 DUP2 ADD SWAP3 DUP3 ISZERO PUSH2 0x35BE JUMPI PUSH1 0x0 MSTORE PUSH1 0x20 PUSH1 0x0 KECCAK256 SWAP2 DUP3 ADD JUMPDEST DUP3 DUP2 GT ISZERO PUSH2 0x35BD JUMPI DUP3 DUP3 SWAP1 DUP1 SLOAD PUSH2 0x35A2 SWAP1 PUSH2 0x44C0 JUMP JUMPDEST PUSH2 0x35AD SWAP3 SWAP2 SWAP1 PUSH2 0x34DA JUMP JUMPDEST POP SWAP2 PUSH1 0x1 ADD SWAP2 SWAP1 PUSH1 0x1 ADD SWAP1 PUSH2 0x358C JUMP JUMPDEST JUMPDEST POP SWAP1 POP PUSH2 0x35CB SWAP2 SWAP1 PUSH2 0x3743 JUMP JUMPDEST POP SWAP1 JUMP JUMPDEST DUP3 DUP1 SLOAD PUSH2 0x35DB SWAP1 PUSH2 0x44C0 JUMP JUMPDEST SWAP1 PUSH1 0x0 MSTORE PUSH1 0x20 PUSH1 0x0 KECCAK256 SWAP1 PUSH1 0x1F ADD PUSH1 0x20 SWAP1 DIV DUP2 ADD SWAP3 DUP3 PUSH2 0x35FD JUMPI PUSH1 0x0 DUP6 SSTORE PUSH2 0x3644 JUMP JUMPDEST DUP3 PUSH1 0x1F LT PUSH2 0x3616 JUMPI DUP1 MLOAD PUSH1 0xFF NOT AND DUP4 DUP1 ADD OR DUP6 SSTORE PUSH2 0x3644 JUMP JUMPDEST DUP3 DUP1 ADD PUSH1 0x1 ADD DUP6 SSTORE DUP3 ISZERO PUSH2 0x3644 JUMPI SWAP2 DUP3 ADD JUMPDEST DUP3 DUP2 GT ISZERO PUSH2 0x3643 JUMPI DUP3 MLOAD DUP3 SSTORE SWAP2 PUSH1 0x20 ADD SWAP2 SWAP1 PUSH1 0x1 ADD SWAP1 PUSH2 0x3628 JUMP JUMPDEST JUMPDEST POP SWAP1 POP PUSH2 0x3651 SWAP2 SWAP1 PUSH2 0x3767 JUMP JUMPDEST POP SWAP1 JUMP JUMPDEST POP DUP1 SLOAD PUSH2 0x3661 SWAP1 PUSH2 0x44C0 JUMP JUMPDEST PUSH1 0x0 DUP3 SSTORE DUP1 PUSH1 0x1F LT PUSH2 0x3673 JUMPI POP PUSH2 0x3692 JUMP JUMPDEST PUSH1 0x1F ADD PUSH1 0x20 SWAP1 DIV SWAP1 PUSH1 0x0 MSTORE PUSH1 0x20 PUSH1 0x0 KECCAK256 SWAP1 DUP2 ADD SWAP1 PUSH2 0x3691 SWAP2 SWAP1 PUSH2 0x3767 JUMP JUMPDEST JUMPDEST POP JUMP JUMPDEST POP DUP1 SLOAD PUSH1 0x0 DUP3 SSTORE SWAP1 PUSH1 0x0 MSTORE PUSH1 0x20 PUSH1 0x0 KECCAK256 SWAP1 DUP2 ADD SWAP1 PUSH2 0x36B3 SWAP2 SWAP1 PUSH2 0x3743 JUMP JUMPDEST POP JUMP JUMPDEST DUP3 DUP1 SLOAD PUSH2 0x36C2 SWAP1 PUSH2 0x44C0 JUMP JUMPDEST SWAP1 PUSH1 0x0 MSTORE PUSH1 0x20 PUSH1 0x0 KECCAK256 SWAP1 PUSH1 0x1F ADD PUSH1 0x20 SWAP1 DIV DUP2 ADD SWAP3 DUP3 PUSH2 0x36E4 JUMPI PUSH1 0x0 DUP6 SSTORE PUSH2 0x3732 JUMP JUMPDEST DUP3 PUSH1 0x1F LT PUSH2 0x36F5 JUMPI DUP1 SLOAD DUP6 SSTORE PUSH2 0x3732 JUMP JUMPDEST DUP3 DUP1 ADD PUSH1 0x1 ADD DUP6 SSTORE DUP3 ISZERO PUSH2 0x3732 JUMPI PUSH1 0x0 MSTORE PUSH1 0x20 PUSH1 0x0 KECCAK256 SWAP2 PUSH1 0x1F ADD PUSH1 0x20 SWAP1 DIV DUP3 ADD JUMPDEST DUP3 DUP2 GT ISZERO PUSH2 0x3731 JUMPI DUP3 SLOAD DUP3 SSTORE SWAP2 PUSH1 0x1 ADD SWAP2 SWAP1 PUSH1 0x1 ADD SWAP1 PUSH2 0x3716 JUMP JUMPDEST JUMPDEST POP SWAP1 POP PUSH2 0x373F SWAP2 SWAP1 PUSH2 0x3767 JUMP JUMPDEST POP SWAP1 JUMP JUMPDEST JUMPDEST DUP1 DUP3 GT ISZERO PUSH2 0x3763 JUMPI PUSH1 0x0 DUP2 DUP2 PUSH2 0x375A SWAP2 SWAP1 PUSH2 0x3655 JUMP JUMPDEST POP PUSH1 0x1 ADD PUSH2 0x3744 JUMP JUMPDEST POP SWAP1 JUMP JUMPDEST JUMPDEST DUP1 DUP3 GT ISZERO PUSH2 0x3780 JUMPI PUSH1 0x0 DUP2 PUSH1 0x0 SWAP1 SSTORE POP PUSH1 0x1 ADD PUSH2 0x3768 JUMP JUMPDEST POP SWAP1 JUMP JUMPDEST PUSH1 0x0 PUSH2 0x3797 PUSH2 0x3792 DUP5 PUSH2 0x4325 JUMP JUMPDEST PUSH2 0x42F4 JUMP JUMPDEST SWAP1 POP DUP1 DUP4 DUP3 MSTORE PUSH1 0x20 DUP3 ADD SWAP1 POP DUP3 PUSH1 0x0 JUMPDEST DUP6 DUP2 LT ISZERO PUSH2 0x37D7 JUMPI DUP2 CALLDATALOAD DUP6 ADD PUSH2 0x37BD DUP9 DUP3 PUSH2 0x3849 JUMP JUMPDEST DUP5 MSTORE PUSH1 0x20 DUP5 ADD SWAP4 POP PUSH1 0x20 DUP4 ADD SWAP3 POP POP PUSH1 0x1 DUP2 ADD SWAP1 POP PUSH2 0x37A7 JUMP JUMPDEST POP POP POP SWAP4 SWAP3 POP POP POP JUMP JUMPDEST PUSH1 0x0 PUSH2 0x37F4 PUSH2 0x37EF DUP5 PUSH2 0x4351 JUMP JUMPDEST PUSH2 0x42F4 JUMP JUMPDEST SWAP1 POP DUP3 DUP2 MSTORE PUSH1 0x20 DUP2 ADD DUP5 DUP5 DUP5 ADD GT ISZERO PUSH2 0x380C JUMPI PUSH1 0x0 DUP1 REVERT JUMPDEST PUSH2 0x3817 DUP5 DUP3 DUP6 PUSH2 0x447E JUMP JUMPDEST POP SWAP4 SWAP3 POP POP POP JUMP JUMPDEST PUSH1 0x0 DUP3 PUSH1 0x1F DUP4 ADD SLT PUSH2 0x3830 JUMPI PUSH1 0x0 DUP1 REVERT JUMPDEST DUP2 CALLDATALOAD PUSH2 0x3840 DUP5 DUP3 PUSH1 0x20 DUP7 ADD PUSH2 0x3784 JUMP JUMPDEST SWAP2 POP POP SWAP3 SWAP2 POP POP JUMP JUMPDEST PUSH1 0x0 DUP3 PUSH1 0x1F DUP4 ADD SLT PUSH2 0x385A JUMPI PUSH1 0x0 DUP1 REVERT JUMPDEST DUP2 CALLDATALOAD PUSH2 0x386A DUP5 DUP3 PUSH1 0x20 DUP7 ADD PUSH2 0x37E1 JUMP JUMPDEST SWAP2 POP POP SWAP3 SWAP2 POP POP JUMP JUMPDEST PUSH1 0x0 PUSH1 0x20 DUP3 DUP5 SUB SLT ISZERO PUSH2 0x3885 JUMPI PUSH1 0x0 DUP1 REVERT JUMPDEST PUSH1 0x0 DUP3 ADD CALLDATALOAD PUSH8 0xFFFFFFFFFFFFFFFF DUP2 GT ISZERO PUSH2 0x389F JUMPI PUSH1 0x0 DUP1 REVERT JUMPDEST PUSH2 0x38AB DUP5 DUP3 DUP6 ADD PUSH2 0x3849 JUMP JUMPDEST SWAP2 POP POP SWAP3 SWAP2 POP POP JUMP JUMPDEST PUSH1 0x0 DUP1 PUSH1 0x40 DUP4 DUP6 SUB SLT ISZERO PUSH2 0x38C7 JUMPI PUSH1 0x0 DUP1 REVERT JUMPDEST PUSH1 0x0 DUP4 ADD CALLDATALOAD PUSH8 0xFFFFFFFFFFFFFFFF DUP2 GT ISZERO PUSH2 0x38E1 JUMPI PUSH1 0x0 DUP1 REVERT JUMPDEST PUSH2 0x38ED DUP6 DUP3 DUP7 ADD PUSH2 0x3849 JUMP JUMPDEST SWAP3 POP POP PUSH1 0x20 DUP4 ADD CALLDATALOAD PUSH8 0xFFFFFFFFFFFFFFFF DUP2 GT ISZERO PUSH2 0x390A JUMPI PUSH1 0x0 DUP1 REVERT JUMPDEST PUSH2 0x3916 DUP6 DUP3 DUP7 ADD PUSH2 0x381F JUMP JUMPDEST SWAP2 POP POP SWAP3 POP SWAP3 SWAP1 POP JUMP JUMPDEST PUSH1 0x0 DUP1 PUSH1 0x40 DUP4 DUP6 SUB SLT ISZERO PUSH2 0x3933 JUMPI PUSH1 0x0 DUP1 REVERT JUMPDEST PUSH1 0x0 DUP4 ADD CALLDATALOAD PUSH8 0xFFFFFFFFFFFFFFFF DUP2 GT ISZERO PUSH2 0x394D JUMPI PUSH1 0x0 DUP1 REVERT JUMPDEST PUSH2 0x3959 DUP6 DUP3 DUP7 ADD PUSH2 0x3849 JUMP JUMPDEST SWAP3 POP POP PUSH1 0x20 DUP4 ADD CALLDATALOAD PUSH8 0xFFFFFFFFFFFFFFFF DUP2 GT ISZERO PUSH2 0x3976 JUMPI PUSH1 0x0 DUP1 REVERT JUMPDEST PUSH2 0x3982 DUP6 DUP3 DUP7 ADD PUSH2 0x3849 JUMP JUMPDEST SWAP2 POP POP SWAP3 POP SWAP3 SWAP1 POP JUMP JUMPDEST PUSH1 0x0 DUP1 PUSH1 0x0 PUSH1 0x60 DUP5 DUP7 SUB SLT ISZERO PUSH2 0x39A1 JUMPI PUSH1 0x0 DUP1 REVERT JUMPDEST PUSH1 0x0 DUP5 ADD CALLDATALOAD PUSH8 0xFFFFFFFFFFFFFFFF DUP2 GT ISZERO PUSH2 0x39BB JUMPI PUSH1 0x0 DUP1 REVERT JUMPDEST PUSH2 0x39C7 DUP7 DUP3 DUP8 ADD PUSH2 0x3849 JUMP JUMPDEST SWAP4 POP POP PUSH1 0x20 DUP5 ADD CALLDATALOAD PUSH8 0xFFFFFFFFFFFFFFFF DUP2 GT ISZERO PUSH2 0x39E4 JUMPI PUSH1 0x0 DUP1 REVERT JUMPDEST PUSH2 0x39F0 DUP7 DUP3 DUP8 ADD PUSH2 0x3849 JUMP JUMPDEST SWAP3 POP POP PUSH1 0x40 DUP5 ADD CALLDATALOAD PUSH8 0xFFFFFFFFFFFFFFFF DUP2 GT ISZERO PUSH2 0x3A0D JUMPI PUSH1 0x0 DUP1 REVERT JUMPDEST PUSH2 0x3A19 DUP7 DUP3 DUP8 ADD PUSH2 0x381F JUMP JUMPDEST SWAP2 POP POP SWAP3 POP SWAP3 POP SWAP3 JUMP JUMPDEST PUSH1 0x0 DUP1 PUSH1 0x0 DUP1 PUSH1 0x80 DUP6 DUP8 SUB SLT ISZERO PUSH2 0x3A39 JUMPI PUSH1 0x0 DUP1 REVERT JUMPDEST PUSH1 0x0 DUP6 ADD CALLDATALOAD PUSH8 0xFFFFFFFFFFFFFFFF DUP2 GT ISZERO PUSH2 0x3A53 JUMPI PUSH1 0x0 DUP1 REVERT JUMPDEST PUSH2 0x3A5F DUP8 DUP3 DUP9 ADD PUSH2 0x3849 JUMP JUMPDEST SWAP5 POP POP PUSH1 0x20 DUP6 ADD CALLDATALOAD PUSH8 0xFFFFFFFFFFFFFFFF DUP2 GT ISZERO PUSH2 0x3A7C JUMPI PUSH1 0x0 DUP1 REVERT JUMPDEST PUSH2 0x3A88 DUP8 DUP3 DUP9 ADD PUSH2 0x3849 JUMP JUMPDEST SWAP4 POP POP PUSH1 0x40 DUP6 ADD CALLDATALOAD PUSH8 0xFFFFFFFFFFFFFFFF DUP2 GT ISZERO PUSH2 0x3AA5 JUMPI PUSH1 0x0 DUP1 REVERT JUMPDEST PUSH2 0x3AB1 DUP8 DUP3 DUP9 ADD PUSH2 0x381F JUMP JUMPDEST SWAP3 POP POP PUSH1 0x60 DUP6 ADD CALLDATALOAD PUSH8 0xFFFFFFFFFFFFFFFF DUP2 GT ISZERO PUSH2 0x3ACE JUMPI PUSH1 0x0 DUP1 REVERT JUMPDEST PUSH2 0x3ADA DUP8 DUP3 DUP9 ADD PUSH2 0x3849 JUMP JUMPDEST SWAP2 POP POP SWAP3 SWAP6 SWAP2 SWAP5 POP SWAP3 POP JUMP JUMPDEST PUSH1 0x0 PUSH2 0x3AF2 DUP4 DUP4 PUSH2 0x3C06 JUMP JUMPDEST SWAP1 POP SWAP3 SWAP2 POP POP JUMP JUMPDEST PUSH1 0x0 PUSH2 0x3B06 DUP4 DUP4 PUSH2 0x3CA9 JUMP JUMPDEST SWAP1 POP SWAP3 SWAP2 POP POP JUMP JUMPDEST PUSH1 0x0 PUSH2 0x3B19 DUP3 PUSH2 0x43BB JUMP JUMPDEST PUSH2 0x3B23 DUP2 DUP6 PUSH2 0x43F6 JUMP JUMPDEST SWAP4 POP DUP4 PUSH1 0x20 DUP3 MUL DUP6 ADD PUSH2 0x3B35 DUP6 PUSH2 0x4381 JUMP JUMPDEST DUP1 PUSH1 0x0 JUMPDEST DUP6 DUP2 LT ISZERO PUSH2 0x3B71 JUMPI DUP5 DUP5 SUB DUP10 MSTORE DUP2 MLOAD PUSH2 0x3B52 DUP6 DUP3 PUSH2 0x3AE6 JUMP JUMPDEST SWAP5 POP PUSH2 0x3B5D DUP4 PUSH2 0x43DC JUMP JUMPDEST SWAP3 POP PUSH1 0x20 DUP11 ADD SWAP10 POP POP PUSH1 0x1 DUP2 ADD SWAP1 POP PUSH2 0x3B39 JUMP JUMPDEST POP DUP3 SWAP8 POP DUP8 SWAP6 POP POP POP POP POP POP SWAP3 SWAP2 POP POP JUMP JUMPDEST PUSH1 0x0 PUSH2 0x3B8E DUP3 PUSH2 0x43C6 JUMP JUMPDEST PUSH2 0x3B98 DUP2 DUP6 PUSH2 0x43F6 JUMP JUMPDEST SWAP4 POP DUP4 PUSH1 0x20 DUP3 MUL DUP6 ADD PUSH2 0x3BAA DUP6 PUSH2 0x4391 JUMP JUMPDEST DUP1 PUSH1 0x0 JUMPDEST DUP6 DUP2 LT ISZERO PUSH2 0x3BE5 JUMPI DUP5 DUP5 SUB DUP10 MSTORE DUP2 PUSH2 0x3BC6 DUP6 DUP3 PUSH2 0x3AFA JUMP JUMPDEST SWAP5 POP PUSH2 0x3BD1 DUP4 PUSH2 0x43E9 JUMP JUMPDEST SWAP3 POP PUSH1 0x20 DUP11 ADD SWAP10 POP POP PUSH1 0x1 DUP2 ADD SWAP1 POP PUSH2 0x3BAE JUMP JUMPDEST POP DUP3 SWAP8 POP DUP8 SWAP6 POP POP POP POP POP POP SWAP3 SWAP2 POP POP JUMP JUMPDEST PUSH2 0x3C00 DUP2 PUSH2 0x4468 JUMP JUMPDEST DUP3 MSTORE POP POP JUMP JUMPDEST PUSH1 0x0 PUSH2 0x3C11 DUP3 PUSH2 0x43D1 JUMP JUMPDEST PUSH2 0x3C1B DUP2 DUP6 PUSH2 0x4407 JUMP JUMPDEST SWAP4 POP PUSH2 0x3C2B DUP2 DUP6 PUSH1 0x20 DUP7 ADD PUSH2 0x448D JUMP JUMPDEST PUSH2 0x3C34 DUP2 PUSH2 0x45C8 JUMP JUMPDEST DUP5 ADD SWAP2 POP POP SWAP3 SWAP2 POP POP JUMP JUMPDEST PUSH1 0x0 PUSH2 0x3C4A DUP3 PUSH2 0x43D1 JUMP JUMPDEST PUSH2 0x3C54 DUP2 DUP6 PUSH2 0x4418 JUMP JUMPDEST SWAP4 POP PUSH2 0x3C64 DUP2 DUP6 PUSH1 0x20 DUP7 ADD PUSH2 0x448D JUMP JUMPDEST PUSH2 0x3C6D DUP2 PUSH2 0x45C8 JUMP JUMPDEST DUP5 ADD SWAP2 POP POP SWAP3 SWAP2 POP POP JUMP JUMPDEST PUSH1 0x0 PUSH2 0x3C83 DUP3 PUSH2 0x43D1 JUMP JUMPDEST PUSH2 0x3C8D DUP2 DUP6 PUSH2 0x4429 JUMP JUMPDEST SWAP4 POP PUSH2 0x3C9D DUP2 DUP6 PUSH1 0x20 DUP7 ADD PUSH2 0x448D JUMP JUMPDEST DUP1 DUP5 ADD SWAP2 POP POP SWAP3 SWAP2 POP POP JUMP JUMPDEST PUSH1 0x0 DUP2 SLOAD PUSH2 0x3CB6 DUP2 PUSH2 0x44C0 JUMP JUMPDEST PUSH2 0x3CC0 DUP2 DUP7 PUSH2 0x4407 JUMP JUMPDEST SWAP5 POP PUSH1 0x1 DUP3 AND PUSH1 0x0 DUP2 EQ PUSH2 0x3CDB JUMPI PUSH1 0x1 DUP2 EQ PUSH2 0x3CED JUMPI PUSH2 0x3D20 JUMP JUMPDEST PUSH1 0xFF NOT DUP4 AND DUP7 MSTORE PUSH1 0x20 DUP7 ADD SWAP4 POP PUSH2 0x3D20 JUMP JUMPDEST PUSH2 0x3CF6 DUP6 PUSH2 0x43A6 JUMP JUMPDEST PUSH1 0x0 JUMPDEST DUP4 DUP2 LT ISZERO PUSH2 0x3D18 JUMPI DUP2 SLOAD DUP2 DUP10 ADD MSTORE PUSH1 0x1 DUP3 ADD SWAP2 POP PUSH1 0x20 DUP2 ADD SWAP1 POP PUSH2 0x3CF9 JUMP JUMPDEST DUP1 DUP9 ADD SWAP6 POP POP POP JUMPDEST POP POP POP SWAP3 SWAP2 POP POP JUMP JUMPDEST PUSH1 0x0 DUP2 SLOAD PUSH2 0x3D36 DUP2 PUSH2 0x44C0 JUMP JUMPDEST PUSH2 0x3D40 DUP2 DUP7 PUSH2 0x4418 JUMP JUMPDEST SWAP5 POP PUSH1 0x1 DUP3 AND PUSH1 0x0 DUP2 EQ PUSH2 0x3D5B JUMPI PUSH1 0x1 DUP2 EQ PUSH2 0x3D6D JUMPI PUSH2 0x3DA0 JUMP JUMPDEST PUSH1 0xFF NOT DUP4 AND DUP7 MSTORE PUSH1 0x20 DUP7 ADD SWAP4 POP PUSH2 0x3DA0 JUMP JUMPDEST PUSH2 0x3D76 DUP6 PUSH2 0x43A6 JUMP JUMPDEST PUSH1 0x0 JUMPDEST DUP4 DUP2 LT ISZERO PUSH2 0x3D98 JUMPI DUP2 SLOAD DUP2 DUP10 ADD MSTORE PUSH1 0x1 DUP3 ADD SWAP2 POP PUSH1 0x20 DUP2 ADD SWAP1 POP PUSH2 0x3D79 JUMP JUMPDEST DUP1 DUP9 ADD SWAP6 POP POP POP JUMPDEST POP POP POP SWAP3 SWAP2 POP POP JUMP JUMPDEST PUSH1 0x0 DUP2 SLOAD PUSH2 0x3DB6 DUP2 PUSH2 0x44C0 JUMP JUMPDEST PUSH2 0x3DC0 DUP2 DUP7 PUSH2 0x4429 JUMP JUMPDEST SWAP5 POP PUSH1 0x1 DUP3 AND PUSH1 0x0 DUP2 EQ PUSH2 0x3DDB JUMPI PUSH1 0x1 DUP2 EQ PUSH2 0x3DEC JUMPI PUSH2 0x3E1F JUMP JUMPDEST PUSH1 0xFF NOT DUP4 AND DUP7 MSTORE DUP2 DUP7 ADD SWAP4 POP PUSH2 0x3E1F JUMP JUMPDEST PUSH2 0x3DF5 DUP6 PUSH2 0x43A6 JUMP JUMPDEST PUSH1 0x0 JUMPDEST DUP4 DUP2 LT ISZERO PUSH2 0x3E17 JUMPI DUP2 SLOAD DUP2 DUP10 ADD MSTORE PUSH1 0x1 DUP3 ADD SWAP2 POP PUSH1 0x20 DUP2 ADD SWAP1 POP PUSH2 0x3DF8 JUMP JUMPDEST DUP4 DUP9 ADD SWAP6 POP POP POP JUMPDEST POP POP POP SWAP3 SWAP2 POP POP JUMP JUMPDEST PUSH1 0x0 PUSH2 0x3E35 PUSH1 0x20 DUP4 PUSH2 0x4418 JUMP JUMPDEST SWAP2 POP PUSH32 0x47726F7570206E6F7420666F756E6420696E20616C6C47726F75704E616D6573 PUSH1 0x0 DUP4 ADD MSTORE PUSH1 0x20 DUP3 ADD SWAP1 POP SWAP2 SWAP1 POP JUMP JUMPDEST PUSH1 0x0 PUSH2 0x3E75 PUSH1 0x2F DUP4 PUSH2 0x4418 JUMP JUMPDEST SWAP2 POP PUSH32 0x4D6F64696679696E6720636F72652067726F7570207065726D697373696F6E73 PUSH1 0x0 DUP4 ADD MSTORE PUSH32 0x206973206E6F7420616C6C6F7765640000000000000000000000000000000000 PUSH1 0x20 DUP4 ADD MSTORE PUSH1 0x40 DUP3 ADD SWAP1 POP SWAP2 SWAP1 POP JUMP JUMPDEST PUSH1 0x0 PUSH2 0x3EDB PUSH1 0x2F DUP4 PUSH2 0x4418 JUMP JUMPDEST SWAP2 POP PUSH32 0x4F6E6C792074686520636F6E7472616374206F776E65722063616E2070657266 PUSH1 0x0 DUP4 ADD MSTORE PUSH32 0x6F726D207468697320616374696F6E0000000000000000000000000000000000 PUSH1 0x20 DUP4 ADD MSTORE PUSH1 0x40 DUP3 ADD SWAP1 POP SWAP2 SWAP1 POP JUMP JUMPDEST PUSH1 0x0 PUSH2 0x3F41 PUSH1 0x14 DUP4 PUSH2 0x4418 JUMP JUMPDEST SWAP2 POP PUSH32 0x47726F757020646F6573206E6F74206578697374000000000000000000000000 PUSH1 0x0 DUP4 ADD MSTORE PUSH1 0x20 DUP3 ADD SWAP1 POP SWAP2 SWAP1 POP JUMP JUMPDEST PUSH1 0x0 PUSH2 0x3F81 PUSH1 0x13 DUP4 PUSH2 0x4418 JUMP JUMPDEST SWAP2 POP PUSH32 0x5573657220646F6573206E6F7420657869737400000000000000000000000000 PUSH1 0x0 DUP4 ADD MSTORE PUSH1 0x20 DUP3 ADD SWAP1 POP SWAP2 SWAP1 POP JUMP JUMPDEST PUSH1 0x0 PUSH2 0x3FC1 PUSH1 0x19 DUP4 PUSH2 0x4418 JUMP JUMPDEST SWAP2 POP PUSH32 0x55736572206973206E6F7420696E20746869732067726F757000000000000000 PUSH1 0x0 DUP4 ADD MSTORE PUSH1 0x20 DUP3 ADD SWAP1 POP SWAP2 SWAP1 POP JUMP JUMPDEST PUSH1 0x0 PUSH2 0x4000 DUP3 DUP5 PUSH2 0x3C78 JUMP JUMPDEST SWAP2 POP DUP2 SWAP1 POP SWAP3 SWAP2 POP POP JUMP JUMPDEST PUSH1 0x0 PUSH2 0x4017 DUP3 DUP5 PUSH2 0x3DA9 JUMP JUMPDEST SWAP2 POP DUP2 SWAP1 POP SWAP3 SWAP2 POP POP JUMP JUMPDEST PUSH1 0x0 PUSH1 0x20 DUP3 ADD SWAP1 POP DUP2 DUP2 SUB PUSH1 0x0 DUP4 ADD MSTORE PUSH2 0x403C DUP2 DUP5 PUSH2 0x3B0E JUMP JUMPDEST SWAP1 POP SWAP3 SWAP2 POP POP JUMP JUMPDEST PUSH1 0x0 PUSH1 0x20 DUP3 ADD SWAP1 POP PUSH2 0x4059 PUSH1 0x0 DUP4 ADD DUP5 PUSH2 0x3BF7 JUMP JUMPDEST SWAP3 SWAP2 POP POP JUMP JUMPDEST PUSH1 0x0 PUSH1 0x20 DUP3 ADD SWAP1 POP DUP2 DUP2 SUB PUSH1 0x0 DUP4 ADD MSTORE PUSH2 0x4079 DUP2 DUP5 PUSH2 0x3C3F JUMP JUMPDEST SWAP1 POP SWAP3 SWAP2 POP POP JUMP JUMPDEST PUSH1 0x0 PUSH1 0x40 DUP3 ADD SWAP1 POP DUP2 DUP2 SUB PUSH1 0x0 DUP4 ADD MSTORE PUSH2 0x409B DUP2 DUP6 PUSH2 0x3C3F JUMP JUMPDEST SWAP1 POP DUP2 DUP2 SUB PUSH1 0x20 DUP4 ADD MSTORE PUSH2 0x40AF DUP2 DUP5 PUSH2 0x3B0E JUMP JUMPDEST SWAP1 POP SWAP4 SWAP3 POP POP POP JUMP JUMPDEST PUSH1 0x0 PUSH1 0x60 DUP3 ADD SWAP1 POP DUP2 DUP2 SUB PUSH1 0x0 DUP4 ADD MSTORE PUSH2 0x40D2 DUP2 DUP7 PUSH2 0x3C3F JUMP JUMPDEST SWAP1 POP DUP2 DUP2 SUB PUSH1 0x20 DUP4 ADD MSTORE PUSH2 0x40E6 DUP2 DUP6 PUSH2 0x3B0E JUMP JUMPDEST SWAP1 POP DUP2 DUP2 SUB PUSH1 0x40 DUP4 ADD MSTORE PUSH2 0x40FA DUP2 DUP5 PUSH2 0x3B0E JUMP JUMPDEST SWAP1 POP SWAP5 SWAP4 POP POP POP POP JUMP JUMPDEST PUSH1 0x0 PUSH1 0x40 DUP3 ADD SWAP1 POP DUP2 DUP2 SUB PUSH1 0x0 DUP4 ADD MSTORE PUSH2 0x411E DUP2 DUP6 PUSH2 0x3C3F JUMP JUMPDEST SWAP1 POP PUSH2 0x412D PUSH1 0x20 DUP4 ADD DUP5 PUSH2 0x3BF7 JUMP JUMPDEST SWAP4 SWAP3 POP POP POP JUMP JUMPDEST PUSH1 0x0 PUSH1 0x40 DUP3 ADD SWAP1 POP DUP2 DUP2 SUB PUSH1 0x0 DUP4 ADD MSTORE PUSH2 0x414E DUP2 DUP6 PUSH2 0x3C3F JUMP JUMPDEST SWAP1 POP DUP2 DUP2 SUB PUSH1 0x20 DUP4 ADD MSTORE PUSH2 0x4162 DUP2 DUP5 PUSH2 0x3C3F JUMP JUMPDEST SWAP1 POP SWAP4 SWAP3 POP POP POP JUMP JUMPDEST PUSH1 0x0 PUSH1 0xE0 DUP3 ADD SWAP1 POP DUP2 DUP2 SUB PUSH1 0x0 DUP4 ADD MSTORE PUSH2 0x4185 DUP2 DUP11 PUSH2 0x3C3F JUMP JUMPDEST SWAP1 POP DUP2 DUP2 SUB PUSH1 0x20 DUP4 ADD MSTORE PUSH2 0x4199 DUP2 DUP10 PUSH2 0x3C3F JUMP JUMPDEST SWAP1 POP DUP2 DUP2 SUB PUSH1 0x40 DUP4 ADD MSTORE PUSH2 0x41AD DUP2 DUP9 PUSH2 0x3B0E JUMP JUMPDEST SWAP1 POP DUP2 DUP2 SUB PUSH1 0x60 DUP4 ADD MSTORE PUSH2 0x41C1 DUP2 DUP8 PUSH2 0x3C3F JUMP JUMPDEST SWAP1 POP DUP2 DUP2 SUB PUSH1 0x80 DUP4 ADD MSTORE PUSH2 0x41D5 DUP2 DUP7 PUSH2 0x3C3F JUMP JUMPDEST SWAP1 POP PUSH2 0x41E4 PUSH1 0xA0 DUP4 ADD DUP6 PUSH2 0x3BF7 JUMP JUMPDEST PUSH2 0x41F1 PUSH1 0xC0 DUP4 ADD DUP5 PUSH2 0x3BF7 JUMP JUMPDEST SWAP9 SWAP8 POP POP POP POP POP POP POP POP JUMP JUMPDEST PUSH1 0x0 PUSH1 0x40 DUP3 ADD SWAP1 POP DUP2 DUP2 SUB PUSH1 0x0 DUP4 ADD MSTORE PUSH2 0x4217 DUP2 DUP6 PUSH2 0x3D29 JUMP JUMPDEST SWAP1 POP DUP2 DUP2 SUB PUSH1 0x20 DUP4 ADD MSTORE PUSH2 0x422B DUP2 DUP5 PUSH2 0x3B83 JUMP JUMPDEST SWAP1 POP SWAP4 SWAP3 POP POP POP JUMP JUMPDEST PUSH1 0x0 PUSH1 0x20 DUP3 ADD SWAP1 POP DUP2 DUP2 SUB PUSH1 0x0 DUP4 ADD MSTORE PUSH2 0x424D DUP2 PUSH2 0x3E28 JUMP JUMPDEST SWAP1 POP SWAP2 SWAP1 POP JUMP JUMPDEST PUSH1 0x0 PUSH1 0x20 DUP3 ADD SWAP1 POP DUP2 DUP2 SUB PUSH1 0x0 DUP4 ADD MSTORE PUSH2 0x426D DUP2 PUSH2 0x3E68 JUMP JUMPDEST SWAP1 POP SWAP2 SWAP1 POP JUMP JUMPDEST PUSH1 0x0 PUSH1 0x20 DUP3 ADD SWAP1 POP DUP2 DUP2 SUB PUSH1 0x0 DUP4 ADD MSTORE PUSH2 0x428D DUP2 PUSH2 0x3ECE JUMP JUMPDEST SWAP1 POP SWAP2 SWAP1 POP JUMP JUMPDEST PUSH1 0x0 PUSH1 0x20 DUP3 ADD SWAP1 POP DUP2 DUP2 SUB PUSH1 0x0 DUP4 ADD MSTORE PUSH2 0x42AD DUP2 PUSH2 0x3F34 JUMP JUMPDEST SWAP1 POP SWAP2 SWAP1 POP JUMP JUMPDEST PUSH1 0x0 PUSH1 0x20 DUP3 ADD SWAP1 POP DUP2 DUP2 SUB PUSH1 0x0 DUP4 ADD MSTORE PUSH2 0x42CD DUP2 PUSH2 0x3F74 JUMP JUMPDEST SWAP1 POP SWAP2 SWAP1 POP JUMP JUMPDEST PUSH1 0x0 PUSH1 0x20 DUP3 ADD SWAP1 POP DUP2 DUP2 SUB PUSH1 0x0 DUP4 ADD MSTORE PUSH2 0x42ED DUP2 PUSH2 0x3FB4 JUMP JUMPDEST SWAP1 POP SWAP2 SWAP1 POP JUMP JUMPDEST PUSH1 0x0 PUSH1 0x40 MLOAD SWAP1 POP DUP2 DUP2 ADD DUP2 DUP2 LT PUSH8 0xFFFFFFFFFFFFFFFF DUP3 GT OR ISZERO PUSH2 0x431B JUMPI PUSH2 0x431A PUSH2 0x4599 JUMP JUMPDEST JUMPDEST DUP1 PUSH1 0x40 MSTORE POP SWAP2 SWAP1 POP JUMP JUMPDEST PUSH1 0x0 PUSH8 0xFFFFFFFFFFFFFFFF DUP3 GT ISZERO PUSH2 0x4340 JUMPI PUSH2 0x433F PUSH2 0x4599 JUMP JUMPDEST JUMPDEST PUSH1 0x20 DUP3 MUL SWAP1 POP PUSH1 0x20 DUP2 ADD SWAP1 POP SWAP2 SWAP1 POP JUMP JUMPDEST PUSH1 0x0 PUSH8 0xFFFFFFFFFFFFFFFF DUP3 GT ISZERO PUSH2 0x436C JUMPI PUSH2 0x436B PUSH2 0x4599 JUMP JUMPDEST JUMPDEST PUSH1 0x1F NOT PUSH1 0x1F DUP4 ADD AND SWAP1 POP PUSH1 0x20 DUP2 ADD SWAP1 POP SWAP2 SWAP1 POP JUMP JUMPDEST PUSH1 0x0 DUP2 SWAP1 POP PUSH1 0x20 DUP3 ADD SWAP1 POP SWAP2 SWAP1 POP JUMP JUMPDEST PUSH1 0x0 DUP2 SWAP1 POP DUP2 PUSH1 0x0 MSTORE PUSH1 0x20 PUSH1 0x0 KECCAK256 SWAP1 POP SWAP2 SWAP1 POP JUMP JUMPDEST PUSH1 0x0 DUP2 SWAP1 POP DUP2 PUSH1 0x0 MSTORE PUSH1 0x20 PUSH1 0x0 KECCAK256 SWAP1 POP SWAP2 SWAP1 POP JUMP JUMPDEST PUSH1 0x0 DUP2 MLOAD SWAP1 POP SWAP2 SWAP1 POP JUMP JUMPDEST PUSH1 0x0 DUP2 SLOAD SWAP1 POP SWAP2 SWAP1 POP JUMP JUMPDEST PUSH1 0x0 DUP2 MLOAD SWAP1 POP SWAP2 SWAP1 POP JUMP JUMPDEST PUSH1 0x0 PUSH1 0x20 DUP3 ADD SWAP1 POP SWAP2 SWAP1 POP JUMP JUMPDEST PUSH1 0x0 PUSH1 0x1 DUP3 ADD SWAP1 POP SWAP2 SWAP1 POP JUMP JUMPDEST PUSH1 0x0 DUP3 DUP3 MSTORE PUSH1 0x20 DUP3 ADD SWAP1 POP SWAP3 SWAP2 POP POP JUMP JUMPDEST PUSH1 0x0 DUP3 DUP3 MSTORE PUSH1 0x20 DUP3 ADD SWAP1 POP SWAP3 SWAP2 POP POP JUMP JUMPDEST PUSH1 0x0 DUP3 DUP3 MSTORE PUSH1 0x20 DUP3 ADD SWAP1 POP SWAP3 SWAP2 POP POP JUMP JUMPDEST PUSH1 0x0 DUP2 SWAP1 POP SWAP3 SWAP2 POP POP JUMP JUMPDEST PUSH1 0x0 PUSH2 0x443F DUP3 PUSH2 0x4474 JUMP JUMPDEST SWAP2 POP PUSH2 0x444A DUP4 PUSH2 0x4474 JUMP JUMPDEST SWAP3 POP DUP3 DUP3 LT ISZERO PUSH2 0x445D JUMPI PUSH2 0x445C PUSH2 0x453B JUMP JUMPDEST JUMPDEST DUP3 DUP3 SUB SWAP1 POP SWAP3 SWAP2 POP POP JUMP JUMPDEST PUSH1 0x0 DUP2 ISZERO ISZERO SWAP1 POP SWAP2 SWAP1 POP JUMP JUMPDEST PUSH1 0x0 DUP2 SWAP1 POP SWAP2 SWAP1 POP JUMP JUMPDEST DUP3 DUP2 DUP4 CALLDATACOPY PUSH1 0x0 DUP4 DUP4 ADD MSTORE POP POP POP JUMP JUMPDEST PUSH1 0x0 JUMPDEST DUP4 DUP2 LT ISZERO PUSH2 0x44AB JUMPI DUP1 DUP3 ADD MLOAD DUP2 DUP5 ADD MSTORE PUSH1 0x20 DUP2 ADD SWAP1 POP PUSH2 0x4490 JUMP JUMPDEST DUP4 DUP2 GT ISZERO PUSH2 0x44BA JUMPI PUSH1 0x0 DUP5 DUP5 ADD MSTORE JUMPDEST POP POP POP POP JUMP JUMPDEST PUSH1 0x0 PUSH1 0x2 DUP3 DIV SWAP1 POP PUSH1 0x1 DUP3 AND DUP1 PUSH2 0x44D8 JUMPI PUSH1 0x7F DUP3 AND SWAP2 POP JUMPDEST PUSH1 0x20 DUP3 LT DUP2 EQ ISZERO PUSH2 0x44EC JUMPI PUSH2 0x44EB PUSH2 0x456A JUMP JUMPDEST JUMPDEST POP SWAP2 SWAP1 POP JUMP JUMPDEST PUSH1 0x0 PUSH2 0x44FD DUP3 PUSH2 0x4474 JUMP JUMPDEST SWAP2 POP PUSH32 0xFFFFFFFFFFFFFFFFFFFFFFFFFFFFFFFFFFFFFFFFFFFFFFFFFFFFFFFFFFFFFFFF DUP3 EQ ISZERO PUSH2 0x4530 JUMPI PUSH2 0x452F PUSH2 0x453B JUMP JUMPDEST JUMPDEST PUSH1 0x1 DUP3 ADD SWAP1 POP SWAP2 SWAP1 POP JUMP JUMPDEST PUSH32 0x4E487B7100000000000000000000000000000000000000000000000000000000 PUSH1 0x0 MSTORE PUSH1 0x11 PUSH1 0x4 MSTORE PUSH1 0x24 PUSH1 0x0 REVERT JUMPDEST PUSH32 0x4E487B7100000000000000000000000000000000000000000000000000000000 PUSH1 0x0 MSTORE PUSH1 0x22 PUSH1 0x4 MSTORE PUSH1 0x24 PUSH1 0x0 REVERT JUMPDEST PUSH32 0x4E487B7100000000000000000000000000000000000000000000000000000000 PUSH1 0x0 MSTORE PUSH1 0x41 PUSH1 0x4 MSTORE PUSH1 0x24 PUSH1 0x0 REVERT JUMPDEST PUSH1 0x0 PUSH1 0x1F NOT PUSH1 0x1F DUP4 ADD AND SWAP1 POP SWAP2 SWAP1 POP JUMP INVALID LOG2 PUSH5 0x6970667358 0x22 SLT KECCAK256 SELFDESTRUCT 0xAE SWAP9 PC 0xC2 0xDA 0xC 0xE0 SWAP3 SLT PUSH21 0x32646DCD3E5F579B54D36B72C96FAA1CD56E83131B PUSH5 0x736F6C6343 STOP ADDMOD STOP STOP CALLER "},"methodIdentifiers":{"addUserToGroup(string,string)":"ecb5a4d5","checkIfUserExists(string)":"6cad1934","createGroup(string,string[])":"7c77f39f","getAllGroups()":"21cd3cae","getAllUsernames()":"53620375","getGroup(string)":"abef281e","getUser(string)":"31feb671","getUserFaceHashes(string)":"2d09d9e9","getUserPermissions(string)":"ee1c55da","registerUser(string,string,string[],string)":"b9e6facb","removeGroup(string)":"6246b310","removeUserFromGroup(string,string)":"67753ba1","requireUserPasswordChange(string)":"e537cac7","setGroupPermissions(string,string[])":"1ae7f10a","toggleUser(string)":"5108c3ab","updateGroup(string,string,string[])":"5b9a6b1d","updateUserFaceHash(string,string[])":"03df9e92","updateUserPassword(string,string)":"c91bc46c"}}}}}