{"contracts/FaceGuard.sol":{"FaceGuard":{"abi":[{"inputs":[],"stateMutability":"nonpayable","type":"constructor"},{"anonymous":false,"inputs":[{"indexed":true,"internalType":"string","name":"username","type":"string"}],"name":"FaceHashUpdated","type":"event"},{"anonymous":false,"inputs":[{"indexed":true,"internalType":"string","name":"groupName","type":"string"},{"indexed":false,"internalType":"string[]","name":"permissions","type":"string[]"}],"name":"GroupCreated","type":"event"},{"anonymous":false,"inputs":[{"indexed":true,"internalType":"string","name":"originalGroupName","type":"string"},{"indexed":false,"internalType":"string","name":"newGroupName","type":"string"}],"name":"GroupNameUpdated","type":"event"},{"anonymous":false,"inputs":[{"indexed":true,"internalType":"string","name":"groupName","type":"string"},{"indexed":false,"internalType":"string[]","name":"permissions","type":"string[]"}],"name":"GroupPermissionsUpdated","type":"event"},{"anonymous":false,"inputs":[{"indexed":true,"internalType":"string","name":"groupName","type":"string"}],"name":"GroupRemoved","type":"event"},{"anonymous":false,"inputs":[{"indexed":true,"internalType":"string","name":"username","type":"string"}],"name":"PasswordChangeRequired","type":"event"},{"anonymous":false,"inputs":[{"indexed":true,"internalType":"string","name":"username","type":"string"}],"name":"PasswordUpdated","type":"event"},{"anonymous":false,"inputs":[{"indexed":true,"internalType":"string","name":"username","type":"string"}],"name":"PermissionsUpdated","type":"event"},{"anonymous":false,"inputs":[{"indexed":true,"internalType":"string","name":"username","type":"string"},{"indexed":false,"internalType":"string","name":"groupName","type":"string"}],"name":"UserAddedToGroup","type":"event"},{"anonymous":false,"inputs":[{"indexed":true,"internalType":"string","name":"username","type":"string"},{"indexed":false,"internalType":"string","name":"email","type":"string"}],"name":"UserEmailUpdated","type":"event"},{"anonymous":false,"inputs":[{"indexed":true,"internalType":"string","name":"username","type":"string"},{"indexed":false,"internalType":"string","name":"fullName","type":"string"}],"name":"UserFullNameUpdated","type":"event"},{"anonymous":false,"inputs":[{"indexed":true,"internalType":"string","name":"username","type":"string"}],"name":"UserRegistered","type":"event"},{"anonymous":false,"inputs":[{"indexed":true,"internalType":"string","name":"username","type":"string"},{"indexed":false,"internalType":"string","name":"groupName","type":"string"}],"name":"UserRemovedFromGroup","type":"event"},{"anonymous":false,"inputs":[{"indexed":true,"internalType":"string","name":"username","type":"string"},{"indexed":false,"internalType":"bool","name":"enabled","type":"bool"}],"name":"UserToggled","type":"event"},{"inputs":[{"internalType":"string","name":"groupName","type":"string"},{"internalType":"string","name":"username","type":"string"}],"name":"addUserToGroup","outputs":[],"stateMutability":"nonpayable","type":"function"},{"inputs":[{"internalType":"string","name":"username","type":"string"}],"name":"checkIfUserExists","outputs":[{"internalType":"bool","name":"","type":"bool"}],"stateMutability":"view","type":"function"},{"inputs":[{"internalType":"string","name":"groupName","type":"string"},{"internalType":"string[]","name":"permissions","type":"string[]"}],"name":"createGroup","outputs":[],"stateMutability":"nonpayable","type":"function"},{"inputs":[],"name":"getAllGroups","outputs":[{"internalType":"string[]","name":"","type":"string[]"}],"stateMutability":"view","type":"function"},{"inputs":[],"name":"getAllUsernames","outputs":[{"internalType":"string[]","name":"","type":"string[]"}],"stateMutability":"view","type":"function"},{"inputs":[{"internalType":"string","name":"groupName","type":"string"}],"name":"getGroup","outputs":[{"internalType":"string","name":"","type":"string"},{"internalType":"string[]","name":"","type":"string[]"},{"internalType":"string[]","name":"","type":"string[]"}],"stateMutability":"view","type":"function"},{"inputs":[{"internalType":"string","name":"username","type":"string"}],"name":"getUser","outputs":[{"internalType":"string","name":"","type":"string"},{"internalType":"string","name":"","type":"string"},{"internalType":"string[]","name":"","type":"string[]"},{"internalType":"string","name":"","type":"string"},{"internalType":"string","name":"","type":"string"},{"internalType":"bool","name":"","type":"bool"},{"internalType":"bool","name":"","type":"bool"},{"internalType":"string","name":"","type":"string"},{"internalType":"string","name":"","type":"string"}],"stateMutability":"view","type":"function"},{"inputs":[{"internalType":"string","name":"username","type":"string"}],"name":"getUserFaceHashes","outputs":[{"internalType":"string[]","name":"","type":"string[]"}],"stateMutability":"view","type":"function"},{"inputs":[{"internalType":"string","name":"username","type":"string"}],"name":"getUserPermissions","outputs":[{"internalType":"string[]","name":"","type":"string[]"}],"stateMutability":"view","type":"function"},{"inputs":[{"internalType":"string","name":"username","type":"string"},{"internalType":"string","name":"passwordHash","type":"string"},{"internalType":"string[]","name":"initialFaceHashes","type":"string[]"},{"internalType":"string","name":"creationDate","type":"string"}],"name":"registerUser","outputs":[],"stateMutability":"nonpayable","type":"function"},{"inputs":[{"internalType":"string","name":"groupName","type":"string"}],"name":"removeGroup","outputs":[],"stateMutability":"nonpayable","type":"function"},{"inputs":[{"internalType":"string","name":"groupName","type":"string"},{"internalType":"string","name":"username","type":"string"}],"name":"removeUserFromGroup","outputs":[],"stateMutability":"nonpayable","type":"function"},{"inputs":[{"internalType":"string","name":"username","type":"string"}],"name":"requireUserPasswordChange","outputs":[],"stateMutability":"nonpayable","type":"function"},{"inputs":[{"internalType":"string","name":"groupName","type":"string"},{"internalType":"string[]","name":"groupPermissions","type":"string[]"}],"name":"setGroupPermissions","outputs":[{"internalType":"string","name":"","type":"string"}],"stateMutability":"nonpayable","type":"function"},{"inputs":[{"internalType":"string","name":"username","type":"string"}],"name":"toggleUser","outputs":[],"stateMutability":"nonpayable","type":"function"},{"inputs":[{"internalType":"string","name":"originalGroupName","type":"string"},{"internalType":"string","name":"newGroupName","type":"string"},{"internalType":"string[]","name":"newPermissions","type":"string[]"}],"name":"updateGroup","outputs":[],"stateMutability":"nonpayable","type":"function"},{"inputs":[{"internalType":"string","name":"username","type":"string"},{"internalType":"string","name":"newEmail","type":"string"}],"name":"updateUserEmail","outputs":[],"stateMutability":"nonpayable","type":"function"},{"inputs":[{"internalType":"string","name":"username","type":"string"},{"internalType":"string[]","name":"newFaceHashes","type":"string[]"}],"name":"updateUserFaceHash","outputs":[],"stateMutability":"nonpayable","type":"function"},{"inputs":[{"internalType":"string","name":"username","type":"string"},{"internalType":"string","name":"newFullName","type":"string"}],"name":"updateUserFullName","outputs":[],"stateMutability":"nonpayable","type":"function"},{"inputs":[{"internalType":"string","name":"username","type":"string"},{"internalType":"string","name":"newPasswordHash","type":"string"}],"name":"updateUserPassword","outputs":[],"stateMutability":"nonpayable","type":"function"}],"evm":{"bytecode":{"linkReferences":{},"object":"60806040523480156200001157600080fd5b5033600460006101000a81548173ffffffffffffffffffffffffffffffffffffffff021916908373ffffffffffffffffffffffffffffffffffffffff160217905550600060405180608001604052806040518060400160405280601581526020017f466163654775617264204372656174653a20416c6c000000000000000000000081525081526020016040518060400160405280601381526020017f46616365477561726420526561643a20416c6c0000000000000000000000000081525081526020016040518060400160405280601581526020017f466163654775617264205570646174653a20416c6c000000000000000000000081525081526020016040518060400160405280601581526020017f4661636547756172642044656c6574653a20416c6c00000000000000000000008152508152509050600060405180606001604052806040518060400160405280601481526020017f46616365477561726420526561643a2053656c6600000000000000000000000081525081526020016040518060400160405280601681526020017f466163654775617264205570646174653a2053656c660000000000000000000081525081526020016040518060400160405280601681526020017f4661636547756172642044656c6574653a2053656c66000000000000000000008152508152509050600060405180608001604052806040518060400160405280601881526020017f466163654775617264204372656174653a2047726f757073000000000000000081525081526020016040518060400160405280601681526020017f46616365477561726420526561643a2047726f7570730000000000000000000081525081526020016040518060400160405280601881526020017f466163654775617264205570646174653a2047726f757073000000000000000081525081526020016040518060400160405280601881526020017f4661636547756172642044656c6574653a2047726f75707300000000000000008152508152509050600060405180608001604052806040518060400160405280601781526020017f466163654775617264204372656174653a20557365727300000000000000000081525081526020016040518060400160405280601581526020017f46616365477561726420526561643a205573657273000000000000000000000081525081526020016040518060400160405280601781526020017f466163654775617264205570646174653a20557365727300000000000000000081525081526020016040518060400160405280601781526020017f4661636547756172642044656c6574653a2055736572730000000000000000008152508152509050620004536040518060400160405280600e81526020017f41646d696e6973747261746f727300000000000000000000000000000000000081525062000447866200056260201b60201c565b6200069160201b60201c565b620004aa6040518060400160405280600581526020017f55736572730000000000000000000000000000000000000000000000000000008152506200049e85620008c960201b60201c565b6200069160201b60201c565b620005016040518060400160405280600e81526020017f47726f7570204d616e6167657273000000000000000000000000000000000000815250620004f5846200056260201b60201c565b6200069160201b60201c565b620005586040518060400160405280600d81526020017f55736572204d616e6167657273000000000000000000000000000000000000008152506200054c836200056260201b60201c565b6200069160201b60201c565b5050505062000ef7565b60606000600467ffffffffffffffff811115620005a8577f4e487b7100000000000000000000000000000000000000000000000000000000600052604160045260246000fd5b604051908082528060200260200182016040528015620005dd57816020015b6060815260200190600190039081620005c75790505b50905060005b6004811015620006875783816004811062000627577f4e487b7100000000000000000000000000000000000000000000000000000000600052603260045260246000fd5b602002015182828151811062000666577f4e487b7100000000000000000000000000000000000000000000000000000000600052603260045260246000fd5b602002602001018190525080806200067e9062000e3a565b915050620005e3565b5080915050919050565b600460009054906101000a900473ffffffffffffffffffffffffffffffffffffffff1673ffffffffffffffffffffffffffffffffffffffff163373ffffffffffffffffffffffffffffffffffffffff161462000724576040517f08c379a00000000000000000000000000000000000000000000000000000000081526004016200071b9062000d31565b60405180910390fd5b6040518060600160405280838152602001600067ffffffffffffffff81111562000777577f4e487b7100000000000000000000000000000000000000000000000000000000600052604160045260246000fd5b604051908082528060200260200182016040528015620007ac57816020015b6060815260200190600190039081620007965790505b50815260200182815250600183604051620007c8919062000cf4565b90815260200160405180910390206000820151816000019080519060200190620007f4929190620009f8565b5060208201518160010190805190602001906200081392919062000a89565b5060408201518160020190805190602001906200083292919062000a89565b5090505060038290806001815401808255809150506001900390600052602060002001600090919091909150908051906020019062000873929190620009f8565b508160405162000884919062000cf4565b60405180910390207f64e45d769b067e3e2de0a2fbfa982b75ad4472af64e84e1c421ec5bbe695de0f82604051620008bd919062000d0d565b60405180910390a25050565b60606000600367ffffffffffffffff8111156200090f577f4e487b7100000000000000000000000000000000000000000000000000000000600052604160045260246000fd5b6040519080825280602002602001820160405280156200094457816020015b60608152602001906001900390816200092e5790505b50905060005b6003811015620009ee578381600381106200098e577f4e487b7100000000000000000000000000000000000000000000000000000000600052603260045260246000fd5b6020020151828281518110620009cd577f4e487b7100000000000000000000000000000000000000000000000000000000600052603260045260246000fd5b60200260200101819052508080620009e59062000e3a565b9150506200094a565b5080915050919050565b82805462000a069062000e04565b90600052602060002090601f01602090048101928262000a2a576000855562000a76565b82601f1062000a4557805160ff191683800117855562000a76565b8280016001018555821562000a76579182015b8281111562000a7557825182559160200191906001019062000a58565b5b50905062000a85919062000af0565b5090565b82805482825590600052602060002090810192821562000add579160200282015b8281111562000adc57825182908051906020019062000acb929190620009f8565b509160200191906001019062000aaa565b5b50905062000aec919062000b0f565b5090565b5b8082111562000b0b57600081600090555060010162000af1565b5090565b5b8082111562000b33576000818162000b29919062000b37565b5060010162000b10565b5090565b50805462000b459062000e04565b6000825580601f1062000b59575062000b7a565b601f01602090049060005260206000209081019062000b79919062000af0565b5b50565b600062000b8b838362000c14565b905092915050565b600062000ba08262000d63565b62000bac818562000d86565b93508360208202850162000bc08562000d53565b8060005b8581101562000c02578484038952815162000be0858262000b7d565b945062000bed8362000d79565b925060208a0199505060018101905062000bc4565b50829750879550505050505092915050565b600062000c218262000d6e565b62000c2d818562000d97565b935062000c3f81856020860162000dce565b62000c4a8162000ee6565b840191505092915050565b600062000c628262000d6e565b62000c6e818562000db9565b935062000c8081856020860162000dce565b80840191505092915050565b600062000c9b602f8362000da8565b91507f4f6e6c792074686520636f6e7472616374206f776e65722063616e207065726660008301527f6f726d207468697320616374696f6e00000000000000000000000000000000006020830152604082019050919050565b600062000d02828462000c55565b915081905092915050565b6000602082019050818103600083015262000d29818462000b93565b905092915050565b6000602082019050818103600083015262000d4c8162000c8c565b9050919050565b6000819050602082019050919050565b600081519050919050565b600081519050919050565b6000602082019050919050565b600082825260208201905092915050565b600082825260208201905092915050565b600082825260208201905092915050565b600081905092915050565b6000819050919050565b60005b8381101562000dee57808201518184015260208101905062000dd1565b8381111562000dfe576000848401525b50505050565b6000600282049050600182168062000e1d57607f821691505b6020821081141562000e345762000e3362000eb7565b5b50919050565b600062000e478262000dc4565b91507fffffffffffffffffffffffffffffffffffffffffffffffffffffffffffffffff82141562000e7d5762000e7c62000e88565b5b600182019050919050565b7f4e487b7100000000000000000000000000000000000000000000000000000000600052601160045260246000fd5b7f4e487b7100000000000000000000000000000000000000000000000000000000600052602260045260246000fd5b6000601f19601f8301169050919050565b6149d48062000f076000396000f3fe608060405234801561001057600080fd5b506004361061012c5760003560e01c806367753ba1116100ad578063b9e6facb11610071578063b9e6facb14610347578063c91bc46c14610363578063e537cac71461037f578063ecb5a4d51461039b578063ee1c55da146103b75761012c565b806367753ba1146102915780636cad1934146102ad5780637c77f39f146102dd5780638a0bd86b146102f9578063abef281e146103155761012c565b806331feb671116100f457806331feb671146101e75780635108c3ab1461021f578063536203751461023b5780635b9a6b1d146102595780636246b310146102755761012c565b806303df9e92146101315780631ae7f10a1461014d57806321cd3cae1461017d578063266c1bab1461019b5780632d09d9e9146101b7575b600080fd5b61014b60048036038101906101469190613d80565b6103e7565b005b61016760048036038101906101629190613d80565b6104f3565b60405161017491906144cd565b60405180910390f35b610185610950565b604051610192919061446e565b60405180910390f35b6101b560048036038101906101b09190613dec565b610a29565b005b6101d160048036038101906101cc9190613d3f565b610b40565b6040516101de919061446e565b60405180910390f35b61020160048036038101906101fc9190613d3f565b610c3a565b6040516102169998979695949392919061453b565b60405180910390f35b61023960048036038101906102349190613d3f565b61115a565b005b6102436112d0565b604051610250919061446e565b60405180910390f35b610273600480360381019061026e9190613e58565b6113a9565b005b61028f600480360381019061028a9190613d3f565b61196d565b005b6102ab60048036038101906102a69190613dec565b611ef6565b005b6102c760048036038101906102c29190613d3f565b6122e3565b6040516102d491906144b2565b60405180910390f35b6102f760048036038101906102f29190613d80565b61231c565b005b610313600480360381019061030e9190613dec565b612540565b005b61032f600480360381019061032a9190613d3f565b612657565b60405161033e939291906144ef565b60405180910390f35b610361600480360381019061035c9190613eef565b6129ea565b005b61037d60048036038101906103789190613dec565b612d46565b005b61039960048036038101906103949190613d3f565b612e8b565b005b6103b560048036038101906103b09190613dec565b612f9a565b005b6103d160048036038101906103cc9190613d3f565b6131b5565b6040516103de919061446e565b60405180910390f35b600460009054906101000a900473ffffffffffffffffffffffffffffffffffffffff1673ffffffffffffffffffffffffffffffffffffffff163373ffffffffffffffffffffffffffffffffffffffff1614610477576040517f08c379a000000000000000000000000000000000000000000000000000000000815260040161046e90614639565b60405180910390fd5b806000836040516104889190614440565b908152602001604051809103902060020190805190602001906104ac929190613946565b50816040516104bb9190614440565b60405180910390207feb1060ec96e942d51b0f7b8b00c334c5c6da57c48f5ef56937468d28d0ee347a60405160405180910390a25050565b6060600460009054906101000a900473ffffffffffffffffffffffffffffffffffffffff1673ffffffffffffffffffffffffffffffffffffffff163373ffffffffffffffffffffffffffffffffffffffff1614610585576040517f08c379a000000000000000000000000000000000000000000000000000000000815260040161057c90614639565b60405180910390fd5b60006001846040516105979190614440565b908152602001604051809103902060000180546105b390614885565b9050116105f5576040517f08c379a00000000000000000000000000000000000000000000000000000000081526004016105ec90614659565b60405180910390fd5b600060405180608001604052806040518060400160405280600e81526020017f41646d696e6973747261746f727300000000000000000000000000000000000081525081526020016040518060400160405280600581526020017f557365727300000000000000000000000000000000000000000000000000000081525081526020016040518060400160405280600e81526020017f47726f7570204d616e616765727300000000000000000000000000000000000081525081526020016040518060400160405280600d81526020017f55736572204d616e616765727300000000000000000000000000000000000000815250815250905060005b60048110156107d957818160048110610733577f4e487b7100000000000000000000000000000000000000000000000000000000600052603260045260246000fd5b60200201516040516020016107489190614440565b604051602081830303815290604052805190602001208560405160200161076f9190614440565b6040516020818303038152906040528051906020012014156107c6576040517f08c379a00000000000000000000000000000000000000000000000000000000081526004016107bd90614619565b60405180910390fd5b80806107d1906148b7565b9150506106f1565b50826001856040516107eb9190614440565b9081526020016040518091039020600201908051906020019061080f929190613946565b506001846040516108209190614440565b908152602001604051809103902060000160405161083e9190614457565b60405180910390207f65d29756900166ea1a95042b775077b9e0c4b52e2ad303784b8fc75584de59ef6001866040516108779190614440565b90815260200160405180910390206002016040516108959190614490565b60405180910390a26001846040516108ad9190614440565b908152602001604051809103902060000180546108c990614885565b80601f01602080910402602001604051908101604052809291908181526020018280546108f590614885565b80156109425780601f1061091757610100808354040283529160200191610942565b820191906000526020600020905b81548152906001019060200180831161092557829003601f168201915b505050505091505092915050565b60606003805480602002602001604051908101604052809291908181526020016000905b82821015610a2057838290600052602060002001805461099390614885565b80601f01602080910402602001604051908101604052809291908181526020018280546109bf90614885565b8015610a0c5780601f106109e157610100808354040283529160200191610a0c565b820191906000526020600020905b8154815290600101906020018083116109ef57829003601f168201915b505050505081526020019060010190610974565b50505050905090565b600460009054906101000a900473ffffffffffffffffffffffffffffffffffffffff1673ffffffffffffffffffffffffffffffffffffffff163373ffffffffffffffffffffffffffffffffffffffff1614610ab9576040517f08c379a0000000000000000000000000000000000000000000000000000000008152600401610ab090614639565b60405180910390fd5b80600083604051610aca9190614440565b90815260200160405180910390206006019080519060200190610aee9291906139a6565b5081604051610afd9190614440565b60405180910390207f2a8884b2438626fca84a5f1bdfbf416f5d1344f8a4a7b89860ce8e8ee58f2b2182604051610b3491906144cd565b60405180910390a25050565b6060600082604051610b529190614440565b9081526020016040518091039020600201805480602002602001604051908101604052809291908181526020016000905b82821015610c2f578382906000526020600020018054610ba290614885565b80601f0160208091040260200160405190810160405280929190818152602001828054610bce90614885565b8015610c1b5780601f10610bf057610100808354040283529160200191610c1b565b820191906000526020600020905b815481529060010190602001808311610bfe57829003601f168201915b505050505081526020019060010190610b83565b505050509050919050565b60608060608060606000806060806000808b604051610c599190614440565b908152602001604051809103902060405180610140016040529081600082018054610c8390614885565b80601f0160208091040260200160405190810160405280929190818152602001828054610caf90614885565b8015610cfc5780601f10610cd157610100808354040283529160200191610cfc565b820191906000526020600020905b815481529060010190602001808311610cdf57829003601f168201915b50505050508152602001600182018054610d1590614885565b80601f0160208091040260200160405190810160405280929190818152602001828054610d4190614885565b8015610d8e5780601f10610d6357610100808354040283529160200191610d8e565b820191906000526020600020905b815481529060010190602001808311610d7157829003601f168201915b5050505050815260200160028201805480602002602001604051908101604052809291908181526020016000905b82821015610e68578382906000526020600020018054610ddb90614885565b80601f0160208091040260200160405190810160405280929190818152602001828054610e0790614885565b8015610e545780601f10610e2957610100808354040283529160200191610e54565b820191906000526020600020905b815481529060010190602001808311610e3757829003601f168201915b505050505081526020019060010190610dbc565b505050508152602001600382018054610e8090614885565b80601f0160208091040260200160405190810160405280929190818152602001828054610eac90614885565b8015610ef95780601f10610ece57610100808354040283529160200191610ef9565b820191906000526020600020905b815481529060010190602001808311610edc57829003601f168201915b50505050508152602001600482018054610f1290614885565b80601f0160208091040260200160405190810160405280929190818152602001828054610f3e90614885565b8015610f8b5780601f10610f6057610100808354040283529160200191610f8b565b820191906000526020600020905b815481529060010190602001808311610f6e57829003601f168201915b505050505081526020016005820160009054906101000a900460ff161515151581526020016005820160019054906101000a900460ff161515151581526020016005820160029054906101000a900460ff16151515158152602001600682018054610ff590614885565b80601f016020809104026020016040519081016040528092919081815260200182805461102190614885565b801561106e5780601f106110435761010080835404028352916020019161106e565b820191906000526020600020905b81548152906001019060200180831161105157829003601f168201915b5050505050815260200160078201805461108790614885565b80601f01602080910402602001604051908101604052809291908181526020018280546110b390614885565b80156111005780601f106110d557610100808354040283529160200191611100565b820191906000526020600020905b8154815290600101906020018083116110e357829003601f168201915b5050505050815250509050806000015181602001518260400151836060015184608001518560a001518660e00151876101000151886101200151995099509950995099509950995099509950509193959799909294969850565b600460009054906101000a900473ffffffffffffffffffffffffffffffffffffffff1673ffffffffffffffffffffffffffffffffffffffff163373ffffffffffffffffffffffffffffffffffffffff16146111ea576040517f08c379a00000000000000000000000000000000000000000000000000000000081526004016111e190614639565b60405180910390fd5b6000816040516111fa9190614440565b908152602001604051809103902060050160029054906101000a900460ff161560008260405161122a9190614440565b908152602001604051809103902060050160026101000a81548160ff021916908315150217905550806040516112609190614440565b60405180910390207f9b1a1e5131c18ee5fd8454b3b435b1b36127bd0c05686d9fc6190d638bcb14996000836040516112999190614440565b908152602001604051809103902060050160029054906101000a900460ff166040516112c591906144b2565b60405180910390a250565b60606002805480602002602001604051908101604052809291908181526020016000905b828210156113a057838290600052602060002001805461131390614885565b80601f016020809104026020016040519081016040528092919081815260200182805461133f90614885565b801561138c5780601f106113615761010080835404028352916020019161138c565b820191906000526020600020905b81548152906001019060200180831161136f57829003601f168201915b5050505050815260200190600101906112f4565b50505050905090565b600460009054906101000a900473ffffffffffffffffffffffffffffffffffffffff1673ffffffffffffffffffffffffffffffffffffffff163373ffffffffffffffffffffffffffffffffffffffff1614611439576040517f08c379a000000000000000000000000000000000000000000000000000000000815260040161143090614639565b60405180910390fd5b600060018460405161144b9190614440565b9081526020016040518091039020600001805461146790614885565b9050116114a9576040517f08c379a00000000000000000000000000000000000000000000000000000000081526004016114a090614659565b60405180910390fd5b600060405180608001604052806040518060400160405280600e81526020017f41646d696e6973747261746f727300000000000000000000000000000000000081525081526020016040518060400160405280600581526020017f557365727300000000000000000000000000000000000000000000000000000081525081526020016040518060400160405280600e81526020017f47726f7570204d616e616765727300000000000000000000000000000000000081525081526020016040518060400160405280600d81526020017f55736572204d616e616765727300000000000000000000000000000000000000815250815250905060005b600481101561168d578181600481106115e7577f4e487b7100000000000000000000000000000000000000000000000000000000600052603260045260246000fd5b60200201516040516020016115fc9190614440565b60405160208183030381529060405280519060200120856040516020016116239190614440565b60405160208183030381529060405280519060200120141561167a576040517f08c379a000000000000000000000000000000000000000000000000000000000815260040161167190614619565b60405180910390fd5b8080611685906148b7565b9150506115a5565b5061169884836104f3565b50826040516020016116aa9190614440565b60405160208183030381529060405280519060200120846040516020016116d19190614440565b6040516020818303038152906040528051906020012014611967576001846040516116fc9190614440565b908152602001604051809103902060018460405161171a9190614440565b9081526020016040518091039020600082018160000190805461173c90614885565b611747929190613a2c565b50600182018160010190805461175e929190613ab9565b506002820181600201908054611775929190613ab9565b509050508260018460405161178a9190614440565b908152602001604051809103902060000190805190602001906117ae9291906139a6565b506001846040516117bf9190614440565b9081526020016040518091039020600080820160006117de9190613b21565b6001820160006117ee9190613b61565b6002820160006117fe9190613b61565b505060005b60038054905081101561191857846040516020016118219190614440565b6040516020818303038152906040528051906020012060038281548110611871577f4e487b7100000000000000000000000000000000000000000000000000000000600052603260045260246000fd5b9060005260206000200160405160200161188b9190614457565b6040516020818303038152906040528051906020012014156119055783600382815481106118e2577f4e487b7100000000000000000000000000000000000000000000000000000000600052603260045260246000fd5b9060005260206000200190805190602001906118ff9291906139a6565b50611918565b8080611910906148b7565b915050611803565b50836040516119279190614440565b60405180910390207f364b226b5f086e2e247d242241146270270074b8e63461b564298285dfdb08788460405161195e91906144cd565b60405180910390a25b50505050565b600460009054906101000a900473ffffffffffffffffffffffffffffffffffffffff1673ffffffffffffffffffffffffffffffffffffffff163373ffffffffffffffffffffffffffffffffffffffff16146119fd576040517f08c379a00000000000000000000000000000000000000000000000000000000081526004016119f490614639565b60405180910390fd5b6000600182604051611a0f9190614440565b90815260200160405180910390206000018054611a2b90614885565b905011611a6d576040517f08c379a0000000000000000000000000000000000000000000000000000000008152600401611a6490614659565b60405180910390fd5b600060405180608001604052806040518060400160405280600e81526020017f41646d696e6973747261746f727300000000000000000000000000000000000081525081526020016040518060400160405280600581526020017f557365727300000000000000000000000000000000000000000000000000000081525081526020016040518060400160405280600e81526020017f47726f7570204d616e616765727300000000000000000000000000000000000081525081526020016040518060400160405280600d81526020017f55736572204d616e616765727300000000000000000000000000000000000000815250815250905060005b6004811015611c5157818160048110611bab577f4e487b7100000000000000000000000000000000000000000000000000000000600052603260045260246000fd5b6020020151604051602001611bc09190614440565b6040516020818303038152906040528051906020012083604051602001611be79190614440565b604051602081830303815290604052805190602001201415611c3e576040517f08c379a0000000000000000000000000000000000000000000000000000000008152600401611c3590614619565b60405180910390fd5b8080611c49906148b7565b915050611b69565b50600182604051611c629190614440565b908152602001604051809103902060008082016000611c819190613b21565b600182016000611c919190613b61565b600282016000611ca19190613b61565b50506000805b600380549050811015611e6e5783604051602001611cc59190614440565b6040516020818303038152906040528051906020012060038281548110611d15577f4e487b7100000000000000000000000000000000000000000000000000000000600052603260045260246000fd5b90600052602060002001604051602001611d2f9190614457565b604051602081830303815290604052805190602001201415611e5b576001915060036001600380549050611d6391906147f9565b81548110611d9a577f4e487b7100000000000000000000000000000000000000000000000000000000600052603260045260246000fd5b9060005260206000200160038281548110611dde577f4e487b7100000000000000000000000000000000000000000000000000000000600052603260045260246000fd5b90600052602060002001908054611df490614885565b611dff929190613b82565b506003805480611e38577f4e487b7100000000000000000000000000000000000000000000000000000000600052603160045260246000fd5b600190038181906000526020600020016000611e549190613b21565b9055611e6e565b8080611e66906148b7565b915050611ca7565b5080611eaf576040517f08c379a0000000000000000000000000000000000000000000000000000000008152600401611ea6906145f9565b60405180910390fd5b82604051611ebd9190614440565b60405180910390207f3d23503bda008e50d93c77e132b7d2cde3189a8de034b6d382a71004b5a1b04860405160405180910390a2505050565b600460009054906101000a900473ffffffffffffffffffffffffffffffffffffffff1673ffffffffffffffffffffffffffffffffffffffff163373ffffffffffffffffffffffffffffffffffffffff1614611f86576040517f08c379a0000000000000000000000000000000000000000000000000000000008152600401611f7d90614639565b60405180910390fd5b6000600183604051611f989190614440565b90815260200160405180910390206000018054611fb490614885565b905011611ff6576040517f08c379a0000000000000000000000000000000000000000000000000000000008152600401611fed90614659565b60405180910390fd5b600080826040516120079190614440565b9081526020016040518091039020600001805461202390614885565b905011612065576040517f08c379a000000000000000000000000000000000000000000000000000000000815260040161205c90614679565b60405180910390fd5b60006001836040516120779190614440565b908152602001604051809103902060010190506000805b828054905081101561224f57836040516020016120ab9190614440565b604051602081830303815290604052805190602001208382815481106120fa577f4e487b7100000000000000000000000000000000000000000000000000000000600052603260045260246000fd5b906000526020600020016040516020016121149190614457565b60405160208183030381529060405280519060200120141561223c5760019150826001848054905061214691906147f9565b8154811061217d577f4e487b7100000000000000000000000000000000000000000000000000000000600052603260045260246000fd5b906000526020600020018382815481106121c0577f4e487b7100000000000000000000000000000000000000000000000000000000600052603260045260246000fd5b906000526020600020019080546121d690614885565b6121e1929190613b82565b5082805480612219577f4e487b7100000000000000000000000000000000000000000000000000000000600052603160045260246000fd5b6001900381819060005260206000200160006122359190613b21565b905561224f565b8080612247906148b7565b91505061208e565b5080612290576040517f08c379a000000000000000000000000000000000000000000000000000000000815260040161228790614699565b60405180910390fd5b8260405161229e9190614440565b60405180910390207f2987fe5a9775c7dc64ce1b0c8b76d750f2ef0f9e96561a0da6ad7f31a854515a856040516122d591906144cd565b60405180910390a250505050565b6000806000836040516122f69190614440565b9081526020016040518091039020600001805461231290614885565b9050119050919050565b600460009054906101000a900473ffffffffffffffffffffffffffffffffffffffff1673ffffffffffffffffffffffffffffffffffffffff163373ffffffffffffffffffffffffffffffffffffffff16146123ac576040517f08c379a00000000000000000000000000000000000000000000000000000000081526004016123a390614639565b60405180910390fd5b6040518060600160405280838152602001600067ffffffffffffffff8111156123fe577f4e487b7100000000000000000000000000000000000000000000000000000000600052604160045260246000fd5b60405190808252806020026020018201604052801561243157816020015b606081526020019060019003908161241c5790505b5081526020018281525060018360405161244b9190614440565b908152602001604051809103902060008201518160000190805190602001906124759291906139a6565b506020820151816001019080519060200190612492929190613946565b5060408201518160020190805190602001906124af929190613946565b509050506003829080600181540180825580915050600190039060005260206000200160009091909190915090805190602001906124ee9291906139a6565b50816040516124fd9190614440565b60405180910390207f64e45d769b067e3e2de0a2fbfa982b75ad4472af64e84e1c421ec5bbe695de0f82604051612534919061446e565b60405180910390a25050565b600460009054906101000a900473ffffffffffffffffffffffffffffffffffffffff1673ffffffffffffffffffffffffffffffffffffffff163373ffffffffffffffffffffffffffffffffffffffff16146125d0576040517f08c379a00000000000000000000000000000000000000000000000000000000081526004016125c790614639565b60405180910390fd5b806000836040516125e19190614440565b908152602001604051809103902060070190805190602001906126059291906139a6565b50816040516126149190614440565b60405180910390207fd7c1561b32410be5063d4ecbb122d75b71604c340791cb3a50b5345c7f62adc98260405161264b91906144cd565b60405180910390a25050565b6060806060600460009054906101000a900473ffffffffffffffffffffffffffffffffffffffff1673ffffffffffffffffffffffffffffffffffffffff163373ffffffffffffffffffffffffffffffffffffffff16146126ec576040517f08c379a00000000000000000000000000000000000000000000000000000000081526004016126e390614639565b60405180910390fd5b60006001856040516126fe9190614440565b9081526020016040518091039020600001805461271a90614885565b90501161275c576040517f08c379a000000000000000000000000000000000000000000000000000000000815260040161275390614659565b60405180910390fd5b600060018560405161276e9190614440565b908152602001604051809103902060405180606001604052908160008201805461279790614885565b80601f01602080910402602001604051908101604052809291908181526020018280546127c390614885565b80156128105780601f106127e557610100808354040283529160200191612810565b820191906000526020600020905b8154815290600101906020018083116127f357829003601f168201915b5050505050815260200160018201805480602002602001604051908101604052809291908181526020016000905b828210156128ea57838290600052602060002001805461285d90614885565b80601f016020809104026020016040519081016040528092919081815260200182805461288990614885565b80156128d65780601f106128ab576101008083540402835291602001916128d6565b820191906000526020600020905b8154815290600101906020018083116128b957829003601f168201915b50505050508152602001906001019061283e565b50505050815260200160028201805480602002602001604051908101604052809291908181526020016000905b828210156129c357838290600052602060002001805461293690614885565b80601f016020809104026020016040519081016040528092919081815260200182805461296290614885565b80156129af5780601f10612984576101008083540402835291602001916129af565b820191906000526020600020905b81548152906001019060200180831161299257829003601f168201915b505050505081526020019060010190612917565b50505050815250509050806000015181604001518260200151935093509350509193909250565b600460009054906101000a900473ffffffffffffffffffffffffffffffffffffffff1673ffffffffffffffffffffffffffffffffffffffff163373ffffffffffffffffffffffffffffffffffffffff1614612a7a576040517f08c379a0000000000000000000000000000000000000000000000000000000008152600401612a7190614639565b60405180910390fd5b60405180610140016040528085815260200184815260200183815260200182815260200182815260200160001515815260200160001515815260200160011515815260200160405180602001604052806000815250815260200160405180602001604052806000815250815250600085604051612af79190614440565b90815260200160405180910390206000820151816000019080519060200190612b219291906139a6565b506020820151816001019080519060200190612b3e9291906139a6565b506040820151816002019080519060200190612b5b929190613946565b506060820151816003019080519060200190612b789291906139a6565b506080820151816004019080519060200190612b959291906139a6565b5060a08201518160050160006101000a81548160ff02191690831515021790555060c08201518160050160016101000a81548160ff02191690831515021790555060e08201518160050160026101000a81548160ff021916908315150217905550610100820151816006019080519060200190612c139291906139a6565b50610120820151816007019080519060200190612c319291906139a6565b50905050600284908060018154018082558091505060019003906000526020600020016000909190919091509080519060200190612c709291906139a6565b50612cb06040518060400160405280600581526020017f557365727300000000000000000000000000000000000000000000000000000081525085612f9a565b83604051612cbe9190614440565b60405180910390207f270ff4b111e5baa49283562af127cc5ea74e9d6c9efd5465578bd9223d5843f060405160405180910390a260016002805490501415612d4057612d3f6040518060400160405280600e81526020017f41646d696e6973747261746f727300000000000000000000000000000000000081525085612f9a565b5b50505050565b600460009054906101000a900473ffffffffffffffffffffffffffffffffffffffff1673ffffffffffffffffffffffffffffffffffffffff163373ffffffffffffffffffffffffffffffffffffffff1614612dd6576040517f08c379a0000000000000000000000000000000000000000000000000000000008152600401612dcd90614639565b60405180910390fd5b80600083604051612de79190614440565b90815260200160405180910390206001019080519060200190612e0b9291906139a6565b5060008083604051612e1d9190614440565b908152602001604051809103902060050160016101000a81548160ff02191690831515021790555081604051612e539190614440565b60405180910390207fd0b43b0b96083c98cc0f0370575812de87ee48ff1bde30bcd74f3518443bc4f560405160405180910390a25050565b600460009054906101000a900473ffffffffffffffffffffffffffffffffffffffff1673ffffffffffffffffffffffffffffffffffffffff163373ffffffffffffffffffffffffffffffffffffffff1614612f1b576040517f08c379a0000000000000000000000000000000000000000000000000000000008152600401612f1290614639565b60405180910390fd5b6001600082604051612f2d9190614440565b908152602001604051809103902060050160016101000a81548160ff02191690831515021790555080604051612f639190614440565b60405180910390207f926f593dd22175375135b3fd9428c5d0298a5665da18756555b6af9f305ab9a660405160405180910390a250565b600460009054906101000a900473ffffffffffffffffffffffffffffffffffffffff1673ffffffffffffffffffffffffffffffffffffffff163373ffffffffffffffffffffffffffffffffffffffff161461302a576040517f08c379a000000000000000000000000000000000000000000000000000000000815260040161302190614639565b60405180910390fd5b600060018360405161303c9190614440565b9081526020016040518091039020600001805461305890614885565b90501161309a576040517f08c379a000000000000000000000000000000000000000000000000000000000815260040161309190614659565b60405180910390fd5b600080826040516130ab9190614440565b908152602001604051809103902060000180546130c790614885565b905011613109576040517f08c379a000000000000000000000000000000000000000000000000000000000815260040161310090614679565b60405180910390fd5b6001826040516131199190614440565b9081526020016040518091039020600101819080600181540180825580915050600190039060005260206000200160009091909190915090805190602001906131639291906139a6565b50806040516131729190614440565b60405180910390207f32475c6c091737c212dc5c54e3565db8aae94283f8b388d2c1dfe772b3f356e1836040516131a991906144cd565b60405180910390a25050565b6060600080836040516131c89190614440565b908152602001604051809103902060000180546131e490614885565b905011613226576040517f08c379a000000000000000000000000000000000000000000000000000000000815260040161321d90614679565b60405180910390fd5b600060038054905067ffffffffffffffff81111561326d577f4e487b7100000000000000000000000000000000000000000000000000000000600052604160045260246000fd5b6040519080825280602002602001820160405280156132a057816020015b606081526020019060019003908161328b5790505b5090506000805b6003805490508110156134d05760006001600383815481106132f2577f4e487b7100000000000000000000000000000000000000000000000000000000600052603260045260246000fd5b906000526020600020016040516133099190614457565b9081526020016040518091039020905060005b81600101805490508110156134bb578660405160200161333c9190614440565b6040516020818303038152906040528051906020012082600101828154811061338e577f4e487b7100000000000000000000000000000000000000000000000000000000600052603260045260246000fd5b906000526020600020016040516020016133a89190614457565b6040516020818303038152906040528051906020012014156134a8578160000180546133d390614885565b80601f01602080910402602001604051908101604052809291908181526020018280546133ff90614885565b801561344c5780601f106134215761010080835404028352916020019161344c565b820191906000526020600020905b81548152906001019060200180831161342f57829003601f168201915b505050505085858151811061348a577f4e487b7100000000000000000000000000000000000000000000000000000000600052603260045260246000fd5b602002602001018190525083806134a0906148b7565b9450506134bb565b80806134b3906148b7565b91505061331c565b505080806134c8906148b7565b9150506132a7565b506000603267ffffffffffffffff811115613514577f4e487b7100000000000000000000000000000000000000000000000000000000600052604160045260246000fd5b60405190808252806020026020018201604052801561354757816020015b60608152602001906001900390816135325790505b5090506000805b8381101561381c576000858281518110613591577f4e487b7100000000000000000000000000000000000000000000000000000000600052603260045260246000fd5b6020026020010151905060006001826040516135ad9190614440565b9081526020016040518091039020600201905060005b8180549050811015613806576000805b868110156136cd57838381548110613614577f4e487b7100000000000000000000000000000000000000000000000000000000600052603260045260246000fd5b9060005260206000200160405160200161362e9190614457565b6040516020818303038152906040528051906020012088828151811061367d577f4e487b7100000000000000000000000000000000000000000000000000000000600052603260045260246000fd5b60200260200101516040516020016136959190614440565b6040516020818303038152906040528051906020012014156136ba57600191506136cd565b80806136c5906148b7565b9150506135d3565b50806137f25782828154811061370c577f4e487b7100000000000000000000000000000000000000000000000000000000600052603260045260246000fd5b90600052602060002001805461372190614885565b80601f016020809104026020016040519081016040528092919081815260200182805461374d90614885565b801561379a5780601f1061376f5761010080835404028352916020019161379a565b820191906000526020600020905b81548152906001019060200180831161377d57829003601f168201915b50505050508787815181106137d8577f4e487b7100000000000000000000000000000000000000000000000000000000600052603260045260246000fd5b602002602001018190525085806137ee906148b7565b9650505b5080806137fe906148b7565b9150506135c3565b5050508080613814906148b7565b91505061354e565b5060008167ffffffffffffffff81111561385f577f4e487b7100000000000000000000000000000000000000000000000000000000600052604160045260246000fd5b60405190808252806020026020018201604052801561389257816020015b606081526020019060019003908161387d5790505b50905060005b82811015613938578381815181106138d9577f4e487b7100000000000000000000000000000000000000000000000000000000600052603260045260246000fd5b602002602001015182828151811061391a577f4e487b7100000000000000000000000000000000000000000000000000000000600052603260045260246000fd5b60200260200101819052508080613930906148b7565b915050613898565b508095505050505050919050565b828054828255906000526020600020908101928215613995579160200282015b828111156139945782518290805190602001906139849291906139a6565b5091602001919060010190613966565b5b5090506139a29190613c0f565b5090565b8280546139b290614885565b90600052602060002090601f0160209004810192826139d45760008555613a1b565b82601f106139ed57805160ff1916838001178555613a1b565b82800160010185558215613a1b579182015b82811115613a1a5782518255916020019190600101906139ff565b5b509050613a289190613c33565b5090565b828054613a3890614885565b90600052602060002090601f016020900481019282613a5a5760008555613aa8565b82601f10613a6b5780548555613aa8565b82800160010185558215613aa857600052602060002091601f016020900482015b82811115613aa7578254825591600101919060010190613a8c565b5b509050613ab59190613c33565b5090565b828054828255906000526020600020908101928215613b105760005260206000209182015b82811115613b0f578282908054613af490614885565b613aff929190613a2c565b5091600101919060010190613ade565b5b509050613b1d9190613c0f565b5090565b508054613b2d90614885565b6000825580601f10613b3f5750613b5e565b601f016020900490600052602060002090810190613b5d9190613c33565b5b50565b5080546000825590600052602060002090810190613b7f9190613c0f565b50565b828054613b8e90614885565b90600052602060002090601f016020900481019282613bb05760008555613bfe565b82601f10613bc15780548555613bfe565b82800160010185558215613bfe57600052602060002091601f016020900482015b82811115613bfd578254825591600101919060010190613be2565b5b509050613c0b9190613c33565b5090565b5b80821115613c2f5760008181613c269190613b21565b50600101613c10565b5090565b5b80821115613c4c576000816000905550600101613c34565b5090565b6000613c63613c5e846146ea565b6146b9565b9050808382526020820190508260005b85811015613ca35781358501613c898882613d15565b845260208401935060208301925050600181019050613c73565b5050509392505050565b6000613cc0613cbb84614716565b6146b9565b905082815260208101848484011115613cd857600080fd5b613ce3848285614843565b509392505050565b600082601f830112613cfc57600080fd5b8135613d0c848260208601613c50565b91505092915050565b600082601f830112613d2657600080fd5b8135613d36848260208601613cad565b91505092915050565b600060208284031215613d5157600080fd5b600082013567ffffffffffffffff811115613d6b57600080fd5b613d7784828501613d15565b91505092915050565b60008060408385031215613d9357600080fd5b600083013567ffffffffffffffff811115613dad57600080fd5b613db985828601613d15565b925050602083013567ffffffffffffffff811115613dd657600080fd5b613de285828601613ceb565b9150509250929050565b60008060408385031215613dff57600080fd5b600083013567ffffffffffffffff811115613e1957600080fd5b613e2585828601613d15565b925050602083013567ffffffffffffffff811115613e4257600080fd5b613e4e85828601613d15565b9150509250929050565b600080600060608486031215613e6d57600080fd5b600084013567ffffffffffffffff811115613e8757600080fd5b613e9386828701613d15565b935050602084013567ffffffffffffffff811115613eb057600080fd5b613ebc86828701613d15565b925050604084013567ffffffffffffffff811115613ed957600080fd5b613ee586828701613ceb565b9150509250925092565b60008060008060808587031215613f0557600080fd5b600085013567ffffffffffffffff811115613f1f57600080fd5b613f2b87828801613d15565b945050602085013567ffffffffffffffff811115613f4857600080fd5b613f5487828801613d15565b935050604085013567ffffffffffffffff811115613f7157600080fd5b613f7d87828801613ceb565b925050606085013567ffffffffffffffff811115613f9a57600080fd5b613fa687828801613d15565b91505092959194509250565b6000613fbe83836140d2565b905092915050565b6000613fd28383614175565b905092915050565b6000613fe582614780565b613fef81856147bb565b93508360208202850161400185614746565b8060005b8581101561403d578484038952815161401e8582613fb2565b9450614029836147a1565b925060208a01995050600181019050614005565b50829750879550505050505092915050565b600061405a8261478b565b61406481856147bb565b93508360208202850161407685614756565b8060005b858110156140b1578484038952816140928582613fc6565b945061409d836147ae565b925060208a0199505060018101905061407a565b50829750879550505050505092915050565b6140cc8161482d565b82525050565b60006140dd82614796565b6140e781856147cc565b93506140f7818560208601614852565b6141008161498d565b840191505092915050565b600061411682614796565b61412081856147dd565b9350614130818560208601614852565b6141398161498d565b840191505092915050565b600061414f82614796565b61415981856147ee565b9350614169818560208601614852565b80840191505092915050565b6000815461418281614885565b61418c81866147cc565b945060018216600081146141a757600181146141b9576141ec565b60ff19831686526020860193506141ec565b6141c28561476b565b60005b838110156141e4578154818901526001820191506020810190506141c5565b808801955050505b50505092915050565b6000815461420281614885565b61420c81866147ee565b9450600182166000811461422757600181146142385761426b565b60ff1983168652818601935061426b565b6142418561476b565b60005b8381101561426357815481890152600182019150602081019050614244565b838801955050505b50505092915050565b60006142816020836147dd565b91507f47726f7570206e6f7420666f756e6420696e20616c6c47726f75704e616d65736000830152602082019050919050565b60006142c1602f836147dd565b91507f4d6f64696679696e6720636f72652067726f7570207065726d697373696f6e7360008301527f206973206e6f7420616c6c6f77656400000000000000000000000000000000006020830152604082019050919050565b6000614327602f836147dd565b91507f4f6e6c792074686520636f6e7472616374206f776e65722063616e207065726660008301527f6f726d207468697320616374696f6e00000000000000000000000000000000006020830152604082019050919050565b600061438d6014836147dd565b91507f47726f757020646f6573206e6f742065786973740000000000000000000000006000830152602082019050919050565b60006143cd6013836147dd565b91507f5573657220646f6573206e6f74206578697374000000000000000000000000006000830152602082019050919050565b600061440d6019836147dd565b91507f55736572206973206e6f7420696e20746869732067726f7570000000000000006000830152602082019050919050565b600061444c8284614144565b915081905092915050565b600061446382846141f5565b915081905092915050565b600060208201905081810360008301526144888184613fda565b905092915050565b600060208201905081810360008301526144aa818461404f565b905092915050565b60006020820190506144c760008301846140c3565b92915050565b600060208201905081810360008301526144e7818461410b565b905092915050565b60006060820190508181036000830152614509818661410b565b9050818103602083015261451d8185613fda565b905081810360408301526145318184613fda565b9050949350505050565b6000610120820190508181036000830152614556818c61410b565b9050818103602083015261456a818b61410b565b9050818103604083015261457e818a613fda565b90508181036060830152614592818961410b565b905081810360808301526145a6818861410b565b90506145b560a08301876140c3565b6145c260c08301866140c3565b81810360e08301526145d4818561410b565b90508181036101008301526145e9818461410b565b90509a9950505050505050505050565b6000602082019050818103600083015261461281614274565b9050919050565b60006020820190508181036000830152614632816142b4565b9050919050565b600060208201905081810360008301526146528161431a565b9050919050565b6000602082019050818103600083015261467281614380565b9050919050565b60006020820190508181036000830152614692816143c0565b9050919050565b600060208201905081810360008301526146b281614400565b9050919050565b6000604051905081810181811067ffffffffffffffff821117156146e0576146df61495e565b5b8060405250919050565b600067ffffffffffffffff8211156147055761470461495e565b5b602082029050602081019050919050565b600067ffffffffffffffff8211156147315761473061495e565b5b601f19601f8301169050602081019050919050565b6000819050602082019050919050565b60008190508160005260206000209050919050565b60008190508160005260206000209050919050565b600081519050919050565b600081549050919050565b600081519050919050565b6000602082019050919050565b6000600182019050919050565b600082825260208201905092915050565b600082825260208201905092915050565b600082825260208201905092915050565b600081905092915050565b600061480482614839565b915061480f83614839565b92508282101561482257614821614900565b5b828203905092915050565b60008115159050919050565b6000819050919050565b82818337600083830152505050565b60005b83811015614870578082015181840152602081019050614855565b8381111561487f576000848401525b50505050565b6000600282049050600182168061489d57607f821691505b602082108114156148b1576148b061492f565b5b50919050565b60006148c282614839565b91507fffffffffffffffffffffffffffffffffffffffffffffffffffffffffffffffff8214156148f5576148f4614900565b5b600182019050919050565b7f4e487b7100000000000000000000000000000000000000000000000000000000600052601160045260246000fd5b7f4e487b7100000000000000000000000000000000000000000000000000000000600052602260045260246000fd5b7f4e487b7100000000000000000000000000000000000000000000000000000000600052604160045260246000fd5b6000601f19601f830116905091905056fea26469706673582212200902cf44567f27d7c2521375d8765c1574e365100e2a2a9e009588a9756b1d3c64736f6c63430008000033","opcodes":"PUSH1 0x80 PUSH1 0x40 MSTORE CALLVALUE DUP1 ISZERO PUSH3 0x11 JUMPI PUSH1 0x0 DUP1 REVERT JUMPDEST POP CALLER PUSH1 0x4 PUSH1 0x0 PUSH2 0x100 EXP DUP2 SLOAD DUP2 PUSH20 0xFFFFFFFFFFFFFFFFFFFFFFFFFFFFFFFFFFFFFFFF MUL NOT AND SWAP1 DUP4 PUSH20 0xFFFFFFFFFFFFFFFFFFFFFFFFFFFFFFFFFFFFFFFF AND MUL OR SWAP1 SSTORE POP PUSH1 0x0 PUSH1 0x40 MLOAD DUP1 PUSH1 0x80 ADD PUSH1 0x40 MSTORE DUP1 PUSH1 0x40 MLOAD DUP1 PUSH1 0x40 ADD PUSH1 0x40 MSTORE DUP1 PUSH1 0x15 DUP2 MSTORE PUSH1 0x20 ADD PUSH32 0x466163654775617264204372656174653A20416C6C0000000000000000000000 DUP2 MSTORE POP DUP2 MSTORE PUSH1 0x20 ADD PUSH1 0x40 MLOAD DUP1 PUSH1 0x40 ADD PUSH1 0x40 MSTORE DUP1 PUSH1 0x13 DUP2 MSTORE PUSH1 0x20 ADD PUSH32 0x46616365477561726420526561643A20416C6C00000000000000000000000000 DUP2 MSTORE POP DUP2 MSTORE PUSH1 0x20 ADD PUSH1 0x40 MLOAD DUP1 PUSH1 0x40 ADD PUSH1 0x40 MSTORE DUP1 PUSH1 0x15 DUP2 MSTORE PUSH1 0x20 ADD PUSH32 0x466163654775617264205570646174653A20416C6C0000000000000000000000 DUP2 MSTORE POP DUP2 MSTORE PUSH1 0x20 ADD PUSH1 0x40 MLOAD DUP1 PUSH1 0x40 ADD PUSH1 0x40 MSTORE DUP1 PUSH1 0x15 DUP2 MSTORE PUSH1 0x20 ADD PUSH32 0x4661636547756172642044656C6574653A20416C6C0000000000000000000000 DUP2 MSTORE POP DUP2 MSTORE POP SWAP1 POP PUSH1 0x0 PUSH1 0x40 MLOAD DUP1 PUSH1 0x60 ADD PUSH1 0x40 MSTORE DUP1 PUSH1 0x40 MLOAD DUP1 PUSH1 0x40 ADD PUSH1 0x40 MSTORE DUP1 PUSH1 0x14 DUP2 MSTORE PUSH1 0x20 ADD PUSH32 0x46616365477561726420526561643A2053656C66000000000000000000000000 DUP2 MSTORE POP DUP2 MSTORE PUSH1 0x20 ADD PUSH1 0x40 MLOAD DUP1 PUSH1 0x40 ADD PUSH1 0x40 MSTORE DUP1 PUSH1 0x16 DUP2 MSTORE PUSH1 0x20 ADD PUSH32 0x466163654775617264205570646174653A2053656C6600000000000000000000 DUP2 MSTORE POP DUP2 MSTORE PUSH1 0x20 ADD PUSH1 0x40 MLOAD DUP1 PUSH1 0x40 ADD PUSH1 0x40 MSTORE DUP1 PUSH1 0x16 DUP2 MSTORE PUSH1 0x20 ADD PUSH32 0x4661636547756172642044656C6574653A2053656C6600000000000000000000 DUP2 MSTORE POP DUP2 MSTORE POP SWAP1 POP PUSH1 0x0 PUSH1 0x40 MLOAD DUP1 PUSH1 0x80 ADD PUSH1 0x40 MSTORE DUP1 PUSH1 0x40 MLOAD DUP1 PUSH1 0x40 ADD PUSH1 0x40 MSTORE DUP1 PUSH1 0x18 DUP2 MSTORE PUSH1 0x20 ADD PUSH32 0x466163654775617264204372656174653A2047726F7570730000000000000000 DUP2 MSTORE POP DUP2 MSTORE PUSH1 0x20 ADD PUSH1 0x40 MLOAD DUP1 PUSH1 0x40 ADD PUSH1 0x40 MSTORE DUP1 PUSH1 0x16 DUP2 MSTORE PUSH1 0x20 ADD PUSH32 0x46616365477561726420526561643A2047726F75707300000000000000000000 DUP2 MSTORE POP DUP2 MSTORE PUSH1 0x20 ADD PUSH1 0x40 MLOAD DUP1 PUSH1 0x40 ADD PUSH1 0x40 MSTORE DUP1 PUSH1 0x18 DUP2 MSTORE PUSH1 0x20 ADD PUSH32 0x466163654775617264205570646174653A2047726F7570730000000000000000 DUP2 MSTORE POP DUP2 MSTORE PUSH1 0x20 ADD PUSH1 0x40 MLOAD DUP1 PUSH1 0x40 ADD PUSH1 0x40 MSTORE DUP1 PUSH1 0x18 DUP2 MSTORE PUSH1 0x20 ADD PUSH32 0x4661636547756172642044656C6574653A2047726F7570730000000000000000 DUP2 MSTORE POP DUP2 MSTORE POP SWAP1 POP PUSH1 0x0 PUSH1 0x40 MLOAD DUP1 PUSH1 0x80 ADD PUSH1 0x40 MSTORE DUP1 PUSH1 0x40 MLOAD DUP1 PUSH1 0x40 ADD PUSH1 0x40 MSTORE DUP1 PUSH1 0x17 DUP2 MSTORE PUSH1 0x20 ADD PUSH32 0x466163654775617264204372656174653A205573657273000000000000000000 DUP2 MSTORE POP DUP2 MSTORE PUSH1 0x20 ADD PUSH1 0x40 MLOAD DUP1 PUSH1 0x40 ADD PUSH1 0x40 MSTORE DUP1 PUSH1 0x15 DUP2 MSTORE PUSH1 0x20 ADD PUSH32 0x46616365477561726420526561643A2055736572730000000000000000000000 DUP2 MSTORE POP DUP2 MSTORE PUSH1 0x20 ADD PUSH1 0x40 MLOAD DUP1 PUSH1 0x40 ADD PUSH1 0x40 MSTORE DUP1 PUSH1 0x17 DUP2 MSTORE PUSH1 0x20 ADD PUSH32 0x466163654775617264205570646174653A205573657273000000000000000000 DUP2 MSTORE POP DUP2 MSTORE PUSH1 0x20 ADD PUSH1 0x40 MLOAD DUP1 PUSH1 0x40 ADD PUSH1 0x40 MSTORE DUP1 PUSH1 0x17 DUP2 MSTORE PUSH1 0x20 ADD PUSH32 0x4661636547756172642044656C6574653A205573657273000000000000000000 DUP2 MSTORE POP DUP2 MSTORE POP SWAP1 POP PUSH3 0x453 PUSH1 0x40 MLOAD DUP1 PUSH1 0x40 ADD PUSH1 0x40 MSTORE DUP1 PUSH1 0xE DUP2 MSTORE PUSH1 0x20 ADD PUSH32 0x41646D696E6973747261746F7273000000000000000000000000000000000000 DUP2 MSTORE POP PUSH3 0x447 DUP7 PUSH3 0x562 PUSH1 0x20 SHL PUSH1 0x20 SHR JUMP JUMPDEST PUSH3 0x691 PUSH1 0x20 SHL PUSH1 0x20 SHR JUMP JUMPDEST PUSH3 0x4AA PUSH1 0x40 MLOAD DUP1 PUSH1 0x40 ADD PUSH1 0x40 MSTORE DUP1 PUSH1 0x5 DUP2 MSTORE PUSH1 0x20 ADD PUSH32 0x5573657273000000000000000000000000000000000000000000000000000000 DUP2 MSTORE POP PUSH3 0x49E DUP6 PUSH3 0x8C9 PUSH1 0x20 SHL PUSH1 0x20 SHR JUMP JUMPDEST PUSH3 0x691 PUSH1 0x20 SHL PUSH1 0x20 SHR JUMP JUMPDEST PUSH3 0x501 PUSH1 0x40 MLOAD DUP1 PUSH1 0x40 ADD PUSH1 0x40 MSTORE DUP1 PUSH1 0xE DUP2 MSTORE PUSH1 0x20 ADD PUSH32 0x47726F7570204D616E6167657273000000000000000000000000000000000000 DUP2 MSTORE POP PUSH3 0x4F5 DUP5 PUSH3 0x562 PUSH1 0x20 SHL PUSH1 0x20 SHR JUMP JUMPDEST PUSH3 0x691 PUSH1 0x20 SHL PUSH1 0x20 SHR JUMP JUMPDEST PUSH3 0x558 PUSH1 0x40 MLOAD DUP1 PUSH1 0x40 ADD PUSH1 0x40 MSTORE DUP1 PUSH1 0xD DUP2 MSTORE PUSH1 0x20 ADD PUSH32 0x55736572204D616E616765727300000000000000000000000000000000000000 DUP2 MSTORE POP PUSH3 0x54C DUP4 PUSH3 0x562 PUSH1 0x20 SHL PUSH1 0x20 SHR JUMP JUMPDEST PUSH3 0x691 PUSH1 0x20 SHL PUSH1 0x20 SHR JUMP JUMPDEST POP POP POP POP PUSH3 0xEF7 JUMP JUMPDEST PUSH1 0x60 PUSH1 0x0 PUSH1 0x4 PUSH8 0xFFFFFFFFFFFFFFFF DUP2 GT ISZERO PUSH3 0x5A8 JUMPI PUSH32 0x4E487B7100000000000000000000000000000000000000000000000000000000 PUSH1 0x0 MSTORE PUSH1 0x41 PUSH1 0x4 MSTORE PUSH1 0x24 PUSH1 0x0 REVERT JUMPDEST PUSH1 0x40 MLOAD SWAP1 DUP1 DUP3 MSTORE DUP1 PUSH1 0x20 MUL PUSH1 0x20 ADD DUP3 ADD PUSH1 0x40 MSTORE DUP1 ISZERO PUSH3 0x5DD JUMPI DUP2 PUSH1 0x20 ADD JUMPDEST PUSH1 0x60 DUP2 MSTORE PUSH1 0x20 ADD SWAP1 PUSH1 0x1 SWAP1 SUB SWAP1 DUP2 PUSH3 0x5C7 JUMPI SWAP1 POP JUMPDEST POP SWAP1 POP PUSH1 0x0 JUMPDEST PUSH1 0x4 DUP2 LT ISZERO PUSH3 0x687 JUMPI DUP4 DUP2 PUSH1 0x4 DUP2 LT PUSH3 0x627 JUMPI PUSH32 0x4E487B7100000000000000000000000000000000000000000000000000000000 PUSH1 0x0 MSTORE PUSH1 0x32 PUSH1 0x4 MSTORE PUSH1 0x24 PUSH1 0x0 REVERT JUMPDEST PUSH1 0x20 MUL ADD MLOAD DUP3 DUP3 DUP2 MLOAD DUP2 LT PUSH3 0x666 JUMPI PUSH32 0x4E487B7100000000000000000000000000000000000000000000000000000000 PUSH1 0x0 MSTORE PUSH1 0x32 PUSH1 0x4 MSTORE PUSH1 0x24 PUSH1 0x0 REVERT JUMPDEST PUSH1 0x20 MUL PUSH1 0x20 ADD ADD DUP2 SWAP1 MSTORE POP DUP1 DUP1 PUSH3 0x67E SWAP1 PUSH3 0xE3A JUMP JUMPDEST SWAP2 POP POP PUSH3 0x5E3 JUMP JUMPDEST POP DUP1 SWAP2 POP POP SWAP2 SWAP1 POP JUMP JUMPDEST PUSH1 0x4 PUSH1 0x0 SWAP1 SLOAD SWAP1 PUSH2 0x100 EXP SWAP1 DIV PUSH20 0xFFFFFFFFFFFFFFFFFFFFFFFFFFFFFFFFFFFFFFFF AND PUSH20 0xFFFFFFFFFFFFFFFFFFFFFFFFFFFFFFFFFFFFFFFF AND CALLER PUSH20 0xFFFFFFFFFFFFFFFFFFFFFFFFFFFFFFFFFFFFFFFF AND EQ PUSH3 0x724 JUMPI PUSH1 0x40 MLOAD PUSH32 0x8C379A000000000000000000000000000000000000000000000000000000000 DUP2 MSTORE PUSH1 0x4 ADD PUSH3 0x71B SWAP1 PUSH3 0xD31 JUMP JUMPDEST PUSH1 0x40 MLOAD DUP1 SWAP2 SUB SWAP1 REVERT JUMPDEST PUSH1 0x40 MLOAD DUP1 PUSH1 0x60 ADD PUSH1 0x40 MSTORE DUP1 DUP4 DUP2 MSTORE PUSH1 0x20 ADD PUSH1 0x0 PUSH8 0xFFFFFFFFFFFFFFFF DUP2 GT ISZERO PUSH3 0x777 JUMPI PUSH32 0x4E487B7100000000000000000000000000000000000000000000000000000000 PUSH1 0x0 MSTORE PUSH1 0x41 PUSH1 0x4 MSTORE PUSH1 0x24 PUSH1 0x0 REVERT JUMPDEST PUSH1 0x40 MLOAD SWAP1 DUP1 DUP3 MSTORE DUP1 PUSH1 0x20 MUL PUSH1 0x20 ADD DUP3 ADD PUSH1 0x40 MSTORE DUP1 ISZERO PUSH3 0x7AC JUMPI DUP2 PUSH1 0x20 ADD JUMPDEST PUSH1 0x60 DUP2 MSTORE PUSH1 0x20 ADD SWAP1 PUSH1 0x1 SWAP1 SUB SWAP1 DUP2 PUSH3 0x796 JUMPI SWAP1 POP JUMPDEST POP DUP2 MSTORE PUSH1 0x20 ADD DUP3 DUP2 MSTORE POP PUSH1 0x1 DUP4 PUSH1 0x40 MLOAD PUSH3 0x7C8 SWAP2 SWAP1 PUSH3 0xCF4 JUMP JUMPDEST SWAP1 DUP2 MSTORE PUSH1 0x20 ADD PUSH1 0x40 MLOAD DUP1 SWAP2 SUB SWAP1 KECCAK256 PUSH1 0x0 DUP3 ADD MLOAD DUP2 PUSH1 0x0 ADD SWAP1 DUP1 MLOAD SWAP1 PUSH1 0x20 ADD SWAP1 PUSH3 0x7F4 SWAP3 SWAP2 SWAP1 PUSH3 0x9F8 JUMP JUMPDEST POP PUSH1 0x20 DUP3 ADD MLOAD DUP2 PUSH1 0x1 ADD SWAP1 DUP1 MLOAD SWAP1 PUSH1 0x20 ADD SWAP1 PUSH3 0x813 SWAP3 SWAP2 SWAP1 PUSH3 0xA89 JUMP JUMPDEST POP PUSH1 0x40 DUP3 ADD MLOAD DUP2 PUSH1 0x2 ADD SWAP1 DUP1 MLOAD SWAP1 PUSH1 0x20 ADD SWAP1 PUSH3 0x832 SWAP3 SWAP2 SWAP1 PUSH3 0xA89 JUMP JUMPDEST POP SWAP1 POP POP PUSH1 0x3 DUP3 SWAP1 DUP1 PUSH1 0x1 DUP2 SLOAD ADD DUP1 DUP3 SSTORE DUP1 SWAP2 POP POP PUSH1 0x1 SWAP1 SUB SWAP1 PUSH1 0x0 MSTORE PUSH1 0x20 PUSH1 0x0 KECCAK256 ADD PUSH1 0x0 SWAP1 SWAP2 SWAP1 SWAP2 SWAP1 SWAP2 POP SWAP1 DUP1 MLOAD SWAP1 PUSH1 0x20 ADD SWAP1 PUSH3 0x873 SWAP3 SWAP2 SWAP1 PUSH3 0x9F8 JUMP JUMPDEST POP DUP2 PUSH1 0x40 MLOAD PUSH3 0x884 SWAP2 SWAP1 PUSH3 0xCF4 JUMP JUMPDEST PUSH1 0x40 MLOAD DUP1 SWAP2 SUB SWAP1 KECCAK256 PUSH32 0x64E45D769B067E3E2DE0A2FBFA982B75AD4472AF64E84E1C421EC5BBE695DE0F DUP3 PUSH1 0x40 MLOAD PUSH3 0x8BD SWAP2 SWAP1 PUSH3 0xD0D JUMP JUMPDEST PUSH1 0x40 MLOAD DUP1 SWAP2 SUB SWAP1 LOG2 POP POP JUMP JUMPDEST PUSH1 0x60 PUSH1 0x0 PUSH1 0x3 PUSH8 0xFFFFFFFFFFFFFFFF DUP2 GT ISZERO PUSH3 0x90F JUMPI PUSH32 0x4E487B7100000000000000000000000000000000000000000000000000000000 PUSH1 0x0 MSTORE PUSH1 0x41 PUSH1 0x4 MSTORE PUSH1 0x24 PUSH1 0x0 REVERT JUMPDEST PUSH1 0x40 MLOAD SWAP1 DUP1 DUP3 MSTORE DUP1 PUSH1 0x20 MUL PUSH1 0x20 ADD DUP3 ADD PUSH1 0x40 MSTORE DUP1 ISZERO PUSH3 0x944 JUMPI DUP2 PUSH1 0x20 ADD JUMPDEST PUSH1 0x60 DUP2 MSTORE PUSH1 0x20 ADD SWAP1 PUSH1 0x1 SWAP1 SUB SWAP1 DUP2 PUSH3 0x92E JUMPI SWAP1 POP JUMPDEST POP SWAP1 POP PUSH1 0x0 JUMPDEST PUSH1 0x3 DUP2 LT ISZERO PUSH3 0x9EE JUMPI DUP4 DUP2 PUSH1 0x3 DUP2 LT PUSH3 0x98E JUMPI PUSH32 0x4E487B7100000000000000000000000000000000000000000000000000000000 PUSH1 0x0 MSTORE PUSH1 0x32 PUSH1 0x4 MSTORE PUSH1 0x24 PUSH1 0x0 REVERT JUMPDEST PUSH1 0x20 MUL ADD MLOAD DUP3 DUP3 DUP2 MLOAD DUP2 LT PUSH3 0x9CD JUMPI PUSH32 0x4E487B7100000000000000000000000000000000000000000000000000000000 PUSH1 0x0 MSTORE PUSH1 0x32 PUSH1 0x4 MSTORE PUSH1 0x24 PUSH1 0x0 REVERT JUMPDEST PUSH1 0x20 MUL PUSH1 0x20 ADD ADD DUP2 SWAP1 MSTORE POP DUP1 DUP1 PUSH3 0x9E5 SWAP1 PUSH3 0xE3A JUMP JUMPDEST SWAP2 POP POP PUSH3 0x94A JUMP JUMPDEST POP DUP1 SWAP2 POP POP SWAP2 SWAP1 POP JUMP JUMPDEST DUP3 DUP1 SLOAD PUSH3 0xA06 SWAP1 PUSH3 0xE04 JUMP JUMPDEST SWAP1 PUSH1 0x0 MSTORE PUSH1 0x20 PUSH1 0x0 KECCAK256 SWAP1 PUSH1 0x1F ADD PUSH1 0x20 SWAP1 DIV DUP2 ADD SWAP3 DUP3 PUSH3 0xA2A JUMPI PUSH1 0x0 DUP6 SSTORE PUSH3 0xA76 JUMP JUMPDEST DUP3 PUSH1 0x1F LT PUSH3 0xA45 JUMPI DUP1 MLOAD PUSH1 0xFF NOT AND DUP4 DUP1 ADD OR DUP6 SSTORE PUSH3 0xA76 JUMP JUMPDEST DUP3 DUP1 ADD PUSH1 0x1 ADD DUP6 SSTORE DUP3 ISZERO PUSH3 0xA76 JUMPI SWAP2 DUP3 ADD JUMPDEST DUP3 DUP2 GT ISZERO PUSH3 0xA75 JUMPI DUP3 MLOAD DUP3 SSTORE SWAP2 PUSH1 0x20 ADD SWAP2 SWAP1 PUSH1 0x1 ADD SWAP1 PUSH3 0xA58 JUMP JUMPDEST JUMPDEST POP SWAP1 POP PUSH3 0xA85 SWAP2 SWAP1 PUSH3 0xAF0 JUMP JUMPDEST POP SWAP1 JUMP JUMPDEST DUP3 DUP1 SLOAD DUP3 DUP3 SSTORE SWAP1 PUSH1 0x0 MSTORE PUSH1 0x20 PUSH1 0x0 KECCAK256 SWAP1 DUP2 ADD SWAP3 DUP3 ISZERO PUSH3 0xADD JUMPI SWAP2 PUSH1 0x20 MUL DUP3 ADD JUMPDEST DUP3 DUP2 GT ISZERO PUSH3 0xADC JUMPI DUP3 MLOAD DUP3 SWAP1 DUP1 MLOAD SWAP1 PUSH1 0x20 ADD SWAP1 PUSH3 0xACB SWAP3 SWAP2 SWAP1 PUSH3 0x9F8 JUMP JUMPDEST POP SWAP2 PUSH1 0x20 ADD SWAP2 SWAP1 PUSH1 0x1 ADD SWAP1 PUSH3 0xAAA JUMP JUMPDEST JUMPDEST POP SWAP1 POP PUSH3 0xAEC SWAP2 SWAP1 PUSH3 0xB0F JUMP JUMPDEST POP SWAP1 JUMP JUMPDEST JUMPDEST DUP1 DUP3 GT ISZERO PUSH3 0xB0B JUMPI PUSH1 0x0 DUP2 PUSH1 0x0 SWAP1 SSTORE POP PUSH1 0x1 ADD PUSH3 0xAF1 JUMP JUMPDEST POP SWAP1 JUMP JUMPDEST JUMPDEST DUP1 DUP3 GT ISZERO PUSH3 0xB33 JUMPI PUSH1 0x0 DUP2 DUP2 PUSH3 0xB29 SWAP2 SWAP1 PUSH3 0xB37 JUMP JUMPDEST POP PUSH1 0x1 ADD PUSH3 0xB10 JUMP JUMPDEST POP SWAP1 JUMP JUMPDEST POP DUP1 SLOAD PUSH3 0xB45 SWAP1 PUSH3 0xE04 JUMP JUMPDEST PUSH1 0x0 DUP3 SSTORE DUP1 PUSH1 0x1F LT PUSH3 0xB59 JUMPI POP PUSH3 0xB7A JUMP JUMPDEST PUSH1 0x1F ADD PUSH1 0x20 SWAP1 DIV SWAP1 PUSH1 0x0 MSTORE PUSH1 0x20 PUSH1 0x0 KECCAK256 SWAP1 DUP2 ADD SWAP1 PUSH3 0xB79 SWAP2 SWAP1 PUSH3 0xAF0 JUMP JUMPDEST JUMPDEST POP JUMP JUMPDEST PUSH1 0x0 PUSH3 0xB8B DUP4 DUP4 PUSH3 0xC14 JUMP JUMPDEST SWAP1 POP SWAP3 SWAP2 POP POP JUMP JUMPDEST PUSH1 0x0 PUSH3 0xBA0 DUP3 PUSH3 0xD63 JUMP JUMPDEST PUSH3 0xBAC DUP2 DUP6 PUSH3 0xD86 JUMP JUMPDEST SWAP4 POP DUP4 PUSH1 0x20 DUP3 MUL DUP6 ADD PUSH3 0xBC0 DUP6 PUSH3 0xD53 JUMP JUMPDEST DUP1 PUSH1 0x0 JUMPDEST DUP6 DUP2 LT ISZERO PUSH3 0xC02 JUMPI DUP5 DUP5 SUB DUP10 MSTORE DUP2 MLOAD PUSH3 0xBE0 DUP6 DUP3 PUSH3 0xB7D JUMP JUMPDEST SWAP5 POP PUSH3 0xBED DUP4 PUSH3 0xD79 JUMP JUMPDEST SWAP3 POP PUSH1 0x20 DUP11 ADD SWAP10 POP POP PUSH1 0x1 DUP2 ADD SWAP1 POP PUSH3 0xBC4 JUMP JUMPDEST POP DUP3 SWAP8 POP DUP8 SWAP6 POP POP POP POP POP POP SWAP3 SWAP2 POP POP JUMP JUMPDEST PUSH1 0x0 PUSH3 0xC21 DUP3 PUSH3 0xD6E JUMP JUMPDEST PUSH3 0xC2D DUP2 DUP6 PUSH3 0xD97 JUMP JUMPDEST SWAP4 POP PUSH3 0xC3F DUP2 DUP6 PUSH1 0x20 DUP7 ADD PUSH3 0xDCE JUMP JUMPDEST PUSH3 0xC4A DUP2 PUSH3 0xEE6 JUMP JUMPDEST DUP5 ADD SWAP2 POP POP SWAP3 SWAP2 POP POP JUMP JUMPDEST PUSH1 0x0 PUSH3 0xC62 DUP3 PUSH3 0xD6E JUMP JUMPDEST PUSH3 0xC6E DUP2 DUP6 PUSH3 0xDB9 JUMP JUMPDEST SWAP4 POP PUSH3 0xC80 DUP2 DUP6 PUSH1 0x20 DUP7 ADD PUSH3 0xDCE JUMP JUMPDEST DUP1 DUP5 ADD SWAP2 POP POP SWAP3 SWAP2 POP POP JUMP JUMPDEST PUSH1 0x0 PUSH3 0xC9B PUSH1 0x2F DUP4 PUSH3 0xDA8 JUMP JUMPDEST SWAP2 POP PUSH32 0x4F6E6C792074686520636F6E7472616374206F776E65722063616E2070657266 PUSH1 0x0 DUP4 ADD MSTORE PUSH32 0x6F726D207468697320616374696F6E0000000000000000000000000000000000 PUSH1 0x20 DUP4 ADD MSTORE PUSH1 0x40 DUP3 ADD SWAP1 POP SWAP2 SWAP1 POP JUMP JUMPDEST PUSH1 0x0 PUSH3 0xD02 DUP3 DUP5 PUSH3 0xC55 JUMP JUMPDEST SWAP2 POP DUP2 SWAP1 POP SWAP3 SWAP2 POP POP JUMP JUMPDEST PUSH1 0x0 PUSH1 0x20 DUP3 ADD SWAP1 POP DUP2 DUP2 SUB PUSH1 0x0 DUP4 ADD MSTORE PUSH3 0xD29 DUP2 DUP5 PUSH3 0xB93 JUMP JUMPDEST SWAP1 POP SWAP3 SWAP2 POP POP JUMP JUMPDEST PUSH1 0x0 PUSH1 0x20 DUP3 ADD SWAP1 POP DUP2 DUP2 SUB PUSH1 0x0 DUP4 ADD MSTORE PUSH3 0xD4C DUP2 PUSH3 0xC8C JUMP JUMPDEST SWAP1 POP SWAP2 SWAP1 POP JUMP JUMPDEST PUSH1 0x0 DUP2 SWAP1 POP PUSH1 0x20 DUP3 ADD SWAP1 POP SWAP2 SWAP1 POP JUMP JUMPDEST PUSH1 0x0 DUP2 MLOAD SWAP1 POP SWAP2 SWAP1 POP JUMP JUMPDEST PUSH1 0x0 DUP2 MLOAD SWAP1 POP SWAP2 SWAP1 POP JUMP JUMPDEST PUSH1 0x0 PUSH1 0x20 DUP3 ADD SWAP1 POP SWAP2 SWAP1 POP JUMP JUMPDEST PUSH1 0x0 DUP3 DUP3 MSTORE PUSH1 0x20 DUP3 ADD SWAP1 POP SWAP3 SWAP2 POP POP JUMP JUMPDEST PUSH1 0x0 DUP3 DUP3 MSTORE PUSH1 0x20 DUP3 ADD SWAP1 POP SWAP3 SWAP2 POP POP JUMP JUMPDEST PUSH1 0x0 DUP3 DUP3 MSTORE PUSH1 0x20 DUP3 ADD SWAP1 POP SWAP3 SWAP2 POP POP JUMP JUMPDEST PUSH1 0x0 DUP2 SWAP1 POP SWAP3 SWAP2 POP POP JUMP JUMPDEST PUSH1 0x0 DUP2 SWAP1 POP SWAP2 SWAP1 POP JUMP JUMPDEST PUSH1 0x0 JUMPDEST DUP4 DUP2 LT ISZERO PUSH3 0xDEE JUMPI DUP1 DUP3 ADD MLOAD DUP2 DUP5 ADD MSTORE PUSH1 0x20 DUP2 ADD SWAP1 POP PUSH3 0xDD1 JUMP JUMPDEST DUP4 DUP2 GT ISZERO PUSH3 0xDFE JUMPI PUSH1 0x0 DUP5 DUP5 ADD MSTORE JUMPDEST POP POP POP POP JUMP JUMPDEST PUSH1 0x0 PUSH1 0x2 DUP3 DIV SWAP1 POP PUSH1 0x1 DUP3 AND DUP1 PUSH3 0xE1D JUMPI PUSH1 0x7F DUP3 AND SWAP2 POP JUMPDEST PUSH1 0x20 DUP3 LT DUP2 EQ ISZERO PUSH3 0xE34 JUMPI PUSH3 0xE33 PUSH3 0xEB7 JUMP JUMPDEST JUMPDEST POP SWAP2 SWAP1 POP JUMP JUMPDEST PUSH1 0x0 PUSH3 0xE47 DUP3 PUSH3 0xDC4 JUMP JUMPDEST SWAP2 POP PUSH32 0xFFFFFFFFFFFFFFFFFFFFFFFFFFFFFFFFFFFFFFFFFFFFFFFFFFFFFFFFFFFFFFFF DUP3 EQ ISZERO PUSH3 0xE7D JUMPI PUSH3 0xE7C PUSH3 0xE88 JUMP JUMPDEST JUMPDEST PUSH1 0x1 DUP3 ADD SWAP1 POP SWAP2 SWAP1 POP JUMP JUMPDEST PUSH32 0x4E487B7100000000000000000000000000000000000000000000000000000000 PUSH1 0x0 MSTORE PUSH1 0x11 PUSH1 0x4 MSTORE PUSH1 0x24 PUSH1 0x0 REVERT JUMPDEST PUSH32 0x4E487B7100000000000000000000000000000000000000000000000000000000 PUSH1 0x0 MSTORE PUSH1 0x22 PUSH1 0x4 MSTORE PUSH1 0x24 PUSH1 0x0 REVERT JUMPDEST PUSH1 0x0 PUSH1 0x1F NOT PUSH1 0x1F DUP4 ADD AND SWAP1 POP SWAP2 SWAP1 POP JUMP JUMPDEST PUSH2 0x49D4 DUP1 PUSH3 0xF07 PUSH1 0x0 CODECOPY PUSH1 0x0 RETURN INVALID PUSH1 0x80 PUSH1 0x40 MSTORE CALLVALUE DUP1 ISZERO PUSH2 0x10 JUMPI PUSH1 0x0 DUP1 REVERT JUMPDEST POP PUSH1 0x4 CALLDATASIZE LT PUSH2 0x12C JUMPI PUSH1 0x0 CALLDATALOAD PUSH1 0xE0 SHR DUP1 PUSH4 0x67753BA1 GT PUSH2 0xAD JUMPI DUP1 PUSH4 0xB9E6FACB GT PUSH2 0x71 JUMPI DUP1 PUSH4 0xB9E6FACB EQ PUSH2 0x347 JUMPI DUP1 PUSH4 0xC91BC46C EQ PUSH2 0x363 JUMPI DUP1 PUSH4 0xE537CAC7 EQ PUSH2 0x37F JUMPI DUP1 PUSH4 0xECB5A4D5 EQ PUSH2 0x39B JUMPI DUP1 PUSH4 0xEE1C55DA EQ PUSH2 0x3B7 JUMPI PUSH2 0x12C JUMP JUMPDEST DUP1 PUSH4 0x67753BA1 EQ PUSH2 0x291 JUMPI DUP1 PUSH4 0x6CAD1934 EQ PUSH2 0x2AD JUMPI DUP1 PUSH4 0x7C77F39F EQ PUSH2 0x2DD JUMPI DUP1 PUSH4 0x8A0BD86B EQ PUSH2 0x2F9 JUMPI DUP1 PUSH4 0xABEF281E EQ PUSH2 0x315 JUMPI PUSH2 0x12C JUMP JUMPDEST DUP1 PUSH4 0x31FEB671 GT PUSH2 0xF4 JUMPI DUP1 PUSH4 0x31FEB671 EQ PUSH2 0x1E7 JUMPI DUP1 PUSH4 0x5108C3AB EQ PUSH2 0x21F JUMPI DUP1 PUSH4 0x53620375 EQ PUSH2 0x23B JUMPI DUP1 PUSH4 0x5B9A6B1D EQ PUSH2 0x259 JUMPI DUP1 PUSH4 0x6246B310 EQ PUSH2 0x275 JUMPI PUSH2 0x12C JUMP JUMPDEST DUP1 PUSH4 0x3DF9E92 EQ PUSH2 0x131 JUMPI DUP1 PUSH4 0x1AE7F10A EQ PUSH2 0x14D JUMPI DUP1 PUSH4 0x21CD3CAE EQ PUSH2 0x17D JUMPI DUP1 PUSH4 0x266C1BAB EQ PUSH2 0x19B JUMPI DUP1 PUSH4 0x2D09D9E9 EQ PUSH2 0x1B7 JUMPI JUMPDEST PUSH1 0x0 DUP1 REVERT JUMPDEST PUSH2 0x14B PUSH1 0x4 DUP1 CALLDATASIZE SUB DUP2 ADD SWAP1 PUSH2 0x146 SWAP2 SWAP1 PUSH2 0x3D80 JUMP JUMPDEST PUSH2 0x3E7 JUMP JUMPDEST STOP JUMPDEST PUSH2 0x167 PUSH1 0x4 DUP1 CALLDATASIZE SUB DUP2 ADD SWAP1 PUSH2 0x162 SWAP2 SWAP1 PUSH2 0x3D80 JUMP JUMPDEST PUSH2 0x4F3 JUMP JUMPDEST PUSH1 0x40 MLOAD PUSH2 0x174 SWAP2 SWAP1 PUSH2 0x44CD JUMP JUMPDEST PUSH1 0x40 MLOAD DUP1 SWAP2 SUB SWAP1 RETURN JUMPDEST PUSH2 0x185 PUSH2 0x950 JUMP JUMPDEST PUSH1 0x40 MLOAD PUSH2 0x192 SWAP2 SWAP1 PUSH2 0x446E JUMP JUMPDEST PUSH1 0x40 MLOAD DUP1 SWAP2 SUB SWAP1 RETURN JUMPDEST PUSH2 0x1B5 PUSH1 0x4 DUP1 CALLDATASIZE SUB DUP2 ADD SWAP1 PUSH2 0x1B0 SWAP2 SWAP1 PUSH2 0x3DEC JUMP JUMPDEST PUSH2 0xA29 JUMP JUMPDEST STOP JUMPDEST PUSH2 0x1D1 PUSH1 0x4 DUP1 CALLDATASIZE SUB DUP2 ADD SWAP1 PUSH2 0x1CC SWAP2 SWAP1 PUSH2 0x3D3F JUMP JUMPDEST PUSH2 0xB40 JUMP JUMPDEST PUSH1 0x40 MLOAD PUSH2 0x1DE SWAP2 SWAP1 PUSH2 0x446E JUMP JUMPDEST PUSH1 0x40 MLOAD DUP1 SWAP2 SUB SWAP1 RETURN JUMPDEST PUSH2 0x201 PUSH1 0x4 DUP1 CALLDATASIZE SUB DUP2 ADD SWAP1 PUSH2 0x1FC SWAP2 SWAP1 PUSH2 0x3D3F JUMP JUMPDEST PUSH2 0xC3A JUMP JUMPDEST PUSH1 0x40 MLOAD PUSH2 0x216 SWAP10 SWAP9 SWAP8 SWAP7 SWAP6 SWAP5 SWAP4 SWAP3 SWAP2 SWAP1 PUSH2 0x453B JUMP JUMPDEST PUSH1 0x40 MLOAD DUP1 SWAP2 SUB SWAP1 RETURN JUMPDEST PUSH2 0x239 PUSH1 0x4 DUP1 CALLDATASIZE SUB DUP2 ADD SWAP1 PUSH2 0x234 SWAP2 SWAP1 PUSH2 0x3D3F JUMP JUMPDEST PUSH2 0x115A JUMP JUMPDEST STOP JUMPDEST PUSH2 0x243 PUSH2 0x12D0 JUMP JUMPDEST PUSH1 0x40 MLOAD PUSH2 0x250 SWAP2 SWAP1 PUSH2 0x446E JUMP JUMPDEST PUSH1 0x40 MLOAD DUP1 SWAP2 SUB SWAP1 RETURN JUMPDEST PUSH2 0x273 PUSH1 0x4 DUP1 CALLDATASIZE SUB DUP2 ADD SWAP1 PUSH2 0x26E SWAP2 SWAP1 PUSH2 0x3E58 JUMP JUMPDEST PUSH2 0x13A9 JUMP JUMPDEST STOP JUMPDEST PUSH2 0x28F PUSH1 0x4 DUP1 CALLDATASIZE SUB DUP2 ADD SWAP1 PUSH2 0x28A SWAP2 SWAP1 PUSH2 0x3D3F JUMP JUMPDEST PUSH2 0x196D JUMP JUMPDEST STOP JUMPDEST PUSH2 0x2AB PUSH1 0x4 DUP1 CALLDATASIZE SUB DUP2 ADD SWAP1 PUSH2 0x2A6 SWAP2 SWAP1 PUSH2 0x3DEC JUMP JUMPDEST PUSH2 0x1EF6 JUMP JUMPDEST STOP JUMPDEST PUSH2 0x2C7 PUSH1 0x4 DUP1 CALLDATASIZE SUB DUP2 ADD SWAP1 PUSH2 0x2C2 SWAP2 SWAP1 PUSH2 0x3D3F JUMP JUMPDEST PUSH2 0x22E3 JUMP JUMPDEST PUSH1 0x40 MLOAD PUSH2 0x2D4 SWAP2 SWAP1 PUSH2 0x44B2 JUMP JUMPDEST PUSH1 0x40 MLOAD DUP1 SWAP2 SUB SWAP1 RETURN JUMPDEST PUSH2 0x2F7 PUSH1 0x4 DUP1 CALLDATASIZE SUB DUP2 ADD SWAP1 PUSH2 0x2F2 SWAP2 SWAP1 PUSH2 0x3D80 JUMP JUMPDEST PUSH2 0x231C JUMP JUMPDEST STOP JUMPDEST PUSH2 0x313 PUSH1 0x4 DUP1 CALLDATASIZE SUB DUP2 ADD SWAP1 PUSH2 0x30E SWAP2 SWAP1 PUSH2 0x3DEC JUMP JUMPDEST PUSH2 0x2540 JUMP JUMPDEST STOP JUMPDEST PUSH2 0x32F PUSH1 0x4 DUP1 CALLDATASIZE SUB DUP2 ADD SWAP1 PUSH2 0x32A SWAP2 SWAP1 PUSH2 0x3D3F JUMP JUMPDEST PUSH2 0x2657 JUMP JUMPDEST PUSH1 0x40 MLOAD PUSH2 0x33E SWAP4 SWAP3 SWAP2 SWAP1 PUSH2 0x44EF JUMP JUMPDEST PUSH1 0x40 MLOAD DUP1 SWAP2 SUB SWAP1 RETURN JUMPDEST PUSH2 0x361 PUSH1 0x4 DUP1 CALLDATASIZE SUB DUP2 ADD SWAP1 PUSH2 0x35C SWAP2 SWAP1 PUSH2 0x3EEF JUMP JUMPDEST PUSH2 0x29EA JUMP JUMPDEST STOP JUMPDEST PUSH2 0x37D PUSH1 0x4 DUP1 CALLDATASIZE SUB DUP2 ADD SWAP1 PUSH2 0x378 SWAP2 SWAP1 PUSH2 0x3DEC JUMP JUMPDEST PUSH2 0x2D46 JUMP JUMPDEST STOP JUMPDEST PUSH2 0x399 PUSH1 0x4 DUP1 CALLDATASIZE SUB DUP2 ADD SWAP1 PUSH2 0x394 SWAP2 SWAP1 PUSH2 0x3D3F JUMP JUMPDEST PUSH2 0x2E8B JUMP JUMPDEST STOP JUMPDEST PUSH2 0x3B5 PUSH1 0x4 DUP1 CALLDATASIZE SUB DUP2 ADD SWAP1 PUSH2 0x3B0 SWAP2 SWAP1 PUSH2 0x3DEC JUMP JUMPDEST PUSH2 0x2F9A JUMP JUMPDEST STOP JUMPDEST PUSH2 0x3D1 PUSH1 0x4 DUP1 CALLDATASIZE SUB DUP2 ADD SWAP1 PUSH2 0x3CC SWAP2 SWAP1 PUSH2 0x3D3F JUMP JUMPDEST PUSH2 0x31B5 JUMP JUMPDEST PUSH1 0x40 MLOAD PUSH2 0x3DE SWAP2 SWAP1 PUSH2 0x446E JUMP JUMPDEST PUSH1 0x40 MLOAD DUP1 SWAP2 SUB SWAP1 RETURN JUMPDEST PUSH1 0x4 PUSH1 0x0 SWAP1 SLOAD SWAP1 PUSH2 0x100 EXP SWAP1 DIV PUSH20 0xFFFFFFFFFFFFFFFFFFFFFFFFFFFFFFFFFFFFFFFF AND PUSH20 0xFFFFFFFFFFFFFFFFFFFFFFFFFFFFFFFFFFFFFFFF AND CALLER PUSH20 0xFFFFFFFFFFFFFFFFFFFFFFFFFFFFFFFFFFFFFFFF AND EQ PUSH2 0x477 JUMPI PUSH1 0x40 MLOAD PUSH32 0x8C379A000000000000000000000000000000000000000000000000000000000 DUP2 MSTORE PUSH1 0x4 ADD PUSH2 0x46E SWAP1 PUSH2 0x4639 JUMP JUMPDEST PUSH1 0x40 MLOAD DUP1 SWAP2 SUB SWAP1 REVERT JUMPDEST DUP1 PUSH1 0x0 DUP4 PUSH1 0x40 MLOAD PUSH2 0x488 SWAP2 SWAP1 PUSH2 0x4440 JUMP JUMPDEST SWAP1 DUP2 MSTORE PUSH1 0x20 ADD PUSH1 0x40 MLOAD DUP1 SWAP2 SUB SWAP1 KECCAK256 PUSH1 0x2 ADD SWAP1 DUP1 MLOAD SWAP1 PUSH1 0x20 ADD SWAP1 PUSH2 0x4AC SWAP3 SWAP2 SWAP1 PUSH2 0x3946 JUMP JUMPDEST POP DUP2 PUSH1 0x40 MLOAD PUSH2 0x4BB SWAP2 SWAP1 PUSH2 0x4440 JUMP JUMPDEST PUSH1 0x40 MLOAD DUP1 SWAP2 SUB SWAP1 KECCAK256 PUSH32 0xEB1060EC96E942D51B0F7B8B00C334C5C6DA57C48F5EF56937468D28D0EE347A PUSH1 0x40 MLOAD PUSH1 0x40 MLOAD DUP1 SWAP2 SUB SWAP1 LOG2 POP POP JUMP JUMPDEST PUSH1 0x60 PUSH1 0x4 PUSH1 0x0 SWAP1 SLOAD SWAP1 PUSH2 0x100 EXP SWAP1 DIV PUSH20 0xFFFFFFFFFFFFFFFFFFFFFFFFFFFFFFFFFFFFFFFF AND PUSH20 0xFFFFFFFFFFFFFFFFFFFFFFFFFFFFFFFFFFFFFFFF AND CALLER PUSH20 0xFFFFFFFFFFFFFFFFFFFFFFFFFFFFFFFFFFFFFFFF AND EQ PUSH2 0x585 JUMPI PUSH1 0x40 MLOAD PUSH32 0x8C379A000000000000000000000000000000000000000000000000000000000 DUP2 MSTORE PUSH1 0x4 ADD PUSH2 0x57C SWAP1 PUSH2 0x4639 JUMP JUMPDEST PUSH1 0x40 MLOAD DUP1 SWAP2 SUB SWAP1 REVERT JUMPDEST PUSH1 0x0 PUSH1 0x1 DUP5 PUSH1 0x40 MLOAD PUSH2 0x597 SWAP2 SWAP1 PUSH2 0x4440 JUMP JUMPDEST SWAP1 DUP2 MSTORE PUSH1 0x20 ADD PUSH1 0x40 MLOAD DUP1 SWAP2 SUB SWAP1 KECCAK256 PUSH1 0x0 ADD DUP1 SLOAD PUSH2 0x5B3 SWAP1 PUSH2 0x4885 JUMP JUMPDEST SWAP1 POP GT PUSH2 0x5F5 JUMPI PUSH1 0x40 MLOAD PUSH32 0x8C379A000000000000000000000000000000000000000000000000000000000 DUP2 MSTORE PUSH1 0x4 ADD PUSH2 0x5EC SWAP1 PUSH2 0x4659 JUMP JUMPDEST PUSH1 0x40 MLOAD DUP1 SWAP2 SUB SWAP1 REVERT JUMPDEST PUSH1 0x0 PUSH1 0x40 MLOAD DUP1 PUSH1 0x80 ADD PUSH1 0x40 MSTORE DUP1 PUSH1 0x40 MLOAD DUP1 PUSH1 0x40 ADD PUSH1 0x40 MSTORE DUP1 PUSH1 0xE DUP2 MSTORE PUSH1 0x20 ADD PUSH32 0x41646D696E6973747261746F7273000000000000000000000000000000000000 DUP2 MSTORE POP DUP2 MSTORE PUSH1 0x20 ADD PUSH1 0x40 MLOAD DUP1 PUSH1 0x40 ADD PUSH1 0x40 MSTORE DUP1 PUSH1 0x5 DUP2 MSTORE PUSH1 0x20 ADD PUSH32 0x5573657273000000000000000000000000000000000000000000000000000000 DUP2 MSTORE POP DUP2 MSTORE PUSH1 0x20 ADD PUSH1 0x40 MLOAD DUP1 PUSH1 0x40 ADD PUSH1 0x40 MSTORE DUP1 PUSH1 0xE DUP2 MSTORE PUSH1 0x20 ADD PUSH32 0x47726F7570204D616E6167657273000000000000000000000000000000000000 DUP2 MSTORE POP DUP2 MSTORE PUSH1 0x20 ADD PUSH1 0x40 MLOAD DUP1 PUSH1 0x40 ADD PUSH1 0x40 MSTORE DUP1 PUSH1 0xD DUP2 MSTORE PUSH1 0x20 ADD PUSH32 0x55736572204D616E616765727300000000000000000000000000000000000000 DUP2 MSTORE POP DUP2 MSTORE POP SWAP1 POP PUSH1 0x0 JUMPDEST PUSH1 0x4 DUP2 LT ISZERO PUSH2 0x7D9 JUMPI DUP2 DUP2 PUSH1 0x4 DUP2 LT PUSH2 0x733 JUMPI PUSH32 0x4E487B7100000000000000000000000000000000000000000000000000000000 PUSH1 0x0 MSTORE PUSH1 0x32 PUSH1 0x4 MSTORE PUSH1 0x24 PUSH1 0x0 REVERT JUMPDEST PUSH1 0x20 MUL ADD MLOAD PUSH1 0x40 MLOAD PUSH1 0x20 ADD PUSH2 0x748 SWAP2 SWAP1 PUSH2 0x4440 JUMP JUMPDEST PUSH1 0x40 MLOAD PUSH1 0x20 DUP2 DUP4 SUB SUB DUP2 MSTORE SWAP1 PUSH1 0x40 MSTORE DUP1 MLOAD SWAP1 PUSH1 0x20 ADD KECCAK256 DUP6 PUSH1 0x40 MLOAD PUSH1 0x20 ADD PUSH2 0x76F SWAP2 SWAP1 PUSH2 0x4440 JUMP JUMPDEST PUSH1 0x40 MLOAD PUSH1 0x20 DUP2 DUP4 SUB SUB DUP2 MSTORE SWAP1 PUSH1 0x40 MSTORE DUP1 MLOAD SWAP1 PUSH1 0x20 ADD KECCAK256 EQ ISZERO PUSH2 0x7C6 JUMPI PUSH1 0x40 MLOAD PUSH32 0x8C379A000000000000000000000000000000000000000000000000000000000 DUP2 MSTORE PUSH1 0x4 ADD PUSH2 0x7BD SWAP1 PUSH2 0x4619 JUMP JUMPDEST PUSH1 0x40 MLOAD DUP1 SWAP2 SUB SWAP1 REVERT JUMPDEST DUP1 DUP1 PUSH2 0x7D1 SWAP1 PUSH2 0x48B7 JUMP JUMPDEST SWAP2 POP POP PUSH2 0x6F1 JUMP JUMPDEST POP DUP3 PUSH1 0x1 DUP6 PUSH1 0x40 MLOAD PUSH2 0x7EB SWAP2 SWAP1 PUSH2 0x4440 JUMP JUMPDEST SWAP1 DUP2 MSTORE PUSH1 0x20 ADD PUSH1 0x40 MLOAD DUP1 SWAP2 SUB SWAP1 KECCAK256 PUSH1 0x2 ADD SWAP1 DUP1 MLOAD SWAP1 PUSH1 0x20 ADD SWAP1 PUSH2 0x80F SWAP3 SWAP2 SWAP1 PUSH2 0x3946 JUMP JUMPDEST POP PUSH1 0x1 DUP5 PUSH1 0x40 MLOAD PUSH2 0x820 SWAP2 SWAP1 PUSH2 0x4440 JUMP JUMPDEST SWAP1 DUP2 MSTORE PUSH1 0x20 ADD PUSH1 0x40 MLOAD DUP1 SWAP2 SUB SWAP1 KECCAK256 PUSH1 0x0 ADD PUSH1 0x40 MLOAD PUSH2 0x83E SWAP2 SWAP1 PUSH2 0x4457 JUMP JUMPDEST PUSH1 0x40 MLOAD DUP1 SWAP2 SUB SWAP1 KECCAK256 PUSH32 0x65D29756900166EA1A95042B775077B9E0C4B52E2AD303784B8FC75584DE59EF PUSH1 0x1 DUP7 PUSH1 0x40 MLOAD PUSH2 0x877 SWAP2 SWAP1 PUSH2 0x4440 JUMP JUMPDEST SWAP1 DUP2 MSTORE PUSH1 0x20 ADD PUSH1 0x40 MLOAD DUP1 SWAP2 SUB SWAP1 KECCAK256 PUSH1 0x2 ADD PUSH1 0x40 MLOAD PUSH2 0x895 SWAP2 SWAP1 PUSH2 0x4490 JUMP JUMPDEST PUSH1 0x40 MLOAD DUP1 SWAP2 SUB SWAP1 LOG2 PUSH1 0x1 DUP5 PUSH1 0x40 MLOAD PUSH2 0x8AD SWAP2 SWAP1 PUSH2 0x4440 JUMP JUMPDEST SWAP1 DUP2 MSTORE PUSH1 0x20 ADD PUSH1 0x40 MLOAD DUP1 SWAP2 SUB SWAP1 KECCAK256 PUSH1 0x0 ADD DUP1 SLOAD PUSH2 0x8C9 SWAP1 PUSH2 0x4885 JUMP JUMPDEST DUP1 PUSH1 0x1F ADD PUSH1 0x20 DUP1 SWAP2 DIV MUL PUSH1 0x20 ADD PUSH1 0x40 MLOAD SWAP1 DUP2 ADD PUSH1 0x40 MSTORE DUP1 SWAP3 SWAP2 SWAP1 DUP2 DUP2 MSTORE PUSH1 0x20 ADD DUP3 DUP1 SLOAD PUSH2 0x8F5 SWAP1 PUSH2 0x4885 JUMP JUMPDEST DUP1 ISZERO PUSH2 0x942 JUMPI DUP1 PUSH1 0x1F LT PUSH2 0x917 JUMPI PUSH2 0x100 DUP1 DUP4 SLOAD DIV MUL DUP4 MSTORE SWAP2 PUSH1 0x20 ADD SWAP2 PUSH2 0x942 JUMP JUMPDEST DUP3 ADD SWAP2 SWAP1 PUSH1 0x0 MSTORE PUSH1 0x20 PUSH1 0x0 KECCAK256 SWAP1 JUMPDEST DUP2 SLOAD DUP2 MSTORE SWAP1 PUSH1 0x1 ADD SWAP1 PUSH1 0x20 ADD DUP1 DUP4 GT PUSH2 0x925 JUMPI DUP3 SWAP1 SUB PUSH1 0x1F AND DUP3 ADD SWAP2 JUMPDEST POP POP POP POP POP SWAP2 POP POP SWAP3 SWAP2 POP POP JUMP JUMPDEST PUSH1 0x60 PUSH1 0x3 DUP1 SLOAD DUP1 PUSH1 0x20 MUL PUSH1 0x20 ADD PUSH1 0x40 MLOAD SWAP1 DUP2 ADD PUSH1 0x40 MSTORE DUP1 SWAP3 SWAP2 SWAP1 DUP2 DUP2 MSTORE PUSH1 0x20 ADD PUSH1 0x0 SWAP1 JUMPDEST DUP3 DUP3 LT ISZERO PUSH2 0xA20 JUMPI DUP4 DUP3 SWAP1 PUSH1 0x0 MSTORE PUSH1 0x20 PUSH1 0x0 KECCAK256 ADD DUP1 SLOAD PUSH2 0x993 SWAP1 PUSH2 0x4885 JUMP JUMPDEST DUP1 PUSH1 0x1F ADD PUSH1 0x20 DUP1 SWAP2 DIV MUL PUSH1 0x20 ADD PUSH1 0x40 MLOAD SWAP1 DUP2 ADD PUSH1 0x40 MSTORE DUP1 SWAP3 SWAP2 SWAP1 DUP2 DUP2 MSTORE PUSH1 0x20 ADD DUP3 DUP1 SLOAD PUSH2 0x9BF SWAP1 PUSH2 0x4885 JUMP JUMPDEST DUP1 ISZERO PUSH2 0xA0C JUMPI DUP1 PUSH1 0x1F LT PUSH2 0x9E1 JUMPI PUSH2 0x100 DUP1 DUP4 SLOAD DIV MUL DUP4 MSTORE SWAP2 PUSH1 0x20 ADD SWAP2 PUSH2 0xA0C JUMP JUMPDEST DUP3 ADD SWAP2 SWAP1 PUSH1 0x0 MSTORE PUSH1 0x20 PUSH1 0x0 KECCAK256 SWAP1 JUMPDEST DUP2 SLOAD DUP2 MSTORE SWAP1 PUSH1 0x1 ADD SWAP1 PUSH1 0x20 ADD DUP1 DUP4 GT PUSH2 0x9EF JUMPI DUP3 SWAP1 SUB PUSH1 0x1F AND DUP3 ADD SWAP2 JUMPDEST POP POP POP POP POP DUP2 MSTORE PUSH1 0x20 ADD SWAP1 PUSH1 0x1 ADD SWAP1 PUSH2 0x974 JUMP JUMPDEST POP POP POP POP SWAP1 POP SWAP1 JUMP JUMPDEST PUSH1 0x4 PUSH1 0x0 SWAP1 SLOAD SWAP1 PUSH2 0x100 EXP SWAP1 DIV PUSH20 0xFFFFFFFFFFFFFFFFFFFFFFFFFFFFFFFFFFFFFFFF AND PUSH20 0xFFFFFFFFFFFFFFFFFFFFFFFFFFFFFFFFFFFFFFFF AND CALLER PUSH20 0xFFFFFFFFFFFFFFFFFFFFFFFFFFFFFFFFFFFFFFFF AND EQ PUSH2 0xAB9 JUMPI PUSH1 0x40 MLOAD PUSH32 0x8C379A000000000000000000000000000000000000000000000000000000000 DUP2 MSTORE PUSH1 0x4 ADD PUSH2 0xAB0 SWAP1 PUSH2 0x4639 JUMP JUMPDEST PUSH1 0x40 MLOAD DUP1 SWAP2 SUB SWAP1 REVERT JUMPDEST DUP1 PUSH1 0x0 DUP4 PUSH1 0x40 MLOAD PUSH2 0xACA SWAP2 SWAP1 PUSH2 0x4440 JUMP JUMPDEST SWAP1 DUP2 MSTORE PUSH1 0x20 ADD PUSH1 0x40 MLOAD DUP1 SWAP2 SUB SWAP1 KECCAK256 PUSH1 0x6 ADD SWAP1 DUP1 MLOAD SWAP1 PUSH1 0x20 ADD SWAP1 PUSH2 0xAEE SWAP3 SWAP2 SWAP1 PUSH2 0x39A6 JUMP JUMPDEST POP DUP2 PUSH1 0x40 MLOAD PUSH2 0xAFD SWAP2 SWAP1 PUSH2 0x4440 JUMP JUMPDEST PUSH1 0x40 MLOAD DUP1 SWAP2 SUB SWAP1 KECCAK256 PUSH32 0x2A8884B2438626FCA84A5F1BDFBF416F5D1344F8A4A7B89860CE8E8EE58F2B21 DUP3 PUSH1 0x40 MLOAD PUSH2 0xB34 SWAP2 SWAP1 PUSH2 0x44CD JUMP JUMPDEST PUSH1 0x40 MLOAD DUP1 SWAP2 SUB SWAP1 LOG2 POP POP JUMP JUMPDEST PUSH1 0x60 PUSH1 0x0 DUP3 PUSH1 0x40 MLOAD PUSH2 0xB52 SWAP2 SWAP1 PUSH2 0x4440 JUMP JUMPDEST SWAP1 DUP2 MSTORE PUSH1 0x20 ADD PUSH1 0x40 MLOAD DUP1 SWAP2 SUB SWAP1 KECCAK256 PUSH1 0x2 ADD DUP1 SLOAD DUP1 PUSH1 0x20 MUL PUSH1 0x20 ADD PUSH1 0x40 MLOAD SWAP1 DUP2 ADD PUSH1 0x40 MSTORE DUP1 SWAP3 SWAP2 SWAP1 DUP2 DUP2 MSTORE PUSH1 0x20 ADD PUSH1 0x0 SWAP1 JUMPDEST DUP3 DUP3 LT ISZERO PUSH2 0xC2F JUMPI DUP4 DUP3 SWAP1 PUSH1 0x0 MSTORE PUSH1 0x20 PUSH1 0x0 KECCAK256 ADD DUP1 SLOAD PUSH2 0xBA2 SWAP1 PUSH2 0x4885 JUMP JUMPDEST DUP1 PUSH1 0x1F ADD PUSH1 0x20 DUP1 SWAP2 DIV MUL PUSH1 0x20 ADD PUSH1 0x40 MLOAD SWAP1 DUP2 ADD PUSH1 0x40 MSTORE DUP1 SWAP3 SWAP2 SWAP1 DUP2 DUP2 MSTORE PUSH1 0x20 ADD DUP3 DUP1 SLOAD PUSH2 0xBCE SWAP1 PUSH2 0x4885 JUMP JUMPDEST DUP1 ISZERO PUSH2 0xC1B JUMPI DUP1 PUSH1 0x1F LT PUSH2 0xBF0 JUMPI PUSH2 0x100 DUP1 DUP4 SLOAD DIV MUL DUP4 MSTORE SWAP2 PUSH1 0x20 ADD SWAP2 PUSH2 0xC1B JUMP JUMPDEST DUP3 ADD SWAP2 SWAP1 PUSH1 0x0 MSTORE PUSH1 0x20 PUSH1 0x0 KECCAK256 SWAP1 JUMPDEST DUP2 SLOAD DUP2 MSTORE SWAP1 PUSH1 0x1 ADD SWAP1 PUSH1 0x20 ADD DUP1 DUP4 GT PUSH2 0xBFE JUMPI DUP3 SWAP1 SUB PUSH1 0x1F AND DUP3 ADD SWAP2 JUMPDEST POP POP POP POP POP DUP2 MSTORE PUSH1 0x20 ADD SWAP1 PUSH1 0x1 ADD SWAP1 PUSH2 0xB83 JUMP JUMPDEST POP POP POP POP SWAP1 POP SWAP2 SWAP1 POP JUMP JUMPDEST PUSH1 0x60 DUP1 PUSH1 0x60 DUP1 PUSH1 0x60 PUSH1 0x0 DUP1 PUSH1 0x60 DUP1 PUSH1 0x0 DUP1 DUP12 PUSH1 0x40 MLOAD PUSH2 0xC59 SWAP2 SWAP1 PUSH2 0x4440 JUMP JUMPDEST SWAP1 DUP2 MSTORE PUSH1 0x20 ADD PUSH1 0x40 MLOAD DUP1 SWAP2 SUB SWAP1 KECCAK256 PUSH1 0x40 MLOAD DUP1 PUSH2 0x140 ADD PUSH1 0x40 MSTORE SWAP1 DUP2 PUSH1 0x0 DUP3 ADD DUP1 SLOAD PUSH2 0xC83 SWAP1 PUSH2 0x4885 JUMP JUMPDEST DUP1 PUSH1 0x1F ADD PUSH1 0x20 DUP1 SWAP2 DIV MUL PUSH1 0x20 ADD PUSH1 0x40 MLOAD SWAP1 DUP2 ADD PUSH1 0x40 MSTORE DUP1 SWAP3 SWAP2 SWAP1 DUP2 DUP2 MSTORE PUSH1 0x20 ADD DUP3 DUP1 SLOAD PUSH2 0xCAF SWAP1 PUSH2 0x4885 JUMP JUMPDEST DUP1 ISZERO PUSH2 0xCFC JUMPI DUP1 PUSH1 0x1F LT PUSH2 0xCD1 JUMPI PUSH2 0x100 DUP1 DUP4 SLOAD DIV MUL DUP4 MSTORE SWAP2 PUSH1 0x20 ADD SWAP2 PUSH2 0xCFC JUMP JUMPDEST DUP3 ADD SWAP2 SWAP1 PUSH1 0x0 MSTORE PUSH1 0x20 PUSH1 0x0 KECCAK256 SWAP1 JUMPDEST DUP2 SLOAD DUP2 MSTORE SWAP1 PUSH1 0x1 ADD SWAP1 PUSH1 0x20 ADD DUP1 DUP4 GT PUSH2 0xCDF JUMPI DUP3 SWAP1 SUB PUSH1 0x1F AND DUP3 ADD SWAP2 JUMPDEST POP POP POP POP POP DUP2 MSTORE PUSH1 0x20 ADD PUSH1 0x1 DUP3 ADD DUP1 SLOAD PUSH2 0xD15 SWAP1 PUSH2 0x4885 JUMP JUMPDEST DUP1 PUSH1 0x1F ADD PUSH1 0x20 DUP1 SWAP2 DIV MUL PUSH1 0x20 ADD PUSH1 0x40 MLOAD SWAP1 DUP2 ADD PUSH1 0x40 MSTORE DUP1 SWAP3 SWAP2 SWAP1 DUP2 DUP2 MSTORE PUSH1 0x20 ADD DUP3 DUP1 SLOAD PUSH2 0xD41 SWAP1 PUSH2 0x4885 JUMP JUMPDEST DUP1 ISZERO PUSH2 0xD8E JUMPI DUP1 PUSH1 0x1F LT PUSH2 0xD63 JUMPI PUSH2 0x100 DUP1 DUP4 SLOAD DIV MUL DUP4 MSTORE SWAP2 PUSH1 0x20 ADD SWAP2 PUSH2 0xD8E JUMP JUMPDEST DUP3 ADD SWAP2 SWAP1 PUSH1 0x0 MSTORE PUSH1 0x20 PUSH1 0x0 KECCAK256 SWAP1 JUMPDEST DUP2 SLOAD DUP2 MSTORE SWAP1 PUSH1 0x1 ADD SWAP1 PUSH1 0x20 ADD DUP1 DUP4 GT PUSH2 0xD71 JUMPI DUP3 SWAP1 SUB PUSH1 0x1F AND DUP3 ADD SWAP2 JUMPDEST POP POP POP POP POP DUP2 MSTORE PUSH1 0x20 ADD PUSH1 0x2 DUP3 ADD DUP1 SLOAD DUP1 PUSH1 0x20 MUL PUSH1 0x20 ADD PUSH1 0x40 MLOAD SWAP1 DUP2 ADD PUSH1 0x40 MSTORE DUP1 SWAP3 SWAP2 SWAP1 DUP2 DUP2 MSTORE PUSH1 0x20 ADD PUSH1 0x0 SWAP1 JUMPDEST DUP3 DUP3 LT ISZERO PUSH2 0xE68 JUMPI DUP4 DUP3 SWAP1 PUSH1 0x0 MSTORE PUSH1 0x20 PUSH1 0x0 KECCAK256 ADD DUP1 SLOAD PUSH2 0xDDB SWAP1 PUSH2 0x4885 JUMP JUMPDEST DUP1 PUSH1 0x1F ADD PUSH1 0x20 DUP1 SWAP2 DIV MUL PUSH1 0x20 ADD PUSH1 0x40 MLOAD SWAP1 DUP2 ADD PUSH1 0x40 MSTORE DUP1 SWAP3 SWAP2 SWAP1 DUP2 DUP2 MSTORE PUSH1 0x20 ADD DUP3 DUP1 SLOAD PUSH2 0xE07 SWAP1 PUSH2 0x4885 JUMP JUMPDEST DUP1 ISZERO PUSH2 0xE54 JUMPI DUP1 PUSH1 0x1F LT PUSH2 0xE29 JUMPI PUSH2 0x100 DUP1 DUP4 SLOAD DIV MUL DUP4 MSTORE SWAP2 PUSH1 0x20 ADD SWAP2 PUSH2 0xE54 JUMP JUMPDEST DUP3 ADD SWAP2 SWAP1 PUSH1 0x0 MSTORE PUSH1 0x20 PUSH1 0x0 KECCAK256 SWAP1 JUMPDEST DUP2 SLOAD DUP2 MSTORE SWAP1 PUSH1 0x1 ADD SWAP1 PUSH1 0x20 ADD DUP1 DUP4 GT PUSH2 0xE37 JUMPI DUP3 SWAP1 SUB PUSH1 0x1F AND DUP3 ADD SWAP2 JUMPDEST POP POP POP POP POP DUP2 MSTORE PUSH1 0x20 ADD SWAP1 PUSH1 0x1 ADD SWAP1 PUSH2 0xDBC JUMP JUMPDEST POP POP POP POP DUP2 MSTORE PUSH1 0x20 ADD PUSH1 0x3 DUP3 ADD DUP1 SLOAD PUSH2 0xE80 SWAP1 PUSH2 0x4885 JUMP JUMPDEST DUP1 PUSH1 0x1F ADD PUSH1 0x20 DUP1 SWAP2 DIV MUL PUSH1 0x20 ADD PUSH1 0x40 MLOAD SWAP1 DUP2 ADD PUSH1 0x40 MSTORE DUP1 SWAP3 SWAP2 SWAP1 DUP2 DUP2 MSTORE PUSH1 0x20 ADD DUP3 DUP1 SLOAD PUSH2 0xEAC SWAP1 PUSH2 0x4885 JUMP JUMPDEST DUP1 ISZERO PUSH2 0xEF9 JUMPI DUP1 PUSH1 0x1F LT PUSH2 0xECE JUMPI PUSH2 0x100 DUP1 DUP4 SLOAD DIV MUL DUP4 MSTORE SWAP2 PUSH1 0x20 ADD SWAP2 PUSH2 0xEF9 JUMP JUMPDEST DUP3 ADD SWAP2 SWAP1 PUSH1 0x0 MSTORE PUSH1 0x20 PUSH1 0x0 KECCAK256 SWAP1 JUMPDEST DUP2 SLOAD DUP2 MSTORE SWAP1 PUSH1 0x1 ADD SWAP1 PUSH1 0x20 ADD DUP1 DUP4 GT PUSH2 0xEDC JUMPI DUP3 SWAP1 SUB PUSH1 0x1F AND DUP3 ADD SWAP2 JUMPDEST POP POP POP POP POP DUP2 MSTORE PUSH1 0x20 ADD PUSH1 0x4 DUP3 ADD DUP1 SLOAD PUSH2 0xF12 SWAP1 PUSH2 0x4885 JUMP JUMPDEST DUP1 PUSH1 0x1F ADD PUSH1 0x20 DUP1 SWAP2 DIV MUL PUSH1 0x20 ADD PUSH1 0x40 MLOAD SWAP1 DUP2 ADD PUSH1 0x40 MSTORE DUP1 SWAP3 SWAP2 SWAP1 DUP2 DUP2 MSTORE PUSH1 0x20 ADD DUP3 DUP1 SLOAD PUSH2 0xF3E SWAP1 PUSH2 0x4885 JUMP JUMPDEST DUP1 ISZERO PUSH2 0xF8B JUMPI DUP1 PUSH1 0x1F LT PUSH2 0xF60 JUMPI PUSH2 0x100 DUP1 DUP4 SLOAD DIV MUL DUP4 MSTORE SWAP2 PUSH1 0x20 ADD SWAP2 PUSH2 0xF8B JUMP JUMPDEST DUP3 ADD SWAP2 SWAP1 PUSH1 0x0 MSTORE PUSH1 0x20 PUSH1 0x0 KECCAK256 SWAP1 JUMPDEST DUP2 SLOAD DUP2 MSTORE SWAP1 PUSH1 0x1 ADD SWAP1 PUSH1 0x20 ADD DUP1 DUP4 GT PUSH2 0xF6E JUMPI DUP3 SWAP1 SUB PUSH1 0x1F AND DUP3 ADD SWAP2 JUMPDEST POP POP POP POP POP DUP2 MSTORE PUSH1 0x20 ADD PUSH1 0x5 DUP3 ADD PUSH1 0x0 SWAP1 SLOAD SWAP1 PUSH2 0x100 EXP SWAP1 DIV PUSH1 0xFF AND ISZERO ISZERO ISZERO ISZERO DUP2 MSTORE PUSH1 0x20 ADD PUSH1 0x5 DUP3 ADD PUSH1 0x1 SWAP1 SLOAD SWAP1 PUSH2 0x100 EXP SWAP1 DIV PUSH1 0xFF AND ISZERO ISZERO ISZERO ISZERO DUP2 MSTORE PUSH1 0x20 ADD PUSH1 0x5 DUP3 ADD PUSH1 0x2 SWAP1 SLOAD SWAP1 PUSH2 0x100 EXP SWAP1 DIV PUSH1 0xFF AND ISZERO ISZERO ISZERO ISZERO DUP2 MSTORE PUSH1 0x20 ADD PUSH1 0x6 DUP3 ADD DUP1 SLOAD PUSH2 0xFF5 SWAP1 PUSH2 0x4885 JUMP JUMPDEST DUP1 PUSH1 0x1F ADD PUSH1 0x20 DUP1 SWAP2 DIV MUL PUSH1 0x20 ADD PUSH1 0x40 MLOAD SWAP1 DUP2 ADD PUSH1 0x40 MSTORE DUP1 SWAP3 SWAP2 SWAP1 DUP2 DUP2 MSTORE PUSH1 0x20 ADD DUP3 DUP1 SLOAD PUSH2 0x1021 SWAP1 PUSH2 0x4885 JUMP JUMPDEST DUP1 ISZERO PUSH2 0x106E JUMPI DUP1 PUSH1 0x1F LT PUSH2 0x1043 JUMPI PUSH2 0x100 DUP1 DUP4 SLOAD DIV MUL DUP4 MSTORE SWAP2 PUSH1 0x20 ADD SWAP2 PUSH2 0x106E JUMP JUMPDEST DUP3 ADD SWAP2 SWAP1 PUSH1 0x0 MSTORE PUSH1 0x20 PUSH1 0x0 KECCAK256 SWAP1 JUMPDEST DUP2 SLOAD DUP2 MSTORE SWAP1 PUSH1 0x1 ADD SWAP1 PUSH1 0x20 ADD DUP1 DUP4 GT PUSH2 0x1051 JUMPI DUP3 SWAP1 SUB PUSH1 0x1F AND DUP3 ADD SWAP2 JUMPDEST POP POP POP POP POP DUP2 MSTORE PUSH1 0x20 ADD PUSH1 0x7 DUP3 ADD DUP1 SLOAD PUSH2 0x1087 SWAP1 PUSH2 0x4885 JUMP JUMPDEST DUP1 PUSH1 0x1F ADD PUSH1 0x20 DUP1 SWAP2 DIV MUL PUSH1 0x20 ADD PUSH1 0x40 MLOAD SWAP1 DUP2 ADD PUSH1 0x40 MSTORE DUP1 SWAP3 SWAP2 SWAP1 DUP2 DUP2 MSTORE PUSH1 0x20 ADD DUP3 DUP1 SLOAD PUSH2 0x10B3 SWAP1 PUSH2 0x4885 JUMP JUMPDEST DUP1 ISZERO PUSH2 0x1100 JUMPI DUP1 PUSH1 0x1F LT PUSH2 0x10D5 JUMPI PUSH2 0x100 DUP1 DUP4 SLOAD DIV MUL DUP4 MSTORE SWAP2 PUSH1 0x20 ADD SWAP2 PUSH2 0x1100 JUMP JUMPDEST DUP3 ADD SWAP2 SWAP1 PUSH1 0x0 MSTORE PUSH1 0x20 PUSH1 0x0 KECCAK256 SWAP1 JUMPDEST DUP2 SLOAD DUP2 MSTORE SWAP1 PUSH1 0x1 ADD SWAP1 PUSH1 0x20 ADD DUP1 DUP4 GT PUSH2 0x10E3 JUMPI DUP3 SWAP1 SUB PUSH1 0x1F AND DUP3 ADD SWAP2 JUMPDEST POP POP POP POP POP DUP2 MSTORE POP POP SWAP1 POP DUP1 PUSH1 0x0 ADD MLOAD DUP2 PUSH1 0x20 ADD MLOAD DUP3 PUSH1 0x40 ADD MLOAD DUP4 PUSH1 0x60 ADD MLOAD DUP5 PUSH1 0x80 ADD MLOAD DUP6 PUSH1 0xA0 ADD MLOAD DUP7 PUSH1 0xE0 ADD MLOAD DUP8 PUSH2 0x100 ADD MLOAD DUP9 PUSH2 0x120 ADD MLOAD SWAP10 POP SWAP10 POP SWAP10 POP SWAP10 POP SWAP10 POP SWAP10 POP SWAP10 POP SWAP10 POP SWAP10 POP POP SWAP2 SWAP4 SWAP6 SWAP8 SWAP10 SWAP1 SWAP3 SWAP5 SWAP7 SWAP9 POP JUMP JUMPDEST PUSH1 0x4 PUSH1 0x0 SWAP1 SLOAD SWAP1 PUSH2 0x100 EXP SWAP1 DIV PUSH20 0xFFFFFFFFFFFFFFFFFFFFFFFFFFFFFFFFFFFFFFFF AND PUSH20 0xFFFFFFFFFFFFFFFFFFFFFFFFFFFFFFFFFFFFFFFF AND CALLER PUSH20 0xFFFFFFFFFFFFFFFFFFFFFFFFFFFFFFFFFFFFFFFF AND EQ PUSH2 0x11EA JUMPI PUSH1 0x40 MLOAD PUSH32 0x8C379A000000000000000000000000000000000000000000000000000000000 DUP2 MSTORE PUSH1 0x4 ADD PUSH2 0x11E1 SWAP1 PUSH2 0x4639 JUMP JUMPDEST PUSH1 0x40 MLOAD DUP1 SWAP2 SUB SWAP1 REVERT JUMPDEST PUSH1 0x0 DUP2 PUSH1 0x40 MLOAD PUSH2 0x11FA SWAP2 SWAP1 PUSH2 0x4440 JUMP JUMPDEST SWAP1 DUP2 MSTORE PUSH1 0x20 ADD PUSH1 0x40 MLOAD DUP1 SWAP2 SUB SWAP1 KECCAK256 PUSH1 0x5 ADD PUSH1 0x2 SWAP1 SLOAD SWAP1 PUSH2 0x100 EXP SWAP1 DIV PUSH1 0xFF AND ISZERO PUSH1 0x0 DUP3 PUSH1 0x40 MLOAD PUSH2 0x122A SWAP2 SWAP1 PUSH2 0x4440 JUMP JUMPDEST SWAP1 DUP2 MSTORE PUSH1 0x20 ADD PUSH1 0x40 MLOAD DUP1 SWAP2 SUB SWAP1 KECCAK256 PUSH1 0x5 ADD PUSH1 0x2 PUSH2 0x100 EXP DUP2 SLOAD DUP2 PUSH1 0xFF MUL NOT AND SWAP1 DUP4 ISZERO ISZERO MUL OR SWAP1 SSTORE POP DUP1 PUSH1 0x40 MLOAD PUSH2 0x1260 SWAP2 SWAP1 PUSH2 0x4440 JUMP JUMPDEST PUSH1 0x40 MLOAD DUP1 SWAP2 SUB SWAP1 KECCAK256 PUSH32 0x9B1A1E5131C18EE5FD8454B3B435B1B36127BD0C05686D9FC6190D638BCB1499 PUSH1 0x0 DUP4 PUSH1 0x40 MLOAD PUSH2 0x1299 SWAP2 SWAP1 PUSH2 0x4440 JUMP JUMPDEST SWAP1 DUP2 MSTORE PUSH1 0x20 ADD PUSH1 0x40 MLOAD DUP1 SWAP2 SUB SWAP1 KECCAK256 PUSH1 0x5 ADD PUSH1 0x2 SWAP1 SLOAD SWAP1 PUSH2 0x100 EXP SWAP1 DIV PUSH1 0xFF AND PUSH1 0x40 MLOAD PUSH2 0x12C5 SWAP2 SWAP1 PUSH2 0x44B2 JUMP JUMPDEST PUSH1 0x40 MLOAD DUP1 SWAP2 SUB SWAP1 LOG2 POP JUMP JUMPDEST PUSH1 0x60 PUSH1 0x2 DUP1 SLOAD DUP1 PUSH1 0x20 MUL PUSH1 0x20 ADD PUSH1 0x40 MLOAD SWAP1 DUP2 ADD PUSH1 0x40 MSTORE DUP1 SWAP3 SWAP2 SWAP1 DUP2 DUP2 MSTORE PUSH1 0x20 ADD PUSH1 0x0 SWAP1 JUMPDEST DUP3 DUP3 LT ISZERO PUSH2 0x13A0 JUMPI DUP4 DUP3 SWAP1 PUSH1 0x0 MSTORE PUSH1 0x20 PUSH1 0x0 KECCAK256 ADD DUP1 SLOAD PUSH2 0x1313 SWAP1 PUSH2 0x4885 JUMP JUMPDEST DUP1 PUSH1 0x1F ADD PUSH1 0x20 DUP1 SWAP2 DIV MUL PUSH1 0x20 ADD PUSH1 0x40 MLOAD SWAP1 DUP2 ADD PUSH1 0x40 MSTORE DUP1 SWAP3 SWAP2 SWAP1 DUP2 DUP2 MSTORE PUSH1 0x20 ADD DUP3 DUP1 SLOAD PUSH2 0x133F SWAP1 PUSH2 0x4885 JUMP JUMPDEST DUP1 ISZERO PUSH2 0x138C JUMPI DUP1 PUSH1 0x1F LT PUSH2 0x1361 JUMPI PUSH2 0x100 DUP1 DUP4 SLOAD DIV MUL DUP4 MSTORE SWAP2 PUSH1 0x20 ADD SWAP2 PUSH2 0x138C JUMP JUMPDEST DUP3 ADD SWAP2 SWAP1 PUSH1 0x0 MSTORE PUSH1 0x20 PUSH1 0x0 KECCAK256 SWAP1 JUMPDEST DUP2 SLOAD DUP2 MSTORE SWAP1 PUSH1 0x1 ADD SWAP1 PUSH1 0x20 ADD DUP1 DUP4 GT PUSH2 0x136F JUMPI DUP3 SWAP1 SUB PUSH1 0x1F AND DUP3 ADD SWAP2 JUMPDEST POP POP POP POP POP DUP2 MSTORE PUSH1 0x20 ADD SWAP1 PUSH1 0x1 ADD SWAP1 PUSH2 0x12F4 JUMP JUMPDEST POP POP POP POP SWAP1 POP SWAP1 JUMP JUMPDEST PUSH1 0x4 PUSH1 0x0 SWAP1 SLOAD SWAP1 PUSH2 0x100 EXP SWAP1 DIV PUSH20 0xFFFFFFFFFFFFFFFFFFFFFFFFFFFFFFFFFFFFFFFF AND PUSH20 0xFFFFFFFFFFFFFFFFFFFFFFFFFFFFFFFFFFFFFFFF AND CALLER PUSH20 0xFFFFFFFFFFFFFFFFFFFFFFFFFFFFFFFFFFFFFFFF AND EQ PUSH2 0x1439 JUMPI PUSH1 0x40 MLOAD PUSH32 0x8C379A000000000000000000000000000000000000000000000000000000000 DUP2 MSTORE PUSH1 0x4 ADD PUSH2 0x1430 SWAP1 PUSH2 0x4639 JUMP JUMPDEST PUSH1 0x40 MLOAD DUP1 SWAP2 SUB SWAP1 REVERT JUMPDEST PUSH1 0x0 PUSH1 0x1 DUP5 PUSH1 0x40 MLOAD PUSH2 0x144B SWAP2 SWAP1 PUSH2 0x4440 JUMP JUMPDEST SWAP1 DUP2 MSTORE PUSH1 0x20 ADD PUSH1 0x40 MLOAD DUP1 SWAP2 SUB SWAP1 KECCAK256 PUSH1 0x0 ADD DUP1 SLOAD PUSH2 0x1467 SWAP1 PUSH2 0x4885 JUMP JUMPDEST SWAP1 POP GT PUSH2 0x14A9 JUMPI PUSH1 0x40 MLOAD PUSH32 0x8C379A000000000000000000000000000000000000000000000000000000000 DUP2 MSTORE PUSH1 0x4 ADD PUSH2 0x14A0 SWAP1 PUSH2 0x4659 JUMP JUMPDEST PUSH1 0x40 MLOAD DUP1 SWAP2 SUB SWAP1 REVERT JUMPDEST PUSH1 0x0 PUSH1 0x40 MLOAD DUP1 PUSH1 0x80 ADD PUSH1 0x40 MSTORE DUP1 PUSH1 0x40 MLOAD DUP1 PUSH1 0x40 ADD PUSH1 0x40 MSTORE DUP1 PUSH1 0xE DUP2 MSTORE PUSH1 0x20 ADD PUSH32 0x41646D696E6973747261746F7273000000000000000000000000000000000000 DUP2 MSTORE POP DUP2 MSTORE PUSH1 0x20 ADD PUSH1 0x40 MLOAD DUP1 PUSH1 0x40 ADD PUSH1 0x40 MSTORE DUP1 PUSH1 0x5 DUP2 MSTORE PUSH1 0x20 ADD PUSH32 0x5573657273000000000000000000000000000000000000000000000000000000 DUP2 MSTORE POP DUP2 MSTORE PUSH1 0x20 ADD PUSH1 0x40 MLOAD DUP1 PUSH1 0x40 ADD PUSH1 0x40 MSTORE DUP1 PUSH1 0xE DUP2 MSTORE PUSH1 0x20 ADD PUSH32 0x47726F7570204D616E6167657273000000000000000000000000000000000000 DUP2 MSTORE POP DUP2 MSTORE PUSH1 0x20 ADD PUSH1 0x40 MLOAD DUP1 PUSH1 0x40 ADD PUSH1 0x40 MSTORE DUP1 PUSH1 0xD DUP2 MSTORE PUSH1 0x20 ADD PUSH32 0x55736572204D616E616765727300000000000000000000000000000000000000 DUP2 MSTORE POP DUP2 MSTORE POP SWAP1 POP PUSH1 0x0 JUMPDEST PUSH1 0x4 DUP2 LT ISZERO PUSH2 0x168D JUMPI DUP2 DUP2 PUSH1 0x4 DUP2 LT PUSH2 0x15E7 JUMPI PUSH32 0x4E487B7100000000000000000000000000000000000000000000000000000000 PUSH1 0x0 MSTORE PUSH1 0x32 PUSH1 0x4 MSTORE PUSH1 0x24 PUSH1 0x0 REVERT JUMPDEST PUSH1 0x20 MUL ADD MLOAD PUSH1 0x40 MLOAD PUSH1 0x20 ADD PUSH2 0x15FC SWAP2 SWAP1 PUSH2 0x4440 JUMP JUMPDEST PUSH1 0x40 MLOAD PUSH1 0x20 DUP2 DUP4 SUB SUB DUP2 MSTORE SWAP1 PUSH1 0x40 MSTORE DUP1 MLOAD SWAP1 PUSH1 0x20 ADD KECCAK256 DUP6 PUSH1 0x40 MLOAD PUSH1 0x20 ADD PUSH2 0x1623 SWAP2 SWAP1 PUSH2 0x4440 JUMP JUMPDEST PUSH1 0x40 MLOAD PUSH1 0x20 DUP2 DUP4 SUB SUB DUP2 MSTORE SWAP1 PUSH1 0x40 MSTORE DUP1 MLOAD SWAP1 PUSH1 0x20 ADD KECCAK256 EQ ISZERO PUSH2 0x167A JUMPI PUSH1 0x40 MLOAD PUSH32 0x8C379A000000000000000000000000000000000000000000000000000000000 DUP2 MSTORE PUSH1 0x4 ADD PUSH2 0x1671 SWAP1 PUSH2 0x4619 JUMP JUMPDEST PUSH1 0x40 MLOAD DUP1 SWAP2 SUB SWAP1 REVERT JUMPDEST DUP1 DUP1 PUSH2 0x1685 SWAP1 PUSH2 0x48B7 JUMP JUMPDEST SWAP2 POP POP PUSH2 0x15A5 JUMP JUMPDEST POP PUSH2 0x1698 DUP5 DUP4 PUSH2 0x4F3 JUMP JUMPDEST POP DUP3 PUSH1 0x40 MLOAD PUSH1 0x20 ADD PUSH2 0x16AA SWAP2 SWAP1 PUSH2 0x4440 JUMP JUMPDEST PUSH1 0x40 MLOAD PUSH1 0x20 DUP2 DUP4 SUB SUB DUP2 MSTORE SWAP1 PUSH1 0x40 MSTORE DUP1 MLOAD SWAP1 PUSH1 0x20 ADD KECCAK256 DUP5 PUSH1 0x40 MLOAD PUSH1 0x20 ADD PUSH2 0x16D1 SWAP2 SWAP1 PUSH2 0x4440 JUMP JUMPDEST PUSH1 0x40 MLOAD PUSH1 0x20 DUP2 DUP4 SUB SUB DUP2 MSTORE SWAP1 PUSH1 0x40 MSTORE DUP1 MLOAD SWAP1 PUSH1 0x20 ADD KECCAK256 EQ PUSH2 0x1967 JUMPI PUSH1 0x1 DUP5 PUSH1 0x40 MLOAD PUSH2 0x16FC SWAP2 SWAP1 PUSH2 0x4440 JUMP JUMPDEST SWAP1 DUP2 MSTORE PUSH1 0x20 ADD PUSH1 0x40 MLOAD DUP1 SWAP2 SUB SWAP1 KECCAK256 PUSH1 0x1 DUP5 PUSH1 0x40 MLOAD PUSH2 0x171A SWAP2 SWAP1 PUSH2 0x4440 JUMP JUMPDEST SWAP1 DUP2 MSTORE PUSH1 0x20 ADD PUSH1 0x40 MLOAD DUP1 SWAP2 SUB SWAP1 KECCAK256 PUSH1 0x0 DUP3 ADD DUP2 PUSH1 0x0 ADD SWAP1 DUP1 SLOAD PUSH2 0x173C SWAP1 PUSH2 0x4885 JUMP JUMPDEST PUSH2 0x1747 SWAP3 SWAP2 SWAP1 PUSH2 0x3A2C JUMP JUMPDEST POP PUSH1 0x1 DUP3 ADD DUP2 PUSH1 0x1 ADD SWAP1 DUP1 SLOAD PUSH2 0x175E SWAP3 SWAP2 SWAP1 PUSH2 0x3AB9 JUMP JUMPDEST POP PUSH1 0x2 DUP3 ADD DUP2 PUSH1 0x2 ADD SWAP1 DUP1 SLOAD PUSH2 0x1775 SWAP3 SWAP2 SWAP1 PUSH2 0x3AB9 JUMP JUMPDEST POP SWAP1 POP POP DUP3 PUSH1 0x1 DUP5 PUSH1 0x40 MLOAD PUSH2 0x178A SWAP2 SWAP1 PUSH2 0x4440 JUMP JUMPDEST SWAP1 DUP2 MSTORE PUSH1 0x20 ADD PUSH1 0x40 MLOAD DUP1 SWAP2 SUB SWAP1 KECCAK256 PUSH1 0x0 ADD SWAP1 DUP1 MLOAD SWAP1 PUSH1 0x20 ADD SWAP1 PUSH2 0x17AE SWAP3 SWAP2 SWAP1 PUSH2 0x39A6 JUMP JUMPDEST POP PUSH1 0x1 DUP5 PUSH1 0x40 MLOAD PUSH2 0x17BF SWAP2 SWAP1 PUSH2 0x4440 JUMP JUMPDEST SWAP1 DUP2 MSTORE PUSH1 0x20 ADD PUSH1 0x40 MLOAD DUP1 SWAP2 SUB SWAP1 KECCAK256 PUSH1 0x0 DUP1 DUP3 ADD PUSH1 0x0 PUSH2 0x17DE SWAP2 SWAP1 PUSH2 0x3B21 JUMP JUMPDEST PUSH1 0x1 DUP3 ADD PUSH1 0x0 PUSH2 0x17EE SWAP2 SWAP1 PUSH2 0x3B61 JUMP JUMPDEST PUSH1 0x2 DUP3 ADD PUSH1 0x0 PUSH2 0x17FE SWAP2 SWAP1 PUSH2 0x3B61 JUMP JUMPDEST POP POP PUSH1 0x0 JUMPDEST PUSH1 0x3 DUP1 SLOAD SWAP1 POP DUP2 LT ISZERO PUSH2 0x1918 JUMPI DUP5 PUSH1 0x40 MLOAD PUSH1 0x20 ADD PUSH2 0x1821 SWAP2 SWAP1 PUSH2 0x4440 JUMP JUMPDEST PUSH1 0x40 MLOAD PUSH1 0x20 DUP2 DUP4 SUB SUB DUP2 MSTORE SWAP1 PUSH1 0x40 MSTORE DUP1 MLOAD SWAP1 PUSH1 0x20 ADD KECCAK256 PUSH1 0x3 DUP3 DUP2 SLOAD DUP2 LT PUSH2 0x1871 JUMPI PUSH32 0x4E487B7100000000000000000000000000000000000000000000000000000000 PUSH1 0x0 MSTORE PUSH1 0x32 PUSH1 0x4 MSTORE PUSH1 0x24 PUSH1 0x0 REVERT JUMPDEST SWAP1 PUSH1 0x0 MSTORE PUSH1 0x20 PUSH1 0x0 KECCAK256 ADD PUSH1 0x40 MLOAD PUSH1 0x20 ADD PUSH2 0x188B SWAP2 SWAP1 PUSH2 0x4457 JUMP JUMPDEST PUSH1 0x40 MLOAD PUSH1 0x20 DUP2 DUP4 SUB SUB DUP2 MSTORE SWAP1 PUSH1 0x40 MSTORE DUP1 MLOAD SWAP1 PUSH1 0x20 ADD KECCAK256 EQ ISZERO PUSH2 0x1905 JUMPI DUP4 PUSH1 0x3 DUP3 DUP2 SLOAD DUP2 LT PUSH2 0x18E2 JUMPI PUSH32 0x4E487B7100000000000000000000000000000000000000000000000000000000 PUSH1 0x0 MSTORE PUSH1 0x32 PUSH1 0x4 MSTORE PUSH1 0x24 PUSH1 0x0 REVERT JUMPDEST SWAP1 PUSH1 0x0 MSTORE PUSH1 0x20 PUSH1 0x0 KECCAK256 ADD SWAP1 DUP1 MLOAD SWAP1 PUSH1 0x20 ADD SWAP1 PUSH2 0x18FF SWAP3 SWAP2 SWAP1 PUSH2 0x39A6 JUMP JUMPDEST POP PUSH2 0x1918 JUMP JUMPDEST DUP1 DUP1 PUSH2 0x1910 SWAP1 PUSH2 0x48B7 JUMP JUMPDEST SWAP2 POP POP PUSH2 0x1803 JUMP JUMPDEST POP DUP4 PUSH1 0x40 MLOAD PUSH2 0x1927 SWAP2 SWAP1 PUSH2 0x4440 JUMP JUMPDEST PUSH1 0x40 MLOAD DUP1 SWAP2 SUB SWAP1 KECCAK256 PUSH32 0x364B226B5F086E2E247D242241146270270074B8E63461B564298285DFDB0878 DUP5 PUSH1 0x40 MLOAD PUSH2 0x195E SWAP2 SWAP1 PUSH2 0x44CD JUMP JUMPDEST PUSH1 0x40 MLOAD DUP1 SWAP2 SUB SWAP1 LOG2 JUMPDEST POP POP POP POP JUMP JUMPDEST PUSH1 0x4 PUSH1 0x0 SWAP1 SLOAD SWAP1 PUSH2 0x100 EXP SWAP1 DIV PUSH20 0xFFFFFFFFFFFFFFFFFFFFFFFFFFFFFFFFFFFFFFFF AND PUSH20 0xFFFFFFFFFFFFFFFFFFFFFFFFFFFFFFFFFFFFFFFF AND CALLER PUSH20 0xFFFFFFFFFFFFFFFFFFFFFFFFFFFFFFFFFFFFFFFF AND EQ PUSH2 0x19FD JUMPI PUSH1 0x40 MLOAD PUSH32 0x8C379A000000000000000000000000000000000000000000000000000000000 DUP2 MSTORE PUSH1 0x4 ADD PUSH2 0x19F4 SWAP1 PUSH2 0x4639 JUMP JUMPDEST PUSH1 0x40 MLOAD DUP1 SWAP2 SUB SWAP1 REVERT JUMPDEST PUSH1 0x0 PUSH1 0x1 DUP3 PUSH1 0x40 MLOAD PUSH2 0x1A0F SWAP2 SWAP1 PUSH2 0x4440 JUMP JUMPDEST SWAP1 DUP2 MSTORE PUSH1 0x20 ADD PUSH1 0x40 MLOAD DUP1 SWAP2 SUB SWAP1 KECCAK256 PUSH1 0x0 ADD DUP1 SLOAD PUSH2 0x1A2B SWAP1 PUSH2 0x4885 JUMP JUMPDEST SWAP1 POP GT PUSH2 0x1A6D JUMPI PUSH1 0x40 MLOAD PUSH32 0x8C379A000000000000000000000000000000000000000000000000000000000 DUP2 MSTORE PUSH1 0x4 ADD PUSH2 0x1A64 SWAP1 PUSH2 0x4659 JUMP JUMPDEST PUSH1 0x40 MLOAD DUP1 SWAP2 SUB SWAP1 REVERT JUMPDEST PUSH1 0x0 PUSH1 0x40 MLOAD DUP1 PUSH1 0x80 ADD PUSH1 0x40 MSTORE DUP1 PUSH1 0x40 MLOAD DUP1 PUSH1 0x40 ADD PUSH1 0x40 MSTORE DUP1 PUSH1 0xE DUP2 MSTORE PUSH1 0x20 ADD PUSH32 0x41646D696E6973747261746F7273000000000000000000000000000000000000 DUP2 MSTORE POP DUP2 MSTORE PUSH1 0x20 ADD PUSH1 0x40 MLOAD DUP1 PUSH1 0x40 ADD PUSH1 0x40 MSTORE DUP1 PUSH1 0x5 DUP2 MSTORE PUSH1 0x20 ADD PUSH32 0x5573657273000000000000000000000000000000000000000000000000000000 DUP2 MSTORE POP DUP2 MSTORE PUSH1 0x20 ADD PUSH1 0x40 MLOAD DUP1 PUSH1 0x40 ADD PUSH1 0x40 MSTORE DUP1 PUSH1 0xE DUP2 MSTORE PUSH1 0x20 ADD PUSH32 0x47726F7570204D616E6167657273000000000000000000000000000000000000 DUP2 MSTORE POP DUP2 MSTORE PUSH1 0x20 ADD PUSH1 0x40 MLOAD DUP1 PUSH1 0x40 ADD PUSH1 0x40 MSTORE DUP1 PUSH1 0xD DUP2 MSTORE PUSH1 0x20 ADD PUSH32 0x55736572204D616E616765727300000000000000000000000000000000000000 DUP2 MSTORE POP DUP2 MSTORE POP SWAP1 POP PUSH1 0x0 JUMPDEST PUSH1 0x4 DUP2 LT ISZERO PUSH2 0x1C51 JUMPI DUP2 DUP2 PUSH1 0x4 DUP2 LT PUSH2 0x1BAB JUMPI PUSH32 0x4E487B7100000000000000000000000000000000000000000000000000000000 PUSH1 0x0 MSTORE PUSH1 0x32 PUSH1 0x4 MSTORE PUSH1 0x24 PUSH1 0x0 REVERT JUMPDEST PUSH1 0x20 MUL ADD MLOAD PUSH1 0x40 MLOAD PUSH1 0x20 ADD PUSH2 0x1BC0 SWAP2 SWAP1 PUSH2 0x4440 JUMP JUMPDEST PUSH1 0x40 MLOAD PUSH1 0x20 DUP2 DUP4 SUB SUB DUP2 MSTORE SWAP1 PUSH1 0x40 MSTORE DUP1 MLOAD SWAP1 PUSH1 0x20 ADD KECCAK256 DUP4 PUSH1 0x40 MLOAD PUSH1 0x20 ADD PUSH2 0x1BE7 SWAP2 SWAP1 PUSH2 0x4440 JUMP JUMPDEST PUSH1 0x40 MLOAD PUSH1 0x20 DUP2 DUP4 SUB SUB DUP2 MSTORE SWAP1 PUSH1 0x40 MSTORE DUP1 MLOAD SWAP1 PUSH1 0x20 ADD KECCAK256 EQ ISZERO PUSH2 0x1C3E JUMPI PUSH1 0x40 MLOAD PUSH32 0x8C379A000000000000000000000000000000000000000000000000000000000 DUP2 MSTORE PUSH1 0x4 ADD PUSH2 0x1C35 SWAP1 PUSH2 0x4619 JUMP JUMPDEST PUSH1 0x40 MLOAD DUP1 SWAP2 SUB SWAP1 REVERT JUMPDEST DUP1 DUP1 PUSH2 0x1C49 SWAP1 PUSH2 0x48B7 JUMP JUMPDEST SWAP2 POP POP PUSH2 0x1B69 JUMP JUMPDEST POP PUSH1 0x1 DUP3 PUSH1 0x40 MLOAD PUSH2 0x1C62 SWAP2 SWAP1 PUSH2 0x4440 JUMP JUMPDEST SWAP1 DUP2 MSTORE PUSH1 0x20 ADD PUSH1 0x40 MLOAD DUP1 SWAP2 SUB SWAP1 KECCAK256 PUSH1 0x0 DUP1 DUP3 ADD PUSH1 0x0 PUSH2 0x1C81 SWAP2 SWAP1 PUSH2 0x3B21 JUMP JUMPDEST PUSH1 0x1 DUP3 ADD PUSH1 0x0 PUSH2 0x1C91 SWAP2 SWAP1 PUSH2 0x3B61 JUMP JUMPDEST PUSH1 0x2 DUP3 ADD PUSH1 0x0 PUSH2 0x1CA1 SWAP2 SWAP1 PUSH2 0x3B61 JUMP JUMPDEST POP POP PUSH1 0x0 DUP1 JUMPDEST PUSH1 0x3 DUP1 SLOAD SWAP1 POP DUP2 LT ISZERO PUSH2 0x1E6E JUMPI DUP4 PUSH1 0x40 MLOAD PUSH1 0x20 ADD PUSH2 0x1CC5 SWAP2 SWAP1 PUSH2 0x4440 JUMP JUMPDEST PUSH1 0x40 MLOAD PUSH1 0x20 DUP2 DUP4 SUB SUB DUP2 MSTORE SWAP1 PUSH1 0x40 MSTORE DUP1 MLOAD SWAP1 PUSH1 0x20 ADD KECCAK256 PUSH1 0x3 DUP3 DUP2 SLOAD DUP2 LT PUSH2 0x1D15 JUMPI PUSH32 0x4E487B7100000000000000000000000000000000000000000000000000000000 PUSH1 0x0 MSTORE PUSH1 0x32 PUSH1 0x4 MSTORE PUSH1 0x24 PUSH1 0x0 REVERT JUMPDEST SWAP1 PUSH1 0x0 MSTORE PUSH1 0x20 PUSH1 0x0 KECCAK256 ADD PUSH1 0x40 MLOAD PUSH1 0x20 ADD PUSH2 0x1D2F SWAP2 SWAP1 PUSH2 0x4457 JUMP JUMPDEST PUSH1 0x40 MLOAD PUSH1 0x20 DUP2 DUP4 SUB SUB DUP2 MSTORE SWAP1 PUSH1 0x40 MSTORE DUP1 MLOAD SWAP1 PUSH1 0x20 ADD KECCAK256 EQ ISZERO PUSH2 0x1E5B JUMPI PUSH1 0x1 SWAP2 POP PUSH1 0x3 PUSH1 0x1 PUSH1 0x3 DUP1 SLOAD SWAP1 POP PUSH2 0x1D63 SWAP2 SWAP1 PUSH2 0x47F9 JUMP JUMPDEST DUP2 SLOAD DUP2 LT PUSH2 0x1D9A JUMPI PUSH32 0x4E487B7100000000000000000000000000000000000000000000000000000000 PUSH1 0x0 MSTORE PUSH1 0x32 PUSH1 0x4 MSTORE PUSH1 0x24 PUSH1 0x0 REVERT JUMPDEST SWAP1 PUSH1 0x0 MSTORE PUSH1 0x20 PUSH1 0x0 KECCAK256 ADD PUSH1 0x3 DUP3 DUP2 SLOAD DUP2 LT PUSH2 0x1DDE JUMPI PUSH32 0x4E487B7100000000000000000000000000000000000000000000000000000000 PUSH1 0x0 MSTORE PUSH1 0x32 PUSH1 0x4 MSTORE PUSH1 0x24 PUSH1 0x0 REVERT JUMPDEST SWAP1 PUSH1 0x0 MSTORE PUSH1 0x20 PUSH1 0x0 KECCAK256 ADD SWAP1 DUP1 SLOAD PUSH2 0x1DF4 SWAP1 PUSH2 0x4885 JUMP JUMPDEST PUSH2 0x1DFF SWAP3 SWAP2 SWAP1 PUSH2 0x3B82 JUMP JUMPDEST POP PUSH1 0x3 DUP1 SLOAD DUP1 PUSH2 0x1E38 JUMPI PUSH32 0x4E487B7100000000000000000000000000000000000000000000000000000000 PUSH1 0x0 MSTORE PUSH1 0x31 PUSH1 0x4 MSTORE PUSH1 0x24 PUSH1 0x0 REVERT JUMPDEST PUSH1 0x1 SWAP1 SUB DUP2 DUP2 SWAP1 PUSH1 0x0 MSTORE PUSH1 0x20 PUSH1 0x0 KECCAK256 ADD PUSH1 0x0 PUSH2 0x1E54 SWAP2 SWAP1 PUSH2 0x3B21 JUMP JUMPDEST SWAP1 SSTORE PUSH2 0x1E6E JUMP JUMPDEST DUP1 DUP1 PUSH2 0x1E66 SWAP1 PUSH2 0x48B7 JUMP JUMPDEST SWAP2 POP POP PUSH2 0x1CA7 JUMP JUMPDEST POP DUP1 PUSH2 0x1EAF JUMPI PUSH1 0x40 MLOAD PUSH32 0x8C379A000000000000000000000000000000000000000000000000000000000 DUP2 MSTORE PUSH1 0x4 ADD PUSH2 0x1EA6 SWAP1 PUSH2 0x45F9 JUMP JUMPDEST PUSH1 0x40 MLOAD DUP1 SWAP2 SUB SWAP1 REVERT JUMPDEST DUP3 PUSH1 0x40 MLOAD PUSH2 0x1EBD SWAP2 SWAP1 PUSH2 0x4440 JUMP JUMPDEST PUSH1 0x40 MLOAD DUP1 SWAP2 SUB SWAP1 KECCAK256 PUSH32 0x3D23503BDA008E50D93C77E132B7D2CDE3189A8DE034B6D382A71004B5A1B048 PUSH1 0x40 MLOAD PUSH1 0x40 MLOAD DUP1 SWAP2 SUB SWAP1 LOG2 POP POP POP JUMP JUMPDEST PUSH1 0x4 PUSH1 0x0 SWAP1 SLOAD SWAP1 PUSH2 0x100 EXP SWAP1 DIV PUSH20 0xFFFFFFFFFFFFFFFFFFFFFFFFFFFFFFFFFFFFFFFF AND PUSH20 0xFFFFFFFFFFFFFFFFFFFFFFFFFFFFFFFFFFFFFFFF AND CALLER PUSH20 0xFFFFFFFFFFFFFFFFFFFFFFFFFFFFFFFFFFFFFFFF AND EQ PUSH2 0x1F86 JUMPI PUSH1 0x40 MLOAD PUSH32 0x8C379A000000000000000000000000000000000000000000000000000000000 DUP2 MSTORE PUSH1 0x4 ADD PUSH2 0x1F7D SWAP1 PUSH2 0x4639 JUMP JUMPDEST PUSH1 0x40 MLOAD DUP1 SWAP2 SUB SWAP1 REVERT JUMPDEST PUSH1 0x0 PUSH1 0x1 DUP4 PUSH1 0x40 MLOAD PUSH2 0x1F98 SWAP2 SWAP1 PUSH2 0x4440 JUMP JUMPDEST SWAP1 DUP2 MSTORE PUSH1 0x20 ADD PUSH1 0x40 MLOAD DUP1 SWAP2 SUB SWAP1 KECCAK256 PUSH1 0x0 ADD DUP1 SLOAD PUSH2 0x1FB4 SWAP1 PUSH2 0x4885 JUMP JUMPDEST SWAP1 POP GT PUSH2 0x1FF6 JUMPI PUSH1 0x40 MLOAD PUSH32 0x8C379A000000000000000000000000000000000000000000000000000000000 DUP2 MSTORE PUSH1 0x4 ADD PUSH2 0x1FED SWAP1 PUSH2 0x4659 JUMP JUMPDEST PUSH1 0x40 MLOAD DUP1 SWAP2 SUB SWAP1 REVERT JUMPDEST PUSH1 0x0 DUP1 DUP3 PUSH1 0x40 MLOAD PUSH2 0x2007 SWAP2 SWAP1 PUSH2 0x4440 JUMP JUMPDEST SWAP1 DUP2 MSTORE PUSH1 0x20 ADD PUSH1 0x40 MLOAD DUP1 SWAP2 SUB SWAP1 KECCAK256 PUSH1 0x0 ADD DUP1 SLOAD PUSH2 0x2023 SWAP1 PUSH2 0x4885 JUMP JUMPDEST SWAP1 POP GT PUSH2 0x2065 JUMPI PUSH1 0x40 MLOAD PUSH32 0x8C379A000000000000000000000000000000000000000000000000000000000 DUP2 MSTORE PUSH1 0x4 ADD PUSH2 0x205C SWAP1 PUSH2 0x4679 JUMP JUMPDEST PUSH1 0x40 MLOAD DUP1 SWAP2 SUB SWAP1 REVERT JUMPDEST PUSH1 0x0 PUSH1 0x1 DUP4 PUSH1 0x40 MLOAD PUSH2 0x2077 SWAP2 SWAP1 PUSH2 0x4440 JUMP JUMPDEST SWAP1 DUP2 MSTORE PUSH1 0x20 ADD PUSH1 0x40 MLOAD DUP1 SWAP2 SUB SWAP1 KECCAK256 PUSH1 0x1 ADD SWAP1 POP PUSH1 0x0 DUP1 JUMPDEST DUP3 DUP1 SLOAD SWAP1 POP DUP2 LT ISZERO PUSH2 0x224F JUMPI DUP4 PUSH1 0x40 MLOAD PUSH1 0x20 ADD PUSH2 0x20AB SWAP2 SWAP1 PUSH2 0x4440 JUMP JUMPDEST PUSH1 0x40 MLOAD PUSH1 0x20 DUP2 DUP4 SUB SUB DUP2 MSTORE SWAP1 PUSH1 0x40 MSTORE DUP1 MLOAD SWAP1 PUSH1 0x20 ADD KECCAK256 DUP4 DUP3 DUP2 SLOAD DUP2 LT PUSH2 0x20FA JUMPI PUSH32 0x4E487B7100000000000000000000000000000000000000000000000000000000 PUSH1 0x0 MSTORE PUSH1 0x32 PUSH1 0x4 MSTORE PUSH1 0x24 PUSH1 0x0 REVERT JUMPDEST SWAP1 PUSH1 0x0 MSTORE PUSH1 0x20 PUSH1 0x0 KECCAK256 ADD PUSH1 0x40 MLOAD PUSH1 0x20 ADD PUSH2 0x2114 SWAP2 SWAP1 PUSH2 0x4457 JUMP JUMPDEST PUSH1 0x40 MLOAD PUSH1 0x20 DUP2 DUP4 SUB SUB DUP2 MSTORE SWAP1 PUSH1 0x40 MSTORE DUP1 MLOAD SWAP1 PUSH1 0x20 ADD KECCAK256 EQ ISZERO PUSH2 0x223C JUMPI PUSH1 0x1 SWAP2 POP DUP3 PUSH1 0x1 DUP5 DUP1 SLOAD SWAP1 POP PUSH2 0x2146 SWAP2 SWAP1 PUSH2 0x47F9 JUMP JUMPDEST DUP2 SLOAD DUP2 LT PUSH2 0x217D JUMPI PUSH32 0x4E487B7100000000000000000000000000000000000000000000000000000000 PUSH1 0x0 MSTORE PUSH1 0x32 PUSH1 0x4 MSTORE PUSH1 0x24 PUSH1 0x0 REVERT JUMPDEST SWAP1 PUSH1 0x0 MSTORE PUSH1 0x20 PUSH1 0x0 KECCAK256 ADD DUP4 DUP3 DUP2 SLOAD DUP2 LT PUSH2 0x21C0 JUMPI PUSH32 0x4E487B7100000000000000000000000000000000000000000000000000000000 PUSH1 0x0 MSTORE PUSH1 0x32 PUSH1 0x4 MSTORE PUSH1 0x24 PUSH1 0x0 REVERT JUMPDEST SWAP1 PUSH1 0x0 MSTORE PUSH1 0x20 PUSH1 0x0 KECCAK256 ADD SWAP1 DUP1 SLOAD PUSH2 0x21D6 SWAP1 PUSH2 0x4885 JUMP JUMPDEST PUSH2 0x21E1 SWAP3 SWAP2 SWAP1 PUSH2 0x3B82 JUMP JUMPDEST POP DUP3 DUP1 SLOAD DUP1 PUSH2 0x2219 JUMPI PUSH32 0x4E487B7100000000000000000000000000000000000000000000000000000000 PUSH1 0x0 MSTORE PUSH1 0x31 PUSH1 0x4 MSTORE PUSH1 0x24 PUSH1 0x0 REVERT JUMPDEST PUSH1 0x1 SWAP1 SUB DUP2 DUP2 SWAP1 PUSH1 0x0 MSTORE PUSH1 0x20 PUSH1 0x0 KECCAK256 ADD PUSH1 0x0 PUSH2 0x2235 SWAP2 SWAP1 PUSH2 0x3B21 JUMP JUMPDEST SWAP1 SSTORE PUSH2 0x224F JUMP JUMPDEST DUP1 DUP1 PUSH2 0x2247 SWAP1 PUSH2 0x48B7 JUMP JUMPDEST SWAP2 POP POP PUSH2 0x208E JUMP JUMPDEST POP DUP1 PUSH2 0x2290 JUMPI PUSH1 0x40 MLOAD PUSH32 0x8C379A000000000000000000000000000000000000000000000000000000000 DUP2 MSTORE PUSH1 0x4 ADD PUSH2 0x2287 SWAP1 PUSH2 0x4699 JUMP JUMPDEST PUSH1 0x40 MLOAD DUP1 SWAP2 SUB SWAP1 REVERT JUMPDEST DUP3 PUSH1 0x40 MLOAD PUSH2 0x229E SWAP2 SWAP1 PUSH2 0x4440 JUMP JUMPDEST PUSH1 0x40 MLOAD DUP1 SWAP2 SUB SWAP1 KECCAK256 PUSH32 0x2987FE5A9775C7DC64CE1B0C8B76D750F2EF0F9E96561A0DA6AD7F31A854515A DUP6 PUSH1 0x40 MLOAD PUSH2 0x22D5 SWAP2 SWAP1 PUSH2 0x44CD JUMP JUMPDEST PUSH1 0x40 MLOAD DUP1 SWAP2 SUB SWAP1 LOG2 POP POP POP POP JUMP JUMPDEST PUSH1 0x0 DUP1 PUSH1 0x0 DUP4 PUSH1 0x40 MLOAD PUSH2 0x22F6 SWAP2 SWAP1 PUSH2 0x4440 JUMP JUMPDEST SWAP1 DUP2 MSTORE PUSH1 0x20 ADD PUSH1 0x40 MLOAD DUP1 SWAP2 SUB SWAP1 KECCAK256 PUSH1 0x0 ADD DUP1 SLOAD PUSH2 0x2312 SWAP1 PUSH2 0x4885 JUMP JUMPDEST SWAP1 POP GT SWAP1 POP SWAP2 SWAP1 POP JUMP JUMPDEST PUSH1 0x4 PUSH1 0x0 SWAP1 SLOAD SWAP1 PUSH2 0x100 EXP SWAP1 DIV PUSH20 0xFFFFFFFFFFFFFFFFFFFFFFFFFFFFFFFFFFFFFFFF AND PUSH20 0xFFFFFFFFFFFFFFFFFFFFFFFFFFFFFFFFFFFFFFFF AND CALLER PUSH20 0xFFFFFFFFFFFFFFFFFFFFFFFFFFFFFFFFFFFFFFFF AND EQ PUSH2 0x23AC JUMPI PUSH1 0x40 MLOAD PUSH32 0x8C379A000000000000000000000000000000000000000000000000000000000 DUP2 MSTORE PUSH1 0x4 ADD PUSH2 0x23A3 SWAP1 PUSH2 0x4639 JUMP JUMPDEST PUSH1 0x40 MLOAD DUP1 SWAP2 SUB SWAP1 REVERT JUMPDEST PUSH1 0x40 MLOAD DUP1 PUSH1 0x60 ADD PUSH1 0x40 MSTORE DUP1 DUP4 DUP2 MSTORE PUSH1 0x20 ADD PUSH1 0x0 PUSH8 0xFFFFFFFFFFFFFFFF DUP2 GT ISZERO PUSH2 0x23FE JUMPI PUSH32 0x4E487B7100000000000000000000000000000000000000000000000000000000 PUSH1 0x0 MSTORE PUSH1 0x41 PUSH1 0x4 MSTORE PUSH1 0x24 PUSH1 0x0 REVERT JUMPDEST PUSH1 0x40 MLOAD SWAP1 DUP1 DUP3 MSTORE DUP1 PUSH1 0x20 MUL PUSH1 0x20 ADD DUP3 ADD PUSH1 0x40 MSTORE DUP1 ISZERO PUSH2 0x2431 JUMPI DUP2 PUSH1 0x20 ADD JUMPDEST PUSH1 0x60 DUP2 MSTORE PUSH1 0x20 ADD SWAP1 PUSH1 0x1 SWAP1 SUB SWAP1 DUP2 PUSH2 0x241C JUMPI SWAP1 POP JUMPDEST POP DUP2 MSTORE PUSH1 0x20 ADD DUP3 DUP2 MSTORE POP PUSH1 0x1 DUP4 PUSH1 0x40 MLOAD PUSH2 0x244B SWAP2 SWAP1 PUSH2 0x4440 JUMP JUMPDEST SWAP1 DUP2 MSTORE PUSH1 0x20 ADD PUSH1 0x40 MLOAD DUP1 SWAP2 SUB SWAP1 KECCAK256 PUSH1 0x0 DUP3 ADD MLOAD DUP2 PUSH1 0x0 ADD SWAP1 DUP1 MLOAD SWAP1 PUSH1 0x20 ADD SWAP1 PUSH2 0x2475 SWAP3 SWAP2 SWAP1 PUSH2 0x39A6 JUMP JUMPDEST POP PUSH1 0x20 DUP3 ADD MLOAD DUP2 PUSH1 0x1 ADD SWAP1 DUP1 MLOAD SWAP1 PUSH1 0x20 ADD SWAP1 PUSH2 0x2492 SWAP3 SWAP2 SWAP1 PUSH2 0x3946 JUMP JUMPDEST POP PUSH1 0x40 DUP3 ADD MLOAD DUP2 PUSH1 0x2 ADD SWAP1 DUP1 MLOAD SWAP1 PUSH1 0x20 ADD SWAP1 PUSH2 0x24AF SWAP3 SWAP2 SWAP1 PUSH2 0x3946 JUMP JUMPDEST POP SWAP1 POP POP PUSH1 0x3 DUP3 SWAP1 DUP1 PUSH1 0x1 DUP2 SLOAD ADD DUP1 DUP3 SSTORE DUP1 SWAP2 POP POP PUSH1 0x1 SWAP1 SUB SWAP1 PUSH1 0x0 MSTORE PUSH1 0x20 PUSH1 0x0 KECCAK256 ADD PUSH1 0x0 SWAP1 SWAP2 SWAP1 SWAP2 SWAP1 SWAP2 POP SWAP1 DUP1 MLOAD SWAP1 PUSH1 0x20 ADD SWAP1 PUSH2 0x24EE SWAP3 SWAP2 SWAP1 PUSH2 0x39A6 JUMP JUMPDEST POP DUP2 PUSH1 0x40 MLOAD PUSH2 0x24FD SWAP2 SWAP1 PUSH2 0x4440 JUMP JUMPDEST PUSH1 0x40 MLOAD DUP1 SWAP2 SUB SWAP1 KECCAK256 PUSH32 0x64E45D769B067E3E2DE0A2FBFA982B75AD4472AF64E84E1C421EC5BBE695DE0F DUP3 PUSH1 0x40 MLOAD PUSH2 0x2534 SWAP2 SWAP1 PUSH2 0x446E JUMP JUMPDEST PUSH1 0x40 MLOAD DUP1 SWAP2 SUB SWAP1 LOG2 POP POP JUMP JUMPDEST PUSH1 0x4 PUSH1 0x0 SWAP1 SLOAD SWAP1 PUSH2 0x100 EXP SWAP1 DIV PUSH20 0xFFFFFFFFFFFFFFFFFFFFFFFFFFFFFFFFFFFFFFFF AND PUSH20 0xFFFFFFFFFFFFFFFFFFFFFFFFFFFFFFFFFFFFFFFF AND CALLER PUSH20 0xFFFFFFFFFFFFFFFFFFFFFFFFFFFFFFFFFFFFFFFF AND EQ PUSH2 0x25D0 JUMPI PUSH1 0x40 MLOAD PUSH32 0x8C379A000000000000000000000000000000000000000000000000000000000 DUP2 MSTORE PUSH1 0x4 ADD PUSH2 0x25C7 SWAP1 PUSH2 0x4639 JUMP JUMPDEST PUSH1 0x40 MLOAD DUP1 SWAP2 SUB SWAP1 REVERT JUMPDEST DUP1 PUSH1 0x0 DUP4 PUSH1 0x40 MLOAD PUSH2 0x25E1 SWAP2 SWAP1 PUSH2 0x4440 JUMP JUMPDEST SWAP1 DUP2 MSTORE PUSH1 0x20 ADD PUSH1 0x40 MLOAD DUP1 SWAP2 SUB SWAP1 KECCAK256 PUSH1 0x7 ADD SWAP1 DUP1 MLOAD SWAP1 PUSH1 0x20 ADD SWAP1 PUSH2 0x2605 SWAP3 SWAP2 SWAP1 PUSH2 0x39A6 JUMP JUMPDEST POP DUP2 PUSH1 0x40 MLOAD PUSH2 0x2614 SWAP2 SWAP1 PUSH2 0x4440 JUMP JUMPDEST PUSH1 0x40 MLOAD DUP1 SWAP2 SUB SWAP1 KECCAK256 PUSH32 0xD7C1561B32410BE5063D4ECBB122D75B71604C340791CB3A50B5345C7F62ADC9 DUP3 PUSH1 0x40 MLOAD PUSH2 0x264B SWAP2 SWAP1 PUSH2 0x44CD JUMP JUMPDEST PUSH1 0x40 MLOAD DUP1 SWAP2 SUB SWAP1 LOG2 POP POP JUMP JUMPDEST PUSH1 0x60 DUP1 PUSH1 0x60 PUSH1 0x4 PUSH1 0x0 SWAP1 SLOAD SWAP1 PUSH2 0x100 EXP SWAP1 DIV PUSH20 0xFFFFFFFFFFFFFFFFFFFFFFFFFFFFFFFFFFFFFFFF AND PUSH20 0xFFFFFFFFFFFFFFFFFFFFFFFFFFFFFFFFFFFFFFFF AND CALLER PUSH20 0xFFFFFFFFFFFFFFFFFFFFFFFFFFFFFFFFFFFFFFFF AND EQ PUSH2 0x26EC JUMPI PUSH1 0x40 MLOAD PUSH32 0x8C379A000000000000000000000000000000000000000000000000000000000 DUP2 MSTORE PUSH1 0x4 ADD PUSH2 0x26E3 SWAP1 PUSH2 0x4639 JUMP JUMPDEST PUSH1 0x40 MLOAD DUP1 SWAP2 SUB SWAP1 REVERT JUMPDEST PUSH1 0x0 PUSH1 0x1 DUP6 PUSH1 0x40 MLOAD PUSH2 0x26FE SWAP2 SWAP1 PUSH2 0x4440 JUMP JUMPDEST SWAP1 DUP2 MSTORE PUSH1 0x20 ADD PUSH1 0x40 MLOAD DUP1 SWAP2 SUB SWAP1 KECCAK256 PUSH1 0x0 ADD DUP1 SLOAD PUSH2 0x271A SWAP1 PUSH2 0x4885 JUMP JUMPDEST SWAP1 POP GT PUSH2 0x275C JUMPI PUSH1 0x40 MLOAD PUSH32 0x8C379A000000000000000000000000000000000000000000000000000000000 DUP2 MSTORE PUSH1 0x4 ADD PUSH2 0x2753 SWAP1 PUSH2 0x4659 JUMP JUMPDEST PUSH1 0x40 MLOAD DUP1 SWAP2 SUB SWAP1 REVERT JUMPDEST PUSH1 0x0 PUSH1 0x1 DUP6 PUSH1 0x40 MLOAD PUSH2 0x276E SWAP2 SWAP1 PUSH2 0x4440 JUMP JUMPDEST SWAP1 DUP2 MSTORE PUSH1 0x20 ADD PUSH1 0x40 MLOAD DUP1 SWAP2 SUB SWAP1 KECCAK256 PUSH1 0x40 MLOAD DUP1 PUSH1 0x60 ADD PUSH1 0x40 MSTORE SWAP1 DUP2 PUSH1 0x0 DUP3 ADD DUP1 SLOAD PUSH2 0x2797 SWAP1 PUSH2 0x4885 JUMP JUMPDEST DUP1 PUSH1 0x1F ADD PUSH1 0x20 DUP1 SWAP2 DIV MUL PUSH1 0x20 ADD PUSH1 0x40 MLOAD SWAP1 DUP2 ADD PUSH1 0x40 MSTORE DUP1 SWAP3 SWAP2 SWAP1 DUP2 DUP2 MSTORE PUSH1 0x20 ADD DUP3 DUP1 SLOAD PUSH2 0x27C3 SWAP1 PUSH2 0x4885 JUMP JUMPDEST DUP1 ISZERO PUSH2 0x2810 JUMPI DUP1 PUSH1 0x1F LT PUSH2 0x27E5 JUMPI PUSH2 0x100 DUP1 DUP4 SLOAD DIV MUL DUP4 MSTORE SWAP2 PUSH1 0x20 ADD SWAP2 PUSH2 0x2810 JUMP JUMPDEST DUP3 ADD SWAP2 SWAP1 PUSH1 0x0 MSTORE PUSH1 0x20 PUSH1 0x0 KECCAK256 SWAP1 JUMPDEST DUP2 SLOAD DUP2 MSTORE SWAP1 PUSH1 0x1 ADD SWAP1 PUSH1 0x20 ADD DUP1 DUP4 GT PUSH2 0x27F3 JUMPI DUP3 SWAP1 SUB PUSH1 0x1F AND DUP3 ADD SWAP2 JUMPDEST POP POP POP POP POP DUP2 MSTORE PUSH1 0x20 ADD PUSH1 0x1 DUP3 ADD DUP1 SLOAD DUP1 PUSH1 0x20 MUL PUSH1 0x20 ADD PUSH1 0x40 MLOAD SWAP1 DUP2 ADD PUSH1 0x40 MSTORE DUP1 SWAP3 SWAP2 SWAP1 DUP2 DUP2 MSTORE PUSH1 0x20 ADD PUSH1 0x0 SWAP1 JUMPDEST DUP3 DUP3 LT ISZERO PUSH2 0x28EA JUMPI DUP4 DUP3 SWAP1 PUSH1 0x0 MSTORE PUSH1 0x20 PUSH1 0x0 KECCAK256 ADD DUP1 SLOAD PUSH2 0x285D SWAP1 PUSH2 0x4885 JUMP JUMPDEST DUP1 PUSH1 0x1F ADD PUSH1 0x20 DUP1 SWAP2 DIV MUL PUSH1 0x20 ADD PUSH1 0x40 MLOAD SWAP1 DUP2 ADD PUSH1 0x40 MSTORE DUP1 SWAP3 SWAP2 SWAP1 DUP2 DUP2 MSTORE PUSH1 0x20 ADD DUP3 DUP1 SLOAD PUSH2 0x2889 SWAP1 PUSH2 0x4885 JUMP JUMPDEST DUP1 ISZERO PUSH2 0x28D6 JUMPI DUP1 PUSH1 0x1F LT PUSH2 0x28AB JUMPI PUSH2 0x100 DUP1 DUP4 SLOAD DIV MUL DUP4 MSTORE SWAP2 PUSH1 0x20 ADD SWAP2 PUSH2 0x28D6 JUMP JUMPDEST DUP3 ADD SWAP2 SWAP1 PUSH1 0x0 MSTORE PUSH1 0x20 PUSH1 0x0 KECCAK256 SWAP1 JUMPDEST DUP2 SLOAD DUP2 MSTORE SWAP1 PUSH1 0x1 ADD SWAP1 PUSH1 0x20 ADD DUP1 DUP4 GT PUSH2 0x28B9 JUMPI DUP3 SWAP1 SUB PUSH1 0x1F AND DUP3 ADD SWAP2 JUMPDEST POP POP POP POP POP DUP2 MSTORE PUSH1 0x20 ADD SWAP1 PUSH1 0x1 ADD SWAP1 PUSH2 0x283E JUMP JUMPDEST POP POP POP POP DUP2 MSTORE PUSH1 0x20 ADD PUSH1 0x2 DUP3 ADD DUP1 SLOAD DUP1 PUSH1 0x20 MUL PUSH1 0x20 ADD PUSH1 0x40 MLOAD SWAP1 DUP2 ADD PUSH1 0x40 MSTORE DUP1 SWAP3 SWAP2 SWAP1 DUP2 DUP2 MSTORE PUSH1 0x20 ADD PUSH1 0x0 SWAP1 JUMPDEST DUP3 DUP3 LT ISZERO PUSH2 0x29C3 JUMPI DUP4 DUP3 SWAP1 PUSH1 0x0 MSTORE PUSH1 0x20 PUSH1 0x0 KECCAK256 ADD DUP1 SLOAD PUSH2 0x2936 SWAP1 PUSH2 0x4885 JUMP JUMPDEST DUP1 PUSH1 0x1F ADD PUSH1 0x20 DUP1 SWAP2 DIV MUL PUSH1 0x20 ADD PUSH1 0x40 MLOAD SWAP1 DUP2 ADD PUSH1 0x40 MSTORE DUP1 SWAP3 SWAP2 SWAP1 DUP2 DUP2 MSTORE PUSH1 0x20 ADD DUP3 DUP1 SLOAD PUSH2 0x2962 SWAP1 PUSH2 0x4885 JUMP JUMPDEST DUP1 ISZERO PUSH2 0x29AF JUMPI DUP1 PUSH1 0x1F LT PUSH2 0x2984 JUMPI PUSH2 0x100 DUP1 DUP4 SLOAD DIV MUL DUP4 MSTORE SWAP2 PUSH1 0x20 ADD SWAP2 PUSH2 0x29AF JUMP JUMPDEST DUP3 ADD SWAP2 SWAP1 PUSH1 0x0 MSTORE PUSH1 0x20 PUSH1 0x0 KECCAK256 SWAP1 JUMPDEST DUP2 SLOAD DUP2 MSTORE SWAP1 PUSH1 0x1 ADD SWAP1 PUSH1 0x20 ADD DUP1 DUP4 GT PUSH2 0x2992 JUMPI DUP3 SWAP1 SUB PUSH1 0x1F AND DUP3 ADD SWAP2 JUMPDEST POP POP POP POP POP DUP2 MSTORE PUSH1 0x20 ADD SWAP1 PUSH1 0x1 ADD SWAP1 PUSH2 0x2917 JUMP JUMPDEST POP POP POP POP DUP2 MSTORE POP POP SWAP1 POP DUP1 PUSH1 0x0 ADD MLOAD DUP2 PUSH1 0x40 ADD MLOAD DUP3 PUSH1 0x20 ADD MLOAD SWAP4 POP SWAP4 POP SWAP4 POP POP SWAP2 SWAP4 SWAP1 SWAP3 POP JUMP JUMPDEST PUSH1 0x4 PUSH1 0x0 SWAP1 SLOAD SWAP1 PUSH2 0x100 EXP SWAP1 DIV PUSH20 0xFFFFFFFFFFFFFFFFFFFFFFFFFFFFFFFFFFFFFFFF AND PUSH20 0xFFFFFFFFFFFFFFFFFFFFFFFFFFFFFFFFFFFFFFFF AND CALLER PUSH20 0xFFFFFFFFFFFFFFFFFFFFFFFFFFFFFFFFFFFFFFFF AND EQ PUSH2 0x2A7A JUMPI PUSH1 0x40 MLOAD PUSH32 0x8C379A000000000000000000000000000000000000000000000000000000000 DUP2 MSTORE PUSH1 0x4 ADD PUSH2 0x2A71 SWAP1 PUSH2 0x4639 JUMP JUMPDEST PUSH1 0x40 MLOAD DUP1 SWAP2 SUB SWAP1 REVERT JUMPDEST PUSH1 0x40 MLOAD DUP1 PUSH2 0x140 ADD PUSH1 0x40 MSTORE DUP1 DUP6 DUP2 MSTORE PUSH1 0x20 ADD DUP5 DUP2 MSTORE PUSH1 0x20 ADD DUP4 DUP2 MSTORE PUSH1 0x20 ADD DUP3 DUP2 MSTORE PUSH1 0x20 ADD DUP3 DUP2 MSTORE PUSH1 0x20 ADD PUSH1 0x0 ISZERO ISZERO DUP2 MSTORE PUSH1 0x20 ADD PUSH1 0x0 ISZERO ISZERO DUP2 MSTORE PUSH1 0x20 ADD PUSH1 0x1 ISZERO ISZERO DUP2 MSTORE PUSH1 0x20 ADD PUSH1 0x40 MLOAD DUP1 PUSH1 0x20 ADD PUSH1 0x40 MSTORE DUP1 PUSH1 0x0 DUP2 MSTORE POP DUP2 MSTORE PUSH1 0x20 ADD PUSH1 0x40 MLOAD DUP1 PUSH1 0x20 ADD PUSH1 0x40 MSTORE DUP1 PUSH1 0x0 DUP2 MSTORE POP DUP2 MSTORE POP PUSH1 0x0 DUP6 PUSH1 0x40 MLOAD PUSH2 0x2AF7 SWAP2 SWAP1 PUSH2 0x4440 JUMP JUMPDEST SWAP1 DUP2 MSTORE PUSH1 0x20 ADD PUSH1 0x40 MLOAD DUP1 SWAP2 SUB SWAP1 KECCAK256 PUSH1 0x0 DUP3 ADD MLOAD DUP2 PUSH1 0x0 ADD SWAP1 DUP1 MLOAD SWAP1 PUSH1 0x20 ADD SWAP1 PUSH2 0x2B21 SWAP3 SWAP2 SWAP1 PUSH2 0x39A6 JUMP JUMPDEST POP PUSH1 0x20 DUP3 ADD MLOAD DUP2 PUSH1 0x1 ADD SWAP1 DUP1 MLOAD SWAP1 PUSH1 0x20 ADD SWAP1 PUSH2 0x2B3E SWAP3 SWAP2 SWAP1 PUSH2 0x39A6 JUMP JUMPDEST POP PUSH1 0x40 DUP3 ADD MLOAD DUP2 PUSH1 0x2 ADD SWAP1 DUP1 MLOAD SWAP1 PUSH1 0x20 ADD SWAP1 PUSH2 0x2B5B SWAP3 SWAP2 SWAP1 PUSH2 0x3946 JUMP JUMPDEST POP PUSH1 0x60 DUP3 ADD MLOAD DUP2 PUSH1 0x3 ADD SWAP1 DUP1 MLOAD SWAP1 PUSH1 0x20 ADD SWAP1 PUSH2 0x2B78 SWAP3 SWAP2 SWAP1 PUSH2 0x39A6 JUMP JUMPDEST POP PUSH1 0x80 DUP3 ADD MLOAD DUP2 PUSH1 0x4 ADD SWAP1 DUP1 MLOAD SWAP1 PUSH1 0x20 ADD SWAP1 PUSH2 0x2B95 SWAP3 SWAP2 SWAP1 PUSH2 0x39A6 JUMP JUMPDEST POP PUSH1 0xA0 DUP3 ADD MLOAD DUP2 PUSH1 0x5 ADD PUSH1 0x0 PUSH2 0x100 EXP DUP2 SLOAD DUP2 PUSH1 0xFF MUL NOT AND SWAP1 DUP4 ISZERO ISZERO MUL OR SWAP1 SSTORE POP PUSH1 0xC0 DUP3 ADD MLOAD DUP2 PUSH1 0x5 ADD PUSH1 0x1 PUSH2 0x100 EXP DUP2 SLOAD DUP2 PUSH1 0xFF MUL NOT AND SWAP1 DUP4 ISZERO ISZERO MUL OR SWAP1 SSTORE POP PUSH1 0xE0 DUP3 ADD MLOAD DUP2 PUSH1 0x5 ADD PUSH1 0x2 PUSH2 0x100 EXP DUP2 SLOAD DUP2 PUSH1 0xFF MUL NOT AND SWAP1 DUP4 ISZERO ISZERO MUL OR SWAP1 SSTORE POP PUSH2 0x100 DUP3 ADD MLOAD DUP2 PUSH1 0x6 ADD SWAP1 DUP1 MLOAD SWAP1 PUSH1 0x20 ADD SWAP1 PUSH2 0x2C13 SWAP3 SWAP2 SWAP1 PUSH2 0x39A6 JUMP JUMPDEST POP PUSH2 0x120 DUP3 ADD MLOAD DUP2 PUSH1 0x7 ADD SWAP1 DUP1 MLOAD SWAP1 PUSH1 0x20 ADD SWAP1 PUSH2 0x2C31 SWAP3 SWAP2 SWAP1 PUSH2 0x39A6 JUMP JUMPDEST POP SWAP1 POP POP PUSH1 0x2 DUP5 SWAP1 DUP1 PUSH1 0x1 DUP2 SLOAD ADD DUP1 DUP3 SSTORE DUP1 SWAP2 POP POP PUSH1 0x1 SWAP1 SUB SWAP1 PUSH1 0x0 MSTORE PUSH1 0x20 PUSH1 0x0 KECCAK256 ADD PUSH1 0x0 SWAP1 SWAP2 SWAP1 SWAP2 SWAP1 SWAP2 POP SWAP1 DUP1 MLOAD SWAP1 PUSH1 0x20 ADD SWAP1 PUSH2 0x2C70 SWAP3 SWAP2 SWAP1 PUSH2 0x39A6 JUMP JUMPDEST POP PUSH2 0x2CB0 PUSH1 0x40 MLOAD DUP1 PUSH1 0x40 ADD PUSH1 0x40 MSTORE DUP1 PUSH1 0x5 DUP2 MSTORE PUSH1 0x20 ADD PUSH32 0x5573657273000000000000000000000000000000000000000000000000000000 DUP2 MSTORE POP DUP6 PUSH2 0x2F9A JUMP JUMPDEST DUP4 PUSH1 0x40 MLOAD PUSH2 0x2CBE SWAP2 SWAP1 PUSH2 0x4440 JUMP JUMPDEST PUSH1 0x40 MLOAD DUP1 SWAP2 SUB SWAP1 KECCAK256 PUSH32 0x270FF4B111E5BAA49283562AF127CC5EA74E9D6C9EFD5465578BD9223D5843F0 PUSH1 0x40 MLOAD PUSH1 0x40 MLOAD DUP1 SWAP2 SUB SWAP1 LOG2 PUSH1 0x1 PUSH1 0x2 DUP1 SLOAD SWAP1 POP EQ ISZERO PUSH2 0x2D40 JUMPI PUSH2 0x2D3F PUSH1 0x40 MLOAD DUP1 PUSH1 0x40 ADD PUSH1 0x40 MSTORE DUP1 PUSH1 0xE DUP2 MSTORE PUSH1 0x20 ADD PUSH32 0x41646D696E6973747261746F7273000000000000000000000000000000000000 DUP2 MSTORE POP DUP6 PUSH2 0x2F9A JUMP JUMPDEST JUMPDEST POP POP POP POP JUMP JUMPDEST PUSH1 0x4 PUSH1 0x0 SWAP1 SLOAD SWAP1 PUSH2 0x100 EXP SWAP1 DIV PUSH20 0xFFFFFFFFFFFFFFFFFFFFFFFFFFFFFFFFFFFFFFFF AND PUSH20 0xFFFFFFFFFFFFFFFFFFFFFFFFFFFFFFFFFFFFFFFF AND CALLER PUSH20 0xFFFFFFFFFFFFFFFFFFFFFFFFFFFFFFFFFFFFFFFF AND EQ PUSH2 0x2DD6 JUMPI PUSH1 0x40 MLOAD PUSH32 0x8C379A000000000000000000000000000000000000000000000000000000000 DUP2 MSTORE PUSH1 0x4 ADD PUSH2 0x2DCD SWAP1 PUSH2 0x4639 JUMP JUMPDEST PUSH1 0x40 MLOAD DUP1 SWAP2 SUB SWAP1 REVERT JUMPDEST DUP1 PUSH1 0x0 DUP4 PUSH1 0x40 MLOAD PUSH2 0x2DE7 SWAP2 SWAP1 PUSH2 0x4440 JUMP JUMPDEST SWAP1 DUP2 MSTORE PUSH1 0x20 ADD PUSH1 0x40 MLOAD DUP1 SWAP2 SUB SWAP1 KECCAK256 PUSH1 0x1 ADD SWAP1 DUP1 MLOAD SWAP1 PUSH1 0x20 ADD SWAP1 PUSH2 0x2E0B SWAP3 SWAP2 SWAP1 PUSH2 0x39A6 JUMP JUMPDEST POP PUSH1 0x0 DUP1 DUP4 PUSH1 0x40 MLOAD PUSH2 0x2E1D SWAP2 SWAP1 PUSH2 0x4440 JUMP JUMPDEST SWAP1 DUP2 MSTORE PUSH1 0x20 ADD PUSH1 0x40 MLOAD DUP1 SWAP2 SUB SWAP1 KECCAK256 PUSH1 0x5 ADD PUSH1 0x1 PUSH2 0x100 EXP DUP2 SLOAD DUP2 PUSH1 0xFF MUL NOT AND SWAP1 DUP4 ISZERO ISZERO MUL OR SWAP1 SSTORE POP DUP2 PUSH1 0x40 MLOAD PUSH2 0x2E53 SWAP2 SWAP1 PUSH2 0x4440 JUMP JUMPDEST PUSH1 0x40 MLOAD DUP1 SWAP2 SUB SWAP1 KECCAK256 PUSH32 0xD0B43B0B96083C98CC0F0370575812DE87EE48FF1BDE30BCD74F3518443BC4F5 PUSH1 0x40 MLOAD PUSH1 0x40 MLOAD DUP1 SWAP2 SUB SWAP1 LOG2 POP POP JUMP JUMPDEST PUSH1 0x4 PUSH1 0x0 SWAP1 SLOAD SWAP1 PUSH2 0x100 EXP SWAP1 DIV PUSH20 0xFFFFFFFFFFFFFFFFFFFFFFFFFFFFFFFFFFFFFFFF AND PUSH20 0xFFFFFFFFFFFFFFFFFFFFFFFFFFFFFFFFFFFFFFFF AND CALLER PUSH20 0xFFFFFFFFFFFFFFFFFFFFFFFFFFFFFFFFFFFFFFFF AND EQ PUSH2 0x2F1B JUMPI PUSH1 0x40 MLOAD PUSH32 0x8C379A000000000000000000000000000000000000000000000000000000000 DUP2 MSTORE PUSH1 0x4 ADD PUSH2 0x2F12 SWAP1 PUSH2 0x4639 JUMP JUMPDEST PUSH1 0x40 MLOAD DUP1 SWAP2 SUB SWAP1 REVERT JUMPDEST PUSH1 0x1 PUSH1 0x0 DUP3 PUSH1 0x40 MLOAD PUSH2 0x2F2D SWAP2 SWAP1 PUSH2 0x4440 JUMP JUMPDEST SWAP1 DUP2 MSTORE PUSH1 0x20 ADD PUSH1 0x40 MLOAD DUP1 SWAP2 SUB SWAP1 KECCAK256 PUSH1 0x5 ADD PUSH1 0x1 PUSH2 0x100 EXP DUP2 SLOAD DUP2 PUSH1 0xFF MUL NOT AND SWAP1 DUP4 ISZERO ISZERO MUL OR SWAP1 SSTORE POP DUP1 PUSH1 0x40 MLOAD PUSH2 0x2F63 SWAP2 SWAP1 PUSH2 0x4440 JUMP JUMPDEST PUSH1 0x40 MLOAD DUP1 SWAP2 SUB SWAP1 KECCAK256 PUSH32 0x926F593DD22175375135B3FD9428C5D0298A5665DA18756555B6AF9F305AB9A6 PUSH1 0x40 MLOAD PUSH1 0x40 MLOAD DUP1 SWAP2 SUB SWAP1 LOG2 POP JUMP JUMPDEST PUSH1 0x4 PUSH1 0x0 SWAP1 SLOAD SWAP1 PUSH2 0x100 EXP SWAP1 DIV PUSH20 0xFFFFFFFFFFFFFFFFFFFFFFFFFFFFFFFFFFFFFFFF AND PUSH20 0xFFFFFFFFFFFFFFFFFFFFFFFFFFFFFFFFFFFFFFFF AND CALLER PUSH20 0xFFFFFFFFFFFFFFFFFFFFFFFFFFFFFFFFFFFFFFFF AND EQ PUSH2 0x302A JUMPI PUSH1 0x40 MLOAD PUSH32 0x8C379A000000000000000000000000000000000000000000000000000000000 DUP2 MSTORE PUSH1 0x4 ADD PUSH2 0x3021 SWAP1 PUSH2 0x4639 JUMP JUMPDEST PUSH1 0x40 MLOAD DUP1 SWAP2 SUB SWAP1 REVERT JUMPDEST PUSH1 0x0 PUSH1 0x1 DUP4 PUSH1 0x40 MLOAD PUSH2 0x303C SWAP2 SWAP1 PUSH2 0x4440 JUMP JUMPDEST SWAP1 DUP2 MSTORE PUSH1 0x20 ADD PUSH1 0x40 MLOAD DUP1 SWAP2 SUB SWAP1 KECCAK256 PUSH1 0x0 ADD DUP1 SLOAD PUSH2 0x3058 SWAP1 PUSH2 0x4885 JUMP JUMPDEST SWAP1 POP GT PUSH2 0x309A JUMPI PUSH1 0x40 MLOAD PUSH32 0x8C379A000000000000000000000000000000000000000000000000000000000 DUP2 MSTORE PUSH1 0x4 ADD PUSH2 0x3091 SWAP1 PUSH2 0x4659 JUMP JUMPDEST PUSH1 0x40 MLOAD DUP1 SWAP2 SUB SWAP1 REVERT JUMPDEST PUSH1 0x0 DUP1 DUP3 PUSH1 0x40 MLOAD PUSH2 0x30AB SWAP2 SWAP1 PUSH2 0x4440 JUMP JUMPDEST SWAP1 DUP2 MSTORE PUSH1 0x20 ADD PUSH1 0x40 MLOAD DUP1 SWAP2 SUB SWAP1 KECCAK256 PUSH1 0x0 ADD DUP1 SLOAD PUSH2 0x30C7 SWAP1 PUSH2 0x4885 JUMP JUMPDEST SWAP1 POP GT PUSH2 0x3109 JUMPI PUSH1 0x40 MLOAD PUSH32 0x8C379A000000000000000000000000000000000000000000000000000000000 DUP2 MSTORE PUSH1 0x4 ADD PUSH2 0x3100 SWAP1 PUSH2 0x4679 JUMP JUMPDEST PUSH1 0x40 MLOAD DUP1 SWAP2 SUB SWAP1 REVERT JUMPDEST PUSH1 0x1 DUP3 PUSH1 0x40 MLOAD PUSH2 0x3119 SWAP2 SWAP1 PUSH2 0x4440 JUMP JUMPDEST SWAP1 DUP2 MSTORE PUSH1 0x20 ADD PUSH1 0x40 MLOAD DUP1 SWAP2 SUB SWAP1 KECCAK256 PUSH1 0x1 ADD DUP2 SWAP1 DUP1 PUSH1 0x1 DUP2 SLOAD ADD DUP1 DUP3 SSTORE DUP1 SWAP2 POP POP PUSH1 0x1 SWAP1 SUB SWAP1 PUSH1 0x0 MSTORE PUSH1 0x20 PUSH1 0x0 KECCAK256 ADD PUSH1 0x0 SWAP1 SWAP2 SWAP1 SWAP2 SWAP1 SWAP2 POP SWAP1 DUP1 MLOAD SWAP1 PUSH1 0x20 ADD SWAP1 PUSH2 0x3163 SWAP3 SWAP2 SWAP1 PUSH2 0x39A6 JUMP JUMPDEST POP DUP1 PUSH1 0x40 MLOAD PUSH2 0x3172 SWAP2 SWAP1 PUSH2 0x4440 JUMP JUMPDEST PUSH1 0x40 MLOAD DUP1 SWAP2 SUB SWAP1 KECCAK256 PUSH32 0x32475C6C091737C212DC5C54E3565DB8AAE94283F8B388D2C1DFE772B3F356E1 DUP4 PUSH1 0x40 MLOAD PUSH2 0x31A9 SWAP2 SWAP1 PUSH2 0x44CD JUMP JUMPDEST PUSH1 0x40 MLOAD DUP1 SWAP2 SUB SWAP1 LOG2 POP POP JUMP JUMPDEST PUSH1 0x60 PUSH1 0x0 DUP1 DUP4 PUSH1 0x40 MLOAD PUSH2 0x31C8 SWAP2 SWAP1 PUSH2 0x4440 JUMP JUMPDEST SWAP1 DUP2 MSTORE PUSH1 0x20 ADD PUSH1 0x40 MLOAD DUP1 SWAP2 SUB SWAP1 KECCAK256 PUSH1 0x0 ADD DUP1 SLOAD PUSH2 0x31E4 SWAP1 PUSH2 0x4885 JUMP JUMPDEST SWAP1 POP GT PUSH2 0x3226 JUMPI PUSH1 0x40 MLOAD PUSH32 0x8C379A000000000000000000000000000000000000000000000000000000000 DUP2 MSTORE PUSH1 0x4 ADD PUSH2 0x321D SWAP1 PUSH2 0x4679 JUMP JUMPDEST PUSH1 0x40 MLOAD DUP1 SWAP2 SUB SWAP1 REVERT JUMPDEST PUSH1 0x0 PUSH1 0x3 DUP1 SLOAD SWAP1 POP PUSH8 0xFFFFFFFFFFFFFFFF DUP2 GT ISZERO PUSH2 0x326D JUMPI PUSH32 0x4E487B7100000000000000000000000000000000000000000000000000000000 PUSH1 0x0 MSTORE PUSH1 0x41 PUSH1 0x4 MSTORE PUSH1 0x24 PUSH1 0x0 REVERT JUMPDEST PUSH1 0x40 MLOAD SWAP1 DUP1 DUP3 MSTORE DUP1 PUSH1 0x20 MUL PUSH1 0x20 ADD DUP3 ADD PUSH1 0x40 MSTORE DUP1 ISZERO PUSH2 0x32A0 JUMPI DUP2 PUSH1 0x20 ADD JUMPDEST PUSH1 0x60 DUP2 MSTORE PUSH1 0x20 ADD SWAP1 PUSH1 0x1 SWAP1 SUB SWAP1 DUP2 PUSH2 0x328B JUMPI SWAP1 POP JUMPDEST POP SWAP1 POP PUSH1 0x0 DUP1 JUMPDEST PUSH1 0x3 DUP1 SLOAD SWAP1 POP DUP2 LT ISZERO PUSH2 0x34D0 JUMPI PUSH1 0x0 PUSH1 0x1 PUSH1 0x3 DUP4 DUP2 SLOAD DUP2 LT PUSH2 0x32F2 JUMPI PUSH32 0x4E487B7100000000000000000000000000000000000000000000000000000000 PUSH1 0x0 MSTORE PUSH1 0x32 PUSH1 0x4 MSTORE PUSH1 0x24 PUSH1 0x0 REVERT JUMPDEST SWAP1 PUSH1 0x0 MSTORE PUSH1 0x20 PUSH1 0x0 KECCAK256 ADD PUSH1 0x40 MLOAD PUSH2 0x3309 SWAP2 SWAP1 PUSH2 0x4457 JUMP JUMPDEST SWAP1 DUP2 MSTORE PUSH1 0x20 ADD PUSH1 0x40 MLOAD DUP1 SWAP2 SUB SWAP1 KECCAK256 SWAP1 POP PUSH1 0x0 JUMPDEST DUP2 PUSH1 0x1 ADD DUP1 SLOAD SWAP1 POP DUP2 LT ISZERO PUSH2 0x34BB JUMPI DUP7 PUSH1 0x40 MLOAD PUSH1 0x20 ADD PUSH2 0x333C SWAP2 SWAP1 PUSH2 0x4440 JUMP JUMPDEST PUSH1 0x40 MLOAD PUSH1 0x20 DUP2 DUP4 SUB SUB DUP2 MSTORE SWAP1 PUSH1 0x40 MSTORE DUP1 MLOAD SWAP1 PUSH1 0x20 ADD KECCAK256 DUP3 PUSH1 0x1 ADD DUP3 DUP2 SLOAD DUP2 LT PUSH2 0x338E JUMPI PUSH32 0x4E487B7100000000000000000000000000000000000000000000000000000000 PUSH1 0x0 MSTORE PUSH1 0x32 PUSH1 0x4 MSTORE PUSH1 0x24 PUSH1 0x0 REVERT JUMPDEST SWAP1 PUSH1 0x0 MSTORE PUSH1 0x20 PUSH1 0x0 KECCAK256 ADD PUSH1 0x40 MLOAD PUSH1 0x20 ADD PUSH2 0x33A8 SWAP2 SWAP1 PUSH2 0x4457 JUMP JUMPDEST PUSH1 0x40 MLOAD PUSH1 0x20 DUP2 DUP4 SUB SUB DUP2 MSTORE SWAP1 PUSH1 0x40 MSTORE DUP1 MLOAD SWAP1 PUSH1 0x20 ADD KECCAK256 EQ ISZERO PUSH2 0x34A8 JUMPI DUP2 PUSH1 0x0 ADD DUP1 SLOAD PUSH2 0x33D3 SWAP1 PUSH2 0x4885 JUMP JUMPDEST DUP1 PUSH1 0x1F ADD PUSH1 0x20 DUP1 SWAP2 DIV MUL PUSH1 0x20 ADD PUSH1 0x40 MLOAD SWAP1 DUP2 ADD PUSH1 0x40 MSTORE DUP1 SWAP3 SWAP2 SWAP1 DUP2 DUP2 MSTORE PUSH1 0x20 ADD DUP3 DUP1 SLOAD PUSH2 0x33FF SWAP1 PUSH2 0x4885 JUMP JUMPDEST DUP1 ISZERO PUSH2 0x344C JUMPI DUP1 PUSH1 0x1F LT PUSH2 0x3421 JUMPI PUSH2 0x100 DUP1 DUP4 SLOAD DIV MUL DUP4 MSTORE SWAP2 PUSH1 0x20 ADD SWAP2 PUSH2 0x344C JUMP JUMPDEST DUP3 ADD SWAP2 SWAP1 PUSH1 0x0 MSTORE PUSH1 0x20 PUSH1 0x0 KECCAK256 SWAP1 JUMPDEST DUP2 SLOAD DUP2 MSTORE SWAP1 PUSH1 0x1 ADD SWAP1 PUSH1 0x20 ADD DUP1 DUP4 GT PUSH2 0x342F JUMPI DUP3 SWAP1 SUB PUSH1 0x1F AND DUP3 ADD SWAP2 JUMPDEST POP POP POP POP POP DUP6 DUP6 DUP2 MLOAD DUP2 LT PUSH2 0x348A JUMPI PUSH32 0x4E487B7100000000000000000000000000000000000000000000000000000000 PUSH1 0x0 MSTORE PUSH1 0x32 PUSH1 0x4 MSTORE PUSH1 0x24 PUSH1 0x0 REVERT JUMPDEST PUSH1 0x20 MUL PUSH1 0x20 ADD ADD DUP2 SWAP1 MSTORE POP DUP4 DUP1 PUSH2 0x34A0 SWAP1 PUSH2 0x48B7 JUMP JUMPDEST SWAP5 POP POP PUSH2 0x34BB JUMP JUMPDEST DUP1 DUP1 PUSH2 0x34B3 SWAP1 PUSH2 0x48B7 JUMP JUMPDEST SWAP2 POP POP PUSH2 0x331C JUMP JUMPDEST POP POP DUP1 DUP1 PUSH2 0x34C8 SWAP1 PUSH2 0x48B7 JUMP JUMPDEST SWAP2 POP POP PUSH2 0x32A7 JUMP JUMPDEST POP PUSH1 0x0 PUSH1 0x32 PUSH8 0xFFFFFFFFFFFFFFFF DUP2 GT ISZERO PUSH2 0x3514 JUMPI PUSH32 0x4E487B7100000000000000000000000000000000000000000000000000000000 PUSH1 0x0 MSTORE PUSH1 0x41 PUSH1 0x4 MSTORE PUSH1 0x24 PUSH1 0x0 REVERT JUMPDEST PUSH1 0x40 MLOAD SWAP1 DUP1 DUP3 MSTORE DUP1 PUSH1 0x20 MUL PUSH1 0x20 ADD DUP3 ADD PUSH1 0x40 MSTORE DUP1 ISZERO PUSH2 0x3547 JUMPI DUP2 PUSH1 0x20 ADD JUMPDEST PUSH1 0x60 DUP2 MSTORE PUSH1 0x20 ADD SWAP1 PUSH1 0x1 SWAP1 SUB SWAP1 DUP2 PUSH2 0x3532 JUMPI SWAP1 POP JUMPDEST POP SWAP1 POP PUSH1 0x0 DUP1 JUMPDEST DUP4 DUP2 LT ISZERO PUSH2 0x381C JUMPI PUSH1 0x0 DUP6 DUP3 DUP2 MLOAD DUP2 LT PUSH2 0x3591 JUMPI PUSH32 0x4E487B7100000000000000000000000000000000000000000000000000000000 PUSH1 0x0 MSTORE PUSH1 0x32 PUSH1 0x4 MSTORE PUSH1 0x24 PUSH1 0x0 REVERT JUMPDEST PUSH1 0x20 MUL PUSH1 0x20 ADD ADD MLOAD SWAP1 POP PUSH1 0x0 PUSH1 0x1 DUP3 PUSH1 0x40 MLOAD PUSH2 0x35AD SWAP2 SWAP1 PUSH2 0x4440 JUMP JUMPDEST SWAP1 DUP2 MSTORE PUSH1 0x20 ADD PUSH1 0x40 MLOAD DUP1 SWAP2 SUB SWAP1 KECCAK256 PUSH1 0x2 ADD SWAP1 POP PUSH1 0x0 JUMPDEST DUP2 DUP1 SLOAD SWAP1 POP DUP2 LT ISZERO PUSH2 0x3806 JUMPI PUSH1 0x0 DUP1 JUMPDEST DUP7 DUP2 LT ISZERO PUSH2 0x36CD JUMPI DUP4 DUP4 DUP2 SLOAD DUP2 LT PUSH2 0x3614 JUMPI PUSH32 0x4E487B7100000000000000000000000000000000000000000000000000000000 PUSH1 0x0 MSTORE PUSH1 0x32 PUSH1 0x4 MSTORE PUSH1 0x24 PUSH1 0x0 REVERT JUMPDEST SWAP1 PUSH1 0x0 MSTORE PUSH1 0x20 PUSH1 0x0 KECCAK256 ADD PUSH1 0x40 MLOAD PUSH1 0x20 ADD PUSH2 0x362E SWAP2 SWAP1 PUSH2 0x4457 JUMP JUMPDEST PUSH1 0x40 MLOAD PUSH1 0x20 DUP2 DUP4 SUB SUB DUP2 MSTORE SWAP1 PUSH1 0x40 MSTORE DUP1 MLOAD SWAP1 PUSH1 0x20 ADD KECCAK256 DUP9 DUP3 DUP2 MLOAD DUP2 LT PUSH2 0x367D JUMPI PUSH32 0x4E487B7100000000000000000000000000000000000000000000000000000000 PUSH1 0x0 MSTORE PUSH1 0x32 PUSH1 0x4 MSTORE PUSH1 0x24 PUSH1 0x0 REVERT JUMPDEST PUSH1 0x20 MUL PUSH1 0x20 ADD ADD MLOAD PUSH1 0x40 MLOAD PUSH1 0x20 ADD PUSH2 0x3695 SWAP2 SWAP1 PUSH2 0x4440 JUMP JUMPDEST PUSH1 0x40 MLOAD PUSH1 0x20 DUP2 DUP4 SUB SUB DUP2 MSTORE SWAP1 PUSH1 0x40 MSTORE DUP1 MLOAD SWAP1 PUSH1 0x20 ADD KECCAK256 EQ ISZERO PUSH2 0x36BA JUMPI PUSH1 0x1 SWAP2 POP PUSH2 0x36CD JUMP JUMPDEST DUP1 DUP1 PUSH2 0x36C5 SWAP1 PUSH2 0x48B7 JUMP JUMPDEST SWAP2 POP POP PUSH2 0x35D3 JUMP JUMPDEST POP DUP1 PUSH2 0x37F2 JUMPI DUP3 DUP3 DUP2 SLOAD DUP2 LT PUSH2 0x370C JUMPI PUSH32 0x4E487B7100000000000000000000000000000000000000000000000000000000 PUSH1 0x0 MSTORE PUSH1 0x32 PUSH1 0x4 MSTORE PUSH1 0x24 PUSH1 0x0 REVERT JUMPDEST SWAP1 PUSH1 0x0 MSTORE PUSH1 0x20 PUSH1 0x0 KECCAK256 ADD DUP1 SLOAD PUSH2 0x3721 SWAP1 PUSH2 0x4885 JUMP JUMPDEST DUP1 PUSH1 0x1F ADD PUSH1 0x20 DUP1 SWAP2 DIV MUL PUSH1 0x20 ADD PUSH1 0x40 MLOAD SWAP1 DUP2 ADD PUSH1 0x40 MSTORE DUP1 SWAP3 SWAP2 SWAP1 DUP2 DUP2 MSTORE PUSH1 0x20 ADD DUP3 DUP1 SLOAD PUSH2 0x374D SWAP1 PUSH2 0x4885 JUMP JUMPDEST DUP1 ISZERO PUSH2 0x379A JUMPI DUP1 PUSH1 0x1F LT PUSH2 0x376F JUMPI PUSH2 0x100 DUP1 DUP4 SLOAD DIV MUL DUP4 MSTORE SWAP2 PUSH1 0x20 ADD SWAP2 PUSH2 0x379A JUMP JUMPDEST DUP3 ADD SWAP2 SWAP1 PUSH1 0x0 MSTORE PUSH1 0x20 PUSH1 0x0 KECCAK256 SWAP1 JUMPDEST DUP2 SLOAD DUP2 MSTORE SWAP1 PUSH1 0x1 ADD SWAP1 PUSH1 0x20 ADD DUP1 DUP4 GT PUSH2 0x377D JUMPI DUP3 SWAP1 SUB PUSH1 0x1F AND DUP3 ADD SWAP2 JUMPDEST POP POP POP POP POP DUP8 DUP8 DUP2 MLOAD DUP2 LT PUSH2 0x37D8 JUMPI PUSH32 0x4E487B7100000000000000000000000000000000000000000000000000000000 PUSH1 0x0 MSTORE PUSH1 0x32 PUSH1 0x4 MSTORE PUSH1 0x24 PUSH1 0x0 REVERT JUMPDEST PUSH1 0x20 MUL PUSH1 0x20 ADD ADD DUP2 SWAP1 MSTORE POP DUP6 DUP1 PUSH2 0x37EE SWAP1 PUSH2 0x48B7 JUMP JUMPDEST SWAP7 POP POP JUMPDEST POP DUP1 DUP1 PUSH2 0x37FE SWAP1 PUSH2 0x48B7 JUMP JUMPDEST SWAP2 POP POP PUSH2 0x35C3 JUMP JUMPDEST POP POP POP DUP1 DUP1 PUSH2 0x3814 SWAP1 PUSH2 0x48B7 JUMP JUMPDEST SWAP2 POP POP PUSH2 0x354E JUMP JUMPDEST POP PUSH1 0x0 DUP2 PUSH8 0xFFFFFFFFFFFFFFFF DUP2 GT ISZERO PUSH2 0x385F JUMPI PUSH32 0x4E487B7100000000000000000000000000000000000000000000000000000000 PUSH1 0x0 MSTORE PUSH1 0x41 PUSH1 0x4 MSTORE PUSH1 0x24 PUSH1 0x0 REVERT JUMPDEST PUSH1 0x40 MLOAD SWAP1 DUP1 DUP3 MSTORE DUP1 PUSH1 0x20 MUL PUSH1 0x20 ADD DUP3 ADD PUSH1 0x40 MSTORE DUP1 ISZERO PUSH2 0x3892 JUMPI DUP2 PUSH1 0x20 ADD JUMPDEST PUSH1 0x60 DUP2 MSTORE PUSH1 0x20 ADD SWAP1 PUSH1 0x1 SWAP1 SUB SWAP1 DUP2 PUSH2 0x387D JUMPI SWAP1 POP JUMPDEST POP SWAP1 POP PUSH1 0x0 JUMPDEST DUP3 DUP2 LT ISZERO PUSH2 0x3938 JUMPI DUP4 DUP2 DUP2 MLOAD DUP2 LT PUSH2 0x38D9 JUMPI PUSH32 0x4E487B7100000000000000000000000000000000000000000000000000000000 PUSH1 0x0 MSTORE PUSH1 0x32 PUSH1 0x4 MSTORE PUSH1 0x24 PUSH1 0x0 REVERT JUMPDEST PUSH1 0x20 MUL PUSH1 0x20 ADD ADD MLOAD DUP3 DUP3 DUP2 MLOAD DUP2 LT PUSH2 0x391A JUMPI PUSH32 0x4E487B7100000000000000000000000000000000000000000000000000000000 PUSH1 0x0 MSTORE PUSH1 0x32 PUSH1 0x4 MSTORE PUSH1 0x24 PUSH1 0x0 REVERT JUMPDEST PUSH1 0x20 MUL PUSH1 0x20 ADD ADD DUP2 SWAP1 MSTORE POP DUP1 DUP1 PUSH2 0x3930 SWAP1 PUSH2 0x48B7 JUMP JUMPDEST SWAP2 POP POP PUSH2 0x3898 JUMP JUMPDEST POP DUP1 SWAP6 POP POP POP POP POP POP SWAP2 SWAP1 POP JUMP JUMPDEST DUP3 DUP1 SLOAD DUP3 DUP3 SSTORE SWAP1 PUSH1 0x0 MSTORE PUSH1 0x20 PUSH1 0x0 KECCAK256 SWAP1 DUP2 ADD SWAP3 DUP3 ISZERO PUSH2 0x3995 JUMPI SWAP2 PUSH1 0x20 MUL DUP3 ADD JUMPDEST DUP3 DUP2 GT ISZERO PUSH2 0x3994 JUMPI DUP3 MLOAD DUP3 SWAP1 DUP1 MLOAD SWAP1 PUSH1 0x20 ADD SWAP1 PUSH2 0x3984 SWAP3 SWAP2 SWAP1 PUSH2 0x39A6 JUMP JUMPDEST POP SWAP2 PUSH1 0x20 ADD SWAP2 SWAP1 PUSH1 0x1 ADD SWAP1 PUSH2 0x3966 JUMP JUMPDEST JUMPDEST POP SWAP1 POP PUSH2 0x39A2 SWAP2 SWAP1 PUSH2 0x3C0F JUMP JUMPDEST POP SWAP1 JUMP JUMPDEST DUP3 DUP1 SLOAD PUSH2 0x39B2 SWAP1 PUSH2 0x4885 JUMP JUMPDEST SWAP1 PUSH1 0x0 MSTORE PUSH1 0x20 PUSH1 0x0 KECCAK256 SWAP1 PUSH1 0x1F ADD PUSH1 0x20 SWAP1 DIV DUP2 ADD SWAP3 DUP3 PUSH2 0x39D4 JUMPI PUSH1 0x0 DUP6 SSTORE PUSH2 0x3A1B JUMP JUMPDEST DUP3 PUSH1 0x1F LT PUSH2 0x39ED JUMPI DUP1 MLOAD PUSH1 0xFF NOT AND DUP4 DUP1 ADD OR DUP6 SSTORE PUSH2 0x3A1B JUMP JUMPDEST DUP3 DUP1 ADD PUSH1 0x1 ADD DUP6 SSTORE DUP3 ISZERO PUSH2 0x3A1B JUMPI SWAP2 DUP3 ADD JUMPDEST DUP3 DUP2 GT ISZERO PUSH2 0x3A1A JUMPI DUP3 MLOAD DUP3 SSTORE SWAP2 PUSH1 0x20 ADD SWAP2 SWAP1 PUSH1 0x1 ADD SWAP1 PUSH2 0x39FF JUMP JUMPDEST JUMPDEST POP SWAP1 POP PUSH2 0x3A28 SWAP2 SWAP1 PUSH2 0x3C33 JUMP JUMPDEST POP SWAP1 JUMP JUMPDEST DUP3 DUP1 SLOAD PUSH2 0x3A38 SWAP1 PUSH2 0x4885 JUMP JUMPDEST SWAP1 PUSH1 0x0 MSTORE PUSH1 0x20 PUSH1 0x0 KECCAK256 SWAP1 PUSH1 0x1F ADD PUSH1 0x20 SWAP1 DIV DUP2 ADD SWAP3 DUP3 PUSH2 0x3A5A JUMPI PUSH1 0x0 DUP6 SSTORE PUSH2 0x3AA8 JUMP JUMPDEST DUP3 PUSH1 0x1F LT PUSH2 0x3A6B JUMPI DUP1 SLOAD DUP6 SSTORE PUSH2 0x3AA8 JUMP JUMPDEST DUP3 DUP1 ADD PUSH1 0x1 ADD DUP6 SSTORE DUP3 ISZERO PUSH2 0x3AA8 JUMPI PUSH1 0x0 MSTORE PUSH1 0x20 PUSH1 0x0 KECCAK256 SWAP2 PUSH1 0x1F ADD PUSH1 0x20 SWAP1 DIV DUP3 ADD JUMPDEST DUP3 DUP2 GT ISZERO PUSH2 0x3AA7 JUMPI DUP3 SLOAD DUP3 SSTORE SWAP2 PUSH1 0x1 ADD SWAP2 SWAP1 PUSH1 0x1 ADD SWAP1 PUSH2 0x3A8C JUMP JUMPDEST JUMPDEST POP SWAP1 POP PUSH2 0x3AB5 SWAP2 SWAP1 PUSH2 0x3C33 JUMP JUMPDEST POP SWAP1 JUMP JUMPDEST DUP3 DUP1 SLOAD DUP3 DUP3 SSTORE SWAP1 PUSH1 0x0 MSTORE PUSH1 0x20 PUSH1 0x0 KECCAK256 SWAP1 DUP2 ADD SWAP3 DUP3 ISZERO PUSH2 0x3B10 JUMPI PUSH1 0x0 MSTORE PUSH1 0x20 PUSH1 0x0 KECCAK256 SWAP2 DUP3 ADD JUMPDEST DUP3 DUP2 GT ISZERO PUSH2 0x3B0F JUMPI DUP3 DUP3 SWAP1 DUP1 SLOAD PUSH2 0x3AF4 SWAP1 PUSH2 0x4885 JUMP JUMPDEST PUSH2 0x3AFF SWAP3 SWAP2 SWAP1 PUSH2 0x3A2C JUMP JUMPDEST POP SWAP2 PUSH1 0x1 ADD SWAP2 SWAP1 PUSH1 0x1 ADD SWAP1 PUSH2 0x3ADE JUMP JUMPDEST JUMPDEST POP SWAP1 POP PUSH2 0x3B1D SWAP2 SWAP1 PUSH2 0x3C0F JUMP JUMPDEST POP SWAP1 JUMP JUMPDEST POP DUP1 SLOAD PUSH2 0x3B2D SWAP1 PUSH2 0x4885 JUMP JUMPDEST PUSH1 0x0 DUP3 SSTORE DUP1 PUSH1 0x1F LT PUSH2 0x3B3F JUMPI POP PUSH2 0x3B5E JUMP JUMPDEST PUSH1 0x1F ADD PUSH1 0x20 SWAP1 DIV SWAP1 PUSH1 0x0 MSTORE PUSH1 0x20 PUSH1 0x0 KECCAK256 SWAP1 DUP2 ADD SWAP1 PUSH2 0x3B5D SWAP2 SWAP1 PUSH2 0x3C33 JUMP JUMPDEST JUMPDEST POP JUMP JUMPDEST POP DUP1 SLOAD PUSH1 0x0 DUP3 SSTORE SWAP1 PUSH1 0x0 MSTORE PUSH1 0x20 PUSH1 0x0 KECCAK256 SWAP1 DUP2 ADD SWAP1 PUSH2 0x3B7F SWAP2 SWAP1 PUSH2 0x3C0F JUMP JUMPDEST POP JUMP JUMPDEST DUP3 DUP1 SLOAD PUSH2 0x3B8E SWAP1 PUSH2 0x4885 JUMP JUMPDEST SWAP1 PUSH1 0x0 MSTORE PUSH1 0x20 PUSH1 0x0 KECCAK256 SWAP1 PUSH1 0x1F ADD PUSH1 0x20 SWAP1 DIV DUP2 ADD SWAP3 DUP3 PUSH2 0x3BB0 JUMPI PUSH1 0x0 DUP6 SSTORE PUSH2 0x3BFE JUMP JUMPDEST DUP3 PUSH1 0x1F LT PUSH2 0x3BC1 JUMPI DUP1 SLOAD DUP6 SSTORE PUSH2 0x3BFE JUMP JUMPDEST DUP3 DUP1 ADD PUSH1 0x1 ADD DUP6 SSTORE DUP3 ISZERO PUSH2 0x3BFE JUMPI PUSH1 0x0 MSTORE PUSH1 0x20 PUSH1 0x0 KECCAK256 SWAP2 PUSH1 0x1F ADD PUSH1 0x20 SWAP1 DIV DUP3 ADD JUMPDEST DUP3 DUP2 GT ISZERO PUSH2 0x3BFD JUMPI DUP3 SLOAD DUP3 SSTORE SWAP2 PUSH1 0x1 ADD SWAP2 SWAP1 PUSH1 0x1 ADD SWAP1 PUSH2 0x3BE2 JUMP JUMPDEST JUMPDEST POP SWAP1 POP PUSH2 0x3C0B SWAP2 SWAP1 PUSH2 0x3C33 JUMP JUMPDEST POP SWAP1 JUMP JUMPDEST JUMPDEST DUP1 DUP3 GT ISZERO PUSH2 0x3C2F JUMPI PUSH1 0x0 DUP2 DUP2 PUSH2 0x3C26 SWAP2 SWAP1 PUSH2 0x3B21 JUMP JUMPDEST POP PUSH1 0x1 ADD PUSH2 0x3C10 JUMP JUMPDEST POP SWAP1 JUMP JUMPDEST JUMPDEST DUP1 DUP3 GT ISZERO PUSH2 0x3C4C JUMPI PUSH1 0x0 DUP2 PUSH1 0x0 SWAP1 SSTORE POP PUSH1 0x1 ADD PUSH2 0x3C34 JUMP JUMPDEST POP SWAP1 JUMP JUMPDEST PUSH1 0x0 PUSH2 0x3C63 PUSH2 0x3C5E DUP5 PUSH2 0x46EA JUMP JUMPDEST PUSH2 0x46B9 JUMP JUMPDEST SWAP1 POP DUP1 DUP4 DUP3 MSTORE PUSH1 0x20 DUP3 ADD SWAP1 POP DUP3 PUSH1 0x0 JUMPDEST DUP6 DUP2 LT ISZERO PUSH2 0x3CA3 JUMPI DUP2 CALLDATALOAD DUP6 ADD PUSH2 0x3C89 DUP9 DUP3 PUSH2 0x3D15 JUMP JUMPDEST DUP5 MSTORE PUSH1 0x20 DUP5 ADD SWAP4 POP PUSH1 0x20 DUP4 ADD SWAP3 POP POP PUSH1 0x1 DUP2 ADD SWAP1 POP PUSH2 0x3C73 JUMP JUMPDEST POP POP POP SWAP4 SWAP3 POP POP POP JUMP JUMPDEST PUSH1 0x0 PUSH2 0x3CC0 PUSH2 0x3CBB DUP5 PUSH2 0x4716 JUMP JUMPDEST PUSH2 0x46B9 JUMP JUMPDEST SWAP1 POP DUP3 DUP2 MSTORE PUSH1 0x20 DUP2 ADD DUP5 DUP5 DUP5 ADD GT ISZERO PUSH2 0x3CD8 JUMPI PUSH1 0x0 DUP1 REVERT JUMPDEST PUSH2 0x3CE3 DUP5 DUP3 DUP6 PUSH2 0x4843 JUMP JUMPDEST POP SWAP4 SWAP3 POP POP POP JUMP JUMPDEST PUSH1 0x0 DUP3 PUSH1 0x1F DUP4 ADD SLT PUSH2 0x3CFC JUMPI PUSH1 0x0 DUP1 REVERT JUMPDEST DUP2 CALLDATALOAD PUSH2 0x3D0C DUP5 DUP3 PUSH1 0x20 DUP7 ADD PUSH2 0x3C50 JUMP JUMPDEST SWAP2 POP POP SWAP3 SWAP2 POP POP JUMP JUMPDEST PUSH1 0x0 DUP3 PUSH1 0x1F DUP4 ADD SLT PUSH2 0x3D26 JUMPI PUSH1 0x0 DUP1 REVERT JUMPDEST DUP2 CALLDATALOAD PUSH2 0x3D36 DUP5 DUP3 PUSH1 0x20 DUP7 ADD PUSH2 0x3CAD JUMP JUMPDEST SWAP2 POP POP SWAP3 SWAP2 POP POP JUMP JUMPDEST PUSH1 0x0 PUSH1 0x20 DUP3 DUP5 SUB SLT ISZERO PUSH2 0x3D51 JUMPI PUSH1 0x0 DUP1 REVERT JUMPDEST PUSH1 0x0 DUP3 ADD CALLDATALOAD PUSH8 0xFFFFFFFFFFFFFFFF DUP2 GT ISZERO PUSH2 0x3D6B JUMPI PUSH1 0x0 DUP1 REVERT JUMPDEST PUSH2 0x3D77 DUP5 DUP3 DUP6 ADD PUSH2 0x3D15 JUMP JUMPDEST SWAP2 POP POP SWAP3 SWAP2 POP POP JUMP JUMPDEST PUSH1 0x0 DUP1 PUSH1 0x40 DUP4 DUP6 SUB SLT ISZERO PUSH2 0x3D93 JUMPI PUSH1 0x0 DUP1 REVERT JUMPDEST PUSH1 0x0 DUP4 ADD CALLDATALOAD PUSH8 0xFFFFFFFFFFFFFFFF DUP2 GT ISZERO PUSH2 0x3DAD JUMPI PUSH1 0x0 DUP1 REVERT JUMPDEST PUSH2 0x3DB9 DUP6 DUP3 DUP7 ADD PUSH2 0x3D15 JUMP JUMPDEST SWAP3 POP POP PUSH1 0x20 DUP4 ADD CALLDATALOAD PUSH8 0xFFFFFFFFFFFFFFFF DUP2 GT ISZERO PUSH2 0x3DD6 JUMPI PUSH1 0x0 DUP1 REVERT JUMPDEST PUSH2 0x3DE2 DUP6 DUP3 DUP7 ADD PUSH2 0x3CEB JUMP JUMPDEST SWAP2 POP POP SWAP3 POP SWAP3 SWAP1 POP JUMP JUMPDEST PUSH1 0x0 DUP1 PUSH1 0x40 DUP4 DUP6 SUB SLT ISZERO PUSH2 0x3DFF JUMPI PUSH1 0x0 DUP1 REVERT JUMPDEST PUSH1 0x0 DUP4 ADD CALLDATALOAD PUSH8 0xFFFFFFFFFFFFFFFF DUP2 GT ISZERO PUSH2 0x3E19 JUMPI PUSH1 0x0 DUP1 REVERT JUMPDEST PUSH2 0x3E25 DUP6 DUP3 DUP7 ADD PUSH2 0x3D15 JUMP JUMPDEST SWAP3 POP POP PUSH1 0x20 DUP4 ADD CALLDATALOAD PUSH8 0xFFFFFFFFFFFFFFFF DUP2 GT ISZERO PUSH2 0x3E42 JUMPI PUSH1 0x0 DUP1 REVERT JUMPDEST PUSH2 0x3E4E DUP6 DUP3 DUP7 ADD PUSH2 0x3D15 JUMP JUMPDEST SWAP2 POP POP SWAP3 POP SWAP3 SWAP1 POP JUMP JUMPDEST PUSH1 0x0 DUP1 PUSH1 0x0 PUSH1 0x60 DUP5 DUP7 SUB SLT ISZERO PUSH2 0x3E6D JUMPI PUSH1 0x0 DUP1 REVERT JUMPDEST PUSH1 0x0 DUP5 ADD CALLDATALOAD PUSH8 0xFFFFFFFFFFFFFFFF DUP2 GT ISZERO PUSH2 0x3E87 JUMPI PUSH1 0x0 DUP1 REVERT JUMPDEST PUSH2 0x3E93 DUP7 DUP3 DUP8 ADD PUSH2 0x3D15 JUMP JUMPDEST SWAP4 POP POP PUSH1 0x20 DUP5 ADD CALLDATALOAD PUSH8 0xFFFFFFFFFFFFFFFF DUP2 GT ISZERO PUSH2 0x3EB0 JUMPI PUSH1 0x0 DUP1 REVERT JUMPDEST PUSH2 0x3EBC DUP7 DUP3 DUP8 ADD PUSH2 0x3D15 JUMP JUMPDEST SWAP3 POP POP PUSH1 0x40 DUP5 ADD CALLDATALOAD PUSH8 0xFFFFFFFFFFFFFFFF DUP2 GT ISZERO PUSH2 0x3ED9 JUMPI PUSH1 0x0 DUP1 REVERT JUMPDEST PUSH2 0x3EE5 DUP7 DUP3 DUP8 ADD PUSH2 0x3CEB JUMP JUMPDEST SWAP2 POP POP SWAP3 POP SWAP3 POP SWAP3 JUMP JUMPDEST PUSH1 0x0 DUP1 PUSH1 0x0 DUP1 PUSH1 0x80 DUP6 DUP8 SUB SLT ISZERO PUSH2 0x3F05 JUMPI PUSH1 0x0 DUP1 REVERT JUMPDEST PUSH1 0x0 DUP6 ADD CALLDATALOAD PUSH8 0xFFFFFFFFFFFFFFFF DUP2 GT ISZERO PUSH2 0x3F1F JUMPI PUSH1 0x0 DUP1 REVERT JUMPDEST PUSH2 0x3F2B DUP8 DUP3 DUP9 ADD PUSH2 0x3D15 JUMP JUMPDEST SWAP5 POP POP PUSH1 0x20 DUP6 ADD CALLDATALOAD PUSH8 0xFFFFFFFFFFFFFFFF DUP2 GT ISZERO PUSH2 0x3F48 JUMPI PUSH1 0x0 DUP1 REVERT JUMPDEST PUSH2 0x3F54 DUP8 DUP3 DUP9 ADD PUSH2 0x3D15 JUMP JUMPDEST SWAP4 POP POP PUSH1 0x40 DUP6 ADD CALLDATALOAD PUSH8 0xFFFFFFFFFFFFFFFF DUP2 GT ISZERO PUSH2 0x3F71 JUMPI PUSH1 0x0 DUP1 REVERT JUMPDEST PUSH2 0x3F7D DUP8 DUP3 DUP9 ADD PUSH2 0x3CEB JUMP JUMPDEST SWAP3 POP POP PUSH1 0x60 DUP6 ADD CALLDATALOAD PUSH8 0xFFFFFFFFFFFFFFFF DUP2 GT ISZERO PUSH2 0x3F9A JUMPI PUSH1 0x0 DUP1 REVERT JUMPDEST PUSH2 0x3FA6 DUP8 DUP3 DUP9 ADD PUSH2 0x3D15 JUMP JUMPDEST SWAP2 POP POP SWAP3 SWAP6 SWAP2 SWAP5 POP SWAP3 POP JUMP JUMPDEST PUSH1 0x0 PUSH2 0x3FBE DUP4 DUP4 PUSH2 0x40D2 JUMP JUMPDEST SWAP1 POP SWAP3 SWAP2 POP POP JUMP JUMPDEST PUSH1 0x0 PUSH2 0x3FD2 DUP4 DUP4 PUSH2 0x4175 JUMP JUMPDEST SWAP1 POP SWAP3 SWAP2 POP POP JUMP JUMPDEST PUSH1 0x0 PUSH2 0x3FE5 DUP3 PUSH2 0x4780 JUMP JUMPDEST PUSH2 0x3FEF DUP2 DUP6 PUSH2 0x47BB JUMP JUMPDEST SWAP4 POP DUP4 PUSH1 0x20 DUP3 MUL DUP6 ADD PUSH2 0x4001 DUP6 PUSH2 0x4746 JUMP JUMPDEST DUP1 PUSH1 0x0 JUMPDEST DUP6 DUP2 LT ISZERO PUSH2 0x403D JUMPI DUP5 DUP5 SUB DUP10 MSTORE DUP2 MLOAD PUSH2 0x401E DUP6 DUP3 PUSH2 0x3FB2 JUMP JUMPDEST SWAP5 POP PUSH2 0x4029 DUP4 PUSH2 0x47A1 JUMP JUMPDEST SWAP3 POP PUSH1 0x20 DUP11 ADD SWAP10 POP POP PUSH1 0x1 DUP2 ADD SWAP1 POP PUSH2 0x4005 JUMP JUMPDEST POP DUP3 SWAP8 POP DUP8 SWAP6 POP POP POP POP POP POP SWAP3 SWAP2 POP POP JUMP JUMPDEST PUSH1 0x0 PUSH2 0x405A DUP3 PUSH2 0x478B JUMP JUMPDEST PUSH2 0x4064 DUP2 DUP6 PUSH2 0x47BB JUMP JUMPDEST SWAP4 POP DUP4 PUSH1 0x20 DUP3 MUL DUP6 ADD PUSH2 0x4076 DUP6 PUSH2 0x4756 JUMP JUMPDEST DUP1 PUSH1 0x0 JUMPDEST DUP6 DUP2 LT ISZERO PUSH2 0x40B1 JUMPI DUP5 DUP5 SUB DUP10 MSTORE DUP2 PUSH2 0x4092 DUP6 DUP3 PUSH2 0x3FC6 JUMP JUMPDEST SWAP5 POP PUSH2 0x409D DUP4 PUSH2 0x47AE JUMP JUMPDEST SWAP3 POP PUSH1 0x20 DUP11 ADD SWAP10 POP POP PUSH1 0x1 DUP2 ADD SWAP1 POP PUSH2 0x407A JUMP JUMPDEST POP DUP3 SWAP8 POP DUP8 SWAP6 POP POP POP POP POP POP SWAP3 SWAP2 POP POP JUMP JUMPDEST PUSH2 0x40CC DUP2 PUSH2 0x482D JUMP JUMPDEST DUP3 MSTORE POP POP JUMP JUMPDEST PUSH1 0x0 PUSH2 0x40DD DUP3 PUSH2 0x4796 JUMP JUMPDEST PUSH2 0x40E7 DUP2 DUP6 PUSH2 0x47CC JUMP JUMPDEST SWAP4 POP PUSH2 0x40F7 DUP2 DUP6 PUSH1 0x20 DUP7 ADD PUSH2 0x4852 JUMP JUMPDEST PUSH2 0x4100 DUP2 PUSH2 0x498D JUMP JUMPDEST DUP5 ADD SWAP2 POP POP SWAP3 SWAP2 POP POP JUMP JUMPDEST PUSH1 0x0 PUSH2 0x4116 DUP3 PUSH2 0x4796 JUMP JUMPDEST PUSH2 0x4120 DUP2 DUP6 PUSH2 0x47DD JUMP JUMPDEST SWAP4 POP PUSH2 0x4130 DUP2 DUP6 PUSH1 0x20 DUP7 ADD PUSH2 0x4852 JUMP JUMPDEST PUSH2 0x4139 DUP2 PUSH2 0x498D JUMP JUMPDEST DUP5 ADD SWAP2 POP POP SWAP3 SWAP2 POP POP JUMP JUMPDEST PUSH1 0x0 PUSH2 0x414F DUP3 PUSH2 0x4796 JUMP JUMPDEST PUSH2 0x4159 DUP2 DUP6 PUSH2 0x47EE JUMP JUMPDEST SWAP4 POP PUSH2 0x4169 DUP2 DUP6 PUSH1 0x20 DUP7 ADD PUSH2 0x4852 JUMP JUMPDEST DUP1 DUP5 ADD SWAP2 POP POP SWAP3 SWAP2 POP POP JUMP JUMPDEST PUSH1 0x0 DUP2 SLOAD PUSH2 0x4182 DUP2 PUSH2 0x4885 JUMP JUMPDEST PUSH2 0x418C DUP2 DUP7 PUSH2 0x47CC JUMP JUMPDEST SWAP5 POP PUSH1 0x1 DUP3 AND PUSH1 0x0 DUP2 EQ PUSH2 0x41A7 JUMPI PUSH1 0x1 DUP2 EQ PUSH2 0x41B9 JUMPI PUSH2 0x41EC JUMP JUMPDEST PUSH1 0xFF NOT DUP4 AND DUP7 MSTORE PUSH1 0x20 DUP7 ADD SWAP4 POP PUSH2 0x41EC JUMP JUMPDEST PUSH2 0x41C2 DUP6 PUSH2 0x476B JUMP JUMPDEST PUSH1 0x0 JUMPDEST DUP4 DUP2 LT ISZERO PUSH2 0x41E4 JUMPI DUP2 SLOAD DUP2 DUP10 ADD MSTORE PUSH1 0x1 DUP3 ADD SWAP2 POP PUSH1 0x20 DUP2 ADD SWAP1 POP PUSH2 0x41C5 JUMP JUMPDEST DUP1 DUP9 ADD SWAP6 POP POP POP JUMPDEST POP POP POP SWAP3 SWAP2 POP POP JUMP JUMPDEST PUSH1 0x0 DUP2 SLOAD PUSH2 0x4202 DUP2 PUSH2 0x4885 JUMP JUMPDEST PUSH2 0x420C DUP2 DUP7 PUSH2 0x47EE JUMP JUMPDEST SWAP5 POP PUSH1 0x1 DUP3 AND PUSH1 0x0 DUP2 EQ PUSH2 0x4227 JUMPI PUSH1 0x1 DUP2 EQ PUSH2 0x4238 JUMPI PUSH2 0x426B JUMP JUMPDEST PUSH1 0xFF NOT DUP4 AND DUP7 MSTORE DUP2 DUP7 ADD SWAP4 POP PUSH2 0x426B JUMP JUMPDEST PUSH2 0x4241 DUP6 PUSH2 0x476B JUMP JUMPDEST PUSH1 0x0 JUMPDEST DUP4 DUP2 LT ISZERO PUSH2 0x4263 JUMPI DUP2 SLOAD DUP2 DUP10 ADD MSTORE PUSH1 0x1 DUP3 ADD SWAP2 POP PUSH1 0x20 DUP2 ADD SWAP1 POP PUSH2 0x4244 JUMP JUMPDEST DUP4 DUP9 ADD SWAP6 POP POP POP JUMPDEST POP POP POP SWAP3 SWAP2 POP POP JUMP JUMPDEST PUSH1 0x0 PUSH2 0x4281 PUSH1 0x20 DUP4 PUSH2 0x47DD JUMP JUMPDEST SWAP2 POP PUSH32 0x47726F7570206E6F7420666F756E6420696E20616C6C47726F75704E616D6573 PUSH1 0x0 DUP4 ADD MSTORE PUSH1 0x20 DUP3 ADD SWAP1 POP SWAP2 SWAP1 POP JUMP JUMPDEST PUSH1 0x0 PUSH2 0x42C1 PUSH1 0x2F DUP4 PUSH2 0x47DD JUMP JUMPDEST SWAP2 POP PUSH32 0x4D6F64696679696E6720636F72652067726F7570207065726D697373696F6E73 PUSH1 0x0 DUP4 ADD MSTORE PUSH32 0x206973206E6F7420616C6C6F7765640000000000000000000000000000000000 PUSH1 0x20 DUP4 ADD MSTORE PUSH1 0x40 DUP3 ADD SWAP1 POP SWAP2 SWAP1 POP JUMP JUMPDEST PUSH1 0x0 PUSH2 0x4327 PUSH1 0x2F DUP4 PUSH2 0x47DD JUMP JUMPDEST SWAP2 POP PUSH32 0x4F6E6C792074686520636F6E7472616374206F776E65722063616E2070657266 PUSH1 0x0 DUP4 ADD MSTORE PUSH32 0x6F726D207468697320616374696F6E0000000000000000000000000000000000 PUSH1 0x20 DUP4 ADD MSTORE PUSH1 0x40 DUP3 ADD SWAP1 POP SWAP2 SWAP1 POP JUMP JUMPDEST PUSH1 0x0 PUSH2 0x438D PUSH1 0x14 DUP4 PUSH2 0x47DD JUMP JUMPDEST SWAP2 POP PUSH32 0x47726F757020646F6573206E6F74206578697374000000000000000000000000 PUSH1 0x0 DUP4 ADD MSTORE PUSH1 0x20 DUP3 ADD SWAP1 POP SWAP2 SWAP1 POP JUMP JUMPDEST PUSH1 0x0 PUSH2 0x43CD PUSH1 0x13 DUP4 PUSH2 0x47DD JUMP JUMPDEST SWAP2 POP PUSH32 0x5573657220646F6573206E6F7420657869737400000000000000000000000000 PUSH1 0x0 DUP4 ADD MSTORE PUSH1 0x20 DUP3 ADD SWAP1 POP SWAP2 SWAP1 POP JUMP JUMPDEST PUSH1 0x0 PUSH2 0x440D PUSH1 0x19 DUP4 PUSH2 0x47DD JUMP JUMPDEST SWAP2 POP PUSH32 0x55736572206973206E6F7420696E20746869732067726F757000000000000000 PUSH1 0x0 DUP4 ADD MSTORE PUSH1 0x20 DUP3 ADD SWAP1 POP SWAP2 SWAP1 POP JUMP JUMPDEST PUSH1 0x0 PUSH2 0x444C DUP3 DUP5 PUSH2 0x4144 JUMP JUMPDEST SWAP2 POP DUP2 SWAP1 POP SWAP3 SWAP2 POP POP JUMP JUMPDEST PUSH1 0x0 PUSH2 0x4463 DUP3 DUP5 PUSH2 0x41F5 JUMP JUMPDEST SWAP2 POP DUP2 SWAP1 POP SWAP3 SWAP2 POP POP JUMP JUMPDEST PUSH1 0x0 PUSH1 0x20 DUP3 ADD SWAP1 POP DUP2 DUP2 SUB PUSH1 0x0 DUP4 ADD MSTORE PUSH2 0x4488 DUP2 DUP5 PUSH2 0x3FDA JUMP JUMPDEST SWAP1 POP SWAP3 SWAP2 POP POP JUMP JUMPDEST PUSH1 0x0 PUSH1 0x20 DUP3 ADD SWAP1 POP DUP2 DUP2 SUB PUSH1 0x0 DUP4 ADD MSTORE PUSH2 0x44AA DUP2 DUP5 PUSH2 0x404F JUMP JUMPDEST SWAP1 POP SWAP3 SWAP2 POP POP JUMP JUMPDEST PUSH1 0x0 PUSH1 0x20 DUP3 ADD SWAP1 POP PUSH2 0x44C7 PUSH1 0x0 DUP4 ADD DUP5 PUSH2 0x40C3 JUMP JUMPDEST SWAP3 SWAP2 POP POP JUMP JUMPDEST PUSH1 0x0 PUSH1 0x20 DUP3 ADD SWAP1 POP DUP2 DUP2 SUB PUSH1 0x0 DUP4 ADD MSTORE PUSH2 0x44E7 DUP2 DUP5 PUSH2 0x410B JUMP JUMPDEST SWAP1 POP SWAP3 SWAP2 POP POP JUMP JUMPDEST PUSH1 0x0 PUSH1 0x60 DUP3 ADD SWAP1 POP DUP2 DUP2 SUB PUSH1 0x0 DUP4 ADD MSTORE PUSH2 0x4509 DUP2 DUP7 PUSH2 0x410B JUMP JUMPDEST SWAP1 POP DUP2 DUP2 SUB PUSH1 0x20 DUP4 ADD MSTORE PUSH2 0x451D DUP2 DUP6 PUSH2 0x3FDA JUMP JUMPDEST SWAP1 POP DUP2 DUP2 SUB PUSH1 0x40 DUP4 ADD MSTORE PUSH2 0x4531 DUP2 DUP5 PUSH2 0x3FDA JUMP JUMPDEST SWAP1 POP SWAP5 SWAP4 POP POP POP POP JUMP JUMPDEST PUSH1 0x0 PUSH2 0x120 DUP3 ADD SWAP1 POP DUP2 DUP2 SUB PUSH1 0x0 DUP4 ADD MSTORE PUSH2 0x4556 DUP2 DUP13 PUSH2 0x410B JUMP JUMPDEST SWAP1 POP DUP2 DUP2 SUB PUSH1 0x20 DUP4 ADD MSTORE PUSH2 0x456A DUP2 DUP12 PUSH2 0x410B JUMP JUMPDEST SWAP1 POP DUP2 DUP2 SUB PUSH1 0x40 DUP4 ADD MSTORE PUSH2 0x457E DUP2 DUP11 PUSH2 0x3FDA JUMP JUMPDEST SWAP1 POP DUP2 DUP2 SUB PUSH1 0x60 DUP4 ADD MSTORE PUSH2 0x4592 DUP2 DUP10 PUSH2 0x410B JUMP JUMPDEST SWAP1 POP DUP2 DUP2 SUB PUSH1 0x80 DUP4 ADD MSTORE PUSH2 0x45A6 DUP2 DUP9 PUSH2 0x410B JUMP JUMPDEST SWAP1 POP PUSH2 0x45B5 PUSH1 0xA0 DUP4 ADD DUP8 PUSH2 0x40C3 JUMP JUMPDEST PUSH2 0x45C2 PUSH1 0xC0 DUP4 ADD DUP7 PUSH2 0x40C3 JUMP JUMPDEST DUP2 DUP2 SUB PUSH1 0xE0 DUP4 ADD MSTORE PUSH2 0x45D4 DUP2 DUP6 PUSH2 0x410B JUMP JUMPDEST SWAP1 POP DUP2 DUP2 SUB PUSH2 0x100 DUP4 ADD MSTORE PUSH2 0x45E9 DUP2 DUP5 PUSH2 0x410B JUMP JUMPDEST SWAP1 POP SWAP11 SWAP10 POP POP POP POP POP POP POP POP POP POP JUMP JUMPDEST PUSH1 0x0 PUSH1 0x20 DUP3 ADD SWAP1 POP DUP2 DUP2 SUB PUSH1 0x0 DUP4 ADD MSTORE PUSH2 0x4612 DUP2 PUSH2 0x4274 JUMP JUMPDEST SWAP1 POP SWAP2 SWAP1 POP JUMP JUMPDEST PUSH1 0x0 PUSH1 0x20 DUP3 ADD SWAP1 POP DUP2 DUP2 SUB PUSH1 0x0 DUP4 ADD MSTORE PUSH2 0x4632 DUP2 PUSH2 0x42B4 JUMP JUMPDEST SWAP1 POP SWAP2 SWAP1 POP JUMP JUMPDEST PUSH1 0x0 PUSH1 0x20 DUP3 ADD SWAP1 POP DUP2 DUP2 SUB PUSH1 0x0 DUP4 ADD MSTORE PUSH2 0x4652 DUP2 PUSH2 0x431A JUMP JUMPDEST SWAP1 POP SWAP2 SWAP1 POP JUMP JUMPDEST PUSH1 0x0 PUSH1 0x20 DUP3 ADD SWAP1 POP DUP2 DUP2 SUB PUSH1 0x0 DUP4 ADD MSTORE PUSH2 0x4672 DUP2 PUSH2 0x4380 JUMP JUMPDEST SWAP1 POP SWAP2 SWAP1 POP JUMP JUMPDEST PUSH1 0x0 PUSH1 0x20 DUP3 ADD SWAP1 POP DUP2 DUP2 SUB PUSH1 0x0 DUP4 ADD MSTORE PUSH2 0x4692 DUP2 PUSH2 0x43C0 JUMP JUMPDEST SWAP1 POP SWAP2 SWAP1 POP JUMP JUMPDEST PUSH1 0x0 PUSH1 0x20 DUP3 ADD SWAP1 POP DUP2 DUP2 SUB PUSH1 0x0 DUP4 ADD MSTORE PUSH2 0x46B2 DUP2 PUSH2 0x4400 JUMP JUMPDEST SWAP1 POP SWAP2 SWAP1 POP JUMP JUMPDEST PUSH1 0x0 PUSH1 0x40 MLOAD SWAP1 POP DUP2 DUP2 ADD DUP2 DUP2 LT PUSH8 0xFFFFFFFFFFFFFFFF DUP3 GT OR ISZERO PUSH2 0x46E0 JUMPI PUSH2 0x46DF PUSH2 0x495E JUMP JUMPDEST JUMPDEST DUP1 PUSH1 0x40 MSTORE POP SWAP2 SWAP1 POP JUMP JUMPDEST PUSH1 0x0 PUSH8 0xFFFFFFFFFFFFFFFF DUP3 GT ISZERO PUSH2 0x4705 JUMPI PUSH2 0x4704 PUSH2 0x495E JUMP JUMPDEST JUMPDEST PUSH1 0x20 DUP3 MUL SWAP1 POP PUSH1 0x20 DUP2 ADD SWAP1 POP SWAP2 SWAP1 POP JUMP JUMPDEST PUSH1 0x0 PUSH8 0xFFFFFFFFFFFFFFFF DUP3 GT ISZERO PUSH2 0x4731 JUMPI PUSH2 0x4730 PUSH2 0x495E JUMP JUMPDEST JUMPDEST PUSH1 0x1F NOT PUSH1 0x1F DUP4 ADD AND SWAP1 POP PUSH1 0x20 DUP2 ADD SWAP1 POP SWAP2 SWAP1 POP JUMP JUMPDEST PUSH1 0x0 DUP2 SWAP1 POP PUSH1 0x20 DUP3 ADD SWAP1 POP SWAP2 SWAP1 POP JUMP JUMPDEST PUSH1 0x0 DUP2 SWAP1 POP DUP2 PUSH1 0x0 MSTORE PUSH1 0x20 PUSH1 0x0 KECCAK256 SWAP1 POP SWAP2 SWAP1 POP JUMP JUMPDEST PUSH1 0x0 DUP2 SWAP1 POP DUP2 PUSH1 0x0 MSTORE PUSH1 0x20 PUSH1 0x0 KECCAK256 SWAP1 POP SWAP2 SWAP1 POP JUMP JUMPDEST PUSH1 0x0 DUP2 MLOAD SWAP1 POP SWAP2 SWAP1 POP JUMP JUMPDEST PUSH1 0x0 DUP2 SLOAD SWAP1 POP SWAP2 SWAP1 POP JUMP JUMPDEST PUSH1 0x0 DUP2 MLOAD SWAP1 POP SWAP2 SWAP1 POP JUMP JUMPDEST PUSH1 0x0 PUSH1 0x20 DUP3 ADD SWAP1 POP SWAP2 SWAP1 POP JUMP JUMPDEST PUSH1 0x0 PUSH1 0x1 DUP3 ADD SWAP1 POP SWAP2 SWAP1 POP JUMP JUMPDEST PUSH1 0x0 DUP3 DUP3 MSTORE PUSH1 0x20 DUP3 ADD SWAP1 POP SWAP3 SWAP2 POP POP JUMP JUMPDEST PUSH1 0x0 DUP3 DUP3 MSTORE PUSH1 0x20 DUP3 ADD SWAP1 POP SWAP3 SWAP2 POP POP JUMP JUMPDEST PUSH1 0x0 DUP3 DUP3 MSTORE PUSH1 0x20 DUP3 ADD SWAP1 POP SWAP3 SWAP2 POP POP JUMP JUMPDEST PUSH1 0x0 DUP2 SWAP1 POP SWAP3 SWAP2 POP POP JUMP JUMPDEST PUSH1 0x0 PUSH2 0x4804 DUP3 PUSH2 0x4839 JUMP JUMPDEST SWAP2 POP PUSH2 0x480F DUP4 PUSH2 0x4839 JUMP JUMPDEST SWAP3 POP DUP3 DUP3 LT ISZERO PUSH2 0x4822 JUMPI PUSH2 0x4821 PUSH2 0x4900 JUMP JUMPDEST JUMPDEST DUP3 DUP3 SUB SWAP1 POP SWAP3 SWAP2 POP POP JUMP JUMPDEST PUSH1 0x0 DUP2 ISZERO ISZERO SWAP1 POP SWAP2 SWAP1 POP JUMP JUMPDEST PUSH1 0x0 DUP2 SWAP1 POP SWAP2 SWAP1 POP JUMP JUMPDEST DUP3 DUP2 DUP4 CALLDATACOPY PUSH1 0x0 DUP4 DUP4 ADD MSTORE POP POP POP JUMP JUMPDEST PUSH1 0x0 JUMPDEST DUP4 DUP2 LT ISZERO PUSH2 0x4870 JUMPI DUP1 DUP3 ADD MLOAD DUP2 DUP5 ADD MSTORE PUSH1 0x20 DUP2 ADD SWAP1 POP PUSH2 0x4855 JUMP JUMPDEST DUP4 DUP2 GT ISZERO PUSH2 0x487F JUMPI PUSH1 0x0 DUP5 DUP5 ADD MSTORE JUMPDEST POP POP POP POP JUMP JUMPDEST PUSH1 0x0 PUSH1 0x2 DUP3 DIV SWAP1 POP PUSH1 0x1 DUP3 AND DUP1 PUSH2 0x489D JUMPI PUSH1 0x7F DUP3 AND SWAP2 POP JUMPDEST PUSH1 0x20 DUP3 LT DUP2 EQ ISZERO PUSH2 0x48B1 JUMPI PUSH2 0x48B0 PUSH2 0x492F JUMP JUMPDEST JUMPDEST POP SWAP2 SWAP1 POP JUMP JUMPDEST PUSH1 0x0 PUSH2 0x48C2 DUP3 PUSH2 0x4839 JUMP JUMPDEST SWAP2 POP PUSH32 0xFFFFFFFFFFFFFFFFFFFFFFFFFFFFFFFFFFFFFFFFFFFFFFFFFFFFFFFFFFFFFFFF DUP3 EQ ISZERO PUSH2 0x48F5 JUMPI PUSH2 0x48F4 PUSH2 0x4900 JUMP JUMPDEST JUMPDEST PUSH1 0x1 DUP3 ADD SWAP1 POP SWAP2 SWAP1 POP JUMP JUMPDEST PUSH32 0x4E487B7100000000000000000000000000000000000000000000000000000000 PUSH1 0x0 MSTORE PUSH1 0x11 PUSH1 0x4 MSTORE PUSH1 0x24 PUSH1 0x0 REVERT JUMPDEST PUSH32 0x4E487B7100000000000000000000000000000000000000000000000000000000 PUSH1 0x0 MSTORE PUSH1 0x22 PUSH1 0x4 MSTORE PUSH1 0x24 PUSH1 0x0 REVERT JUMPDEST PUSH32 0x4E487B7100000000000000000000000000000000000000000000000000000000 PUSH1 0x0 MSTORE PUSH1 0x41 PUSH1 0x4 MSTORE PUSH1 0x24 PUSH1 0x0 REVERT JUMPDEST PUSH1 0x0 PUSH1 0x1F NOT PUSH1 0x1F DUP4 ADD AND SWAP1 POP SWAP2 SWAP1 POP JUMP INVALID LOG2 PUSH5 0x6970667358 0x22 SLT KECCAK256 MULMOD MUL 0xCF DIFFICULTY JUMP PUSH32 0x27D7C2521375D8765C1574E365100E2A2A9E009588A9756B1D3C64736F6C6343 STOP ADDMOD STOP STOP CALLER "},"methodIdentifiers":{"addUserToGroup(string,string)":"ecb5a4d5","checkIfUserExists(string)":"6cad1934","createGroup(string,string[])":"7c77f39f","getAllGroups()":"21cd3cae","getAllUsernames()":"53620375","getGroup(string)":"abef281e","getUser(string)":"31feb671","getUserFaceHashes(string)":"2d09d9e9","getUserPermissions(string)":"ee1c55da","registerUser(string,string,string[],string)":"b9e6facb","removeGroup(string)":"6246b310","removeUserFromGroup(string,string)":"67753ba1","requireUserPasswordChange(string)":"e537cac7","setGroupPermissions(string,string[])":"1ae7f10a","toggleUser(string)":"5108c3ab","updateGroup(string,string,string[])":"5b9a6b1d","updateUserEmail(string,string)":"266c1bab","updateUserFaceHash(string,string[])":"03df9e92","updateUserFullName(string,string)":"8a0bd86b","updateUserPassword(string,string)":"c91bc46c"}}}}}