{"contracts/FaceGuard.sol":{"FaceGuard":{"abi":[{"inputs":[],"stateMutability":"nonpayable","type":"constructor"},{"anonymous":false,"inputs":[{"indexed":true,"internalType":"string","name":"indexedUsername","type":"string"},{"indexed":false,"internalType":"string","name":"username","type":"string"},{"indexed":false,"internalType":"string[]","name":"oldFaceHashes","type":"string[]"},{"indexed":false,"internalType":"string[]","name":"newFaceHashes","type":"string[]"}],"name":"FaceHashUpdated","type":"event"},{"anonymous":false,"inputs":[{"indexed":true,"internalType":"string","name":"indexedGroupName","type":"string"},{"indexed":false,"internalType":"string","name":"groupName","type":"string"},{"indexed":false,"internalType":"string","name":"oldAccessURL","type":"string"},{"indexed":false,"internalType":"string","name":"newAccessURL","type":"string"}],"name":"GroupAccessURLChanged","type":"event"},{"anonymous":false,"inputs":[{"indexed":true,"internalType":"string","name":"indexedGroupName","type":"string"},{"indexed":false,"internalType":"string","name":"groupName","type":"string"},{"indexed":false,"internalType":"string[]","name":"permissions","type":"string[]"}],"name":"GroupCreated","type":"event"},{"anonymous":false,"inputs":[{"indexed":true,"internalType":"string","name":"indexedGroupName","type":"string"},{"indexed":false,"internalType":"string","name":"oldGroupName","type":"string"},{"indexed":false,"internalType":"string","name":"newGroupName","type":"string"}],"name":"GroupNameUpdated","type":"event"},{"anonymous":false,"inputs":[{"indexed":true,"internalType":"string","name":"indexedGroupName","type":"string"},{"indexed":false,"internalType":"string","name":"groupName","type":"string"},{"indexed":false,"internalType":"string[]","name":"oldPermissions","type":"string[]"},{"indexed":false,"internalType":"string[]","name":"newPermissions","type":"string[]"}],"name":"GroupPermissionsUpdated","type":"event"},{"anonymous":false,"inputs":[{"indexed":true,"internalType":"string","name":"indexedGroupName","type":"string"},{"indexed":false,"internalType":"string","name":"groupName","type":"string"}],"name":"GroupRemoved","type":"event"},{"anonymous":false,"inputs":[{"indexed":true,"internalType":"string","name":"groupNameIndexed","type":"string"},{"indexed":false,"internalType":"string","name":"username","type":"string"},{"indexed":false,"internalType":"string","name":"groupName","type":"string"}],"name":"Group_UserAddedToGroup","type":"event"},{"anonymous":false,"inputs":[{"indexed":true,"internalType":"string","name":"groupNameIndexed","type":"string"},{"indexed":false,"internalType":"string","name":"username","type":"string"},{"indexed":false,"internalType":"string","name":"groupName","type":"string"}],"name":"Group_UserRemovedFromGroup","type":"event"},{"anonymous":false,"inputs":[{"indexed":true,"internalType":"string","name":"indexedUsername","type":"string"},{"indexed":false,"internalType":"string","name":"username","type":"string"}],"name":"PasswordChangeRequired","type":"event"},{"anonymous":false,"inputs":[{"indexed":true,"internalType":"string","name":"indexedUsername","type":"string"},{"indexed":false,"internalType":"string","name":"username","type":"string"}],"name":"PasswordUpdated","type":"event"},{"anonymous":false,"inputs":[{"indexed":true,"internalType":"string","name":"indexedUsername","type":"string"},{"indexed":false,"internalType":"string","name":"username","type":"string"},{"indexed":false,"internalType":"string","name":"oldEmail","type":"string"},{"indexed":false,"internalType":"string","name":"newEmail","type":"string"}],"name":"UserEmailUpdated","type":"event"},{"anonymous":false,"inputs":[{"indexed":true,"internalType":"string","name":"indexedUsername","type":"string"},{"indexed":false,"internalType":"string","name":"username","type":"string"},{"indexed":false,"internalType":"string","name":"oldFullName","type":"string"},{"indexed":false,"internalType":"string","name":"newFullName","type":"string"}],"name":"UserFullNameUpdated","type":"event"},{"anonymous":false,"inputs":[{"indexed":true,"internalType":"string","name":"indexedUsername","type":"string"},{"indexed":false,"internalType":"string","name":"username","type":"string"}],"name":"UserLoggedIn","type":"event"},{"anonymous":false,"inputs":[{"indexed":true,"internalType":"string","name":"indexedUsername","type":"string"},{"indexed":false,"internalType":"string","name":"username","type":"string"}],"name":"UserRegistered","type":"event"},{"anonymous":false,"inputs":[{"indexed":true,"internalType":"string","name":"indexedUsername","type":"string"},{"indexed":false,"internalType":"string","name":"username","type":"string"}],"name":"UserRemoved","type":"event"},{"anonymous":false,"inputs":[{"indexed":true,"internalType":"string","name":"indexedUsername","type":"string"},{"indexed":false,"internalType":"string","name":"username","type":"string"},{"indexed":false,"internalType":"bool","name":"enabled","type":"bool"}],"name":"UserToggled","type":"event"},{"anonymous":false,"inputs":[{"indexed":true,"internalType":"string","name":"indexedUsername","type":"string"},{"indexed":false,"internalType":"string","name":"username","type":"string"},{"indexed":false,"internalType":"string","name":"groupName","type":"string"}],"name":"User_UserAddedToGroup","type":"event"},{"anonymous":false,"inputs":[{"indexed":true,"internalType":"string","name":"indexedUsername","type":"string"},{"indexed":false,"internalType":"string","name":"username","type":"string"},{"indexed":false,"internalType":"string","name":"groupName","type":"string"}],"name":"User_UserRemovedFromGroup","type":"event"},{"inputs":[{"internalType":"string","name":"groupName","type":"string"},{"internalType":"string","name":"username","type":"string"}],"name":"addUserToGroup","outputs":[],"stateMutability":"nonpayable","type":"function"},{"inputs":[{"internalType":"string","name":"username","type":"string"}],"name":"checkIfUserExists","outputs":[{"internalType":"bool","name":"","type":"bool"}],"stateMutability":"view","type":"function"},{"inputs":[{"internalType":"string","name":"groupName","type":"string"},{"internalType":"string[]","name":"permissions","type":"string[]"},{"internalType":"string","name":"newURL","type":"string"}],"name":"createGroup","outputs":[],"stateMutability":"nonpayable","type":"function"},{"inputs":[{"internalType":"string","name":"username","type":"string"}],"name":"emitLoginSuccessLog","outputs":[],"stateMutability":"nonpayable","type":"function"},{"inputs":[],"name":"getAllGroups","outputs":[{"internalType":"string[]","name":"","type":"string[]"}],"stateMutability":"view","type":"function"},{"inputs":[],"name":"getAllUsernames","outputs":[{"internalType":"string[]","name":"","type":"string[]"}],"stateMutability":"view","type":"function"},{"inputs":[{"internalType":"string","name":"groupName","type":"string"}],"name":"getGroup","outputs":[{"internalType":"string","name":"","type":"string"},{"internalType":"string[]","name":"","type":"string[]"},{"internalType":"string[]","name":"","type":"string[]"},{"internalType":"string","name":"","type":"string"}],"stateMutability":"view","type":"function"},{"inputs":[{"internalType":"string","name":"username","type":"string"}],"name":"getUser","outputs":[{"internalType":"string","name":"","type":"string"},{"internalType":"string","name":"","type":"string"},{"internalType":"string[]","name":"","type":"string[]"},{"internalType":"string","name":"","type":"string"},{"internalType":"string","name":"","type":"string"},{"internalType":"bool","name":"","type":"bool"},{"internalType":"string","name":"","type":"string"},{"internalType":"string","name":"","type":"string"}],"stateMutability":"view","type":"function"},{"inputs":[{"internalType":"string","name":"username","type":"string"}],"name":"getUserFaceHashes","outputs":[{"internalType":"string[]","name":"","type":"string[]"}],"stateMutability":"view","type":"function"},{"inputs":[{"internalType":"string","name":"username","type":"string"}],"name":"getUserPermissions","outputs":[{"internalType":"string[]","name":"","type":"string[]"}],"stateMutability":"view","type":"function"},{"inputs":[{"internalType":"string","name":"username","type":"string"},{"internalType":"string","name":"passwordHash","type":"string"},{"internalType":"string[]","name":"initialFaceHashes","type":"string[]"},{"internalType":"string","name":"creationDate","type":"string"}],"name":"registerUser","outputs":[],"stateMutability":"nonpayable","type":"function"},{"inputs":[{"internalType":"string","name":"groupName","type":"string"}],"name":"removeGroup","outputs":[],"stateMutability":"nonpayable","type":"function"},{"inputs":[{"internalType":"string","name":"username","type":"string"}],"name":"removeUser","outputs":[],"stateMutability":"nonpayable","type":"function"},{"inputs":[{"internalType":"string","name":"groupName","type":"string"},{"internalType":"string","name":"username","type":"string"}],"name":"removeUserFromGroup","outputs":[],"stateMutability":"nonpayable","type":"function"},{"inputs":[{"internalType":"string","name":"groupName","type":"string"},{"internalType":"string[]","name":"groupPermissions","type":"string[]"}],"name":"setGroupPermissions","outputs":[{"internalType":"string","name":"","type":"string"}],"stateMutability":"nonpayable","type":"function"},{"inputs":[{"internalType":"string","name":"groupName","type":"string"},{"internalType":"string","name":"url","type":"string"}],"name":"setGroupURL","outputs":[],"stateMutability":"nonpayable","type":"function"},{"inputs":[{"internalType":"string","name":"username","type":"string"}],"name":"toggleUser","outputs":[],"stateMutability":"nonpayable","type":"function"},{"inputs":[{"internalType":"string","name":"originalGroupName","type":"string"},{"internalType":"string","name":"newGroupName","type":"string"},{"internalType":"string[]","name":"newPermissions","type":"string[]"}],"name":"updateGroup","outputs":[],"stateMutability":"nonpayable","type":"function"},{"inputs":[{"internalType":"string","name":"username","type":"string"},{"internalType":"string","name":"newEmail","type":"string"}],"name":"updateUserEmail","outputs":[],"stateMutability":"nonpayable","type":"function"},{"inputs":[{"internalType":"string","name":"username","type":"string"},{"internalType":"string[]","name":"newFaceHashes","type":"string[]"}],"name":"updateUserFaceHash","outputs":[],"stateMutability":"nonpayable","type":"function"},{"inputs":[{"internalType":"string","name":"username","type":"string"},{"internalType":"string","name":"newFullName","type":"string"}],"name":"updateUserFullName","outputs":[],"stateMutability":"nonpayable","type":"function"},{"inputs":[{"internalType":"string","name":"username","type":"string"},{"internalType":"string","name":"newPasswordHash","type":"string"}],"name":"updateUserPassword","outputs":[],"stateMutability":"nonpayable","type":"function"}],"evm":{"bytecode":{"linkReferences":{},"object":"60806040526000600560006101000a81548160ff0219169083151502179055503480156200002c57600080fd5b5033600560016101000a81548173ffffffffffffffffffffffffffffffffffffffff021916908373ffffffffffffffffffffffffffffffffffffffff160217905550600060405180608001604052806040518060400160405280601581526020017f466163654775617264204372656174653a20416c6c000000000000000000000081525081526020016040518060400160405280601381526020017f46616365477561726420526561643a20416c6c0000000000000000000000000081525081526020016040518060400160405280601581526020017f466163654775617264205570646174653a20416c6c000000000000000000000081525081526020016040518060400160405280601581526020017f4661636547756172642044656c6574653a20416c6c00000000000000000000008152508152509050600060405180606001604052806040518060400160405280601481526020017f46616365477561726420526561643a2053656c6600000000000000000000000081525081526020016040518060400160405280601681526020017f466163654775617264205570646174653a2053656c660000000000000000000081525081526020016040518060400160405280601681526020017f4661636547756172642044656c6574653a2053656c66000000000000000000008152508152509050600060405180608001604052806040518060400160405280601881526020017f466163654775617264204372656174653a2047726f757073000000000000000081525081526020016040518060400160405280601681526020017f46616365477561726420526561643a2047726f7570730000000000000000000081525081526020016040518060400160405280601881526020017f466163654775617264205570646174653a2047726f757073000000000000000081525081526020016040518060400160405280601881526020017f4661636547756172642044656c6574653a2047726f75707300000000000000008152508152509050600060405180608001604052806040518060400160405280601781526020017f466163654775617264204372656174653a20557365727300000000000000000081525081526020016040518060400160405280601581526020017f46616365477561726420526561643a205573657273000000000000000000000081525081526020016040518060400160405280601781526020017f466163654775617264205570646174653a20557365727300000000000000000081525081526020016040518060400160405280601781526020017f4661636547756172642044656c6574653a20557365727300000000000000000081525081525090506200047e6040518060400160405280600e81526020017f41646d696e6973747261746f72730000000000000000000000000000000000008152506200046286620005bd60201b60201c565b60405180602001604052806000815250620006ec60201b60201c565b620004e56040518060400160405280600581526020017f5573657273000000000000000000000000000000000000000000000000000000815250620004c9856200096d60201b60201c565b60405180602001604052806000815250620006ec60201b60201c565b6200054c6040518060400160405280600e81526020017f47726f7570204d616e61676572730000000000000000000000000000000000008152506200053084620005bd60201b60201c565b60405180602001604052806000815250620006ec60201b60201c565b620005b36040518060400160405280600d81526020017f55736572204d616e6167657273000000000000000000000000000000000000008152506200059783620005bd60201b60201c565b60405180602001604052806000815250620006ec60201b60201c565b50505050620012ff565b60606000600467ffffffffffffffff81111562000603577f4e487b7100000000000000000000000000000000000000000000000000000000600052604160045260246000fd5b6040519080825280602002602001820160405280156200063857816020015b6060815260200190600190039081620006225790505b50905060005b6004811015620006e25783816004811062000682577f4e487b7100000000000000000000000000000000000000000000000000000000600052603260045260246000fd5b6020020151828281518110620006c1577f4e487b7100000000000000000000000000000000000000000000000000000000600052603260045260246000fd5b60200260200101819052508080620006d99062001242565b9150506200063e565b5080915050919050565b600560019054906101000a900473ffffffffffffffffffffffffffffffffffffffff1673ffffffffffffffffffffffffffffffffffffffff163373ffffffffffffffffffffffffffffffffffffffff16146200077f576040517f08c379a0000000000000000000000000000000000000000000000000000000008152600401620007769062001117565b60405180910390fd5b6040518060800160405280848152602001600067ffffffffffffffff811115620007d2577f4e487b7100000000000000000000000000000000000000000000000000000000600052604160045260246000fd5b6040519080825280602002602001820160405280156200080757816020015b6060815260200190600190039081620007f15790505b5081526020018381526020016040518060200160405280600081525081525060018460405162000838919062001071565b908152602001604051809103902060008201518160000190805190602001906200086492919062000cf2565b5060208201518160010190805190602001906200088392919062000d83565b506040820151816002019080519060200190620008a292919062000d83565b506060820151816003019080519060200190620008c192919062000cf2565b509050506003839080600181540180825580915050600190039060005260206000200160009091909190915090805190602001906200090292919062000cf2565b508260405162000913919062001071565b60405180910390207fda8cb7463ba733d6194271d0978f8f3fe238ece9368518bf39f0a3ad9c21ea3584846040516200094e9291906200108a565b60405180910390a262000968838262000a9c60201b60201c565b505050565b60606000600367ffffffffffffffff811115620009b3577f4e487b7100000000000000000000000000000000000000000000000000000000600052604160045260246000fd5b604051908082528060200260200182016040528015620009e857816020015b6060815260200190600190039081620009d25790505b50905060005b600381101562000a925783816003811062000a32577f4e487b7100000000000000000000000000000000000000000000000000000000600052603260045260246000fd5b602002015182828151811062000a71577f4e487b7100000000000000000000000000000000000000000000000000000000600052603260045260246000fd5b6020026020010181905250808062000a899062001242565b915050620009ee565b5080915050919050565b600560019054906101000a900473ffffffffffffffffffffffffffffffffffffffff1673ffffffffffffffffffffffffffffffffffffffff163373ffffffffffffffffffffffffffffffffffffffff161462000b2f576040517f08c379a000000000000000000000000000000000000000000000000000000000815260040162000b269062001117565b60405180910390fd5b600060018360405162000b43919062001071565b9081526020016040518091039020600001805462000b61906200120c565b90501162000ba6576040517f08c379a000000000000000000000000000000000000000000000000000000000815260040162000b9d9062001139565b60405180910390fd5b600060018360405162000bba919062001071565b9081526020016040518091039020600301805462000bd8906200120c565b80601f016020809104026020016040519081016040528092919081815260200182805462000c06906200120c565b801562000c575780601f1062000c2b5761010080835404028352916020019162000c57565b820191906000526020600020905b81548152906001019060200180831162000c3957829003601f168201915b505050505090508160018460405162000c71919062001071565b9081526020016040518091039020600301908051906020019062000c9792919062000cf2565b508260405162000ca8919062001071565b60405180910390207f56ac90dbfad2748e87288544310f76b151244eaed1fd5b5744e2c9fd4ed19f8684838560405162000ce593929190620010c5565b60405180910390a2505050565b82805462000d00906200120c565b90600052602060002090601f01602090048101928262000d24576000855562000d70565b82601f1062000d3f57805160ff191683800117855562000d70565b8280016001018555821562000d70579182015b8281111562000d6f57825182559160200191906001019062000d52565b5b50905062000d7f919062000dea565b5090565b82805482825590600052602060002090810192821562000dd7579160200282015b8281111562000dd657825182908051906020019062000dc592919062000cf2565b509160200191906001019062000da4565b5b50905062000de6919062000e09565b5090565b5b8082111562000e0557600081600090555060010162000deb565b5090565b5b8082111562000e2d576000818162000e23919062000e31565b5060010162000e0a565b5090565b50805462000e3f906200120c565b6000825580601f1062000e53575062000e74565b601f01602090049060005260206000209081019062000e73919062000dea565b5b50565b600062000e85838362000f0e565b905092915050565b600062000e9a826200116b565b62000ea681856200118e565b93508360208202850162000eba856200115b565b8060005b8581101562000efc578484038952815162000eda858262000e77565b945062000ee78362001181565b925060208a0199505060018101905062000ebe565b50829750879550505050505092915050565b600062000f1b8262001176565b62000f2781856200119f565b935062000f39818560208601620011d6565b62000f4481620012ee565b840191505092915050565b600062000f5c8262001176565b62000f688185620011b0565b935062000f7a818560208601620011d6565b62000f8581620012ee565b840191505092915050565b600062000f9d8262001176565b62000fa98185620011c1565b935062000fbb818560208601620011d6565b80840191505092915050565b600062000fd6602f83620011b0565b91507f4f6e6c792074686520636f6e7472616374206f776e65722063616e207065726660008301527f6f726d207468697320616374696f6e00000000000000000000000000000000006020830152604082019050919050565b60006200103e601483620011b0565b91507f47726f757020646f6573206e6f742065786973740000000000000000000000006000830152602082019050919050565b60006200107f828462000f90565b915081905092915050565b60006040820190508181036000830152620010a6818562000f4f565b90508181036020830152620010bc818462000e8d565b90509392505050565b60006060820190508181036000830152620010e1818662000f4f565b90508181036020830152620010f7818562000f4f565b905081810360408301526200110d818462000f4f565b9050949350505050565b60006020820190508181036000830152620011328162000fc7565b9050919050565b6000602082019050818103600083015262001154816200102f565b9050919050565b6000819050602082019050919050565b600081519050919050565b600081519050919050565b6000602082019050919050565b600082825260208201905092915050565b600082825260208201905092915050565b600082825260208201905092915050565b600081905092915050565b6000819050919050565b60005b83811015620011f6578082015181840152602081019050620011d9565b8381111562001206576000848401525b50505050565b600060028204905060018216806200122557607f821691505b602082108114156200123c576200123b620012bf565b5b50919050565b60006200124f82620011cc565b91507fffffffffffffffffffffffffffffffffffffffffffffffffffffffffffffffff82141562001285576200128462001290565b5b600182019050919050565b7f4e487b7100000000000000000000000000000000000000000000000000000000600052601160045260246000fd5b7f4e487b7100000000000000000000000000000000000000000000000000000000600052602260045260246000fd5b6000601f19601f8301169050919050565b615d9f806200130f6000396000f3fe608060405234801561001057600080fd5b50600436106101425760003560e01c80636246b310116100b8578063abef281e1161007c578063abef281e14610362578063b9e6facb14610395578063c91bc46c146103b1578063dbfc63f9146103cd578063ecb5a4d5146103e9578063ee1c55da1461040557610142565b80636246b310146102c257806367753ba1146102de5780636b228cde146102fa5780636cad1934146103165780638a0bd86b1461034657610142565b80632d09d9e91161010a5780632d09d9e9146101e957806331feb671146102195780635108c3ab14610250578063536203751461026c5780635b9a6b1d1461028a578063600cee78146102a657610142565b806303df9e92146101475780630e63a8c4146101635780631ae7f10a1461017f57806321cd3cae146101af578063266c1bab146101cd575b600080fd5b610161600480360381019061015c9190614bdb565b610435565b005b61017d60048036038101906101789190614cde565b610645565b005b61019960048036038101906101949190614bdb565b61087f565b6040516101a69190615670565b60405180910390f35b6101b7610df6565b6040516101c49190615633565b60405180910390f35b6101e760048036038101906101e29190614cde565b610ecf565b005b61020360048036038101906101fe9190614b9a565b611097565b6040516102109190615633565b60405180910390f35b610233600480360381019061022e9190614b9a565b611221565b6040516102479897969594939291906157dd565b60405180910390f35b61026a60048036038101906102659190614b9a565b6116ff565b005b610274611877565b6040516102819190615633565b60405180910390f35b6102a4600480360381019061029f9190614d4a565b611950565b005b6102c060048036038101906102bb9190614b9a565b611f46565b005b6102dc60048036038101906102d79190614b9a565b61240c565b005b6102f860048036038101906102f39190614cde565b612aec565b005b610314600480360381019061030f9190614b9a565b612ff1565b005b610330600480360381019061032b9190614b9a565b6130d1565b60405161033d9190615655565b60405180910390f35b610360600480360381019061035b9190614cde565b61310a565b005b61037c60048036038101906103779190614b9a565b6132d3565b60405161038c9493929190615715565b60405180910390f35b6103af60048036038101906103aa9190614de1565b613700565b005b6103cb60048036038101906103c69190614cde565b613a2a565b005b6103e760048036038101906103e29190614c47565b613b41565b005b61040360048036038101906103fe9190614cde565b613da4565b005b61041f600480360381019061041a9190614b9a565b614010565b60405161042c9190615633565b60405180910390f35b600560019054906101000a900473ffffffffffffffffffffffffffffffffffffffff1673ffffffffffffffffffffffffffffffffffffffff163373ffffffffffffffffffffffffffffffffffffffff16146104c5576040517f08c379a00000000000000000000000000000000000000000000000000000000081526004016104bc906159a4565b60405180910390fd5b600080836040516104d691906155f0565b9081526020016040518091039020600201805480602002602001604051908101604052809291908181526020016000905b828210156105b357838290600052602060002001805461052690615c50565b80601f016020809104026020016040519081016040528092919081815260200182805461055290615c50565b801561059f5780601f106105745761010080835404028352916020019161059f565b820191906000526020600020905b81548152906001019060200180831161058257829003601f168201915b505050505081526020019060010190610507565b505050509050816000846040516105ca91906155f0565b908152602001604051809103902060020190805190602001906105ee9291906147a1565b50826040516105fd91906155f0565b60405180910390207f2915b912a9fec4a96d295ba3188e0d2bed2fd6e9f9e34947a8f17ddf60642d17848385604051610638939291906156c9565b60405180910390a2505050565b600560019054906101000a900473ffffffffffffffffffffffffffffffffffffffff1673ffffffffffffffffffffffffffffffffffffffff163373ffffffffffffffffffffffffffffffffffffffff16146106d5576040517f08c379a00000000000000000000000000000000000000000000000000000000081526004016106cc906159a4565b60405180910390fd5b60006001836040516106e791906155f0565b9081526020016040518091039020600001805461070390615c50565b905011610745576040517f08c379a000000000000000000000000000000000000000000000000000000000815260040161073c906159e4565b60405180910390fd5b600060018360405161075791906155f0565b9081526020016040518091039020600301805461077390615c50565b80601f016020809104026020016040519081016040528092919081815260200182805461079f90615c50565b80156107ec5780601f106107c1576101008083540402835291602001916107ec565b820191906000526020600020905b8154815290600101906020018083116107cf57829003601f168201915b505050505090508160018460405161080491906155f0565b90815260200160405180910390206003019080519060200190610828929190614801565b508260405161083791906155f0565b60405180910390207f56ac90dbfad2748e87288544310f76b151244eaed1fd5b5744e2c9fd4ed19f868483856040516108729392919061588c565b60405180910390a2505050565b6060600560019054906101000a900473ffffffffffffffffffffffffffffffffffffffff1673ffffffffffffffffffffffffffffffffffffffff163373ffffffffffffffffffffffffffffffffffffffff1614610911576040517f08c379a0000000000000000000000000000000000000000000000000000000008152600401610908906159a4565b60405180910390fd5b600060018460405161092391906155f0565b9081526020016040518091039020600001805461093f90615c50565b905011610981576040517f08c379a0000000000000000000000000000000000000000000000000000000008152600401610978906159e4565b60405180910390fd5b600060405180608001604052806040518060400160405280600e81526020017f41646d696e6973747261746f727300000000000000000000000000000000000081525081526020016040518060400160405280600581526020017f557365727300000000000000000000000000000000000000000000000000000081525081526020016040518060400160405280600e81526020017f47726f7570204d616e616765727300000000000000000000000000000000000081525081526020016040518060400160405280600d81526020017f55736572204d616e616765727300000000000000000000000000000000000000815250815250905060005b6004811015610b6557818160048110610abf577f4e487b7100000000000000000000000000000000000000000000000000000000600052603260045260246000fd5b6020020151604051602001610ad491906155f0565b6040516020818303038152906040528051906020012085604051602001610afb91906155f0565b604051602081830303815290604052805190602001201415610b52576040517f08c379a0000000000000000000000000000000000000000000000000000000008152600401610b4990615964565b60405180910390fd5b8080610b5d90615c82565b915050610a7d565b506000600185604051610b7891906155f0565b9081526020016040518091039020600201805480602002602001604051908101604052809291908181526020016000905b82821015610c55578382906000526020600020018054610bc890615c50565b80601f0160208091040260200160405190810160405280929190818152602001828054610bf490615c50565b8015610c415780601f10610c1657610100808354040283529160200191610c41565b820191906000526020600020905b815481529060010190602001808311610c2457829003601f168201915b505050505081526020019060010190610ba9565b50505050905083600186604051610c6c91906155f0565b90815260200160405180910390206002019080519060200190610c909291906147a1565b50600185604051610ca191906155f0565b9081526020016040518091039020600001604051610cbf9190615607565b60405180910390207ffcd9136e5deacda60dd8ad3b5583ee6a6747a1817e9e06e1366e43d0f01e91f7600187604051610cf891906155f0565b908152602001604051809103902060000183600189604051610d1a91906155f0565b9081526020016040518091039020600201604051610d3a939291906158d8565b60405180910390a2600185604051610d5291906155f0565b90815260200160405180910390206000018054610d6e90615c50565b80601f0160208091040260200160405190810160405280929190818152602001828054610d9a90615c50565b8015610de75780601f10610dbc57610100808354040283529160200191610de7565b820191906000526020600020905b815481529060010190602001808311610dca57829003601f168201915b50505050509250505092915050565b60606003805480602002602001604051908101604052809291908181526020016000905b82821015610ec6578382906000526020600020018054610e3990615c50565b80601f0160208091040260200160405190810160405280929190818152602001828054610e6590615c50565b8015610eb25780601f10610e8757610100808354040283529160200191610eb2565b820191906000526020600020905b815481529060010190602001808311610e9557829003601f168201915b505050505081526020019060010190610e1a565b50505050905090565b600560019054906101000a900473ffffffffffffffffffffffffffffffffffffffff1673ffffffffffffffffffffffffffffffffffffffff163373ffffffffffffffffffffffffffffffffffffffff1614610f5f576040517f08c379a0000000000000000000000000000000000000000000000000000000008152600401610f56906159a4565b60405180910390fd5b60008083604051610f7091906155f0565b90815260200160405180910390206006018054610f8c90615c50565b80601f0160208091040260200160405190810160405280929190818152602001828054610fb890615c50565b80156110055780601f10610fda57610100808354040283529160200191611005565b820191906000526020600020905b815481529060010190602001808311610fe857829003601f168201915b505050505090508160008460405161101d91906155f0565b90815260200160405180910390206006019080519060200190611041929190614801565b508260405161105091906155f0565b60405180910390207e95e409f8d4ea953d06c8d8e56df3da2afcbdd6d2d332290fcd2932e81bf5cf84838560405161108a9392919061588c565b60405180910390a2505050565b6060600560019054906101000a900473ffffffffffffffffffffffffffffffffffffffff1673ffffffffffffffffffffffffffffffffffffffff163373ffffffffffffffffffffffffffffffffffffffff1614611129576040517f08c379a0000000000000000000000000000000000000000000000000000000008152600401611120906159a4565b60405180910390fd5b60008260405161113991906155f0565b9081526020016040518091039020600201805480602002602001604051908101604052809291908181526020016000905b8282101561121657838290600052602060002001805461118990615c50565b80601f01602080910402602001604051908101604052809291908181526020018280546111b590615c50565b80156112025780601f106111d757610100808354040283529160200191611202565b820191906000526020600020905b8154815290600101906020018083116111e557829003601f168201915b50505050508152602001906001019061116a565b505050509050919050565b606080606080606060006060806000808a60405161123f91906155f0565b90815260200160405180910390206040518061010001604052908160008201805461126990615c50565b80601f016020809104026020016040519081016040528092919081815260200182805461129590615c50565b80156112e25780601f106112b7576101008083540402835291602001916112e2565b820191906000526020600020905b8154815290600101906020018083116112c557829003601f168201915b505050505081526020016001820180546112fb90615c50565b80601f016020809104026020016040519081016040528092919081815260200182805461132790615c50565b80156113745780601f1061134957610100808354040283529160200191611374565b820191906000526020600020905b81548152906001019060200180831161135757829003601f168201915b5050505050815260200160028201805480602002602001604051908101604052809291908181526020016000905b8282101561144e5783829060005260206000200180546113c190615c50565b80601f01602080910402602001604051908101604052809291908181526020018280546113ed90615c50565b801561143a5780601f1061140f5761010080835404028352916020019161143a565b820191906000526020600020905b81548152906001019060200180831161141d57829003601f168201915b5050505050815260200190600101906113a2565b50505050815260200160038201805461146690615c50565b80601f016020809104026020016040519081016040528092919081815260200182805461149290615c50565b80156114df5780601f106114b4576101008083540402835291602001916114df565b820191906000526020600020905b8154815290600101906020018083116114c257829003601f168201915b505050505081526020016004820180546114f890615c50565b80601f016020809104026020016040519081016040528092919081815260200182805461152490615c50565b80156115715780601f1061154657610100808354040283529160200191611571565b820191906000526020600020905b81548152906001019060200180831161155457829003601f168201915b505050505081526020016005820160009054906101000a900460ff161515151581526020016006820180546115a590615c50565b80601f01602080910402602001604051908101604052809291908181526020018280546115d190615c50565b801561161e5780601f106115f35761010080835404028352916020019161161e565b820191906000526020600020905b81548152906001019060200180831161160157829003601f168201915b5050505050815260200160078201805461163790615c50565b80601f016020809104026020016040519081016040528092919081815260200182805461166390615c50565b80156116b05780601f10611685576101008083540402835291602001916116b0565b820191906000526020600020905b81548152906001019060200180831161169357829003601f168201915b5050505050815250509050806000015181602001518260400151836060015184608001518560a001518660c001518760e001519850985098509850985098509850985050919395975091939597565b600560019054906101000a900473ffffffffffffffffffffffffffffffffffffffff1673ffffffffffffffffffffffffffffffffffffffff163373ffffffffffffffffffffffffffffffffffffffff161461178f576040517f08c379a0000000000000000000000000000000000000000000000000000000008152600401611786906159a4565b60405180910390fd5b60008160405161179f91906155f0565b908152602001604051809103902060050160009054906101000a900460ff16156000826040516117cf91906155f0565b908152602001604051809103902060050160006101000a81548160ff0219169083151502179055508060405161180591906155f0565b60405180910390207f6e035416864c42223c8c5c71745b27ca14f8c3d0f8a4f18f0c7abb691c7cd4b18260008460405161183f91906155f0565b908152602001604051809103902060050160009054906101000a900460ff1660405161186c929190615776565b60405180910390a250565b60606002805480602002602001604051908101604052809291908181526020016000905b828210156119475783829060005260206000200180546118ba90615c50565b80601f01602080910402602001604051908101604052809291908181526020018280546118e690615c50565b80156119335780601f1061190857610100808354040283529160200191611933565b820191906000526020600020905b81548152906001019060200180831161191657829003601f168201915b50505050508152602001906001019061189b565b50505050905090565b600560019054906101000a900473ffffffffffffffffffffffffffffffffffffffff1673ffffffffffffffffffffffffffffffffffffffff163373ffffffffffffffffffffffffffffffffffffffff16146119e0576040517f08c379a00000000000000000000000000000000000000000000000000000000081526004016119d7906159a4565b60405180910390fd5b60006001846040516119f291906155f0565b90815260200160405180910390206000018054611a0e90615c50565b905011611a50576040517f08c379a0000000000000000000000000000000000000000000000000000000008152600401611a47906159e4565b60405180910390fd5b600060405180608001604052806040518060400160405280600e81526020017f41646d696e6973747261746f727300000000000000000000000000000000000081525081526020016040518060400160405280600581526020017f557365727300000000000000000000000000000000000000000000000000000081525081526020016040518060400160405280600e81526020017f47726f7570204d616e616765727300000000000000000000000000000000000081525081526020016040518060400160405280600d81526020017f55736572204d616e616765727300000000000000000000000000000000000000815250815250905060005b6004811015611c3457818160048110611b8e577f4e487b7100000000000000000000000000000000000000000000000000000000600052603260045260246000fd5b6020020151604051602001611ba391906155f0565b6040516020818303038152906040528051906020012085604051602001611bca91906155f0565b604051602081830303815290604052805190602001201415611c21576040517f08c379a0000000000000000000000000000000000000000000000000000000008152600401611c18906159c4565b60405180910390fd5b8080611c2c90615c82565b915050611b4c565b50611c3f848361087f565b5082604051602001611c5191906155f0565b6040516020818303038152906040528051906020012084604051602001611c7891906155f0565b6040516020818303038152906040528051906020012014611f4057600184604051611ca391906155f0565b9081526020016040518091039020600184604051611cc191906155f0565b90815260200160405180910390206000820181600001908054611ce390615c50565b611cee929190614887565b506001820181600101908054611d05929190614914565b506002820181600201908054611d1c929190614914565b506003820181600301908054611d3190615c50565b611d3c929190614887565b5090505082600184604051611d5191906155f0565b90815260200160405180910390206000019080519060200190611d75929190614801565b50600184604051611d8691906155f0565b908152602001604051809103902060008082016000611da5919061497c565b600182016000611db591906149bc565b600282016000611dc591906149bc565b600382016000611dd5919061497c565b505060005b600380549050811015611eef5784604051602001611df891906155f0565b6040516020818303038152906040528051906020012060038281548110611e48577f4e487b7100000000000000000000000000000000000000000000000000000000600052603260045260246000fd5b90600052602060002001604051602001611e629190615607565b604051602081830303815290604052805190602001201415611edc578360038281548110611eb9577f4e487b7100000000000000000000000000000000000000000000000000000000600052603260045260246000fd5b906000526020600020019080519060200190611ed6929190614801565b50611eef565b8080611ee790615c82565b915050611dda565b5083604051611efe91906155f0565b60405180910390207ff50ce9fab9945002300a415697ea6ed2ffa0abe2e97704dbe379f96bbc1f4aba8585604051611f379291906157a6565b60405180910390a25b50505050565b600560019054906101000a900473ffffffffffffffffffffffffffffffffffffffff1673ffffffffffffffffffffffffffffffffffffffff163373ffffffffffffffffffffffffffffffffffffffff1614611fd6576040517f08c379a0000000000000000000000000000000000000000000000000000000008152600401611fcd906159a4565b60405180910390fd5b60008082604051611fe791906155f0565b9081526020016040518091039020600001805461200390615c50565b905011612045576040517f08c379a000000000000000000000000000000000000000000000000000000000815260040161203c90615a24565b60405180910390fd5b60046040516020016120579190615607565b604051602081830303815290604052805190602001208160405160200161207e91906155f0565b6040516020818303038152906040528051906020012014156120d5576040517f08c379a00000000000000000000000000000000000000000000000000000000081526004016120cc90615984565b60405180910390fd5b6001600560006101000a81548160ff02191690831515021790555061212f6040518060400160405280600581526020017f557365727300000000000000000000000000000000000000000000000000000081525082612aec565b6000600560006101000a81548160ff0219169083151502179055506000805b600280549050811015612315578260405160200161216c91906155f0565b60405160208183030381529060405280519060200120600282815481106121bc577f4e487b7100000000000000000000000000000000000000000000000000000000600052603260045260246000fd5b906000526020600020016040516020016121d69190615607565b60405160208183030381529060405280519060200120141561230257600191506002600160028054905061220a9190615bc4565b81548110612241577f4e487b7100000000000000000000000000000000000000000000000000000000600052603260045260246000fd5b9060005260206000200160028281548110612285577f4e487b7100000000000000000000000000000000000000000000000000000000600052603260045260246000fd5b9060005260206000200190805461229b90615c50565b6122a69291906149dd565b5060028054806122df577f4e487b7100000000000000000000000000000000000000000000000000000000600052603160045260246000fd5b6001900381819060005260206000200160006122fb919061497c565b9055612315565b808061230d90615c82565b91505061214e565b5060008260405161232691906155f0565b908152602001604051809103902060008082016000612345919061497c565b600182016000612355919061497c565b60028201600061236591906149bc565b600382016000612375919061497c565b600482016000612385919061497c565b6005820160006101000a81549060ff02191690556006820160006123a9919061497c565b6007820160006123b9919061497c565b5050816040516123c991906155f0565b60405180910390207f3f27f4d0d2da9aaa7a63839890b75093bf8524b6ac7d8aa21aa9f4576005d7c2836040516124009190615670565b60405180910390a25050565b600560019054906101000a900473ffffffffffffffffffffffffffffffffffffffff1673ffffffffffffffffffffffffffffffffffffffff163373ffffffffffffffffffffffffffffffffffffffff161461249c576040517f08c379a0000000000000000000000000000000000000000000000000000000008152600401612493906159a4565b60405180910390fd5b60006001826040516124ae91906155f0565b908152602001604051809103902060000180546124ca90615c50565b90501161250c576040517f08c379a0000000000000000000000000000000000000000000000000000000008152600401612503906159e4565b60405180910390fd5b600060405180608001604052806040518060400160405280600e81526020017f41646d696e6973747261746f727300000000000000000000000000000000000081525081526020016040518060400160405280600581526020017f557365727300000000000000000000000000000000000000000000000000000081525081526020016040518060400160405280600e81526020017f47726f7570204d616e616765727300000000000000000000000000000000000081525081526020016040518060400160405280600d81526020017f55736572204d616e616765727300000000000000000000000000000000000000815250815250905060005b60048110156126f05781816004811061264a577f4e487b7100000000000000000000000000000000000000000000000000000000600052603260045260246000fd5b602002015160405160200161265f91906155f0565b604051602081830303815290604052805190602001208360405160200161268691906155f0565b6040516020818303038152906040528051906020012014156126dd576040517f08c379a00000000000000000000000000000000000000000000000000000000081526004016126d490615a04565b60405180910390fd5b80806126e890615c82565b915050612608565b506000805b6003805490508110156129f8578360405160200161271391906155f0565b6040516020818303038152906040528051906020012060038281548110612763577f4e487b7100000000000000000000000000000000000000000000000000000000600052603260045260246000fd5b9060005260206000200160405160200161277d9190615607565b6040516020818303038152906040528051906020012014156129e557600191506000600382815481106127d9577f4e487b7100000000000000000000000000000000000000000000000000000000600052603260045260246000fd5b9060005260206000200180546127ee90615c50565b80601f016020809104026020016040519081016040528092919081815260200182805461281a90615c50565b80156128675780601f1061283c57610100808354040283529160200191612867565b820191906000526020600020905b81548152906001019060200180831161284a57829003601f168201915b50505050509050600360016003805490506128829190615bc4565b815481106128b9577f4e487b7100000000000000000000000000000000000000000000000000000000600052603260045260246000fd5b90600052602060002001600383815481106128fd577f4e487b7100000000000000000000000000000000000000000000000000000000600052603260045260246000fd5b9060005260206000200190805461291390615c50565b61291e9291906149dd565b5080600360016003805490506129349190615bc4565b8154811061296b577f4e487b7100000000000000000000000000000000000000000000000000000000600052603260045260246000fd5b906000526020600020019080519060200190612988929190614801565b5060038054806129c1577f4e487b7100000000000000000000000000000000000000000000000000000000600052603160045260246000fd5b6001900381819060005260206000200160006129dd919061497c565b9055506129f8565b80806129f090615c82565b9150506126f5565b5080612a39576040517f08c379a0000000000000000000000000000000000000000000000000000000008152600401612a3090615924565b60405180910390fd5b600183604051612a4991906155f0565b908152602001604051809103902060008082016000612a68919061497c565b600182016000612a7891906149bc565b600282016000612a8891906149bc565b600382016000612a98919061497c565b505082604051612aa891906155f0565b60405180910390207f07386a1c2a0cc80496a77c2fdc90bc93764d5fa75567f9dd3cb6513fdfb7e3ae84604051612adf9190615670565b60405180910390a2505050565b600560019054906101000a900473ffffffffffffffffffffffffffffffffffffffff1673ffffffffffffffffffffffffffffffffffffffff163373ffffffffffffffffffffffffffffffffffffffff1614612b7c576040517f08c379a0000000000000000000000000000000000000000000000000000000008152600401612b73906159a4565b60405180910390fd5b6000600183604051612b8e91906155f0565b90815260200160405180910390206000018054612baa90615c50565b905011612bec576040517f08c379a0000000000000000000000000000000000000000000000000000000008152600401612be3906159e4565b60405180910390fd5b60008082604051612bfd91906155f0565b90815260200160405180910390206000018054612c1990615c50565b905011612c5b576040517f08c379a0000000000000000000000000000000000000000000000000000000008152600401612c5290615a44565b60405180910390fd5b60001515600560009054906101000a900460ff1615151415612d0557604051602001612c869061561e565b6040516020818303038152906040528051906020012082604051602001612cad91906155f0565b604051602081830303815290604052805190602001201415612d04576040517f08c379a0000000000000000000000000000000000000000000000000000000008152600401612cfb90615944565b60405180910390fd5b5b6000600183604051612d1791906155f0565b908152602001604051809103902060010190506000805b8280549050811015612eef5783604051602001612d4b91906155f0565b60405160208183030381529060405280519060200120838281548110612d9a577f4e487b7100000000000000000000000000000000000000000000000000000000600052603260045260246000fd5b90600052602060002001604051602001612db49190615607565b604051602081830303815290604052805190602001201415612edc57600191508260018480549050612de69190615bc4565b81548110612e1d577f4e487b7100000000000000000000000000000000000000000000000000000000600052603260045260246000fd5b90600052602060002001838281548110612e60577f4e487b7100000000000000000000000000000000000000000000000000000000600052603260045260246000fd5b90600052602060002001908054612e7690615c50565b612e819291906149dd565b5082805480612eb9577f4e487b7100000000000000000000000000000000000000000000000000000000600052603160045260246000fd5b600190038181906000526020600020016000612ed5919061497c565b9055612eef565b8080612ee790615c82565b915050612d2e565b5060001515600560009054906101000a900460ff1615151415612f4d5780612f4c576040517f08c379a0000000000000000000000000000000000000000000000000000000008152600401612f4390615a64565b60405180910390fd5b5b82604051612f5b91906155f0565b60405180910390207ff48902b6ca97756a12ac8f65fb0fbcd8620f21cebec54393c1a3c1baca29500f8486604051612f949291906157a6565b60405180910390a283604051612faa91906155f0565b60405180910390207f5185a55227d2197d7d66b7de628b1cef8d3a8ea1a20809a31ae39453b61361858486604051612fe39291906157a6565b60405180910390a250505050565b600560019054906101000a900473ffffffffffffffffffffffffffffffffffffffff1673ffffffffffffffffffffffffffffffffffffffff163373ffffffffffffffffffffffffffffffffffffffff1614613081576040517f08c379a0000000000000000000000000000000000000000000000000000000008152600401613078906159a4565b60405180910390fd5b8060405161308f91906155f0565b60405180910390207f6d2522b0fa7d67bdab2f9971773f22a4e5f30a3a44cfdb04c82e8ebbd6f51b0e826040516130c69190615670565b60405180910390a250565b6000806000836040516130e491906155f0565b9081526020016040518091039020600001805461310090615c50565b9050119050919050565b600560019054906101000a900473ffffffffffffffffffffffffffffffffffffffff1673ffffffffffffffffffffffffffffffffffffffff163373ffffffffffffffffffffffffffffffffffffffff161461319a576040517f08c379a0000000000000000000000000000000000000000000000000000000008152600401613191906159a4565b60405180910390fd5b600080836040516131ab91906155f0565b908152602001604051809103902060070180546131c790615c50565b80601f01602080910402602001604051908101604052809291908181526020018280546131f390615c50565b80156132405780601f1061321557610100808354040283529160200191613240565b820191906000526020600020905b81548152906001019060200180831161322357829003601f168201915b505050505090508160008460405161325891906155f0565b9081526020016040518091039020600701908051906020019061327c929190614801565b508260405161328b91906155f0565b60405180910390207f4bf7adb7382a1159f4388abbdd1bc13a1a4c0075c70acbaeaf5b5fa612996f808483856040516132c69392919061588c565b60405180910390a2505050565b606080606080600560019054906101000a900473ffffffffffffffffffffffffffffffffffffffff1673ffffffffffffffffffffffffffffffffffffffff163373ffffffffffffffffffffffffffffffffffffffff1614613369576040517f08c379a0000000000000000000000000000000000000000000000000000000008152600401613360906159a4565b60405180910390fd5b600060018660405161337b91906155f0565b9081526020016040518091039020600001805461339790615c50565b9050116133d9576040517f08c379a00000000000000000000000000000000000000000000000000000000081526004016133d0906159e4565b60405180910390fd5b60006001866040516133eb91906155f0565b908152602001604051809103902060405180608001604052908160008201805461341490615c50565b80601f016020809104026020016040519081016040528092919081815260200182805461344090615c50565b801561348d5780601f106134625761010080835404028352916020019161348d565b820191906000526020600020905b81548152906001019060200180831161347057829003601f168201915b5050505050815260200160018201805480602002602001604051908101604052809291908181526020016000905b828210156135675783829060005260206000200180546134da90615c50565b80601f016020809104026020016040519081016040528092919081815260200182805461350690615c50565b80156135535780601f1061352857610100808354040283529160200191613553565b820191906000526020600020905b81548152906001019060200180831161353657829003601f168201915b5050505050815260200190600101906134bb565b50505050815260200160028201805480602002602001604051908101604052809291908181526020016000905b828210156136405783829060005260206000200180546135b390615c50565b80601f01602080910402602001604051908101604052809291908181526020018280546135df90615c50565b801561362c5780601f106136015761010080835404028352916020019161362c565b820191906000526020600020905b81548152906001019060200180831161360f57829003601f168201915b505050505081526020019060010190613594565b50505050815260200160038201805461365890615c50565b80601f016020809104026020016040519081016040528092919081815260200182805461368490615c50565b80156136d15780601f106136a6576101008083540402835291602001916136d1565b820191906000526020600020905b8154815290600101906020018083116136b457829003601f168201915b505050505081525050905080600001518160400151826020015183606001519450945094509450509193509193565b600560019054906101000a900473ffffffffffffffffffffffffffffffffffffffff1673ffffffffffffffffffffffffffffffffffffffff163373ffffffffffffffffffffffffffffffffffffffff1614613790576040517f08c379a0000000000000000000000000000000000000000000000000000000008152600401613787906159a4565b60405180910390fd5b604051806101000160405280858152602001848152602001838152602001828152602001828152602001600115158152602001604051806020016040528060008152508152602001604051806020016040528060008152508152506000856040516137fb91906155f0565b90815260200160405180910390206000820151816000019080519060200190613825929190614801565b506020820151816001019080519060200190613842929190614801565b50604082015181600201908051906020019061385f9291906147a1565b50606082015181600301908051906020019061387c929190614801565b506080820151816004019080519060200190613899929190614801565b5060a08201518160050160006101000a81548160ff02191690831515021790555060c08201518160060190805190602001906138d6929190614801565b5060e08201518160070190805190602001906138f3929190614801565b50905050600284908060018154018082558091505060019003906000526020600020016000909190919091509080519060200190613932929190614801565b506139726040518060400160405280600581526020017f557365727300000000000000000000000000000000000000000000000000000081525085613da4565b8360405161398091906155f0565b60405180910390207f996d7324173609959370942b1ee1b743dc623b3d50459e66c1d55df55e5a9f37856040516139b79190615670565b60405180910390a260016002805490501415613a2457613a0c6040518060400160405280600e81526020017f41646d696e6973747261746f727300000000000000000000000000000000000081525085613da4565b8360049080519060200190613a22929190614801565b505b50505050565b600560019054906101000a900473ffffffffffffffffffffffffffffffffffffffff1673ffffffffffffffffffffffffffffffffffffffff163373ffffffffffffffffffffffffffffffffffffffff1614613aba576040517f08c379a0000000000000000000000000000000000000000000000000000000008152600401613ab1906159a4565b60405180910390fd5b80600083604051613acb91906155f0565b90815260200160405180910390206001019080519060200190613aef929190614801565b5081604051613afe91906155f0565b60405180910390207f2e5be3910de361c407755aea981bf58449896a9b8b60b8679bb947d6a9ab628783604051613b359190615670565b60405180910390a25050565b600560019054906101000a900473ffffffffffffffffffffffffffffffffffffffff1673ffffffffffffffffffffffffffffffffffffffff163373ffffffffffffffffffffffffffffffffffffffff1614613bd1576040517f08c379a0000000000000000000000000000000000000000000000000000000008152600401613bc8906159a4565b60405180910390fd5b6040518060800160405280848152602001600067ffffffffffffffff811115613c23577f4e487b7100000000000000000000000000000000000000000000000000000000600052604160045260246000fd5b604051908082528060200260200182016040528015613c5657816020015b6060815260200190600190039081613c415790505b50815260200183815260200160405180602001604052806000815250815250600184604051613c8591906155f0565b90815260200160405180910390206000820151816000019080519060200190613caf929190614801565b506020820151816001019080519060200190613ccc9291906147a1565b506040820151816002019080519060200190613ce99291906147a1565b506060820151816003019080519060200190613d06929190614801565b50905050600383908060018154018082558091505060019003906000526020600020016000909190919091509080519060200190613d45929190614801565b5082604051613d5491906155f0565b60405180910390207fda8cb7463ba733d6194271d0978f8f3fe238ece9368518bf39f0a3ad9c21ea358484604051613d8d929190615692565b60405180910390a2613d9f8382610645565b505050565b600560019054906101000a900473ffffffffffffffffffffffffffffffffffffffff1673ffffffffffffffffffffffffffffffffffffffff163373ffffffffffffffffffffffffffffffffffffffff1614613e34576040517f08c379a0000000000000000000000000000000000000000000000000000000008152600401613e2b906159a4565b60405180910390fd5b6000600183604051613e4691906155f0565b90815260200160405180910390206000018054613e6290615c50565b905011613ea4576040517f08c379a0000000000000000000000000000000000000000000000000000000008152600401613e9b906159e4565b60405180910390fd5b60008082604051613eb591906155f0565b90815260200160405180910390206000018054613ed190615c50565b905011613f13576040517f08c379a0000000000000000000000000000000000000000000000000000000008152600401613f0a90615a44565b60405180910390fd5b600182604051613f2391906155f0565b908152602001604051809103902060010181908060018154018082558091505060019003906000526020600020016000909190919091509080519060200190613f6d929190614801565b5080604051613f7c91906155f0565b60405180910390207fb7baa76edd3a99d16b21483732a4faf53358ddb1a8e763c33e642188d081fb918284604051613fb59291906157a6565b60405180910390a281604051613fcb91906155f0565b60405180910390207f1c689139005cd3ee797c36342af9903d8c6ead9e1a454f9c3f89ab89a4ae9f5882846040516140049291906157a6565b60405180910390a25050565b60606000808360405161402391906155f0565b9081526020016040518091039020600001805461403f90615c50565b905011614081576040517f08c379a000000000000000000000000000000000000000000000000000000000815260040161407890615a44565b60405180910390fd5b600060038054905067ffffffffffffffff8111156140c8577f4e487b7100000000000000000000000000000000000000000000000000000000600052604160045260246000fd5b6040519080825280602002602001820160405280156140fb57816020015b60608152602001906001900390816140e65790505b5090506000805b60038054905081101561432b57600060016003838154811061414d577f4e487b7100000000000000000000000000000000000000000000000000000000600052603260045260246000fd5b906000526020600020016040516141649190615607565b9081526020016040518091039020905060005b8160010180549050811015614316578660405160200161419791906155f0565b604051602081830303815290604052805190602001208260010182815481106141e9577f4e487b7100000000000000000000000000000000000000000000000000000000600052603260045260246000fd5b906000526020600020016040516020016142039190615607565b6040516020818303038152906040528051906020012014156143035781600001805461422e90615c50565b80601f016020809104026020016040519081016040528092919081815260200182805461425a90615c50565b80156142a75780601f1061427c576101008083540402835291602001916142a7565b820191906000526020600020905b81548152906001019060200180831161428a57829003601f168201915b50505050508585815181106142e5577f4e487b7100000000000000000000000000000000000000000000000000000000600052603260045260246000fd5b602002602001018190525083806142fb90615c82565b945050614316565b808061430e90615c82565b915050614177565b5050808061432390615c82565b915050614102565b506000603267ffffffffffffffff81111561436f577f4e487b7100000000000000000000000000000000000000000000000000000000600052604160045260246000fd5b6040519080825280602002602001820160405280156143a257816020015b606081526020019060019003908161438d5790505b5090506000805b838110156146775760008582815181106143ec577f4e487b7100000000000000000000000000000000000000000000000000000000600052603260045260246000fd5b60200260200101519050600060018260405161440891906155f0565b9081526020016040518091039020600201905060005b8180549050811015614661576000805b868110156145285783838154811061446f577f4e487b7100000000000000000000000000000000000000000000000000000000600052603260045260246000fd5b906000526020600020016040516020016144899190615607565b604051602081830303815290604052805190602001208882815181106144d8577f4e487b7100000000000000000000000000000000000000000000000000000000600052603260045260246000fd5b60200260200101516040516020016144f091906155f0565b6040516020818303038152906040528051906020012014156145155760019150614528565b808061452090615c82565b91505061442e565b508061464d57828281548110614567577f4e487b7100000000000000000000000000000000000000000000000000000000600052603260045260246000fd5b90600052602060002001805461457c90615c50565b80601f01602080910402602001604051908101604052809291908181526020018280546145a890615c50565b80156145f55780601f106145ca576101008083540402835291602001916145f5565b820191906000526020600020905b8154815290600101906020018083116145d857829003601f168201915b5050505050878781518110614633577f4e487b7100000000000000000000000000000000000000000000000000000000600052603260045260246000fd5b6020026020010181905250858061464990615c82565b9650505b50808061465990615c82565b91505061441e565b505050808061466f90615c82565b9150506143a9565b5060008167ffffffffffffffff8111156146ba577f4e487b7100000000000000000000000000000000000000000000000000000000600052604160045260246000fd5b6040519080825280602002602001820160405280156146ed57816020015b60608152602001906001900390816146d85790505b50905060005b8281101561479357838181518110614734577f4e487b7100000000000000000000000000000000000000000000000000000000600052603260045260246000fd5b6020026020010151828281518110614775577f4e487b7100000000000000000000000000000000000000000000000000000000600052603260045260246000fd5b6020026020010181905250808061478b90615c82565b9150506146f3565b508095505050505050919050565b8280548282559060005260206000209081019282156147f0579160200282015b828111156147ef5782518290805190602001906147df929190614801565b50916020019190600101906147c1565b5b5090506147fd9190614a6a565b5090565b82805461480d90615c50565b90600052602060002090601f01602090048101928261482f5760008555614876565b82601f1061484857805160ff1916838001178555614876565b82800160010185558215614876579182015b8281111561487557825182559160200191906001019061485a565b5b5090506148839190614a8e565b5090565b82805461489390615c50565b90600052602060002090601f0160209004810192826148b55760008555614903565b82601f106148c65780548555614903565b8280016001018555821561490357600052602060002091601f016020900482015b828111156149025782548255916001019190600101906148e7565b5b5090506149109190614a8e565b5090565b82805482825590600052602060002090810192821561496b5760005260206000209182015b8281111561496a57828290805461494f90615c50565b61495a929190614887565b5091600101919060010190614939565b5b5090506149789190614a6a565b5090565b50805461498890615c50565b6000825580601f1061499a57506149b9565b601f0160209004906000526020600020908101906149b89190614a8e565b5b50565b50805460008255906000526020600020908101906149da9190614a6a565b50565b8280546149e990615c50565b90600052602060002090601f016020900481019282614a0b5760008555614a59565b82601f10614a1c5780548555614a59565b82800160010185558215614a5957600052602060002091601f016020900482015b82811115614a58578254825591600101919060010190614a3d565b5b509050614a669190614a8e565b5090565b5b80821115614a8a5760008181614a81919061497c565b50600101614a6b565b5090565b5b80821115614aa7576000816000905550600101614a8f565b5090565b6000614abe614ab984615ab5565b615a84565b9050808382526020820190508260005b85811015614afe5781358501614ae48882614b70565b845260208401935060208301925050600181019050614ace565b5050509392505050565b6000614b1b614b1684615ae1565b615a84565b905082815260208101848484011115614b3357600080fd5b614b3e848285615c0e565b509392505050565b600082601f830112614b5757600080fd5b8135614b67848260208601614aab565b91505092915050565b600082601f830112614b8157600080fd5b8135614b91848260208601614b08565b91505092915050565b600060208284031215614bac57600080fd5b600082013567ffffffffffffffff811115614bc657600080fd5b614bd284828501614b70565b91505092915050565b60008060408385031215614bee57600080fd5b600083013567ffffffffffffffff811115614c0857600080fd5b614c1485828601614b70565b925050602083013567ffffffffffffffff811115614c3157600080fd5b614c3d85828601614b46565b9150509250929050565b600080600060608486031215614c5c57600080fd5b600084013567ffffffffffffffff811115614c7657600080fd5b614c8286828701614b70565b935050602084013567ffffffffffffffff811115614c9f57600080fd5b614cab86828701614b46565b925050604084013567ffffffffffffffff811115614cc857600080fd5b614cd486828701614b70565b9150509250925092565b60008060408385031215614cf157600080fd5b600083013567ffffffffffffffff811115614d0b57600080fd5b614d1785828601614b70565b925050602083013567ffffffffffffffff811115614d3457600080fd5b614d4085828601614b70565b9150509250929050565b600080600060608486031215614d5f57600080fd5b600084013567ffffffffffffffff811115614d7957600080fd5b614d8586828701614b70565b935050602084013567ffffffffffffffff811115614da257600080fd5b614dae86828701614b70565b925050604084013567ffffffffffffffff811115614dcb57600080fd5b614dd786828701614b46565b9150509250925092565b60008060008060808587031215614df757600080fd5b600085013567ffffffffffffffff811115614e1157600080fd5b614e1d87828801614b70565b945050602085013567ffffffffffffffff811115614e3a57600080fd5b614e4687828801614b70565b935050604085013567ffffffffffffffff811115614e6357600080fd5b614e6f87828801614b46565b925050606085013567ffffffffffffffff811115614e8c57600080fd5b614e9887828801614b70565b91505092959194509250565b6000614eb08383614fc4565b905092915050565b6000614ec48383615067565b905092915050565b6000614ed782615b4b565b614ee18185615b86565b935083602082028501614ef385615b11565b8060005b85811015614f2f5784840389528151614f108582614ea4565b9450614f1b83615b6c565b925060208a01995050600181019050614ef7565b50829750879550505050505092915050565b6000614f4c82615b56565b614f568185615b86565b935083602082028501614f6885615b21565b8060005b85811015614fa357848403895281614f848582614eb8565b9450614f8f83615b79565b925060208a01995050600181019050614f6c565b50829750879550505050505092915050565b614fbe81615bf8565b82525050565b6000614fcf82615b61565b614fd98185615b97565b9350614fe9818560208601615c1d565b614ff281615d58565b840191505092915050565b600061500882615b61565b6150128185615ba8565b9350615022818560208601615c1d565b61502b81615d58565b840191505092915050565b600061504182615b61565b61504b8185615bb9565b935061505b818560208601615c1d565b80840191505092915050565b6000815461507481615c50565b61507e8186615b97565b9450600182166000811461509957600181146150ab576150de565b60ff19831686526020860193506150de565b6150b485615b36565b60005b838110156150d6578154818901526001820191506020810190506150b7565b808801955050505b50505092915050565b600081546150f481615c50565b6150fe8186615ba8565b94506001821660008114615119576001811461512b5761515e565b60ff198316865260208601935061515e565b61513485615b36565b60005b8381101561515657815481890152600182019150602081019050615137565b808801955050505b50505092915050565b6000815461517481615c50565b61517e8186615bb9565b9450600182166000811461519957600181146151aa576151dd565b60ff198316865281860193506151dd565b6151b385615b36565b60005b838110156151d5578154818901526001820191506020810190506151b6565b838801955050505b50505092915050565b60006151f3602083615ba8565b91507f47726f7570206e6f7420666f756e6420696e20616c6c47726f75704e616d65736000830152602082019050919050565b6000615233603383615ba8565b91507f52656d6f76696e672075736572732066726f6d2074686520557365727320677260008301527f6f7570206973206e6f7420616c6c6f77656421000000000000000000000000006020830152604082019050919050565b6000615299600583615bb9565b91507f55736572730000000000000000000000000000000000000000000000000000006000830152600582019050919050565b60006152d9602f83615ba8565b91507f4d6f64696679696e6720636f72652067726f7570207065726d697373696f6e7360008301527f206973206e6f7420616c6c6f77656400000000000000000000000000000000006020830152604082019050919050565b600061533f604283615ba8565b91507f44656c6574696e6720746865206f726967696e616c20736d61727420636f6e7460008301527f726163742061646d696e6973747261746f72206973206e6f7420616c6c6f776560208301527f64210000000000000000000000000000000000000000000000000000000000006040830152606082019050919050565b60006153cb602f83615ba8565b91507f4f6e6c792074686520636f6e7472616374206f776e65722063616e207065726660008301527f6f726d207468697320616374696f6e00000000000000000000000000000000006020830152604082019050919050565b6000615431603c83615ba8565b91507f4d6f64696679696e6720636f72652067726f7570206e616d657320616e642f6f60008301527f72207065726d697373696f6e73206973206e6f7420616c6c6f776564000000006020830152604082019050919050565b6000615497601483615ba8565b91507f47726f757020646f6573206e6f742065786973740000000000000000000000006000830152602082019050919050565b60006154d7602483615ba8565b91507f44656c6574696e67206120636f72652067726f7570206973206e6f7420616c6c60008301527f6f776564000000000000000000000000000000000000000000000000000000006020830152604082019050919050565b600061553d601483615ba8565b91507f5573657220646f6573206e6f74206578697374210000000000000000000000006000830152602082019050919050565b600061557d601383615ba8565b91507f5573657220646f6573206e6f74206578697374000000000000000000000000006000830152602082019050919050565b60006155bd601983615ba8565b91507f55736572206973206e6f7420696e20746869732067726f7570000000000000006000830152602082019050919050565b60006155fc8284615036565b915081905092915050565b60006156138284615167565b915081905092915050565b60006156298261528c565b9150819050919050565b6000602082019050818103600083015261564d8184614ecc565b905092915050565b600060208201905061566a6000830184614fb5565b92915050565b6000602082019050818103600083015261568a8184614ffd565b905092915050565b600060408201905081810360008301526156ac8185614ffd565b905081810360208301526156c08184614ecc565b90509392505050565b600060608201905081810360008301526156e38186614ffd565b905081810360208301526156f78185614ecc565b9050818103604083015261570b8184614ecc565b9050949350505050565b6000608082019050818103600083015261572f8187614ffd565b905081810360208301526157438186614ecc565b905081810360408301526157578185614ecc565b9050818103606083015261576b8184614ffd565b905095945050505050565b600060408201905081810360008301526157908185614ffd565b905061579f6020830184614fb5565b9392505050565b600060408201905081810360008301526157c08185614ffd565b905081810360208301526157d48184614ffd565b90509392505050565b60006101008201905081810360008301526157f8818b614ffd565b9050818103602083015261580c818a614ffd565b905081810360408301526158208189614ecc565b905081810360608301526158348188614ffd565b905081810360808301526158488187614ffd565b905061585760a0830186614fb5565b81810360c08301526158698185614ffd565b905081810360e083015261587d8184614ffd565b90509998505050505050505050565b600060608201905081810360008301526158a68186614ffd565b905081810360208301526158ba8185614ffd565b905081810360408301526158ce8184614ffd565b9050949350505050565b600060608201905081810360008301526158f281866150e7565b905081810360208301526159068185614ecc565b9050818103604083015261591a8184614f41565b9050949350505050565b6000602082019050818103600083015261593d816151e6565b9050919050565b6000602082019050818103600083015261595d81615226565b9050919050565b6000602082019050818103600083015261597d816152cc565b9050919050565b6000602082019050818103600083015261599d81615332565b9050919050565b600060208201905081810360008301526159bd816153be565b9050919050565b600060208201905081810360008301526159dd81615424565b9050919050565b600060208201905081810360008301526159fd8161548a565b9050919050565b60006020820190508181036000830152615a1d816154ca565b9050919050565b60006020820190508181036000830152615a3d81615530565b9050919050565b60006020820190508181036000830152615a5d81615570565b9050919050565b60006020820190508181036000830152615a7d816155b0565b9050919050565b6000604051905081810181811067ffffffffffffffff82111715615aab57615aaa615d29565b5b8060405250919050565b600067ffffffffffffffff821115615ad057615acf615d29565b5b602082029050602081019050919050565b600067ffffffffffffffff821115615afc57615afb615d29565b5b601f19601f8301169050602081019050919050565b6000819050602082019050919050565b60008190508160005260206000209050919050565b60008190508160005260206000209050919050565b600081519050919050565b600081549050919050565b600081519050919050565b6000602082019050919050565b6000600182019050919050565b600082825260208201905092915050565b600082825260208201905092915050565b600082825260208201905092915050565b600081905092915050565b6000615bcf82615c04565b9150615bda83615c04565b925082821015615bed57615bec615ccb565b5b828203905092915050565b60008115159050919050565b6000819050919050565b82818337600083830152505050565b60005b83811015615c3b578082015181840152602081019050615c20565b83811115615c4a576000848401525b50505050565b60006002820490506001821680615c6857607f821691505b60208210811415615c7c57615c7b615cfa565b5b50919050565b6000615c8d82615c04565b91507fffffffffffffffffffffffffffffffffffffffffffffffffffffffffffffffff821415615cc057615cbf615ccb565b5b600182019050919050565b7f4e487b7100000000000000000000000000000000000000000000000000000000600052601160045260246000fd5b7f4e487b7100000000000000000000000000000000000000000000000000000000600052602260045260246000fd5b7f4e487b7100000000000000000000000000000000000000000000000000000000600052604160045260246000fd5b6000601f19601f830116905091905056fea2646970667358221220f976605ba5b8bd00c0912f308a03570a5c70bb23cbfb839b6e346010ebb48a5464736f6c63430008000033","opcodes":"PUSH1 0x80 PUSH1 0x40 MSTORE PUSH1 0x0 PUSH1 0x5 PUSH1 0x0 PUSH2 0x100 EXP DUP2 SLOAD DUP2 PUSH1 0xFF MUL NOT AND SWAP1 DUP4 ISZERO ISZERO MUL OR SWAP1 SSTORE POP CALLVALUE DUP1 ISZERO PUSH3 0x2C JUMPI PUSH1 0x0 DUP1 REVERT JUMPDEST POP CALLER PUSH1 0x5 PUSH1 0x1 PUSH2 0x100 EXP DUP2 SLOAD DUP2 PUSH20 0xFFFFFFFFFFFFFFFFFFFFFFFFFFFFFFFFFFFFFFFF MUL NOT AND SWAP1 DUP4 PUSH20 0xFFFFFFFFFFFFFFFFFFFFFFFFFFFFFFFFFFFFFFFF AND MUL OR SWAP1 SSTORE POP PUSH1 0x0 PUSH1 0x40 MLOAD DUP1 PUSH1 0x80 ADD PUSH1 0x40 MSTORE DUP1 PUSH1 0x40 MLOAD DUP1 PUSH1 0x40 ADD PUSH1 0x40 MSTORE DUP1 PUSH1 0x15 DUP2 MSTORE PUSH1 0x20 ADD PUSH32 0x466163654775617264204372656174653A20416C6C0000000000000000000000 DUP2 MSTORE POP DUP2 MSTORE PUSH1 0x20 ADD PUSH1 0x40 MLOAD DUP1 PUSH1 0x40 ADD PUSH1 0x40 MSTORE DUP1 PUSH1 0x13 DUP2 MSTORE PUSH1 0x20 ADD PUSH32 0x46616365477561726420526561643A20416C6C00000000000000000000000000 DUP2 MSTORE POP DUP2 MSTORE PUSH1 0x20 ADD PUSH1 0x40 MLOAD DUP1 PUSH1 0x40 ADD PUSH1 0x40 MSTORE DUP1 PUSH1 0x15 DUP2 MSTORE PUSH1 0x20 ADD PUSH32 0x466163654775617264205570646174653A20416C6C0000000000000000000000 DUP2 MSTORE POP DUP2 MSTORE PUSH1 0x20 ADD PUSH1 0x40 MLOAD DUP1 PUSH1 0x40 ADD PUSH1 0x40 MSTORE DUP1 PUSH1 0x15 DUP2 MSTORE PUSH1 0x20 ADD PUSH32 0x4661636547756172642044656C6574653A20416C6C0000000000000000000000 DUP2 MSTORE POP DUP2 MSTORE POP SWAP1 POP PUSH1 0x0 PUSH1 0x40 MLOAD DUP1 PUSH1 0x60 ADD PUSH1 0x40 MSTORE DUP1 PUSH1 0x40 MLOAD DUP1 PUSH1 0x40 ADD PUSH1 0x40 MSTORE DUP1 PUSH1 0x14 DUP2 MSTORE PUSH1 0x20 ADD PUSH32 0x46616365477561726420526561643A2053656C66000000000000000000000000 DUP2 MSTORE POP DUP2 MSTORE PUSH1 0x20 ADD PUSH1 0x40 MLOAD DUP1 PUSH1 0x40 ADD PUSH1 0x40 MSTORE DUP1 PUSH1 0x16 DUP2 MSTORE PUSH1 0x20 ADD PUSH32 0x466163654775617264205570646174653A2053656C6600000000000000000000 DUP2 MSTORE POP DUP2 MSTORE PUSH1 0x20 ADD PUSH1 0x40 MLOAD DUP1 PUSH1 0x40 ADD PUSH1 0x40 MSTORE DUP1 PUSH1 0x16 DUP2 MSTORE PUSH1 0x20 ADD PUSH32 0x4661636547756172642044656C6574653A2053656C6600000000000000000000 DUP2 MSTORE POP DUP2 MSTORE POP SWAP1 POP PUSH1 0x0 PUSH1 0x40 MLOAD DUP1 PUSH1 0x80 ADD PUSH1 0x40 MSTORE DUP1 PUSH1 0x40 MLOAD DUP1 PUSH1 0x40 ADD PUSH1 0x40 MSTORE DUP1 PUSH1 0x18 DUP2 MSTORE PUSH1 0x20 ADD PUSH32 0x466163654775617264204372656174653A2047726F7570730000000000000000 DUP2 MSTORE POP DUP2 MSTORE PUSH1 0x20 ADD PUSH1 0x40 MLOAD DUP1 PUSH1 0x40 ADD PUSH1 0x40 MSTORE DUP1 PUSH1 0x16 DUP2 MSTORE PUSH1 0x20 ADD PUSH32 0x46616365477561726420526561643A2047726F75707300000000000000000000 DUP2 MSTORE POP DUP2 MSTORE PUSH1 0x20 ADD PUSH1 0x40 MLOAD DUP1 PUSH1 0x40 ADD PUSH1 0x40 MSTORE DUP1 PUSH1 0x18 DUP2 MSTORE PUSH1 0x20 ADD PUSH32 0x466163654775617264205570646174653A2047726F7570730000000000000000 DUP2 MSTORE POP DUP2 MSTORE PUSH1 0x20 ADD PUSH1 0x40 MLOAD DUP1 PUSH1 0x40 ADD PUSH1 0x40 MSTORE DUP1 PUSH1 0x18 DUP2 MSTORE PUSH1 0x20 ADD PUSH32 0x4661636547756172642044656C6574653A2047726F7570730000000000000000 DUP2 MSTORE POP DUP2 MSTORE POP SWAP1 POP PUSH1 0x0 PUSH1 0x40 MLOAD DUP1 PUSH1 0x80 ADD PUSH1 0x40 MSTORE DUP1 PUSH1 0x40 MLOAD DUP1 PUSH1 0x40 ADD PUSH1 0x40 MSTORE DUP1 PUSH1 0x17 DUP2 MSTORE PUSH1 0x20 ADD PUSH32 0x466163654775617264204372656174653A205573657273000000000000000000 DUP2 MSTORE POP DUP2 MSTORE PUSH1 0x20 ADD PUSH1 0x40 MLOAD DUP1 PUSH1 0x40 ADD PUSH1 0x40 MSTORE DUP1 PUSH1 0x15 DUP2 MSTORE PUSH1 0x20 ADD PUSH32 0x46616365477561726420526561643A2055736572730000000000000000000000 DUP2 MSTORE POP DUP2 MSTORE PUSH1 0x20 ADD PUSH1 0x40 MLOAD DUP1 PUSH1 0x40 ADD PUSH1 0x40 MSTORE DUP1 PUSH1 0x17 DUP2 MSTORE PUSH1 0x20 ADD PUSH32 0x466163654775617264205570646174653A205573657273000000000000000000 DUP2 MSTORE POP DUP2 MSTORE PUSH1 0x20 ADD PUSH1 0x40 MLOAD DUP1 PUSH1 0x40 ADD PUSH1 0x40 MSTORE DUP1 PUSH1 0x17 DUP2 MSTORE PUSH1 0x20 ADD PUSH32 0x4661636547756172642044656C6574653A205573657273000000000000000000 DUP2 MSTORE POP DUP2 MSTORE POP SWAP1 POP PUSH3 0x47E PUSH1 0x40 MLOAD DUP1 PUSH1 0x40 ADD PUSH1 0x40 MSTORE DUP1 PUSH1 0xE DUP2 MSTORE PUSH1 0x20 ADD PUSH32 0x41646D696E6973747261746F7273000000000000000000000000000000000000 DUP2 MSTORE POP PUSH3 0x462 DUP7 PUSH3 0x5BD PUSH1 0x20 SHL PUSH1 0x20 SHR JUMP JUMPDEST PUSH1 0x40 MLOAD DUP1 PUSH1 0x20 ADD PUSH1 0x40 MSTORE DUP1 PUSH1 0x0 DUP2 MSTORE POP PUSH3 0x6EC PUSH1 0x20 SHL PUSH1 0x20 SHR JUMP JUMPDEST PUSH3 0x4E5 PUSH1 0x40 MLOAD DUP1 PUSH1 0x40 ADD PUSH1 0x40 MSTORE DUP1 PUSH1 0x5 DUP2 MSTORE PUSH1 0x20 ADD PUSH32 0x5573657273000000000000000000000000000000000000000000000000000000 DUP2 MSTORE POP PUSH3 0x4C9 DUP6 PUSH3 0x96D PUSH1 0x20 SHL PUSH1 0x20 SHR JUMP JUMPDEST PUSH1 0x40 MLOAD DUP1 PUSH1 0x20 ADD PUSH1 0x40 MSTORE DUP1 PUSH1 0x0 DUP2 MSTORE POP PUSH3 0x6EC PUSH1 0x20 SHL PUSH1 0x20 SHR JUMP JUMPDEST PUSH3 0x54C PUSH1 0x40 MLOAD DUP1 PUSH1 0x40 ADD PUSH1 0x40 MSTORE DUP1 PUSH1 0xE DUP2 MSTORE PUSH1 0x20 ADD PUSH32 0x47726F7570204D616E6167657273000000000000000000000000000000000000 DUP2 MSTORE POP PUSH3 0x530 DUP5 PUSH3 0x5BD PUSH1 0x20 SHL PUSH1 0x20 SHR JUMP JUMPDEST PUSH1 0x40 MLOAD DUP1 PUSH1 0x20 ADD PUSH1 0x40 MSTORE DUP1 PUSH1 0x0 DUP2 MSTORE POP PUSH3 0x6EC PUSH1 0x20 SHL PUSH1 0x20 SHR JUMP JUMPDEST PUSH3 0x5B3 PUSH1 0x40 MLOAD DUP1 PUSH1 0x40 ADD PUSH1 0x40 MSTORE DUP1 PUSH1 0xD DUP2 MSTORE PUSH1 0x20 ADD PUSH32 0x55736572204D616E616765727300000000000000000000000000000000000000 DUP2 MSTORE POP PUSH3 0x597 DUP4 PUSH3 0x5BD PUSH1 0x20 SHL PUSH1 0x20 SHR JUMP JUMPDEST PUSH1 0x40 MLOAD DUP1 PUSH1 0x20 ADD PUSH1 0x40 MSTORE DUP1 PUSH1 0x0 DUP2 MSTORE POP PUSH3 0x6EC PUSH1 0x20 SHL PUSH1 0x20 SHR JUMP JUMPDEST POP POP POP POP PUSH3 0x12FF JUMP JUMPDEST PUSH1 0x60 PUSH1 0x0 PUSH1 0x4 PUSH8 0xFFFFFFFFFFFFFFFF DUP2 GT ISZERO PUSH3 0x603 JUMPI PUSH32 0x4E487B7100000000000000000000000000000000000000000000000000000000 PUSH1 0x0 MSTORE PUSH1 0x41 PUSH1 0x4 MSTORE PUSH1 0x24 PUSH1 0x0 REVERT JUMPDEST PUSH1 0x40 MLOAD SWAP1 DUP1 DUP3 MSTORE DUP1 PUSH1 0x20 MUL PUSH1 0x20 ADD DUP3 ADD PUSH1 0x40 MSTORE DUP1 ISZERO PUSH3 0x638 JUMPI DUP2 PUSH1 0x20 ADD JUMPDEST PUSH1 0x60 DUP2 MSTORE PUSH1 0x20 ADD SWAP1 PUSH1 0x1 SWAP1 SUB SWAP1 DUP2 PUSH3 0x622 JUMPI SWAP1 POP JUMPDEST POP SWAP1 POP PUSH1 0x0 JUMPDEST PUSH1 0x4 DUP2 LT ISZERO PUSH3 0x6E2 JUMPI DUP4 DUP2 PUSH1 0x4 DUP2 LT PUSH3 0x682 JUMPI PUSH32 0x4E487B7100000000000000000000000000000000000000000000000000000000 PUSH1 0x0 MSTORE PUSH1 0x32 PUSH1 0x4 MSTORE PUSH1 0x24 PUSH1 0x0 REVERT JUMPDEST PUSH1 0x20 MUL ADD MLOAD DUP3 DUP3 DUP2 MLOAD DUP2 LT PUSH3 0x6C1 JUMPI PUSH32 0x4E487B7100000000000000000000000000000000000000000000000000000000 PUSH1 0x0 MSTORE PUSH1 0x32 PUSH1 0x4 MSTORE PUSH1 0x24 PUSH1 0x0 REVERT JUMPDEST PUSH1 0x20 MUL PUSH1 0x20 ADD ADD DUP2 SWAP1 MSTORE POP DUP1 DUP1 PUSH3 0x6D9 SWAP1 PUSH3 0x1242 JUMP JUMPDEST SWAP2 POP POP PUSH3 0x63E JUMP JUMPDEST POP DUP1 SWAP2 POP POP SWAP2 SWAP1 POP JUMP JUMPDEST PUSH1 0x5 PUSH1 0x1 SWAP1 SLOAD SWAP1 PUSH2 0x100 EXP SWAP1 DIV PUSH20 0xFFFFFFFFFFFFFFFFFFFFFFFFFFFFFFFFFFFFFFFF AND PUSH20 0xFFFFFFFFFFFFFFFFFFFFFFFFFFFFFFFFFFFFFFFF AND CALLER PUSH20 0xFFFFFFFFFFFFFFFFFFFFFFFFFFFFFFFFFFFFFFFF AND EQ PUSH3 0x77F JUMPI PUSH1 0x40 MLOAD PUSH32 0x8C379A000000000000000000000000000000000000000000000000000000000 DUP2 MSTORE PUSH1 0x4 ADD PUSH3 0x776 SWAP1 PUSH3 0x1117 JUMP JUMPDEST PUSH1 0x40 MLOAD DUP1 SWAP2 SUB SWAP1 REVERT JUMPDEST PUSH1 0x40 MLOAD DUP1 PUSH1 0x80 ADD PUSH1 0x40 MSTORE DUP1 DUP5 DUP2 MSTORE PUSH1 0x20 ADD PUSH1 0x0 PUSH8 0xFFFFFFFFFFFFFFFF DUP2 GT ISZERO PUSH3 0x7D2 JUMPI PUSH32 0x4E487B7100000000000000000000000000000000000000000000000000000000 PUSH1 0x0 MSTORE PUSH1 0x41 PUSH1 0x4 MSTORE PUSH1 0x24 PUSH1 0x0 REVERT JUMPDEST PUSH1 0x40 MLOAD SWAP1 DUP1 DUP3 MSTORE DUP1 PUSH1 0x20 MUL PUSH1 0x20 ADD DUP3 ADD PUSH1 0x40 MSTORE DUP1 ISZERO PUSH3 0x807 JUMPI DUP2 PUSH1 0x20 ADD JUMPDEST PUSH1 0x60 DUP2 MSTORE PUSH1 0x20 ADD SWAP1 PUSH1 0x1 SWAP1 SUB SWAP1 DUP2 PUSH3 0x7F1 JUMPI SWAP1 POP JUMPDEST POP DUP2 MSTORE PUSH1 0x20 ADD DUP4 DUP2 MSTORE PUSH1 0x20 ADD PUSH1 0x40 MLOAD DUP1 PUSH1 0x20 ADD PUSH1 0x40 MSTORE DUP1 PUSH1 0x0 DUP2 MSTORE POP DUP2 MSTORE POP PUSH1 0x1 DUP5 PUSH1 0x40 MLOAD PUSH3 0x838 SWAP2 SWAP1 PUSH3 0x1071 JUMP JUMPDEST SWAP1 DUP2 MSTORE PUSH1 0x20 ADD PUSH1 0x40 MLOAD DUP1 SWAP2 SUB SWAP1 KECCAK256 PUSH1 0x0 DUP3 ADD MLOAD DUP2 PUSH1 0x0 ADD SWAP1 DUP1 MLOAD SWAP1 PUSH1 0x20 ADD SWAP1 PUSH3 0x864 SWAP3 SWAP2 SWAP1 PUSH3 0xCF2 JUMP JUMPDEST POP PUSH1 0x20 DUP3 ADD MLOAD DUP2 PUSH1 0x1 ADD SWAP1 DUP1 MLOAD SWAP1 PUSH1 0x20 ADD SWAP1 PUSH3 0x883 SWAP3 SWAP2 SWAP1 PUSH3 0xD83 JUMP JUMPDEST POP PUSH1 0x40 DUP3 ADD MLOAD DUP2 PUSH1 0x2 ADD SWAP1 DUP1 MLOAD SWAP1 PUSH1 0x20 ADD SWAP1 PUSH3 0x8A2 SWAP3 SWAP2 SWAP1 PUSH3 0xD83 JUMP JUMPDEST POP PUSH1 0x60 DUP3 ADD MLOAD DUP2 PUSH1 0x3 ADD SWAP1 DUP1 MLOAD SWAP1 PUSH1 0x20 ADD SWAP1 PUSH3 0x8C1 SWAP3 SWAP2 SWAP1 PUSH3 0xCF2 JUMP JUMPDEST POP SWAP1 POP POP PUSH1 0x3 DUP4 SWAP1 DUP1 PUSH1 0x1 DUP2 SLOAD ADD DUP1 DUP3 SSTORE DUP1 SWAP2 POP POP PUSH1 0x1 SWAP1 SUB SWAP1 PUSH1 0x0 MSTORE PUSH1 0x20 PUSH1 0x0 KECCAK256 ADD PUSH1 0x0 SWAP1 SWAP2 SWAP1 SWAP2 SWAP1 SWAP2 POP SWAP1 DUP1 MLOAD SWAP1 PUSH1 0x20 ADD SWAP1 PUSH3 0x902 SWAP3 SWAP2 SWAP1 PUSH3 0xCF2 JUMP JUMPDEST POP DUP3 PUSH1 0x40 MLOAD PUSH3 0x913 SWAP2 SWAP1 PUSH3 0x1071 JUMP JUMPDEST PUSH1 0x40 MLOAD DUP1 SWAP2 SUB SWAP1 KECCAK256 PUSH32 0xDA8CB7463BA733D6194271D0978F8F3FE238ECE9368518BF39F0A3AD9C21EA35 DUP5 DUP5 PUSH1 0x40 MLOAD PUSH3 0x94E SWAP3 SWAP2 SWAP1 PUSH3 0x108A JUMP JUMPDEST PUSH1 0x40 MLOAD DUP1 SWAP2 SUB SWAP1 LOG2 PUSH3 0x968 DUP4 DUP3 PUSH3 0xA9C PUSH1 0x20 SHL PUSH1 0x20 SHR JUMP JUMPDEST POP POP POP JUMP JUMPDEST PUSH1 0x60 PUSH1 0x0 PUSH1 0x3 PUSH8 0xFFFFFFFFFFFFFFFF DUP2 GT ISZERO PUSH3 0x9B3 JUMPI PUSH32 0x4E487B7100000000000000000000000000000000000000000000000000000000 PUSH1 0x0 MSTORE PUSH1 0x41 PUSH1 0x4 MSTORE PUSH1 0x24 PUSH1 0x0 REVERT JUMPDEST PUSH1 0x40 MLOAD SWAP1 DUP1 DUP3 MSTORE DUP1 PUSH1 0x20 MUL PUSH1 0x20 ADD DUP3 ADD PUSH1 0x40 MSTORE DUP1 ISZERO PUSH3 0x9E8 JUMPI DUP2 PUSH1 0x20 ADD JUMPDEST PUSH1 0x60 DUP2 MSTORE PUSH1 0x20 ADD SWAP1 PUSH1 0x1 SWAP1 SUB SWAP1 DUP2 PUSH3 0x9D2 JUMPI SWAP1 POP JUMPDEST POP SWAP1 POP PUSH1 0x0 JUMPDEST PUSH1 0x3 DUP2 LT ISZERO PUSH3 0xA92 JUMPI DUP4 DUP2 PUSH1 0x3 DUP2 LT PUSH3 0xA32 JUMPI PUSH32 0x4E487B7100000000000000000000000000000000000000000000000000000000 PUSH1 0x0 MSTORE PUSH1 0x32 PUSH1 0x4 MSTORE PUSH1 0x24 PUSH1 0x0 REVERT JUMPDEST PUSH1 0x20 MUL ADD MLOAD DUP3 DUP3 DUP2 MLOAD DUP2 LT PUSH3 0xA71 JUMPI PUSH32 0x4E487B7100000000000000000000000000000000000000000000000000000000 PUSH1 0x0 MSTORE PUSH1 0x32 PUSH1 0x4 MSTORE PUSH1 0x24 PUSH1 0x0 REVERT JUMPDEST PUSH1 0x20 MUL PUSH1 0x20 ADD ADD DUP2 SWAP1 MSTORE POP DUP1 DUP1 PUSH3 0xA89 SWAP1 PUSH3 0x1242 JUMP JUMPDEST SWAP2 POP POP PUSH3 0x9EE JUMP JUMPDEST POP DUP1 SWAP2 POP POP SWAP2 SWAP1 POP JUMP JUMPDEST PUSH1 0x5 PUSH1 0x1 SWAP1 SLOAD SWAP1 PUSH2 0x100 EXP SWAP1 DIV PUSH20 0xFFFFFFFFFFFFFFFFFFFFFFFFFFFFFFFFFFFFFFFF AND PUSH20 0xFFFFFFFFFFFFFFFFFFFFFFFFFFFFFFFFFFFFFFFF AND CALLER PUSH20 0xFFFFFFFFFFFFFFFFFFFFFFFFFFFFFFFFFFFFFFFF AND EQ PUSH3 0xB2F JUMPI PUSH1 0x40 MLOAD PUSH32 0x8C379A000000000000000000000000000000000000000000000000000000000 DUP2 MSTORE PUSH1 0x4 ADD PUSH3 0xB26 SWAP1 PUSH3 0x1117 JUMP JUMPDEST PUSH1 0x40 MLOAD DUP1 SWAP2 SUB SWAP1 REVERT JUMPDEST PUSH1 0x0 PUSH1 0x1 DUP4 PUSH1 0x40 MLOAD PUSH3 0xB43 SWAP2 SWAP1 PUSH3 0x1071 JUMP JUMPDEST SWAP1 DUP2 MSTORE PUSH1 0x20 ADD PUSH1 0x40 MLOAD DUP1 SWAP2 SUB SWAP1 KECCAK256 PUSH1 0x0 ADD DUP1 SLOAD PUSH3 0xB61 SWAP1 PUSH3 0x120C JUMP JUMPDEST SWAP1 POP GT PUSH3 0xBA6 JUMPI PUSH1 0x40 MLOAD PUSH32 0x8C379A000000000000000000000000000000000000000000000000000000000 DUP2 MSTORE PUSH1 0x4 ADD PUSH3 0xB9D SWAP1 PUSH3 0x1139 JUMP JUMPDEST PUSH1 0x40 MLOAD DUP1 SWAP2 SUB SWAP1 REVERT JUMPDEST PUSH1 0x0 PUSH1 0x1 DUP4 PUSH1 0x40 MLOAD PUSH3 0xBBA SWAP2 SWAP1 PUSH3 0x1071 JUMP JUMPDEST SWAP1 DUP2 MSTORE PUSH1 0x20 ADD PUSH1 0x40 MLOAD DUP1 SWAP2 SUB SWAP1 KECCAK256 PUSH1 0x3 ADD DUP1 SLOAD PUSH3 0xBD8 SWAP1 PUSH3 0x120C JUMP JUMPDEST DUP1 PUSH1 0x1F ADD PUSH1 0x20 DUP1 SWAP2 DIV MUL PUSH1 0x20 ADD PUSH1 0x40 MLOAD SWAP1 DUP2 ADD PUSH1 0x40 MSTORE DUP1 SWAP3 SWAP2 SWAP1 DUP2 DUP2 MSTORE PUSH1 0x20 ADD DUP3 DUP1 SLOAD PUSH3 0xC06 SWAP1 PUSH3 0x120C JUMP JUMPDEST DUP1 ISZERO PUSH3 0xC57 JUMPI DUP1 PUSH1 0x1F LT PUSH3 0xC2B JUMPI PUSH2 0x100 DUP1 DUP4 SLOAD DIV MUL DUP4 MSTORE SWAP2 PUSH1 0x20 ADD SWAP2 PUSH3 0xC57 JUMP JUMPDEST DUP3 ADD SWAP2 SWAP1 PUSH1 0x0 MSTORE PUSH1 0x20 PUSH1 0x0 KECCAK256 SWAP1 JUMPDEST DUP2 SLOAD DUP2 MSTORE SWAP1 PUSH1 0x1 ADD SWAP1 PUSH1 0x20 ADD DUP1 DUP4 GT PUSH3 0xC39 JUMPI DUP3 SWAP1 SUB PUSH1 0x1F AND DUP3 ADD SWAP2 JUMPDEST POP POP POP POP POP SWAP1 POP DUP2 PUSH1 0x1 DUP5 PUSH1 0x40 MLOAD PUSH3 0xC71 SWAP2 SWAP1 PUSH3 0x1071 JUMP JUMPDEST SWAP1 DUP2 MSTORE PUSH1 0x20 ADD PUSH1 0x40 MLOAD DUP1 SWAP2 SUB SWAP1 KECCAK256 PUSH1 0x3 ADD SWAP1 DUP1 MLOAD SWAP1 PUSH1 0x20 ADD SWAP1 PUSH3 0xC97 SWAP3 SWAP2 SWAP1 PUSH3 0xCF2 JUMP JUMPDEST POP DUP3 PUSH1 0x40 MLOAD PUSH3 0xCA8 SWAP2 SWAP1 PUSH3 0x1071 JUMP JUMPDEST PUSH1 0x40 MLOAD DUP1 SWAP2 SUB SWAP1 KECCAK256 PUSH32 0x56AC90DBFAD2748E87288544310F76B151244EAED1FD5B5744E2C9FD4ED19F86 DUP5 DUP4 DUP6 PUSH1 0x40 MLOAD PUSH3 0xCE5 SWAP4 SWAP3 SWAP2 SWAP1 PUSH3 0x10C5 JUMP JUMPDEST PUSH1 0x40 MLOAD DUP1 SWAP2 SUB SWAP1 LOG2 POP POP POP JUMP JUMPDEST DUP3 DUP1 SLOAD PUSH3 0xD00 SWAP1 PUSH3 0x120C JUMP JUMPDEST SWAP1 PUSH1 0x0 MSTORE PUSH1 0x20 PUSH1 0x0 KECCAK256 SWAP1 PUSH1 0x1F ADD PUSH1 0x20 SWAP1 DIV DUP2 ADD SWAP3 DUP3 PUSH3 0xD24 JUMPI PUSH1 0x0 DUP6 SSTORE PUSH3 0xD70 JUMP JUMPDEST DUP3 PUSH1 0x1F LT PUSH3 0xD3F JUMPI DUP1 MLOAD PUSH1 0xFF NOT AND DUP4 DUP1 ADD OR DUP6 SSTORE PUSH3 0xD70 JUMP JUMPDEST DUP3 DUP1 ADD PUSH1 0x1 ADD DUP6 SSTORE DUP3 ISZERO PUSH3 0xD70 JUMPI SWAP2 DUP3 ADD JUMPDEST DUP3 DUP2 GT ISZERO PUSH3 0xD6F JUMPI DUP3 MLOAD DUP3 SSTORE SWAP2 PUSH1 0x20 ADD SWAP2 SWAP1 PUSH1 0x1 ADD SWAP1 PUSH3 0xD52 JUMP JUMPDEST JUMPDEST POP SWAP1 POP PUSH3 0xD7F SWAP2 SWAP1 PUSH3 0xDEA JUMP JUMPDEST POP SWAP1 JUMP JUMPDEST DUP3 DUP1 SLOAD DUP3 DUP3 SSTORE SWAP1 PUSH1 0x0 MSTORE PUSH1 0x20 PUSH1 0x0 KECCAK256 SWAP1 DUP2 ADD SWAP3 DUP3 ISZERO PUSH3 0xDD7 JUMPI SWAP2 PUSH1 0x20 MUL DUP3 ADD JUMPDEST DUP3 DUP2 GT ISZERO PUSH3 0xDD6 JUMPI DUP3 MLOAD DUP3 SWAP1 DUP1 MLOAD SWAP1 PUSH1 0x20 ADD SWAP1 PUSH3 0xDC5 SWAP3 SWAP2 SWAP1 PUSH3 0xCF2 JUMP JUMPDEST POP SWAP2 PUSH1 0x20 ADD SWAP2 SWAP1 PUSH1 0x1 ADD SWAP1 PUSH3 0xDA4 JUMP JUMPDEST JUMPDEST POP SWAP1 POP PUSH3 0xDE6 SWAP2 SWAP1 PUSH3 0xE09 JUMP JUMPDEST POP SWAP1 JUMP JUMPDEST JUMPDEST DUP1 DUP3 GT ISZERO PUSH3 0xE05 JUMPI PUSH1 0x0 DUP2 PUSH1 0x0 SWAP1 SSTORE POP PUSH1 0x1 ADD PUSH3 0xDEB JUMP JUMPDEST POP SWAP1 JUMP JUMPDEST JUMPDEST DUP1 DUP3 GT ISZERO PUSH3 0xE2D JUMPI PUSH1 0x0 DUP2 DUP2 PUSH3 0xE23 SWAP2 SWAP1 PUSH3 0xE31 JUMP JUMPDEST POP PUSH1 0x1 ADD PUSH3 0xE0A JUMP JUMPDEST POP SWAP1 JUMP JUMPDEST POP DUP1 SLOAD PUSH3 0xE3F SWAP1 PUSH3 0x120C JUMP JUMPDEST PUSH1 0x0 DUP3 SSTORE DUP1 PUSH1 0x1F LT PUSH3 0xE53 JUMPI POP PUSH3 0xE74 JUMP JUMPDEST PUSH1 0x1F ADD PUSH1 0x20 SWAP1 DIV SWAP1 PUSH1 0x0 MSTORE PUSH1 0x20 PUSH1 0x0 KECCAK256 SWAP1 DUP2 ADD SWAP1 PUSH3 0xE73 SWAP2 SWAP1 PUSH3 0xDEA JUMP JUMPDEST JUMPDEST POP JUMP JUMPDEST PUSH1 0x0 PUSH3 0xE85 DUP4 DUP4 PUSH3 0xF0E JUMP JUMPDEST SWAP1 POP SWAP3 SWAP2 POP POP JUMP JUMPDEST PUSH1 0x0 PUSH3 0xE9A DUP3 PUSH3 0x116B JUMP JUMPDEST PUSH3 0xEA6 DUP2 DUP6 PUSH3 0x118E JUMP JUMPDEST SWAP4 POP DUP4 PUSH1 0x20 DUP3 MUL DUP6 ADD PUSH3 0xEBA DUP6 PUSH3 0x115B JUMP JUMPDEST DUP1 PUSH1 0x0 JUMPDEST DUP6 DUP2 LT ISZERO PUSH3 0xEFC JUMPI DUP5 DUP5 SUB DUP10 MSTORE DUP2 MLOAD PUSH3 0xEDA DUP6 DUP3 PUSH3 0xE77 JUMP JUMPDEST SWAP5 POP PUSH3 0xEE7 DUP4 PUSH3 0x1181 JUMP JUMPDEST SWAP3 POP PUSH1 0x20 DUP11 ADD SWAP10 POP POP PUSH1 0x1 DUP2 ADD SWAP1 POP PUSH3 0xEBE JUMP JUMPDEST POP DUP3 SWAP8 POP DUP8 SWAP6 POP POP POP POP POP POP SWAP3 SWAP2 POP POP JUMP JUMPDEST PUSH1 0x0 PUSH3 0xF1B DUP3 PUSH3 0x1176 JUMP JUMPDEST PUSH3 0xF27 DUP2 DUP6 PUSH3 0x119F JUMP JUMPDEST SWAP4 POP PUSH3 0xF39 DUP2 DUP6 PUSH1 0x20 DUP7 ADD PUSH3 0x11D6 JUMP JUMPDEST PUSH3 0xF44 DUP2 PUSH3 0x12EE JUMP JUMPDEST DUP5 ADD SWAP2 POP POP SWAP3 SWAP2 POP POP JUMP JUMPDEST PUSH1 0x0 PUSH3 0xF5C DUP3 PUSH3 0x1176 JUMP JUMPDEST PUSH3 0xF68 DUP2 DUP6 PUSH3 0x11B0 JUMP JUMPDEST SWAP4 POP PUSH3 0xF7A DUP2 DUP6 PUSH1 0x20 DUP7 ADD PUSH3 0x11D6 JUMP JUMPDEST PUSH3 0xF85 DUP2 PUSH3 0x12EE JUMP JUMPDEST DUP5 ADD SWAP2 POP POP SWAP3 SWAP2 POP POP JUMP JUMPDEST PUSH1 0x0 PUSH3 0xF9D DUP3 PUSH3 0x1176 JUMP JUMPDEST PUSH3 0xFA9 DUP2 DUP6 PUSH3 0x11C1 JUMP JUMPDEST SWAP4 POP PUSH3 0xFBB DUP2 DUP6 PUSH1 0x20 DUP7 ADD PUSH3 0x11D6 JUMP JUMPDEST DUP1 DUP5 ADD SWAP2 POP POP SWAP3 SWAP2 POP POP JUMP JUMPDEST PUSH1 0x0 PUSH3 0xFD6 PUSH1 0x2F DUP4 PUSH3 0x11B0 JUMP JUMPDEST SWAP2 POP PUSH32 0x4F6E6C792074686520636F6E7472616374206F776E65722063616E2070657266 PUSH1 0x0 DUP4 ADD MSTORE PUSH32 0x6F726D207468697320616374696F6E0000000000000000000000000000000000 PUSH1 0x20 DUP4 ADD MSTORE PUSH1 0x40 DUP3 ADD SWAP1 POP SWAP2 SWAP1 POP JUMP JUMPDEST PUSH1 0x0 PUSH3 0x103E PUSH1 0x14 DUP4 PUSH3 0x11B0 JUMP JUMPDEST SWAP2 POP PUSH32 0x47726F757020646F6573206E6F74206578697374000000000000000000000000 PUSH1 0x0 DUP4 ADD MSTORE PUSH1 0x20 DUP3 ADD SWAP1 POP SWAP2 SWAP1 POP JUMP JUMPDEST PUSH1 0x0 PUSH3 0x107F DUP3 DUP5 PUSH3 0xF90 JUMP JUMPDEST SWAP2 POP DUP2 SWAP1 POP SWAP3 SWAP2 POP POP JUMP JUMPDEST PUSH1 0x0 PUSH1 0x40 DUP3 ADD SWAP1 POP DUP2 DUP2 SUB PUSH1 0x0 DUP4 ADD MSTORE PUSH3 0x10A6 DUP2 DUP6 PUSH3 0xF4F JUMP JUMPDEST SWAP1 POP DUP2 DUP2 SUB PUSH1 0x20 DUP4 ADD MSTORE PUSH3 0x10BC DUP2 DUP5 PUSH3 0xE8D JUMP JUMPDEST SWAP1 POP SWAP4 SWAP3 POP POP POP JUMP JUMPDEST PUSH1 0x0 PUSH1 0x60 DUP3 ADD SWAP1 POP DUP2 DUP2 SUB PUSH1 0x0 DUP4 ADD MSTORE PUSH3 0x10E1 DUP2 DUP7 PUSH3 0xF4F JUMP JUMPDEST SWAP1 POP DUP2 DUP2 SUB PUSH1 0x20 DUP4 ADD MSTORE PUSH3 0x10F7 DUP2 DUP6 PUSH3 0xF4F JUMP JUMPDEST SWAP1 POP DUP2 DUP2 SUB PUSH1 0x40 DUP4 ADD MSTORE PUSH3 0x110D DUP2 DUP5 PUSH3 0xF4F JUMP JUMPDEST SWAP1 POP SWAP5 SWAP4 POP POP POP POP JUMP JUMPDEST PUSH1 0x0 PUSH1 0x20 DUP3 ADD SWAP1 POP DUP2 DUP2 SUB PUSH1 0x0 DUP4 ADD MSTORE PUSH3 0x1132 DUP2 PUSH3 0xFC7 JUMP JUMPDEST SWAP1 POP SWAP2 SWAP1 POP JUMP JUMPDEST PUSH1 0x0 PUSH1 0x20 DUP3 ADD SWAP1 POP DUP2 DUP2 SUB PUSH1 0x0 DUP4 ADD MSTORE PUSH3 0x1154 DUP2 PUSH3 0x102F JUMP JUMPDEST SWAP1 POP SWAP2 SWAP1 POP JUMP JUMPDEST PUSH1 0x0 DUP2 SWAP1 POP PUSH1 0x20 DUP3 ADD SWAP1 POP SWAP2 SWAP1 POP JUMP JUMPDEST PUSH1 0x0 DUP2 MLOAD SWAP1 POP SWAP2 SWAP1 POP JUMP JUMPDEST PUSH1 0x0 DUP2 MLOAD SWAP1 POP SWAP2 SWAP1 POP JUMP JUMPDEST PUSH1 0x0 PUSH1 0x20 DUP3 ADD SWAP1 POP SWAP2 SWAP1 POP JUMP JUMPDEST PUSH1 0x0 DUP3 DUP3 MSTORE PUSH1 0x20 DUP3 ADD SWAP1 POP SWAP3 SWAP2 POP POP JUMP JUMPDEST PUSH1 0x0 DUP3 DUP3 MSTORE PUSH1 0x20 DUP3 ADD SWAP1 POP SWAP3 SWAP2 POP POP JUMP JUMPDEST PUSH1 0x0 DUP3 DUP3 MSTORE PUSH1 0x20 DUP3 ADD SWAP1 POP SWAP3 SWAP2 POP POP JUMP JUMPDEST PUSH1 0x0 DUP2 SWAP1 POP SWAP3 SWAP2 POP POP JUMP JUMPDEST PUSH1 0x0 DUP2 SWAP1 POP SWAP2 SWAP1 POP JUMP JUMPDEST PUSH1 0x0 JUMPDEST DUP4 DUP2 LT ISZERO PUSH3 0x11F6 JUMPI DUP1 DUP3 ADD MLOAD DUP2 DUP5 ADD MSTORE PUSH1 0x20 DUP2 ADD SWAP1 POP PUSH3 0x11D9 JUMP JUMPDEST DUP4 DUP2 GT ISZERO PUSH3 0x1206 JUMPI PUSH1 0x0 DUP5 DUP5 ADD MSTORE JUMPDEST POP POP POP POP JUMP JUMPDEST PUSH1 0x0 PUSH1 0x2 DUP3 DIV SWAP1 POP PUSH1 0x1 DUP3 AND DUP1 PUSH3 0x1225 JUMPI PUSH1 0x7F DUP3 AND SWAP2 POP JUMPDEST PUSH1 0x20 DUP3 LT DUP2 EQ ISZERO PUSH3 0x123C JUMPI PUSH3 0x123B PUSH3 0x12BF JUMP JUMPDEST JUMPDEST POP SWAP2 SWAP1 POP JUMP JUMPDEST PUSH1 0x0 PUSH3 0x124F DUP3 PUSH3 0x11CC JUMP JUMPDEST SWAP2 POP PUSH32 0xFFFFFFFFFFFFFFFFFFFFFFFFFFFFFFFFFFFFFFFFFFFFFFFFFFFFFFFFFFFFFFFF DUP3 EQ ISZERO PUSH3 0x1285 JUMPI PUSH3 0x1284 PUSH3 0x1290 JUMP JUMPDEST JUMPDEST PUSH1 0x1 DUP3 ADD SWAP1 POP SWAP2 SWAP1 POP JUMP JUMPDEST PUSH32 0x4E487B7100000000000000000000000000000000000000000000000000000000 PUSH1 0x0 MSTORE PUSH1 0x11 PUSH1 0x4 MSTORE PUSH1 0x24 PUSH1 0x0 REVERT JUMPDEST PUSH32 0x4E487B7100000000000000000000000000000000000000000000000000000000 PUSH1 0x0 MSTORE PUSH1 0x22 PUSH1 0x4 MSTORE PUSH1 0x24 PUSH1 0x0 REVERT JUMPDEST PUSH1 0x0 PUSH1 0x1F NOT PUSH1 0x1F DUP4 ADD AND SWAP1 POP SWAP2 SWAP1 POP JUMP JUMPDEST PUSH2 0x5D9F DUP1 PUSH3 0x130F PUSH1 0x0 CODECOPY PUSH1 0x0 RETURN INVALID PUSH1 0x80 PUSH1 0x40 MSTORE CALLVALUE DUP1 ISZERO PUSH2 0x10 JUMPI PUSH1 0x0 DUP1 REVERT JUMPDEST POP PUSH1 0x4 CALLDATASIZE LT PUSH2 0x142 JUMPI PUSH1 0x0 CALLDATALOAD PUSH1 0xE0 SHR DUP1 PUSH4 0x6246B310 GT PUSH2 0xB8 JUMPI DUP1 PUSH4 0xABEF281E GT PUSH2 0x7C JUMPI DUP1 PUSH4 0xABEF281E EQ PUSH2 0x362 JUMPI DUP1 PUSH4 0xB9E6FACB EQ PUSH2 0x395 JUMPI DUP1 PUSH4 0xC91BC46C EQ PUSH2 0x3B1 JUMPI DUP1 PUSH4 0xDBFC63F9 EQ PUSH2 0x3CD JUMPI DUP1 PUSH4 0xECB5A4D5 EQ PUSH2 0x3E9 JUMPI DUP1 PUSH4 0xEE1C55DA EQ PUSH2 0x405 JUMPI PUSH2 0x142 JUMP JUMPDEST DUP1 PUSH4 0x6246B310 EQ PUSH2 0x2C2 JUMPI DUP1 PUSH4 0x67753BA1 EQ PUSH2 0x2DE JUMPI DUP1 PUSH4 0x6B228CDE EQ PUSH2 0x2FA JUMPI DUP1 PUSH4 0x6CAD1934 EQ PUSH2 0x316 JUMPI DUP1 PUSH4 0x8A0BD86B EQ PUSH2 0x346 JUMPI PUSH2 0x142 JUMP JUMPDEST DUP1 PUSH4 0x2D09D9E9 GT PUSH2 0x10A JUMPI DUP1 PUSH4 0x2D09D9E9 EQ PUSH2 0x1E9 JUMPI DUP1 PUSH4 0x31FEB671 EQ PUSH2 0x219 JUMPI DUP1 PUSH4 0x5108C3AB EQ PUSH2 0x250 JUMPI DUP1 PUSH4 0x53620375 EQ PUSH2 0x26C JUMPI DUP1 PUSH4 0x5B9A6B1D EQ PUSH2 0x28A JUMPI DUP1 PUSH4 0x600CEE78 EQ PUSH2 0x2A6 JUMPI PUSH2 0x142 JUMP JUMPDEST DUP1 PUSH4 0x3DF9E92 EQ PUSH2 0x147 JUMPI DUP1 PUSH4 0xE63A8C4 EQ PUSH2 0x163 JUMPI DUP1 PUSH4 0x1AE7F10A EQ PUSH2 0x17F JUMPI DUP1 PUSH4 0x21CD3CAE EQ PUSH2 0x1AF JUMPI DUP1 PUSH4 0x266C1BAB EQ PUSH2 0x1CD JUMPI JUMPDEST PUSH1 0x0 DUP1 REVERT JUMPDEST PUSH2 0x161 PUSH1 0x4 DUP1 CALLDATASIZE SUB DUP2 ADD SWAP1 PUSH2 0x15C SWAP2 SWAP1 PUSH2 0x4BDB JUMP JUMPDEST PUSH2 0x435 JUMP JUMPDEST STOP JUMPDEST PUSH2 0x17D PUSH1 0x4 DUP1 CALLDATASIZE SUB DUP2 ADD SWAP1 PUSH2 0x178 SWAP2 SWAP1 PUSH2 0x4CDE JUMP JUMPDEST PUSH2 0x645 JUMP JUMPDEST STOP JUMPDEST PUSH2 0x199 PUSH1 0x4 DUP1 CALLDATASIZE SUB DUP2 ADD SWAP1 PUSH2 0x194 SWAP2 SWAP1 PUSH2 0x4BDB JUMP JUMPDEST PUSH2 0x87F JUMP JUMPDEST PUSH1 0x40 MLOAD PUSH2 0x1A6 SWAP2 SWAP1 PUSH2 0x5670 JUMP JUMPDEST PUSH1 0x40 MLOAD DUP1 SWAP2 SUB SWAP1 RETURN JUMPDEST PUSH2 0x1B7 PUSH2 0xDF6 JUMP JUMPDEST PUSH1 0x40 MLOAD PUSH2 0x1C4 SWAP2 SWAP1 PUSH2 0x5633 JUMP JUMPDEST PUSH1 0x40 MLOAD DUP1 SWAP2 SUB SWAP1 RETURN JUMPDEST PUSH2 0x1E7 PUSH1 0x4 DUP1 CALLDATASIZE SUB DUP2 ADD SWAP1 PUSH2 0x1E2 SWAP2 SWAP1 PUSH2 0x4CDE JUMP JUMPDEST PUSH2 0xECF JUMP JUMPDEST STOP JUMPDEST PUSH2 0x203 PUSH1 0x4 DUP1 CALLDATASIZE SUB DUP2 ADD SWAP1 PUSH2 0x1FE SWAP2 SWAP1 PUSH2 0x4B9A JUMP JUMPDEST PUSH2 0x1097 JUMP JUMPDEST PUSH1 0x40 MLOAD PUSH2 0x210 SWAP2 SWAP1 PUSH2 0x5633 JUMP JUMPDEST PUSH1 0x40 MLOAD DUP1 SWAP2 SUB SWAP1 RETURN JUMPDEST PUSH2 0x233 PUSH1 0x4 DUP1 CALLDATASIZE SUB DUP2 ADD SWAP1 PUSH2 0x22E SWAP2 SWAP1 PUSH2 0x4B9A JUMP JUMPDEST PUSH2 0x1221 JUMP JUMPDEST PUSH1 0x40 MLOAD PUSH2 0x247 SWAP9 SWAP8 SWAP7 SWAP6 SWAP5 SWAP4 SWAP3 SWAP2 SWAP1 PUSH2 0x57DD JUMP JUMPDEST PUSH1 0x40 MLOAD DUP1 SWAP2 SUB SWAP1 RETURN JUMPDEST PUSH2 0x26A PUSH1 0x4 DUP1 CALLDATASIZE SUB DUP2 ADD SWAP1 PUSH2 0x265 SWAP2 SWAP1 PUSH2 0x4B9A JUMP JUMPDEST PUSH2 0x16FF JUMP JUMPDEST STOP JUMPDEST PUSH2 0x274 PUSH2 0x1877 JUMP JUMPDEST PUSH1 0x40 MLOAD PUSH2 0x281 SWAP2 SWAP1 PUSH2 0x5633 JUMP JUMPDEST PUSH1 0x40 MLOAD DUP1 SWAP2 SUB SWAP1 RETURN JUMPDEST PUSH2 0x2A4 PUSH1 0x4 DUP1 CALLDATASIZE SUB DUP2 ADD SWAP1 PUSH2 0x29F SWAP2 SWAP1 PUSH2 0x4D4A JUMP JUMPDEST PUSH2 0x1950 JUMP JUMPDEST STOP JUMPDEST PUSH2 0x2C0 PUSH1 0x4 DUP1 CALLDATASIZE SUB DUP2 ADD SWAP1 PUSH2 0x2BB SWAP2 SWAP1 PUSH2 0x4B9A JUMP JUMPDEST PUSH2 0x1F46 JUMP JUMPDEST STOP JUMPDEST PUSH2 0x2DC PUSH1 0x4 DUP1 CALLDATASIZE SUB DUP2 ADD SWAP1 PUSH2 0x2D7 SWAP2 SWAP1 PUSH2 0x4B9A JUMP JUMPDEST PUSH2 0x240C JUMP JUMPDEST STOP JUMPDEST PUSH2 0x2F8 PUSH1 0x4 DUP1 CALLDATASIZE SUB DUP2 ADD SWAP1 PUSH2 0x2F3 SWAP2 SWAP1 PUSH2 0x4CDE JUMP JUMPDEST PUSH2 0x2AEC JUMP JUMPDEST STOP JUMPDEST PUSH2 0x314 PUSH1 0x4 DUP1 CALLDATASIZE SUB DUP2 ADD SWAP1 PUSH2 0x30F SWAP2 SWAP1 PUSH2 0x4B9A JUMP JUMPDEST PUSH2 0x2FF1 JUMP JUMPDEST STOP JUMPDEST PUSH2 0x330 PUSH1 0x4 DUP1 CALLDATASIZE SUB DUP2 ADD SWAP1 PUSH2 0x32B SWAP2 SWAP1 PUSH2 0x4B9A JUMP JUMPDEST PUSH2 0x30D1 JUMP JUMPDEST PUSH1 0x40 MLOAD PUSH2 0x33D SWAP2 SWAP1 PUSH2 0x5655 JUMP JUMPDEST PUSH1 0x40 MLOAD DUP1 SWAP2 SUB SWAP1 RETURN JUMPDEST PUSH2 0x360 PUSH1 0x4 DUP1 CALLDATASIZE SUB DUP2 ADD SWAP1 PUSH2 0x35B SWAP2 SWAP1 PUSH2 0x4CDE JUMP JUMPDEST PUSH2 0x310A JUMP JUMPDEST STOP JUMPDEST PUSH2 0x37C PUSH1 0x4 DUP1 CALLDATASIZE SUB DUP2 ADD SWAP1 PUSH2 0x377 SWAP2 SWAP1 PUSH2 0x4B9A JUMP JUMPDEST PUSH2 0x32D3 JUMP JUMPDEST PUSH1 0x40 MLOAD PUSH2 0x38C SWAP5 SWAP4 SWAP3 SWAP2 SWAP1 PUSH2 0x5715 JUMP JUMPDEST PUSH1 0x40 MLOAD DUP1 SWAP2 SUB SWAP1 RETURN JUMPDEST PUSH2 0x3AF PUSH1 0x4 DUP1 CALLDATASIZE SUB DUP2 ADD SWAP1 PUSH2 0x3AA SWAP2 SWAP1 PUSH2 0x4DE1 JUMP JUMPDEST PUSH2 0x3700 JUMP JUMPDEST STOP JUMPDEST PUSH2 0x3CB PUSH1 0x4 DUP1 CALLDATASIZE SUB DUP2 ADD SWAP1 PUSH2 0x3C6 SWAP2 SWAP1 PUSH2 0x4CDE JUMP JUMPDEST PUSH2 0x3A2A JUMP JUMPDEST STOP JUMPDEST PUSH2 0x3E7 PUSH1 0x4 DUP1 CALLDATASIZE SUB DUP2 ADD SWAP1 PUSH2 0x3E2 SWAP2 SWAP1 PUSH2 0x4C47 JUMP JUMPDEST PUSH2 0x3B41 JUMP JUMPDEST STOP JUMPDEST PUSH2 0x403 PUSH1 0x4 DUP1 CALLDATASIZE SUB DUP2 ADD SWAP1 PUSH2 0x3FE SWAP2 SWAP1 PUSH2 0x4CDE JUMP JUMPDEST PUSH2 0x3DA4 JUMP JUMPDEST STOP JUMPDEST PUSH2 0x41F PUSH1 0x4 DUP1 CALLDATASIZE SUB DUP2 ADD SWAP1 PUSH2 0x41A SWAP2 SWAP1 PUSH2 0x4B9A JUMP JUMPDEST PUSH2 0x4010 JUMP JUMPDEST PUSH1 0x40 MLOAD PUSH2 0x42C SWAP2 SWAP1 PUSH2 0x5633 JUMP JUMPDEST PUSH1 0x40 MLOAD DUP1 SWAP2 SUB SWAP1 RETURN JUMPDEST PUSH1 0x5 PUSH1 0x1 SWAP1 SLOAD SWAP1 PUSH2 0x100 EXP SWAP1 DIV PUSH20 0xFFFFFFFFFFFFFFFFFFFFFFFFFFFFFFFFFFFFFFFF AND PUSH20 0xFFFFFFFFFFFFFFFFFFFFFFFFFFFFFFFFFFFFFFFF AND CALLER PUSH20 0xFFFFFFFFFFFFFFFFFFFFFFFFFFFFFFFFFFFFFFFF AND EQ PUSH2 0x4C5 JUMPI PUSH1 0x40 MLOAD PUSH32 0x8C379A000000000000000000000000000000000000000000000000000000000 DUP2 MSTORE PUSH1 0x4 ADD PUSH2 0x4BC SWAP1 PUSH2 0x59A4 JUMP JUMPDEST PUSH1 0x40 MLOAD DUP1 SWAP2 SUB SWAP1 REVERT JUMPDEST PUSH1 0x0 DUP1 DUP4 PUSH1 0x40 MLOAD PUSH2 0x4D6 SWAP2 SWAP1 PUSH2 0x55F0 JUMP JUMPDEST SWAP1 DUP2 MSTORE PUSH1 0x20 ADD PUSH1 0x40 MLOAD DUP1 SWAP2 SUB SWAP1 KECCAK256 PUSH1 0x2 ADD DUP1 SLOAD DUP1 PUSH1 0x20 MUL PUSH1 0x20 ADD PUSH1 0x40 MLOAD SWAP1 DUP2 ADD PUSH1 0x40 MSTORE DUP1 SWAP3 SWAP2 SWAP1 DUP2 DUP2 MSTORE PUSH1 0x20 ADD PUSH1 0x0 SWAP1 JUMPDEST DUP3 DUP3 LT ISZERO PUSH2 0x5B3 JUMPI DUP4 DUP3 SWAP1 PUSH1 0x0 MSTORE PUSH1 0x20 PUSH1 0x0 KECCAK256 ADD DUP1 SLOAD PUSH2 0x526 SWAP1 PUSH2 0x5C50 JUMP JUMPDEST DUP1 PUSH1 0x1F ADD PUSH1 0x20 DUP1 SWAP2 DIV MUL PUSH1 0x20 ADD PUSH1 0x40 MLOAD SWAP1 DUP2 ADD PUSH1 0x40 MSTORE DUP1 SWAP3 SWAP2 SWAP1 DUP2 DUP2 MSTORE PUSH1 0x20 ADD DUP3 DUP1 SLOAD PUSH2 0x552 SWAP1 PUSH2 0x5C50 JUMP JUMPDEST DUP1 ISZERO PUSH2 0x59F JUMPI DUP1 PUSH1 0x1F LT PUSH2 0x574 JUMPI PUSH2 0x100 DUP1 DUP4 SLOAD DIV MUL DUP4 MSTORE SWAP2 PUSH1 0x20 ADD SWAP2 PUSH2 0x59F JUMP JUMPDEST DUP3 ADD SWAP2 SWAP1 PUSH1 0x0 MSTORE PUSH1 0x20 PUSH1 0x0 KECCAK256 SWAP1 JUMPDEST DUP2 SLOAD DUP2 MSTORE SWAP1 PUSH1 0x1 ADD SWAP1 PUSH1 0x20 ADD DUP1 DUP4 GT PUSH2 0x582 JUMPI DUP3 SWAP1 SUB PUSH1 0x1F AND DUP3 ADD SWAP2 JUMPDEST POP POP POP POP POP DUP2 MSTORE PUSH1 0x20 ADD SWAP1 PUSH1 0x1 ADD SWAP1 PUSH2 0x507 JUMP JUMPDEST POP POP POP POP SWAP1 POP DUP2 PUSH1 0x0 DUP5 PUSH1 0x40 MLOAD PUSH2 0x5CA SWAP2 SWAP1 PUSH2 0x55F0 JUMP JUMPDEST SWAP1 DUP2 MSTORE PUSH1 0x20 ADD PUSH1 0x40 MLOAD DUP1 SWAP2 SUB SWAP1 KECCAK256 PUSH1 0x2 ADD SWAP1 DUP1 MLOAD SWAP1 PUSH1 0x20 ADD SWAP1 PUSH2 0x5EE SWAP3 SWAP2 SWAP1 PUSH2 0x47A1 JUMP JUMPDEST POP DUP3 PUSH1 0x40 MLOAD PUSH2 0x5FD SWAP2 SWAP1 PUSH2 0x55F0 JUMP JUMPDEST PUSH1 0x40 MLOAD DUP1 SWAP2 SUB SWAP1 KECCAK256 PUSH32 0x2915B912A9FEC4A96D295BA3188E0D2BED2FD6E9F9E34947A8F17DDF60642D17 DUP5 DUP4 DUP6 PUSH1 0x40 MLOAD PUSH2 0x638 SWAP4 SWAP3 SWAP2 SWAP1 PUSH2 0x56C9 JUMP JUMPDEST PUSH1 0x40 MLOAD DUP1 SWAP2 SUB SWAP1 LOG2 POP POP POP JUMP JUMPDEST PUSH1 0x5 PUSH1 0x1 SWAP1 SLOAD SWAP1 PUSH2 0x100 EXP SWAP1 DIV PUSH20 0xFFFFFFFFFFFFFFFFFFFFFFFFFFFFFFFFFFFFFFFF AND PUSH20 0xFFFFFFFFFFFFFFFFFFFFFFFFFFFFFFFFFFFFFFFF AND CALLER PUSH20 0xFFFFFFFFFFFFFFFFFFFFFFFFFFFFFFFFFFFFFFFF AND EQ PUSH2 0x6D5 JUMPI PUSH1 0x40 MLOAD PUSH32 0x8C379A000000000000000000000000000000000000000000000000000000000 DUP2 MSTORE PUSH1 0x4 ADD PUSH2 0x6CC SWAP1 PUSH2 0x59A4 JUMP JUMPDEST PUSH1 0x40 MLOAD DUP1 SWAP2 SUB SWAP1 REVERT JUMPDEST PUSH1 0x0 PUSH1 0x1 DUP4 PUSH1 0x40 MLOAD PUSH2 0x6E7 SWAP2 SWAP1 PUSH2 0x55F0 JUMP JUMPDEST SWAP1 DUP2 MSTORE PUSH1 0x20 ADD PUSH1 0x40 MLOAD DUP1 SWAP2 SUB SWAP1 KECCAK256 PUSH1 0x0 ADD DUP1 SLOAD PUSH2 0x703 SWAP1 PUSH2 0x5C50 JUMP JUMPDEST SWAP1 POP GT PUSH2 0x745 JUMPI PUSH1 0x40 MLOAD PUSH32 0x8C379A000000000000000000000000000000000000000000000000000000000 DUP2 MSTORE PUSH1 0x4 ADD PUSH2 0x73C SWAP1 PUSH2 0x59E4 JUMP JUMPDEST PUSH1 0x40 MLOAD DUP1 SWAP2 SUB SWAP1 REVERT JUMPDEST PUSH1 0x0 PUSH1 0x1 DUP4 PUSH1 0x40 MLOAD PUSH2 0x757 SWAP2 SWAP1 PUSH2 0x55F0 JUMP JUMPDEST SWAP1 DUP2 MSTORE PUSH1 0x20 ADD PUSH1 0x40 MLOAD DUP1 SWAP2 SUB SWAP1 KECCAK256 PUSH1 0x3 ADD DUP1 SLOAD PUSH2 0x773 SWAP1 PUSH2 0x5C50 JUMP JUMPDEST DUP1 PUSH1 0x1F ADD PUSH1 0x20 DUP1 SWAP2 DIV MUL PUSH1 0x20 ADD PUSH1 0x40 MLOAD SWAP1 DUP2 ADD PUSH1 0x40 MSTORE DUP1 SWAP3 SWAP2 SWAP1 DUP2 DUP2 MSTORE PUSH1 0x20 ADD DUP3 DUP1 SLOAD PUSH2 0x79F SWAP1 PUSH2 0x5C50 JUMP JUMPDEST DUP1 ISZERO PUSH2 0x7EC JUMPI DUP1 PUSH1 0x1F LT PUSH2 0x7C1 JUMPI PUSH2 0x100 DUP1 DUP4 SLOAD DIV MUL DUP4 MSTORE SWAP2 PUSH1 0x20 ADD SWAP2 PUSH2 0x7EC JUMP JUMPDEST DUP3 ADD SWAP2 SWAP1 PUSH1 0x0 MSTORE PUSH1 0x20 PUSH1 0x0 KECCAK256 SWAP1 JUMPDEST DUP2 SLOAD DUP2 MSTORE SWAP1 PUSH1 0x1 ADD SWAP1 PUSH1 0x20 ADD DUP1 DUP4 GT PUSH2 0x7CF JUMPI DUP3 SWAP1 SUB PUSH1 0x1F AND DUP3 ADD SWAP2 JUMPDEST POP POP POP POP POP SWAP1 POP DUP2 PUSH1 0x1 DUP5 PUSH1 0x40 MLOAD PUSH2 0x804 SWAP2 SWAP1 PUSH2 0x55F0 JUMP JUMPDEST SWAP1 DUP2 MSTORE PUSH1 0x20 ADD PUSH1 0x40 MLOAD DUP1 SWAP2 SUB SWAP1 KECCAK256 PUSH1 0x3 ADD SWAP1 DUP1 MLOAD SWAP1 PUSH1 0x20 ADD SWAP1 PUSH2 0x828 SWAP3 SWAP2 SWAP1 PUSH2 0x4801 JUMP JUMPDEST POP DUP3 PUSH1 0x40 MLOAD PUSH2 0x837 SWAP2 SWAP1 PUSH2 0x55F0 JUMP JUMPDEST PUSH1 0x40 MLOAD DUP1 SWAP2 SUB SWAP1 KECCAK256 PUSH32 0x56AC90DBFAD2748E87288544310F76B151244EAED1FD5B5744E2C9FD4ED19F86 DUP5 DUP4 DUP6 PUSH1 0x40 MLOAD PUSH2 0x872 SWAP4 SWAP3 SWAP2 SWAP1 PUSH2 0x588C JUMP JUMPDEST PUSH1 0x40 MLOAD DUP1 SWAP2 SUB SWAP1 LOG2 POP POP POP JUMP JUMPDEST PUSH1 0x60 PUSH1 0x5 PUSH1 0x1 SWAP1 SLOAD SWAP1 PUSH2 0x100 EXP SWAP1 DIV PUSH20 0xFFFFFFFFFFFFFFFFFFFFFFFFFFFFFFFFFFFFFFFF AND PUSH20 0xFFFFFFFFFFFFFFFFFFFFFFFFFFFFFFFFFFFFFFFF AND CALLER PUSH20 0xFFFFFFFFFFFFFFFFFFFFFFFFFFFFFFFFFFFFFFFF AND EQ PUSH2 0x911 JUMPI PUSH1 0x40 MLOAD PUSH32 0x8C379A000000000000000000000000000000000000000000000000000000000 DUP2 MSTORE PUSH1 0x4 ADD PUSH2 0x908 SWAP1 PUSH2 0x59A4 JUMP JUMPDEST PUSH1 0x40 MLOAD DUP1 SWAP2 SUB SWAP1 REVERT JUMPDEST PUSH1 0x0 PUSH1 0x1 DUP5 PUSH1 0x40 MLOAD PUSH2 0x923 SWAP2 SWAP1 PUSH2 0x55F0 JUMP JUMPDEST SWAP1 DUP2 MSTORE PUSH1 0x20 ADD PUSH1 0x40 MLOAD DUP1 SWAP2 SUB SWAP1 KECCAK256 PUSH1 0x0 ADD DUP1 SLOAD PUSH2 0x93F SWAP1 PUSH2 0x5C50 JUMP JUMPDEST SWAP1 POP GT PUSH2 0x981 JUMPI PUSH1 0x40 MLOAD PUSH32 0x8C379A000000000000000000000000000000000000000000000000000000000 DUP2 MSTORE PUSH1 0x4 ADD PUSH2 0x978 SWAP1 PUSH2 0x59E4 JUMP JUMPDEST PUSH1 0x40 MLOAD DUP1 SWAP2 SUB SWAP1 REVERT JUMPDEST PUSH1 0x0 PUSH1 0x40 MLOAD DUP1 PUSH1 0x80 ADD PUSH1 0x40 MSTORE DUP1 PUSH1 0x40 MLOAD DUP1 PUSH1 0x40 ADD PUSH1 0x40 MSTORE DUP1 PUSH1 0xE DUP2 MSTORE PUSH1 0x20 ADD PUSH32 0x41646D696E6973747261746F7273000000000000000000000000000000000000 DUP2 MSTORE POP DUP2 MSTORE PUSH1 0x20 ADD PUSH1 0x40 MLOAD DUP1 PUSH1 0x40 ADD PUSH1 0x40 MSTORE DUP1 PUSH1 0x5 DUP2 MSTORE PUSH1 0x20 ADD PUSH32 0x5573657273000000000000000000000000000000000000000000000000000000 DUP2 MSTORE POP DUP2 MSTORE PUSH1 0x20 ADD PUSH1 0x40 MLOAD DUP1 PUSH1 0x40 ADD PUSH1 0x40 MSTORE DUP1 PUSH1 0xE DUP2 MSTORE PUSH1 0x20 ADD PUSH32 0x47726F7570204D616E6167657273000000000000000000000000000000000000 DUP2 MSTORE POP DUP2 MSTORE PUSH1 0x20 ADD PUSH1 0x40 MLOAD DUP1 PUSH1 0x40 ADD PUSH1 0x40 MSTORE DUP1 PUSH1 0xD DUP2 MSTORE PUSH1 0x20 ADD PUSH32 0x55736572204D616E616765727300000000000000000000000000000000000000 DUP2 MSTORE POP DUP2 MSTORE POP SWAP1 POP PUSH1 0x0 JUMPDEST PUSH1 0x4 DUP2 LT ISZERO PUSH2 0xB65 JUMPI DUP2 DUP2 PUSH1 0x4 DUP2 LT PUSH2 0xABF JUMPI PUSH32 0x4E487B7100000000000000000000000000000000000000000000000000000000 PUSH1 0x0 MSTORE PUSH1 0x32 PUSH1 0x4 MSTORE PUSH1 0x24 PUSH1 0x0 REVERT JUMPDEST PUSH1 0x20 MUL ADD MLOAD PUSH1 0x40 MLOAD PUSH1 0x20 ADD PUSH2 0xAD4 SWAP2 SWAP1 PUSH2 0x55F0 JUMP JUMPDEST PUSH1 0x40 MLOAD PUSH1 0x20 DUP2 DUP4 SUB SUB DUP2 MSTORE SWAP1 PUSH1 0x40 MSTORE DUP1 MLOAD SWAP1 PUSH1 0x20 ADD KECCAK256 DUP6 PUSH1 0x40 MLOAD PUSH1 0x20 ADD PUSH2 0xAFB SWAP2 SWAP1 PUSH2 0x55F0 JUMP JUMPDEST PUSH1 0x40 MLOAD PUSH1 0x20 DUP2 DUP4 SUB SUB DUP2 MSTORE SWAP1 PUSH1 0x40 MSTORE DUP1 MLOAD SWAP1 PUSH1 0x20 ADD KECCAK256 EQ ISZERO PUSH2 0xB52 JUMPI PUSH1 0x40 MLOAD PUSH32 0x8C379A000000000000000000000000000000000000000000000000000000000 DUP2 MSTORE PUSH1 0x4 ADD PUSH2 0xB49 SWAP1 PUSH2 0x5964 JUMP JUMPDEST PUSH1 0x40 MLOAD DUP1 SWAP2 SUB SWAP1 REVERT JUMPDEST DUP1 DUP1 PUSH2 0xB5D SWAP1 PUSH2 0x5C82 JUMP JUMPDEST SWAP2 POP POP PUSH2 0xA7D JUMP JUMPDEST POP PUSH1 0x0 PUSH1 0x1 DUP6 PUSH1 0x40 MLOAD PUSH2 0xB78 SWAP2 SWAP1 PUSH2 0x55F0 JUMP JUMPDEST SWAP1 DUP2 MSTORE PUSH1 0x20 ADD PUSH1 0x40 MLOAD DUP1 SWAP2 SUB SWAP1 KECCAK256 PUSH1 0x2 ADD DUP1 SLOAD DUP1 PUSH1 0x20 MUL PUSH1 0x20 ADD PUSH1 0x40 MLOAD SWAP1 DUP2 ADD PUSH1 0x40 MSTORE DUP1 SWAP3 SWAP2 SWAP1 DUP2 DUP2 MSTORE PUSH1 0x20 ADD PUSH1 0x0 SWAP1 JUMPDEST DUP3 DUP3 LT ISZERO PUSH2 0xC55 JUMPI DUP4 DUP3 SWAP1 PUSH1 0x0 MSTORE PUSH1 0x20 PUSH1 0x0 KECCAK256 ADD DUP1 SLOAD PUSH2 0xBC8 SWAP1 PUSH2 0x5C50 JUMP JUMPDEST DUP1 PUSH1 0x1F ADD PUSH1 0x20 DUP1 SWAP2 DIV MUL PUSH1 0x20 ADD PUSH1 0x40 MLOAD SWAP1 DUP2 ADD PUSH1 0x40 MSTORE DUP1 SWAP3 SWAP2 SWAP1 DUP2 DUP2 MSTORE PUSH1 0x20 ADD DUP3 DUP1 SLOAD PUSH2 0xBF4 SWAP1 PUSH2 0x5C50 JUMP JUMPDEST DUP1 ISZERO PUSH2 0xC41 JUMPI DUP1 PUSH1 0x1F LT PUSH2 0xC16 JUMPI PUSH2 0x100 DUP1 DUP4 SLOAD DIV MUL DUP4 MSTORE SWAP2 PUSH1 0x20 ADD SWAP2 PUSH2 0xC41 JUMP JUMPDEST DUP3 ADD SWAP2 SWAP1 PUSH1 0x0 MSTORE PUSH1 0x20 PUSH1 0x0 KECCAK256 SWAP1 JUMPDEST DUP2 SLOAD DUP2 MSTORE SWAP1 PUSH1 0x1 ADD SWAP1 PUSH1 0x20 ADD DUP1 DUP4 GT PUSH2 0xC24 JUMPI DUP3 SWAP1 SUB PUSH1 0x1F AND DUP3 ADD SWAP2 JUMPDEST POP POP POP POP POP DUP2 MSTORE PUSH1 0x20 ADD SWAP1 PUSH1 0x1 ADD SWAP1 PUSH2 0xBA9 JUMP JUMPDEST POP POP POP POP SWAP1 POP DUP4 PUSH1 0x1 DUP7 PUSH1 0x40 MLOAD PUSH2 0xC6C SWAP2 SWAP1 PUSH2 0x55F0 JUMP JUMPDEST SWAP1 DUP2 MSTORE PUSH1 0x20 ADD PUSH1 0x40 MLOAD DUP1 SWAP2 SUB SWAP1 KECCAK256 PUSH1 0x2 ADD SWAP1 DUP1 MLOAD SWAP1 PUSH1 0x20 ADD SWAP1 PUSH2 0xC90 SWAP3 SWAP2 SWAP1 PUSH2 0x47A1 JUMP JUMPDEST POP PUSH1 0x1 DUP6 PUSH1 0x40 MLOAD PUSH2 0xCA1 SWAP2 SWAP1 PUSH2 0x55F0 JUMP JUMPDEST SWAP1 DUP2 MSTORE PUSH1 0x20 ADD PUSH1 0x40 MLOAD DUP1 SWAP2 SUB SWAP1 KECCAK256 PUSH1 0x0 ADD PUSH1 0x40 MLOAD PUSH2 0xCBF SWAP2 SWAP1 PUSH2 0x5607 JUMP JUMPDEST PUSH1 0x40 MLOAD DUP1 SWAP2 SUB SWAP1 KECCAK256 PUSH32 0xFCD9136E5DEACDA60DD8AD3B5583EE6A6747A1817E9E06E1366E43D0F01E91F7 PUSH1 0x1 DUP8 PUSH1 0x40 MLOAD PUSH2 0xCF8 SWAP2 SWAP1 PUSH2 0x55F0 JUMP JUMPDEST SWAP1 DUP2 MSTORE PUSH1 0x20 ADD PUSH1 0x40 MLOAD DUP1 SWAP2 SUB SWAP1 KECCAK256 PUSH1 0x0 ADD DUP4 PUSH1 0x1 DUP10 PUSH1 0x40 MLOAD PUSH2 0xD1A SWAP2 SWAP1 PUSH2 0x55F0 JUMP JUMPDEST SWAP1 DUP2 MSTORE PUSH1 0x20 ADD PUSH1 0x40 MLOAD DUP1 SWAP2 SUB SWAP1 KECCAK256 PUSH1 0x2 ADD PUSH1 0x40 MLOAD PUSH2 0xD3A SWAP4 SWAP3 SWAP2 SWAP1 PUSH2 0x58D8 JUMP JUMPDEST PUSH1 0x40 MLOAD DUP1 SWAP2 SUB SWAP1 LOG2 PUSH1 0x1 DUP6 PUSH1 0x40 MLOAD PUSH2 0xD52 SWAP2 SWAP1 PUSH2 0x55F0 JUMP JUMPDEST SWAP1 DUP2 MSTORE PUSH1 0x20 ADD PUSH1 0x40 MLOAD DUP1 SWAP2 SUB SWAP1 KECCAK256 PUSH1 0x0 ADD DUP1 SLOAD PUSH2 0xD6E SWAP1 PUSH2 0x5C50 JUMP JUMPDEST DUP1 PUSH1 0x1F ADD PUSH1 0x20 DUP1 SWAP2 DIV MUL PUSH1 0x20 ADD PUSH1 0x40 MLOAD SWAP1 DUP2 ADD PUSH1 0x40 MSTORE DUP1 SWAP3 SWAP2 SWAP1 DUP2 DUP2 MSTORE PUSH1 0x20 ADD DUP3 DUP1 SLOAD PUSH2 0xD9A SWAP1 PUSH2 0x5C50 JUMP JUMPDEST DUP1 ISZERO PUSH2 0xDE7 JUMPI DUP1 PUSH1 0x1F LT PUSH2 0xDBC JUMPI PUSH2 0x100 DUP1 DUP4 SLOAD DIV MUL DUP4 MSTORE SWAP2 PUSH1 0x20 ADD SWAP2 PUSH2 0xDE7 JUMP JUMPDEST DUP3 ADD SWAP2 SWAP1 PUSH1 0x0 MSTORE PUSH1 0x20 PUSH1 0x0 KECCAK256 SWAP1 JUMPDEST DUP2 SLOAD DUP2 MSTORE SWAP1 PUSH1 0x1 ADD SWAP1 PUSH1 0x20 ADD DUP1 DUP4 GT PUSH2 0xDCA JUMPI DUP3 SWAP1 SUB PUSH1 0x1F AND DUP3 ADD SWAP2 JUMPDEST POP POP POP POP POP SWAP3 POP POP POP SWAP3 SWAP2 POP POP JUMP JUMPDEST PUSH1 0x60 PUSH1 0x3 DUP1 SLOAD DUP1 PUSH1 0x20 MUL PUSH1 0x20 ADD PUSH1 0x40 MLOAD SWAP1 DUP2 ADD PUSH1 0x40 MSTORE DUP1 SWAP3 SWAP2 SWAP1 DUP2 DUP2 MSTORE PUSH1 0x20 ADD PUSH1 0x0 SWAP1 JUMPDEST DUP3 DUP3 LT ISZERO PUSH2 0xEC6 JUMPI DUP4 DUP3 SWAP1 PUSH1 0x0 MSTORE PUSH1 0x20 PUSH1 0x0 KECCAK256 ADD DUP1 SLOAD PUSH2 0xE39 SWAP1 PUSH2 0x5C50 JUMP JUMPDEST DUP1 PUSH1 0x1F ADD PUSH1 0x20 DUP1 SWAP2 DIV MUL PUSH1 0x20 ADD PUSH1 0x40 MLOAD SWAP1 DUP2 ADD PUSH1 0x40 MSTORE DUP1 SWAP3 SWAP2 SWAP1 DUP2 DUP2 MSTORE PUSH1 0x20 ADD DUP3 DUP1 SLOAD PUSH2 0xE65 SWAP1 PUSH2 0x5C50 JUMP JUMPDEST DUP1 ISZERO PUSH2 0xEB2 JUMPI DUP1 PUSH1 0x1F LT PUSH2 0xE87 JUMPI PUSH2 0x100 DUP1 DUP4 SLOAD DIV MUL DUP4 MSTORE SWAP2 PUSH1 0x20 ADD SWAP2 PUSH2 0xEB2 JUMP JUMPDEST DUP3 ADD SWAP2 SWAP1 PUSH1 0x0 MSTORE PUSH1 0x20 PUSH1 0x0 KECCAK256 SWAP1 JUMPDEST DUP2 SLOAD DUP2 MSTORE SWAP1 PUSH1 0x1 ADD SWAP1 PUSH1 0x20 ADD DUP1 DUP4 GT PUSH2 0xE95 JUMPI DUP3 SWAP1 SUB PUSH1 0x1F AND DUP3 ADD SWAP2 JUMPDEST POP POP POP POP POP DUP2 MSTORE PUSH1 0x20 ADD SWAP1 PUSH1 0x1 ADD SWAP1 PUSH2 0xE1A JUMP JUMPDEST POP POP POP POP SWAP1 POP SWAP1 JUMP JUMPDEST PUSH1 0x5 PUSH1 0x1 SWAP1 SLOAD SWAP1 PUSH2 0x100 EXP SWAP1 DIV PUSH20 0xFFFFFFFFFFFFFFFFFFFFFFFFFFFFFFFFFFFFFFFF AND PUSH20 0xFFFFFFFFFFFFFFFFFFFFFFFFFFFFFFFFFFFFFFFF AND CALLER PUSH20 0xFFFFFFFFFFFFFFFFFFFFFFFFFFFFFFFFFFFFFFFF AND EQ PUSH2 0xF5F JUMPI PUSH1 0x40 MLOAD PUSH32 0x8C379A000000000000000000000000000000000000000000000000000000000 DUP2 MSTORE PUSH1 0x4 ADD PUSH2 0xF56 SWAP1 PUSH2 0x59A4 JUMP JUMPDEST PUSH1 0x40 MLOAD DUP1 SWAP2 SUB SWAP1 REVERT JUMPDEST PUSH1 0x0 DUP1 DUP4 PUSH1 0x40 MLOAD PUSH2 0xF70 SWAP2 SWAP1 PUSH2 0x55F0 JUMP JUMPDEST SWAP1 DUP2 MSTORE PUSH1 0x20 ADD PUSH1 0x40 MLOAD DUP1 SWAP2 SUB SWAP1 KECCAK256 PUSH1 0x6 ADD DUP1 SLOAD PUSH2 0xF8C SWAP1 PUSH2 0x5C50 JUMP JUMPDEST DUP1 PUSH1 0x1F ADD PUSH1 0x20 DUP1 SWAP2 DIV MUL PUSH1 0x20 ADD PUSH1 0x40 MLOAD SWAP1 DUP2 ADD PUSH1 0x40 MSTORE DUP1 SWAP3 SWAP2 SWAP1 DUP2 DUP2 MSTORE PUSH1 0x20 ADD DUP3 DUP1 SLOAD PUSH2 0xFB8 SWAP1 PUSH2 0x5C50 JUMP JUMPDEST DUP1 ISZERO PUSH2 0x1005 JUMPI DUP1 PUSH1 0x1F LT PUSH2 0xFDA JUMPI PUSH2 0x100 DUP1 DUP4 SLOAD DIV MUL DUP4 MSTORE SWAP2 PUSH1 0x20 ADD SWAP2 PUSH2 0x1005 JUMP JUMPDEST DUP3 ADD SWAP2 SWAP1 PUSH1 0x0 MSTORE PUSH1 0x20 PUSH1 0x0 KECCAK256 SWAP1 JUMPDEST DUP2 SLOAD DUP2 MSTORE SWAP1 PUSH1 0x1 ADD SWAP1 PUSH1 0x20 ADD DUP1 DUP4 GT PUSH2 0xFE8 JUMPI DUP3 SWAP1 SUB PUSH1 0x1F AND DUP3 ADD SWAP2 JUMPDEST POP POP POP POP POP SWAP1 POP DUP2 PUSH1 0x0 DUP5 PUSH1 0x40 MLOAD PUSH2 0x101D SWAP2 SWAP1 PUSH2 0x55F0 JUMP JUMPDEST SWAP1 DUP2 MSTORE PUSH1 0x20 ADD PUSH1 0x40 MLOAD DUP1 SWAP2 SUB SWAP1 KECCAK256 PUSH1 0x6 ADD SWAP1 DUP1 MLOAD SWAP1 PUSH1 0x20 ADD SWAP1 PUSH2 0x1041 SWAP3 SWAP2 SWAP1 PUSH2 0x4801 JUMP JUMPDEST POP DUP3 PUSH1 0x40 MLOAD PUSH2 0x1050 SWAP2 SWAP1 PUSH2 0x55F0 JUMP JUMPDEST PUSH1 0x40 MLOAD DUP1 SWAP2 SUB SWAP1 KECCAK256 PUSH31 0x95E409F8D4EA953D06C8D8E56DF3DA2AFCBDD6D2D332290FCD2932E81BF5CF DUP5 DUP4 DUP6 PUSH1 0x40 MLOAD PUSH2 0x108A SWAP4 SWAP3 SWAP2 SWAP1 PUSH2 0x588C JUMP JUMPDEST PUSH1 0x40 MLOAD DUP1 SWAP2 SUB SWAP1 LOG2 POP POP POP JUMP JUMPDEST PUSH1 0x60 PUSH1 0x5 PUSH1 0x1 SWAP1 SLOAD SWAP1 PUSH2 0x100 EXP SWAP1 DIV PUSH20 0xFFFFFFFFFFFFFFFFFFFFFFFFFFFFFFFFFFFFFFFF AND PUSH20 0xFFFFFFFFFFFFFFFFFFFFFFFFFFFFFFFFFFFFFFFF AND CALLER PUSH20 0xFFFFFFFFFFFFFFFFFFFFFFFFFFFFFFFFFFFFFFFF AND EQ PUSH2 0x1129 JUMPI PUSH1 0x40 MLOAD PUSH32 0x8C379A000000000000000000000000000000000000000000000000000000000 DUP2 MSTORE PUSH1 0x4 ADD PUSH2 0x1120 SWAP1 PUSH2 0x59A4 JUMP JUMPDEST PUSH1 0x40 MLOAD DUP1 SWAP2 SUB SWAP1 REVERT JUMPDEST PUSH1 0x0 DUP3 PUSH1 0x40 MLOAD PUSH2 0x1139 SWAP2 SWAP1 PUSH2 0x55F0 JUMP JUMPDEST SWAP1 DUP2 MSTORE PUSH1 0x20 ADD PUSH1 0x40 MLOAD DUP1 SWAP2 SUB SWAP1 KECCAK256 PUSH1 0x2 ADD DUP1 SLOAD DUP1 PUSH1 0x20 MUL PUSH1 0x20 ADD PUSH1 0x40 MLOAD SWAP1 DUP2 ADD PUSH1 0x40 MSTORE DUP1 SWAP3 SWAP2 SWAP1 DUP2 DUP2 MSTORE PUSH1 0x20 ADD PUSH1 0x0 SWAP1 JUMPDEST DUP3 DUP3 LT ISZERO PUSH2 0x1216 JUMPI DUP4 DUP3 SWAP1 PUSH1 0x0 MSTORE PUSH1 0x20 PUSH1 0x0 KECCAK256 ADD DUP1 SLOAD PUSH2 0x1189 SWAP1 PUSH2 0x5C50 JUMP JUMPDEST DUP1 PUSH1 0x1F ADD PUSH1 0x20 DUP1 SWAP2 DIV MUL PUSH1 0x20 ADD PUSH1 0x40 MLOAD SWAP1 DUP2 ADD PUSH1 0x40 MSTORE DUP1 SWAP3 SWAP2 SWAP1 DUP2 DUP2 MSTORE PUSH1 0x20 ADD DUP3 DUP1 SLOAD PUSH2 0x11B5 SWAP1 PUSH2 0x5C50 JUMP JUMPDEST DUP1 ISZERO PUSH2 0x1202 JUMPI DUP1 PUSH1 0x1F LT PUSH2 0x11D7 JUMPI PUSH2 0x100 DUP1 DUP4 SLOAD DIV MUL DUP4 MSTORE SWAP2 PUSH1 0x20 ADD SWAP2 PUSH2 0x1202 JUMP JUMPDEST DUP3 ADD SWAP2 SWAP1 PUSH1 0x0 MSTORE PUSH1 0x20 PUSH1 0x0 KECCAK256 SWAP1 JUMPDEST DUP2 SLOAD DUP2 MSTORE SWAP1 PUSH1 0x1 ADD SWAP1 PUSH1 0x20 ADD DUP1 DUP4 GT PUSH2 0x11E5 JUMPI DUP3 SWAP1 SUB PUSH1 0x1F AND DUP3 ADD SWAP2 JUMPDEST POP POP POP POP POP DUP2 MSTORE PUSH1 0x20 ADD SWAP1 PUSH1 0x1 ADD SWAP1 PUSH2 0x116A JUMP JUMPDEST POP POP POP POP SWAP1 POP SWAP2 SWAP1 POP JUMP JUMPDEST PUSH1 0x60 DUP1 PUSH1 0x60 DUP1 PUSH1 0x60 PUSH1 0x0 PUSH1 0x60 DUP1 PUSH1 0x0 DUP1 DUP11 PUSH1 0x40 MLOAD PUSH2 0x123F SWAP2 SWAP1 PUSH2 0x55F0 JUMP JUMPDEST SWAP1 DUP2 MSTORE PUSH1 0x20 ADD PUSH1 0x40 MLOAD DUP1 SWAP2 SUB SWAP1 KECCAK256 PUSH1 0x40 MLOAD DUP1 PUSH2 0x100 ADD PUSH1 0x40 MSTORE SWAP1 DUP2 PUSH1 0x0 DUP3 ADD DUP1 SLOAD PUSH2 0x1269 SWAP1 PUSH2 0x5C50 JUMP JUMPDEST DUP1 PUSH1 0x1F ADD PUSH1 0x20 DUP1 SWAP2 DIV MUL PUSH1 0x20 ADD PUSH1 0x40 MLOAD SWAP1 DUP2 ADD PUSH1 0x40 MSTORE DUP1 SWAP3 SWAP2 SWAP1 DUP2 DUP2 MSTORE PUSH1 0x20 ADD DUP3 DUP1 SLOAD PUSH2 0x1295 SWAP1 PUSH2 0x5C50 JUMP JUMPDEST DUP1 ISZERO PUSH2 0x12E2 JUMPI DUP1 PUSH1 0x1F LT PUSH2 0x12B7 JUMPI PUSH2 0x100 DUP1 DUP4 SLOAD DIV MUL DUP4 MSTORE SWAP2 PUSH1 0x20 ADD SWAP2 PUSH2 0x12E2 JUMP JUMPDEST DUP3 ADD SWAP2 SWAP1 PUSH1 0x0 MSTORE PUSH1 0x20 PUSH1 0x0 KECCAK256 SWAP1 JUMPDEST DUP2 SLOAD DUP2 MSTORE SWAP1 PUSH1 0x1 ADD SWAP1 PUSH1 0x20 ADD DUP1 DUP4 GT PUSH2 0x12C5 JUMPI DUP3 SWAP1 SUB PUSH1 0x1F AND DUP3 ADD SWAP2 JUMPDEST POP POP POP POP POP DUP2 MSTORE PUSH1 0x20 ADD PUSH1 0x1 DUP3 ADD DUP1 SLOAD PUSH2 0x12FB SWAP1 PUSH2 0x5C50 JUMP JUMPDEST DUP1 PUSH1 0x1F ADD PUSH1 0x20 DUP1 SWAP2 DIV MUL PUSH1 0x20 ADD PUSH1 0x40 MLOAD SWAP1 DUP2 ADD PUSH1 0x40 MSTORE DUP1 SWAP3 SWAP2 SWAP1 DUP2 DUP2 MSTORE PUSH1 0x20 ADD DUP3 DUP1 SLOAD PUSH2 0x1327 SWAP1 PUSH2 0x5C50 JUMP JUMPDEST DUP1 ISZERO PUSH2 0x1374 JUMPI DUP1 PUSH1 0x1F LT PUSH2 0x1349 JUMPI PUSH2 0x100 DUP1 DUP4 SLOAD DIV MUL DUP4 MSTORE SWAP2 PUSH1 0x20 ADD SWAP2 PUSH2 0x1374 JUMP JUMPDEST DUP3 ADD SWAP2 SWAP1 PUSH1 0x0 MSTORE PUSH1 0x20 PUSH1 0x0 KECCAK256 SWAP1 JUMPDEST DUP2 SLOAD DUP2 MSTORE SWAP1 PUSH1 0x1 ADD SWAP1 PUSH1 0x20 ADD DUP1 DUP4 GT PUSH2 0x1357 JUMPI DUP3 SWAP1 SUB PUSH1 0x1F AND DUP3 ADD SWAP2 JUMPDEST POP POP POP POP POP DUP2 MSTORE PUSH1 0x20 ADD PUSH1 0x2 DUP3 ADD DUP1 SLOAD DUP1 PUSH1 0x20 MUL PUSH1 0x20 ADD PUSH1 0x40 MLOAD SWAP1 DUP2 ADD PUSH1 0x40 MSTORE DUP1 SWAP3 SWAP2 SWAP1 DUP2 DUP2 MSTORE PUSH1 0x20 ADD PUSH1 0x0 SWAP1 JUMPDEST DUP3 DUP3 LT ISZERO PUSH2 0x144E JUMPI DUP4 DUP3 SWAP1 PUSH1 0x0 MSTORE PUSH1 0x20 PUSH1 0x0 KECCAK256 ADD DUP1 SLOAD PUSH2 0x13C1 SWAP1 PUSH2 0x5C50 JUMP JUMPDEST DUP1 PUSH1 0x1F ADD PUSH1 0x20 DUP1 SWAP2 DIV MUL PUSH1 0x20 ADD PUSH1 0x40 MLOAD SWAP1 DUP2 ADD PUSH1 0x40 MSTORE DUP1 SWAP3 SWAP2 SWAP1 DUP2 DUP2 MSTORE PUSH1 0x20 ADD DUP3 DUP1 SLOAD PUSH2 0x13ED SWAP1 PUSH2 0x5C50 JUMP JUMPDEST DUP1 ISZERO PUSH2 0x143A JUMPI DUP1 PUSH1 0x1F LT PUSH2 0x140F JUMPI PUSH2 0x100 DUP1 DUP4 SLOAD DIV MUL DUP4 MSTORE SWAP2 PUSH1 0x20 ADD SWAP2 PUSH2 0x143A JUMP JUMPDEST DUP3 ADD SWAP2 SWAP1 PUSH1 0x0 MSTORE PUSH1 0x20 PUSH1 0x0 KECCAK256 SWAP1 JUMPDEST DUP2 SLOAD DUP2 MSTORE SWAP1 PUSH1 0x1 ADD SWAP1 PUSH1 0x20 ADD DUP1 DUP4 GT PUSH2 0x141D JUMPI DUP3 SWAP1 SUB PUSH1 0x1F AND DUP3 ADD SWAP2 JUMPDEST POP POP POP POP POP DUP2 MSTORE PUSH1 0x20 ADD SWAP1 PUSH1 0x1 ADD SWAP1 PUSH2 0x13A2 JUMP JUMPDEST POP POP POP POP DUP2 MSTORE PUSH1 0x20 ADD PUSH1 0x3 DUP3 ADD DUP1 SLOAD PUSH2 0x1466 SWAP1 PUSH2 0x5C50 JUMP JUMPDEST DUP1 PUSH1 0x1F ADD PUSH1 0x20 DUP1 SWAP2 DIV MUL PUSH1 0x20 ADD PUSH1 0x40 MLOAD SWAP1 DUP2 ADD PUSH1 0x40 MSTORE DUP1 SWAP3 SWAP2 SWAP1 DUP2 DUP2 MSTORE PUSH1 0x20 ADD DUP3 DUP1 SLOAD PUSH2 0x1492 SWAP1 PUSH2 0x5C50 JUMP JUMPDEST DUP1 ISZERO PUSH2 0x14DF JUMPI DUP1 PUSH1 0x1F LT PUSH2 0x14B4 JUMPI PUSH2 0x100 DUP1 DUP4 SLOAD DIV MUL DUP4 MSTORE SWAP2 PUSH1 0x20 ADD SWAP2 PUSH2 0x14DF JUMP JUMPDEST DUP3 ADD SWAP2 SWAP1 PUSH1 0x0 MSTORE PUSH1 0x20 PUSH1 0x0 KECCAK256 SWAP1 JUMPDEST DUP2 SLOAD DUP2 MSTORE SWAP1 PUSH1 0x1 ADD SWAP1 PUSH1 0x20 ADD DUP1 DUP4 GT PUSH2 0x14C2 JUMPI DUP3 SWAP1 SUB PUSH1 0x1F AND DUP3 ADD SWAP2 JUMPDEST POP POP POP POP POP DUP2 MSTORE PUSH1 0x20 ADD PUSH1 0x4 DUP3 ADD DUP1 SLOAD PUSH2 0x14F8 SWAP1 PUSH2 0x5C50 JUMP JUMPDEST DUP1 PUSH1 0x1F ADD PUSH1 0x20 DUP1 SWAP2 DIV MUL PUSH1 0x20 ADD PUSH1 0x40 MLOAD SWAP1 DUP2 ADD PUSH1 0x40 MSTORE DUP1 SWAP3 SWAP2 SWAP1 DUP2 DUP2 MSTORE PUSH1 0x20 ADD DUP3 DUP1 SLOAD PUSH2 0x1524 SWAP1 PUSH2 0x5C50 JUMP JUMPDEST DUP1 ISZERO PUSH2 0x1571 JUMPI DUP1 PUSH1 0x1F LT PUSH2 0x1546 JUMPI PUSH2 0x100 DUP1 DUP4 SLOAD DIV MUL DUP4 MSTORE SWAP2 PUSH1 0x20 ADD SWAP2 PUSH2 0x1571 JUMP JUMPDEST DUP3 ADD SWAP2 SWAP1 PUSH1 0x0 MSTORE PUSH1 0x20 PUSH1 0x0 KECCAK256 SWAP1 JUMPDEST DUP2 SLOAD DUP2 MSTORE SWAP1 PUSH1 0x1 ADD SWAP1 PUSH1 0x20 ADD DUP1 DUP4 GT PUSH2 0x1554 JUMPI DUP3 SWAP1 SUB PUSH1 0x1F AND DUP3 ADD SWAP2 JUMPDEST POP POP POP POP POP DUP2 MSTORE PUSH1 0x20 ADD PUSH1 0x5 DUP3 ADD PUSH1 0x0 SWAP1 SLOAD SWAP1 PUSH2 0x100 EXP SWAP1 DIV PUSH1 0xFF AND ISZERO ISZERO ISZERO ISZERO DUP2 MSTORE PUSH1 0x20 ADD PUSH1 0x6 DUP3 ADD DUP1 SLOAD PUSH2 0x15A5 SWAP1 PUSH2 0x5C50 JUMP JUMPDEST DUP1 PUSH1 0x1F ADD PUSH1 0x20 DUP1 SWAP2 DIV MUL PUSH1 0x20 ADD PUSH1 0x40 MLOAD SWAP1 DUP2 ADD PUSH1 0x40 MSTORE DUP1 SWAP3 SWAP2 SWAP1 DUP2 DUP2 MSTORE PUSH1 0x20 ADD DUP3 DUP1 SLOAD PUSH2 0x15D1 SWAP1 PUSH2 0x5C50 JUMP JUMPDEST DUP1 ISZERO PUSH2 0x161E JUMPI DUP1 PUSH1 0x1F LT PUSH2 0x15F3 JUMPI PUSH2 0x100 DUP1 DUP4 SLOAD DIV MUL DUP4 MSTORE SWAP2 PUSH1 0x20 ADD SWAP2 PUSH2 0x161E JUMP JUMPDEST DUP3 ADD SWAP2 SWAP1 PUSH1 0x0 MSTORE PUSH1 0x20 PUSH1 0x0 KECCAK256 SWAP1 JUMPDEST DUP2 SLOAD DUP2 MSTORE SWAP1 PUSH1 0x1 ADD SWAP1 PUSH1 0x20 ADD DUP1 DUP4 GT PUSH2 0x1601 JUMPI DUP3 SWAP1 SUB PUSH1 0x1F AND DUP3 ADD SWAP2 JUMPDEST POP POP POP POP POP DUP2 MSTORE PUSH1 0x20 ADD PUSH1 0x7 DUP3 ADD DUP1 SLOAD PUSH2 0x1637 SWAP1 PUSH2 0x5C50 JUMP JUMPDEST DUP1 PUSH1 0x1F ADD PUSH1 0x20 DUP1 SWAP2 DIV MUL PUSH1 0x20 ADD PUSH1 0x40 MLOAD SWAP1 DUP2 ADD PUSH1 0x40 MSTORE DUP1 SWAP3 SWAP2 SWAP1 DUP2 DUP2 MSTORE PUSH1 0x20 ADD DUP3 DUP1 SLOAD PUSH2 0x1663 SWAP1 PUSH2 0x5C50 JUMP JUMPDEST DUP1 ISZERO PUSH2 0x16B0 JUMPI DUP1 PUSH1 0x1F LT PUSH2 0x1685 JUMPI PUSH2 0x100 DUP1 DUP4 SLOAD DIV MUL DUP4 MSTORE SWAP2 PUSH1 0x20 ADD SWAP2 PUSH2 0x16B0 JUMP JUMPDEST DUP3 ADD SWAP2 SWAP1 PUSH1 0x0 MSTORE PUSH1 0x20 PUSH1 0x0 KECCAK256 SWAP1 JUMPDEST DUP2 SLOAD DUP2 MSTORE SWAP1 PUSH1 0x1 ADD SWAP1 PUSH1 0x20 ADD DUP1 DUP4 GT PUSH2 0x1693 JUMPI DUP3 SWAP1 SUB PUSH1 0x1F AND DUP3 ADD SWAP2 JUMPDEST POP POP POP POP POP DUP2 MSTORE POP POP SWAP1 POP DUP1 PUSH1 0x0 ADD MLOAD DUP2 PUSH1 0x20 ADD MLOAD DUP3 PUSH1 0x40 ADD MLOAD DUP4 PUSH1 0x60 ADD MLOAD DUP5 PUSH1 0x80 ADD MLOAD DUP6 PUSH1 0xA0 ADD MLOAD DUP7 PUSH1 0xC0 ADD MLOAD DUP8 PUSH1 0xE0 ADD MLOAD SWAP9 POP SWAP9 POP SWAP9 POP SWAP9 POP SWAP9 POP SWAP9 POP SWAP9 POP SWAP9 POP POP SWAP2 SWAP4 SWAP6 SWAP8 POP SWAP2 SWAP4 SWAP6 SWAP8 JUMP JUMPDEST PUSH1 0x5 PUSH1 0x1 SWAP1 SLOAD SWAP1 PUSH2 0x100 EXP SWAP1 DIV PUSH20 0xFFFFFFFFFFFFFFFFFFFFFFFFFFFFFFFFFFFFFFFF AND PUSH20 0xFFFFFFFFFFFFFFFFFFFFFFFFFFFFFFFFFFFFFFFF AND CALLER PUSH20 0xFFFFFFFFFFFFFFFFFFFFFFFFFFFFFFFFFFFFFFFF AND EQ PUSH2 0x178F JUMPI PUSH1 0x40 MLOAD PUSH32 0x8C379A000000000000000000000000000000000000000000000000000000000 DUP2 MSTORE PUSH1 0x4 ADD PUSH2 0x1786 SWAP1 PUSH2 0x59A4 JUMP JUMPDEST PUSH1 0x40 MLOAD DUP1 SWAP2 SUB SWAP1 REVERT JUMPDEST PUSH1 0x0 DUP2 PUSH1 0x40 MLOAD PUSH2 0x179F SWAP2 SWAP1 PUSH2 0x55F0 JUMP JUMPDEST SWAP1 DUP2 MSTORE PUSH1 0x20 ADD PUSH1 0x40 MLOAD DUP1 SWAP2 SUB SWAP1 KECCAK256 PUSH1 0x5 ADD PUSH1 0x0 SWAP1 SLOAD SWAP1 PUSH2 0x100 EXP SWAP1 DIV PUSH1 0xFF AND ISZERO PUSH1 0x0 DUP3 PUSH1 0x40 MLOAD PUSH2 0x17CF SWAP2 SWAP1 PUSH2 0x55F0 JUMP JUMPDEST SWAP1 DUP2 MSTORE PUSH1 0x20 ADD PUSH1 0x40 MLOAD DUP1 SWAP2 SUB SWAP1 KECCAK256 PUSH1 0x5 ADD PUSH1 0x0 PUSH2 0x100 EXP DUP2 SLOAD DUP2 PUSH1 0xFF MUL NOT AND SWAP1 DUP4 ISZERO ISZERO MUL OR SWAP1 SSTORE POP DUP1 PUSH1 0x40 MLOAD PUSH2 0x1805 SWAP2 SWAP1 PUSH2 0x55F0 JUMP JUMPDEST PUSH1 0x40 MLOAD DUP1 SWAP2 SUB SWAP1 KECCAK256 PUSH32 0x6E035416864C42223C8C5C71745B27CA14F8C3D0F8A4F18F0C7ABB691C7CD4B1 DUP3 PUSH1 0x0 DUP5 PUSH1 0x40 MLOAD PUSH2 0x183F SWAP2 SWAP1 PUSH2 0x55F0 JUMP JUMPDEST SWAP1 DUP2 MSTORE PUSH1 0x20 ADD PUSH1 0x40 MLOAD DUP1 SWAP2 SUB SWAP1 KECCAK256 PUSH1 0x5 ADD PUSH1 0x0 SWAP1 SLOAD SWAP1 PUSH2 0x100 EXP SWAP1 DIV PUSH1 0xFF AND PUSH1 0x40 MLOAD PUSH2 0x186C SWAP3 SWAP2 SWAP1 PUSH2 0x5776 JUMP JUMPDEST PUSH1 0x40 MLOAD DUP1 SWAP2 SUB SWAP1 LOG2 POP JUMP JUMPDEST PUSH1 0x60 PUSH1 0x2 DUP1 SLOAD DUP1 PUSH1 0x20 MUL PUSH1 0x20 ADD PUSH1 0x40 MLOAD SWAP1 DUP2 ADD PUSH1 0x40 MSTORE DUP1 SWAP3 SWAP2 SWAP1 DUP2 DUP2 MSTORE PUSH1 0x20 ADD PUSH1 0x0 SWAP1 JUMPDEST DUP3 DUP3 LT ISZERO PUSH2 0x1947 JUMPI DUP4 DUP3 SWAP1 PUSH1 0x0 MSTORE PUSH1 0x20 PUSH1 0x0 KECCAK256 ADD DUP1 SLOAD PUSH2 0x18BA SWAP1 PUSH2 0x5C50 JUMP JUMPDEST DUP1 PUSH1 0x1F ADD PUSH1 0x20 DUP1 SWAP2 DIV MUL PUSH1 0x20 ADD PUSH1 0x40 MLOAD SWAP1 DUP2 ADD PUSH1 0x40 MSTORE DUP1 SWAP3 SWAP2 SWAP1 DUP2 DUP2 MSTORE PUSH1 0x20 ADD DUP3 DUP1 SLOAD PUSH2 0x18E6 SWAP1 PUSH2 0x5C50 JUMP JUMPDEST DUP1 ISZERO PUSH2 0x1933 JUMPI DUP1 PUSH1 0x1F LT PUSH2 0x1908 JUMPI PUSH2 0x100 DUP1 DUP4 SLOAD DIV MUL DUP4 MSTORE SWAP2 PUSH1 0x20 ADD SWAP2 PUSH2 0x1933 JUMP JUMPDEST DUP3 ADD SWAP2 SWAP1 PUSH1 0x0 MSTORE PUSH1 0x20 PUSH1 0x0 KECCAK256 SWAP1 JUMPDEST DUP2 SLOAD DUP2 MSTORE SWAP1 PUSH1 0x1 ADD SWAP1 PUSH1 0x20 ADD DUP1 DUP4 GT PUSH2 0x1916 JUMPI DUP3 SWAP1 SUB PUSH1 0x1F AND DUP3 ADD SWAP2 JUMPDEST POP POP POP POP POP DUP2 MSTORE PUSH1 0x20 ADD SWAP1 PUSH1 0x1 ADD SWAP1 PUSH2 0x189B JUMP JUMPDEST POP POP POP POP SWAP1 POP SWAP1 JUMP JUMPDEST PUSH1 0x5 PUSH1 0x1 SWAP1 SLOAD SWAP1 PUSH2 0x100 EXP SWAP1 DIV PUSH20 0xFFFFFFFFFFFFFFFFFFFFFFFFFFFFFFFFFFFFFFFF AND PUSH20 0xFFFFFFFFFFFFFFFFFFFFFFFFFFFFFFFFFFFFFFFF AND CALLER PUSH20 0xFFFFFFFFFFFFFFFFFFFFFFFFFFFFFFFFFFFFFFFF AND EQ PUSH2 0x19E0 JUMPI PUSH1 0x40 MLOAD PUSH32 0x8C379A000000000000000000000000000000000000000000000000000000000 DUP2 MSTORE PUSH1 0x4 ADD PUSH2 0x19D7 SWAP1 PUSH2 0x59A4 JUMP JUMPDEST PUSH1 0x40 MLOAD DUP1 SWAP2 SUB SWAP1 REVERT JUMPDEST PUSH1 0x0 PUSH1 0x1 DUP5 PUSH1 0x40 MLOAD PUSH2 0x19F2 SWAP2 SWAP1 PUSH2 0x55F0 JUMP JUMPDEST SWAP1 DUP2 MSTORE PUSH1 0x20 ADD PUSH1 0x40 MLOAD DUP1 SWAP2 SUB SWAP1 KECCAK256 PUSH1 0x0 ADD DUP1 SLOAD PUSH2 0x1A0E SWAP1 PUSH2 0x5C50 JUMP JUMPDEST SWAP1 POP GT PUSH2 0x1A50 JUMPI PUSH1 0x40 MLOAD PUSH32 0x8C379A000000000000000000000000000000000000000000000000000000000 DUP2 MSTORE PUSH1 0x4 ADD PUSH2 0x1A47 SWAP1 PUSH2 0x59E4 JUMP JUMPDEST PUSH1 0x40 MLOAD DUP1 SWAP2 SUB SWAP1 REVERT JUMPDEST PUSH1 0x0 PUSH1 0x40 MLOAD DUP1 PUSH1 0x80 ADD PUSH1 0x40 MSTORE DUP1 PUSH1 0x40 MLOAD DUP1 PUSH1 0x40 ADD PUSH1 0x40 MSTORE DUP1 PUSH1 0xE DUP2 MSTORE PUSH1 0x20 ADD PUSH32 0x41646D696E6973747261746F7273000000000000000000000000000000000000 DUP2 MSTORE POP DUP2 MSTORE PUSH1 0x20 ADD PUSH1 0x40 MLOAD DUP1 PUSH1 0x40 ADD PUSH1 0x40 MSTORE DUP1 PUSH1 0x5 DUP2 MSTORE PUSH1 0x20 ADD PUSH32 0x5573657273000000000000000000000000000000000000000000000000000000 DUP2 MSTORE POP DUP2 MSTORE PUSH1 0x20 ADD PUSH1 0x40 MLOAD DUP1 PUSH1 0x40 ADD PUSH1 0x40 MSTORE DUP1 PUSH1 0xE DUP2 MSTORE PUSH1 0x20 ADD PUSH32 0x47726F7570204D616E6167657273000000000000000000000000000000000000 DUP2 MSTORE POP DUP2 MSTORE PUSH1 0x20 ADD PUSH1 0x40 MLOAD DUP1 PUSH1 0x40 ADD PUSH1 0x40 MSTORE DUP1 PUSH1 0xD DUP2 MSTORE PUSH1 0x20 ADD PUSH32 0x55736572204D616E616765727300000000000000000000000000000000000000 DUP2 MSTORE POP DUP2 MSTORE POP SWAP1 POP PUSH1 0x0 JUMPDEST PUSH1 0x4 DUP2 LT ISZERO PUSH2 0x1C34 JUMPI DUP2 DUP2 PUSH1 0x4 DUP2 LT PUSH2 0x1B8E JUMPI PUSH32 0x4E487B7100000000000000000000000000000000000000000000000000000000 PUSH1 0x0 MSTORE PUSH1 0x32 PUSH1 0x4 MSTORE PUSH1 0x24 PUSH1 0x0 REVERT JUMPDEST PUSH1 0x20 MUL ADD MLOAD PUSH1 0x40 MLOAD PUSH1 0x20 ADD PUSH2 0x1BA3 SWAP2 SWAP1 PUSH2 0x55F0 JUMP JUMPDEST PUSH1 0x40 MLOAD PUSH1 0x20 DUP2 DUP4 SUB SUB DUP2 MSTORE SWAP1 PUSH1 0x40 MSTORE DUP1 MLOAD SWAP1 PUSH1 0x20 ADD KECCAK256 DUP6 PUSH1 0x40 MLOAD PUSH1 0x20 ADD PUSH2 0x1BCA SWAP2 SWAP1 PUSH2 0x55F0 JUMP JUMPDEST PUSH1 0x40 MLOAD PUSH1 0x20 DUP2 DUP4 SUB SUB DUP2 MSTORE SWAP1 PUSH1 0x40 MSTORE DUP1 MLOAD SWAP1 PUSH1 0x20 ADD KECCAK256 EQ ISZERO PUSH2 0x1C21 JUMPI PUSH1 0x40 MLOAD PUSH32 0x8C379A000000000000000000000000000000000000000000000000000000000 DUP2 MSTORE PUSH1 0x4 ADD PUSH2 0x1C18 SWAP1 PUSH2 0x59C4 JUMP JUMPDEST PUSH1 0x40 MLOAD DUP1 SWAP2 SUB SWAP1 REVERT JUMPDEST DUP1 DUP1 PUSH2 0x1C2C SWAP1 PUSH2 0x5C82 JUMP JUMPDEST SWAP2 POP POP PUSH2 0x1B4C JUMP JUMPDEST POP PUSH2 0x1C3F DUP5 DUP4 PUSH2 0x87F JUMP JUMPDEST POP DUP3 PUSH1 0x40 MLOAD PUSH1 0x20 ADD PUSH2 0x1C51 SWAP2 SWAP1 PUSH2 0x55F0 JUMP JUMPDEST PUSH1 0x40 MLOAD PUSH1 0x20 DUP2 DUP4 SUB SUB DUP2 MSTORE SWAP1 PUSH1 0x40 MSTORE DUP1 MLOAD SWAP1 PUSH1 0x20 ADD KECCAK256 DUP5 PUSH1 0x40 MLOAD PUSH1 0x20 ADD PUSH2 0x1C78 SWAP2 SWAP1 PUSH2 0x55F0 JUMP JUMPDEST PUSH1 0x40 MLOAD PUSH1 0x20 DUP2 DUP4 SUB SUB DUP2 MSTORE SWAP1 PUSH1 0x40 MSTORE DUP1 MLOAD SWAP1 PUSH1 0x20 ADD KECCAK256 EQ PUSH2 0x1F40 JUMPI PUSH1 0x1 DUP5 PUSH1 0x40 MLOAD PUSH2 0x1CA3 SWAP2 SWAP1 PUSH2 0x55F0 JUMP JUMPDEST SWAP1 DUP2 MSTORE PUSH1 0x20 ADD PUSH1 0x40 MLOAD DUP1 SWAP2 SUB SWAP1 KECCAK256 PUSH1 0x1 DUP5 PUSH1 0x40 MLOAD PUSH2 0x1CC1 SWAP2 SWAP1 PUSH2 0x55F0 JUMP JUMPDEST SWAP1 DUP2 MSTORE PUSH1 0x20 ADD PUSH1 0x40 MLOAD DUP1 SWAP2 SUB SWAP1 KECCAK256 PUSH1 0x0 DUP3 ADD DUP2 PUSH1 0x0 ADD SWAP1 DUP1 SLOAD PUSH2 0x1CE3 SWAP1 PUSH2 0x5C50 JUMP JUMPDEST PUSH2 0x1CEE SWAP3 SWAP2 SWAP1 PUSH2 0x4887 JUMP JUMPDEST POP PUSH1 0x1 DUP3 ADD DUP2 PUSH1 0x1 ADD SWAP1 DUP1 SLOAD PUSH2 0x1D05 SWAP3 SWAP2 SWAP1 PUSH2 0x4914 JUMP JUMPDEST POP PUSH1 0x2 DUP3 ADD DUP2 PUSH1 0x2 ADD SWAP1 DUP1 SLOAD PUSH2 0x1D1C SWAP3 SWAP2 SWAP1 PUSH2 0x4914 JUMP JUMPDEST POP PUSH1 0x3 DUP3 ADD DUP2 PUSH1 0x3 ADD SWAP1 DUP1 SLOAD PUSH2 0x1D31 SWAP1 PUSH2 0x5C50 JUMP JUMPDEST PUSH2 0x1D3C SWAP3 SWAP2 SWAP1 PUSH2 0x4887 JUMP JUMPDEST POP SWAP1 POP POP DUP3 PUSH1 0x1 DUP5 PUSH1 0x40 MLOAD PUSH2 0x1D51 SWAP2 SWAP1 PUSH2 0x55F0 JUMP JUMPDEST SWAP1 DUP2 MSTORE PUSH1 0x20 ADD PUSH1 0x40 MLOAD DUP1 SWAP2 SUB SWAP1 KECCAK256 PUSH1 0x0 ADD SWAP1 DUP1 MLOAD SWAP1 PUSH1 0x20 ADD SWAP1 PUSH2 0x1D75 SWAP3 SWAP2 SWAP1 PUSH2 0x4801 JUMP JUMPDEST POP PUSH1 0x1 DUP5 PUSH1 0x40 MLOAD PUSH2 0x1D86 SWAP2 SWAP1 PUSH2 0x55F0 JUMP JUMPDEST SWAP1 DUP2 MSTORE PUSH1 0x20 ADD PUSH1 0x40 MLOAD DUP1 SWAP2 SUB SWAP1 KECCAK256 PUSH1 0x0 DUP1 DUP3 ADD PUSH1 0x0 PUSH2 0x1DA5 SWAP2 SWAP1 PUSH2 0x497C JUMP JUMPDEST PUSH1 0x1 DUP3 ADD PUSH1 0x0 PUSH2 0x1DB5 SWAP2 SWAP1 PUSH2 0x49BC JUMP JUMPDEST PUSH1 0x2 DUP3 ADD PUSH1 0x0 PUSH2 0x1DC5 SWAP2 SWAP1 PUSH2 0x49BC JUMP JUMPDEST PUSH1 0x3 DUP3 ADD PUSH1 0x0 PUSH2 0x1DD5 SWAP2 SWAP1 PUSH2 0x497C JUMP JUMPDEST POP POP PUSH1 0x0 JUMPDEST PUSH1 0x3 DUP1 SLOAD SWAP1 POP DUP2 LT ISZERO PUSH2 0x1EEF JUMPI DUP5 PUSH1 0x40 MLOAD PUSH1 0x20 ADD PUSH2 0x1DF8 SWAP2 SWAP1 PUSH2 0x55F0 JUMP JUMPDEST PUSH1 0x40 MLOAD PUSH1 0x20 DUP2 DUP4 SUB SUB DUP2 MSTORE SWAP1 PUSH1 0x40 MSTORE DUP1 MLOAD SWAP1 PUSH1 0x20 ADD KECCAK256 PUSH1 0x3 DUP3 DUP2 SLOAD DUP2 LT PUSH2 0x1E48 JUMPI PUSH32 0x4E487B7100000000000000000000000000000000000000000000000000000000 PUSH1 0x0 MSTORE PUSH1 0x32 PUSH1 0x4 MSTORE PUSH1 0x24 PUSH1 0x0 REVERT JUMPDEST SWAP1 PUSH1 0x0 MSTORE PUSH1 0x20 PUSH1 0x0 KECCAK256 ADD PUSH1 0x40 MLOAD PUSH1 0x20 ADD PUSH2 0x1E62 SWAP2 SWAP1 PUSH2 0x5607 JUMP JUMPDEST PUSH1 0x40 MLOAD PUSH1 0x20 DUP2 DUP4 SUB SUB DUP2 MSTORE SWAP1 PUSH1 0x40 MSTORE DUP1 MLOAD SWAP1 PUSH1 0x20 ADD KECCAK256 EQ ISZERO PUSH2 0x1EDC JUMPI DUP4 PUSH1 0x3 DUP3 DUP2 SLOAD DUP2 LT PUSH2 0x1EB9 JUMPI PUSH32 0x4E487B7100000000000000000000000000000000000000000000000000000000 PUSH1 0x0 MSTORE PUSH1 0x32 PUSH1 0x4 MSTORE PUSH1 0x24 PUSH1 0x0 REVERT JUMPDEST SWAP1 PUSH1 0x0 MSTORE PUSH1 0x20 PUSH1 0x0 KECCAK256 ADD SWAP1 DUP1 MLOAD SWAP1 PUSH1 0x20 ADD SWAP1 PUSH2 0x1ED6 SWAP3 SWAP2 SWAP1 PUSH2 0x4801 JUMP JUMPDEST POP PUSH2 0x1EEF JUMP JUMPDEST DUP1 DUP1 PUSH2 0x1EE7 SWAP1 PUSH2 0x5C82 JUMP JUMPDEST SWAP2 POP POP PUSH2 0x1DDA JUMP JUMPDEST POP DUP4 PUSH1 0x40 MLOAD PUSH2 0x1EFE SWAP2 SWAP1 PUSH2 0x55F0 JUMP JUMPDEST PUSH1 0x40 MLOAD DUP1 SWAP2 SUB SWAP1 KECCAK256 PUSH32 0xF50CE9FAB9945002300A415697EA6ED2FFA0ABE2E97704DBE379F96BBC1F4ABA DUP6 DUP6 PUSH1 0x40 MLOAD PUSH2 0x1F37 SWAP3 SWAP2 SWAP1 PUSH2 0x57A6 JUMP JUMPDEST PUSH1 0x40 MLOAD DUP1 SWAP2 SUB SWAP1 LOG2 JUMPDEST POP POP POP POP JUMP JUMPDEST PUSH1 0x5 PUSH1 0x1 SWAP1 SLOAD SWAP1 PUSH2 0x100 EXP SWAP1 DIV PUSH20 0xFFFFFFFFFFFFFFFFFFFFFFFFFFFFFFFFFFFFFFFF AND PUSH20 0xFFFFFFFFFFFFFFFFFFFFFFFFFFFFFFFFFFFFFFFF AND CALLER PUSH20 0xFFFFFFFFFFFFFFFFFFFFFFFFFFFFFFFFFFFFFFFF AND EQ PUSH2 0x1FD6 JUMPI PUSH1 0x40 MLOAD PUSH32 0x8C379A000000000000000000000000000000000000000000000000000000000 DUP2 MSTORE PUSH1 0x4 ADD PUSH2 0x1FCD SWAP1 PUSH2 0x59A4 JUMP JUMPDEST PUSH1 0x40 MLOAD DUP1 SWAP2 SUB SWAP1 REVERT JUMPDEST PUSH1 0x0 DUP1 DUP3 PUSH1 0x40 MLOAD PUSH2 0x1FE7 SWAP2 SWAP1 PUSH2 0x55F0 JUMP JUMPDEST SWAP1 DUP2 MSTORE PUSH1 0x20 ADD PUSH1 0x40 MLOAD DUP1 SWAP2 SUB SWAP1 KECCAK256 PUSH1 0x0 ADD DUP1 SLOAD PUSH2 0x2003 SWAP1 PUSH2 0x5C50 JUMP JUMPDEST SWAP1 POP GT PUSH2 0x2045 JUMPI PUSH1 0x40 MLOAD PUSH32 0x8C379A000000000000000000000000000000000000000000000000000000000 DUP2 MSTORE PUSH1 0x4 ADD PUSH2 0x203C SWAP1 PUSH2 0x5A24 JUMP JUMPDEST PUSH1 0x40 MLOAD DUP1 SWAP2 SUB SWAP1 REVERT JUMPDEST PUSH1 0x4 PUSH1 0x40 MLOAD PUSH1 0x20 ADD PUSH2 0x2057 SWAP2 SWAP1 PUSH2 0x5607 JUMP JUMPDEST PUSH1 0x40 MLOAD PUSH1 0x20 DUP2 DUP4 SUB SUB DUP2 MSTORE SWAP1 PUSH1 0x40 MSTORE DUP1 MLOAD SWAP1 PUSH1 0x20 ADD KECCAK256 DUP2 PUSH1 0x40 MLOAD PUSH1 0x20 ADD PUSH2 0x207E SWAP2 SWAP1 PUSH2 0x55F0 JUMP JUMPDEST PUSH1 0x40 MLOAD PUSH1 0x20 DUP2 DUP4 SUB SUB DUP2 MSTORE SWAP1 PUSH1 0x40 MSTORE DUP1 MLOAD SWAP1 PUSH1 0x20 ADD KECCAK256 EQ ISZERO PUSH2 0x20D5 JUMPI PUSH1 0x40 MLOAD PUSH32 0x8C379A000000000000000000000000000000000000000000000000000000000 DUP2 MSTORE PUSH1 0x4 ADD PUSH2 0x20CC SWAP1 PUSH2 0x5984 JUMP JUMPDEST PUSH1 0x40 MLOAD DUP1 SWAP2 SUB SWAP1 REVERT JUMPDEST PUSH1 0x1 PUSH1 0x5 PUSH1 0x0 PUSH2 0x100 EXP DUP2 SLOAD DUP2 PUSH1 0xFF MUL NOT AND SWAP1 DUP4 ISZERO ISZERO MUL OR SWAP1 SSTORE POP PUSH2 0x212F PUSH1 0x40 MLOAD DUP1 PUSH1 0x40 ADD PUSH1 0x40 MSTORE DUP1 PUSH1 0x5 DUP2 MSTORE PUSH1 0x20 ADD PUSH32 0x5573657273000000000000000000000000000000000000000000000000000000 DUP2 MSTORE POP DUP3 PUSH2 0x2AEC JUMP JUMPDEST PUSH1 0x0 PUSH1 0x5 PUSH1 0x0 PUSH2 0x100 EXP DUP2 SLOAD DUP2 PUSH1 0xFF MUL NOT AND SWAP1 DUP4 ISZERO ISZERO MUL OR SWAP1 SSTORE POP PUSH1 0x0 DUP1 JUMPDEST PUSH1 0x2 DUP1 SLOAD SWAP1 POP DUP2 LT ISZERO PUSH2 0x2315 JUMPI DUP3 PUSH1 0x40 MLOAD PUSH1 0x20 ADD PUSH2 0x216C SWAP2 SWAP1 PUSH2 0x55F0 JUMP JUMPDEST PUSH1 0x40 MLOAD PUSH1 0x20 DUP2 DUP4 SUB SUB DUP2 MSTORE SWAP1 PUSH1 0x40 MSTORE DUP1 MLOAD SWAP1 PUSH1 0x20 ADD KECCAK256 PUSH1 0x2 DUP3 DUP2 SLOAD DUP2 LT PUSH2 0x21BC JUMPI PUSH32 0x4E487B7100000000000000000000000000000000000000000000000000000000 PUSH1 0x0 MSTORE PUSH1 0x32 PUSH1 0x4 MSTORE PUSH1 0x24 PUSH1 0x0 REVERT JUMPDEST SWAP1 PUSH1 0x0 MSTORE PUSH1 0x20 PUSH1 0x0 KECCAK256 ADD PUSH1 0x40 MLOAD PUSH1 0x20 ADD PUSH2 0x21D6 SWAP2 SWAP1 PUSH2 0x5607 JUMP JUMPDEST PUSH1 0x40 MLOAD PUSH1 0x20 DUP2 DUP4 SUB SUB DUP2 MSTORE SWAP1 PUSH1 0x40 MSTORE DUP1 MLOAD SWAP1 PUSH1 0x20 ADD KECCAK256 EQ ISZERO PUSH2 0x2302 JUMPI PUSH1 0x1 SWAP2 POP PUSH1 0x2 PUSH1 0x1 PUSH1 0x2 DUP1 SLOAD SWAP1 POP PUSH2 0x220A SWAP2 SWAP1 PUSH2 0x5BC4 JUMP JUMPDEST DUP2 SLOAD DUP2 LT PUSH2 0x2241 JUMPI PUSH32 0x4E487B7100000000000000000000000000000000000000000000000000000000 PUSH1 0x0 MSTORE PUSH1 0x32 PUSH1 0x4 MSTORE PUSH1 0x24 PUSH1 0x0 REVERT JUMPDEST SWAP1 PUSH1 0x0 MSTORE PUSH1 0x20 PUSH1 0x0 KECCAK256 ADD PUSH1 0x2 DUP3 DUP2 SLOAD DUP2 LT PUSH2 0x2285 JUMPI PUSH32 0x4E487B7100000000000000000000000000000000000000000000000000000000 PUSH1 0x0 MSTORE PUSH1 0x32 PUSH1 0x4 MSTORE PUSH1 0x24 PUSH1 0x0 REVERT JUMPDEST SWAP1 PUSH1 0x0 MSTORE PUSH1 0x20 PUSH1 0x0 KECCAK256 ADD SWAP1 DUP1 SLOAD PUSH2 0x229B SWAP1 PUSH2 0x5C50 JUMP JUMPDEST PUSH2 0x22A6 SWAP3 SWAP2 SWAP1 PUSH2 0x49DD JUMP JUMPDEST POP PUSH1 0x2 DUP1 SLOAD DUP1 PUSH2 0x22DF JUMPI PUSH32 0x4E487B7100000000000000000000000000000000000000000000000000000000 PUSH1 0x0 MSTORE PUSH1 0x31 PUSH1 0x4 MSTORE PUSH1 0x24 PUSH1 0x0 REVERT JUMPDEST PUSH1 0x1 SWAP1 SUB DUP2 DUP2 SWAP1 PUSH1 0x0 MSTORE PUSH1 0x20 PUSH1 0x0 KECCAK256 ADD PUSH1 0x0 PUSH2 0x22FB SWAP2 SWAP1 PUSH2 0x497C JUMP JUMPDEST SWAP1 SSTORE PUSH2 0x2315 JUMP JUMPDEST DUP1 DUP1 PUSH2 0x230D SWAP1 PUSH2 0x5C82 JUMP JUMPDEST SWAP2 POP POP PUSH2 0x214E JUMP JUMPDEST POP PUSH1 0x0 DUP3 PUSH1 0x40 MLOAD PUSH2 0x2326 SWAP2 SWAP1 PUSH2 0x55F0 JUMP JUMPDEST SWAP1 DUP2 MSTORE PUSH1 0x20 ADD PUSH1 0x40 MLOAD DUP1 SWAP2 SUB SWAP1 KECCAK256 PUSH1 0x0 DUP1 DUP3 ADD PUSH1 0x0 PUSH2 0x2345 SWAP2 SWAP1 PUSH2 0x497C JUMP JUMPDEST PUSH1 0x1 DUP3 ADD PUSH1 0x0 PUSH2 0x2355 SWAP2 SWAP1 PUSH2 0x497C JUMP JUMPDEST PUSH1 0x2 DUP3 ADD PUSH1 0x0 PUSH2 0x2365 SWAP2 SWAP1 PUSH2 0x49BC JUMP JUMPDEST PUSH1 0x3 DUP3 ADD PUSH1 0x0 PUSH2 0x2375 SWAP2 SWAP1 PUSH2 0x497C JUMP JUMPDEST PUSH1 0x4 DUP3 ADD PUSH1 0x0 PUSH2 0x2385 SWAP2 SWAP1 PUSH2 0x497C JUMP JUMPDEST PUSH1 0x5 DUP3 ADD PUSH1 0x0 PUSH2 0x100 EXP DUP2 SLOAD SWAP1 PUSH1 0xFF MUL NOT AND SWAP1 SSTORE PUSH1 0x6 DUP3 ADD PUSH1 0x0 PUSH2 0x23A9 SWAP2 SWAP1 PUSH2 0x497C JUMP JUMPDEST PUSH1 0x7 DUP3 ADD PUSH1 0x0 PUSH2 0x23B9 SWAP2 SWAP1 PUSH2 0x497C JUMP JUMPDEST POP POP DUP2 PUSH1 0x40 MLOAD PUSH2 0x23C9 SWAP2 SWAP1 PUSH2 0x55F0 JUMP JUMPDEST PUSH1 0x40 MLOAD DUP1 SWAP2 SUB SWAP1 KECCAK256 PUSH32 0x3F27F4D0D2DA9AAA7A63839890B75093BF8524B6AC7D8AA21AA9F4576005D7C2 DUP4 PUSH1 0x40 MLOAD PUSH2 0x2400 SWAP2 SWAP1 PUSH2 0x5670 JUMP JUMPDEST PUSH1 0x40 MLOAD DUP1 SWAP2 SUB SWAP1 LOG2 POP POP JUMP JUMPDEST PUSH1 0x5 PUSH1 0x1 SWAP1 SLOAD SWAP1 PUSH2 0x100 EXP SWAP1 DIV PUSH20 0xFFFFFFFFFFFFFFFFFFFFFFFFFFFFFFFFFFFFFFFF AND PUSH20 0xFFFFFFFFFFFFFFFFFFFFFFFFFFFFFFFFFFFFFFFF AND CALLER PUSH20 0xFFFFFFFFFFFFFFFFFFFFFFFFFFFFFFFFFFFFFFFF AND EQ PUSH2 0x249C JUMPI PUSH1 0x40 MLOAD PUSH32 0x8C379A000000000000000000000000000000000000000000000000000000000 DUP2 MSTORE PUSH1 0x4 ADD PUSH2 0x2493 SWAP1 PUSH2 0x59A4 JUMP JUMPDEST PUSH1 0x40 MLOAD DUP1 SWAP2 SUB SWAP1 REVERT JUMPDEST PUSH1 0x0 PUSH1 0x1 DUP3 PUSH1 0x40 MLOAD PUSH2 0x24AE SWAP2 SWAP1 PUSH2 0x55F0 JUMP JUMPDEST SWAP1 DUP2 MSTORE PUSH1 0x20 ADD PUSH1 0x40 MLOAD DUP1 SWAP2 SUB SWAP1 KECCAK256 PUSH1 0x0 ADD DUP1 SLOAD PUSH2 0x24CA SWAP1 PUSH2 0x5C50 JUMP JUMPDEST SWAP1 POP GT PUSH2 0x250C JUMPI PUSH1 0x40 MLOAD PUSH32 0x8C379A000000000000000000000000000000000000000000000000000000000 DUP2 MSTORE PUSH1 0x4 ADD PUSH2 0x2503 SWAP1 PUSH2 0x59E4 JUMP JUMPDEST PUSH1 0x40 MLOAD DUP1 SWAP2 SUB SWAP1 REVERT JUMPDEST PUSH1 0x0 PUSH1 0x40 MLOAD DUP1 PUSH1 0x80 ADD PUSH1 0x40 MSTORE DUP1 PUSH1 0x40 MLOAD DUP1 PUSH1 0x40 ADD PUSH1 0x40 MSTORE DUP1 PUSH1 0xE DUP2 MSTORE PUSH1 0x20 ADD PUSH32 0x41646D696E6973747261746F7273000000000000000000000000000000000000 DUP2 MSTORE POP DUP2 MSTORE PUSH1 0x20 ADD PUSH1 0x40 MLOAD DUP1 PUSH1 0x40 ADD PUSH1 0x40 MSTORE DUP1 PUSH1 0x5 DUP2 MSTORE PUSH1 0x20 ADD PUSH32 0x5573657273000000000000000000000000000000000000000000000000000000 DUP2 MSTORE POP DUP2 MSTORE PUSH1 0x20 ADD PUSH1 0x40 MLOAD DUP1 PUSH1 0x40 ADD PUSH1 0x40 MSTORE DUP1 PUSH1 0xE DUP2 MSTORE PUSH1 0x20 ADD PUSH32 0x47726F7570204D616E6167657273000000000000000000000000000000000000 DUP2 MSTORE POP DUP2 MSTORE PUSH1 0x20 ADD PUSH1 0x40 MLOAD DUP1 PUSH1 0x40 ADD PUSH1 0x40 MSTORE DUP1 PUSH1 0xD DUP2 MSTORE PUSH1 0x20 ADD PUSH32 0x55736572204D616E616765727300000000000000000000000000000000000000 DUP2 MSTORE POP DUP2 MSTORE POP SWAP1 POP PUSH1 0x0 JUMPDEST PUSH1 0x4 DUP2 LT ISZERO PUSH2 0x26F0 JUMPI DUP2 DUP2 PUSH1 0x4 DUP2 LT PUSH2 0x264A JUMPI PUSH32 0x4E487B7100000000000000000000000000000000000000000000000000000000 PUSH1 0x0 MSTORE PUSH1 0x32 PUSH1 0x4 MSTORE PUSH1 0x24 PUSH1 0x0 REVERT JUMPDEST PUSH1 0x20 MUL ADD MLOAD PUSH1 0x40 MLOAD PUSH1 0x20 ADD PUSH2 0x265F SWAP2 SWAP1 PUSH2 0x55F0 JUMP JUMPDEST PUSH1 0x40 MLOAD PUSH1 0x20 DUP2 DUP4 SUB SUB DUP2 MSTORE SWAP1 PUSH1 0x40 MSTORE DUP1 MLOAD SWAP1 PUSH1 0x20 ADD KECCAK256 DUP4 PUSH1 0x40 MLOAD PUSH1 0x20 ADD PUSH2 0x2686 SWAP2 SWAP1 PUSH2 0x55F0 JUMP JUMPDEST PUSH1 0x40 MLOAD PUSH1 0x20 DUP2 DUP4 SUB SUB DUP2 MSTORE SWAP1 PUSH1 0x40 MSTORE DUP1 MLOAD SWAP1 PUSH1 0x20 ADD KECCAK256 EQ ISZERO PUSH2 0x26DD JUMPI PUSH1 0x40 MLOAD PUSH32 0x8C379A000000000000000000000000000000000000000000000000000000000 DUP2 MSTORE PUSH1 0x4 ADD PUSH2 0x26D4 SWAP1 PUSH2 0x5A04 JUMP JUMPDEST PUSH1 0x40 MLOAD DUP1 SWAP2 SUB SWAP1 REVERT JUMPDEST DUP1 DUP1 PUSH2 0x26E8 SWAP1 PUSH2 0x5C82 JUMP JUMPDEST SWAP2 POP POP PUSH2 0x2608 JUMP JUMPDEST POP PUSH1 0x0 DUP1 JUMPDEST PUSH1 0x3 DUP1 SLOAD SWAP1 POP DUP2 LT ISZERO PUSH2 0x29F8 JUMPI DUP4 PUSH1 0x40 MLOAD PUSH1 0x20 ADD PUSH2 0x2713 SWAP2 SWAP1 PUSH2 0x55F0 JUMP JUMPDEST PUSH1 0x40 MLOAD PUSH1 0x20 DUP2 DUP4 SUB SUB DUP2 MSTORE SWAP1 PUSH1 0x40 MSTORE DUP1 MLOAD SWAP1 PUSH1 0x20 ADD KECCAK256 PUSH1 0x3 DUP3 DUP2 SLOAD DUP2 LT PUSH2 0x2763 JUMPI PUSH32 0x4E487B7100000000000000000000000000000000000000000000000000000000 PUSH1 0x0 MSTORE PUSH1 0x32 PUSH1 0x4 MSTORE PUSH1 0x24 PUSH1 0x0 REVERT JUMPDEST SWAP1 PUSH1 0x0 MSTORE PUSH1 0x20 PUSH1 0x0 KECCAK256 ADD PUSH1 0x40 MLOAD PUSH1 0x20 ADD PUSH2 0x277D SWAP2 SWAP1 PUSH2 0x5607 JUMP JUMPDEST PUSH1 0x40 MLOAD PUSH1 0x20 DUP2 DUP4 SUB SUB DUP2 MSTORE SWAP1 PUSH1 0x40 MSTORE DUP1 MLOAD SWAP1 PUSH1 0x20 ADD KECCAK256 EQ ISZERO PUSH2 0x29E5 JUMPI PUSH1 0x1 SWAP2 POP PUSH1 0x0 PUSH1 0x3 DUP3 DUP2 SLOAD DUP2 LT PUSH2 0x27D9 JUMPI PUSH32 0x4E487B7100000000000000000000000000000000000000000000000000000000 PUSH1 0x0 MSTORE PUSH1 0x32 PUSH1 0x4 MSTORE PUSH1 0x24 PUSH1 0x0 REVERT JUMPDEST SWAP1 PUSH1 0x0 MSTORE PUSH1 0x20 PUSH1 0x0 KECCAK256 ADD DUP1 SLOAD PUSH2 0x27EE SWAP1 PUSH2 0x5C50 JUMP JUMPDEST DUP1 PUSH1 0x1F ADD PUSH1 0x20 DUP1 SWAP2 DIV MUL PUSH1 0x20 ADD PUSH1 0x40 MLOAD SWAP1 DUP2 ADD PUSH1 0x40 MSTORE DUP1 SWAP3 SWAP2 SWAP1 DUP2 DUP2 MSTORE PUSH1 0x20 ADD DUP3 DUP1 SLOAD PUSH2 0x281A SWAP1 PUSH2 0x5C50 JUMP JUMPDEST DUP1 ISZERO PUSH2 0x2867 JUMPI DUP1 PUSH1 0x1F LT PUSH2 0x283C JUMPI PUSH2 0x100 DUP1 DUP4 SLOAD DIV MUL DUP4 MSTORE SWAP2 PUSH1 0x20 ADD SWAP2 PUSH2 0x2867 JUMP JUMPDEST DUP3 ADD SWAP2 SWAP1 PUSH1 0x0 MSTORE PUSH1 0x20 PUSH1 0x0 KECCAK256 SWAP1 JUMPDEST DUP2 SLOAD DUP2 MSTORE SWAP1 PUSH1 0x1 ADD SWAP1 PUSH1 0x20 ADD DUP1 DUP4 GT PUSH2 0x284A JUMPI DUP3 SWAP1 SUB PUSH1 0x1F AND DUP3 ADD SWAP2 JUMPDEST POP POP POP POP POP SWAP1 POP PUSH1 0x3 PUSH1 0x1 PUSH1 0x3 DUP1 SLOAD SWAP1 POP PUSH2 0x2882 SWAP2 SWAP1 PUSH2 0x5BC4 JUMP JUMPDEST DUP2 SLOAD DUP2 LT PUSH2 0x28B9 JUMPI PUSH32 0x4E487B7100000000000000000000000000000000000000000000000000000000 PUSH1 0x0 MSTORE PUSH1 0x32 PUSH1 0x4 MSTORE PUSH1 0x24 PUSH1 0x0 REVERT JUMPDEST SWAP1 PUSH1 0x0 MSTORE PUSH1 0x20 PUSH1 0x0 KECCAK256 ADD PUSH1 0x3 DUP4 DUP2 SLOAD DUP2 LT PUSH2 0x28FD JUMPI PUSH32 0x4E487B7100000000000000000000000000000000000000000000000000000000 PUSH1 0x0 MSTORE PUSH1 0x32 PUSH1 0x4 MSTORE PUSH1 0x24 PUSH1 0x0 REVERT JUMPDEST SWAP1 PUSH1 0x0 MSTORE PUSH1 0x20 PUSH1 0x0 KECCAK256 ADD SWAP1 DUP1 SLOAD PUSH2 0x2913 SWAP1 PUSH2 0x5C50 JUMP JUMPDEST PUSH2 0x291E SWAP3 SWAP2 SWAP1 PUSH2 0x49DD JUMP JUMPDEST POP DUP1 PUSH1 0x3 PUSH1 0x1 PUSH1 0x3 DUP1 SLOAD SWAP1 POP PUSH2 0x2934 SWAP2 SWAP1 PUSH2 0x5BC4 JUMP JUMPDEST DUP2 SLOAD DUP2 LT PUSH2 0x296B JUMPI PUSH32 0x4E487B7100000000000000000000000000000000000000000000000000000000 PUSH1 0x0 MSTORE PUSH1 0x32 PUSH1 0x4 MSTORE PUSH1 0x24 PUSH1 0x0 REVERT JUMPDEST SWAP1 PUSH1 0x0 MSTORE PUSH1 0x20 PUSH1 0x0 KECCAK256 ADD SWAP1 DUP1 MLOAD SWAP1 PUSH1 0x20 ADD SWAP1 PUSH2 0x2988 SWAP3 SWAP2 SWAP1 PUSH2 0x4801 JUMP JUMPDEST POP PUSH1 0x3 DUP1 SLOAD DUP1 PUSH2 0x29C1 JUMPI PUSH32 0x4E487B7100000000000000000000000000000000000000000000000000000000 PUSH1 0x0 MSTORE PUSH1 0x31 PUSH1 0x4 MSTORE PUSH1 0x24 PUSH1 0x0 REVERT JUMPDEST PUSH1 0x1 SWAP1 SUB DUP2 DUP2 SWAP1 PUSH1 0x0 MSTORE PUSH1 0x20 PUSH1 0x0 KECCAK256 ADD PUSH1 0x0 PUSH2 0x29DD SWAP2 SWAP1 PUSH2 0x497C JUMP JUMPDEST SWAP1 SSTORE POP PUSH2 0x29F8 JUMP JUMPDEST DUP1 DUP1 PUSH2 0x29F0 SWAP1 PUSH2 0x5C82 JUMP JUMPDEST SWAP2 POP POP PUSH2 0x26F5 JUMP JUMPDEST POP DUP1 PUSH2 0x2A39 JUMPI PUSH1 0x40 MLOAD PUSH32 0x8C379A000000000000000000000000000000000000000000000000000000000 DUP2 MSTORE PUSH1 0x4 ADD PUSH2 0x2A30 SWAP1 PUSH2 0x5924 JUMP JUMPDEST PUSH1 0x40 MLOAD DUP1 SWAP2 SUB SWAP1 REVERT JUMPDEST PUSH1 0x1 DUP4 PUSH1 0x40 MLOAD PUSH2 0x2A49 SWAP2 SWAP1 PUSH2 0x55F0 JUMP JUMPDEST SWAP1 DUP2 MSTORE PUSH1 0x20 ADD PUSH1 0x40 MLOAD DUP1 SWAP2 SUB SWAP1 KECCAK256 PUSH1 0x0 DUP1 DUP3 ADD PUSH1 0x0 PUSH2 0x2A68 SWAP2 SWAP1 PUSH2 0x497C JUMP JUMPDEST PUSH1 0x1 DUP3 ADD PUSH1 0x0 PUSH2 0x2A78 SWAP2 SWAP1 PUSH2 0x49BC JUMP JUMPDEST PUSH1 0x2 DUP3 ADD PUSH1 0x0 PUSH2 0x2A88 SWAP2 SWAP1 PUSH2 0x49BC JUMP JUMPDEST PUSH1 0x3 DUP3 ADD PUSH1 0x0 PUSH2 0x2A98 SWAP2 SWAP1 PUSH2 0x497C JUMP JUMPDEST POP POP DUP3 PUSH1 0x40 MLOAD PUSH2 0x2AA8 SWAP2 SWAP1 PUSH2 0x55F0 JUMP JUMPDEST PUSH1 0x40 MLOAD DUP1 SWAP2 SUB SWAP1 KECCAK256 PUSH32 0x7386A1C2A0CC80496A77C2FDC90BC93764D5FA75567F9DD3CB6513FDFB7E3AE DUP5 PUSH1 0x40 MLOAD PUSH2 0x2ADF SWAP2 SWAP1 PUSH2 0x5670 JUMP JUMPDEST PUSH1 0x40 MLOAD DUP1 SWAP2 SUB SWAP1 LOG2 POP POP POP JUMP JUMPDEST PUSH1 0x5 PUSH1 0x1 SWAP1 SLOAD SWAP1 PUSH2 0x100 EXP SWAP1 DIV PUSH20 0xFFFFFFFFFFFFFFFFFFFFFFFFFFFFFFFFFFFFFFFF AND PUSH20 0xFFFFFFFFFFFFFFFFFFFFFFFFFFFFFFFFFFFFFFFF AND CALLER PUSH20 0xFFFFFFFFFFFFFFFFFFFFFFFFFFFFFFFFFFFFFFFF AND EQ PUSH2 0x2B7C JUMPI PUSH1 0x40 MLOAD PUSH32 0x8C379A000000000000000000000000000000000000000000000000000000000 DUP2 MSTORE PUSH1 0x4 ADD PUSH2 0x2B73 SWAP1 PUSH2 0x59A4 JUMP JUMPDEST PUSH1 0x40 MLOAD DUP1 SWAP2 SUB SWAP1 REVERT JUMPDEST PUSH1 0x0 PUSH1 0x1 DUP4 PUSH1 0x40 MLOAD PUSH2 0x2B8E SWAP2 SWAP1 PUSH2 0x55F0 JUMP JUMPDEST SWAP1 DUP2 MSTORE PUSH1 0x20 ADD PUSH1 0x40 MLOAD DUP1 SWAP2 SUB SWAP1 KECCAK256 PUSH1 0x0 ADD DUP1 SLOAD PUSH2 0x2BAA SWAP1 PUSH2 0x5C50 JUMP JUMPDEST SWAP1 POP GT PUSH2 0x2BEC JUMPI PUSH1 0x40 MLOAD PUSH32 0x8C379A000000000000000000000000000000000000000000000000000000000 DUP2 MSTORE PUSH1 0x4 ADD PUSH2 0x2BE3 SWAP1 PUSH2 0x59E4 JUMP JUMPDEST PUSH1 0x40 MLOAD DUP1 SWAP2 SUB SWAP1 REVERT JUMPDEST PUSH1 0x0 DUP1 DUP3 PUSH1 0x40 MLOAD PUSH2 0x2BFD SWAP2 SWAP1 PUSH2 0x55F0 JUMP JUMPDEST SWAP1 DUP2 MSTORE PUSH1 0x20 ADD PUSH1 0x40 MLOAD DUP1 SWAP2 SUB SWAP1 KECCAK256 PUSH1 0x0 ADD DUP1 SLOAD PUSH2 0x2C19 SWAP1 PUSH2 0x5C50 JUMP JUMPDEST SWAP1 POP GT PUSH2 0x2C5B JUMPI PUSH1 0x40 MLOAD PUSH32 0x8C379A000000000000000000000000000000000000000000000000000000000 DUP2 MSTORE PUSH1 0x4 ADD PUSH2 0x2C52 SWAP1 PUSH2 0x5A44 JUMP JUMPDEST PUSH1 0x40 MLOAD DUP1 SWAP2 SUB SWAP1 REVERT JUMPDEST PUSH1 0x0 ISZERO ISZERO PUSH1 0x5 PUSH1 0x0 SWAP1 SLOAD SWAP1 PUSH2 0x100 EXP SWAP1 DIV PUSH1 0xFF AND ISZERO ISZERO EQ ISZERO PUSH2 0x2D05 JUMPI PUSH1 0x40 MLOAD PUSH1 0x20 ADD PUSH2 0x2C86 SWAP1 PUSH2 0x561E JUMP JUMPDEST PUSH1 0x40 MLOAD PUSH1 0x20 DUP2 DUP4 SUB SUB DUP2 MSTORE SWAP1 PUSH1 0x40 MSTORE DUP1 MLOAD SWAP1 PUSH1 0x20 ADD KECCAK256 DUP3 PUSH1 0x40 MLOAD PUSH1 0x20 ADD PUSH2 0x2CAD SWAP2 SWAP1 PUSH2 0x55F0 JUMP JUMPDEST PUSH1 0x40 MLOAD PUSH1 0x20 DUP2 DUP4 SUB SUB DUP2 MSTORE SWAP1 PUSH1 0x40 MSTORE DUP1 MLOAD SWAP1 PUSH1 0x20 ADD KECCAK256 EQ ISZERO PUSH2 0x2D04 JUMPI PUSH1 0x40 MLOAD PUSH32 0x8C379A000000000000000000000000000000000000000000000000000000000 DUP2 MSTORE PUSH1 0x4 ADD PUSH2 0x2CFB SWAP1 PUSH2 0x5944 JUMP JUMPDEST PUSH1 0x40 MLOAD DUP1 SWAP2 SUB SWAP1 REVERT JUMPDEST JUMPDEST PUSH1 0x0 PUSH1 0x1 DUP4 PUSH1 0x40 MLOAD PUSH2 0x2D17 SWAP2 SWAP1 PUSH2 0x55F0 JUMP JUMPDEST SWAP1 DUP2 MSTORE PUSH1 0x20 ADD PUSH1 0x40 MLOAD DUP1 SWAP2 SUB SWAP1 KECCAK256 PUSH1 0x1 ADD SWAP1 POP PUSH1 0x0 DUP1 JUMPDEST DUP3 DUP1 SLOAD SWAP1 POP DUP2 LT ISZERO PUSH2 0x2EEF JUMPI DUP4 PUSH1 0x40 MLOAD PUSH1 0x20 ADD PUSH2 0x2D4B SWAP2 SWAP1 PUSH2 0x55F0 JUMP JUMPDEST PUSH1 0x40 MLOAD PUSH1 0x20 DUP2 DUP4 SUB SUB DUP2 MSTORE SWAP1 PUSH1 0x40 MSTORE DUP1 MLOAD SWAP1 PUSH1 0x20 ADD KECCAK256 DUP4 DUP3 DUP2 SLOAD DUP2 LT PUSH2 0x2D9A JUMPI PUSH32 0x4E487B7100000000000000000000000000000000000000000000000000000000 PUSH1 0x0 MSTORE PUSH1 0x32 PUSH1 0x4 MSTORE PUSH1 0x24 PUSH1 0x0 REVERT JUMPDEST SWAP1 PUSH1 0x0 MSTORE PUSH1 0x20 PUSH1 0x0 KECCAK256 ADD PUSH1 0x40 MLOAD PUSH1 0x20 ADD PUSH2 0x2DB4 SWAP2 SWAP1 PUSH2 0x5607 JUMP JUMPDEST PUSH1 0x40 MLOAD PUSH1 0x20 DUP2 DUP4 SUB SUB DUP2 MSTORE SWAP1 PUSH1 0x40 MSTORE DUP1 MLOAD SWAP1 PUSH1 0x20 ADD KECCAK256 EQ ISZERO PUSH2 0x2EDC JUMPI PUSH1 0x1 SWAP2 POP DUP3 PUSH1 0x1 DUP5 DUP1 SLOAD SWAP1 POP PUSH2 0x2DE6 SWAP2 SWAP1 PUSH2 0x5BC4 JUMP JUMPDEST DUP2 SLOAD DUP2 LT PUSH2 0x2E1D JUMPI PUSH32 0x4E487B7100000000000000000000000000000000000000000000000000000000 PUSH1 0x0 MSTORE PUSH1 0x32 PUSH1 0x4 MSTORE PUSH1 0x24 PUSH1 0x0 REVERT JUMPDEST SWAP1 PUSH1 0x0 MSTORE PUSH1 0x20 PUSH1 0x0 KECCAK256 ADD DUP4 DUP3 DUP2 SLOAD DUP2 LT PUSH2 0x2E60 JUMPI PUSH32 0x4E487B7100000000000000000000000000000000000000000000000000000000 PUSH1 0x0 MSTORE PUSH1 0x32 PUSH1 0x4 MSTORE PUSH1 0x24 PUSH1 0x0 REVERT JUMPDEST SWAP1 PUSH1 0x0 MSTORE PUSH1 0x20 PUSH1 0x0 KECCAK256 ADD SWAP1 DUP1 SLOAD PUSH2 0x2E76 SWAP1 PUSH2 0x5C50 JUMP JUMPDEST PUSH2 0x2E81 SWAP3 SWAP2 SWAP1 PUSH2 0x49DD JUMP JUMPDEST POP DUP3 DUP1 SLOAD DUP1 PUSH2 0x2EB9 JUMPI PUSH32 0x4E487B7100000000000000000000000000000000000000000000000000000000 PUSH1 0x0 MSTORE PUSH1 0x31 PUSH1 0x4 MSTORE PUSH1 0x24 PUSH1 0x0 REVERT JUMPDEST PUSH1 0x1 SWAP1 SUB DUP2 DUP2 SWAP1 PUSH1 0x0 MSTORE PUSH1 0x20 PUSH1 0x0 KECCAK256 ADD PUSH1 0x0 PUSH2 0x2ED5 SWAP2 SWAP1 PUSH2 0x497C JUMP JUMPDEST SWAP1 SSTORE PUSH2 0x2EEF JUMP JUMPDEST DUP1 DUP1 PUSH2 0x2EE7 SWAP1 PUSH2 0x5C82 JUMP JUMPDEST SWAP2 POP POP PUSH2 0x2D2E JUMP JUMPDEST POP PUSH1 0x0 ISZERO ISZERO PUSH1 0x5 PUSH1 0x0 SWAP1 SLOAD SWAP1 PUSH2 0x100 EXP SWAP1 DIV PUSH1 0xFF AND ISZERO ISZERO EQ ISZERO PUSH2 0x2F4D JUMPI DUP1 PUSH2 0x2F4C JUMPI PUSH1 0x40 MLOAD PUSH32 0x8C379A000000000000000000000000000000000000000000000000000000000 DUP2 MSTORE PUSH1 0x4 ADD PUSH2 0x2F43 SWAP1 PUSH2 0x5A64 JUMP JUMPDEST PUSH1 0x40 MLOAD DUP1 SWAP2 SUB SWAP1 REVERT JUMPDEST JUMPDEST DUP3 PUSH1 0x40 MLOAD PUSH2 0x2F5B SWAP2 SWAP1 PUSH2 0x55F0 JUMP JUMPDEST PUSH1 0x40 MLOAD DUP1 SWAP2 SUB SWAP1 KECCAK256 PUSH32 0xF48902B6CA97756A12AC8F65FB0FBCD8620F21CEBEC54393C1A3C1BACA29500F DUP5 DUP7 PUSH1 0x40 MLOAD PUSH2 0x2F94 SWAP3 SWAP2 SWAP1 PUSH2 0x57A6 JUMP JUMPDEST PUSH1 0x40 MLOAD DUP1 SWAP2 SUB SWAP1 LOG2 DUP4 PUSH1 0x40 MLOAD PUSH2 0x2FAA SWAP2 SWAP1 PUSH2 0x55F0 JUMP JUMPDEST PUSH1 0x40 MLOAD DUP1 SWAP2 SUB SWAP1 KECCAK256 PUSH32 0x5185A55227D2197D7D66B7DE628B1CEF8D3A8EA1A20809A31AE39453B6136185 DUP5 DUP7 PUSH1 0x40 MLOAD PUSH2 0x2FE3 SWAP3 SWAP2 SWAP1 PUSH2 0x57A6 JUMP JUMPDEST PUSH1 0x40 MLOAD DUP1 SWAP2 SUB SWAP1 LOG2 POP POP POP POP JUMP JUMPDEST PUSH1 0x5 PUSH1 0x1 SWAP1 SLOAD SWAP1 PUSH2 0x100 EXP SWAP1 DIV PUSH20 0xFFFFFFFFFFFFFFFFFFFFFFFFFFFFFFFFFFFFFFFF AND PUSH20 0xFFFFFFFFFFFFFFFFFFFFFFFFFFFFFFFFFFFFFFFF AND CALLER PUSH20 0xFFFFFFFFFFFFFFFFFFFFFFFFFFFFFFFFFFFFFFFF AND EQ PUSH2 0x3081 JUMPI PUSH1 0x40 MLOAD PUSH32 0x8C379A000000000000000000000000000000000000000000000000000000000 DUP2 MSTORE PUSH1 0x4 ADD PUSH2 0x3078 SWAP1 PUSH2 0x59A4 JUMP JUMPDEST PUSH1 0x40 MLOAD DUP1 SWAP2 SUB SWAP1 REVERT JUMPDEST DUP1 PUSH1 0x40 MLOAD PUSH2 0x308F SWAP2 SWAP1 PUSH2 0x55F0 JUMP JUMPDEST PUSH1 0x40 MLOAD DUP1 SWAP2 SUB SWAP1 KECCAK256 PUSH32 0x6D2522B0FA7D67BDAB2F9971773F22A4E5F30A3A44CFDB04C82E8EBBD6F51B0E DUP3 PUSH1 0x40 MLOAD PUSH2 0x30C6 SWAP2 SWAP1 PUSH2 0x5670 JUMP JUMPDEST PUSH1 0x40 MLOAD DUP1 SWAP2 SUB SWAP1 LOG2 POP JUMP JUMPDEST PUSH1 0x0 DUP1 PUSH1 0x0 DUP4 PUSH1 0x40 MLOAD PUSH2 0x30E4 SWAP2 SWAP1 PUSH2 0x55F0 JUMP JUMPDEST SWAP1 DUP2 MSTORE PUSH1 0x20 ADD PUSH1 0x40 MLOAD DUP1 SWAP2 SUB SWAP1 KECCAK256 PUSH1 0x0 ADD DUP1 SLOAD PUSH2 0x3100 SWAP1 PUSH2 0x5C50 JUMP JUMPDEST SWAP1 POP GT SWAP1 POP SWAP2 SWAP1 POP JUMP JUMPDEST PUSH1 0x5 PUSH1 0x1 SWAP1 SLOAD SWAP1 PUSH2 0x100 EXP SWAP1 DIV PUSH20 0xFFFFFFFFFFFFFFFFFFFFFFFFFFFFFFFFFFFFFFFF AND PUSH20 0xFFFFFFFFFFFFFFFFFFFFFFFFFFFFFFFFFFFFFFFF AND CALLER PUSH20 0xFFFFFFFFFFFFFFFFFFFFFFFFFFFFFFFFFFFFFFFF AND EQ PUSH2 0x319A JUMPI PUSH1 0x40 MLOAD PUSH32 0x8C379A000000000000000000000000000000000000000000000000000000000 DUP2 MSTORE PUSH1 0x4 ADD PUSH2 0x3191 SWAP1 PUSH2 0x59A4 JUMP JUMPDEST PUSH1 0x40 MLOAD DUP1 SWAP2 SUB SWAP1 REVERT JUMPDEST PUSH1 0x0 DUP1 DUP4 PUSH1 0x40 MLOAD PUSH2 0x31AB SWAP2 SWAP1 PUSH2 0x55F0 JUMP JUMPDEST SWAP1 DUP2 MSTORE PUSH1 0x20 ADD PUSH1 0x40 MLOAD DUP1 SWAP2 SUB SWAP1 KECCAK256 PUSH1 0x7 ADD DUP1 SLOAD PUSH2 0x31C7 SWAP1 PUSH2 0x5C50 JUMP JUMPDEST DUP1 PUSH1 0x1F ADD PUSH1 0x20 DUP1 SWAP2 DIV MUL PUSH1 0x20 ADD PUSH1 0x40 MLOAD SWAP1 DUP2 ADD PUSH1 0x40 MSTORE DUP1 SWAP3 SWAP2 SWAP1 DUP2 DUP2 MSTORE PUSH1 0x20 ADD DUP3 DUP1 SLOAD PUSH2 0x31F3 SWAP1 PUSH2 0x5C50 JUMP JUMPDEST DUP1 ISZERO PUSH2 0x3240 JUMPI DUP1 PUSH1 0x1F LT PUSH2 0x3215 JUMPI PUSH2 0x100 DUP1 DUP4 SLOAD DIV MUL DUP4 MSTORE SWAP2 PUSH1 0x20 ADD SWAP2 PUSH2 0x3240 JUMP JUMPDEST DUP3 ADD SWAP2 SWAP1 PUSH1 0x0 MSTORE PUSH1 0x20 PUSH1 0x0 KECCAK256 SWAP1 JUMPDEST DUP2 SLOAD DUP2 MSTORE SWAP1 PUSH1 0x1 ADD SWAP1 PUSH1 0x20 ADD DUP1 DUP4 GT PUSH2 0x3223 JUMPI DUP3 SWAP1 SUB PUSH1 0x1F AND DUP3 ADD SWAP2 JUMPDEST POP POP POP POP POP SWAP1 POP DUP2 PUSH1 0x0 DUP5 PUSH1 0x40 MLOAD PUSH2 0x3258 SWAP2 SWAP1 PUSH2 0x55F0 JUMP JUMPDEST SWAP1 DUP2 MSTORE PUSH1 0x20 ADD PUSH1 0x40 MLOAD DUP1 SWAP2 SUB SWAP1 KECCAK256 PUSH1 0x7 ADD SWAP1 DUP1 MLOAD SWAP1 PUSH1 0x20 ADD SWAP1 PUSH2 0x327C SWAP3 SWAP2 SWAP1 PUSH2 0x4801 JUMP JUMPDEST POP DUP3 PUSH1 0x40 MLOAD PUSH2 0x328B SWAP2 SWAP1 PUSH2 0x55F0 JUMP JUMPDEST PUSH1 0x40 MLOAD DUP1 SWAP2 SUB SWAP1 KECCAK256 PUSH32 0x4BF7ADB7382A1159F4388ABBDD1BC13A1A4C0075C70ACBAEAF5B5FA612996F80 DUP5 DUP4 DUP6 PUSH1 0x40 MLOAD PUSH2 0x32C6 SWAP4 SWAP3 SWAP2 SWAP1 PUSH2 0x588C JUMP JUMPDEST PUSH1 0x40 MLOAD DUP1 SWAP2 SUB SWAP1 LOG2 POP POP POP JUMP JUMPDEST PUSH1 0x60 DUP1 PUSH1 0x60 DUP1 PUSH1 0x5 PUSH1 0x1 SWAP1 SLOAD SWAP1 PUSH2 0x100 EXP SWAP1 DIV PUSH20 0xFFFFFFFFFFFFFFFFFFFFFFFFFFFFFFFFFFFFFFFF AND PUSH20 0xFFFFFFFFFFFFFFFFFFFFFFFFFFFFFFFFFFFFFFFF AND CALLER PUSH20 0xFFFFFFFFFFFFFFFFFFFFFFFFFFFFFFFFFFFFFFFF AND EQ PUSH2 0x3369 JUMPI PUSH1 0x40 MLOAD PUSH32 0x8C379A000000000000000000000000000000000000000000000000000000000 DUP2 MSTORE PUSH1 0x4 ADD PUSH2 0x3360 SWAP1 PUSH2 0x59A4 JUMP JUMPDEST PUSH1 0x40 MLOAD DUP1 SWAP2 SUB SWAP1 REVERT JUMPDEST PUSH1 0x0 PUSH1 0x1 DUP7 PUSH1 0x40 MLOAD PUSH2 0x337B SWAP2 SWAP1 PUSH2 0x55F0 JUMP JUMPDEST SWAP1 DUP2 MSTORE PUSH1 0x20 ADD PUSH1 0x40 MLOAD DUP1 SWAP2 SUB SWAP1 KECCAK256 PUSH1 0x0 ADD DUP1 SLOAD PUSH2 0x3397 SWAP1 PUSH2 0x5C50 JUMP JUMPDEST SWAP1 POP GT PUSH2 0x33D9 JUMPI PUSH1 0x40 MLOAD PUSH32 0x8C379A000000000000000000000000000000000000000000000000000000000 DUP2 MSTORE PUSH1 0x4 ADD PUSH2 0x33D0 SWAP1 PUSH2 0x59E4 JUMP JUMPDEST PUSH1 0x40 MLOAD DUP1 SWAP2 SUB SWAP1 REVERT JUMPDEST PUSH1 0x0 PUSH1 0x1 DUP7 PUSH1 0x40 MLOAD PUSH2 0x33EB SWAP2 SWAP1 PUSH2 0x55F0 JUMP JUMPDEST SWAP1 DUP2 MSTORE PUSH1 0x20 ADD PUSH1 0x40 MLOAD DUP1 SWAP2 SUB SWAP1 KECCAK256 PUSH1 0x40 MLOAD DUP1 PUSH1 0x80 ADD PUSH1 0x40 MSTORE SWAP1 DUP2 PUSH1 0x0 DUP3 ADD DUP1 SLOAD PUSH2 0x3414 SWAP1 PUSH2 0x5C50 JUMP JUMPDEST DUP1 PUSH1 0x1F ADD PUSH1 0x20 DUP1 SWAP2 DIV MUL PUSH1 0x20 ADD PUSH1 0x40 MLOAD SWAP1 DUP2 ADD PUSH1 0x40 MSTORE DUP1 SWAP3 SWAP2 SWAP1 DUP2 DUP2 MSTORE PUSH1 0x20 ADD DUP3 DUP1 SLOAD PUSH2 0x3440 SWAP1 PUSH2 0x5C50 JUMP JUMPDEST DUP1 ISZERO PUSH2 0x348D JUMPI DUP1 PUSH1 0x1F LT PUSH2 0x3462 JUMPI PUSH2 0x100 DUP1 DUP4 SLOAD DIV MUL DUP4 MSTORE SWAP2 PUSH1 0x20 ADD SWAP2 PUSH2 0x348D JUMP JUMPDEST DUP3 ADD SWAP2 SWAP1 PUSH1 0x0 MSTORE PUSH1 0x20 PUSH1 0x0 KECCAK256 SWAP1 JUMPDEST DUP2 SLOAD DUP2 MSTORE SWAP1 PUSH1 0x1 ADD SWAP1 PUSH1 0x20 ADD DUP1 DUP4 GT PUSH2 0x3470 JUMPI DUP3 SWAP1 SUB PUSH1 0x1F AND DUP3 ADD SWAP2 JUMPDEST POP POP POP POP POP DUP2 MSTORE PUSH1 0x20 ADD PUSH1 0x1 DUP3 ADD DUP1 SLOAD DUP1 PUSH1 0x20 MUL PUSH1 0x20 ADD PUSH1 0x40 MLOAD SWAP1 DUP2 ADD PUSH1 0x40 MSTORE DUP1 SWAP3 SWAP2 SWAP1 DUP2 DUP2 MSTORE PUSH1 0x20 ADD PUSH1 0x0 SWAP1 JUMPDEST DUP3 DUP3 LT ISZERO PUSH2 0x3567 JUMPI DUP4 DUP3 SWAP1 PUSH1 0x0 MSTORE PUSH1 0x20 PUSH1 0x0 KECCAK256 ADD DUP1 SLOAD PUSH2 0x34DA SWAP1 PUSH2 0x5C50 JUMP JUMPDEST DUP1 PUSH1 0x1F ADD PUSH1 0x20 DUP1 SWAP2 DIV MUL PUSH1 0x20 ADD PUSH1 0x40 MLOAD SWAP1 DUP2 ADD PUSH1 0x40 MSTORE DUP1 SWAP3 SWAP2 SWAP1 DUP2 DUP2 MSTORE PUSH1 0x20 ADD DUP3 DUP1 SLOAD PUSH2 0x3506 SWAP1 PUSH2 0x5C50 JUMP JUMPDEST DUP1 ISZERO PUSH2 0x3553 JUMPI DUP1 PUSH1 0x1F LT PUSH2 0x3528 JUMPI PUSH2 0x100 DUP1 DUP4 SLOAD DIV MUL DUP4 MSTORE SWAP2 PUSH1 0x20 ADD SWAP2 PUSH2 0x3553 JUMP JUMPDEST DUP3 ADD SWAP2 SWAP1 PUSH1 0x0 MSTORE PUSH1 0x20 PUSH1 0x0 KECCAK256 SWAP1 JUMPDEST DUP2 SLOAD DUP2 MSTORE SWAP1 PUSH1 0x1 ADD SWAP1 PUSH1 0x20 ADD DUP1 DUP4 GT PUSH2 0x3536 JUMPI DUP3 SWAP1 SUB PUSH1 0x1F AND DUP3 ADD SWAP2 JUMPDEST POP POP POP POP POP DUP2 MSTORE PUSH1 0x20 ADD SWAP1 PUSH1 0x1 ADD SWAP1 PUSH2 0x34BB JUMP JUMPDEST POP POP POP POP DUP2 MSTORE PUSH1 0x20 ADD PUSH1 0x2 DUP3 ADD DUP1 SLOAD DUP1 PUSH1 0x20 MUL PUSH1 0x20 ADD PUSH1 0x40 MLOAD SWAP1 DUP2 ADD PUSH1 0x40 MSTORE DUP1 SWAP3 SWAP2 SWAP1 DUP2 DUP2 MSTORE PUSH1 0x20 ADD PUSH1 0x0 SWAP1 JUMPDEST DUP3 DUP3 LT ISZERO PUSH2 0x3640 JUMPI DUP4 DUP3 SWAP1 PUSH1 0x0 MSTORE PUSH1 0x20 PUSH1 0x0 KECCAK256 ADD DUP1 SLOAD PUSH2 0x35B3 SWAP1 PUSH2 0x5C50 JUMP JUMPDEST DUP1 PUSH1 0x1F ADD PUSH1 0x20 DUP1 SWAP2 DIV MUL PUSH1 0x20 ADD PUSH1 0x40 MLOAD SWAP1 DUP2 ADD PUSH1 0x40 MSTORE DUP1 SWAP3 SWAP2 SWAP1 DUP2 DUP2 MSTORE PUSH1 0x20 ADD DUP3 DUP1 SLOAD PUSH2 0x35DF SWAP1 PUSH2 0x5C50 JUMP JUMPDEST DUP1 ISZERO PUSH2 0x362C JUMPI DUP1 PUSH1 0x1F LT PUSH2 0x3601 JUMPI PUSH2 0x100 DUP1 DUP4 SLOAD DIV MUL DUP4 MSTORE SWAP2 PUSH1 0x20 ADD SWAP2 PUSH2 0x362C JUMP JUMPDEST DUP3 ADD SWAP2 SWAP1 PUSH1 0x0 MSTORE PUSH1 0x20 PUSH1 0x0 KECCAK256 SWAP1 JUMPDEST DUP2 SLOAD DUP2 MSTORE SWAP1 PUSH1 0x1 ADD SWAP1 PUSH1 0x20 ADD DUP1 DUP4 GT PUSH2 0x360F JUMPI DUP3 SWAP1 SUB PUSH1 0x1F AND DUP3 ADD SWAP2 JUMPDEST POP POP POP POP POP DUP2 MSTORE PUSH1 0x20 ADD SWAP1 PUSH1 0x1 ADD SWAP1 PUSH2 0x3594 JUMP JUMPDEST POP POP POP POP DUP2 MSTORE PUSH1 0x20 ADD PUSH1 0x3 DUP3 ADD DUP1 SLOAD PUSH2 0x3658 SWAP1 PUSH2 0x5C50 JUMP JUMPDEST DUP1 PUSH1 0x1F ADD PUSH1 0x20 DUP1 SWAP2 DIV MUL PUSH1 0x20 ADD PUSH1 0x40 MLOAD SWAP1 DUP2 ADD PUSH1 0x40 MSTORE DUP1 SWAP3 SWAP2 SWAP1 DUP2 DUP2 MSTORE PUSH1 0x20 ADD DUP3 DUP1 SLOAD PUSH2 0x3684 SWAP1 PUSH2 0x5C50 JUMP JUMPDEST DUP1 ISZERO PUSH2 0x36D1 JUMPI DUP1 PUSH1 0x1F LT PUSH2 0x36A6 JUMPI PUSH2 0x100 DUP1 DUP4 SLOAD DIV MUL DUP4 MSTORE SWAP2 PUSH1 0x20 ADD SWAP2 PUSH2 0x36D1 JUMP JUMPDEST DUP3 ADD SWAP2 SWAP1 PUSH1 0x0 MSTORE PUSH1 0x20 PUSH1 0x0 KECCAK256 SWAP1 JUMPDEST DUP2 SLOAD DUP2 MSTORE SWAP1 PUSH1 0x1 ADD SWAP1 PUSH1 0x20 ADD DUP1 DUP4 GT PUSH2 0x36B4 JUMPI DUP3 SWAP1 SUB PUSH1 0x1F AND DUP3 ADD SWAP2 JUMPDEST POP POP POP POP POP DUP2 MSTORE POP POP SWAP1 POP DUP1 PUSH1 0x0 ADD MLOAD DUP2 PUSH1 0x40 ADD MLOAD DUP3 PUSH1 0x20 ADD MLOAD DUP4 PUSH1 0x60 ADD MLOAD SWAP5 POP SWAP5 POP SWAP5 POP SWAP5 POP POP SWAP2 SWAP4 POP SWAP2 SWAP4 JUMP JUMPDEST PUSH1 0x5 PUSH1 0x1 SWAP1 SLOAD SWAP1 PUSH2 0x100 EXP SWAP1 DIV PUSH20 0xFFFFFFFFFFFFFFFFFFFFFFFFFFFFFFFFFFFFFFFF AND PUSH20 0xFFFFFFFFFFFFFFFFFFFFFFFFFFFFFFFFFFFFFFFF AND CALLER PUSH20 0xFFFFFFFFFFFFFFFFFFFFFFFFFFFFFFFFFFFFFFFF AND EQ PUSH2 0x3790 JUMPI PUSH1 0x40 MLOAD PUSH32 0x8C379A000000000000000000000000000000000000000000000000000000000 DUP2 MSTORE PUSH1 0x4 ADD PUSH2 0x3787 SWAP1 PUSH2 0x59A4 JUMP JUMPDEST PUSH1 0x40 MLOAD DUP1 SWAP2 SUB SWAP1 REVERT JUMPDEST PUSH1 0x40 MLOAD DUP1 PUSH2 0x100 ADD PUSH1 0x40 MSTORE DUP1 DUP6 DUP2 MSTORE PUSH1 0x20 ADD DUP5 DUP2 MSTORE PUSH1 0x20 ADD DUP4 DUP2 MSTORE PUSH1 0x20 ADD DUP3 DUP2 MSTORE PUSH1 0x20 ADD DUP3 DUP2 MSTORE PUSH1 0x20 ADD PUSH1 0x1 ISZERO ISZERO DUP2 MSTORE PUSH1 0x20 ADD PUSH1 0x40 MLOAD DUP1 PUSH1 0x20 ADD PUSH1 0x40 MSTORE DUP1 PUSH1 0x0 DUP2 MSTORE POP DUP2 MSTORE PUSH1 0x20 ADD PUSH1 0x40 MLOAD DUP1 PUSH1 0x20 ADD PUSH1 0x40 MSTORE DUP1 PUSH1 0x0 DUP2 MSTORE POP DUP2 MSTORE POP PUSH1 0x0 DUP6 PUSH1 0x40 MLOAD PUSH2 0x37FB SWAP2 SWAP1 PUSH2 0x55F0 JUMP JUMPDEST SWAP1 DUP2 MSTORE PUSH1 0x20 ADD PUSH1 0x40 MLOAD DUP1 SWAP2 SUB SWAP1 KECCAK256 PUSH1 0x0 DUP3 ADD MLOAD DUP2 PUSH1 0x0 ADD SWAP1 DUP1 MLOAD SWAP1 PUSH1 0x20 ADD SWAP1 PUSH2 0x3825 SWAP3 SWAP2 SWAP1 PUSH2 0x4801 JUMP JUMPDEST POP PUSH1 0x20 DUP3 ADD MLOAD DUP2 PUSH1 0x1 ADD SWAP1 DUP1 MLOAD SWAP1 PUSH1 0x20 ADD SWAP1 PUSH2 0x3842 SWAP3 SWAP2 SWAP1 PUSH2 0x4801 JUMP JUMPDEST POP PUSH1 0x40 DUP3 ADD MLOAD DUP2 PUSH1 0x2 ADD SWAP1 DUP1 MLOAD SWAP1 PUSH1 0x20 ADD SWAP1 PUSH2 0x385F SWAP3 SWAP2 SWAP1 PUSH2 0x47A1 JUMP JUMPDEST POP PUSH1 0x60 DUP3 ADD MLOAD DUP2 PUSH1 0x3 ADD SWAP1 DUP1 MLOAD SWAP1 PUSH1 0x20 ADD SWAP1 PUSH2 0x387C SWAP3 SWAP2 SWAP1 PUSH2 0x4801 JUMP JUMPDEST POP PUSH1 0x80 DUP3 ADD MLOAD DUP2 PUSH1 0x4 ADD SWAP1 DUP1 MLOAD SWAP1 PUSH1 0x20 ADD SWAP1 PUSH2 0x3899 SWAP3 SWAP2 SWAP1 PUSH2 0x4801 JUMP JUMPDEST POP PUSH1 0xA0 DUP3 ADD MLOAD DUP2 PUSH1 0x5 ADD PUSH1 0x0 PUSH2 0x100 EXP DUP2 SLOAD DUP2 PUSH1 0xFF MUL NOT AND SWAP1 DUP4 ISZERO ISZERO MUL OR SWAP1 SSTORE POP PUSH1 0xC0 DUP3 ADD MLOAD DUP2 PUSH1 0x6 ADD SWAP1 DUP1 MLOAD SWAP1 PUSH1 0x20 ADD SWAP1 PUSH2 0x38D6 SWAP3 SWAP2 SWAP1 PUSH2 0x4801 JUMP JUMPDEST POP PUSH1 0xE0 DUP3 ADD MLOAD DUP2 PUSH1 0x7 ADD SWAP1 DUP1 MLOAD SWAP1 PUSH1 0x20 ADD SWAP1 PUSH2 0x38F3 SWAP3 SWAP2 SWAP1 PUSH2 0x4801 JUMP JUMPDEST POP SWAP1 POP POP PUSH1 0x2 DUP5 SWAP1 DUP1 PUSH1 0x1 DUP2 SLOAD ADD DUP1 DUP3 SSTORE DUP1 SWAP2 POP POP PUSH1 0x1 SWAP1 SUB SWAP1 PUSH1 0x0 MSTORE PUSH1 0x20 PUSH1 0x0 KECCAK256 ADD PUSH1 0x0 SWAP1 SWAP2 SWAP1 SWAP2 SWAP1 SWAP2 POP SWAP1 DUP1 MLOAD SWAP1 PUSH1 0x20 ADD SWAP1 PUSH2 0x3932 SWAP3 SWAP2 SWAP1 PUSH2 0x4801 JUMP JUMPDEST POP PUSH2 0x3972 PUSH1 0x40 MLOAD DUP1 PUSH1 0x40 ADD PUSH1 0x40 MSTORE DUP1 PUSH1 0x5 DUP2 MSTORE PUSH1 0x20 ADD PUSH32 0x5573657273000000000000000000000000000000000000000000000000000000 DUP2 MSTORE POP DUP6 PUSH2 0x3DA4 JUMP JUMPDEST DUP4 PUSH1 0x40 MLOAD PUSH2 0x3980 SWAP2 SWAP1 PUSH2 0x55F0 JUMP JUMPDEST PUSH1 0x40 MLOAD DUP1 SWAP2 SUB SWAP1 KECCAK256 PUSH32 0x996D7324173609959370942B1EE1B743DC623B3D50459E66C1D55DF55E5A9F37 DUP6 PUSH1 0x40 MLOAD PUSH2 0x39B7 SWAP2 SWAP1 PUSH2 0x5670 JUMP JUMPDEST PUSH1 0x40 MLOAD DUP1 SWAP2 SUB SWAP1 LOG2 PUSH1 0x1 PUSH1 0x2 DUP1 SLOAD SWAP1 POP EQ ISZERO PUSH2 0x3A24 JUMPI PUSH2 0x3A0C PUSH1 0x40 MLOAD DUP1 PUSH1 0x40 ADD PUSH1 0x40 MSTORE DUP1 PUSH1 0xE DUP2 MSTORE PUSH1 0x20 ADD PUSH32 0x41646D696E6973747261746F7273000000000000000000000000000000000000 DUP2 MSTORE POP DUP6 PUSH2 0x3DA4 JUMP JUMPDEST DUP4 PUSH1 0x4 SWAP1 DUP1 MLOAD SWAP1 PUSH1 0x20 ADD SWAP1 PUSH2 0x3A22 SWAP3 SWAP2 SWAP1 PUSH2 0x4801 JUMP JUMPDEST POP JUMPDEST POP POP POP POP JUMP JUMPDEST PUSH1 0x5 PUSH1 0x1 SWAP1 SLOAD SWAP1 PUSH2 0x100 EXP SWAP1 DIV PUSH20 0xFFFFFFFFFFFFFFFFFFFFFFFFFFFFFFFFFFFFFFFF AND PUSH20 0xFFFFFFFFFFFFFFFFFFFFFFFFFFFFFFFFFFFFFFFF AND CALLER PUSH20 0xFFFFFFFFFFFFFFFFFFFFFFFFFFFFFFFFFFFFFFFF AND EQ PUSH2 0x3ABA JUMPI PUSH1 0x40 MLOAD PUSH32 0x8C379A000000000000000000000000000000000000000000000000000000000 DUP2 MSTORE PUSH1 0x4 ADD PUSH2 0x3AB1 SWAP1 PUSH2 0x59A4 JUMP JUMPDEST PUSH1 0x40 MLOAD DUP1 SWAP2 SUB SWAP1 REVERT JUMPDEST DUP1 PUSH1 0x0 DUP4 PUSH1 0x40 MLOAD PUSH2 0x3ACB SWAP2 SWAP1 PUSH2 0x55F0 JUMP JUMPDEST SWAP1 DUP2 MSTORE PUSH1 0x20 ADD PUSH1 0x40 MLOAD DUP1 SWAP2 SUB SWAP1 KECCAK256 PUSH1 0x1 ADD SWAP1 DUP1 MLOAD SWAP1 PUSH1 0x20 ADD SWAP1 PUSH2 0x3AEF SWAP3 SWAP2 SWAP1 PUSH2 0x4801 JUMP JUMPDEST POP DUP2 PUSH1 0x40 MLOAD PUSH2 0x3AFE SWAP2 SWAP1 PUSH2 0x55F0 JUMP JUMPDEST PUSH1 0x40 MLOAD DUP1 SWAP2 SUB SWAP1 KECCAK256 PUSH32 0x2E5BE3910DE361C407755AEA981BF58449896A9B8B60B8679BB947D6A9AB6287 DUP4 PUSH1 0x40 MLOAD PUSH2 0x3B35 SWAP2 SWAP1 PUSH2 0x5670 JUMP JUMPDEST PUSH1 0x40 MLOAD DUP1 SWAP2 SUB SWAP1 LOG2 POP POP JUMP JUMPDEST PUSH1 0x5 PUSH1 0x1 SWAP1 SLOAD SWAP1 PUSH2 0x100 EXP SWAP1 DIV PUSH20 0xFFFFFFFFFFFFFFFFFFFFFFFFFFFFFFFFFFFFFFFF AND PUSH20 0xFFFFFFFFFFFFFFFFFFFFFFFFFFFFFFFFFFFFFFFF AND CALLER PUSH20 0xFFFFFFFFFFFFFFFFFFFFFFFFFFFFFFFFFFFFFFFF AND EQ PUSH2 0x3BD1 JUMPI PUSH1 0x40 MLOAD PUSH32 0x8C379A000000000000000000000000000000000000000000000000000000000 DUP2 MSTORE PUSH1 0x4 ADD PUSH2 0x3BC8 SWAP1 PUSH2 0x59A4 JUMP JUMPDEST PUSH1 0x40 MLOAD DUP1 SWAP2 SUB SWAP1 REVERT JUMPDEST PUSH1 0x40 MLOAD DUP1 PUSH1 0x80 ADD PUSH1 0x40 MSTORE DUP1 DUP5 DUP2 MSTORE PUSH1 0x20 ADD PUSH1 0x0 PUSH8 0xFFFFFFFFFFFFFFFF DUP2 GT ISZERO PUSH2 0x3C23 JUMPI PUSH32 0x4E487B7100000000000000000000000000000000000000000000000000000000 PUSH1 0x0 MSTORE PUSH1 0x41 PUSH1 0x4 MSTORE PUSH1 0x24 PUSH1 0x0 REVERT JUMPDEST PUSH1 0x40 MLOAD SWAP1 DUP1 DUP3 MSTORE DUP1 PUSH1 0x20 MUL PUSH1 0x20 ADD DUP3 ADD PUSH1 0x40 MSTORE DUP1 ISZERO PUSH2 0x3C56 JUMPI DUP2 PUSH1 0x20 ADD JUMPDEST PUSH1 0x60 DUP2 MSTORE PUSH1 0x20 ADD SWAP1 PUSH1 0x1 SWAP1 SUB SWAP1 DUP2 PUSH2 0x3C41 JUMPI SWAP1 POP JUMPDEST POP DUP2 MSTORE PUSH1 0x20 ADD DUP4 DUP2 MSTORE PUSH1 0x20 ADD PUSH1 0x40 MLOAD DUP1 PUSH1 0x20 ADD PUSH1 0x40 MSTORE DUP1 PUSH1 0x0 DUP2 MSTORE POP DUP2 MSTORE POP PUSH1 0x1 DUP5 PUSH1 0x40 MLOAD PUSH2 0x3C85 SWAP2 SWAP1 PUSH2 0x55F0 JUMP JUMPDEST SWAP1 DUP2 MSTORE PUSH1 0x20 ADD PUSH1 0x40 MLOAD DUP1 SWAP2 SUB SWAP1 KECCAK256 PUSH1 0x0 DUP3 ADD MLOAD DUP2 PUSH1 0x0 ADD SWAP1 DUP1 MLOAD SWAP1 PUSH1 0x20 ADD SWAP1 PUSH2 0x3CAF SWAP3 SWAP2 SWAP1 PUSH2 0x4801 JUMP JUMPDEST POP PUSH1 0x20 DUP3 ADD MLOAD DUP2 PUSH1 0x1 ADD SWAP1 DUP1 MLOAD SWAP1 PUSH1 0x20 ADD SWAP1 PUSH2 0x3CCC SWAP3 SWAP2 SWAP1 PUSH2 0x47A1 JUMP JUMPDEST POP PUSH1 0x40 DUP3 ADD MLOAD DUP2 PUSH1 0x2 ADD SWAP1 DUP1 MLOAD SWAP1 PUSH1 0x20 ADD SWAP1 PUSH2 0x3CE9 SWAP3 SWAP2 SWAP1 PUSH2 0x47A1 JUMP JUMPDEST POP PUSH1 0x60 DUP3 ADD MLOAD DUP2 PUSH1 0x3 ADD SWAP1 DUP1 MLOAD SWAP1 PUSH1 0x20 ADD SWAP1 PUSH2 0x3D06 SWAP3 SWAP2 SWAP1 PUSH2 0x4801 JUMP JUMPDEST POP SWAP1 POP POP PUSH1 0x3 DUP4 SWAP1 DUP1 PUSH1 0x1 DUP2 SLOAD ADD DUP1 DUP3 SSTORE DUP1 SWAP2 POP POP PUSH1 0x1 SWAP1 SUB SWAP1 PUSH1 0x0 MSTORE PUSH1 0x20 PUSH1 0x0 KECCAK256 ADD PUSH1 0x0 SWAP1 SWAP2 SWAP1 SWAP2 SWAP1 SWAP2 POP SWAP1 DUP1 MLOAD SWAP1 PUSH1 0x20 ADD SWAP1 PUSH2 0x3D45 SWAP3 SWAP2 SWAP1 PUSH2 0x4801 JUMP JUMPDEST POP DUP3 PUSH1 0x40 MLOAD PUSH2 0x3D54 SWAP2 SWAP1 PUSH2 0x55F0 JUMP JUMPDEST PUSH1 0x40 MLOAD DUP1 SWAP2 SUB SWAP1 KECCAK256 PUSH32 0xDA8CB7463BA733D6194271D0978F8F3FE238ECE9368518BF39F0A3AD9C21EA35 DUP5 DUP5 PUSH1 0x40 MLOAD PUSH2 0x3D8D SWAP3 SWAP2 SWAP1 PUSH2 0x5692 JUMP JUMPDEST PUSH1 0x40 MLOAD DUP1 SWAP2 SUB SWAP1 LOG2 PUSH2 0x3D9F DUP4 DUP3 PUSH2 0x645 JUMP JUMPDEST POP POP POP JUMP JUMPDEST PUSH1 0x5 PUSH1 0x1 SWAP1 SLOAD SWAP1 PUSH2 0x100 EXP SWAP1 DIV PUSH20 0xFFFFFFFFFFFFFFFFFFFFFFFFFFFFFFFFFFFFFFFF AND PUSH20 0xFFFFFFFFFFFFFFFFFFFFFFFFFFFFFFFFFFFFFFFF AND CALLER PUSH20 0xFFFFFFFFFFFFFFFFFFFFFFFFFFFFFFFFFFFFFFFF AND EQ PUSH2 0x3E34 JUMPI PUSH1 0x40 MLOAD PUSH32 0x8C379A000000000000000000000000000000000000000000000000000000000 DUP2 MSTORE PUSH1 0x4 ADD PUSH2 0x3E2B SWAP1 PUSH2 0x59A4 JUMP JUMPDEST PUSH1 0x40 MLOAD DUP1 SWAP2 SUB SWAP1 REVERT JUMPDEST PUSH1 0x0 PUSH1 0x1 DUP4 PUSH1 0x40 MLOAD PUSH2 0x3E46 SWAP2 SWAP1 PUSH2 0x55F0 JUMP JUMPDEST SWAP1 DUP2 MSTORE PUSH1 0x20 ADD PUSH1 0x40 MLOAD DUP1 SWAP2 SUB SWAP1 KECCAK256 PUSH1 0x0 ADD DUP1 SLOAD PUSH2 0x3E62 SWAP1 PUSH2 0x5C50 JUMP JUMPDEST SWAP1 POP GT PUSH2 0x3EA4 JUMPI PUSH1 0x40 MLOAD PUSH32 0x8C379A000000000000000000000000000000000000000000000000000000000 DUP2 MSTORE PUSH1 0x4 ADD PUSH2 0x3E9B SWAP1 PUSH2 0x59E4 JUMP JUMPDEST PUSH1 0x40 MLOAD DUP1 SWAP2 SUB SWAP1 REVERT JUMPDEST PUSH1 0x0 DUP1 DUP3 PUSH1 0x40 MLOAD PUSH2 0x3EB5 SWAP2 SWAP1 PUSH2 0x55F0 JUMP JUMPDEST SWAP1 DUP2 MSTORE PUSH1 0x20 ADD PUSH1 0x40 MLOAD DUP1 SWAP2 SUB SWAP1 KECCAK256 PUSH1 0x0 ADD DUP1 SLOAD PUSH2 0x3ED1 SWAP1 PUSH2 0x5C50 JUMP JUMPDEST SWAP1 POP GT PUSH2 0x3F13 JUMPI PUSH1 0x40 MLOAD PUSH32 0x8C379A000000000000000000000000000000000000000000000000000000000 DUP2 MSTORE PUSH1 0x4 ADD PUSH2 0x3F0A SWAP1 PUSH2 0x5A44 JUMP JUMPDEST PUSH1 0x40 MLOAD DUP1 SWAP2 SUB SWAP1 REVERT JUMPDEST PUSH1 0x1 DUP3 PUSH1 0x40 MLOAD PUSH2 0x3F23 SWAP2 SWAP1 PUSH2 0x55F0 JUMP JUMPDEST SWAP1 DUP2 MSTORE PUSH1 0x20 ADD PUSH1 0x40 MLOAD DUP1 SWAP2 SUB SWAP1 KECCAK256 PUSH1 0x1 ADD DUP2 SWAP1 DUP1 PUSH1 0x1 DUP2 SLOAD ADD DUP1 DUP3 SSTORE DUP1 SWAP2 POP POP PUSH1 0x1 SWAP1 SUB SWAP1 PUSH1 0x0 MSTORE PUSH1 0x20 PUSH1 0x0 KECCAK256 ADD PUSH1 0x0 SWAP1 SWAP2 SWAP1 SWAP2 SWAP1 SWAP2 POP SWAP1 DUP1 MLOAD SWAP1 PUSH1 0x20 ADD SWAP1 PUSH2 0x3F6D SWAP3 SWAP2 SWAP1 PUSH2 0x4801 JUMP JUMPDEST POP DUP1 PUSH1 0x40 MLOAD PUSH2 0x3F7C SWAP2 SWAP1 PUSH2 0x55F0 JUMP JUMPDEST PUSH1 0x40 MLOAD DUP1 SWAP2 SUB SWAP1 KECCAK256 PUSH32 0xB7BAA76EDD3A99D16B21483732A4FAF53358DDB1A8E763C33E642188D081FB91 DUP3 DUP5 PUSH1 0x40 MLOAD PUSH2 0x3FB5 SWAP3 SWAP2 SWAP1 PUSH2 0x57A6 JUMP JUMPDEST PUSH1 0x40 MLOAD DUP1 SWAP2 SUB SWAP1 LOG2 DUP2 PUSH1 0x40 MLOAD PUSH2 0x3FCB SWAP2 SWAP1 PUSH2 0x55F0 JUMP JUMPDEST PUSH1 0x40 MLOAD DUP1 SWAP2 SUB SWAP1 KECCAK256 PUSH32 0x1C689139005CD3EE797C36342AF9903D8C6EAD9E1A454F9C3F89AB89A4AE9F58 DUP3 DUP5 PUSH1 0x40 MLOAD PUSH2 0x4004 SWAP3 SWAP2 SWAP1 PUSH2 0x57A6 JUMP JUMPDEST PUSH1 0x40 MLOAD DUP1 SWAP2 SUB SWAP1 LOG2 POP POP JUMP JUMPDEST PUSH1 0x60 PUSH1 0x0 DUP1 DUP4 PUSH1 0x40 MLOAD PUSH2 0x4023 SWAP2 SWAP1 PUSH2 0x55F0 JUMP JUMPDEST SWAP1 DUP2 MSTORE PUSH1 0x20 ADD PUSH1 0x40 MLOAD DUP1 SWAP2 SUB SWAP1 KECCAK256 PUSH1 0x0 ADD DUP1 SLOAD PUSH2 0x403F SWAP1 PUSH2 0x5C50 JUMP JUMPDEST SWAP1 POP GT PUSH2 0x4081 JUMPI PUSH1 0x40 MLOAD PUSH32 0x8C379A000000000000000000000000000000000000000000000000000000000 DUP2 MSTORE PUSH1 0x4 ADD PUSH2 0x4078 SWAP1 PUSH2 0x5A44 JUMP JUMPDEST PUSH1 0x40 MLOAD DUP1 SWAP2 SUB SWAP1 REVERT JUMPDEST PUSH1 0x0 PUSH1 0x3 DUP1 SLOAD SWAP1 POP PUSH8 0xFFFFFFFFFFFFFFFF DUP2 GT ISZERO PUSH2 0x40C8 JUMPI PUSH32 0x4E487B7100000000000000000000000000000000000000000000000000000000 PUSH1 0x0 MSTORE PUSH1 0x41 PUSH1 0x4 MSTORE PUSH1 0x24 PUSH1 0x0 REVERT JUMPDEST PUSH1 0x40 MLOAD SWAP1 DUP1 DUP3 MSTORE DUP1 PUSH1 0x20 MUL PUSH1 0x20 ADD DUP3 ADD PUSH1 0x40 MSTORE DUP1 ISZERO PUSH2 0x40FB JUMPI DUP2 PUSH1 0x20 ADD JUMPDEST PUSH1 0x60 DUP2 MSTORE PUSH1 0x20 ADD SWAP1 PUSH1 0x1 SWAP1 SUB SWAP1 DUP2 PUSH2 0x40E6 JUMPI SWAP1 POP JUMPDEST POP SWAP1 POP PUSH1 0x0 DUP1 JUMPDEST PUSH1 0x3 DUP1 SLOAD SWAP1 POP DUP2 LT ISZERO PUSH2 0x432B JUMPI PUSH1 0x0 PUSH1 0x1 PUSH1 0x3 DUP4 DUP2 SLOAD DUP2 LT PUSH2 0x414D JUMPI PUSH32 0x4E487B7100000000000000000000000000000000000000000000000000000000 PUSH1 0x0 MSTORE PUSH1 0x32 PUSH1 0x4 MSTORE PUSH1 0x24 PUSH1 0x0 REVERT JUMPDEST SWAP1 PUSH1 0x0 MSTORE PUSH1 0x20 PUSH1 0x0 KECCAK256 ADD PUSH1 0x40 MLOAD PUSH2 0x4164 SWAP2 SWAP1 PUSH2 0x5607 JUMP JUMPDEST SWAP1 DUP2 MSTORE PUSH1 0x20 ADD PUSH1 0x40 MLOAD DUP1 SWAP2 SUB SWAP1 KECCAK256 SWAP1 POP PUSH1 0x0 JUMPDEST DUP2 PUSH1 0x1 ADD DUP1 SLOAD SWAP1 POP DUP2 LT ISZERO PUSH2 0x4316 JUMPI DUP7 PUSH1 0x40 MLOAD PUSH1 0x20 ADD PUSH2 0x4197 SWAP2 SWAP1 PUSH2 0x55F0 JUMP JUMPDEST PUSH1 0x40 MLOAD PUSH1 0x20 DUP2 DUP4 SUB SUB DUP2 MSTORE SWAP1 PUSH1 0x40 MSTORE DUP1 MLOAD SWAP1 PUSH1 0x20 ADD KECCAK256 DUP3 PUSH1 0x1 ADD DUP3 DUP2 SLOAD DUP2 LT PUSH2 0x41E9 JUMPI PUSH32 0x4E487B7100000000000000000000000000000000000000000000000000000000 PUSH1 0x0 MSTORE PUSH1 0x32 PUSH1 0x4 MSTORE PUSH1 0x24 PUSH1 0x0 REVERT JUMPDEST SWAP1 PUSH1 0x0 MSTORE PUSH1 0x20 PUSH1 0x0 KECCAK256 ADD PUSH1 0x40 MLOAD PUSH1 0x20 ADD PUSH2 0x4203 SWAP2 SWAP1 PUSH2 0x5607 JUMP JUMPDEST PUSH1 0x40 MLOAD PUSH1 0x20 DUP2 DUP4 SUB SUB DUP2 MSTORE SWAP1 PUSH1 0x40 MSTORE DUP1 MLOAD SWAP1 PUSH1 0x20 ADD KECCAK256 EQ ISZERO PUSH2 0x4303 JUMPI DUP2 PUSH1 0x0 ADD DUP1 SLOAD PUSH2 0x422E SWAP1 PUSH2 0x5C50 JUMP JUMPDEST DUP1 PUSH1 0x1F ADD PUSH1 0x20 DUP1 SWAP2 DIV MUL PUSH1 0x20 ADD PUSH1 0x40 MLOAD SWAP1 DUP2 ADD PUSH1 0x40 MSTORE DUP1 SWAP3 SWAP2 SWAP1 DUP2 DUP2 MSTORE PUSH1 0x20 ADD DUP3 DUP1 SLOAD PUSH2 0x425A SWAP1 PUSH2 0x5C50 JUMP JUMPDEST DUP1 ISZERO PUSH2 0x42A7 JUMPI DUP1 PUSH1 0x1F LT PUSH2 0x427C JUMPI PUSH2 0x100 DUP1 DUP4 SLOAD DIV MUL DUP4 MSTORE SWAP2 PUSH1 0x20 ADD SWAP2 PUSH2 0x42A7 JUMP JUMPDEST DUP3 ADD SWAP2 SWAP1 PUSH1 0x0 MSTORE PUSH1 0x20 PUSH1 0x0 KECCAK256 SWAP1 JUMPDEST DUP2 SLOAD DUP2 MSTORE SWAP1 PUSH1 0x1 ADD SWAP1 PUSH1 0x20 ADD DUP1 DUP4 GT PUSH2 0x428A JUMPI DUP3 SWAP1 SUB PUSH1 0x1F AND DUP3 ADD SWAP2 JUMPDEST POP POP POP POP POP DUP6 DUP6 DUP2 MLOAD DUP2 LT PUSH2 0x42E5 JUMPI PUSH32 0x4E487B7100000000000000000000000000000000000000000000000000000000 PUSH1 0x0 MSTORE PUSH1 0x32 PUSH1 0x4 MSTORE PUSH1 0x24 PUSH1 0x0 REVERT JUMPDEST PUSH1 0x20 MUL PUSH1 0x20 ADD ADD DUP2 SWAP1 MSTORE POP DUP4 DUP1 PUSH2 0x42FB SWAP1 PUSH2 0x5C82 JUMP JUMPDEST SWAP5 POP POP PUSH2 0x4316 JUMP JUMPDEST DUP1 DUP1 PUSH2 0x430E SWAP1 PUSH2 0x5C82 JUMP JUMPDEST SWAP2 POP POP PUSH2 0x4177 JUMP JUMPDEST POP POP DUP1 DUP1 PUSH2 0x4323 SWAP1 PUSH2 0x5C82 JUMP JUMPDEST SWAP2 POP POP PUSH2 0x4102 JUMP JUMPDEST POP PUSH1 0x0 PUSH1 0x32 PUSH8 0xFFFFFFFFFFFFFFFF DUP2 GT ISZERO PUSH2 0x436F JUMPI PUSH32 0x4E487B7100000000000000000000000000000000000000000000000000000000 PUSH1 0x0 MSTORE PUSH1 0x41 PUSH1 0x4 MSTORE PUSH1 0x24 PUSH1 0x0 REVERT JUMPDEST PUSH1 0x40 MLOAD SWAP1 DUP1 DUP3 MSTORE DUP1 PUSH1 0x20 MUL PUSH1 0x20 ADD DUP3 ADD PUSH1 0x40 MSTORE DUP1 ISZERO PUSH2 0x43A2 JUMPI DUP2 PUSH1 0x20 ADD JUMPDEST PUSH1 0x60 DUP2 MSTORE PUSH1 0x20 ADD SWAP1 PUSH1 0x1 SWAP1 SUB SWAP1 DUP2 PUSH2 0x438D JUMPI SWAP1 POP JUMPDEST POP SWAP1 POP PUSH1 0x0 DUP1 JUMPDEST DUP4 DUP2 LT ISZERO PUSH2 0x4677 JUMPI PUSH1 0x0 DUP6 DUP3 DUP2 MLOAD DUP2 LT PUSH2 0x43EC JUMPI PUSH32 0x4E487B7100000000000000000000000000000000000000000000000000000000 PUSH1 0x0 MSTORE PUSH1 0x32 PUSH1 0x4 MSTORE PUSH1 0x24 PUSH1 0x0 REVERT JUMPDEST PUSH1 0x20 MUL PUSH1 0x20 ADD ADD MLOAD SWAP1 POP PUSH1 0x0 PUSH1 0x1 DUP3 PUSH1 0x40 MLOAD PUSH2 0x4408 SWAP2 SWAP1 PUSH2 0x55F0 JUMP JUMPDEST SWAP1 DUP2 MSTORE PUSH1 0x20 ADD PUSH1 0x40 MLOAD DUP1 SWAP2 SUB SWAP1 KECCAK256 PUSH1 0x2 ADD SWAP1 POP PUSH1 0x0 JUMPDEST DUP2 DUP1 SLOAD SWAP1 POP DUP2 LT ISZERO PUSH2 0x4661 JUMPI PUSH1 0x0 DUP1 JUMPDEST DUP7 DUP2 LT ISZERO PUSH2 0x4528 JUMPI DUP4 DUP4 DUP2 SLOAD DUP2 LT PUSH2 0x446F JUMPI PUSH32 0x4E487B7100000000000000000000000000000000000000000000000000000000 PUSH1 0x0 MSTORE PUSH1 0x32 PUSH1 0x4 MSTORE PUSH1 0x24 PUSH1 0x0 REVERT JUMPDEST SWAP1 PUSH1 0x0 MSTORE PUSH1 0x20 PUSH1 0x0 KECCAK256 ADD PUSH1 0x40 MLOAD PUSH1 0x20 ADD PUSH2 0x4489 SWAP2 SWAP1 PUSH2 0x5607 JUMP JUMPDEST PUSH1 0x40 MLOAD PUSH1 0x20 DUP2 DUP4 SUB SUB DUP2 MSTORE SWAP1 PUSH1 0x40 MSTORE DUP1 MLOAD SWAP1 PUSH1 0x20 ADD KECCAK256 DUP9 DUP3 DUP2 MLOAD DUP2 LT PUSH2 0x44D8 JUMPI PUSH32 0x4E487B7100000000000000000000000000000000000000000000000000000000 PUSH1 0x0 MSTORE PUSH1 0x32 PUSH1 0x4 MSTORE PUSH1 0x24 PUSH1 0x0 REVERT JUMPDEST PUSH1 0x20 MUL PUSH1 0x20 ADD ADD MLOAD PUSH1 0x40 MLOAD PUSH1 0x20 ADD PUSH2 0x44F0 SWAP2 SWAP1 PUSH2 0x55F0 JUMP JUMPDEST PUSH1 0x40 MLOAD PUSH1 0x20 DUP2 DUP4 SUB SUB DUP2 MSTORE SWAP1 PUSH1 0x40 MSTORE DUP1 MLOAD SWAP1 PUSH1 0x20 ADD KECCAK256 EQ ISZERO PUSH2 0x4515 JUMPI PUSH1 0x1 SWAP2 POP PUSH2 0x4528 JUMP JUMPDEST DUP1 DUP1 PUSH2 0x4520 SWAP1 PUSH2 0x5C82 JUMP JUMPDEST SWAP2 POP POP PUSH2 0x442E JUMP JUMPDEST POP DUP1 PUSH2 0x464D JUMPI DUP3 DUP3 DUP2 SLOAD DUP2 LT PUSH2 0x4567 JUMPI PUSH32 0x4E487B7100000000000000000000000000000000000000000000000000000000 PUSH1 0x0 MSTORE PUSH1 0x32 PUSH1 0x4 MSTORE PUSH1 0x24 PUSH1 0x0 REVERT JUMPDEST SWAP1 PUSH1 0x0 MSTORE PUSH1 0x20 PUSH1 0x0 KECCAK256 ADD DUP1 SLOAD PUSH2 0x457C SWAP1 PUSH2 0x5C50 JUMP JUMPDEST DUP1 PUSH1 0x1F ADD PUSH1 0x20 DUP1 SWAP2 DIV MUL PUSH1 0x20 ADD PUSH1 0x40 MLOAD SWAP1 DUP2 ADD PUSH1 0x40 MSTORE DUP1 SWAP3 SWAP2 SWAP1 DUP2 DUP2 MSTORE PUSH1 0x20 ADD DUP3 DUP1 SLOAD PUSH2 0x45A8 SWAP1 PUSH2 0x5C50 JUMP JUMPDEST DUP1 ISZERO PUSH2 0x45F5 JUMPI DUP1 PUSH1 0x1F LT PUSH2 0x45CA JUMPI PUSH2 0x100 DUP1 DUP4 SLOAD DIV MUL DUP4 MSTORE SWAP2 PUSH1 0x20 ADD SWAP2 PUSH2 0x45F5 JUMP JUMPDEST DUP3 ADD SWAP2 SWAP1 PUSH1 0x0 MSTORE PUSH1 0x20 PUSH1 0x0 KECCAK256 SWAP1 JUMPDEST DUP2 SLOAD DUP2 MSTORE SWAP1 PUSH1 0x1 ADD SWAP1 PUSH1 0x20 ADD DUP1 DUP4 GT PUSH2 0x45D8 JUMPI DUP3 SWAP1 SUB PUSH1 0x1F AND DUP3 ADD SWAP2 JUMPDEST POP POP POP POP POP DUP8 DUP8 DUP2 MLOAD DUP2 LT PUSH2 0x4633 JUMPI PUSH32 0x4E487B7100000000000000000000000000000000000000000000000000000000 PUSH1 0x0 MSTORE PUSH1 0x32 PUSH1 0x4 MSTORE PUSH1 0x24 PUSH1 0x0 REVERT JUMPDEST PUSH1 0x20 MUL PUSH1 0x20 ADD ADD DUP2 SWAP1 MSTORE POP DUP6 DUP1 PUSH2 0x4649 SWAP1 PUSH2 0x5C82 JUMP JUMPDEST SWAP7 POP POP JUMPDEST POP DUP1 DUP1 PUSH2 0x4659 SWAP1 PUSH2 0x5C82 JUMP JUMPDEST SWAP2 POP POP PUSH2 0x441E JUMP JUMPDEST POP POP POP DUP1 DUP1 PUSH2 0x466F SWAP1 PUSH2 0x5C82 JUMP JUMPDEST SWAP2 POP POP PUSH2 0x43A9 JUMP JUMPDEST POP PUSH1 0x0 DUP2 PUSH8 0xFFFFFFFFFFFFFFFF DUP2 GT ISZERO PUSH2 0x46BA JUMPI PUSH32 0x4E487B7100000000000000000000000000000000000000000000000000000000 PUSH1 0x0 MSTORE PUSH1 0x41 PUSH1 0x4 MSTORE PUSH1 0x24 PUSH1 0x0 REVERT JUMPDEST PUSH1 0x40 MLOAD SWAP1 DUP1 DUP3 MSTORE DUP1 PUSH1 0x20 MUL PUSH1 0x20 ADD DUP3 ADD PUSH1 0x40 MSTORE DUP1 ISZERO PUSH2 0x46ED JUMPI DUP2 PUSH1 0x20 ADD JUMPDEST PUSH1 0x60 DUP2 MSTORE PUSH1 0x20 ADD SWAP1 PUSH1 0x1 SWAP1 SUB SWAP1 DUP2 PUSH2 0x46D8 JUMPI SWAP1 POP JUMPDEST POP SWAP1 POP PUSH1 0x0 JUMPDEST DUP3 DUP2 LT ISZERO PUSH2 0x4793 JUMPI DUP4 DUP2 DUP2 MLOAD DUP2 LT PUSH2 0x4734 JUMPI PUSH32 0x4E487B7100000000000000000000000000000000000000000000000000000000 PUSH1 0x0 MSTORE PUSH1 0x32 PUSH1 0x4 MSTORE PUSH1 0x24 PUSH1 0x0 REVERT JUMPDEST PUSH1 0x20 MUL PUSH1 0x20 ADD ADD MLOAD DUP3 DUP3 DUP2 MLOAD DUP2 LT PUSH2 0x4775 JUMPI PUSH32 0x4E487B7100000000000000000000000000000000000000000000000000000000 PUSH1 0x0 MSTORE PUSH1 0x32 PUSH1 0x4 MSTORE PUSH1 0x24 PUSH1 0x0 REVERT JUMPDEST PUSH1 0x20 MUL PUSH1 0x20 ADD ADD DUP2 SWAP1 MSTORE POP DUP1 DUP1 PUSH2 0x478B SWAP1 PUSH2 0x5C82 JUMP JUMPDEST SWAP2 POP POP PUSH2 0x46F3 JUMP JUMPDEST POP DUP1 SWAP6 POP POP POP POP POP POP SWAP2 SWAP1 POP JUMP JUMPDEST DUP3 DUP1 SLOAD DUP3 DUP3 SSTORE SWAP1 PUSH1 0x0 MSTORE PUSH1 0x20 PUSH1 0x0 KECCAK256 SWAP1 DUP2 ADD SWAP3 DUP3 ISZERO PUSH2 0x47F0 JUMPI SWAP2 PUSH1 0x20 MUL DUP3 ADD JUMPDEST DUP3 DUP2 GT ISZERO PUSH2 0x47EF JUMPI DUP3 MLOAD DUP3 SWAP1 DUP1 MLOAD SWAP1 PUSH1 0x20 ADD SWAP1 PUSH2 0x47DF SWAP3 SWAP2 SWAP1 PUSH2 0x4801 JUMP JUMPDEST POP SWAP2 PUSH1 0x20 ADD SWAP2 SWAP1 PUSH1 0x1 ADD SWAP1 PUSH2 0x47C1 JUMP JUMPDEST JUMPDEST POP SWAP1 POP PUSH2 0x47FD SWAP2 SWAP1 PUSH2 0x4A6A JUMP JUMPDEST POP SWAP1 JUMP JUMPDEST DUP3 DUP1 SLOAD PUSH2 0x480D SWAP1 PUSH2 0x5C50 JUMP JUMPDEST SWAP1 PUSH1 0x0 MSTORE PUSH1 0x20 PUSH1 0x0 KECCAK256 SWAP1 PUSH1 0x1F ADD PUSH1 0x20 SWAP1 DIV DUP2 ADD SWAP3 DUP3 PUSH2 0x482F JUMPI PUSH1 0x0 DUP6 SSTORE PUSH2 0x4876 JUMP JUMPDEST DUP3 PUSH1 0x1F LT PUSH2 0x4848 JUMPI DUP1 MLOAD PUSH1 0xFF NOT AND DUP4 DUP1 ADD OR DUP6 SSTORE PUSH2 0x4876 JUMP JUMPDEST DUP3 DUP1 ADD PUSH1 0x1 ADD DUP6 SSTORE DUP3 ISZERO PUSH2 0x4876 JUMPI SWAP2 DUP3 ADD JUMPDEST DUP3 DUP2 GT ISZERO PUSH2 0x4875 JUMPI DUP3 MLOAD DUP3 SSTORE SWAP2 PUSH1 0x20 ADD SWAP2 SWAP1 PUSH1 0x1 ADD SWAP1 PUSH2 0x485A JUMP JUMPDEST JUMPDEST POP SWAP1 POP PUSH2 0x4883 SWAP2 SWAP1 PUSH2 0x4A8E JUMP JUMPDEST POP SWAP1 JUMP JUMPDEST DUP3 DUP1 SLOAD PUSH2 0x4893 SWAP1 PUSH2 0x5C50 JUMP JUMPDEST SWAP1 PUSH1 0x0 MSTORE PUSH1 0x20 PUSH1 0x0 KECCAK256 SWAP1 PUSH1 0x1F ADD PUSH1 0x20 SWAP1 DIV DUP2 ADD SWAP3 DUP3 PUSH2 0x48B5 JUMPI PUSH1 0x0 DUP6 SSTORE PUSH2 0x4903 JUMP JUMPDEST DUP3 PUSH1 0x1F LT PUSH2 0x48C6 JUMPI DUP1 SLOAD DUP6 SSTORE PUSH2 0x4903 JUMP JUMPDEST DUP3 DUP1 ADD PUSH1 0x1 ADD DUP6 SSTORE DUP3 ISZERO PUSH2 0x4903 JUMPI PUSH1 0x0 MSTORE PUSH1 0x20 PUSH1 0x0 KECCAK256 SWAP2 PUSH1 0x1F ADD PUSH1 0x20 SWAP1 DIV DUP3 ADD JUMPDEST DUP3 DUP2 GT ISZERO PUSH2 0x4902 JUMPI DUP3 SLOAD DUP3 SSTORE SWAP2 PUSH1 0x1 ADD SWAP2 SWAP1 PUSH1 0x1 ADD SWAP1 PUSH2 0x48E7 JUMP JUMPDEST JUMPDEST POP SWAP1 POP PUSH2 0x4910 SWAP2 SWAP1 PUSH2 0x4A8E JUMP JUMPDEST POP SWAP1 JUMP JUMPDEST DUP3 DUP1 SLOAD DUP3 DUP3 SSTORE SWAP1 PUSH1 0x0 MSTORE PUSH1 0x20 PUSH1 0x0 KECCAK256 SWAP1 DUP2 ADD SWAP3 DUP3 ISZERO PUSH2 0x496B JUMPI PUSH1 0x0 MSTORE PUSH1 0x20 PUSH1 0x0 KECCAK256 SWAP2 DUP3 ADD JUMPDEST DUP3 DUP2 GT ISZERO PUSH2 0x496A JUMPI DUP3 DUP3 SWAP1 DUP1 SLOAD PUSH2 0x494F SWAP1 PUSH2 0x5C50 JUMP JUMPDEST PUSH2 0x495A SWAP3 SWAP2 SWAP1 PUSH2 0x4887 JUMP JUMPDEST POP SWAP2 PUSH1 0x1 ADD SWAP2 SWAP1 PUSH1 0x1 ADD SWAP1 PUSH2 0x4939 JUMP JUMPDEST JUMPDEST POP SWAP1 POP PUSH2 0x4978 SWAP2 SWAP1 PUSH2 0x4A6A JUMP JUMPDEST POP SWAP1 JUMP JUMPDEST POP DUP1 SLOAD PUSH2 0x4988 SWAP1 PUSH2 0x5C50 JUMP JUMPDEST PUSH1 0x0 DUP3 SSTORE DUP1 PUSH1 0x1F LT PUSH2 0x499A JUMPI POP PUSH2 0x49B9 JUMP JUMPDEST PUSH1 0x1F ADD PUSH1 0x20 SWAP1 DIV SWAP1 PUSH1 0x0 MSTORE PUSH1 0x20 PUSH1 0x0 KECCAK256 SWAP1 DUP2 ADD SWAP1 PUSH2 0x49B8 SWAP2 SWAP1 PUSH2 0x4A8E JUMP JUMPDEST JUMPDEST POP JUMP JUMPDEST POP DUP1 SLOAD PUSH1 0x0 DUP3 SSTORE SWAP1 PUSH1 0x0 MSTORE PUSH1 0x20 PUSH1 0x0 KECCAK256 SWAP1 DUP2 ADD SWAP1 PUSH2 0x49DA SWAP2 SWAP1 PUSH2 0x4A6A JUMP JUMPDEST POP JUMP JUMPDEST DUP3 DUP1 SLOAD PUSH2 0x49E9 SWAP1 PUSH2 0x5C50 JUMP JUMPDEST SWAP1 PUSH1 0x0 MSTORE PUSH1 0x20 PUSH1 0x0 KECCAK256 SWAP1 PUSH1 0x1F ADD PUSH1 0x20 SWAP1 DIV DUP2 ADD SWAP3 DUP3 PUSH2 0x4A0B JUMPI PUSH1 0x0 DUP6 SSTORE PUSH2 0x4A59 JUMP JUMPDEST DUP3 PUSH1 0x1F LT PUSH2 0x4A1C JUMPI DUP1 SLOAD DUP6 SSTORE PUSH2 0x4A59 JUMP JUMPDEST DUP3 DUP1 ADD PUSH1 0x1 ADD DUP6 SSTORE DUP3 ISZERO PUSH2 0x4A59 JUMPI PUSH1 0x0 MSTORE PUSH1 0x20 PUSH1 0x0 KECCAK256 SWAP2 PUSH1 0x1F ADD PUSH1 0x20 SWAP1 DIV DUP3 ADD JUMPDEST DUP3 DUP2 GT ISZERO PUSH2 0x4A58 JUMPI DUP3 SLOAD DUP3 SSTORE SWAP2 PUSH1 0x1 ADD SWAP2 SWAP1 PUSH1 0x1 ADD SWAP1 PUSH2 0x4A3D JUMP JUMPDEST JUMPDEST POP SWAP1 POP PUSH2 0x4A66 SWAP2 SWAP1 PUSH2 0x4A8E JUMP JUMPDEST POP SWAP1 JUMP JUMPDEST JUMPDEST DUP1 DUP3 GT ISZERO PUSH2 0x4A8A JUMPI PUSH1 0x0 DUP2 DUP2 PUSH2 0x4A81 SWAP2 SWAP1 PUSH2 0x497C JUMP JUMPDEST POP PUSH1 0x1 ADD PUSH2 0x4A6B JUMP JUMPDEST POP SWAP1 JUMP JUMPDEST JUMPDEST DUP1 DUP3 GT ISZERO PUSH2 0x4AA7 JUMPI PUSH1 0x0 DUP2 PUSH1 0x0 SWAP1 SSTORE POP PUSH1 0x1 ADD PUSH2 0x4A8F JUMP JUMPDEST POP SWAP1 JUMP JUMPDEST PUSH1 0x0 PUSH2 0x4ABE PUSH2 0x4AB9 DUP5 PUSH2 0x5AB5 JUMP JUMPDEST PUSH2 0x5A84 JUMP JUMPDEST SWAP1 POP DUP1 DUP4 DUP3 MSTORE PUSH1 0x20 DUP3 ADD SWAP1 POP DUP3 PUSH1 0x0 JUMPDEST DUP6 DUP2 LT ISZERO PUSH2 0x4AFE JUMPI DUP2 CALLDATALOAD DUP6 ADD PUSH2 0x4AE4 DUP9 DUP3 PUSH2 0x4B70 JUMP JUMPDEST DUP5 MSTORE PUSH1 0x20 DUP5 ADD SWAP4 POP PUSH1 0x20 DUP4 ADD SWAP3 POP POP PUSH1 0x1 DUP2 ADD SWAP1 POP PUSH2 0x4ACE JUMP JUMPDEST POP POP POP SWAP4 SWAP3 POP POP POP JUMP JUMPDEST PUSH1 0x0 PUSH2 0x4B1B PUSH2 0x4B16 DUP5 PUSH2 0x5AE1 JUMP JUMPDEST PUSH2 0x5A84 JUMP JUMPDEST SWAP1 POP DUP3 DUP2 MSTORE PUSH1 0x20 DUP2 ADD DUP5 DUP5 DUP5 ADD GT ISZERO PUSH2 0x4B33 JUMPI PUSH1 0x0 DUP1 REVERT JUMPDEST PUSH2 0x4B3E DUP5 DUP3 DUP6 PUSH2 0x5C0E JUMP JUMPDEST POP SWAP4 SWAP3 POP POP POP JUMP JUMPDEST PUSH1 0x0 DUP3 PUSH1 0x1F DUP4 ADD SLT PUSH2 0x4B57 JUMPI PUSH1 0x0 DUP1 REVERT JUMPDEST DUP2 CALLDATALOAD PUSH2 0x4B67 DUP5 DUP3 PUSH1 0x20 DUP7 ADD PUSH2 0x4AAB JUMP JUMPDEST SWAP2 POP POP SWAP3 SWAP2 POP POP JUMP JUMPDEST PUSH1 0x0 DUP3 PUSH1 0x1F DUP4 ADD SLT PUSH2 0x4B81 JUMPI PUSH1 0x0 DUP1 REVERT JUMPDEST DUP2 CALLDATALOAD PUSH2 0x4B91 DUP5 DUP3 PUSH1 0x20 DUP7 ADD PUSH2 0x4B08 JUMP JUMPDEST SWAP2 POP POP SWAP3 SWAP2 POP POP JUMP JUMPDEST PUSH1 0x0 PUSH1 0x20 DUP3 DUP5 SUB SLT ISZERO PUSH2 0x4BAC JUMPI PUSH1 0x0 DUP1 REVERT JUMPDEST PUSH1 0x0 DUP3 ADD CALLDATALOAD PUSH8 0xFFFFFFFFFFFFFFFF DUP2 GT ISZERO PUSH2 0x4BC6 JUMPI PUSH1 0x0 DUP1 REVERT JUMPDEST PUSH2 0x4BD2 DUP5 DUP3 DUP6 ADD PUSH2 0x4B70 JUMP JUMPDEST SWAP2 POP POP SWAP3 SWAP2 POP POP JUMP JUMPDEST PUSH1 0x0 DUP1 PUSH1 0x40 DUP4 DUP6 SUB SLT ISZERO PUSH2 0x4BEE JUMPI PUSH1 0x0 DUP1 REVERT JUMPDEST PUSH1 0x0 DUP4 ADD CALLDATALOAD PUSH8 0xFFFFFFFFFFFFFFFF DUP2 GT ISZERO PUSH2 0x4C08 JUMPI PUSH1 0x0 DUP1 REVERT JUMPDEST PUSH2 0x4C14 DUP6 DUP3 DUP7 ADD PUSH2 0x4B70 JUMP JUMPDEST SWAP3 POP POP PUSH1 0x20 DUP4 ADD CALLDATALOAD PUSH8 0xFFFFFFFFFFFFFFFF DUP2 GT ISZERO PUSH2 0x4C31 JUMPI PUSH1 0x0 DUP1 REVERT JUMPDEST PUSH2 0x4C3D DUP6 DUP3 DUP7 ADD PUSH2 0x4B46 JUMP JUMPDEST SWAP2 POP POP SWAP3 POP SWAP3 SWAP1 POP JUMP JUMPDEST PUSH1 0x0 DUP1 PUSH1 0x0 PUSH1 0x60 DUP5 DUP7 SUB SLT ISZERO PUSH2 0x4C5C JUMPI PUSH1 0x0 DUP1 REVERT JUMPDEST PUSH1 0x0 DUP5 ADD CALLDATALOAD PUSH8 0xFFFFFFFFFFFFFFFF DUP2 GT ISZERO PUSH2 0x4C76 JUMPI PUSH1 0x0 DUP1 REVERT JUMPDEST PUSH2 0x4C82 DUP7 DUP3 DUP8 ADD PUSH2 0x4B70 JUMP JUMPDEST SWAP4 POP POP PUSH1 0x20 DUP5 ADD CALLDATALOAD PUSH8 0xFFFFFFFFFFFFFFFF DUP2 GT ISZERO PUSH2 0x4C9F JUMPI PUSH1 0x0 DUP1 REVERT JUMPDEST PUSH2 0x4CAB DUP7 DUP3 DUP8 ADD PUSH2 0x4B46 JUMP JUMPDEST SWAP3 POP POP PUSH1 0x40 DUP5 ADD CALLDATALOAD PUSH8 0xFFFFFFFFFFFFFFFF DUP2 GT ISZERO PUSH2 0x4CC8 JUMPI PUSH1 0x0 DUP1 REVERT JUMPDEST PUSH2 0x4CD4 DUP7 DUP3 DUP8 ADD PUSH2 0x4B70 JUMP JUMPDEST SWAP2 POP POP SWAP3 POP SWAP3 POP SWAP3 JUMP JUMPDEST PUSH1 0x0 DUP1 PUSH1 0x40 DUP4 DUP6 SUB SLT ISZERO PUSH2 0x4CF1 JUMPI PUSH1 0x0 DUP1 REVERT JUMPDEST PUSH1 0x0 DUP4 ADD CALLDATALOAD PUSH8 0xFFFFFFFFFFFFFFFF DUP2 GT ISZERO PUSH2 0x4D0B JUMPI PUSH1 0x0 DUP1 REVERT JUMPDEST PUSH2 0x4D17 DUP6 DUP3 DUP7 ADD PUSH2 0x4B70 JUMP JUMPDEST SWAP3 POP POP PUSH1 0x20 DUP4 ADD CALLDATALOAD PUSH8 0xFFFFFFFFFFFFFFFF DUP2 GT ISZERO PUSH2 0x4D34 JUMPI PUSH1 0x0 DUP1 REVERT JUMPDEST PUSH2 0x4D40 DUP6 DUP3 DUP7 ADD PUSH2 0x4B70 JUMP JUMPDEST SWAP2 POP POP SWAP3 POP SWAP3 SWAP1 POP JUMP JUMPDEST PUSH1 0x0 DUP1 PUSH1 0x0 PUSH1 0x60 DUP5 DUP7 SUB SLT ISZERO PUSH2 0x4D5F JUMPI PUSH1 0x0 DUP1 REVERT JUMPDEST PUSH1 0x0 DUP5 ADD CALLDATALOAD PUSH8 0xFFFFFFFFFFFFFFFF DUP2 GT ISZERO PUSH2 0x4D79 JUMPI PUSH1 0x0 DUP1 REVERT JUMPDEST PUSH2 0x4D85 DUP7 DUP3 DUP8 ADD PUSH2 0x4B70 JUMP JUMPDEST SWAP4 POP POP PUSH1 0x20 DUP5 ADD CALLDATALOAD PUSH8 0xFFFFFFFFFFFFFFFF DUP2 GT ISZERO PUSH2 0x4DA2 JUMPI PUSH1 0x0 DUP1 REVERT JUMPDEST PUSH2 0x4DAE DUP7 DUP3 DUP8 ADD PUSH2 0x4B70 JUMP JUMPDEST SWAP3 POP POP PUSH1 0x40 DUP5 ADD CALLDATALOAD PUSH8 0xFFFFFFFFFFFFFFFF DUP2 GT ISZERO PUSH2 0x4DCB JUMPI PUSH1 0x0 DUP1 REVERT JUMPDEST PUSH2 0x4DD7 DUP7 DUP3 DUP8 ADD PUSH2 0x4B46 JUMP JUMPDEST SWAP2 POP POP SWAP3 POP SWAP3 POP SWAP3 JUMP JUMPDEST PUSH1 0x0 DUP1 PUSH1 0x0 DUP1 PUSH1 0x80 DUP6 DUP8 SUB SLT ISZERO PUSH2 0x4DF7 JUMPI PUSH1 0x0 DUP1 REVERT JUMPDEST PUSH1 0x0 DUP6 ADD CALLDATALOAD PUSH8 0xFFFFFFFFFFFFFFFF DUP2 GT ISZERO PUSH2 0x4E11 JUMPI PUSH1 0x0 DUP1 REVERT JUMPDEST PUSH2 0x4E1D DUP8 DUP3 DUP9 ADD PUSH2 0x4B70 JUMP JUMPDEST SWAP5 POP POP PUSH1 0x20 DUP6 ADD CALLDATALOAD PUSH8 0xFFFFFFFFFFFFFFFF DUP2 GT ISZERO PUSH2 0x4E3A JUMPI PUSH1 0x0 DUP1 REVERT JUMPDEST PUSH2 0x4E46 DUP8 DUP3 DUP9 ADD PUSH2 0x4B70 JUMP JUMPDEST SWAP4 POP POP PUSH1 0x40 DUP6 ADD CALLDATALOAD PUSH8 0xFFFFFFFFFFFFFFFF DUP2 GT ISZERO PUSH2 0x4E63 JUMPI PUSH1 0x0 DUP1 REVERT JUMPDEST PUSH2 0x4E6F DUP8 DUP3 DUP9 ADD PUSH2 0x4B46 JUMP JUMPDEST SWAP3 POP POP PUSH1 0x60 DUP6 ADD CALLDATALOAD PUSH8 0xFFFFFFFFFFFFFFFF DUP2 GT ISZERO PUSH2 0x4E8C JUMPI PUSH1 0x0 DUP1 REVERT JUMPDEST PUSH2 0x4E98 DUP8 DUP3 DUP9 ADD PUSH2 0x4B70 JUMP JUMPDEST SWAP2 POP POP SWAP3 SWAP6 SWAP2 SWAP5 POP SWAP3 POP JUMP JUMPDEST PUSH1 0x0 PUSH2 0x4EB0 DUP4 DUP4 PUSH2 0x4FC4 JUMP JUMPDEST SWAP1 POP SWAP3 SWAP2 POP POP JUMP JUMPDEST PUSH1 0x0 PUSH2 0x4EC4 DUP4 DUP4 PUSH2 0x5067 JUMP JUMPDEST SWAP1 POP SWAP3 SWAP2 POP POP JUMP JUMPDEST PUSH1 0x0 PUSH2 0x4ED7 DUP3 PUSH2 0x5B4B JUMP JUMPDEST PUSH2 0x4EE1 DUP2 DUP6 PUSH2 0x5B86 JUMP JUMPDEST SWAP4 POP DUP4 PUSH1 0x20 DUP3 MUL DUP6 ADD PUSH2 0x4EF3 DUP6 PUSH2 0x5B11 JUMP JUMPDEST DUP1 PUSH1 0x0 JUMPDEST DUP6 DUP2 LT ISZERO PUSH2 0x4F2F JUMPI DUP5 DUP5 SUB DUP10 MSTORE DUP2 MLOAD PUSH2 0x4F10 DUP6 DUP3 PUSH2 0x4EA4 JUMP JUMPDEST SWAP5 POP PUSH2 0x4F1B DUP4 PUSH2 0x5B6C JUMP JUMPDEST SWAP3 POP PUSH1 0x20 DUP11 ADD SWAP10 POP POP PUSH1 0x1 DUP2 ADD SWAP1 POP PUSH2 0x4EF7 JUMP JUMPDEST POP DUP3 SWAP8 POP DUP8 SWAP6 POP POP POP POP POP POP SWAP3 SWAP2 POP POP JUMP JUMPDEST PUSH1 0x0 PUSH2 0x4F4C DUP3 PUSH2 0x5B56 JUMP JUMPDEST PUSH2 0x4F56 DUP2 DUP6 PUSH2 0x5B86 JUMP JUMPDEST SWAP4 POP DUP4 PUSH1 0x20 DUP3 MUL DUP6 ADD PUSH2 0x4F68 DUP6 PUSH2 0x5B21 JUMP JUMPDEST DUP1 PUSH1 0x0 JUMPDEST DUP6 DUP2 LT ISZERO PUSH2 0x4FA3 JUMPI DUP5 DUP5 SUB DUP10 MSTORE DUP2 PUSH2 0x4F84 DUP6 DUP3 PUSH2 0x4EB8 JUMP JUMPDEST SWAP5 POP PUSH2 0x4F8F DUP4 PUSH2 0x5B79 JUMP JUMPDEST SWAP3 POP PUSH1 0x20 DUP11 ADD SWAP10 POP POP PUSH1 0x1 DUP2 ADD SWAP1 POP PUSH2 0x4F6C JUMP JUMPDEST POP DUP3 SWAP8 POP DUP8 SWAP6 POP POP POP POP POP POP SWAP3 SWAP2 POP POP JUMP JUMPDEST PUSH2 0x4FBE DUP2 PUSH2 0x5BF8 JUMP JUMPDEST DUP3 MSTORE POP POP JUMP JUMPDEST PUSH1 0x0 PUSH2 0x4FCF DUP3 PUSH2 0x5B61 JUMP JUMPDEST PUSH2 0x4FD9 DUP2 DUP6 PUSH2 0x5B97 JUMP JUMPDEST SWAP4 POP PUSH2 0x4FE9 DUP2 DUP6 PUSH1 0x20 DUP7 ADD PUSH2 0x5C1D JUMP JUMPDEST PUSH2 0x4FF2 DUP2 PUSH2 0x5D58 JUMP JUMPDEST DUP5 ADD SWAP2 POP POP SWAP3 SWAP2 POP POP JUMP JUMPDEST PUSH1 0x0 PUSH2 0x5008 DUP3 PUSH2 0x5B61 JUMP JUMPDEST PUSH2 0x5012 DUP2 DUP6 PUSH2 0x5BA8 JUMP JUMPDEST SWAP4 POP PUSH2 0x5022 DUP2 DUP6 PUSH1 0x20 DUP7 ADD PUSH2 0x5C1D JUMP JUMPDEST PUSH2 0x502B DUP2 PUSH2 0x5D58 JUMP JUMPDEST DUP5 ADD SWAP2 POP POP SWAP3 SWAP2 POP POP JUMP JUMPDEST PUSH1 0x0 PUSH2 0x5041 DUP3 PUSH2 0x5B61 JUMP JUMPDEST PUSH2 0x504B DUP2 DUP6 PUSH2 0x5BB9 JUMP JUMPDEST SWAP4 POP PUSH2 0x505B DUP2 DUP6 PUSH1 0x20 DUP7 ADD PUSH2 0x5C1D JUMP JUMPDEST DUP1 DUP5 ADD SWAP2 POP POP SWAP3 SWAP2 POP POP JUMP JUMPDEST PUSH1 0x0 DUP2 SLOAD PUSH2 0x5074 DUP2 PUSH2 0x5C50 JUMP JUMPDEST PUSH2 0x507E DUP2 DUP7 PUSH2 0x5B97 JUMP JUMPDEST SWAP5 POP PUSH1 0x1 DUP3 AND PUSH1 0x0 DUP2 EQ PUSH2 0x5099 JUMPI PUSH1 0x1 DUP2 EQ PUSH2 0x50AB JUMPI PUSH2 0x50DE JUMP JUMPDEST PUSH1 0xFF NOT DUP4 AND DUP7 MSTORE PUSH1 0x20 DUP7 ADD SWAP4 POP PUSH2 0x50DE JUMP JUMPDEST PUSH2 0x50B4 DUP6 PUSH2 0x5B36 JUMP JUMPDEST PUSH1 0x0 JUMPDEST DUP4 DUP2 LT ISZERO PUSH2 0x50D6 JUMPI DUP2 SLOAD DUP2 DUP10 ADD MSTORE PUSH1 0x1 DUP3 ADD SWAP2 POP PUSH1 0x20 DUP2 ADD SWAP1 POP PUSH2 0x50B7 JUMP JUMPDEST DUP1 DUP9 ADD SWAP6 POP POP POP JUMPDEST POP POP POP SWAP3 SWAP2 POP POP JUMP JUMPDEST PUSH1 0x0 DUP2 SLOAD PUSH2 0x50F4 DUP2 PUSH2 0x5C50 JUMP JUMPDEST PUSH2 0x50FE DUP2 DUP7 PUSH2 0x5BA8 JUMP JUMPDEST SWAP5 POP PUSH1 0x1 DUP3 AND PUSH1 0x0 DUP2 EQ PUSH2 0x5119 JUMPI PUSH1 0x1 DUP2 EQ PUSH2 0x512B JUMPI PUSH2 0x515E JUMP JUMPDEST PUSH1 0xFF NOT DUP4 AND DUP7 MSTORE PUSH1 0x20 DUP7 ADD SWAP4 POP PUSH2 0x515E JUMP JUMPDEST PUSH2 0x5134 DUP6 PUSH2 0x5B36 JUMP JUMPDEST PUSH1 0x0 JUMPDEST DUP4 DUP2 LT ISZERO PUSH2 0x5156 JUMPI DUP2 SLOAD DUP2 DUP10 ADD MSTORE PUSH1 0x1 DUP3 ADD SWAP2 POP PUSH1 0x20 DUP2 ADD SWAP1 POP PUSH2 0x5137 JUMP JUMPDEST DUP1 DUP9 ADD SWAP6 POP POP POP JUMPDEST POP POP POP SWAP3 SWAP2 POP POP JUMP JUMPDEST PUSH1 0x0 DUP2 SLOAD PUSH2 0x5174 DUP2 PUSH2 0x5C50 JUMP JUMPDEST PUSH2 0x517E DUP2 DUP7 PUSH2 0x5BB9 JUMP JUMPDEST SWAP5 POP PUSH1 0x1 DUP3 AND PUSH1 0x0 DUP2 EQ PUSH2 0x5199 JUMPI PUSH1 0x1 DUP2 EQ PUSH2 0x51AA JUMPI PUSH2 0x51DD JUMP JUMPDEST PUSH1 0xFF NOT DUP4 AND DUP7 MSTORE DUP2 DUP7 ADD SWAP4 POP PUSH2 0x51DD JUMP JUMPDEST PUSH2 0x51B3 DUP6 PUSH2 0x5B36 JUMP JUMPDEST PUSH1 0x0 JUMPDEST DUP4 DUP2 LT ISZERO PUSH2 0x51D5 JUMPI DUP2 SLOAD DUP2 DUP10 ADD MSTORE PUSH1 0x1 DUP3 ADD SWAP2 POP PUSH1 0x20 DUP2 ADD SWAP1 POP PUSH2 0x51B6 JUMP JUMPDEST DUP4 DUP9 ADD SWAP6 POP POP POP JUMPDEST POP POP POP SWAP3 SWAP2 POP POP JUMP JUMPDEST PUSH1 0x0 PUSH2 0x51F3 PUSH1 0x20 DUP4 PUSH2 0x5BA8 JUMP JUMPDEST SWAP2 POP PUSH32 0x47726F7570206E6F7420666F756E6420696E20616C6C47726F75704E616D6573 PUSH1 0x0 DUP4 ADD MSTORE PUSH1 0x20 DUP3 ADD SWAP1 POP SWAP2 SWAP1 POP JUMP JUMPDEST PUSH1 0x0 PUSH2 0x5233 PUSH1 0x33 DUP4 PUSH2 0x5BA8 JUMP JUMPDEST SWAP2 POP PUSH32 0x52656D6F76696E672075736572732066726F6D20746865205573657273206772 PUSH1 0x0 DUP4 ADD MSTORE PUSH32 0x6F7570206973206E6F7420616C6C6F7765642100000000000000000000000000 PUSH1 0x20 DUP4 ADD MSTORE PUSH1 0x40 DUP3 ADD SWAP1 POP SWAP2 SWAP1 POP JUMP JUMPDEST PUSH1 0x0 PUSH2 0x5299 PUSH1 0x5 DUP4 PUSH2 0x5BB9 JUMP JUMPDEST SWAP2 POP PUSH32 0x5573657273000000000000000000000000000000000000000000000000000000 PUSH1 0x0 DUP4 ADD MSTORE PUSH1 0x5 DUP3 ADD SWAP1 POP SWAP2 SWAP1 POP JUMP JUMPDEST PUSH1 0x0 PUSH2 0x52D9 PUSH1 0x2F DUP4 PUSH2 0x5BA8 JUMP JUMPDEST SWAP2 POP PUSH32 0x4D6F64696679696E6720636F72652067726F7570207065726D697373696F6E73 PUSH1 0x0 DUP4 ADD MSTORE PUSH32 0x206973206E6F7420616C6C6F7765640000000000000000000000000000000000 PUSH1 0x20 DUP4 ADD MSTORE PUSH1 0x40 DUP3 ADD SWAP1 POP SWAP2 SWAP1 POP JUMP JUMPDEST PUSH1 0x0 PUSH2 0x533F PUSH1 0x42 DUP4 PUSH2 0x5BA8 JUMP JUMPDEST SWAP2 POP PUSH32 0x44656C6574696E6720746865206F726967696E616C20736D61727420636F6E74 PUSH1 0x0 DUP4 ADD MSTORE PUSH32 0x726163742061646D696E6973747261746F72206973206E6F7420616C6C6F7765 PUSH1 0x20 DUP4 ADD MSTORE PUSH32 0x6421000000000000000000000000000000000000000000000000000000000000 PUSH1 0x40 DUP4 ADD MSTORE PUSH1 0x60 DUP3 ADD SWAP1 POP SWAP2 SWAP1 POP JUMP JUMPDEST PUSH1 0x0 PUSH2 0x53CB PUSH1 0x2F DUP4 PUSH2 0x5BA8 JUMP JUMPDEST SWAP2 POP PUSH32 0x4F6E6C792074686520636F6E7472616374206F776E65722063616E2070657266 PUSH1 0x0 DUP4 ADD MSTORE PUSH32 0x6F726D207468697320616374696F6E0000000000000000000000000000000000 PUSH1 0x20 DUP4 ADD MSTORE PUSH1 0x40 DUP3 ADD SWAP1 POP SWAP2 SWAP1 POP JUMP JUMPDEST PUSH1 0x0 PUSH2 0x5431 PUSH1 0x3C DUP4 PUSH2 0x5BA8 JUMP JUMPDEST SWAP2 POP PUSH32 0x4D6F64696679696E6720636F72652067726F7570206E616D657320616E642F6F PUSH1 0x0 DUP4 ADD MSTORE PUSH32 0x72207065726D697373696F6E73206973206E6F7420616C6C6F77656400000000 PUSH1 0x20 DUP4 ADD MSTORE PUSH1 0x40 DUP3 ADD SWAP1 POP SWAP2 SWAP1 POP JUMP JUMPDEST PUSH1 0x0 PUSH2 0x5497 PUSH1 0x14 DUP4 PUSH2 0x5BA8 JUMP JUMPDEST SWAP2 POP PUSH32 0x47726F757020646F6573206E6F74206578697374000000000000000000000000 PUSH1 0x0 DUP4 ADD MSTORE PUSH1 0x20 DUP3 ADD SWAP1 POP SWAP2 SWAP1 POP JUMP JUMPDEST PUSH1 0x0 PUSH2 0x54D7 PUSH1 0x24 DUP4 PUSH2 0x5BA8 JUMP JUMPDEST SWAP2 POP PUSH32 0x44656C6574696E67206120636F72652067726F7570206973206E6F7420616C6C PUSH1 0x0 DUP4 ADD MSTORE PUSH32 0x6F77656400000000000000000000000000000000000000000000000000000000 PUSH1 0x20 DUP4 ADD MSTORE PUSH1 0x40 DUP3 ADD SWAP1 POP SWAP2 SWAP1 POP JUMP JUMPDEST PUSH1 0x0 PUSH2 0x553D PUSH1 0x14 DUP4 PUSH2 0x5BA8 JUMP JUMPDEST SWAP2 POP PUSH32 0x5573657220646F6573206E6F7420657869737421000000000000000000000000 PUSH1 0x0 DUP4 ADD MSTORE PUSH1 0x20 DUP3 ADD SWAP1 POP SWAP2 SWAP1 POP JUMP JUMPDEST PUSH1 0x0 PUSH2 0x557D PUSH1 0x13 DUP4 PUSH2 0x5BA8 JUMP JUMPDEST SWAP2 POP PUSH32 0x5573657220646F6573206E6F7420657869737400000000000000000000000000 PUSH1 0x0 DUP4 ADD MSTORE PUSH1 0x20 DUP3 ADD SWAP1 POP SWAP2 SWAP1 POP JUMP JUMPDEST PUSH1 0x0 PUSH2 0x55BD PUSH1 0x19 DUP4 PUSH2 0x5BA8 JUMP JUMPDEST SWAP2 POP PUSH32 0x55736572206973206E6F7420696E20746869732067726F757000000000000000 PUSH1 0x0 DUP4 ADD MSTORE PUSH1 0x20 DUP3 ADD SWAP1 POP SWAP2 SWAP1 POP JUMP JUMPDEST PUSH1 0x0 PUSH2 0x55FC DUP3 DUP5 PUSH2 0x5036 JUMP JUMPDEST SWAP2 POP DUP2 SWAP1 POP SWAP3 SWAP2 POP POP JUMP JUMPDEST PUSH1 0x0 PUSH2 0x5613 DUP3 DUP5 PUSH2 0x5167 JUMP JUMPDEST SWAP2 POP DUP2 SWAP1 POP SWAP3 SWAP2 POP POP JUMP JUMPDEST PUSH1 0x0 PUSH2 0x5629 DUP3 PUSH2 0x528C JUMP JUMPDEST SWAP2 POP DUP2 SWAP1 POP SWAP2 SWAP1 POP JUMP JUMPDEST PUSH1 0x0 PUSH1 0x20 DUP3 ADD SWAP1 POP DUP2 DUP2 SUB PUSH1 0x0 DUP4 ADD MSTORE PUSH2 0x564D DUP2 DUP5 PUSH2 0x4ECC JUMP JUMPDEST SWAP1 POP SWAP3 SWAP2 POP POP JUMP JUMPDEST PUSH1 0x0 PUSH1 0x20 DUP3 ADD SWAP1 POP PUSH2 0x566A PUSH1 0x0 DUP4 ADD DUP5 PUSH2 0x4FB5 JUMP JUMPDEST SWAP3 SWAP2 POP POP JUMP JUMPDEST PUSH1 0x0 PUSH1 0x20 DUP3 ADD SWAP1 POP DUP2 DUP2 SUB PUSH1 0x0 DUP4 ADD MSTORE PUSH2 0x568A DUP2 DUP5 PUSH2 0x4FFD JUMP JUMPDEST SWAP1 POP SWAP3 SWAP2 POP POP JUMP JUMPDEST PUSH1 0x0 PUSH1 0x40 DUP3 ADD SWAP1 POP DUP2 DUP2 SUB PUSH1 0x0 DUP4 ADD MSTORE PUSH2 0x56AC DUP2 DUP6 PUSH2 0x4FFD JUMP JUMPDEST SWAP1 POP DUP2 DUP2 SUB PUSH1 0x20 DUP4 ADD MSTORE PUSH2 0x56C0 DUP2 DUP5 PUSH2 0x4ECC JUMP JUMPDEST SWAP1 POP SWAP4 SWAP3 POP POP POP JUMP JUMPDEST PUSH1 0x0 PUSH1 0x60 DUP3 ADD SWAP1 POP DUP2 DUP2 SUB PUSH1 0x0 DUP4 ADD MSTORE PUSH2 0x56E3 DUP2 DUP7 PUSH2 0x4FFD JUMP JUMPDEST SWAP1 POP DUP2 DUP2 SUB PUSH1 0x20 DUP4 ADD MSTORE PUSH2 0x56F7 DUP2 DUP6 PUSH2 0x4ECC JUMP JUMPDEST SWAP1 POP DUP2 DUP2 SUB PUSH1 0x40 DUP4 ADD MSTORE PUSH2 0x570B DUP2 DUP5 PUSH2 0x4ECC JUMP JUMPDEST SWAP1 POP SWAP5 SWAP4 POP POP POP POP JUMP JUMPDEST PUSH1 0x0 PUSH1 0x80 DUP3 ADD SWAP1 POP DUP2 DUP2 SUB PUSH1 0x0 DUP4 ADD MSTORE PUSH2 0x572F DUP2 DUP8 PUSH2 0x4FFD JUMP JUMPDEST SWAP1 POP DUP2 DUP2 SUB PUSH1 0x20 DUP4 ADD MSTORE PUSH2 0x5743 DUP2 DUP7 PUSH2 0x4ECC JUMP JUMPDEST SWAP1 POP DUP2 DUP2 SUB PUSH1 0x40 DUP4 ADD MSTORE PUSH2 0x5757 DUP2 DUP6 PUSH2 0x4ECC JUMP JUMPDEST SWAP1 POP DUP2 DUP2 SUB PUSH1 0x60 DUP4 ADD MSTORE PUSH2 0x576B DUP2 DUP5 PUSH2 0x4FFD JUMP JUMPDEST SWAP1 POP SWAP6 SWAP5 POP POP POP POP POP JUMP JUMPDEST PUSH1 0x0 PUSH1 0x40 DUP3 ADD SWAP1 POP DUP2 DUP2 SUB PUSH1 0x0 DUP4 ADD MSTORE PUSH2 0x5790 DUP2 DUP6 PUSH2 0x4FFD JUMP JUMPDEST SWAP1 POP PUSH2 0x579F PUSH1 0x20 DUP4 ADD DUP5 PUSH2 0x4FB5 JUMP JUMPDEST SWAP4 SWAP3 POP POP POP JUMP JUMPDEST PUSH1 0x0 PUSH1 0x40 DUP3 ADD SWAP1 POP DUP2 DUP2 SUB PUSH1 0x0 DUP4 ADD MSTORE PUSH2 0x57C0 DUP2 DUP6 PUSH2 0x4FFD JUMP JUMPDEST SWAP1 POP DUP2 DUP2 SUB PUSH1 0x20 DUP4 ADD MSTORE PUSH2 0x57D4 DUP2 DUP5 PUSH2 0x4FFD JUMP JUMPDEST SWAP1 POP SWAP4 SWAP3 POP POP POP JUMP JUMPDEST PUSH1 0x0 PUSH2 0x100 DUP3 ADD SWAP1 POP DUP2 DUP2 SUB PUSH1 0x0 DUP4 ADD MSTORE PUSH2 0x57F8 DUP2 DUP12 PUSH2 0x4FFD JUMP JUMPDEST SWAP1 POP DUP2 DUP2 SUB PUSH1 0x20 DUP4 ADD MSTORE PUSH2 0x580C DUP2 DUP11 PUSH2 0x4FFD JUMP JUMPDEST SWAP1 POP DUP2 DUP2 SUB PUSH1 0x40 DUP4 ADD MSTORE PUSH2 0x5820 DUP2 DUP10 PUSH2 0x4ECC JUMP JUMPDEST SWAP1 POP DUP2 DUP2 SUB PUSH1 0x60 DUP4 ADD MSTORE PUSH2 0x5834 DUP2 DUP9 PUSH2 0x4FFD JUMP JUMPDEST SWAP1 POP DUP2 DUP2 SUB PUSH1 0x80 DUP4 ADD MSTORE PUSH2 0x5848 DUP2 DUP8 PUSH2 0x4FFD JUMP JUMPDEST SWAP1 POP PUSH2 0x5857 PUSH1 0xA0 DUP4 ADD DUP7 PUSH2 0x4FB5 JUMP JUMPDEST DUP2 DUP2 SUB PUSH1 0xC0 DUP4 ADD MSTORE PUSH2 0x5869 DUP2 DUP6 PUSH2 0x4FFD JUMP JUMPDEST SWAP1 POP DUP2 DUP2 SUB PUSH1 0xE0 DUP4 ADD MSTORE PUSH2 0x587D DUP2 DUP5 PUSH2 0x4FFD JUMP JUMPDEST SWAP1 POP SWAP10 SWAP9 POP POP POP POP POP POP POP POP POP JUMP JUMPDEST PUSH1 0x0 PUSH1 0x60 DUP3 ADD SWAP1 POP DUP2 DUP2 SUB PUSH1 0x0 DUP4 ADD MSTORE PUSH2 0x58A6 DUP2 DUP7 PUSH2 0x4FFD JUMP JUMPDEST SWAP1 POP DUP2 DUP2 SUB PUSH1 0x20 DUP4 ADD MSTORE PUSH2 0x58BA DUP2 DUP6 PUSH2 0x4FFD JUMP JUMPDEST SWAP1 POP DUP2 DUP2 SUB PUSH1 0x40 DUP4 ADD MSTORE PUSH2 0x58CE DUP2 DUP5 PUSH2 0x4FFD JUMP JUMPDEST SWAP1 POP SWAP5 SWAP4 POP POP POP POP JUMP JUMPDEST PUSH1 0x0 PUSH1 0x60 DUP3 ADD SWAP1 POP DUP2 DUP2 SUB PUSH1 0x0 DUP4 ADD MSTORE PUSH2 0x58F2 DUP2 DUP7 PUSH2 0x50E7 JUMP JUMPDEST SWAP1 POP DUP2 DUP2 SUB PUSH1 0x20 DUP4 ADD MSTORE PUSH2 0x5906 DUP2 DUP6 PUSH2 0x4ECC JUMP JUMPDEST SWAP1 POP DUP2 DUP2 SUB PUSH1 0x40 DUP4 ADD MSTORE PUSH2 0x591A DUP2 DUP5 PUSH2 0x4F41 JUMP JUMPDEST SWAP1 POP SWAP5 SWAP4 POP POP POP POP JUMP JUMPDEST PUSH1 0x0 PUSH1 0x20 DUP3 ADD SWAP1 POP DUP2 DUP2 SUB PUSH1 0x0 DUP4 ADD MSTORE PUSH2 0x593D DUP2 PUSH2 0x51E6 JUMP JUMPDEST SWAP1 POP SWAP2 SWAP1 POP JUMP JUMPDEST PUSH1 0x0 PUSH1 0x20 DUP3 ADD SWAP1 POP DUP2 DUP2 SUB PUSH1 0x0 DUP4 ADD MSTORE PUSH2 0x595D DUP2 PUSH2 0x5226 JUMP JUMPDEST SWAP1 POP SWAP2 SWAP1 POP JUMP JUMPDEST PUSH1 0x0 PUSH1 0x20 DUP3 ADD SWAP1 POP DUP2 DUP2 SUB PUSH1 0x0 DUP4 ADD MSTORE PUSH2 0x597D DUP2 PUSH2 0x52CC JUMP JUMPDEST SWAP1 POP SWAP2 SWAP1 POP JUMP JUMPDEST PUSH1 0x0 PUSH1 0x20 DUP3 ADD SWAP1 POP DUP2 DUP2 SUB PUSH1 0x0 DUP4 ADD MSTORE PUSH2 0x599D DUP2 PUSH2 0x5332 JUMP JUMPDEST SWAP1 POP SWAP2 SWAP1 POP JUMP JUMPDEST PUSH1 0x0 PUSH1 0x20 DUP3 ADD SWAP1 POP DUP2 DUP2 SUB PUSH1 0x0 DUP4 ADD MSTORE PUSH2 0x59BD DUP2 PUSH2 0x53BE JUMP JUMPDEST SWAP1 POP SWAP2 SWAP1 POP JUMP JUMPDEST PUSH1 0x0 PUSH1 0x20 DUP3 ADD SWAP1 POP DUP2 DUP2 SUB PUSH1 0x0 DUP4 ADD MSTORE PUSH2 0x59DD DUP2 PUSH2 0x5424 JUMP JUMPDEST SWAP1 POP SWAP2 SWAP1 POP JUMP JUMPDEST PUSH1 0x0 PUSH1 0x20 DUP3 ADD SWAP1 POP DUP2 DUP2 SUB PUSH1 0x0 DUP4 ADD MSTORE PUSH2 0x59FD DUP2 PUSH2 0x548A JUMP JUMPDEST SWAP1 POP SWAP2 SWAP1 POP JUMP JUMPDEST PUSH1 0x0 PUSH1 0x20 DUP3 ADD SWAP1 POP DUP2 DUP2 SUB PUSH1 0x0 DUP4 ADD MSTORE PUSH2 0x5A1D DUP2 PUSH2 0x54CA JUMP JUMPDEST SWAP1 POP SWAP2 SWAP1 POP JUMP JUMPDEST PUSH1 0x0 PUSH1 0x20 DUP3 ADD SWAP1 POP DUP2 DUP2 SUB PUSH1 0x0 DUP4 ADD MSTORE PUSH2 0x5A3D DUP2 PUSH2 0x5530 JUMP JUMPDEST SWAP1 POP SWAP2 SWAP1 POP JUMP JUMPDEST PUSH1 0x0 PUSH1 0x20 DUP3 ADD SWAP1 POP DUP2 DUP2 SUB PUSH1 0x0 DUP4 ADD MSTORE PUSH2 0x5A5D DUP2 PUSH2 0x5570 JUMP JUMPDEST SWAP1 POP SWAP2 SWAP1 POP JUMP JUMPDEST PUSH1 0x0 PUSH1 0x20 DUP3 ADD SWAP1 POP DUP2 DUP2 SUB PUSH1 0x0 DUP4 ADD MSTORE PUSH2 0x5A7D DUP2 PUSH2 0x55B0 JUMP JUMPDEST SWAP1 POP SWAP2 SWAP1 POP JUMP JUMPDEST PUSH1 0x0 PUSH1 0x40 MLOAD SWAP1 POP DUP2 DUP2 ADD DUP2 DUP2 LT PUSH8 0xFFFFFFFFFFFFFFFF DUP3 GT OR ISZERO PUSH2 0x5AAB JUMPI PUSH2 0x5AAA PUSH2 0x5D29 JUMP JUMPDEST JUMPDEST DUP1 PUSH1 0x40 MSTORE POP SWAP2 SWAP1 POP JUMP JUMPDEST PUSH1 0x0 PUSH8 0xFFFFFFFFFFFFFFFF DUP3 GT ISZERO PUSH2 0x5AD0 JUMPI PUSH2 0x5ACF PUSH2 0x5D29 JUMP JUMPDEST JUMPDEST PUSH1 0x20 DUP3 MUL SWAP1 POP PUSH1 0x20 DUP2 ADD SWAP1 POP SWAP2 SWAP1 POP JUMP JUMPDEST PUSH1 0x0 PUSH8 0xFFFFFFFFFFFFFFFF DUP3 GT ISZERO PUSH2 0x5AFC JUMPI PUSH2 0x5AFB PUSH2 0x5D29 JUMP JUMPDEST JUMPDEST PUSH1 0x1F NOT PUSH1 0x1F DUP4 ADD AND SWAP1 POP PUSH1 0x20 DUP2 ADD SWAP1 POP SWAP2 SWAP1 POP JUMP JUMPDEST PUSH1 0x0 DUP2 SWAP1 POP PUSH1 0x20 DUP3 ADD SWAP1 POP SWAP2 SWAP1 POP JUMP JUMPDEST PUSH1 0x0 DUP2 SWAP1 POP DUP2 PUSH1 0x0 MSTORE PUSH1 0x20 PUSH1 0x0 KECCAK256 SWAP1 POP SWAP2 SWAP1 POP JUMP JUMPDEST PUSH1 0x0 DUP2 SWAP1 POP DUP2 PUSH1 0x0 MSTORE PUSH1 0x20 PUSH1 0x0 KECCAK256 SWAP1 POP SWAP2 SWAP1 POP JUMP JUMPDEST PUSH1 0x0 DUP2 MLOAD SWAP1 POP SWAP2 SWAP1 POP JUMP JUMPDEST PUSH1 0x0 DUP2 SLOAD SWAP1 POP SWAP2 SWAP1 POP JUMP JUMPDEST PUSH1 0x0 DUP2 MLOAD SWAP1 POP SWAP2 SWAP1 POP JUMP JUMPDEST PUSH1 0x0 PUSH1 0x20 DUP3 ADD SWAP1 POP SWAP2 SWAP1 POP JUMP JUMPDEST PUSH1 0x0 PUSH1 0x1 DUP3 ADD SWAP1 POP SWAP2 SWAP1 POP JUMP JUMPDEST PUSH1 0x0 DUP3 DUP3 MSTORE PUSH1 0x20 DUP3 ADD SWAP1 POP SWAP3 SWAP2 POP POP JUMP JUMPDEST PUSH1 0x0 DUP3 DUP3 MSTORE PUSH1 0x20 DUP3 ADD SWAP1 POP SWAP3 SWAP2 POP POP JUMP JUMPDEST PUSH1 0x0 DUP3 DUP3 MSTORE PUSH1 0x20 DUP3 ADD SWAP1 POP SWAP3 SWAP2 POP POP JUMP JUMPDEST PUSH1 0x0 DUP2 SWAP1 POP SWAP3 SWAP2 POP POP JUMP JUMPDEST PUSH1 0x0 PUSH2 0x5BCF DUP3 PUSH2 0x5C04 JUMP JUMPDEST SWAP2 POP PUSH2 0x5BDA DUP4 PUSH2 0x5C04 JUMP JUMPDEST SWAP3 POP DUP3 DUP3 LT ISZERO PUSH2 0x5BED JUMPI PUSH2 0x5BEC PUSH2 0x5CCB JUMP JUMPDEST JUMPDEST DUP3 DUP3 SUB SWAP1 POP SWAP3 SWAP2 POP POP JUMP JUMPDEST PUSH1 0x0 DUP2 ISZERO ISZERO SWAP1 POP SWAP2 SWAP1 POP JUMP JUMPDEST PUSH1 0x0 DUP2 SWAP1 POP SWAP2 SWAP1 POP JUMP JUMPDEST DUP3 DUP2 DUP4 CALLDATACOPY PUSH1 0x0 DUP4 DUP4 ADD MSTORE POP POP POP JUMP JUMPDEST PUSH1 0x0 JUMPDEST DUP4 DUP2 LT ISZERO PUSH2 0x5C3B JUMPI DUP1 DUP3 ADD MLOAD DUP2 DUP5 ADD MSTORE PUSH1 0x20 DUP2 ADD SWAP1 POP PUSH2 0x5C20 JUMP JUMPDEST DUP4 DUP2 GT ISZERO PUSH2 0x5C4A JUMPI PUSH1 0x0 DUP5 DUP5 ADD MSTORE JUMPDEST POP POP POP POP JUMP JUMPDEST PUSH1 0x0 PUSH1 0x2 DUP3 DIV SWAP1 POP PUSH1 0x1 DUP3 AND DUP1 PUSH2 0x5C68 JUMPI PUSH1 0x7F DUP3 AND SWAP2 POP JUMPDEST PUSH1 0x20 DUP3 LT DUP2 EQ ISZERO PUSH2 0x5C7C JUMPI PUSH2 0x5C7B PUSH2 0x5CFA JUMP JUMPDEST JUMPDEST POP SWAP2 SWAP1 POP JUMP JUMPDEST PUSH1 0x0 PUSH2 0x5C8D DUP3 PUSH2 0x5C04 JUMP JUMPDEST SWAP2 POP PUSH32 0xFFFFFFFFFFFFFFFFFFFFFFFFFFFFFFFFFFFFFFFFFFFFFFFFFFFFFFFFFFFFFFFF DUP3 EQ ISZERO PUSH2 0x5CC0 JUMPI PUSH2 0x5CBF PUSH2 0x5CCB JUMP JUMPDEST JUMPDEST PUSH1 0x1 DUP3 ADD SWAP1 POP SWAP2 SWAP1 POP JUMP JUMPDEST PUSH32 0x4E487B7100000000000000000000000000000000000000000000000000000000 PUSH1 0x0 MSTORE PUSH1 0x11 PUSH1 0x4 MSTORE PUSH1 0x24 PUSH1 0x0 REVERT JUMPDEST PUSH32 0x4E487B7100000000000000000000000000000000000000000000000000000000 PUSH1 0x0 MSTORE PUSH1 0x22 PUSH1 0x4 MSTORE PUSH1 0x24 PUSH1 0x0 REVERT JUMPDEST PUSH32 0x4E487B7100000000000000000000000000000000000000000000000000000000 PUSH1 0x0 MSTORE PUSH1 0x41 PUSH1 0x4 MSTORE PUSH1 0x24 PUSH1 0x0 REVERT JUMPDEST PUSH1 0x0 PUSH1 0x1F NOT PUSH1 0x1F DUP4 ADD AND SWAP1 POP SWAP2 SWAP1 POP JUMP INVALID LOG2 PUSH5 0x6970667358 0x22 SLT KECCAK256 0xF9 PUSH23 0x605BA5B8BD00C0912F308A03570A5C70BB23CBFB839B6E CALLVALUE PUSH1 0x10 0xEB 0xB4 DUP11 SLOAD PUSH5 0x736F6C6343 STOP ADDMOD STOP STOP CALLER "},"methodIdentifiers":{"addUserToGroup(string,string)":"ecb5a4d5","checkIfUserExists(string)":"6cad1934","createGroup(string,string[],string)":"dbfc63f9","emitLoginSuccessLog(string)":"6b228cde","getAllGroups()":"21cd3cae","getAllUsernames()":"53620375","getGroup(string)":"abef281e","getUser(string)":"31feb671","getUserFaceHashes(string)":"2d09d9e9","getUserPermissions(string)":"ee1c55da","registerUser(string,string,string[],string)":"b9e6facb","removeGroup(string)":"6246b310","removeUser(string)":"600cee78","removeUserFromGroup(string,string)":"67753ba1","setGroupPermissions(string,string[])":"1ae7f10a","setGroupURL(string,string)":"0e63a8c4","toggleUser(string)":"5108c3ab","updateGroup(string,string,string[])":"5b9a6b1d","updateUserEmail(string,string)":"266c1bab","updateUserFaceHash(string,string[])":"03df9e92","updateUserFullName(string,string)":"8a0bd86b","updateUserPassword(string,string)":"c91bc46c"}}}}}